{
  "_format": "hh-sol-artifact-1",
  "contractName": "PackageManagerV2_1",
  "sourceName": "contracts/PackageManagerV2_1.sol",
  "abi": [
    {
      "inputs": [
        {
          "internalType": "address",
          "name": "usdt_",
          "type": "address"
        },
        {
          "internalType": "address",
          "name": "share_",
          "type": "address"
        },
        {
          "internalType": "address",
          "name": "lp_",
          "type": "address"
        },
        {
          "internalType": "address",
          "name": "vault_",
          "type": "address"
        },
        {
          "internalType": "address",
          "name": "router_",
          "type": "address"
        },
        {
          "internalType": "address",
          "name": "factory_",
          "type": "address"
        },
        {
          "internalType": "address",
          "name": "treasury_",
          "type": "address"
        },
        {
          "internalType": "address",
          "name": "tax_",
          "type": "address"
        },
        {
          "internalType": "address",
          "name": "admin",
          "type": "address"
        },
        {
          "internalType": "uint256",
          "name": "initialGlobalTargetPrice_",
          "type": "uint256"
        }
      ],
      "stateMutability": "nonpayable",
      "type": "constructor"
    },
    {
      "inputs": [],
      "name": "AccessControlBadConfirmation",
      "type": "error"
    },
    {
      "inputs": [
        {
          "internalType": "address",
          "name": "account",
          "type": "address"
        },
        {
          "internalType": "bytes32",
          "name": "neededRole",
          "type": "bytes32"
        }
      ],
      "name": "AccessControlUnauthorizedAccount",
      "type": "error"
    },
    {
      "inputs": [],
      "name": "EnforcedPause",
      "type": "error"
    },
    {
      "inputs": [],
      "name": "ExpectedPause",
      "type": "error"
    },
    {
      "inputs": [],
      "name": "ReentrancyGuardReentrantCall",
      "type": "error"
    },
    {
      "inputs": [
        {
          "internalType": "address",
          "name": "token",
          "type": "address"
        }
      ],
      "name": "SafeERC20FailedOperation",
      "type": "error"
    },
    {
      "anonymous": false,
      "inputs": [
        {
          "indexed": false,
          "internalType": "uint256",
          "name": "oldWindow",
          "type": "uint256"
        },
        {
          "indexed": false,
          "internalType": "uint256",
          "name": "newWindow",
          "type": "uint256"
        }
      ],
      "name": "DeadlineWindowUpdated",
      "type": "event"
    },
    {
      "anonymous": false,
      "inputs": [
        {
          "indexed": false,
          "internalType": "uint256",
          "name": "oldGlobalTargetPrice",
          "type": "uint256"
        },
        {
          "indexed": false,
          "internalType": "uint256",
          "name": "newGlobalTargetPrice",
          "type": "uint256"
        }
      ],
      "name": "GlobalTargetPriceUpdated",
      "type": "event"
    },
    {
      "anonymous": false,
      "inputs": [
        {
          "indexed": true,
          "internalType": "address",
          "name": "user",
          "type": "address"
        },
        {
          "indexed": true,
          "internalType": "uint256",
          "name": "packageId",
          "type": "uint256"
        },
        {
          "indexed": false,
          "internalType": "uint256",
          "name": "shareTokenAmount",
          "type": "uint256"
        },
        {
          "indexed": false,
          "internalType": "uint256",
          "name": "usdtAmount",
          "type": "uint256"
        },
        {
          "indexed": false,
          "internalType": "uint256",
          "name": "liquidityTokens",
          "type": "uint256"
        },
        {
          "indexed": false,
          "internalType": "uint256",
          "name": "actualShareToken",
          "type": "uint256"
        },
        {
          "indexed": false,
          "internalType": "uint256",
          "name": "actualUSDT",
          "type": "uint256"
        }
      ],
      "name": "LiquidityAdded",
      "type": "event"
    },
    {
      "anonymous": false,
      "inputs": [
        {
          "indexed": true,
          "internalType": "address",
          "name": "user",
          "type": "address"
        },
        {
          "indexed": true,
          "internalType": "uint256",
          "name": "packageId",
          "type": "uint256"
        },
        {
          "indexed": false,
          "internalType": "uint256",
          "name": "usdtAmount",
          "type": "uint256"
        },
        {
          "indexed": false,
          "internalType": "string",
          "name": "reason",
          "type": "string"
        }
      ],
      "name": "LiquidityAdditionFailed",
      "type": "event"
    },
    {
      "anonymous": false,
      "inputs": [
        {
          "indexed": true,
          "internalType": "address",
          "name": "user",
          "type": "address"
        },
        {
          "indexed": false,
          "internalType": "uint256",
          "name": "lpTokensBurned",
          "type": "uint256"
        },
        {
          "indexed": false,
          "internalType": "uint256",
          "name": "liquidityRemoved",
          "type": "uint256"
        },
        {
          "indexed": false,
          "internalType": "uint256",
          "name": "shareTokenReceived",
          "type": "uint256"
        },
        {
          "indexed": false,
          "internalType": "uint256",
          "name": "usdtReceived",
          "type": "uint256"
        }
      ],
      "name": "LiquidityRedeemed",
      "type": "event"
    },
    {
      "anonymous": false,
      "inputs": [
        {
          "indexed": false,
          "internalType": "uint256",
          "name": "marketPrice",
          "type": "uint256"
        },
        {
          "indexed": false,
          "internalType": "uint256",
          "name": "globalTargetPrice",
          "type": "uint256"
        },
        {
          "indexed": false,
          "internalType": "uint256",
          "name": "priceDifference",
          "type": "uint256"
        }
      ],
      "name": "MarketPriceUsed",
      "type": "event"
    },
    {
      "anonymous": false,
      "inputs": [
        {
          "indexed": true,
          "internalType": "uint256",
          "name": "id",
          "type": "uint256"
        },
        {
          "indexed": false,
          "internalType": "string",
          "name": "name",
          "type": "string"
        },
        {
          "indexed": false,
          "internalType": "uint256",
          "name": "entryUSDT",
          "type": "uint256"
        },
        {
          "indexed": false,
          "internalType": "uint256",
          "name": "exchangeRate",
          "type": "uint256"
        },
        {
          "indexed": false,
          "internalType": "uint16",
          "name": "vestBps",
          "type": "uint16"
        },
        {
          "indexed": false,
          "internalType": "uint64",
          "name": "cliff",
          "type": "uint64"
        },
        {
          "indexed": false,
          "internalType": "uint64",
          "name": "duration",
          "type": "uint64"
        },
        {
          "indexed": false,
          "internalType": "uint16",
          "name": "referralBps",
          "type": "uint16"
        }
      ],
      "name": "PackageAdded",
      "type": "event"
    },
    {
      "anonymous": false,
      "inputs": [
        {
          "indexed": true,
          "internalType": "uint256",
          "name": "id",
          "type": "uint256"
        },
        {
          "indexed": false,
          "internalType": "uint256",
          "name": "oldExchangeRate",
          "type": "uint256"
        },
        {
          "indexed": false,
          "internalType": "uint256",
          "name": "newExchangeRate",
          "type": "uint256"
        }
      ],
      "name": "PackageExchangeRateUpdated",
      "type": "event"
    },
    {
      "anonymous": false,
      "inputs": [
        {
          "indexed": true,
          "internalType": "uint256",
          "name": "id",
          "type": "uint256"
        },
        {
          "indexed": false,
          "internalType": "bool",
          "name": "active",
          "type": "bool"
        }
      ],
      "name": "PackageToggled",
      "type": "event"
    },
    {
      "anonymous": false,
      "inputs": [
        {
          "indexed": false,
          "internalType": "address",
          "name": "account",
          "type": "address"
        }
      ],
      "name": "Paused",
      "type": "event"
    },
    {
      "anonymous": false,
      "inputs": [
        {
          "indexed": true,
          "internalType": "address",
          "name": "buyer",
          "type": "address"
        },
        {
          "indexed": true,
          "internalType": "uint256",
          "name": "packageId",
          "type": "uint256"
        },
        {
          "indexed": false,
          "internalType": "uint256",
          "name": "usdtAmount",
          "type": "uint256"
        },
        {
          "indexed": false,
          "internalType": "uint256",
          "name": "totalTokens",
          "type": "uint256"
        },
        {
          "indexed": false,
          "internalType": "uint256",
          "name": "vestTokens",
          "type": "uint256"
        },
        {
          "indexed": false,
          "internalType": "uint256",
          "name": "poolTokens",
          "type": "uint256"
        },
        {
          "indexed": false,
          "internalType": "uint256",
          "name": "lpTokens",
          "type": "uint256"
        },
        {
          "indexed": true,
          "internalType": "address",
          "name": "referrer",
          "type": "address"
        },
        {
          "indexed": false,
          "internalType": "uint256",
          "name": "referralReward",
          "type": "uint256"
        }
      ],
      "name": "Purchased",
      "type": "event"
    },
    {
      "anonymous": false,
      "inputs": [
        {
          "indexed": true,
          "internalType": "address",
          "name": "user",
          "type": "address"
        },
        {
          "indexed": false,
          "internalType": "uint256",
          "name": "lpAmount",
          "type": "uint256"
        }
      ],
      "name": "Redeemed",
      "type": "event"
    },
    {
      "anonymous": false,
      "inputs": [
        {
          "indexed": true,
          "internalType": "address",
          "name": "referrer",
          "type": "address"
        },
        {
          "indexed": true,
          "internalType": "address",
          "name": "buyer",
          "type": "address"
        },
        {
          "indexed": false,
          "internalType": "uint256",
          "name": "reward",
          "type": "uint256"
        }
      ],
      "name": "ReferralPaid",
      "type": "event"
    },
    {
      "anonymous": false,
      "inputs": [
        {
          "indexed": true,
          "internalType": "bytes32",
          "name": "role",
          "type": "bytes32"
        },
        {
          "indexed": true,
          "internalType": "bytes32",
          "name": "previousAdminRole",
          "type": "bytes32"
        },
        {
          "indexed": true,
          "internalType": "bytes32",
          "name": "newAdminRole",
          "type": "bytes32"
        }
      ],
      "name": "RoleAdminChanged",
      "type": "event"
    },
    {
      "anonymous": false,
      "inputs": [
        {
          "indexed": true,
          "internalType": "bytes32",
          "name": "role",
          "type": "bytes32"
        },
        {
          "indexed": true,
          "internalType": "address",
          "name": "account",
          "type": "address"
        },
        {
          "indexed": true,
          "internalType": "address",
          "name": "sender",
          "type": "address"
        }
      ],
      "name": "RoleGranted",
      "type": "event"
    },
    {
      "anonymous": false,
      "inputs": [
        {
          "indexed": true,
          "internalType": "bytes32",
          "name": "role",
          "type": "bytes32"
        },
        {
          "indexed": true,
          "internalType": "address",
          "name": "account",
          "type": "address"
        },
        {
          "indexed": true,
          "internalType": "address",
          "name": "sender",
          "type": "address"
        }
      ],
      "name": "RoleRevoked",
      "type": "event"
    },
    {
      "anonymous": false,
      "inputs": [
        {
          "indexed": true,
          "internalType": "address",
          "name": "user",
          "type": "address"
        },
        {
          "indexed": true,
          "internalType": "uint256",
          "name": "packageId",
          "type": "uint256"
        },
        {
          "indexed": false,
          "internalType": "uint256",
          "name": "requestedShareToken",
          "type": "uint256"
        },
        {
          "indexed": false,
          "internalType": "uint256",
          "name": "requestedUSDT",
          "type": "uint256"
        },
        {
          "indexed": false,
          "internalType": "uint256",
          "name": "minShareToken",
          "type": "uint256"
        },
        {
          "indexed": false,
          "internalType": "uint256",
          "name": "minUSDT",
          "type": "uint256"
        }
      ],
      "name": "SlippageProtectionTriggered",
      "type": "event"
    },
    {
      "anonymous": false,
      "inputs": [
        {
          "indexed": false,
          "internalType": "uint256",
          "name": "oldTolerance",
          "type": "uint256"
        },
        {
          "indexed": false,
          "internalType": "uint256",
          "name": "newTolerance",
          "type": "uint256"
        }
      ],
      "name": "SlippageToleranceUpdated",
      "type": "event"
    },
    {
      "anonymous": false,
      "inputs": [
        {
          "indexed": true,
          "internalType": "bytes32",
          "name": "taxKey",
          "type": "bytes32"
        },
        {
          "indexed": false,
          "internalType": "uint256",
          "name": "amount",
          "type": "uint256"
        },
        {
          "indexed": true,
          "internalType": "address",
          "name": "recipient",
          "type": "address"
        }
      ],
      "name": "TaxApplied",
      "type": "event"
    },
    {
      "anonymous": false,
      "inputs": [
        {
          "indexed": true,
          "internalType": "address",
          "name": "buyer",
          "type": "address"
        },
        {
          "indexed": true,
          "internalType": "uint256",
          "name": "packageId",
          "type": "uint256"
        },
        {
          "indexed": false,
          "internalType": "uint256",
          "name": "amount",
          "type": "uint256"
        }
      ],
      "name": "TreasuryBlocksAllocated",
      "type": "event"
    },
    {
      "anonymous": false,
      "inputs": [
        {
          "indexed": true,
          "internalType": "address",
          "name": "oldTreasury",
          "type": "address"
        },
        {
          "indexed": true,
          "internalType": "address",
          "name": "newTreasury",
          "type": "address"
        }
      ],
      "name": "TreasuryUpdated",
      "type": "event"
    },
    {
      "anonymous": false,
      "inputs": [
        {
          "indexed": false,
          "internalType": "address",
          "name": "account",
          "type": "address"
        }
      ],
      "name": "Unpaused",
      "type": "event"
    },
    {
      "inputs": [],
      "name": "ADMIN_ROLE",
      "outputs": [
        {
          "internalType": "bytes32",
          "name": "",
          "type": "bytes32"
        }
      ],
      "stateMutability": "view",
      "type": "function"
    },
    {
      "inputs": [],
      "name": "DEFAULT_ADMIN_ROLE",
      "outputs": [
        {
          "internalType": "bytes32",
          "name": "",
          "type": "bytes32"
        }
      ],
      "stateMutability": "view",
      "type": "function"
    },
    {
      "inputs": [],
      "name": "PURCHASE_TAX_KEY",
      "outputs": [
        {
          "internalType": "bytes32",
          "name": "",
          "type": "bytes32"
        }
      ],
      "stateMutability": "view",
      "type": "function"
    },
    {
      "inputs": [],
      "name": "REFERRAL_TAX_KEY",
      "outputs": [
        {
          "internalType": "bytes32",
          "name": "",
          "type": "bytes32"
        }
      ],
      "stateMutability": "view",
      "type": "function"
    },
    {
      "inputs": [
        {
          "internalType": "string",
          "name": "name",
          "type": "string"
        },
        {
          "internalType": "uint256",
          "name": "entryUSDT",
          "type": "uint256"
        },
        {
          "internalType": "uint256",
          "name": "exchangeRate",
          "type": "uint256"
        },
        {
          "internalType": "uint16",
          "name": "vestBps",
          "type": "uint16"
        },
        {
          "internalType": "uint64",
          "name": "cliff",
          "type": "uint64"
        },
        {
          "internalType": "uint64",
          "name": "duration",
          "type": "uint64"
        },
        {
          "internalType": "uint16",
          "name": "referralBps",
          "type": "uint16"
        }
      ],
      "name": "addPackage",
      "outputs": [],
      "stateMutability": "nonpayable",
      "type": "function"
    },
    {
      "inputs": [],
      "name": "deadlineWindow",
      "outputs": [
        {
          "internalType": "uint256",
          "name": "",
          "type": "uint256"
        }
      ],
      "stateMutability": "view",
      "type": "function"
    },
    {
      "inputs": [
        {
          "internalType": "address",
          "name": "token",
          "type": "address"
        },
        {
          "internalType": "uint256",
          "name": "amount",
          "type": "uint256"
        }
      ],
      "name": "emergencyRecoverToken",
      "outputs": [],
      "stateMutability": "nonpayable",
      "type": "function"
    },
    {
      "inputs": [],
      "name": "factory",
      "outputs": [
        {
          "internalType": "contract IPancakeFactory",
          "name": "",
          "type": "address"
        }
      ],
      "stateMutability": "view",
      "type": "function"
    },
    {
      "inputs": [],
      "name": "getActivePackageIds",
      "outputs": [
        {
          "internalType": "uint256[]",
          "name": "",
          "type": "uint256[]"
        }
      ],
      "stateMutability": "view",
      "type": "function"
    },
    {
      "inputs": [],
      "name": "getCurrentMarketPrice",
      "outputs": [
        {
          "internalType": "uint256",
          "name": "marketPrice",
          "type": "uint256"
        },
        {
          "internalType": "bool",
          "name": "hasLiquidity",
          "type": "bool"
        }
      ],
      "stateMutability": "view",
      "type": "function"
    },
    {
      "inputs": [
        {
          "internalType": "uint256",
          "name": "id",
          "type": "uint256"
        }
      ],
      "name": "getPackage",
      "outputs": [
        {
          "components": [
            {
              "internalType": "string",
              "name": "name",
              "type": "string"
            },
            {
              "internalType": "uint256",
              "name": "entryUSDT",
              "type": "uint256"
            },
            {
              "internalType": "uint256",
              "name": "exchangeRate",
              "type": "uint256"
            },
            {
              "internalType": "uint16",
              "name": "vestBps",
              "type": "uint16"
            },
            {
              "internalType": "uint64",
              "name": "cliff",
              "type": "uint64"
            },
            {
              "internalType": "uint64",
              "name": "duration",
              "type": "uint64"
            },
            {
              "internalType": "uint16",
              "name": "referralBps",
              "type": "uint16"
            },
            {
              "internalType": "bool",
              "name": "active",
              "type": "bool"
            },
            {
              "internalType": "bool",
              "name": "exists",
              "type": "bool"
            }
          ],
          "internalType": "struct PackageManagerV2_1.Package",
          "name": "",
          "type": "tuple"
        }
      ],
      "stateMutability": "view",
      "type": "function"
    },
    {
      "inputs": [],
      "name": "getPackageCount",
      "outputs": [
        {
          "internalType": "uint256",
          "name": "",
          "type": "uint256"
        }
      ],
      "stateMutability": "view",
      "type": "function"
    },
    {
      "inputs": [],
      "name": "getPackageIds",
      "outputs": [
        {
          "internalType": "uint256[]",
          "name": "",
          "type": "uint256[]"
        }
      ],
      "stateMutability": "view",
      "type": "function"
    },
    {
      "inputs": [
        {
          "internalType": "address",
          "name": "owner",
          "type": "address"
        }
      ],
      "name": "getPackagesByOwner",
      "outputs": [
        {
          "components": [
            {
              "internalType": "uint256",
              "name": "packageId",
              "type": "uint256"
            },
            {
              "internalType": "uint256",
              "name": "usdtAmount",
              "type": "uint256"
            },
            {
              "internalType": "uint256",
              "name": "totalTokens",
              "type": "uint256"
            },
            {
              "internalType": "uint256",
              "name": "vestTokens",
              "type": "uint256"
            },
            {
              "internalType": "uint256",
              "name": "poolTokens",
              "type": "uint256"
            },
            {
              "internalType": "uint256",
              "name": "lpTokens",
              "type": "uint256"
            },
            {
              "internalType": "address",
              "name": "referrer",
              "type": "address"
            },
            {
              "internalType": "uint256",
              "name": "referralReward",
              "type": "uint256"
            },
            {
              "internalType": "uint256",
              "name": "timestamp",
              "type": "uint256"
            }
          ],
          "internalType": "struct PackageManagerV2_1.UserPurchase[]",
          "name": "",
          "type": "tuple[]"
        }
      ],
      "stateMutability": "view",
      "type": "function"
    },
    {
      "inputs": [
        {
          "internalType": "uint256",
          "name": "lpAmount",
          "type": "uint256"
        }
      ],
      "name": "getRedemptionPreview",
      "outputs": [
        {
          "internalType": "uint256",
          "name": "expectedShare",
          "type": "uint256"
        },
        {
          "internalType": "uint256",
          "name": "expectedUSDT",
          "type": "uint256"
        },
        {
          "internalType": "uint256",
          "name": "liquidityToRemove",
          "type": "uint256"
        }
      ],
      "stateMutability": "view",
      "type": "function"
    },
    {
      "inputs": [
        {
          "internalType": "bytes32",
          "name": "role",
          "type": "bytes32"
        }
      ],
      "name": "getRoleAdmin",
      "outputs": [
        {
          "internalType": "bytes32",
          "name": "",
          "type": "bytes32"
        }
      ],
      "stateMutability": "view",
      "type": "function"
    },
    {
      "inputs": [],
      "name": "getTreasuryBlocksAllowance",
      "outputs": [
        {
          "internalType": "uint256",
          "name": "",
          "type": "uint256"
        }
      ],
      "stateMutability": "view",
      "type": "function"
    },
    {
      "inputs": [],
      "name": "getTreasuryBlocksBalance",
      "outputs": [
        {
          "internalType": "uint256",
          "name": "",
          "type": "uint256"
        }
      ],
      "stateMutability": "view",
      "type": "function"
    },
    {
      "inputs": [
        {
          "internalType": "address",
          "name": "user",
          "type": "address"
        }
      ],
      "name": "getUserPackageCount",
      "outputs": [
        {
          "internalType": "uint256",
          "name": "",
          "type": "uint256"
        }
      ],
      "stateMutability": "view",
      "type": "function"
    },
    {
      "inputs": [
        {
          "internalType": "address",
          "name": "user",
          "type": "address"
        }
      ],
      "name": "getUserPackages",
      "outputs": [
        {
          "components": [
            {
              "internalType": "uint256",
              "name": "packageId",
              "type": "uint256"
            },
            {
              "internalType": "uint256",
              "name": "usdtAmount",
              "type": "uint256"
            },
            {
              "internalType": "uint256",
              "name": "totalTokens",
              "type": "uint256"
            },
            {
              "internalType": "uint256",
              "name": "vestTokens",
              "type": "uint256"
            },
            {
              "internalType": "uint256",
              "name": "poolTokens",
              "type": "uint256"
            },
            {
              "internalType": "uint256",
              "name": "lpTokens",
              "type": "uint256"
            },
            {
              "internalType": "address",
              "name": "referrer",
              "type": "address"
            },
            {
              "internalType": "uint256",
              "name": "referralReward",
              "type": "uint256"
            },
            {
              "internalType": "uint256",
              "name": "timestamp",
              "type": "uint256"
            }
          ],
          "internalType": "struct PackageManagerV2_1.UserPurchase[]",
          "name": "",
          "type": "tuple[]"
        }
      ],
      "stateMutability": "view",
      "type": "function"
    },
    {
      "inputs": [
        {
          "internalType": "address",
          "name": "user",
          "type": "address"
        },
        {
          "internalType": "uint256",
          "name": "index",
          "type": "uint256"
        }
      ],
      "name": "getUserPurchase",
      "outputs": [
        {
          "components": [
            {
              "internalType": "uint256",
              "name": "packageId",
              "type": "uint256"
            },
            {
              "internalType": "uint256",
              "name": "usdtAmount",
              "type": "uint256"
            },
            {
              "internalType": "uint256",
              "name": "totalTokens",
              "type": "uint256"
            },
            {
              "internalType": "uint256",
              "name": "vestTokens",
              "type": "uint256"
            },
            {
              "internalType": "uint256",
              "name": "poolTokens",
              "type": "uint256"
            },
            {
              "internalType": "uint256",
              "name": "lpTokens",
              "type": "uint256"
            },
            {
              "internalType": "address",
              "name": "referrer",
              "type": "address"
            },
            {
              "internalType": "uint256",
              "name": "referralReward",
              "type": "uint256"
            },
            {
              "internalType": "uint256",
              "name": "timestamp",
              "type": "uint256"
            }
          ],
          "internalType": "struct PackageManagerV2_1.UserPurchase",
          "name": "",
          "type": "tuple"
        }
      ],
      "stateMutability": "view",
      "type": "function"
    },
    {
      "inputs": [
        {
          "internalType": "address",
          "name": "user",
          "type": "address"
        }
      ],
      "name": "getUserPurchaseCount",
      "outputs": [
        {
          "internalType": "uint256",
          "name": "",
          "type": "uint256"
        }
      ],
      "stateMutability": "view",
      "type": "function"
    },
    {
      "inputs": [
        {
          "internalType": "address",
          "name": "user",
          "type": "address"
        }
      ],
      "name": "getUserPurchases",
      "outputs": [
        {
          "components": [
            {
              "internalType": "uint256",
              "name": "packageId",
              "type": "uint256"
            },
            {
              "internalType": "uint256",
              "name": "usdtAmount",
              "type": "uint256"
            },
            {
              "internalType": "uint256",
              "name": "totalTokens",
              "type": "uint256"
            },
            {
              "internalType": "uint256",
              "name": "vestTokens",
              "type": "uint256"
            },
            {
              "internalType": "uint256",
              "name": "poolTokens",
              "type": "uint256"
            },
            {
              "internalType": "uint256",
              "name": "lpTokens",
              "type": "uint256"
            },
            {
              "internalType": "address",
              "name": "referrer",
              "type": "address"
            },
            {
              "internalType": "uint256",
              "name": "referralReward",
              "type": "uint256"
            },
            {
              "internalType": "uint256",
              "name": "timestamp",
              "type": "uint256"
            }
          ],
          "internalType": "struct PackageManagerV2_1.UserPurchase[]",
          "name": "",
          "type": "tuple[]"
        }
      ],
      "stateMutability": "view",
      "type": "function"
    },
    {
      "inputs": [
        {
          "internalType": "address",
          "name": "user",
          "type": "address"
        }
      ],
      "name": "getUserRedemptionCount",
      "outputs": [
        {
          "internalType": "uint256",
          "name": "",
          "type": "uint256"
        }
      ],
      "stateMutability": "view",
      "type": "function"
    },
    {
      "inputs": [
        {
          "internalType": "address",
          "name": "user",
          "type": "address"
        }
      ],
      "name": "getUserRedemptions",
      "outputs": [
        {
          "internalType": "uint256[]",
          "name": "amounts",
          "type": "uint256[]"
        },
        {
          "internalType": "uint256[]",
          "name": "timestamps",
          "type": "uint256[]"
        }
      ],
      "stateMutability": "view",
      "type": "function"
    },
    {
      "inputs": [
        {
          "internalType": "address",
          "name": "user",
          "type": "address"
        }
      ],
      "name": "getUserStats",
      "outputs": [
        {
          "components": [
            {
              "internalType": "uint256",
              "name": "totalInvested",
              "type": "uint256"
            },
            {
              "internalType": "uint256",
              "name": "totalTokensReceived",
              "type": "uint256"
            },
            {
              "internalType": "uint256",
              "name": "totalVestTokens",
              "type": "uint256"
            },
            {
              "internalType": "uint256",
              "name": "totalPoolTokens",
              "type": "uint256"
            },
            {
              "internalType": "uint256",
              "name": "totalLPTokens",
              "type": "uint256"
            },
            {
              "internalType": "uint256",
              "name": "totalReferralRewards",
              "type": "uint256"
            },
            {
              "internalType": "uint256",
              "name": "purchaseCount",
              "type": "uint256"
            },
            {
              "internalType": "uint256",
              "name": "redemptionCount",
              "type": "uint256"
            },
            {
              "internalType": "uint256",
              "name": "totalRedemptions",
              "type": "uint256"
            }
          ],
          "internalType": "struct PackageManagerV2_1.UserStats",
          "name": "",
          "type": "tuple"
        }
      ],
      "stateMutability": "view",
      "type": "function"
    },
    {
      "inputs": [],
      "name": "globalTargetPrice",
      "outputs": [
        {
          "internalType": "uint256",
          "name": "",
          "type": "uint256"
        }
      ],
      "stateMutability": "view",
      "type": "function"
    },
    {
      "inputs": [
        {
          "internalType": "bytes32",
          "name": "role",
          "type": "bytes32"
        },
        {
          "internalType": "address",
          "name": "account",
          "type": "address"
        }
      ],
      "name": "grantRole",
      "outputs": [],
      "stateMutability": "nonpayable",
      "type": "function"
    },
    {
      "inputs": [
        {
          "internalType": "bytes32",
          "name": "role",
          "type": "bytes32"
        },
        {
          "internalType": "address",
          "name": "account",
          "type": "address"
        }
      ],
      "name": "hasRole",
      "outputs": [
        {
          "internalType": "bool",
          "name": "",
          "type": "bool"
        }
      ],
      "stateMutability": "view",
      "type": "function"
    },
    {
      "inputs": [],
      "name": "lpToken",
      "outputs": [
        {
          "internalType": "contract IBLOCKS_LP",
          "name": "",
          "type": "address"
        }
      ],
      "stateMutability": "view",
      "type": "function"
    },
    {
      "inputs": [],
      "name": "nextPackageId",
      "outputs": [
        {
          "internalType": "uint256",
          "name": "",
          "type": "uint256"
        }
      ],
      "stateMutability": "view",
      "type": "function"
    },
    {
      "inputs": [],
      "name": "pause",
      "outputs": [],
      "stateMutability": "nonpayable",
      "type": "function"
    },
    {
      "inputs": [],
      "name": "paused",
      "outputs": [
        {
          "internalType": "bool",
          "name": "",
          "type": "bool"
        }
      ],
      "stateMutability": "view",
      "type": "function"
    },
    {
      "inputs": [
        {
          "internalType": "uint256",
          "name": "id",
          "type": "uint256"
        },
        {
          "internalType": "address",
          "name": "referrer",
          "type": "address"
        }
      ],
      "name": "purchase",
      "outputs": [],
      "stateMutability": "nonpayable",
      "type": "function"
    },
    {
      "inputs": [
        {
          "internalType": "uint256",
          "name": "lpAmount",
          "type": "uint256"
        }
      ],
      "name": "redeem",
      "outputs": [],
      "stateMutability": "nonpayable",
      "type": "function"
    },
    {
      "inputs": [
        {
          "internalType": "uint256",
          "name": "lpAmount",
          "type": "uint256"
        },
        {
          "internalType": "uint256",
          "name": "amountShareMin",
          "type": "uint256"
        },
        {
          "internalType": "uint256",
          "name": "amountUSDTMin",
          "type": "uint256"
        },
        {
          "internalType": "uint256",
          "name": "deadline",
          "type": "uint256"
        }
      ],
      "name": "redeemWithLiquidityRemoval",
      "outputs": [],
      "stateMutability": "nonpayable",
      "type": "function"
    },
    {
      "inputs": [
        {
          "internalType": "bytes32",
          "name": "role",
          "type": "bytes32"
        },
        {
          "internalType": "address",
          "name": "callerConfirmation",
          "type": "address"
        }
      ],
      "name": "renounceRole",
      "outputs": [],
      "stateMutability": "nonpayable",
      "type": "function"
    },
    {
      "inputs": [
        {
          "internalType": "bytes32",
          "name": "role",
          "type": "bytes32"
        },
        {
          "internalType": "address",
          "name": "account",
          "type": "address"
        }
      ],
      "name": "revokeRole",
      "outputs": [],
      "stateMutability": "nonpayable",
      "type": "function"
    },
    {
      "inputs": [],
      "name": "router",
      "outputs": [
        {
          "internalType": "contract IPancakeRouter",
          "name": "",
          "type": "address"
        }
      ],
      "stateMutability": "view",
      "type": "function"
    },
    {
      "inputs": [
        {
          "internalType": "uint256",
          "name": "newWindow",
          "type": "uint256"
        }
      ],
      "name": "setDeadlineWindow",
      "outputs": [],
      "stateMutability": "nonpayable",
      "type": "function"
    },
    {
      "inputs": [
        {
          "internalType": "uint256",
          "name": "newGlobalTargetPrice",
          "type": "uint256"
        }
      ],
      "name": "setGlobalTargetPrice",
      "outputs": [],
      "stateMutability": "nonpayable",
      "type": "function"
    },
    {
      "inputs": [
        {
          "internalType": "uint256",
          "name": "id",
          "type": "uint256"
        },
        {
          "internalType": "uint256",
          "name": "newExchangeRate",
          "type": "uint256"
        }
      ],
      "name": "setPackageExchangeRate",
      "outputs": [],
      "stateMutability": "nonpayable",
      "type": "function"
    },
    {
      "inputs": [
        {
          "internalType": "uint256",
          "name": "newTolerance",
          "type": "uint256"
        }
      ],
      "name": "setSlippageTolerance",
      "outputs": [],
      "stateMutability": "nonpayable",
      "type": "function"
    },
    {
      "inputs": [
        {
          "internalType": "address",
          "name": "newTreasury",
          "type": "address"
        }
      ],
      "name": "setTreasury",
      "outputs": [],
      "stateMutability": "nonpayable",
      "type": "function"
    },
    {
      "inputs": [],
      "name": "shareToken",
      "outputs": [
        {
          "internalType": "contract IBLOCKS",
          "name": "",
          "type": "address"
        }
      ],
      "stateMutability": "view",
      "type": "function"
    },
    {
      "inputs": [],
      "name": "slippageTolerance",
      "outputs": [
        {
          "internalType": "uint256",
          "name": "",
          "type": "uint256"
        }
      ],
      "stateMutability": "view",
      "type": "function"
    },
    {
      "inputs": [
        {
          "internalType": "bytes4",
          "name": "interfaceId",
          "type": "bytes4"
        }
      ],
      "name": "supportsInterface",
      "outputs": [
        {
          "internalType": "bool",
          "name": "",
          "type": "bool"
        }
      ],
      "stateMutability": "view",
      "type": "function"
    },
    {
      "inputs": [],
      "name": "taxManager",
      "outputs": [
        {
          "internalType": "contract ISwapTaxManager",
          "name": "",
          "type": "address"
        }
      ],
      "stateMutability": "view",
      "type": "function"
    },
    {
      "inputs": [
        {
          "internalType": "uint256",
          "name": "id",
          "type": "uint256"
        }
      ],
      "name": "togglePackage",
      "outputs": [],
      "stateMutability": "nonpayable",
      "type": "function"
    },
    {
      "inputs": [],
      "name": "treasury",
      "outputs": [
        {
          "internalType": "address",
          "name": "",
          "type": "address"
        }
      ],
      "stateMutability": "view",
      "type": "function"
    },
    {
      "inputs": [],
      "name": "unpause",
      "outputs": [],
      "stateMutability": "nonpayable",
      "type": "function"
    },
    {
      "inputs": [],
      "name": "usdt",
      "outputs": [
        {
          "internalType": "contract IERC20Decimals",
          "name": "",
          "type": "address"
        }
      ],
      "stateMutability": "view",
      "type": "function"
    },
    {
      "inputs": [],
      "name": "vestingVault",
      "outputs": [
        {
          "internalType": "contract IVestingVault",
          "name": "",
          "type": "address"
        }
      ],
      "stateMutability": "view",
      "type": "function"
    }
  ],
  "bytecode": "0x61016034620005b457601f62004f4338819003918201601f1916830192916001600160401b03841183851017620005b9578083926040958652833961014092839181010312620005b4576200005481620005cf565b9160209362000065858401620005cf565b9462000073828501620005cf565b906200008260608601620005cf565b956200009160808701620005cf565b90620000a060a08801620005cf565b91620000af60c08901620005cf565b92620000be60e08a01620005cf565b916101009a620000d08c8c01620005cf565b97610120809c0151976001805561012c6003556101f460055560018060a01b038097169e8f15620005705787169182156200052c578716928315620004e8578716938415620004a4578716948515620004605787169586156200041c5787891615620003d857871696871562000394578a16156200035157881562000302575062000196999a9b9c9d60805260a05260c05260e0528a528852865260025490610100600160a81b039060081b1690610100600160a81b03191617600255600455620005e4565b50620001a162000653565b50519161481b9384620006e885396080518481816107d60152818161113f01528181611191015281816118f701528181612dc1015281816137fd01528181613cf0015281816140fb015281816143320152818161442101526147a0015260a0518481816107ac015281816114d101528181611699015281816116f2015281816117d2015281816119380152818161199501528181611a200152818161237e01528181612d3c01528181612f63015281816137d101528181613cc501526143b7015260c0518481816104d801528181610889015281816115cf015281816123ee0152613da2015260e05184818161053a015281816109d401528181611a6601528181611ac601528181611b230152611da80152518381816102bf01528181610927015281816142f001528181614388015261447b01525182818161080c01528181610d59015281816138360152613d27015251818181612b3d01526140640152f35b6084908b519062461bcd60e51b82526004820152602360248201527f496e76616c696420696e697469616c20676c6f62616c2074617267657420707260448201526269636560e81b6064820152fd5b6064908b519062461bcd60e51b82526004820152601560248201527f496e76616c69642061646d696e206164647265737300000000000000000000006044820152fd5b8b5162461bcd60e51b815260048101839052601b60248201527f496e76616c696420746178206d616e61676572206164647265737300000000006044820152606490fd5b8b5162461bcd60e51b815260048101839052601860248201527f496e76616c6964207472656173757279206164647265737300000000000000006044820152606490fd5b8b5162461bcd60e51b815260048101839052601760248201527f496e76616c696420666163746f727920616464726573730000000000000000006044820152606490fd5b8b5162461bcd60e51b815260048101839052601660248201527f496e76616c696420726f757465722061646472657373000000000000000000006044820152606490fd5b8b5162461bcd60e51b815260048101839052601560248201527f496e76616c6964207661756c74206164647265737300000000000000000000006044820152606490fd5b8b5162461bcd60e51b815260048101839052601860248201527f496e76616c6964204c5020746f6b656e206164647265737300000000000000006044820152606490fd5b8b5162461bcd60e51b815260048101839052601b60248201527f496e76616c696420736861726520746f6b656e206164647265737300000000006044820152606490fd5b8b5162461bcd60e51b815260048101839052601460248201527f496e76616c6964205553445420616464726573730000000000000000000000006044820152606490fd5b600080fd5b634e487b7160e01b600052604160045260246000fd5b51906001600160a01b0382168203620005b457565b6001600160a01b0316600081815260008051602062004f23833981519152602052604081205490919060ff166200064f57818052816020526040822081835260205260408220600160ff19825416179055339160008051602062004f038339815191528180a4600190565b5090565b736f6782148f208f9547f68e2354b1d7d2d4bef987600081815260008051602062004f238339815191526020527fb84a81f566c139275f8f9608e497d4d79f6224091157391980973dcede721fd65490919060ff166200064f57818052816020526040822081835260205260408220600160ff19825416179055339160008051602062004f038339815191528180a460019056fe608080604052600436101561001357600080fd5b6000803560e01c91826301ffc9a71461311157508163117da1ee14612fe257816314f8477714610499578163175d1bcb14612fc55781631ae74cce14612f9d578163230b8a3f14612f1b578163248a9ca314612ef0578163289317eb14612eb65781632cf91f6414612e2c5781632f2ff15d14612df05781632f48ab7d14612dac57816335dab4a814612d0157816336568abe14612cba5781633f4ba83a14612c3757816346a5683514612b6c5781634d23773014612b285781634e43603a14612a405781635c691b081461243f5781635c975abb1461241d5781635fcbd285146123d957816361d027b3146123ad5781636c9fa59e1461236957816375b238fc14611dd757816379020194146122135781637d2fd64e146121455781638432e3a6146120285781638456cb5914611fb557816391b96b631461026857816391d1485414611f6e5781639e16c70914611f325781639e4f8ab814611df95781639eb87dec14611ddc578163a217fddf14611dd7578163a5917baf14611d93578163ae77c23714610fce578163b99dfe1814610da5578163c28399ef14610d88578163c45a015514610d44578163c4e71eaf14610cd0578163c6e5d8f614610499578163cd68aead1461075c578163ce9ddccc14610724578163d03153aa14610707578163d547741f146106c7578163d7da9e4f146106aa578163da7b109d14610605578163db006a751461049e578163deef537814610499578163df8ae236146103df578163f0f44260146102ee578163f887ea40146102aa578163f987626b1461026d575063fcc18c231461026857600080fd5b613311565b346102a757806003193601126102a75760206040517f995c68a7874ab62e799137bc19b39d4cdd1c165240e636649fba7edfda9d16c88152f35b80fd5b346102a757806003193601126102a7576040517f00000000000000000000000000000000000000000000000000000000000000006001600160a01b03168152602090f35b346102a75760203660031901126102a75761030761317a565b81805281602052604082203360005260205261032a60ff604060002054166134c2565b6001600160a01b038181169182156103895760028054610100600160a81b03198116600893841b610100600160a81b031617909155901c167f4ab5be82436d353e61ca18726e984e561f5c1cc7c6d38b29d2553c790434705a8380a380f35b60405162461bcd60e51b815260206004820152602860248201527f5061636b6167654d616e616765723a20496e76616c6964207472656173757279604482015267206164647265737360c01b6064820152608490fd5b346102a757602080600319360112610495577ff07234658490cc011f9f49fd5c1b020ffd25ca0e3df67ac88818648c16a269cd600435918380528381526040842033600052815261043760ff604060002054166134c2565b8284526008815261045460ff600360408720015460a81c166136dc565b8284526008815260408420600301805460ff60a01b19811660a091821c60ff9081161590921b60ff60a01b16178255905460a01c166040519015158152a280f35b5080fd5b6131ee565b346102a75760203660031901126102a7576004356104ba613c28565b6104c26136be565b6104cd811515613c4b565b816001600160a01b037f00000000000000000000000000000000000000000000000000000000000000008116803b1561060157604051632770a7eb60e21b8152336004820152602481018590529083908290604490829084905af19081156105f65783916105e2575b50507f000000000000000000000000000000000000000000000000000000000000000016803b1561049557818091600460405180948193634e71d92d60e01b83525af180156105d7576105c3575b50506105908133614187565b6040519081527f4896181ff8f4543cc00db9fe9b6fb7e6f032b7eb772c72ab1ec1b4d2e03b936960203392a26001805580f35b6105cc906135bf565b610495578183610584565b6040513d84823e3d90fd5b6105eb906135bf565b610495578185610536565b6040513d85823e3d90fd5b8280fd5b346102a75760403660031901126102a7576004357fa1883cbb0491700bbb491dc908b557f640688276c8d7b9ec57f4bea05f2050146040602435848052846020528185203360005260205261066060ff8360002054166134c2565b838552600860205261067d60ff6003848820015460a81c166136dc565b61068881151561350e565b838552600860205260028286200190808254925582519182526020820152a280f35b346102a757806003193601126102a7576020600654604051908152f35b346102a75760403660031901126102a7576107036004356106e6613164565b90808452836020526106fe600160408620015461338b565b61344d565b5080f35b346102a757806003193601126102a7576020600554604051908152f35b346102a75760203660031901126102a7576020906040906001600160a01b0361074b61317a565b168152600b83522054604051908152f35b346102a75760803660031901126102a75760043560643561077b613c28565b6107836136be565b61078e821515613c4b565b428110610c8c5760405163e6a4390560e01b81526001600160a01b037f00000000000000000000000000000000000000000000000000000000000000008116600483018190527f00000000000000000000000000000000000000000000000000000000000000008216602484018190526020939092919084816044817f000000000000000000000000000000000000000000000000000000000000000087165afa8015610c815783918991610c45575b5016928315610bf0576040516370a0823160e01b81523060048201528581602481885afa8015610be5578990610bb6575b61087a915088613786565b6040516318160ddd60e01b81527f00000000000000000000000000000000000000000000000000000000000000008516959187826004818a5afa908115610bab578b91610b75575b6108cc9250613799565b948515610b215790818a959493923b15610b1d57604051632770a7eb60e21b8152336004820152602481018b90529086908290604490829084905af1908115610afe578691610b09575b505060405163095ea7b360e01b81527f000000000000000000000000000000000000000000000000000000000000000085166001600160a01b0381166004830152602482018890529390918890839060449082908a905af18015610afe5760409460e4938892610ad1575b5085519a8b958694635d5155ef60e11b865260048601526024850152896044850152602435606485015260443560848501523360a485015260c48401525af19485156105d75782948396610a96575b50507f000000000000000000000000000000000000000000000000000000000000000016803b1561049557818091600460405180948193634e71d92d60e01b83525af180156105d757610a7e575b5050610a747f3934fc962ef79ea87f2b6d34fdfdb727537e44f786c7810133c7e23f19a1481493610a4f8633614187565b6040519384933397859094939260609260808301968352602083015260408201520152565b0390a26001805580f35b610a87906135bf565b610a92578486610a1e565b8480fd5b91955093506040843d604011610ac9575b81610ab4604093836135d2565b810103126104955783519301519387806109d0565b3d9150610aa7565b610af0908b3d8d11610af7575b610ae881836135d2565b810190613b5f565b508d610981565b503d610ade565b6040513d88823e3d90fd5b610b12906135bf565b610a9257848b610916565b8580fd5b60405162461bcd60e51b815260048101889052602660248201527f5061636b6167654d616e616765723a204e6f206c697175696469747920746f2060448201526572656d6f766560d01b6064820152608490fd5b90508782813d8311610ba4575b610b8c81836135d2565b81010312610b9f576108cc9151906108c2565b600080fd5b503d610b82565b6040513d8d823e3d90fd5b508581813d8311610bde575b610bcc81836135d2565b81010312610b9f5761087a905161086f565b503d610bc2565b6040513d8b823e3d90fd5b60405162461bcd60e51b815260048101869052602760248201527f5061636b6167654d616e616765723a204e6f206c6971756964697479207061696044820152661c88199bdd5b9960ca1b6064820152608490fd5b809250868092503d8311610c7a575b610c5e81836135d2565b81010312610c7657610c708391613728565b8961083e565b8780fd5b503d610c54565b6040513d8a823e3d90fd5b606460405162461bcd60e51b815260206004820152602060248201527f5061636b6167654d616e616765723a20446561646c696e6520657870697265646044820152fd5b346102a75760203660031901126102a757610d32906001600160a01b03610cf561317a565b168152600b602052610d40610d1e610d18604080852094600c6020522093613a1b565b92613a1b565b6040519384936040855260408501906132c1565b9083820360208501526132c1565b0390f35b346102a757806003193601126102a7576040517f00000000000000000000000000000000000000000000000000000000000000006001600160a01b03168152602090f35b346102a757806003193601126102a7576020600354604051908152f35b346102a75760203660031901126102a75760043581610100604051610dc98161358d565b606081528260208201528260408201528260608201528260808201528260a08201528260c08201528260e082015201528082526008602052610e1760ff600360408520015460a81c166136dc565b815260086020526040812060405191610e2f8361358d565b60405181835492610e3f8461360e565b908184526001948581169081600014610fa75750600114610f6d575b8660ff6003888888610e6f818a03826135d2565b8552810154602085015260028101546040850152015461ffff811660608401526001600160401b038160101c1660808401526001600160401b038160501c1660a084015261ffff8160901c1660c0840152818160a01c16151560e084015260a81c161515610100820152604051809160208252610100610efd8251610120602086015261014085019061334b565b91602081015160408501526040810151606085015261ffff60608201511660808501526001600160401b0360808201511660a08501526001600160401b0360a08201511660c085015261ffff60c08201511660e085015260e0810151151582850152015115156101208301520390f35b9150848252602082205b818310610f8e575050810160200181610e6f610e5b565b8481602092949394548385880101520191019190610f77565b60ff191660208087019190915292151560051b85019092019250839150610e6f9050610e5b565b346102a75760403660031901126102a757610fe7613164565b610fef613c28565b610ff76136be565b6004358252600860205261101760ff600360408520015460a81c166136dc565b600435825260086020526040822090604051916110338361358d565b6040518482546110428161360e565b8084529060018116908115611d6f5750600114611d2c575b509061106b816003949303826135d2565b84526001810154602085015260028101546040850152015461ffff811660608401526001600160401b038160101c1660808401526001600160401b038160501c1660a084015261ffff8160901c1660c084015260ff808260a01c161591821560e086015260a81c161515610100840152611cdc576001600160a01b0381163314611c89576020820151604051906323b872dd60e01b60208301523360248301523060448301526064820152606481528060a08101106001600160401b0360a083011117611c755760a0810160405261116c907f00000000000000000000000000000000000000000000000000000000000000006001600160a01b0316613bc0565b611179602083015161401f565b60405163313ce56760e01b81529092906020816004817f00000000000000000000000000000000000000000000000000000000000000006001600160a01b03165afa908115611c6a578591611c2d575b5060ff6012911603611bc257670de0b6b3a76400008302838104670de0b6b3a76400001484151715611bae57604082015161120391613799565b61ffff60608301511661ffff816127100311611b9a5761271061122f61ffff6112379383031687613786565b048095613b52565b61271061124c61ffff60608601511684613786565b04946112588684613b52565b91836101f48102046101f41484151715611b865786611a1d575b6127106101f4850204611922575b806118de575b508015801561164c575b5050816115cc575b85926001600160a01b0385161515806115bb575b6114b5575b60208101513388526009602052604088206112cd828254613b77565b8155600181016112de868254613b77565b9055600281016112ef898254613b77565b905560038101611300858254613b77565b905560048101611311868254613b77565b905560068101546001810181116114a157600160069101910155338852600a60205260408820604051916113448361358d565b600435835260208301528460408301528760608301528360808301528460a083015260018060a01b03871660c08301528560e083015242610100830152805490600160401b82101561148d57906113a091600182018155613b36565b91909161147957906008610100836020959451845585810151600185015560408101516002850155606081015160038501556080810151600485015560a081015160058501556006840160018060a01b0360c0830151166bffffffffffffffffffffffff60a01b82541617905560e08101516007850155015191015501519460405195865282602087015260408601526060850152608084015260a083015260018060a01b031690600435907f5a77e79107887ebcf23f054ef45c1e6ef75a6215cf598323e188d01a6e5da7b360c03392a46001805580f35b634e487b7160e01b89526004899052602489fd5b634e487b7160e01b8a52604160045260248afd5b634e487b7160e01b8a52601160045260248afd5b92506127106114cc61ffff60c08601511684613786565b0492867f00000000000000000000000000000000000000000000000000000000000000006001600160a01b0316803b15610495576040516340c10f1960e01b81526001600160a01b0388166004820152602481018790529082908290604490829084905af180156105d7576115a3575b50506001600160a01b03851687526009602052604087206005018054611563908690613b77565b905560405184815233906001600160a01b038716907f0a721ab4682ceb61c7e4d264ef879fc419a6d764b136e7d96ef54b2053c7567390602090a36112b1565b6115ac906135bf565b6115b757868861153c565b8680fd5b5061ffff60c08201511615156112ac565b857f00000000000000000000000000000000000000000000000000000000000000006001600160a01b0316803b15610495576040516340c10f1960e01b8152336004820152602481018590529082908290604490829084905af180156105d757611638575b5050611298565b611641906135bf565b610b1d578587611631565b6116546137b9565b909190156118d55781905b811561187f5783670de0b6b3a7640000810204670de0b6b3a764000014171561186b5761169690670de0b6b3a76400008402613799565b917f00000000000000000000000000000000000000000000000000000000000000006001600160a01b03163b1561185a576040516340c10f1960e01b815230600482015260248101849052898082604481836001600160a01b037f0000000000000000000000000000000000000000000000000000000000000000165af191821561185e578592611843575b5050611753907fd7de183105059c806cc0d3d76a2cf588f90d707037ed57e4ec94cbd9da28c6b3926004353361425f565b6004549092818111156118315761178a61176d8383613b52565b604051938493846040919493926060820195825260208201520152565b0390a115611799575b80611290565b60025460405163a9059cbb60e01b815260089190911c6001600160a01b031660048201526024810191909152602081806044810103818a7f00000000000000000000000000000000000000000000000000000000000000006001600160a01b03165af1801561182657156117935761181f9060203d602011610af757610ae881836135d2565b5086611793565b6040513d89823e3d90fd5b61178a61183e8284613b52565b61176d565b61184e9192506135bf565b61185a5782898b611722565b8880fd5b50604051903d90823e3d90fd5b634e487b7160e01b89526011600452602489fd5b60405162461bcd60e51b815260206004820152602860248201527f5061636b6167654d616e616765723a204e6f2076616c696420707269636520616044820152677661696c61626c6560c01b6064820152608490fd5b6004549061165f565b60025461191c919060081c6001600160a01b03908116907f000000000000000000000000000000000000000000000000000000000000000016613b84565b87611286565b600254889060081c6001600160a01b03908116907f0000000000000000000000000000000000000000000000000000000000000000163b15610495576040516340c10f1960e01b81526001600160a01b0390911660048201526127106101f48702046024820152818180604481010381837f00000000000000000000000000000000000000000000000000000000000000006001600160a01b03165af180156105d757611a09575b50506040516127106101f48602048152600435907f070e3cc1092f69f3c882a468d7366a29f082abee73557db7b5a9c01412ca017160203392a3611280565b611a12906135bf565b610c765787896119ca565b877f00000000000000000000000000000000000000000000000000000000000000006001600160a01b0316803b15610495576040516340c10f1960e01b81526001600160a01b037f0000000000000000000000000000000000000000000000000000000000000000166004820152602481018a905291908290604490829084905af18015610be557611b73575b50608085015160a086015189916001600160401b0390811691167f00000000000000000000000000000000000000000000000000000000000000006001600160a01b03163b156106015760405163bf49ec4f60e01b8152336004820152602481018b9052604481019290925260648201528181608481837f00000000000000000000000000000000000000000000000000000000000000006001600160a01b03165af180156105d757611b5f575b5050611272565b611b68906135bf565b610c76578789611b58565b611b7f909891986135bf565b9688611aaa565b634e487b7160e01b88526011600452602488fd5b634e487b7160e01b86526011600452602486fd5b634e487b7160e01b85526011600452602485fd5b60405162461bcd60e51b815260206004820152603d60248201527f5061636b6167654d616e616765723a2055534454206d7573742075736520313860448201527f20646563696d616c7320666f72205632206172636869746563747572650000006064820152608490fd5b90506020813d602011611c62575b81611c48602093836135d2565b81010312610a92575160ff81168103610a925760ff6111c9565b3d9150611c3b565b6040513d87823e3d90fd5b634e487b7160e01b84526041600452602484fd5b60405162461bcd60e51b815260206004820152602560248201527f5061636b6167654d616e616765723a2043616e6e6f7420726566657220796f756044820152643939b2b63360d91b6064820152608490fd5b60405162461bcd60e51b815260206004820152602260248201527f5061636b6167654d616e616765723a205061636b616765206e6f742061637469604482015261766560f01b6064820152608490fd5b838752602087209392915086905b808210611d53575091925090810160200161106b61105a565b9192936001816020925483858801015201910190939291611d3a565b60ff191660208086019190915291151560051b8401909101915061106b905061105a565b346102a757806003193601126102a7576040517f00000000000000000000000000000000000000000000000000000000000000006001600160a01b03168152602090f35b6132f5565b346102a757806003193601126102a7576020600754604051908152f35b346102a757806003193601126102a75760075481805b828110611ee65750611e2083613a6c565b92611e2e60405194856135d2565b808452611e3d601f1991613a6c565b0191602092368486013781805b828110611e645760405185815280610d40818801896132c1565b611e6d81613648565b9054600391821b1c83526008865260ff8160408520015460a01c16611e9c575b50611e9790613568565b611e4a565b611ea7829592613648565b9054911b1c8651821015611ed25781611ecb9187611e979460051b8a010152613568565b9390611e8d565b634e487b7160e01b83526032600452602483fd5b60ff611ef182613648565b9054600391821b1c8452600860205260408420015460a01c16611f1d575b611f1890613568565b611e0f565b92611f2a611f1891613568565b939050611f0f565b346102a75760203660031901126102a757610d40611f51600435613ca1565b604080519384526020840192909252908201529081906060820190565b346102a75760403660031901126102a75760ff6040602092611f8e613164565b60043582528185528282206001600160a01b03909116825284522054604051911615158152f35b346102a757806003193601126102a7578080528060205260408120338252602052611fe660ff6040832054166134c2565b611fee6136be565b600160ff1960025416176002557f62e78cea01bee320cd4e420270b5ea74000d11b0c9f74754ebdbfc544b05a2586020604051338152a180f35b346102a7576020806003193601126104955760043582805282825260408320338452825261205c60ff6040852054166134c2565b603c81106120f557610e1081116120a6577fd377b1dc1f911f261ac96273f0011b33578119b6f87a37a787fc6fa3ba066de49160409160035491816003558351928352820152a180f35b60405162461bcd60e51b815260048101839052602160248201527f5061636b6167654d616e616765723a20446561646c696e6520746f6f206c6f6e6044820152606760f81b6064820152608490fd5b60405162461bcd60e51b815260048101839052602260248201527f5061636b6167654d616e616765723a20446561646c696e6520746f6f2073686f6044820152611c9d60f21b6064820152608490fd5b346102a75760203660031901126102a757600435818052816020526040822033835260205261217a60ff6040842054166134c2565b80156121ba5760407f3f0a47b6cb75d94633850c9a242c4cdb5876a35fc86c211a1f4f633cc37ba8ed91600454908060045582519182526020820152a180f35b60405162461bcd60e51b815260206004820152602b60248201527f5061636b6167654d616e616765723a20496e76616c696420676c6f62616c207460448201526a617267657420707269636560a81b6064820152608490fd5b346102a75760403660031901126102a75761222c61317a565b60243582805260209183835260408420338552835261225160ff6040862054166134c2565b6001600160a01b039081169081156123165782156122d15760025460405163a9059cbb60e01b815260089190911c919091166001600160a01b03166004820152602481019290925282908290604490829087905af180156105f6576122b4578280f35b816122ca92903d10610af757610ae881836135d2565b5081808280f35b60405162461bcd60e51b815260048101859052601e60248201527f5061636b6167654d616e616765723a20496e76616c696420616d6f756e7400006044820152606490fd5b60405162461bcd60e51b815260048101859052602560248201527f5061636b6167654d616e616765723a20496e76616c696420746f6b656e206164604482015264647265737360d81b6064820152608490fd5b346102a757806003193601126102a7576040517f00000000000000000000000000000000000000000000000000000000000000006001600160a01b03168152602090f35b346102a757806003193601126102a75760025460405160089190911c6001600160a01b03168152602090f35b346102a757806003193601126102a7576040517f00000000000000000000000000000000000000000000000000000000000000006001600160a01b03168152602090f35b346102a757806003193601126102a757602060ff600254166040519015158152f35b346102a75760e03660031901126102a7576001600160401b03600435116102a7573660236004350112156102a7576001600160401b0360043560040135116102a757366024600435600401356004350101116102a7576064803561ffff8116810361060157608435916001600160401b0383168303612a3c5760a4356001600160401b0381168103610a925760c4359161ffff83168303610b1d5785805285602052604086203387526020526124fb60ff6040882054166134c2565b6125036136be565b60043560040135156129fa57602435156129aa57612524604435151561350e565b61271061ffff851611612956576103e861ffff841611612903576001600160401b038216156128c157506006549361255b85613568565b60065560405161256a8161358d565b612579600435600401356135f3565b61258660405191826135d2565b6004803590810135808352906024016020830137876020600435600401358301015281526024356020820152604435604082015261ffff851660608201526001600160401b03821660808201526001600160401b03831660a082015261ffff841660c0820152600160e0820152600161010082015285875260086020526040872081518051906001600160401b03821161148d57612624835461360e565b601f811161287f575b50602090601f831160011461281357918061010094926003948d92612808575b50508160011b9160001990851b1c19161781555b6020840151600182015560408401516002820155019161ffff60608201511683549069ffffffffffffffff0000608084015160101b166001600160401b0360501b60a085015160501b169161ffff60901b60c086015160901b16936bffffffffffffffffffffffff60a01b161717171783556126fb60e08201511515849081549060ff60a01b90151560a01b169060ff60a01b1916179055565b0151815460ff60a81b191690151560a81b60ff60a81b16179055600754600160401b8110156127f45761ffff926001600160401b037f38a9b0861af6eda42482a0e46839a625d911229840556475b544bc0bb1c5a66d969593612765846001849601600755613648565b81549060031b908b821b91600019901b1916179055856040519760e089526004356004013560e08a0152600435600401356024600435016101008b01378b610100600435600401358b01015260243560208a015260443560408a01521660608801521660808601521660a08401521660c082015261010081601f19601f6004356004013501168101030190a280f35b634e487b7160e01b87526041600452602487fd5b015190508c8061264d565b90838b5260208b20918b5b601f1985168110612867575092610100949260019260039583601f1981161061284f575b505050811b018155612661565b015160001983871b60f8161c191690558c8080612842565b9192602060018192868501518155019401920161281e565b838b5260208b20601f840160051c8101602085106128ba575b8c601f840160051c830182106128b05750505061262d565b8155600101612898565b5080612898565b60405162461bcd60e51b815260206004820181905260248201527f5061636b6167654d616e616765723a20496e76616c6964206475726174696f6e6044820152fd5b608490650de40d0d2ced60d31b6040519162461bcd60e51b835260206004840152602660248401527f5061636b6167654d616e616765723a20526566657272616c207261746520746f6044840152820152fd5b6084906663656e7461676560c81b6040519162461bcd60e51b835260206004840152602760248401527f5061636b6167654d616e616765723a20496e76616c69642076657374207065726044840152820152fd5b608490631bdd5b9d60e21b6040519162461bcd60e51b8352602060048401526024808401527f5061636b6167654d616e616765723a20496e76616c696420656e74727920616d6044840152820152fd5b60405162461bcd60e51b815260206004820152601a60248201527f5061636b6167654d616e616765723a20456d707479206e616d650000000000006044820152fd5b8380fd5b346102a75760203660031901126102a757604061012091612a5f61317a565b612a67613a83565b506001600160a01b03168152600960205220604051612a858161358d565b8154918282526001810154906020830191825260028101546040840190815260038201546060850190815260048301546080860190815260058401549160a0870192835260068501549360c08801948552600860078701549660e08a01978852015496610100809901978852604051998a525160208a01525160408901525160608801525160808701525160a08601525160c08501525160e08401525190820152f35b346102a757806003193601126102a7576040517f00000000000000000000000000000000000000000000000000000000000000006001600160a01b03168152602090f35b346102a75760403660031901126102a757612b8561317a565b9060243591612b92613a83565b506001600160a01b0316808252600a6020526040822054909190831015612be35761012092604082612bd494612bce9452600a60205220613b36565b50613ac8565b612be16040518092613190565bf35b60405162461bcd60e51b815260206004820152602660248201527f5061636b6167654d616e616765723a20496e76616c6964207075726368617365604482015265040d2dcc8caf60d31b6064820152608490fd5b346102a757806003193601126102a7578080528060205260408120338252602052612c6860ff6040832054166134c2565b60025460ff811615612ca85760ff19166002557f5db9ee0a495bf2e6ff9c91a7834c1ba4fdd244a5e8aa4e537bd38aeae4b073aa6020604051338152a180f35b604051638dfc202b60e01b8152600490fd5b346102a75760403660031901126102a757612cd3613164565b336001600160a01b03821603612cef576107039060043561344d565b60405163334bd91960e11b8152600490fd5b346102a757806003193601126102a75760018060a01b0360208160025460081c166024604051809481936370a0823160e01b835260048301527f0000000000000000000000000000000000000000000000000000000000000000165afa9081156105d7578291612d77575b602082604051908152f35b90506020813d8211612da4575b81612d91602093836135d2565b8101031261049557602091505182612d6c565b3d9150612d84565b346102a757806003193601126102a7576040517f00000000000000000000000000000000000000000000000000000000000000006001600160a01b03168152602090f35b346102a75760403660031901126102a757610703600435612e0f613164565b9080845283602052612e27600160408620015461338b565b6133cf565b346102a757806003193601126102a757604051809182600754808452602080940190600784527fa66cc928b5edb82af9bd49922954155ab7b0942694bea4ce44661d9a8736c688935b85828210612ea057505050612e8c925003836135d2565b610d406040519282849384528301906132c1565b8554845260019586019588955093019201612e75565b346102a757806003193601126102a75760206040517f4af58918e2c6f17f8b6da7260d8669fa63150ffd279395662a723476f776f76a8152f35b346102a75760203660031901126102a757600160406020926004358152808452200154604051908152f35b346102a757806003193601126102a757600254604051636eb1769f60e11b81526001600160a01b0360089290921c8216600482015230602482015290602090829060449082907f0000000000000000000000000000000000000000000000000000000000000000165afa9081156105d7578291612d7757602082604051908152f35b346102a757806003193601126102a7576040612fb76137b9565b825191825215156020820152f35b346102a757806003193601126102a7576020600454604051908152f35b346102a7576020806003193601126104955760043582805282825260408320338452825261301660ff6040852054166134c2565b6103e881116130b85760648110613060577fddd31550b26e9ef8ade466958be83ff8a014d9b4f36d546b61a6847a453065759160409160055491816005558351928352820152a180f35b60405162461bcd60e51b815260048101839052602a60248201527f5061636b6167654d616e616765723a20536c69707061676520746f6c6572616e604482015269636520746f6f206c6f7760b01b6064820152608490fd5b60405162461bcd60e51b815260048101839052602b60248201527f5061636b6167654d616e616765723a20536c69707061676520746f6c6572616e60448201526a0c6ca40e8dede40d0d2ced60ab1b6064820152608490fd5b346104955760203660031901126104955760043563ffffffff60e01b81168091036106015760209250637965db0b60e01b8114908115613153575b5015158152f35b6301ffc9a760e01b1490508361314c565b602435906001600160a01b0382168203610b9f57565b600435906001600160a01b0382168203610b9f57565b805182526020810151602083015260408101516040830152606081015160608301526080810151608083015260a081015160a083015260018060a01b0360c08201511660c083015260e081015160e083015261010080910151910152565b34610b9f57602080600319360112610b9f576001600160a01b0361321061317a565b16906000918252600a815260408220805461322a81613a6c565b9061323860405192836135d2565b8082528382018093865284862086915b83831061329a57505050506040519280840191818552518092526040840192945b8281106132765784840385f35b909192826101208261328b6001948a51613190565b01960191019492919094613269565b6009876001926132ae859b9a98999b613ac8565b8152019201920191909694939596613248565b90815180825260208080930193019160005b8281106132e1575050505090565b8351855293810193928101926001016132d3565b34610b9f576000366003190112610b9f57602060405160008152f35b34610b9f576020366003190112610b9f576001600160a01b0361333261317a565b16600052600a6020526020604060002054604051908152f35b919082519283825260005b848110613377575050826000602080949584010152601f8019910116010190565b602081830181015184830182015201613356565b80600052600060205260406000203360005260205260ff60406000205416156133b15750565b6044906040519063e2517d3f60e01b82523360048301526024820152fd5b9060009180835282602052604083209160018060a01b03169182845260205260ff6040842054161560001461344857808352826020526040832082845260205260408320600160ff198254161790557f2f8788117e7eff1d82e926ec794901d17c78024a50270940304540a733656f0d339380a4600190565b505090565b9060009180835282602052604083209160018060a01b03169182845260205260ff6040842054166000146134485780835282602052604083208284526020526040832060ff1981541690557ff6391f5c32d9c69d2a47ea670b442974b53935d1edc7fd64eb21e047a839171b339380a4600190565b156134c957565b60405162461bcd60e51b815260206004820152601960248201527f5061636b6167654d616e616765723a204e6f742061646d696e000000000000006044820152606490fd5b1561351557565b60405162461bcd60e51b815260206004820152602560248201527f5061636b6167654d616e616765723a20496e76616c69642065786368616e6765604482015264207261746560d81b6064820152608490fd5b60001981146135775760010190565b634e487b7160e01b600052601160045260246000fd5b61012081019081106001600160401b038211176135a957604052565b634e487b7160e01b600052604160045260246000fd5b6001600160401b0381116135a957604052565b90601f801991011681019081106001600160401b038211176135a957604052565b6001600160401b0381116135a957601f01601f191660200190565b90600182811c9216801561363e575b602083101461362857565b634e487b7160e01b600052602260045260246000fd5b91607f169161361d565b60075481101561367f5760076000527fa66cc928b5edb82af9bd49922954155ab7b0942694bea4ce44661d9a8736c6880190600090565b634e487b7160e01b600052603260045260246000fd5b805490600160401b8210156135a9576001820180825582101561367f5760005260206000200155565b60ff600254166136ca57565b60405163d93c066560e01b8152600490fd5b156136e357565b60405162461bcd60e51b815260206004820152601f60248201527f5061636b6167654d616e616765723a20496e76616c6964207061636b616765006044820152606490fd5b51906001600160a01b0382168203610b9f57565b51906001600160701b0382168203610b9f57565b90816060910312610b9f576137648161373c565b9160406137736020840161373c565b92015163ffffffff81168103610b9f5790565b8181029291811591840414171561357757565b81156137a3570490565b634e487b7160e01b600052601260045260246000fd5b6040805163e6a4390560e01b81526001600160a01b037f000000000000000000000000000000000000000000000000000000000000000081166004808401919091527f00000000000000000000000000000000000000000000000000000000000000008216602484018190529094936020939092919084816044817f000000000000000000000000000000000000000000000000000000000000000087165afa908115613a10579083916000916139d9575b50169182156139cc578351630240bc6b60e21b8152936060858981875afa9586156139c157600095869761398a575b506001600160701b038096169485158015613980575b61397057908083928b945194858092630dfe168160e01b82525afa9182156139665750600091613932575b509050161460001461392b579116905b670de0b6b3a76400009081810291818304149015171561391657613910929350613799565b90600190565b601184634e487b7160e01b6000525260246000fd5b91166138eb565b82813d831161395f575b61394681836135d2565b810103126102a7575061395890613728565b80386138db565b503d61393c565b513d6000823e3d90fd5b5050505050505050905490600090565b50868816156138b0565b9096506139af91955060603d81116139ba575b6139a781836135d2565b810190613750565b50949094953861389a565b503d61399d565b50513d6000823e3d90fd5b5050505050905490600090565b91508582813d8311613a09575b6139f081836135d2565b810103126102a75750613a038391613728565b3861386b565b503d6139e6565b84513d6000823e3d90fd5b9060405191828154918282526020928383019160005283600020936000905b828210613a5257505050613a50925003836135d2565b565b855484526001958601958895509381019390910190613a3a565b6001600160401b0381116135a95760051b60200190565b60405190613a908261358d565b816101006000918281528260208201528260408201528260608201528260808201528260a08201528260c08201528260e08201520152565b90604051613ad58161358d565b8254815260018301546020820152600283015460408201526003830154606082015260048301546080820152600583015460a082015260068301546001600160a01b031660c0820152600783015460e0820152600890920154610100830152565b805482101561367f576000526009602060002091020190600090565b9190820391821161357757565b90816020910312610b9f57518015158103610b9f5790565b9190820180921161357757565b60405163a9059cbb60e01b60208201526001600160a01b03929092166024830152604480830193909352918152613a5091613bc06064836135d2565b906000602091828151910182855af115613c1c576000513d613c1357506001600160a01b0381163b155b613bf15750565b604051635274afe760e01b81526001600160a01b039091166004820152602490fd5b60011415613bea565b6040513d6000823e3d90fd5b600260015414613c39576002600155565b604051633ee5aeb560e01b8152600490fd5b15613c5257565b60405162461bcd60e51b815260206004820152602160248201527f5061636b6167654d616e616765723a20496e76616c6964204c5020616d6f756e6044820152601d60fa1b6064820152608490fd5b90613cad821515613c4b565b6040805163e6a4390560e01b81526001600160a01b037f0000000000000000000000000000000000000000000000000000000000000000811660048084018290527f0000000000000000000000000000000000000000000000000000000000000000831660248501529395602094909391929185816044817f000000000000000000000000000000000000000000000000000000000000000087165afa8015614014578391600091613fdd575b5016968715613fca5780516370a0823160e01b8152308382015286816024818c5afa908115613fbf57600091613f92575b508151906318160ddd60e01b9687835288838681897f0000000000000000000000000000000000000000000000000000000000000000165afa928315613a1057600093613f63575b5082158015613f5b575b613f4557613df49291613def91613786565b613799565b958151630240bc6b60e21b815260608185818d5afa968715613f3a57908a916000918299613f15575b5083908686518095819382525afa918215613a1057600092613ee6575b508115613ed55781613def613e6b92613e638695613def8e6001600160701b0380951690613786565b9a168b613786565b99835194858092630dfe168160e01b82525afa9182156139665750600091613ea1575b5090501614600014613e9e579291565b91565b82813d8311613ece575b613eb581836135d2565b810103126102a75750613ec790613728565b8038613e8e565b503d613eab565b506000995089989650505050505050565b90918382813d8311613f0e575b613efd81836135d2565b810103126102a75750519038613e3a565b503d613ef3565b613f3191995084925060603d81116139ba576139a781836135d2565b50989091613e1d565b83513d6000823e3d90fd5b5050505050505050509050600090600090600090565b508115613ddd565b90928982813d8311613f8b575b613f7a81836135d2565b810103126102a75750519138613dd3565b503d613f70565b908782813d8311613fb8575b613fa881836135d2565b810103126102a757505138613d8b565b503d613f9e565b82513d6000823e3d90fd5b5050505050509050600090600090600090565b91508682813d831161400d575b613ff481836135d2565b810103126102a757506140078391613728565b38613d5a565b503d613fea565b88513d6000823e3d90fd5b604080516367403b6160e01b81527f995c68a7874ab62e799137bc19b39d4cdd1c165240e636649fba7edfda9d16c8600482018190526001600160a01b0383836024817f000000000000000000000000000000000000000000000000000000000000000085165afa928315613a1057600090819461413b575b5061ffff1680151580614130575b6140b3575b505050505090565b6140c06127109187613786565b049384156140ab576020827f9ad5f576ad2dc5abd88aee00524464d5aafcd7f0a8d0141fd6a2b7cf76130e0892614120888861412d9b9998977f000000000000000000000000000000000000000000000000000000000000000016613b84565b51948786521693a3613b52565b90565b5081841615156140a6565b9093508481813d8311614180575b61415381836135d2565b81010312612a3c5780519361ffff851685036102a75750614179602061ffff9201613728565b9390614098565b503d614149565b6001600160a01b031660008181526009602052604081206007810180549294926001810191908210611b9a57926008604095936141e293613a50989655016141d0828254613b77565b9055828452600b602052848420613695565b8152600c602052204290613695565b600060443d1061412d57604051600319913d83016004833e81516001600160401b03918282113d60248401111761424e57818401948551938411614256573d8501016020848701011161424e575061412d929101602001906135d2565b949350505050565b50949350505050565b9190926005546127109081039080821161357757614289816142818487613786565b049284613786565b04856040517fc8af3886655c52b7ebbbcfc08757e97b8bbd122d4ef3e5e6fd92524497c4360f60018060a01b03881691806142de87878b8b859094939260609260808301968352602083015260408201520152565b0390a360405163095ea7b360e01b81527f00000000000000000000000000000000000000000000000000000000000000006001600160a01b03166004820152602481018590526020818060448101038160007f00000000000000000000000000000000000000000000000000000000000000006001600160a01b03165af1908115613c1c57600091614744575b50156146f35760405163095ea7b360e01b81526001600160a01b037f000000000000000000000000000000000000000000000000000000000000000081166004830152602482018590527f00000000000000000000000000000000000000000000000000000000000000001692906020816044816000885af1908115613c1c576000916146d4575b50156146815761440560035442613b77565b916040519362e8e33760e81b8552600485015260018060a01b037f0000000000000000000000000000000000000000000000000000000000000000166024850152846044850152856064850152608484015260a48301523060c483015260e4820152606091828261010481600060018060a01b037f0000000000000000000000000000000000000000000000000000000000000000165af191600083600092600095614644575b506145955750505050600060033d11614583575b6308c379a014614564575b3d1561455f57503d6144dc816135f3565b906144ea60405192836135d2565b81523d6000602083013e5b80511561450c57926145079392614763565b600090565b506040519260408401938085106001600160401b038611176135a95761450794604052601781527f556e6b6e6f776e206c6f772d6c6576656c206572726f72000000000000000000602082015292614763565b6144f5565b61456c6141f1565b8061457757506144cb565b92614507949150614763565b5060046000803e60005160e01c6144c0565b839796929593156145ea577fc7453e3ef562c31977302710e5ff58ae67ad8fa521dcdd8c76f877c4c0d913689460a09460405197885260208801528860408801528601526080850152600180831b031692a390565b60405162461bcd60e51b815260206004820152602c60248201527f5061636b6167654d616e616765723a204e6f206c697175696469747920746f6b60448201526b195b9cc81c9958d95a5d995960a21b6064820152608490fd5b92509350508381813d831161467a575b61465e81836135d2565b81010312610b9f578051602082015160409092015193386144ac565b503d614654565b60405162461bcd60e51b815260206004820152602560248201527f5061636b6167654d616e616765723a20424c4f434b5320617070726f76652066604482015264185a5b195960da1b6064820152608490fd5b6146ed915060203d602011610af757610ae881836135d2565b386143f3565b60405162461bcd60e51b815260206004820152602360248201527f5061636b6167654d616e616765723a205553445420617070726f7665206661696044820152621b195960ea1b6064820152608490fd5b61475d915060203d602011610af757610ae881836135d2565b3861436b565b7f637414b7b370a8973bc89032447f4c07ad3048b83ce07b32e928d92ff3edaf5e9193926147e060018060a01b036147c5838260025460081c16837f000000000000000000000000000000000000000000000000000000000000000016613b84565b6040519384938452604060208501521694604083019061334b565b0390a356fea26469706673582212200eac61ef23707b6938077e44d80301c5bf100e79b21d0d7b01d015deb281cbf964736f6c634300081400332f8788117e7eff1d82e926ec794901d17c78024a50270940304540a733656f0dad3228b676f7d3cd4284a5443f17f1962b36e491b30a40b2405849e597ba5fb5",
  "linkReferences": {},
  "deployedLinkReferences": {}
}