{"contracts/PackageManagerV2_1.sol":{"PackageManagerV2_1":{"abi":[{"inputs":[{"internalType":"address","name":"usdt_","type":"address"},{"internalType":"address","name":"share_","type":"address"},{"internalType":"address","name":"lp_","type":"address"},{"internalType":"address","name":"vault_","type":"address"},{"internalType":"address","name":"router_","type":"address"},{"internalType":"address","name":"factory_","type":"address"},{"internalType":"address","name":"treasury_","type":"address"},{"internalType":"address","name":"tax_","type":"address"},{"internalType":"address","name":"admin","type":"address"},{"internalType":"uint256","name":"initialGlobalTargetPrice_","type":"uint256"}],"stateMutability":"nonpayable","type":"constructor"},{"inputs":[],"name":"AccessControlBadConfirmation","type":"error"},{"inputs":[{"internalType":"address","name":"account","type":"address"},{"internalType":"bytes32","name":"neededRole","type":"bytes32"}],"name":"AccessControlUnauthorizedAccount","type":"error"},{"inputs":[],"name":"EnforcedPause","type":"error"},{"inputs":[],"name":"ExpectedPause","type":"error"},{"inputs":[],"name":"ReentrancyGuardReentrantCall","type":"error"},{"inputs":[{"internalType":"address","name":"token","type":"address"}],"name":"SafeERC20FailedOperation","type":"error"},{"anonymous":false,"inputs":[{"indexed":false,"internalType":"uint256","name":"oldWindow","type":"uint256"},{"indexed":false,"internalType":"uint256","name":"newWindow","type":"uint256"}],"name":"DeadlineWindowUpdated","type":"event"},{"anonymous":false,"inputs":[{"indexed":false,"internalType":"uint256","name":"oldGlobalTargetPrice","type":"uint256"},{"indexed":false,"internalType":"uint256","name":"newGlobalTargetPrice","type":"uint256"}],"name":"GlobalTargetPriceUpdated","type":"event"},{"anonymous":false,"inputs":[{"indexed":true,"internalType":"address","name":"user","type":"address"},{"indexed":true,"internalType":"uint256","name":"packageId","type":"uint256"},{"indexed":false,"internalType":"uint256","name":"shareTokenAmount","type":"uint256"},{"indexed":false,"internalType":"uint256","name":"usdtAmount","type":"uint256"},{"indexed":false,"internalType":"uint256","name":"liquidityTokens","type":"uint256"},{"indexed":false,"internalType":"uint256","name":"actualShareToken","type":"uint256"},{"indexed":false,"internalType":"uint256","name":"actualUSDT","type":"uint256"}],"name":"LiquidityAdded","type":"event"},{"anonymous":false,"inputs":[{"indexed":true,"internalType":"address","name":"user","type":"address"},{"indexed":true,"internalType":"uint256","name":"packageId","type":"uint256"},{"indexed":false,"internalType":"uint256","name":"usdtAmount","type":"uint256"},{"indexed":false,"internalType":"string","name":"reason","type":"string"}],"name":"LiquidityAdditionFailed","type":"event"},{"anonymous":false,"inputs":[{"indexed":true,"internalType":"address","name":"user","type":"address"},{"indexed":false,"internalType":"uint256","name":"lpTokensBurned","type":"uint256"},{"indexed":false,"internalType":"uint256","name":"liquidityRemoved","type":"uint256"},{"indexed":false,"internalType":"uint256","name":"shareTokenReceived","type":"uint256"},{"indexed":false,"internalType":"uint256","name":"usdtReceived","type":"uint256"}],"name":"LiquidityRedeemed","type":"event"},{"anonymous":false,"inputs":[{"indexed":true,"internalType":"uint256","name":"id","type":"uint256"},{"indexed":false,"internalType":"string","name":"name","type":"string"},{"indexed":false,"internalType":"uint256","name":"entryUSDT","type":"uint256"},{"indexed":false,"internalType":"uint256","name":"exchangeRate","type":"uint256"},{"indexed":false,"internalType":"uint16","name":"vestBps","type":"uint16"},{"indexed":false,"internalType":"uint64","name":"cliff","type":"uint64"},{"indexed":false,"internalType":"uint64","name":"duration","type":"uint64"},{"indexed":false,"internalType":"uint16","name":"referralBps","type":"uint16"}],"name":"PackageAdded","type":"event"},{"anonymous":false,"inputs":[{"indexed":true,"internalType":"uint256","name":"id","type":"uint256"},{"indexed":false,"internalType":"uint256","name":"oldExchangeRate","type":"uint256"},{"indexed":false,"internalType":"uint256","name":"newExchangeRate","type":"uint256"}],"name":"PackageExchangeRateUpdated","type":"event"},{"anonymous":false,"inputs":[{"indexed":true,"internalType":"uint256","name":"id","type":"uint256"},{"indexed":false,"internalType":"bool","name":"active","type":"bool"}],"name":"PackageToggled","type":"event"},{"anonymous":false,"inputs":[{"indexed":false,"internalType":"address","name":"account","type":"address"}],"name":"Paused","type":"event"},{"anonymous":false,"inputs":[{"indexed":true,"internalType":"address","name":"buyer","type":"address"},{"indexed":true,"internalType":"uint256","name":"packageId","type":"uint256"},{"indexed":false,"internalType":"uint256","name":"usdtAmount","type":"uint256"},{"indexed":false,"internalType":"uint256","name":"totalTokens","type":"uint256"},{"indexed":false,"internalType":"uint256","name":"vestTokens","type":"uint256"},{"indexed":false,"internalType":"uint256","name":"poolTokens","type":"uint256"},{"indexed":false,"internalType":"uint256","name":"lpTokens","type":"uint256"},{"indexed":true,"internalType":"address","name":"referrer","type":"address"},{"indexed":false,"internalType":"uint256","name":"referralReward","type":"uint256"}],"name":"Purchased","type":"event"},{"anonymous":false,"inputs":[{"indexed":true,"internalType":"address","name":"user","type":"address"},{"indexed":false,"internalType":"uint256","name":"lpAmount","type":"uint256"}],"name":"Redeemed","type":"event"},{"anonymous":false,"inputs":[{"indexed":true,"internalType":"address","name":"referrer","type":"address"},{"indexed":true,"internalType":"address","name":"buyer","type":"address"},{"indexed":false,"internalType":"uint256","name":"reward","type":"uint256"}],"name":"ReferralPaid","type":"event"},{"anonymous":false,"inputs":[{"indexed":true,"internalType":"bytes32","name":"role","type":"bytes32"},{"indexed":true,"internalType":"bytes32","name":"previousAdminRole","type":"bytes32"},{"indexed":true,"internalType":"bytes32","name":"newAdminRole","type":"bytes32"}],"name":"RoleAdminChanged","type":"event"},{"anonymous":false,"inputs":[{"indexed":true,"internalType":"bytes32","name":"role","type":"bytes32"},{"indexed":true,"internalType":"address","name":"account","type":"address"},{"indexed":true,"internalType":"address","name":"sender","type":"address"}],"name":"RoleGranted","type":"event"},{"anonymous":false,"inputs":[{"indexed":true,"internalType":"bytes32","name":"role","type":"bytes32"},{"indexed":true,"internalType":"address","name":"account","type":"address"},{"indexed":true,"internalType":"address","name":"sender","type":"address"}],"name":"RoleRevoked","type":"event"},{"anonymous":false,"inputs":[{"indexed":true,"internalType":"address","name":"user","type":"address"},{"indexed":true,"internalType":"uint256","name":"packageId","type":"uint256"},{"indexed":false,"internalType":"uint256","name":"requestedShareToken","type":"uint256"},{"indexed":false,"internalType":"uint256","name":"requestedUSDT","type":"uint256"},{"indexed":false,"internalType":"uint256","name":"minShareToken","type":"uint256"},{"indexed":false,"internalType":"uint256","name":"minUSDT","type":"uint256"}],"name":"SlippageProtectionTriggered","type":"event"},{"anonymous":false,"inputs":[{"indexed":false,"internalType":"uint256","name":"oldTolerance","type":"uint256"},{"indexed":false,"internalType":"uint256","name":"newTolerance","type":"uint256"}],"name":"SlippageToleranceUpdated","type":"event"},{"anonymous":false,"inputs":[{"indexed":true,"internalType":"bytes32","name":"taxKey","type":"bytes32"},{"indexed":false,"internalType":"uint256","name":"amount","type":"uint256"},{"indexed":true,"internalType":"address","name":"recipient","type":"address"}],"name":"TaxApplied","type":"event"},{"anonymous":false,"inputs":[{"indexed":true,"internalType":"address","name":"buyer","type":"address"},{"indexed":true,"internalType":"uint256","name":"packageId","type":"uint256"},{"indexed":false,"internalType":"uint256","name":"amount","type":"uint256"}],"name":"TreasuryBlocksAllocated","type":"event"},{"anonymous":false,"inputs":[{"indexed":true,"internalType":"address","name":"oldTreasury","type":"address"},{"indexed":true,"internalType":"address","name":"newTreasury","type":"address"}],"name":"TreasuryUpdated","type":"event"},{"anonymous":false,"inputs":[{"indexed":false,"internalType":"address","name":"account","type":"address"}],"name":"Unpaused","type":"event"},{"inputs":[],"name":"ADMIN_ROLE","outputs":[{"internalType":"bytes32","name":"","type":"bytes32"}],"stateMutability":"view","type":"function"},{"inputs":[],"name":"DEFAULT_ADMIN_ROLE","outputs":[{"internalType":"bytes32","name":"","type":"bytes32"}],"stateMutability":"view","type":"function"},{"inputs":[],"name":"PURCHASE_TAX_KEY","outputs":[{"internalType":"bytes32","name":"","type":"bytes32"}],"stateMutability":"view","type":"function"},{"inputs":[],"name":"REFERRAL_TAX_KEY","outputs":[{"internalType":"bytes32","name":"","type":"bytes32"}],"stateMutability":"view","type":"function"},{"inputs":[{"internalType":"string","name":"name","type":"string"},{"internalType":"uint256","name":"entryUSDT","type":"uint256"},{"internalType":"uint256","name":"exchangeRate","type":"uint256"},{"internalType":"uint16","name":"vestBps","type":"uint16"},{"internalType":"uint64","name":"cliff","type":"uint64"},{"internalType":"uint64","name":"duration","type":"uint64"},{"internalType":"uint16","name":"referralBps","type":"uint16"}],"name":"addPackage","outputs":[],"stateMutability":"nonpayable","type":"function"},{"inputs":[],"name":"deadlineWindow","outputs":[{"internalType":"uint256","name":"","type":"uint256"}],"stateMutability":"view","type":"function"},{"inputs":[{"internalType":"address","name":"token","type":"address"},{"internalType":"uint256","name":"amount","type":"uint256"}],"name":"emergencyRecoverToken","outputs":[],"stateMutability":"nonpayable","type":"function"},{"inputs":[],"name":"factory","outputs":[{"internalType":"contract IPancakeFactory","name":"","type":"address"}],"stateMutability":"view","type":"function"},{"inputs":[],"name":"getActivePackageIds","outputs":[{"internalType":"uint256[]","name":"","type":"uint256[]"}],"stateMutability":"view","type":"function"},{"inputs":[{"internalType":"uint256","name":"id","type":"uint256"}],"name":"getPackage","outputs":[{"components":[{"internalType":"string","name":"name","type":"string"},{"internalType":"uint256","name":"entryUSDT","type":"uint256"},{"internalType":"uint256","name":"exchangeRate","type":"uint256"},{"internalType":"uint16","name":"vestBps","type":"uint16"},{"internalType":"uint64","name":"cliff","type":"uint64"},{"internalType":"uint64","name":"duration","type":"uint64"},{"internalType":"uint16","name":"referralBps","type":"uint16"},{"internalType":"bool","name":"active","type":"bool"},{"internalType":"bool","name":"exists","type":"bool"}],"internalType":"struct PackageManagerV2_1.Package","name":"","type":"tuple"}],"stateMutability":"view","type":"function"},{"inputs":[],"name":"getPackageCount","outputs":[{"internalType":"uint256","name":"","type":"uint256"}],"stateMutability":"view","type":"function"},{"inputs":[],"name":"getPackageIds","outputs":[{"internalType":"uint256[]","name":"","type":"uint256[]"}],"stateMutability":"view","type":"function"},{"inputs":[{"internalType":"address","name":"owner","type":"address"}],"name":"getPackagesByOwner","outputs":[{"components":[{"internalType":"uint256","name":"packageId","type":"uint256"},{"internalType":"uint256","name":"usdtAmount","type":"uint256"},{"internalType":"uint256","name":"totalTokens","type":"uint256"},{"internalType":"uint256","name":"vestTokens","type":"uint256"},{"internalType":"uint256","name":"poolTokens","type":"uint256"},{"internalType":"uint256","name":"lpTokens","type":"uint256"},{"internalType":"address","name":"referrer","type":"address"},{"internalType":"uint256","name":"referralReward","type":"uint256"},{"internalType":"uint256","name":"timestamp","type":"uint256"}],"internalType":"struct PackageManagerV2_1.UserPurchase[]","name":"","type":"tuple[]"}],"stateMutability":"view","type":"function"},{"inputs":[{"internalType":"uint256","name":"lpAmount","type":"uint256"}],"name":"getRedemptionPreview","outputs":[{"internalType":"uint256","name":"expectedShare","type":"uint256"},{"internalType":"uint256","name":"expectedUSDT","type":"uint256"},{"internalType":"uint256","name":"liquidityToRemove","type":"uint256"}],"stateMutability":"view","type":"function"},{"inputs":[{"internalType":"bytes32","name":"role","type":"bytes32"}],"name":"getRoleAdmin","outputs":[{"internalType":"bytes32","name":"","type":"bytes32"}],"stateMutability":"view","type":"function"},{"inputs":[],"name":"getTreasuryBlocksAllowance","outputs":[{"internalType":"uint256","name":"","type":"uint256"}],"stateMutability":"view","type":"function"},{"inputs":[],"name":"getTreasuryBlocksBalance","outputs":[{"internalType":"uint256","name":"","type":"uint256"}],"stateMutability":"view","type":"function"},{"inputs":[{"internalType":"address","name":"user","type":"address"}],"name":"getUserPackageCount","outputs":[{"internalType":"uint256","name":"","type":"uint256"}],"stateMutability":"view","type":"function"},{"inputs":[{"internalType":"address","name":"user","type":"address"}],"name":"getUserPackages","outputs":[{"components":[{"internalType":"uint256","name":"packageId","type":"uint256"},{"internalType":"uint256","name":"usdtAmount","type":"uint256"},{"internalType":"uint256","name":"totalTokens","type":"uint256"},{"internalType":"uint256","name":"vestTokens","type":"uint256"},{"internalType":"uint256","name":"poolTokens","type":"uint256"},{"internalType":"uint256","name":"lpTokens","type":"uint256"},{"internalType":"address","name":"referrer","type":"address"},{"internalType":"uint256","name":"referralReward","type":"uint256"},{"internalType":"uint256","name":"timestamp","type":"uint256"}],"internalType":"struct PackageManagerV2_1.UserPurchase[]","name":"","type":"tuple[]"}],"stateMutability":"view","type":"function"},{"inputs":[{"internalType":"address","name":"user","type":"address"},{"internalType":"uint256","name":"index","type":"uint256"}],"name":"getUserPurchase","outputs":[{"components":[{"internalType":"uint256","name":"packageId","type":"uint256"},{"internalType":"uint256","name":"usdtAmount","type":"uint256"},{"internalType":"uint256","name":"totalTokens","type":"uint256"},{"internalType":"uint256","name":"vestTokens","type":"uint256"},{"internalType":"uint256","name":"poolTokens","type":"uint256"},{"internalType":"uint256","name":"lpTokens","type":"uint256"},{"internalType":"address","name":"referrer","type":"address"},{"internalType":"uint256","name":"referralReward","type":"uint256"},{"internalType":"uint256","name":"timestamp","type":"uint256"}],"internalType":"struct PackageManagerV2_1.UserPurchase","name":"","type":"tuple"}],"stateMutability":"view","type":"function"},{"inputs":[{"internalType":"address","name":"user","type":"address"}],"name":"getUserPurchaseCount","outputs":[{"internalType":"uint256","name":"","type":"uint256"}],"stateMutability":"view","type":"function"},{"inputs":[{"internalType":"address","name":"user","type":"address"}],"name":"getUserPurchases","outputs":[{"components":[{"internalType":"uint256","name":"packageId","type":"uint256"},{"internalType":"uint256","name":"usdtAmount","type":"uint256"},{"internalType":"uint256","name":"totalTokens","type":"uint256"},{"internalType":"uint256","name":"vestTokens","type":"uint256"},{"internalType":"uint256","name":"poolTokens","type":"uint256"},{"internalType":"uint256","name":"lpTokens","type":"uint256"},{"internalType":"address","name":"referrer","type":"address"},{"internalType":"uint256","name":"referralReward","type":"uint256"},{"internalType":"uint256","name":"timestamp","type":"uint256"}],"internalType":"struct PackageManagerV2_1.UserPurchase[]","name":"","type":"tuple[]"}],"stateMutability":"view","type":"function"},{"inputs":[{"internalType":"address","name":"user","type":"address"}],"name":"getUserRedemptionCount","outputs":[{"internalType":"uint256","name":"","type":"uint256"}],"stateMutability":"view","type":"function"},{"inputs":[{"internalType":"address","name":"user","type":"address"}],"name":"getUserRedemptions","outputs":[{"internalType":"uint256[]","name":"amounts","type":"uint256[]"},{"internalType":"uint256[]","name":"timestamps","type":"uint256[]"}],"stateMutability":"view","type":"function"},{"inputs":[{"internalType":"address","name":"user","type":"address"}],"name":"getUserStats","outputs":[{"components":[{"internalType":"uint256","name":"totalInvested","type":"uint256"},{"internalType":"uint256","name":"totalTokensReceived","type":"uint256"},{"internalType":"uint256","name":"totalVestTokens","type":"uint256"},{"internalType":"uint256","name":"totalPoolTokens","type":"uint256"},{"internalType":"uint256","name":"totalLPTokens","type":"uint256"},{"internalType":"uint256","name":"totalReferralRewards","type":"uint256"},{"internalType":"uint256","name":"purchaseCount","type":"uint256"},{"internalType":"uint256","name":"redemptionCount","type":"uint256"},{"internalType":"uint256","name":"totalRedemptions","type":"uint256"}],"internalType":"struct PackageManagerV2_1.UserStats","name":"","type":"tuple"}],"stateMutability":"view","type":"function"},{"inputs":[],"name":"globalTargetPrice","outputs":[{"internalType":"uint256","name":"","type":"uint256"}],"stateMutability":"view","type":"function"},{"inputs":[{"internalType":"bytes32","name":"role","type":"bytes32"},{"internalType":"address","name":"account","type":"address"}],"name":"grantRole","outputs":[],"stateMutability":"nonpayable","type":"function"},{"inputs":[{"internalType":"bytes32","name":"role","type":"bytes32"},{"internalType":"address","name":"account","type":"address"}],"name":"hasRole","outputs":[{"internalType":"bool","name":"","type":"bool"}],"stateMutability":"view","type":"function"},{"inputs":[],"name":"lpToken","outputs":[{"internalType":"contract IBLOCKS_LP","name":"","type":"address"}],"stateMutability":"view","type":"function"},{"inputs":[],"name":"nextPackageId","outputs":[{"internalType":"uint256","name":"","type":"uint256"}],"stateMutability":"view","type":"function"},{"inputs":[],"name":"pause","outputs":[],"stateMutability":"nonpayable","type":"function"},{"inputs":[],"name":"paused","outputs":[{"internalType":"bool","name":"","type":"bool"}],"stateMutability":"view","type":"function"},{"inputs":[{"internalType":"uint256","name":"id","type":"uint256"},{"internalType":"address","name":"referrer","type":"address"}],"name":"purchase","outputs":[],"stateMutability":"nonpayable","type":"function"},{"inputs":[{"internalType":"uint256","name":"lpAmount","type":"uint256"}],"name":"redeem","outputs":[],"stateMutability":"nonpayable","type":"function"},{"inputs":[{"internalType":"uint256","name":"lpAmount","type":"uint256"},{"internalType":"uint256","name":"amountShareMin","type":"uint256"},{"internalType":"uint256","name":"amountUSDTMin","type":"uint256"},{"internalType":"uint256","name":"deadline","type":"uint256"}],"name":"redeemWithLiquidityRemoval","outputs":[],"stateMutability":"nonpayable","type":"function"},{"inputs":[{"internalType":"bytes32","name":"role","type":"bytes32"},{"internalType":"address","name":"callerConfirmation","type":"address"}],"name":"renounceRole","outputs":[],"stateMutability":"nonpayable","type":"function"},{"inputs":[{"internalType":"bytes32","name":"role","type":"bytes32"},{"internalType":"address","name":"account","type":"address"}],"name":"revokeRole","outputs":[],"stateMutability":"nonpayable","type":"function"},{"inputs":[],"name":"router","outputs":[{"internalType":"contract IPancakeRouter","name":"","type":"address"}],"stateMutability":"view","type":"function"},{"inputs":[{"internalType":"uint256","name":"newWindow","type":"uint256"}],"name":"setDeadlineWindow","outputs":[],"stateMutability":"nonpayable","type":"function"},{"inputs":[{"internalType":"uint256","name":"newGlobalTargetPrice","type":"uint256"}],"name":"setGlobalTargetPrice","outputs":[],"stateMutability":"nonpayable","type":"function"},{"inputs":[{"internalType":"uint256","name":"id","type":"uint256"},{"internalType":"uint256","name":"newExchangeRate","type":"uint256"}],"name":"setPackageExchangeRate","outputs":[],"stateMutability":"nonpayable","type":"function"},{"inputs":[{"internalType":"uint256","name":"newTolerance","type":"uint256"}],"name":"setSlippageTolerance","outputs":[],"stateMutability":"nonpayable","type":"function"},{"inputs":[{"internalType":"address","name":"newTreasury","type":"address"}],"name":"setTreasury","outputs":[],"stateMutability":"nonpayable","type":"function"},{"inputs":[],"name":"shareToken","outputs":[{"internalType":"contract IBLOCKS","name":"","type":"address"}],"stateMutability":"view","type":"function"},{"inputs":[],"name":"slippageTolerance","outputs":[{"internalType":"uint256","name":"","type":"uint256"}],"stateMutability":"view","type":"function"},{"inputs":[{"internalType":"bytes4","name":"interfaceId","type":"bytes4"}],"name":"supportsInterface","outputs":[{"internalType":"bool","name":"","type":"bool"}],"stateMutability":"view","type":"function"},{"inputs":[],"name":"taxManager","outputs":[{"internalType":"contract ISwapTaxManager","name":"","type":"address"}],"stateMutability":"view","type":"function"},{"inputs":[{"internalType":"uint256","name":"id","type":"uint256"}],"name":"togglePackage","outputs":[],"stateMutability":"nonpayable","type":"function"},{"inputs":[],"name":"treasury","outputs":[{"internalType":"address","name":"","type":"address"}],"stateMutability":"view","type":"function"},{"inputs":[],"name":"unpause","outputs":[],"stateMutability":"nonpayable","type":"function"},{"inputs":[],"name":"usdt","outputs":[{"internalType":"contract IERC20Decimals","name":"","type":"address"}],"stateMutability":"view","type":"function"},{"inputs":[],"name":"vestingVault","outputs":[{"internalType":"contract IVestingVault","name":"","type":"address"}],"stateMutability":"view","type":"function"}],"evm":{"bytecode":{"linkReferences":{},"object":"610160346200059f57601f62004bce38819003918201601f1916830192916001600160401b03841183851017620005a45780839260409586528339610140928391810103126200059f576200005481620005ba565b9160209362000065858401620005ba565b9462000073828501620005ba565b906200008260608601620005ba565b956200009160808701620005ba565b90620000a060a08801620005ba565b91620000af60c08901620005ba565b92620000be60e08a01620005ba565b916101009a620000d08c8c01620005ba565b97610120809c0151976001805561012c6003556101f460055560018060a01b038097169e8f156200055b57871691821562000517578716928315620004d35787169384156200048f5787169485156200044b578716958615620004075787891615620003c35787169687156200037f578a16156200033c578815620002ed575062000196999a9b9c9d60805260a05260c05260e0528a528852865260025490610100600160a81b039060081b1690610100600160a81b03191617600255600455620005cf565b50620001a16200063e565b5051916144bb9384620006d385396080518481816107cb01528181611134015281816111860152818161181501528181612cd40152818161394301528181613d9b01528181613fd2015281816140c10152614440015260a0518481816107a1015281816114cc0152818161167d015281816116d60152818161175a01528181611856015281816118b30152818161193e0152818161229101528181612c4f01528181612e76015281816139180152614057015260c0518481816104cd0152818161087e015281816115ca0152818161230101526139f5015260e05184818161052f015281816109c901528181611984015281816119e401528181611a410152611cc60152518381816102b40152818161091c01528181613f9001528181614028015261411b01525182818161080101528181610d4e015261397a015251818181612a500152613d040152f35b6084908b519062461bcd60e51b82526004820152602360248201527f496e76616c696420696e697469616c20676c6f62616c2074617267657420707260448201526269636560e81b6064820152fd5b6064908b519062461bcd60e51b82526004820152601560248201527f496e76616c69642061646d696e206164647265737300000000000000000000006044820152fd5b8b5162461bcd60e51b815260048101839052601b60248201527f496e76616c696420746178206d616e61676572206164647265737300000000006044820152606490fd5b8b5162461bcd60e51b815260048101839052601860248201527f496e76616c6964207472656173757279206164647265737300000000000000006044820152606490fd5b8b5162461bcd60e51b815260048101839052601760248201527f496e76616c696420666163746f727920616464726573730000000000000000006044820152606490fd5b8b5162461bcd60e51b815260048101839052601660248201527f496e76616c696420726f757465722061646472657373000000000000000000006044820152606490fd5b8b5162461bcd60e51b815260048101839052601560248201527f496e76616c6964207661756c74206164647265737300000000000000000000006044820152606490fd5b8b5162461bcd60e51b815260048101839052601860248201527f496e76616c6964204c5020746f6b656e206164647265737300000000000000006044820152606490fd5b8b5162461bcd60e51b815260048101839052601b60248201527f496e76616c696420736861726520746f6b656e206164647265737300000000006044820152606490fd5b8b5162461bcd60e51b815260048101839052601460248201527f496e76616c6964205553445420616464726573730000000000000000000000006044820152606490fd5b600080fd5b634e487b7160e01b600052604160045260246000fd5b51906001600160a01b03821682036200059f57565b6001600160a01b0316600081815260008051602062004bae833981519152602052604081205490919060ff166200063a57818052816020526040822081835260205260408220600160ff19825416179055339160008051602062004b8e8339815191528180a4600190565b5090565b736f6782148f208f9547f68e2354b1d7d2d4bef987600081815260008051602062004bae8339815191526020527fb84a81f566c139275f8f9608e497d4d79f6224091157391980973dcede721fd65490919060ff166200063a57818052816020526040822081835260205260408220600160ff19825416179055339160008051602062004b8e8339815191528180a460019056fe608080604052600436101561001357600080fd5b6000803560e01c91826301ffc9a714612ffc57508163117da1ee14612ecd57816314f847771461048e578163175d1bcb14612eb0578163230b8a3f14612e2e578163248a9ca314612e03578163289317eb14612dc95781632cf91f6414612d3f5781632f2ff15d14612d035781632f48ab7d14612cbf57816335dab4a814612c1457816336568abe14612bcd5781633f4ba83a14612b4a57816346a5683514612a7f5781634d23773014612a3b5781634e43603a146129535781635c691b08146123525781635c975abb146123305781635fcbd285146122ec57816361d027b3146122c05781636c9fa59e1461227c57816375b238fc14611cf557816379020194146121265781637d2fd64e146120585781638432e3a614611f3b5781638456cb5914611ec857816391b96b631461025d57816391d1485414611e815781639e16c70914611e505781639e4f8ab814611d175781639eb87dec14611cfa578163a217fddf14611cf5578163a5917baf14611cb1578163ae77c23714610fc3578163b99dfe1814610d9a578163c28399ef14610d7d578163c45a015514610d39578163c4e71eaf14610cc5578163c6e5d8f61461048e578163cd68aead14610751578163ce9ddccc14610719578163d03153aa146106fc578163d547741f146106bc578163d7da9e4f1461069f578163da7b109d146105fa578163db006a7514610493578163deef53781461048e578163df8ae236146103d4578163f0f44260146102e3578163f887ea401461029f578163f987626b14610262575063fcc18c231461025d57600080fd5b6131fc565b3461029c578060031936011261029c5760206040517f995c68a7874ab62e799137bc19b39d4cdd1c165240e636649fba7edfda9d16c88152f35b80fd5b3461029c578060031936011261029c576040517f00000000000000000000000000000000000000000000000000000000000000006001600160a01b03168152602090f35b3461029c57602036600319011261029c576102fc613065565b81805281602052604082203360005260205261031f60ff604060002054166133ad565b6001600160a01b0381811691821561037e5760028054610100600160a81b03198116600893841b610100600160a81b031617909155901c167f4ab5be82436d353e61ca18726e984e561f5c1cc7c6d38b29d2553c790434705a8380a380f35b60405162461bcd60e51b815260206004820152602860248201527f5061636b6167654d616e616765723a20496e76616c6964207472656173757279604482015267206164647265737360c01b6064820152608490fd5b3461029c5760208060031936011261048a577ff07234658490cc011f9f49fd5c1b020ffd25ca0e3df67ac88818648c16a269cd600435918380528381526040842033600052815261042c60ff604060002054166133ad565b8284526008815261044960ff600360408720015460a81c166135c7565b8284526008815260408420600301805460ff60a01b19811660a091821c60ff9081161590921b60ff60a01b16178255905460a01c166040519015158152a280f35b5080fd5b6130d9565b3461029c57602036600319011261029c576004356104af613853565b6104b76135a9565b6104c2811515613876565b816001600160a01b037f00000000000000000000000000000000000000000000000000000000000000008116803b156105f657604051632770a7eb60e21b8152336004820152602481018590529083908290604490829084905af19081156105eb5783916105d7575b50507f000000000000000000000000000000000000000000000000000000000000000016803b1561048a57818091600460405180948193634e71d92d60e01b83525af180156105cc576105b8575b50506105858133613e27565b6040519081527f4896181ff8f4543cc00db9fe9b6fb7e6f032b7eb772c72ab1ec1b4d2e03b936960203392a26001805580f35b6105c1906134aa565b61048a578183610579565b6040513d84823e3d90fd5b6105e0906134aa565b61048a57818561052b565b6040513d85823e3d90fd5b8280fd5b3461029c57604036600319011261029c576004357fa1883cbb0491700bbb491dc908b557f640688276c8d7b9ec57f4bea05f2050146040602435848052846020528185203360005260205261065560ff8360002054166133ad565b838552600860205261067260ff6003848820015460a81c166135c7565b61067d8115156133f9565b838552600860205260028286200190808254925582519182526020820152a280f35b3461029c578060031936011261029c576020600654604051908152f35b3461029c57604036600319011261029c576106f86004356106db61304f565b90808452836020526106f36001604086200154613276565b613338565b5080f35b3461029c578060031936011261029c576020600554604051908152f35b3461029c57602036600319011261029c576020906040906001600160a01b03610740613065565b168152600b83522054604051908152f35b3461029c57608036600319011261029c57600435606435610770613853565b6107786135a9565b610783821515613876565b428110610c815760405163e6a4390560e01b81526001600160a01b037f00000000000000000000000000000000000000000000000000000000000000008116600483018190527f00000000000000000000000000000000000000000000000000000000000000008216602484018190526020939092919084816044817f000000000000000000000000000000000000000000000000000000000000000087165afa8015610c765783918991610c3a575b5016928315610be5576040516370a0823160e01b81523060048201528581602481885afa8015610bda578990610bab575b61086f91508861374a565b6040516318160ddd60e01b81527f00000000000000000000000000000000000000000000000000000000000000008516959187826004818a5afa908115610ba0578b91610b6a575b6108c1925061375d565b948515610b165790818a959493923b15610b1257604051632770a7eb60e21b8152336004820152602481018b90529086908290604490829084905af1908115610af3578691610afe575b505060405163095ea7b360e01b81527f000000000000000000000000000000000000000000000000000000000000000085166001600160a01b0381166004830152602482018890529390918890839060449082908a905af18015610af35760409460e4938892610ac6575b5085519a8b958694635d5155ef60e11b865260048601526024850152896044850152602435606485015260443560848501523360a485015260c48401525af19485156105cc5782948396610a8b575b50507f000000000000000000000000000000000000000000000000000000000000000016803b1561048a57818091600460405180948193634e71d92d60e01b83525af180156105cc57610a73575b5050610a697f3934fc962ef79ea87f2b6d34fdfdb727537e44f786c7810133c7e23f19a1481493610a448633613e27565b6040519384933397859094939260609260808301968352602083015260408201520152565b0390a26001805580f35b610a7c906134aa565b610a87578486610a13565b8480fd5b91955093506040843d604011610abe575b81610aa9604093836134bd565b8101031261048a5783519301519387806109c5565b3d9150610a9c565b610ae5908b3d8d11610aec575b610add81836134bd565b81019061378a565b508d610976565b503d610ad3565b6040513d88823e3d90fd5b610b07906134aa565b610a8757848b61090b565b8580fd5b60405162461bcd60e51b815260048101889052602660248201527f5061636b6167654d616e616765723a204e6f206c697175696469747920746f2060448201526572656d6f766560d01b6064820152608490fd5b90508782813d8311610b99575b610b8181836134bd565b81010312610b94576108c19151906108b7565b600080fd5b503d610b77565b6040513d8d823e3d90fd5b508581813d8311610bd3575b610bc181836134bd565b81010312610b945761086f9051610864565b503d610bb7565b6040513d8b823e3d90fd5b60405162461bcd60e51b815260048101869052602760248201527f5061636b6167654d616e616765723a204e6f206c6971756964697479207061696044820152661c88199bdd5b9960ca1b6064820152608490fd5b809250868092503d8311610c6f575b610c5381836134bd565b81010312610c6b57610c6583916138cc565b89610833565b8780fd5b503d610c49565b6040513d8a823e3d90fd5b606460405162461bcd60e51b815260206004820152602060248201527f5061636b6167654d616e616765723a20446561646c696e6520657870697265646044820152fd5b3461029c57602036600319011261029c57610d27906001600160a01b03610cea613065565b168152600b602052610d35610d13610d0d604080852094600c6020522093613613565b92613613565b6040519384936040855260408501906131ac565b9083820360208501526131ac565b0390f35b3461029c578060031936011261029c576040517f00000000000000000000000000000000000000000000000000000000000000006001600160a01b03168152602090f35b3461029c578060031936011261029c576020600354604051908152f35b3461029c57602036600319011261029c5760043581610100604051610dbe81613478565b606081528260208201528260408201528260608201528260808201528260a08201528260c08201528260e082015201528082526008602052610e0c60ff600360408520015460a81c166135c7565b815260086020526040812060405191610e2483613478565b60405181835492610e34846134f9565b908184526001948581169081600014610f9c5750600114610f62575b8660ff6003888888610e64818a03826134bd565b8552810154602085015260028101546040850152015461ffff811660608401526001600160401b038160101c1660808401526001600160401b038160501c1660a084015261ffff8160901c1660c0840152818160a01c16151560e084015260a81c161515610100820152604051809160208252610100610ef282516101206020860152610140850190613236565b91602081015160408501526040810151606085015261ffff60608201511660808501526001600160401b0360808201511660a08501526001600160401b0360a08201511660c085015261ffff60c08201511660e085015260e0810151151582850152015115156101208301520390f35b9150848252602082205b818310610f83575050810160200181610e64610e50565b8481602092949394548385880101520191019190610f6c565b60ff191660208087019190915292151560051b85019092019250839150610e649050610e50565b3461029c57604036600319011261029c57610fdc61304f565b610fe4613853565b610fec6135a9565b6004358252600860205261100c60ff600360408520015460a81c166135c7565b6004358252600860205260408220906040519161102883613478565b604051848254611037816134f9565b8084529060018116908115611c8d5750600114611c4a575b5090611060816003949303826134bd565b84526001810154602085015260028101546040850152015461ffff811660608401526001600160401b038160101c1660808401526001600160401b038160501c1660a084015261ffff8160901c1660c084015260ff808260a01c161591821560e086015260a81c161515610100840152611bfa576001600160a01b0381163314611ba7576020820151604051906323b872dd60e01b60208301523360248301523060448301526064820152606481528060a08101106001600160401b0360a083011117611b935760a08101604052611161907f00000000000000000000000000000000000000000000000000000000000000006001600160a01b03166137eb565b61116e6020830151613cbf565b60405163313ce56760e01b81529092906020816004817f00000000000000000000000000000000000000000000000000000000000000006001600160a01b03165afa908115611b88578591611b4b575b5060ff6012911603611ae057670de0b6b3a76400008302838104670de0b6b3a76400001484151715611acc5760408201516111f89161375d565b61ffff60608301511661ffff816127100311611ab85761271061122461ffff61122c938303168761374a565b04809561377d565b61271061124161ffff6060860151168461374a565b049461124d868461377d565b91836101f48102046101f41484151715611aa4578661193b575b6127106101f4850204611840575b806117fc575b5080158015806117f1575b611647575b5050816115c7575b85926001600160a01b0385161515806115b6575b6114b0575b60208101513388526009602052604088206112c88282546137a2565b8155600181016112d98682546137a2565b9055600281016112ea8982546137a2565b9055600381016112fb8582546137a2565b90556004810161130c8682546137a2565b9055600681015460018101811161149c57600160069101910155338852600a602052604088206040519161133f83613478565b600435835260208301528460408301528760608301528360808301528460a083015260018060a01b03871660c08301528560e083015242610100830152805490600160401b821015611488579061139b9160018201815561372e565b91909161147457906008610100836020959451845585810151600185015560408101516002850155606081015160038501556080810151600485015560a081015160058501556006840160018060a01b0360c0830151166bffffffffffffffffffffffff60a01b82541617905560e08101516007850155015191015501519460405195865282602087015260408601526060850152608084015260a083015260018060a01b031690600435907f5a77e79107887ebcf23f054ef45c1e6ef75a6215cf598323e188d01a6e5da7b360c03392a46001805580f35b634e487b7160e01b89526004899052602489fd5b634e487b7160e01b8a52604160045260248afd5b634e487b7160e01b8a52601160045260248afd5b92506127106114c761ffff60c0860151168461374a565b0492867f00000000000000000000000000000000000000000000000000000000000000006001600160a01b0316803b1561048a576040516340c10f1960e01b81526001600160a01b0388166004820152602481018790529082908290604490829084905af180156105cc5761159e575b50506001600160a01b0385168752600960205260408720600501805461155e9086906137a2565b905560405184815233906001600160a01b038716907f0a721ab4682ceb61c7e4d264ef879fc419a6d764b136e7d96ef54b2053c7567390602090a36112ac565b6115a7906134aa565b6115b2578688611537565b8680fd5b5061ffff60c08201511615156112a7565b857f00000000000000000000000000000000000000000000000000000000000000006001600160a01b0316803b1561048a576040516340c10f1960e01b8152336004820152602481018590529082908290604490829084905af180156105cc57611633575b5050611293565b61163c906134aa565b610b1257858761162c565b81670de0b6b3a7640000810204670de0b6b3a76400001417156117dd5761167a600454670de0b6b3a7640000830261375d565b907f00000000000000000000000000000000000000000000000000000000000000006001600160a01b03163b15610c6b576040516340c10f1960e01b815230600482015260248101839052888082604481836001600160a01b037f0000000000000000000000000000000000000000000000000000000000000000165af19182156117d05784926117b9575b50506117159160043533613eff565b15611721575b8061128b565b60025460405163a9059cbb60e01b815260089190911c6001600160a01b031660048201526024810191909152602081806044810103818a7f00000000000000000000000000000000000000000000000000000000000000006001600160a01b03165af180156117ae571561171b576117a79060203d602011610aec57610add81836134bd565b508661171b565b6040513d89823e3d90fd5b6117c49192506134aa565b610c6b5781888a611706565b50604051903d90823e3d90fd5b634e487b7160e01b87526011600452602487fd5b506004541515611286565b60025461183a919060081c6001600160a01b03908116907f0000000000000000000000000000000000000000000000000000000000000000166137af565b8761127b565b600254889060081c6001600160a01b03908116907f0000000000000000000000000000000000000000000000000000000000000000163b1561048a576040516340c10f1960e01b81526001600160a01b0390911660048201526127106101f48702046024820152818180604481010381837f00000000000000000000000000000000000000000000000000000000000000006001600160a01b03165af180156105cc57611927575b50506040516127106101f48602048152600435907f070e3cc1092f69f3c882a468d7366a29f082abee73557db7b5a9c01412ca017160203392a3611275565b611930906134aa565b610c6b5787896118e8565b877f00000000000000000000000000000000000000000000000000000000000000006001600160a01b0316803b1561048a576040516340c10f1960e01b81526001600160a01b037f0000000000000000000000000000000000000000000000000000000000000000166004820152602481018a905291908290604490829084905af18015610bda57611a91575b50608085015160a086015189916001600160401b0390811691167f00000000000000000000000000000000000000000000000000000000000000006001600160a01b03163b156105f65760405163bf49ec4f60e01b8152336004820152602481018b9052604481019290925260648201528181608481837f00000000000000000000000000000000000000000000000000000000000000006001600160a01b03165af180156105cc57611a7d575b5050611267565b611a86906134aa565b610c6b578789611a76565b611a9d909891986134aa565b96886119c8565b634e487b7160e01b88526011600452602488fd5b634e487b7160e01b86526011600452602486fd5b634e487b7160e01b85526011600452602485fd5b60405162461bcd60e51b815260206004820152603d60248201527f5061636b6167654d616e616765723a2055534454206d7573742075736520313860448201527f20646563696d616c7320666f72205632206172636869746563747572650000006064820152608490fd5b90506020813d602011611b80575b81611b66602093836134bd565b81010312610a87575160ff81168103610a875760ff6111be565b3d9150611b59565b6040513d87823e3d90fd5b634e487b7160e01b84526041600452602484fd5b60405162461bcd60e51b815260206004820152602560248201527f5061636b6167654d616e616765723a2043616e6e6f7420726566657220796f756044820152643939b2b63360d91b6064820152608490fd5b60405162461bcd60e51b815260206004820152602260248201527f5061636b6167654d616e616765723a205061636b616765206e6f742061637469604482015261766560f01b6064820152608490fd5b838752602087209392915086905b808210611c71575091925090810160200161106061104f565b9192936001816020925483858801015201910190939291611c58565b60ff191660208086019190915291151560051b84019091019150611060905061104f565b3461029c578060031936011261029c576040517f00000000000000000000000000000000000000000000000000000000000000006001600160a01b03168152602090f35b6131e0565b3461029c578060031936011261029c576020600754604051908152f35b3461029c578060031936011261029c5760075481805b828110611e045750611d3e83613664565b92611d4c60405194856134bd565b808452611d5b601f1991613664565b0191602092368486013781805b828110611d825760405185815280610d35818801896131ac565b611d8b81613533565b9054600391821b1c83526008865260ff8160408520015460a01c16611dba575b50611db590613453565b611d68565b611dc5829592613533565b9054911b1c8651821015611df05781611de99187611db59460051b8a010152613453565b9390611dab565b634e487b7160e01b83526032600452602483fd5b60ff611e0f82613533565b9054600391821b1c8452600860205260408420015460a01c16611e3b575b611e3690613453565b611d2d565b92611e48611e3691613453565b939050611e2d565b3461029c57602036600319011261029c576060611e6e6004356138f4565b9060405192835260208301526040820152f35b3461029c57604036600319011261029c5760ff6040602092611ea161304f565b60043582528185528282206001600160a01b03909116825284522054604051911615158152f35b3461029c578060031936011261029c578080528060205260408120338252602052611ef960ff6040832054166133ad565b611f016135a9565b600160ff1960025416176002557f62e78cea01bee320cd4e420270b5ea74000d11b0c9f74754ebdbfc544b05a2586020604051338152a180f35b3461029c5760208060031936011261048a57600435828052828252604083203384528252611f6f60ff6040852054166133ad565b603c811061200857610e108111611fb9577fd377b1dc1f911f261ac96273f0011b33578119b6f87a37a787fc6fa3ba066de49160409160035491816003558351928352820152a180f35b60405162461bcd60e51b815260048101839052602160248201527f5061636b6167654d616e616765723a20446561646c696e6520746f6f206c6f6e6044820152606760f81b6064820152608490fd5b60405162461bcd60e51b815260048101839052602260248201527f5061636b6167654d616e616765723a20446561646c696e6520746f6f2073686f6044820152611c9d60f21b6064820152608490fd5b3461029c57602036600319011261029c57600435818052816020526040822033835260205261208d60ff6040842054166133ad565b80156120cd5760407f3f0a47b6cb75d94633850c9a242c4cdb5876a35fc86c211a1f4f633cc37ba8ed91600454908060045582519182526020820152a180f35b60405162461bcd60e51b815260206004820152602b60248201527f5061636b6167654d616e616765723a20496e76616c696420676c6f62616c207460448201526a617267657420707269636560a81b6064820152608490fd5b3461029c57604036600319011261029c5761213f613065565b60243582805260209183835260408420338552835261216460ff6040862054166133ad565b6001600160a01b039081169081156122295782156121e45760025460405163a9059cbb60e01b815260089190911c919091166001600160a01b03166004820152602481019290925282908290604490829087905af180156105eb576121c7578280f35b816121dd92903d10610aec57610add81836134bd565b5081808280f35b60405162461bcd60e51b815260048101859052601e60248201527f5061636b6167654d616e616765723a20496e76616c696420616d6f756e7400006044820152606490fd5b60405162461bcd60e51b815260048101859052602560248201527f5061636b6167654d616e616765723a20496e76616c696420746f6b656e206164604482015264647265737360d81b6064820152608490fd5b3461029c578060031936011261029c576040517f00000000000000000000000000000000000000000000000000000000000000006001600160a01b03168152602090f35b3461029c578060031936011261029c5760025460405160089190911c6001600160a01b03168152602090f35b3461029c578060031936011261029c576040517f00000000000000000000000000000000000000000000000000000000000000006001600160a01b03168152602090f35b3461029c578060031936011261029c57602060ff600254166040519015158152f35b3461029c5760e036600319011261029c576001600160401b036004351161029c5736602360043501121561029c576001600160401b03600435600401351161029c573660246004356004013560043501011161029c576064803561ffff811681036105f657608435916001600160401b038316830361294f5760a4356001600160401b0381168103610a875760c4359161ffff83168303610b1257858052856020526040862033875260205261240e60ff6040882054166133ad565b6124166135a9565b600435600401351561290d57602435156128bd5761243760443515156133f9565b61271061ffff851611612869576103e861ffff841611612816576001600160401b038216156127d457506006549361246e85613453565b60065560405161247d81613478565b61248c600435600401356134de565b61249960405191826134bd565b6004803590810135808352906024016020830137876020600435600401358301015281526024356020820152604435604082015261ffff851660608201526001600160401b03821660808201526001600160401b03831660a082015261ffff841660c0820152600160e0820152600161010082015285875260086020526040872081518051906001600160401b0382116114885761253783546134f9565b601f8111612792575b50602090601f831160011461272657918061010094926003948d9261271b575b50508160011b9160001990851b1c19161781555b6020840151600182015560408401516002820155019161ffff60608201511683549069ffffffffffffffff0000608084015160101b166001600160401b0360501b60a085015160501b169161ffff60901b60c086015160901b16936bffffffffffffffffffffffff60a01b1617171717835561260e60e08201511515849081549060ff60a01b90151560a01b169060ff60a01b1916179055565b0151815460ff60a81b191690151560a81b60ff60a81b16179055600754600160401b8110156127075761ffff926001600160401b037f38a9b0861af6eda42482a0e46839a625d911229840556475b544bc0bb1c5a66d969593612678846001849601600755613533565b81549060031b908b821b91600019901b1916179055856040519760e089526004356004013560e08a0152600435600401356024600435016101008b01378b610100600435600401358b01015260243560208a015260443560408a01521660608801521660808601521660a08401521660c082015261010081601f19601f6004356004013501168101030190a280f35b634e487b7160e01b87526041600452602487fd5b015190508c80612560565b90838b5260208b20918b5b601f198516811061277a575092610100949260019260039583601f19811610612762575b505050811b018155612574565b015160001983871b60f8161c191690558c8080612755565b91926020600181928685015181550194019201612731565b838b5260208b20601f840160051c8101602085106127cd575b8c601f840160051c830182106127c357505050612540565b81556001016127ab565b50806127ab565b60405162461bcd60e51b815260206004820181905260248201527f5061636b6167654d616e616765723a20496e76616c6964206475726174696f6e6044820152fd5b608490650de40d0d2ced60d31b6040519162461bcd60e51b835260206004840152602660248401527f5061636b6167654d616e616765723a20526566657272616c207261746520746f6044840152820152fd5b6084906663656e7461676560c81b6040519162461bcd60e51b835260206004840152602760248401527f5061636b6167654d616e616765723a20496e76616c69642076657374207065726044840152820152fd5b608490631bdd5b9d60e21b6040519162461bcd60e51b8352602060048401526024808401527f5061636b6167654d616e616765723a20496e76616c696420656e74727920616d6044840152820152fd5b60405162461bcd60e51b815260206004820152601a60248201527f5061636b6167654d616e616765723a20456d707479206e616d650000000000006044820152fd5b8380fd5b3461029c57602036600319011261029c57604061012091612972613065565b61297a61367b565b506001600160a01b0316815260096020522060405161299881613478565b8154918282526001810154906020830191825260028101546040840190815260038201546060850190815260048301546080860190815260058401549160a0870192835260068501549360c08801948552600860078701549660e08a01978852015496610100809901978852604051998a525160208a01525160408901525160608801525160808701525160a08601525160c08501525160e08401525190820152f35b3461029c578060031936011261029c576040517f00000000000000000000000000000000000000000000000000000000000000006001600160a01b03168152602090f35b3461029c57604036600319011261029c57612a98613065565b9060243591612aa561367b565b506001600160a01b0316808252600a6020526040822054909190831015612af65761012092604082612ae794612ae19452600a6020522061372e565b506136c0565b612af4604051809261307b565bf35b60405162461bcd60e51b815260206004820152602660248201527f5061636b6167654d616e616765723a20496e76616c6964207075726368617365604482015265040d2dcc8caf60d31b6064820152608490fd5b3461029c578060031936011261029c578080528060205260408120338252602052612b7b60ff6040832054166133ad565b60025460ff811615612bbb5760ff19166002557f5db9ee0a495bf2e6ff9c91a7834c1ba4fdd244a5e8aa4e537bd38aeae4b073aa6020604051338152a180f35b604051638dfc202b60e01b8152600490fd5b3461029c57604036600319011261029c57612be661304f565b336001600160a01b03821603612c02576106f890600435613338565b60405163334bd91960e11b8152600490fd5b3461029c578060031936011261029c5760018060a01b0360208160025460081c166024604051809481936370a0823160e01b835260048301527f0000000000000000000000000000000000000000000000000000000000000000165afa9081156105cc578291612c8a575b602082604051908152f35b90506020813d8211612cb7575b81612ca4602093836134bd565b8101031261048a57602091505182612c7f565b3d9150612c97565b3461029c578060031936011261029c576040517f00000000000000000000000000000000000000000000000000000000000000006001600160a01b03168152602090f35b3461029c57604036600319011261029c576106f8600435612d2261304f565b9080845283602052612d3a6001604086200154613276565b6132ba565b3461029c578060031936011261029c57604051809182600754808452602080940190600784527fa66cc928b5edb82af9bd49922954155ab7b0942694bea4ce44661d9a8736c688935b85828210612db357505050612d9f925003836134bd565b610d356040519282849384528301906131ac565b8554845260019586019588955093019201612d88565b3461029c578060031936011261029c5760206040517f4af58918e2c6f17f8b6da7260d8669fa63150ffd279395662a723476f776f76a8152f35b3461029c57602036600319011261029c57600160406020926004358152808452200154604051908152f35b3461029c578060031936011261029c57600254604051636eb1769f60e11b81526001600160a01b0360089290921c8216600482015230602482015290602090829060449082907f0000000000000000000000000000000000000000000000000000000000000000165afa9081156105cc578291612c8a57602082604051908152f35b3461029c578060031936011261029c576020600454604051908152f35b3461029c5760208060031936011261048a57600435828052828252604083203384528252612f0160ff6040852054166133ad565b6103e88111612fa35760648110612f4b577fddd31550b26e9ef8ade466958be83ff8a014d9b4f36d546b61a6847a453065759160409160055491816005558351928352820152a180f35b60405162461bcd60e51b815260048101839052602a60248201527f5061636b6167654d616e616765723a20536c69707061676520746f6c6572616e604482015269636520746f6f206c6f7760b01b6064820152608490fd5b60405162461bcd60e51b815260048101839052602b60248201527f5061636b6167654d616e616765723a20536c69707061676520746f6c6572616e60448201526a0c6ca40e8dede40d0d2ced60ab1b6064820152608490fd5b3461048a57602036600319011261048a5760043563ffffffff60e01b81168091036105f65760209250637965db0b60e01b811490811561303e575b5015158152f35b6301ffc9a760e01b14905083613037565b602435906001600160a01b0382168203610b9457565b600435906001600160a01b0382168203610b9457565b805182526020810151602083015260408101516040830152606081015160608301526080810151608083015260a081015160a083015260018060a01b0360c08201511660c083015260e081015160e083015261010080910151910152565b34610b9457602080600319360112610b94576001600160a01b036130fb613065565b16906000918252600a815260408220805461311581613664565b9061312360405192836134bd565b8082528382018093865284862086915b83831061318557505050506040519280840191818552518092526040840192945b8281106131615784840385f35b90919282610120826131766001948a5161307b565b01960191019492919094613154565b600987600192613199859b9a98999b6136c0565b8152019201920191909694939596613133565b90815180825260208080930193019160005b8281106131cc575050505090565b8351855293810193928101926001016131be565b34610b94576000366003190112610b9457602060405160008152f35b34610b94576020366003190112610b94576001600160a01b0361321d613065565b16600052600a6020526020604060002054604051908152f35b919082519283825260005b848110613262575050826000602080949584010152601f8019910116010190565b602081830181015184830182015201613241565b80600052600060205260406000203360005260205260ff604060002054161561329c5750565b6044906040519063e2517d3f60e01b82523360048301526024820152fd5b9060009180835282602052604083209160018060a01b03169182845260205260ff6040842054161560001461333357808352826020526040832082845260205260408320600160ff198254161790557f2f8788117e7eff1d82e926ec794901d17c78024a50270940304540a733656f0d339380a4600190565b505090565b9060009180835282602052604083209160018060a01b03169182845260205260ff6040842054166000146133335780835282602052604083208284526020526040832060ff1981541690557ff6391f5c32d9c69d2a47ea670b442974b53935d1edc7fd64eb21e047a839171b339380a4600190565b156133b457565b60405162461bcd60e51b815260206004820152601960248201527f5061636b6167654d616e616765723a204e6f742061646d696e000000000000006044820152606490fd5b1561340057565b60405162461bcd60e51b815260206004820152602560248201527f5061636b6167654d616e616765723a20496e76616c69642065786368616e6765604482015264207261746560d81b6064820152608490fd5b60001981146134625760010190565b634e487b7160e01b600052601160045260246000fd5b61012081019081106001600160401b0382111761349457604052565b634e487b7160e01b600052604160045260246000fd5b6001600160401b03811161349457604052565b90601f801991011681019081106001600160401b0382111761349457604052565b6001600160401b03811161349457601f01601f191660200190565b90600182811c92168015613529575b602083101461351357565b634e487b7160e01b600052602260045260246000fd5b91607f1691613508565b60075481101561356a5760076000527fa66cc928b5edb82af9bd49922954155ab7b0942694bea4ce44661d9a8736c6880190600090565b634e487b7160e01b600052603260045260246000fd5b805490600160401b821015613494576001820180825582101561356a5760005260206000200155565b60ff600254166135b557565b60405163d93c066560e01b8152600490fd5b156135ce57565b60405162461bcd60e51b815260206004820152601f60248201527f5061636b6167654d616e616765723a20496e76616c6964207061636b616765006044820152606490fd5b9060405191828154918282526020928383019160005283600020936000905b82821061364a57505050613648925003836134bd565b565b855484526001958601958895509381019390910190613632565b6001600160401b0381116134945760051b60200190565b6040519061368882613478565b816101006000918281528260208201528260408201528260608201528260808201528260a08201528260c08201528260e08201520152565b906040516136cd81613478565b8254815260018301546020820152600283015460408201526003830154606082015260048301546080820152600583015460a082015260068301546001600160a01b031660c0820152600783015460e0820152600890920154610100830152565b805482101561356a576000526009602060002091020190600090565b8181029291811591840414171561346257565b8115613767570490565b634e487b7160e01b600052601260045260246000fd5b9190820391821161346257565b90816020910312610b9457518015158103610b945790565b9190820180921161346257565b60405163a9059cbb60e01b60208201526001600160a01b03929092166024830152604480830193909352918152613648916137eb6064836134bd565b906000602091828151910182855af115613847576000513d61383e57506001600160a01b0381163b155b61381c5750565b604051635274afe760e01b81526001600160a01b039091166004820152602490fd5b60011415613815565b6040513d6000823e3d90fd5b600260015414613864576002600155565b604051633ee5aeb560e01b8152600490fd5b1561387d57565b60405162461bcd60e51b815260206004820152602160248201527f5061636b6167654d616e616765723a20496e76616c6964204c5020616d6f756e6044820152601d60fa1b6064820152608490fd5b51906001600160a01b0382168203610b9457565b51906001600160701b0382168203610b9457565b90613900821515613876565b6040805163e6a4390560e01b81526001600160a01b037f0000000000000000000000000000000000000000000000000000000000000000811660048084018290527f0000000000000000000000000000000000000000000000000000000000000000831660248501529395602094909391929185816044817f000000000000000000000000000000000000000000000000000000000000000087165afa8015613cb4578391600091613c7d575b5016968715613c6a5780516370a0823160e01b8152308382015286816024818c5afa908115613c5f57600091613c32575b508151906318160ddd60e01b9687835288838681897f0000000000000000000000000000000000000000000000000000000000000000165afa928315613b7257600093613c03575b5082158015613bfb575b613be557613a479291613a429161374a565b61375d565b958151630240bc6b60e21b815260608185818d5afa968715613bda57908a916000918299613b7d575b5083908686518095819382525afa918215613b7257600092613b43575b508115613b325781613a42613abe92613ab68695613a428e6001600160701b038095169061374a565b9a168b61374a565b99835194858092630dfe168160e01b82525afa918215613b285750600091613af4575b5090501614600014613af1579291565b91565b82813d8311613b21575b613b0881836134bd565b8101031261029c5750613b1a906138cc565b8038613ae1565b503d613afe565b513d6000823e3d90fd5b506000995089989650505050505050565b90918382813d8311613b6b575b613b5a81836134bd565b8101031261029c5750519038613a8d565b503d613b50565b84513d6000823e3d90fd5b925097506060823d8211613bd2575b81613b99606093836134bd565b8101031261029c57613baa826138e0565b9084613bb78585016138e0565b93015163ffffffff81160361029c575090968a919083613a70565b3d9150613b8c565b83513d6000823e3d90fd5b5050505050505050509050600090600090600090565b508115613a30565b90928982813d8311613c2b575b613c1a81836134bd565b8101031261029c5750519138613a26565b503d613c10565b908782813d8311613c58575b613c4881836134bd565b8101031261029c575051386139de565b503d613c3e565b82513d6000823e3d90fd5b5050505050509050600090600090600090565b91508682813d8311613cad575b613c9481836134bd565b8101031261029c5750613ca783916138cc565b386139ad565b503d613c8a565b88513d6000823e3d90fd5b604080516367403b6160e01b81527f995c68a7874ab62e799137bc19b39d4cdd1c165240e636649fba7edfda9d16c8600482018190526001600160a01b0383836024817f000000000000000000000000000000000000000000000000000000000000000085165afa928315613b72576000908194613ddb575b5061ffff1680151580613dd0575b613d53575b505050505090565b613d60612710918761374a565b04938415613d4b576020827f9ad5f576ad2dc5abd88aee00524464d5aafcd7f0a8d0141fd6a2b7cf76130e0892613dc08888613dcd9b9998977f0000000000000000000000000000000000000000000000000000000000000000166137af565b51948786521693a361377d565b90565b508184161515613d46565b9093508481813d8311613e20575b613df381836134bd565b8101031261294f5780519361ffff8516850361029c5750613e19602061ffff92016138cc565b9390613d38565b503d613de9565b6001600160a01b031660008181526009602052604081206007810180549294926001810191908210611ab85792600860409593613e829361364898965501613e708282546137a2565b9055828452600b602052848420613580565b8152600c602052204290613580565b600060443d10613dcd57604051600319913d83016004833e81516001600160401b03918282113d602484011117613eee57818401948551938411613ef6573d85010160208487010111613eee5750613dcd929101602001906134bd565b949350505050565b50949350505050565b9190926005546127109081039080821161346257613f2981613f21848761374a565b04928461374a565b04856040517fc8af3886655c52b7ebbbcfc08757e97b8bbd122d4ef3e5e6fd92524497c4360f60018060a01b0388169180613f7e87878b8b859094939260609260808301968352602083015260408201520152565b0390a360405163095ea7b360e01b81527f00000000000000000000000000000000000000000000000000000000000000006001600160a01b03166004820152602481018590526020818060448101038160007f00000000000000000000000000000000000000000000000000000000000000006001600160a01b03165af1908115613847576000916143e4575b50156143935760405163095ea7b360e01b81526001600160a01b037f000000000000000000000000000000000000000000000000000000000000000081166004830152602482018590527f00000000000000000000000000000000000000000000000000000000000000001692906020816044816000885af190811561384757600091614374575b5015614321576140a5600354426137a2565b916040519362e8e33760e81b8552600485015260018060a01b037f0000000000000000000000000000000000000000000000000000000000000000166024850152846044850152856064850152608484015260a48301523060c483015260e4820152606091828261010481600060018060a01b037f0000000000000000000000000000000000000000000000000000000000000000165af1916000836000926000956142e4575b506142355750505050600060033d11614223575b6308c379a014614204575b3d156141ff57503d61417c816134de565b9061418a60405192836134bd565b81523d6000602083013e5b8051156141ac57926141a79392614403565b600090565b506040519260408401938085106001600160401b03861117613494576141a794604052601781527f556e6b6e6f776e206c6f772d6c6576656c206572726f72000000000000000000602082015292614403565b614195565b61420c613e91565b80614217575061416b565b926141a7949150614403565b5060046000803e60005160e01c614160565b8397969295931561428a577fc7453e3ef562c31977302710e5ff58ae67ad8fa521dcdd8c76f877c4c0d913689460a09460405197885260208801528860408801528601526080850152600180831b031692a390565b60405162461bcd60e51b815260206004820152602c60248201527f5061636b6167654d616e616765723a204e6f206c697175696469747920746f6b60448201526b195b9cc81c9958d95a5d995960a21b6064820152608490fd5b92509350508381813d831161431a575b6142fe81836134bd565b81010312610b945780516020820151604090920151933861414c565b503d6142f4565b60405162461bcd60e51b815260206004820152602560248201527f5061636b6167654d616e616765723a20424c4f434b5320617070726f76652066604482015264185a5b195960da1b6064820152608490fd5b61438d915060203d602011610aec57610add81836134bd565b38614093565b60405162461bcd60e51b815260206004820152602360248201527f5061636b6167654d616e616765723a205553445420617070726f7665206661696044820152621b195960ea1b6064820152608490fd5b6143fd915060203d602011610aec57610add81836134bd565b3861400b565b7f637414b7b370a8973bc89032447f4c07ad3048b83ce07b32e928d92ff3edaf5e91939261448060018060a01b03614465838260025460081c16837f0000000000000000000000000000000000000000000000000000000000000000166137af565b60405193849384526040602085015216946040830190613236565b0390a356fea264697066735822122046673cca89b506701ef1dc572be146aa8e7e6e8ce281ef9251336efa64a158c364736f6c634300081400332f8788117e7eff1d82e926ec794901d17c78024a50270940304540a733656f0dad3228b676f7d3cd4284a5443f17f1962b36e491b30a40b2405849e597ba5fb5","opcodes":"PUSH2 0x160 CALLVALUE PUSH3 0x59F JUMPI PUSH1 0x1F PUSH3 0x4BCE CODESIZE DUP2 SWAP1 SUB SWAP2 DUP3 ADD PUSH1 0x1F NOT AND DUP4 ADD SWAP3 SWAP2 PUSH1 0x1 PUSH1 0x1 PUSH1 0x40 SHL SUB DUP5 GT DUP4 DUP6 LT OR PUSH3 0x5A4 JUMPI DUP1 DUP4 SWAP3 PUSH1 0x40 SWAP6 DUP7 MSTORE DUP4 CODECOPY PUSH2 0x140 SWAP3 DUP4 SWAP2 DUP2 ADD SUB SLT PUSH3 0x59F JUMPI PUSH3 0x54 DUP2 PUSH3 0x5BA JUMP JUMPDEST SWAP2 PUSH1 0x20 SWAP4 PUSH3 0x65 DUP6 DUP5 ADD PUSH3 0x5BA JUMP JUMPDEST SWAP5 PUSH3 0x73 DUP3 DUP6 ADD PUSH3 0x5BA JUMP JUMPDEST SWAP1 PUSH3 0x82 PUSH1 0x60 DUP7 ADD PUSH3 0x5BA JUMP JUMPDEST SWAP6 PUSH3 0x91 PUSH1 0x80 DUP8 ADD PUSH3 0x5BA JUMP JUMPDEST SWAP1 PUSH3 0xA0 PUSH1 0xA0 DUP9 ADD PUSH3 0x5BA JUMP JUMPDEST SWAP2 PUSH3 0xAF PUSH1 0xC0 DUP10 ADD PUSH3 0x5BA JUMP JUMPDEST SWAP3 PUSH3 0xBE PUSH1 0xE0 DUP11 ADD PUSH3 0x5BA JUMP JUMPDEST SWAP2 PUSH2 0x100 SWAP11 PUSH3 0xD0 DUP13 DUP13 ADD PUSH3 0x5BA JUMP JUMPDEST SWAP8 PUSH2 0x120 DUP1 SWAP13 ADD MLOAD SWAP8 PUSH1 0x1 DUP1 SSTORE PUSH2 0x12C PUSH1 0x3 SSTORE PUSH2 0x1F4 PUSH1 0x5 SSTORE PUSH1 0x1 DUP1 PUSH1 0xA0 SHL SUB DUP1 SWAP8 AND SWAP15 DUP16 ISZERO PUSH3 0x55B JUMPI DUP8 AND SWAP2 DUP3 ISZERO PUSH3 0x517 JUMPI DUP8 AND SWAP3 DUP4 ISZERO PUSH3 0x4D3 JUMPI DUP8 AND SWAP4 DUP5 ISZERO PUSH3 0x48F JUMPI DUP8 AND SWAP5 DUP6 ISZERO PUSH3 0x44B JUMPI DUP8 AND SWAP6 DUP7 ISZERO PUSH3 0x407 JUMPI DUP8 DUP10 AND ISZERO PUSH3 0x3C3 JUMPI DUP8 AND SWAP7 DUP8 ISZERO PUSH3 0x37F JUMPI DUP11 AND ISZERO PUSH3 0x33C JUMPI DUP9 ISZERO PUSH3 0x2ED JUMPI POP PUSH3 0x196 SWAP10 SWAP11 SWAP12 SWAP13 SWAP14 PUSH1 0x80 MSTORE PUSH1 0xA0 MSTORE PUSH1 0xC0 MSTORE PUSH1 0xE0 MSTORE DUP11 MSTORE DUP9 MSTORE DUP7 MSTORE PUSH1 0x2 SLOAD SWAP1 PUSH2 0x100 PUSH1 0x1 PUSH1 0xA8 SHL SUB SWAP1 PUSH1 0x8 SHL AND SWAP1 PUSH2 0x100 PUSH1 0x1 PUSH1 0xA8 SHL SUB NOT AND OR PUSH1 0x2 SSTORE PUSH1 0x4 SSTORE PUSH3 0x5CF JUMP JUMPDEST POP PUSH3 0x1A1 PUSH3 0x63E JUMP JUMPDEST POP MLOAD SWAP2 PUSH2 0x44BB SWAP4 DUP5 PUSH3 0x6D3 DUP6 CODECOPY PUSH1 0x80 MLOAD DUP5 DUP2 DUP2 PUSH2 0x7CB ADD MSTORE DUP2 DUP2 PUSH2 0x1134 ADD MSTORE DUP2 DUP2 PUSH2 0x1186 ADD MSTORE DUP2 DUP2 PUSH2 0x1815 ADD MSTORE DUP2 DUP2 PUSH2 0x2CD4 ADD MSTORE DUP2 DUP2 PUSH2 0x3943 ADD MSTORE DUP2 DUP2 PUSH2 0x3D9B ADD MSTORE DUP2 DUP2 PUSH2 0x3FD2 ADD MSTORE DUP2 DUP2 PUSH2 0x40C1 ADD MSTORE PUSH2 0x4440 ADD MSTORE PUSH1 0xA0 MLOAD DUP5 DUP2 DUP2 PUSH2 0x7A1 ADD MSTORE DUP2 DUP2 PUSH2 0x14CC ADD MSTORE DUP2 DUP2 PUSH2 0x167D ADD MSTORE DUP2 DUP2 PUSH2 0x16D6 ADD MSTORE DUP2 DUP2 PUSH2 0x175A ADD MSTORE DUP2 DUP2 PUSH2 0x1856 ADD MSTORE DUP2 DUP2 PUSH2 0x18B3 ADD MSTORE DUP2 DUP2 PUSH2 0x193E ADD MSTORE DUP2 DUP2 PUSH2 0x2291 ADD MSTORE DUP2 DUP2 PUSH2 0x2C4F ADD MSTORE DUP2 DUP2 PUSH2 0x2E76 ADD MSTORE DUP2 DUP2 PUSH2 0x3918 ADD MSTORE PUSH2 0x4057 ADD MSTORE PUSH1 0xC0 MLOAD DUP5 DUP2 DUP2 PUSH2 0x4CD ADD MSTORE DUP2 DUP2 PUSH2 0x87E ADD MSTORE DUP2 DUP2 PUSH2 0x15CA ADD MSTORE DUP2 DUP2 PUSH2 0x2301 ADD MSTORE PUSH2 0x39F5 ADD MSTORE PUSH1 0xE0 MLOAD DUP5 DUP2 DUP2 PUSH2 0x52F ADD MSTORE DUP2 DUP2 PUSH2 0x9C9 ADD MSTORE DUP2 DUP2 PUSH2 0x1984 ADD MSTORE DUP2 DUP2 PUSH2 0x19E4 ADD MSTORE DUP2 DUP2 PUSH2 0x1A41 ADD MSTORE PUSH2 0x1CC6 ADD MSTORE MLOAD DUP4 DUP2 DUP2 PUSH2 0x2B4 ADD MSTORE DUP2 DUP2 PUSH2 0x91C ADD MSTORE DUP2 DUP2 PUSH2 0x3F90 ADD MSTORE DUP2 DUP2 PUSH2 0x4028 ADD MSTORE PUSH2 0x411B ADD MSTORE MLOAD DUP3 DUP2 DUP2 PUSH2 0x801 ADD MSTORE DUP2 DUP2 PUSH2 0xD4E ADD MSTORE PUSH2 0x397A ADD MSTORE MLOAD DUP2 DUP2 DUP2 PUSH2 0x2A50 ADD MSTORE PUSH2 0x3D04 ADD MSTORE RETURN JUMPDEST PUSH1 0x84 SWAP1 DUP12 MLOAD SWAP1 PUSH3 0x461BCD PUSH1 0xE5 SHL DUP3 MSTORE PUSH1 0x4 DUP3 ADD MSTORE PUSH1 0x23 PUSH1 0x24 DUP3 ADD MSTORE PUSH32 0x496E76616C696420696E697469616C20676C6F62616C20746172676574207072 PUSH1 0x44 DUP3 ADD MSTORE PUSH3 0x696365 PUSH1 0xE8 SHL PUSH1 0x64 DUP3 ADD MSTORE REVERT JUMPDEST PUSH1 0x64 SWAP1 DUP12 MLOAD SWAP1 PUSH3 0x461BCD PUSH1 0xE5 SHL DUP3 MSTORE PUSH1 0x4 DUP3 ADD MSTORE PUSH1 0x15 PUSH1 0x24 DUP3 ADD MSTORE PUSH32 0x496E76616C69642061646D696E20616464726573730000000000000000000000 PUSH1 0x44 DUP3 ADD MSTORE REVERT JUMPDEST DUP12 MLOAD PUSH3 0x461BCD PUSH1 0xE5 SHL DUP2 MSTORE PUSH1 0x4 DUP2 ADD DUP4 SWAP1 MSTORE PUSH1 0x1B PUSH1 0x24 DUP3 ADD MSTORE PUSH32 0x496E76616C696420746178206D616E6167657220616464726573730000000000 PUSH1 0x44 DUP3 ADD MSTORE PUSH1 0x64 SWAP1 REVERT JUMPDEST DUP12 MLOAD PUSH3 0x461BCD PUSH1 0xE5 SHL DUP2 MSTORE PUSH1 0x4 DUP2 ADD DUP4 SWAP1 MSTORE PUSH1 0x18 PUSH1 0x24 DUP3 ADD MSTORE PUSH32 0x496E76616C696420747265617375727920616464726573730000000000000000 PUSH1 0x44 DUP3 ADD MSTORE PUSH1 0x64 SWAP1 REVERT JUMPDEST DUP12 MLOAD PUSH3 0x461BCD PUSH1 0xE5 SHL DUP2 MSTORE PUSH1 0x4 DUP2 ADD DUP4 SWAP1 MSTORE PUSH1 0x17 PUSH1 0x24 DUP3 ADD MSTORE PUSH32 0x496E76616C696420666163746F72792061646472657373000000000000000000 PUSH1 0x44 DUP3 ADD MSTORE PUSH1 0x64 SWAP1 REVERT JUMPDEST DUP12 MLOAD PUSH3 0x461BCD PUSH1 0xE5 SHL DUP2 MSTORE PUSH1 0x4 DUP2 ADD DUP4 SWAP1 MSTORE PUSH1 0x16 PUSH1 0x24 DUP3 ADD MSTORE PUSH32 0x496E76616C696420726F75746572206164647265737300000000000000000000 PUSH1 0x44 DUP3 ADD MSTORE PUSH1 0x64 SWAP1 REVERT JUMPDEST DUP12 MLOAD PUSH3 0x461BCD PUSH1 0xE5 SHL DUP2 MSTORE PUSH1 0x4 DUP2 ADD DUP4 SWAP1 MSTORE PUSH1 0x15 PUSH1 0x24 DUP3 ADD MSTORE PUSH32 0x496E76616C6964207661756C7420616464726573730000000000000000000000 PUSH1 0x44 DUP3 ADD MSTORE PUSH1 0x64 SWAP1 REVERT JUMPDEST DUP12 MLOAD PUSH3 0x461BCD PUSH1 0xE5 SHL DUP2 MSTORE PUSH1 0x4 DUP2 ADD DUP4 SWAP1 MSTORE PUSH1 0x18 PUSH1 0x24 DUP3 ADD MSTORE PUSH32 0x496E76616C6964204C5020746F6B656E20616464726573730000000000000000 PUSH1 0x44 DUP3 ADD MSTORE PUSH1 0x64 SWAP1 REVERT JUMPDEST DUP12 MLOAD PUSH3 0x461BCD PUSH1 0xE5 SHL DUP2 MSTORE PUSH1 0x4 DUP2 ADD DUP4 SWAP1 MSTORE PUSH1 0x1B PUSH1 0x24 DUP3 ADD MSTORE PUSH32 0x496E76616C696420736861726520746F6B656E20616464726573730000000000 PUSH1 0x44 DUP3 ADD MSTORE PUSH1 0x64 SWAP1 REVERT JUMPDEST DUP12 MLOAD PUSH3 0x461BCD PUSH1 0xE5 SHL DUP2 MSTORE PUSH1 0x4 DUP2 ADD DUP4 SWAP1 MSTORE PUSH1 0x14 PUSH1 0x24 DUP3 ADD MSTORE PUSH32 0x496E76616C696420555344542061646472657373000000000000000000000000 PUSH1 0x44 DUP3 ADD MSTORE PUSH1 0x64 SWAP1 REVERT JUMPDEST PUSH1 0x0 DUP1 REVERT JUMPDEST PUSH4 0x4E487B71 PUSH1 0xE0 SHL PUSH1 0x0 MSTORE PUSH1 0x41 PUSH1 0x4 MSTORE PUSH1 0x24 PUSH1 0x0 REVERT JUMPDEST MLOAD SWAP1 PUSH1 0x1 PUSH1 0x1 PUSH1 0xA0 SHL SUB DUP3 AND DUP3 SUB PUSH3 0x59F JUMPI JUMP JUMPDEST PUSH1 0x1 PUSH1 0x1 PUSH1 0xA0 SHL SUB AND PUSH1 0x0 DUP2 DUP2 MSTORE PUSH1 0x0 DUP1 MLOAD PUSH1 0x20 PUSH3 0x4BAE DUP4 CODECOPY DUP2 MLOAD SWAP2 MSTORE PUSH1 0x20 MSTORE PUSH1 0x40 DUP2 KECCAK256 SLOAD SWAP1 SWAP2 SWAP1 PUSH1 0xFF AND PUSH3 0x63A JUMPI DUP2 DUP1 MSTORE DUP2 PUSH1 0x20 MSTORE PUSH1 0x40 DUP3 KECCAK256 DUP2 DUP4 MSTORE PUSH1 0x20 MSTORE PUSH1 0x40 DUP3 KECCAK256 PUSH1 0x1 PUSH1 0xFF NOT DUP3 SLOAD AND OR SWAP1 SSTORE CALLER SWAP2 PUSH1 0x0 DUP1 MLOAD PUSH1 0x20 PUSH3 0x4B8E DUP4 CODECOPY DUP2 MLOAD SWAP2 MSTORE DUP2 DUP1 LOG4 PUSH1 0x1 SWAP1 JUMP JUMPDEST POP SWAP1 JUMP JUMPDEST PUSH20 0x6F6782148F208F9547F68E2354B1D7D2D4BEF987 PUSH1 0x0 DUP2 DUP2 MSTORE PUSH1 0x0 DUP1 MLOAD PUSH1 0x20 PUSH3 0x4BAE DUP4 CODECOPY DUP2 MLOAD SWAP2 MSTORE PUSH1 0x20 MSTORE PUSH32 0xB84A81F566C139275F8F9608E497D4D79F6224091157391980973DCEDE721FD6 SLOAD SWAP1 SWAP2 SWAP1 PUSH1 0xFF AND PUSH3 0x63A JUMPI DUP2 DUP1 MSTORE DUP2 PUSH1 0x20 MSTORE PUSH1 0x40 DUP3 KECCAK256 DUP2 DUP4 MSTORE PUSH1 0x20 MSTORE PUSH1 0x40 DUP3 KECCAK256 PUSH1 0x1 PUSH1 0xFF NOT DUP3 SLOAD AND OR SWAP1 SSTORE CALLER SWAP2 PUSH1 0x0 DUP1 MLOAD PUSH1 0x20 PUSH3 0x4B8E DUP4 CODECOPY DUP2 MLOAD SWAP2 MSTORE DUP2 DUP1 LOG4 PUSH1 0x1 SWAP1 JUMP INVALID PUSH1 0x80 DUP1 PUSH1 0x40 MSTORE PUSH1 0x4 CALLDATASIZE LT ISZERO PUSH2 0x13 JUMPI PUSH1 0x0 DUP1 REVERT JUMPDEST PUSH1 0x0 DUP1 CALLDATALOAD PUSH1 0xE0 SHR SWAP2 DUP3 PUSH4 0x1FFC9A7 EQ PUSH2 0x2FFC JUMPI POP DUP2 PUSH4 0x117DA1EE EQ PUSH2 0x2ECD JUMPI DUP2 PUSH4 0x14F84777 EQ PUSH2 0x48E JUMPI DUP2 PUSH4 0x175D1BCB EQ PUSH2 0x2EB0 JUMPI DUP2 PUSH4 0x230B8A3F EQ PUSH2 0x2E2E JUMPI DUP2 PUSH4 0x248A9CA3 EQ PUSH2 0x2E03 JUMPI DUP2 PUSH4 0x289317EB EQ PUSH2 0x2DC9 JUMPI DUP2 PUSH4 0x2CF91F64 EQ PUSH2 0x2D3F JUMPI DUP2 PUSH4 0x2F2FF15D EQ PUSH2 0x2D03 JUMPI DUP2 PUSH4 0x2F48AB7D EQ PUSH2 0x2CBF JUMPI DUP2 PUSH4 0x35DAB4A8 EQ PUSH2 0x2C14 JUMPI DUP2 PUSH4 0x36568ABE EQ PUSH2 0x2BCD JUMPI DUP2 PUSH4 0x3F4BA83A EQ PUSH2 0x2B4A JUMPI DUP2 PUSH4 0x46A56835 EQ PUSH2 0x2A7F JUMPI DUP2 PUSH4 0x4D237730 EQ PUSH2 0x2A3B JUMPI DUP2 PUSH4 0x4E43603A EQ PUSH2 0x2953 JUMPI DUP2 PUSH4 0x5C691B08 EQ PUSH2 0x2352 JUMPI DUP2 PUSH4 0x5C975ABB EQ PUSH2 0x2330 JUMPI DUP2 PUSH4 0x5FCBD285 EQ PUSH2 0x22EC JUMPI DUP2 PUSH4 0x61D027B3 EQ PUSH2 0x22C0 JUMPI DUP2 PUSH4 0x6C9FA59E EQ PUSH2 0x227C JUMPI DUP2 PUSH4 0x75B238FC EQ PUSH2 0x1CF5 JUMPI DUP2 PUSH4 0x79020194 EQ PUSH2 0x2126 JUMPI DUP2 PUSH4 0x7D2FD64E EQ PUSH2 0x2058 JUMPI DUP2 PUSH4 0x8432E3A6 EQ PUSH2 0x1F3B JUMPI DUP2 PUSH4 0x8456CB59 EQ PUSH2 0x1EC8 JUMPI DUP2 PUSH4 0x91B96B63 EQ PUSH2 0x25D JUMPI DUP2 PUSH4 0x91D14854 EQ PUSH2 0x1E81 JUMPI DUP2 PUSH4 0x9E16C709 EQ PUSH2 0x1E50 JUMPI DUP2 PUSH4 0x9E4F8AB8 EQ PUSH2 0x1D17 JUMPI DUP2 PUSH4 0x9EB87DEC EQ PUSH2 0x1CFA JUMPI DUP2 PUSH4 0xA217FDDF EQ PUSH2 0x1CF5 JUMPI DUP2 PUSH4 0xA5917BAF EQ PUSH2 0x1CB1 JUMPI DUP2 PUSH4 0xAE77C237 EQ PUSH2 0xFC3 JUMPI DUP2 PUSH4 0xB99DFE18 EQ PUSH2 0xD9A JUMPI DUP2 PUSH4 0xC28399EF EQ PUSH2 0xD7D JUMPI DUP2 PUSH4 0xC45A0155 EQ PUSH2 0xD39 JUMPI DUP2 PUSH4 0xC4E71EAF EQ PUSH2 0xCC5 JUMPI DUP2 PUSH4 0xC6E5D8F6 EQ PUSH2 0x48E JUMPI DUP2 PUSH4 0xCD68AEAD EQ PUSH2 0x751 JUMPI DUP2 PUSH4 0xCE9DDCCC EQ PUSH2 0x719 JUMPI DUP2 PUSH4 0xD03153AA EQ PUSH2 0x6FC JUMPI DUP2 PUSH4 0xD547741F EQ PUSH2 0x6BC JUMPI DUP2 PUSH4 0xD7DA9E4F EQ PUSH2 0x69F JUMPI DUP2 PUSH4 0xDA7B109D EQ PUSH2 0x5FA JUMPI DUP2 PUSH4 0xDB006A75 EQ PUSH2 0x493 JUMPI DUP2 PUSH4 0xDEEF5378 EQ PUSH2 0x48E JUMPI DUP2 PUSH4 0xDF8AE236 EQ PUSH2 0x3D4 JUMPI DUP2 PUSH4 0xF0F44260 EQ PUSH2 0x2E3 JUMPI DUP2 PUSH4 0xF887EA40 EQ PUSH2 0x29F JUMPI DUP2 PUSH4 0xF987626B EQ PUSH2 0x262 JUMPI POP PUSH4 0xFCC18C23 EQ PUSH2 0x25D JUMPI PUSH1 0x0 DUP1 REVERT JUMPDEST PUSH2 0x31FC JUMP JUMPDEST CALLVALUE PUSH2 0x29C JUMPI DUP1 PUSH1 0x3 NOT CALLDATASIZE ADD SLT PUSH2 0x29C JUMPI PUSH1 0x20 PUSH1 0x40 MLOAD PUSH32 0x995C68A7874AB62E799137BC19B39D4CDD1C165240E636649FBA7EDFDA9D16C8 DUP2 MSTORE RETURN JUMPDEST DUP1 REVERT JUMPDEST CALLVALUE PUSH2 0x29C JUMPI DUP1 PUSH1 0x3 NOT CALLDATASIZE ADD SLT PUSH2 0x29C JUMPI PUSH1 0x40 MLOAD PUSH32 0x0 PUSH1 0x1 PUSH1 0x1 PUSH1 0xA0 SHL SUB AND DUP2 MSTORE PUSH1 0x20 SWAP1 RETURN JUMPDEST CALLVALUE PUSH2 0x29C JUMPI PUSH1 0x20 CALLDATASIZE PUSH1 0x3 NOT ADD SLT PUSH2 0x29C JUMPI PUSH2 0x2FC PUSH2 0x3065 JUMP JUMPDEST DUP2 DUP1 MSTORE DUP2 PUSH1 0x20 MSTORE PUSH1 0x40 DUP3 KECCAK256 CALLER PUSH1 0x0 MSTORE PUSH1 0x20 MSTORE PUSH2 0x31F PUSH1 0xFF PUSH1 0x40 PUSH1 0x0 KECCAK256 SLOAD AND PUSH2 0x33AD JUMP JUMPDEST PUSH1 0x1 PUSH1 0x1 PUSH1 0xA0 SHL SUB DUP2 DUP2 AND SWAP2 DUP3 ISZERO PUSH2 0x37E JUMPI PUSH1 0x2 DUP1 SLOAD PUSH2 0x100 PUSH1 0x1 PUSH1 0xA8 SHL SUB NOT DUP2 AND PUSH1 0x8 SWAP4 DUP5 SHL PUSH2 0x100 PUSH1 0x1 PUSH1 0xA8 SHL SUB AND OR SWAP1 SWAP2 SSTORE SWAP1 SHR AND PUSH32 0x4AB5BE82436D353E61CA18726E984E561F5C1CC7C6D38B29D2553C790434705A DUP4 DUP1 LOG3 DUP1 RETURN JUMPDEST PUSH1 0x40 MLOAD PUSH3 0x461BCD PUSH1 0xE5 SHL DUP2 MSTORE PUSH1 0x20 PUSH1 0x4 DUP3 ADD MSTORE PUSH1 0x28 PUSH1 0x24 DUP3 ADD MSTORE PUSH32 0x5061636B6167654D616E616765723A20496E76616C6964207472656173757279 PUSH1 0x44 DUP3 ADD MSTORE PUSH8 0x2061646472657373 PUSH1 0xC0 SHL PUSH1 0x64 DUP3 ADD MSTORE PUSH1 0x84 SWAP1 REVERT JUMPDEST CALLVALUE PUSH2 0x29C JUMPI PUSH1 0x20 DUP1 PUSH1 0x3 NOT CALLDATASIZE ADD SLT PUSH2 0x48A JUMPI PUSH32 0xF07234658490CC011F9F49FD5C1B020FFD25CA0E3DF67AC88818648C16A269CD PUSH1 0x4 CALLDATALOAD SWAP2 DUP4 DUP1 MSTORE DUP4 DUP2 MSTORE PUSH1 0x40 DUP5 KECCAK256 CALLER PUSH1 0x0 MSTORE DUP2 MSTORE PUSH2 0x42C PUSH1 0xFF PUSH1 0x40 PUSH1 0x0 KECCAK256 SLOAD AND PUSH2 0x33AD JUMP JUMPDEST DUP3 DUP5 MSTORE PUSH1 0x8 DUP2 MSTORE PUSH2 0x449 PUSH1 0xFF PUSH1 0x3 PUSH1 0x40 DUP8 KECCAK256 ADD SLOAD PUSH1 0xA8 SHR AND PUSH2 0x35C7 JUMP JUMPDEST DUP3 DUP5 MSTORE PUSH1 0x8 DUP2 MSTORE PUSH1 0x40 DUP5 KECCAK256 PUSH1 0x3 ADD DUP1 SLOAD PUSH1 0xFF PUSH1 0xA0 SHL NOT DUP2 AND PUSH1 0xA0 SWAP2 DUP3 SHR PUSH1 0xFF SWAP1 DUP2 AND ISZERO SWAP1 SWAP3 SHL PUSH1 0xFF PUSH1 0xA0 SHL AND OR DUP3 SSTORE SWAP1 SLOAD PUSH1 0xA0 SHR AND PUSH1 0x40 MLOAD SWAP1 ISZERO ISZERO DUP2 MSTORE LOG2 DUP1 RETURN JUMPDEST POP DUP1 REVERT JUMPDEST PUSH2 0x30D9 JUMP JUMPDEST CALLVALUE PUSH2 0x29C JUMPI PUSH1 0x20 CALLDATASIZE PUSH1 0x3 NOT ADD SLT PUSH2 0x29C JUMPI PUSH1 0x4 CALLDATALOAD PUSH2 0x4AF PUSH2 0x3853 JUMP JUMPDEST PUSH2 0x4B7 PUSH2 0x35A9 JUMP JUMPDEST PUSH2 0x4C2 DUP2 ISZERO ISZERO PUSH2 0x3876 JUMP JUMPDEST DUP2 PUSH1 0x1 PUSH1 0x1 PUSH1 0xA0 SHL SUB PUSH32 0x0 DUP2 AND DUP1 EXTCODESIZE ISZERO PUSH2 0x5F6 JUMPI PUSH1 0x40 MLOAD PUSH4 0x2770A7EB PUSH1 0xE2 SHL DUP2 MSTORE CALLER PUSH1 0x4 DUP3 ADD MSTORE PUSH1 0x24 DUP2 ADD DUP6 SWAP1 MSTORE SWAP1 DUP4 SWAP1 DUP3 SWAP1 PUSH1 0x44 SWAP1 DUP3 SWAP1 DUP5 SWAP1 GAS CALL SWAP1 DUP2 ISZERO PUSH2 0x5EB JUMPI DUP4 SWAP2 PUSH2 0x5D7 JUMPI JUMPDEST POP POP PUSH32 0x0 AND DUP1 EXTCODESIZE ISZERO PUSH2 0x48A JUMPI DUP2 DUP1 SWAP2 PUSH1 0x4 PUSH1 0x40 MLOAD DUP1 SWAP5 DUP2 SWAP4 PUSH4 0x4E71D92D PUSH1 0xE0 SHL DUP4 MSTORE GAS CALL DUP1 ISZERO PUSH2 0x5CC JUMPI PUSH2 0x5B8 JUMPI JUMPDEST POP POP PUSH2 0x585 DUP2 CALLER PUSH2 0x3E27 JUMP JUMPDEST PUSH1 0x40 MLOAD SWAP1 DUP2 MSTORE PUSH32 0x4896181FF8F4543CC00DB9FE9B6FB7E6F032B7EB772C72AB1EC1B4D2E03B9369 PUSH1 0x20 CALLER SWAP3 LOG2 PUSH1 0x1 DUP1 SSTORE DUP1 RETURN JUMPDEST PUSH2 0x5C1 SWAP1 PUSH2 0x34AA JUMP JUMPDEST PUSH2 0x48A JUMPI DUP2 DUP4 PUSH2 0x579 JUMP JUMPDEST PUSH1 0x40 MLOAD RETURNDATASIZE DUP5 DUP3 RETURNDATACOPY RETURNDATASIZE SWAP1 REVERT JUMPDEST PUSH2 0x5E0 SWAP1 PUSH2 0x34AA JUMP JUMPDEST PUSH2 0x48A JUMPI DUP2 DUP6 PUSH2 0x52B JUMP JUMPDEST PUSH1 0x40 MLOAD RETURNDATASIZE DUP6 DUP3 RETURNDATACOPY RETURNDATASIZE SWAP1 REVERT JUMPDEST DUP3 DUP1 REVERT JUMPDEST CALLVALUE PUSH2 0x29C JUMPI PUSH1 0x40 CALLDATASIZE PUSH1 0x3 NOT ADD SLT PUSH2 0x29C JUMPI PUSH1 0x4 CALLDATALOAD PUSH32 0xA1883CBB0491700BBB491DC908B557F640688276C8D7B9EC57F4BEA05F205014 PUSH1 0x40 PUSH1 0x24 CALLDATALOAD DUP5 DUP1 MSTORE DUP5 PUSH1 0x20 MSTORE DUP2 DUP6 KECCAK256 CALLER PUSH1 0x0 MSTORE PUSH1 0x20 MSTORE PUSH2 0x655 PUSH1 0xFF DUP4 PUSH1 0x0 KECCAK256 SLOAD AND PUSH2 0x33AD JUMP JUMPDEST DUP4 DUP6 MSTORE PUSH1 0x8 PUSH1 0x20 MSTORE PUSH2 0x672 PUSH1 0xFF PUSH1 0x3 DUP5 DUP9 KECCAK256 ADD SLOAD PUSH1 0xA8 SHR AND PUSH2 0x35C7 JUMP JUMPDEST PUSH2 0x67D DUP2 ISZERO ISZERO PUSH2 0x33F9 JUMP JUMPDEST DUP4 DUP6 MSTORE PUSH1 0x8 PUSH1 0x20 MSTORE PUSH1 0x2 DUP3 DUP7 KECCAK256 ADD SWAP1 DUP1 DUP3 SLOAD SWAP3 SSTORE DUP3 MLOAD SWAP2 DUP3 MSTORE PUSH1 0x20 DUP3 ADD MSTORE LOG2 DUP1 RETURN JUMPDEST CALLVALUE PUSH2 0x29C JUMPI DUP1 PUSH1 0x3 NOT CALLDATASIZE ADD SLT PUSH2 0x29C JUMPI PUSH1 0x20 PUSH1 0x6 SLOAD PUSH1 0x40 MLOAD SWAP1 DUP2 MSTORE RETURN JUMPDEST CALLVALUE PUSH2 0x29C JUMPI PUSH1 0x40 CALLDATASIZE PUSH1 0x3 NOT ADD SLT PUSH2 0x29C JUMPI PUSH2 0x6F8 PUSH1 0x4 CALLDATALOAD PUSH2 0x6DB PUSH2 0x304F JUMP JUMPDEST SWAP1 DUP1 DUP5 MSTORE DUP4 PUSH1 0x20 MSTORE PUSH2 0x6F3 PUSH1 0x1 PUSH1 0x40 DUP7 KECCAK256 ADD SLOAD PUSH2 0x3276 JUMP JUMPDEST PUSH2 0x3338 JUMP JUMPDEST POP DUP1 RETURN JUMPDEST CALLVALUE PUSH2 0x29C JUMPI DUP1 PUSH1 0x3 NOT CALLDATASIZE ADD SLT PUSH2 0x29C JUMPI PUSH1 0x20 PUSH1 0x5 SLOAD PUSH1 0x40 MLOAD SWAP1 DUP2 MSTORE RETURN JUMPDEST CALLVALUE PUSH2 0x29C JUMPI PUSH1 0x20 CALLDATASIZE PUSH1 0x3 NOT ADD SLT PUSH2 0x29C JUMPI PUSH1 0x20 SWAP1 PUSH1 0x40 SWAP1 PUSH1 0x1 PUSH1 0x1 PUSH1 0xA0 SHL SUB PUSH2 0x740 PUSH2 0x3065 JUMP JUMPDEST AND DUP2 MSTORE PUSH1 0xB DUP4 MSTORE KECCAK256 SLOAD PUSH1 0x40 MLOAD SWAP1 DUP2 MSTORE RETURN JUMPDEST CALLVALUE PUSH2 0x29C JUMPI PUSH1 0x80 CALLDATASIZE PUSH1 0x3 NOT ADD SLT PUSH2 0x29C JUMPI PUSH1 0x4 CALLDATALOAD PUSH1 0x64 CALLDATALOAD PUSH2 0x770 PUSH2 0x3853 JUMP JUMPDEST PUSH2 0x778 PUSH2 0x35A9 JUMP JUMPDEST PUSH2 0x783 DUP3 ISZERO ISZERO PUSH2 0x3876 JUMP JUMPDEST TIMESTAMP DUP2 LT PUSH2 0xC81 JUMPI PUSH1 0x40 MLOAD PUSH4 0xE6A43905 PUSH1 0xE0 SHL DUP2 MSTORE PUSH1 0x1 PUSH1 0x1 PUSH1 0xA0 SHL SUB PUSH32 0x0 DUP2 AND PUSH1 0x4 DUP4 ADD DUP2 SWAP1 MSTORE PUSH32 0x0 DUP3 AND PUSH1 0x24 DUP5 ADD DUP2 SWAP1 MSTORE PUSH1 0x20 SWAP4 SWAP1 SWAP3 SWAP2 SWAP1 DUP5 DUP2 PUSH1 0x44 DUP2 PUSH32 0x0 DUP8 AND GAS STATICCALL DUP1 ISZERO PUSH2 0xC76 JUMPI DUP4 SWAP2 DUP10 SWAP2 PUSH2 0xC3A JUMPI JUMPDEST POP AND SWAP3 DUP4 ISZERO PUSH2 0xBE5 JUMPI PUSH1 0x40 MLOAD PUSH4 0x70A08231 PUSH1 0xE0 SHL DUP2 MSTORE ADDRESS PUSH1 0x4 DUP3 ADD MSTORE DUP6 DUP2 PUSH1 0x24 DUP2 DUP9 GAS STATICCALL DUP1 ISZERO PUSH2 0xBDA JUMPI DUP10 SWAP1 PUSH2 0xBAB JUMPI JUMPDEST PUSH2 0x86F SWAP2 POP DUP9 PUSH2 0x374A JUMP JUMPDEST PUSH1 0x40 MLOAD PUSH4 0x18160DDD PUSH1 0xE0 SHL DUP2 MSTORE PUSH32 0x0 DUP6 AND SWAP6 SWAP2 DUP8 DUP3 PUSH1 0x4 DUP2 DUP11 GAS STATICCALL SWAP1 DUP2 ISZERO PUSH2 0xBA0 JUMPI DUP12 SWAP2 PUSH2 0xB6A JUMPI JUMPDEST PUSH2 0x8C1 SWAP3 POP PUSH2 0x375D JUMP JUMPDEST SWAP5 DUP6 ISZERO PUSH2 0xB16 JUMPI SWAP1 DUP2 DUP11 SWAP6 SWAP5 SWAP4 SWAP3 EXTCODESIZE ISZERO PUSH2 0xB12 JUMPI PUSH1 0x40 MLOAD PUSH4 0x2770A7EB PUSH1 0xE2 SHL DUP2 MSTORE CALLER PUSH1 0x4 DUP3 ADD MSTORE PUSH1 0x24 DUP2 ADD DUP12 SWAP1 MSTORE SWAP1 DUP7 SWAP1 DUP3 SWAP1 PUSH1 0x44 SWAP1 DUP3 SWAP1 DUP5 SWAP1 GAS CALL SWAP1 DUP2 ISZERO PUSH2 0xAF3 JUMPI DUP7 SWAP2 PUSH2 0xAFE JUMPI JUMPDEST POP POP PUSH1 0x40 MLOAD PUSH4 0x95EA7B3 PUSH1 0xE0 SHL DUP2 MSTORE PUSH32 0x0 DUP6 AND PUSH1 0x1 PUSH1 0x1 PUSH1 0xA0 SHL SUB DUP2 AND PUSH1 0x4 DUP4 ADD MSTORE PUSH1 0x24 DUP3 ADD DUP9 SWAP1 MSTORE SWAP4 SWAP1 SWAP2 DUP9 SWAP1 DUP4 SWAP1 PUSH1 0x44 SWAP1 DUP3 SWAP1 DUP11 SWAP1 GAS CALL DUP1 ISZERO PUSH2 0xAF3 JUMPI PUSH1 0x40 SWAP5 PUSH1 0xE4 SWAP4 DUP9 SWAP3 PUSH2 0xAC6 JUMPI JUMPDEST POP DUP6 MLOAD SWAP11 DUP12 SWAP6 DUP7 SWAP5 PUSH4 0x5D5155EF PUSH1 0xE1 SHL DUP7 MSTORE PUSH1 0x4 DUP7 ADD MSTORE PUSH1 0x24 DUP6 ADD MSTORE DUP10 PUSH1 0x44 DUP6 ADD MSTORE PUSH1 0x24 CALLDATALOAD PUSH1 0x64 DUP6 ADD MSTORE PUSH1 0x44 CALLDATALOAD PUSH1 0x84 DUP6 ADD MSTORE CALLER PUSH1 0xA4 DUP6 ADD MSTORE PUSH1 0xC4 DUP5 ADD MSTORE GAS CALL SWAP5 DUP6 ISZERO PUSH2 0x5CC JUMPI DUP3 SWAP5 DUP4 SWAP7 PUSH2 0xA8B JUMPI JUMPDEST POP POP PUSH32 0x0 AND DUP1 EXTCODESIZE ISZERO PUSH2 0x48A JUMPI DUP2 DUP1 SWAP2 PUSH1 0x4 PUSH1 0x40 MLOAD DUP1 SWAP5 DUP2 SWAP4 PUSH4 0x4E71D92D PUSH1 0xE0 SHL DUP4 MSTORE GAS CALL DUP1 ISZERO PUSH2 0x5CC JUMPI PUSH2 0xA73 JUMPI JUMPDEST POP POP PUSH2 0xA69 PUSH32 0x3934FC962EF79EA87F2B6D34FDFDB727537E44F786C7810133C7E23F19A14814 SWAP4 PUSH2 0xA44 DUP7 CALLER PUSH2 0x3E27 JUMP JUMPDEST PUSH1 0x40 MLOAD SWAP4 DUP5 SWAP4 CALLER SWAP8 DUP6 SWAP1 SWAP5 SWAP4 SWAP3 PUSH1 0x60 SWAP3 PUSH1 0x80 DUP4 ADD SWAP7 DUP4 MSTORE PUSH1 0x20 DUP4 ADD MSTORE PUSH1 0x40 DUP3 ADD MSTORE ADD MSTORE JUMP JUMPDEST SUB SWAP1 LOG2 PUSH1 0x1 DUP1 SSTORE DUP1 RETURN JUMPDEST PUSH2 0xA7C SWAP1 PUSH2 0x34AA JUMP JUMPDEST PUSH2 0xA87 JUMPI DUP5 DUP7 PUSH2 0xA13 JUMP JUMPDEST DUP5 DUP1 REVERT JUMPDEST SWAP2 SWAP6 POP SWAP4 POP PUSH1 0x40 DUP5 RETURNDATASIZE PUSH1 0x40 GT PUSH2 0xABE JUMPI JUMPDEST DUP2 PUSH2 0xAA9 PUSH1 0x40 SWAP4 DUP4 PUSH2 0x34BD JUMP JUMPDEST DUP2 ADD SUB SLT PUSH2 0x48A JUMPI DUP4 MLOAD SWAP4 ADD MLOAD SWAP4 DUP8 DUP1 PUSH2 0x9C5 JUMP JUMPDEST RETURNDATASIZE SWAP2 POP PUSH2 0xA9C JUMP JUMPDEST PUSH2 0xAE5 SWAP1 DUP12 RETURNDATASIZE DUP14 GT PUSH2 0xAEC JUMPI JUMPDEST PUSH2 0xADD DUP2 DUP4 PUSH2 0x34BD JUMP JUMPDEST DUP2 ADD SWAP1 PUSH2 0x378A JUMP JUMPDEST POP DUP14 PUSH2 0x976 JUMP JUMPDEST POP RETURNDATASIZE PUSH2 0xAD3 JUMP JUMPDEST PUSH1 0x40 MLOAD RETURNDATASIZE DUP9 DUP3 RETURNDATACOPY RETURNDATASIZE SWAP1 REVERT JUMPDEST PUSH2 0xB07 SWAP1 PUSH2 0x34AA JUMP JUMPDEST PUSH2 0xA87 JUMPI DUP5 DUP12 PUSH2 0x90B JUMP JUMPDEST DUP6 DUP1 REVERT JUMPDEST PUSH1 0x40 MLOAD PUSH3 0x461BCD PUSH1 0xE5 SHL DUP2 MSTORE PUSH1 0x4 DUP2 ADD DUP9 SWAP1 MSTORE PUSH1 0x26 PUSH1 0x24 DUP3 ADD MSTORE PUSH32 0x5061636B6167654D616E616765723A204E6F206C697175696469747920746F20 PUSH1 0x44 DUP3 ADD MSTORE PUSH6 0x72656D6F7665 PUSH1 0xD0 SHL PUSH1 0x64 DUP3 ADD MSTORE PUSH1 0x84 SWAP1 REVERT JUMPDEST SWAP1 POP DUP8 DUP3 DUP2 RETURNDATASIZE DUP4 GT PUSH2 0xB99 JUMPI JUMPDEST PUSH2 0xB81 DUP2 DUP4 PUSH2 0x34BD JUMP JUMPDEST DUP2 ADD SUB SLT PUSH2 0xB94 JUMPI PUSH2 0x8C1 SWAP2 MLOAD SWAP1 PUSH2 0x8B7 JUMP JUMPDEST PUSH1 0x0 DUP1 REVERT JUMPDEST POP RETURNDATASIZE PUSH2 0xB77 JUMP JUMPDEST PUSH1 0x40 MLOAD RETURNDATASIZE DUP14 DUP3 RETURNDATACOPY RETURNDATASIZE SWAP1 REVERT JUMPDEST POP DUP6 DUP2 DUP2 RETURNDATASIZE DUP4 GT PUSH2 0xBD3 JUMPI JUMPDEST PUSH2 0xBC1 DUP2 DUP4 PUSH2 0x34BD JUMP JUMPDEST DUP2 ADD SUB SLT PUSH2 0xB94 JUMPI PUSH2 0x86F SWAP1 MLOAD PUSH2 0x864 JUMP JUMPDEST POP RETURNDATASIZE PUSH2 0xBB7 JUMP JUMPDEST PUSH1 0x40 MLOAD RETURNDATASIZE DUP12 DUP3 RETURNDATACOPY RETURNDATASIZE SWAP1 REVERT JUMPDEST PUSH1 0x40 MLOAD PUSH3 0x461BCD PUSH1 0xE5 SHL DUP2 MSTORE PUSH1 0x4 DUP2 ADD DUP7 SWAP1 MSTORE PUSH1 0x27 PUSH1 0x24 DUP3 ADD MSTORE PUSH32 0x5061636B6167654D616E616765723A204E6F206C697175696469747920706169 PUSH1 0x44 DUP3 ADD MSTORE PUSH7 0x1C88199BDD5B99 PUSH1 0xCA SHL PUSH1 0x64 DUP3 ADD MSTORE PUSH1 0x84 SWAP1 REVERT JUMPDEST DUP1 SWAP3 POP DUP7 DUP1 SWAP3 POP RETURNDATASIZE DUP4 GT PUSH2 0xC6F JUMPI JUMPDEST PUSH2 0xC53 DUP2 DUP4 PUSH2 0x34BD JUMP JUMPDEST DUP2 ADD SUB SLT PUSH2 0xC6B JUMPI PUSH2 0xC65 DUP4 SWAP2 PUSH2 0x38CC JUMP JUMPDEST DUP10 PUSH2 0x833 JUMP JUMPDEST DUP8 DUP1 REVERT JUMPDEST POP RETURNDATASIZE PUSH2 0xC49 JUMP JUMPDEST PUSH1 0x40 MLOAD RETURNDATASIZE DUP11 DUP3 RETURNDATACOPY RETURNDATASIZE SWAP1 REVERT JUMPDEST PUSH1 0x64 PUSH1 0x40 MLOAD PUSH3 0x461BCD PUSH1 0xE5 SHL DUP2 MSTORE PUSH1 0x20 PUSH1 0x4 DUP3 ADD MSTORE PUSH1 0x20 PUSH1 0x24 DUP3 ADD MSTORE PUSH32 0x5061636B6167654D616E616765723A20446561646C696E652065787069726564 PUSH1 0x44 DUP3 ADD MSTORE REVERT JUMPDEST CALLVALUE PUSH2 0x29C JUMPI PUSH1 0x20 CALLDATASIZE PUSH1 0x3 NOT ADD SLT PUSH2 0x29C JUMPI PUSH2 0xD27 SWAP1 PUSH1 0x1 PUSH1 0x1 PUSH1 0xA0 SHL SUB PUSH2 0xCEA PUSH2 0x3065 JUMP JUMPDEST AND DUP2 MSTORE PUSH1 0xB PUSH1 0x20 MSTORE PUSH2 0xD35 PUSH2 0xD13 PUSH2 0xD0D PUSH1 0x40 DUP1 DUP6 KECCAK256 SWAP5 PUSH1 0xC PUSH1 0x20 MSTORE KECCAK256 SWAP4 PUSH2 0x3613 JUMP JUMPDEST SWAP3 PUSH2 0x3613 JUMP JUMPDEST PUSH1 0x40 MLOAD SWAP4 DUP5 SWAP4 PUSH1 0x40 DUP6 MSTORE PUSH1 0x40 DUP6 ADD SWAP1 PUSH2 0x31AC JUMP JUMPDEST SWAP1 DUP4 DUP3 SUB PUSH1 0x20 DUP6 ADD MSTORE PUSH2 0x31AC JUMP JUMPDEST SUB SWAP1 RETURN JUMPDEST CALLVALUE PUSH2 0x29C JUMPI DUP1 PUSH1 0x3 NOT CALLDATASIZE ADD SLT PUSH2 0x29C JUMPI PUSH1 0x40 MLOAD PUSH32 0x0 PUSH1 0x1 PUSH1 0x1 PUSH1 0xA0 SHL SUB AND DUP2 MSTORE PUSH1 0x20 SWAP1 RETURN JUMPDEST CALLVALUE PUSH2 0x29C JUMPI DUP1 PUSH1 0x3 NOT CALLDATASIZE ADD SLT PUSH2 0x29C JUMPI PUSH1 0x20 PUSH1 0x3 SLOAD PUSH1 0x40 MLOAD SWAP1 DUP2 MSTORE RETURN JUMPDEST CALLVALUE PUSH2 0x29C JUMPI PUSH1 0x20 CALLDATASIZE PUSH1 0x3 NOT ADD SLT PUSH2 0x29C JUMPI PUSH1 0x4 CALLDATALOAD DUP2 PUSH2 0x100 PUSH1 0x40 MLOAD PUSH2 0xDBE DUP2 PUSH2 0x3478 JUMP JUMPDEST PUSH1 0x60 DUP2 MSTORE DUP3 PUSH1 0x20 DUP3 ADD MSTORE DUP3 PUSH1 0x40 DUP3 ADD MSTORE DUP3 PUSH1 0x60 DUP3 ADD MSTORE DUP3 PUSH1 0x80 DUP3 ADD MSTORE DUP3 PUSH1 0xA0 DUP3 ADD MSTORE DUP3 PUSH1 0xC0 DUP3 ADD MSTORE DUP3 PUSH1 0xE0 DUP3 ADD MSTORE ADD MSTORE DUP1 DUP3 MSTORE PUSH1 0x8 PUSH1 0x20 MSTORE PUSH2 0xE0C PUSH1 0xFF PUSH1 0x3 PUSH1 0x40 DUP6 KECCAK256 ADD SLOAD PUSH1 0xA8 SHR AND PUSH2 0x35C7 JUMP JUMPDEST DUP2 MSTORE PUSH1 0x8 PUSH1 0x20 MSTORE PUSH1 0x40 DUP2 KECCAK256 PUSH1 0x40 MLOAD SWAP2 PUSH2 0xE24 DUP4 PUSH2 0x3478 JUMP JUMPDEST PUSH1 0x40 MLOAD DUP2 DUP4 SLOAD SWAP3 PUSH2 0xE34 DUP5 PUSH2 0x34F9 JUMP JUMPDEST SWAP1 DUP2 DUP5 MSTORE PUSH1 0x1 SWAP5 DUP6 DUP2 AND SWAP1 DUP2 PUSH1 0x0 EQ PUSH2 0xF9C JUMPI POP PUSH1 0x1 EQ PUSH2 0xF62 JUMPI JUMPDEST DUP7 PUSH1 0xFF PUSH1 0x3 DUP9 DUP9 DUP9 PUSH2 0xE64 DUP2 DUP11 SUB DUP3 PUSH2 0x34BD JUMP JUMPDEST DUP6 MSTORE DUP2 ADD SLOAD PUSH1 0x20 DUP6 ADD MSTORE PUSH1 0x2 DUP2 ADD SLOAD PUSH1 0x40 DUP6 ADD MSTORE ADD SLOAD PUSH2 0xFFFF DUP2 AND PUSH1 0x60 DUP5 ADD MSTORE PUSH1 0x1 PUSH1 0x1 PUSH1 0x40 SHL SUB DUP2 PUSH1 0x10 SHR AND PUSH1 0x80 DUP5 ADD MSTORE PUSH1 0x1 PUSH1 0x1 PUSH1 0x40 SHL SUB DUP2 PUSH1 0x50 SHR AND PUSH1 0xA0 DUP5 ADD MSTORE PUSH2 0xFFFF DUP2 PUSH1 0x90 SHR AND PUSH1 0xC0 DUP5 ADD MSTORE DUP2 DUP2 PUSH1 0xA0 SHR AND ISZERO ISZERO PUSH1 0xE0 DUP5 ADD MSTORE PUSH1 0xA8 SHR AND ISZERO ISZERO PUSH2 0x100 DUP3 ADD MSTORE PUSH1 0x40 MLOAD DUP1 SWAP2 PUSH1 0x20 DUP3 MSTORE PUSH2 0x100 PUSH2 0xEF2 DUP3 MLOAD PUSH2 0x120 PUSH1 0x20 DUP7 ADD MSTORE PUSH2 0x140 DUP6 ADD SWAP1 PUSH2 0x3236 JUMP JUMPDEST SWAP2 PUSH1 0x20 DUP2 ADD MLOAD PUSH1 0x40 DUP6 ADD MSTORE PUSH1 0x40 DUP2 ADD MLOAD PUSH1 0x60 DUP6 ADD MSTORE PUSH2 0xFFFF PUSH1 0x60 DUP3 ADD MLOAD AND PUSH1 0x80 DUP6 ADD MSTORE PUSH1 0x1 PUSH1 0x1 PUSH1 0x40 SHL SUB PUSH1 0x80 DUP3 ADD MLOAD AND PUSH1 0xA0 DUP6 ADD MSTORE PUSH1 0x1 PUSH1 0x1 PUSH1 0x40 SHL SUB PUSH1 0xA0 DUP3 ADD MLOAD AND PUSH1 0xC0 DUP6 ADD MSTORE PUSH2 0xFFFF PUSH1 0xC0 DUP3 ADD MLOAD AND PUSH1 0xE0 DUP6 ADD MSTORE PUSH1 0xE0 DUP2 ADD MLOAD ISZERO ISZERO DUP3 DUP6 ADD MSTORE ADD MLOAD ISZERO ISZERO PUSH2 0x120 DUP4 ADD MSTORE SUB SWAP1 RETURN JUMPDEST SWAP2 POP DUP5 DUP3 MSTORE PUSH1 0x20 DUP3 KECCAK256 JUMPDEST DUP2 DUP4 LT PUSH2 0xF83 JUMPI POP POP DUP2 ADD PUSH1 0x20 ADD DUP2 PUSH2 0xE64 PUSH2 0xE50 JUMP JUMPDEST DUP5 DUP2 PUSH1 0x20 SWAP3 SWAP5 SWAP4 SWAP5 SLOAD DUP4 DUP6 DUP9 ADD ADD MSTORE ADD SWAP2 ADD SWAP2 SWAP1 PUSH2 0xF6C JUMP JUMPDEST PUSH1 0xFF NOT AND PUSH1 0x20 DUP1 DUP8 ADD SWAP2 SWAP1 SWAP2 MSTORE SWAP3 ISZERO ISZERO PUSH1 0x5 SHL DUP6 ADD SWAP1 SWAP3 ADD SWAP3 POP DUP4 SWAP2 POP PUSH2 0xE64 SWAP1 POP PUSH2 0xE50 JUMP JUMPDEST CALLVALUE PUSH2 0x29C JUMPI PUSH1 0x40 CALLDATASIZE PUSH1 0x3 NOT ADD SLT PUSH2 0x29C JUMPI PUSH2 0xFDC PUSH2 0x304F JUMP JUMPDEST PUSH2 0xFE4 PUSH2 0x3853 JUMP JUMPDEST PUSH2 0xFEC PUSH2 0x35A9 JUMP JUMPDEST PUSH1 0x4 CALLDATALOAD DUP3 MSTORE PUSH1 0x8 PUSH1 0x20 MSTORE PUSH2 0x100C PUSH1 0xFF PUSH1 0x3 PUSH1 0x40 DUP6 KECCAK256 ADD SLOAD PUSH1 0xA8 SHR AND PUSH2 0x35C7 JUMP JUMPDEST PUSH1 0x4 CALLDATALOAD DUP3 MSTORE PUSH1 0x8 PUSH1 0x20 MSTORE PUSH1 0x40 DUP3 KECCAK256 SWAP1 PUSH1 0x40 MLOAD SWAP2 PUSH2 0x1028 DUP4 PUSH2 0x3478 JUMP JUMPDEST PUSH1 0x40 MLOAD DUP5 DUP3 SLOAD PUSH2 0x1037 DUP2 PUSH2 0x34F9 JUMP JUMPDEST DUP1 DUP5 MSTORE SWAP1 PUSH1 0x1 DUP2 AND SWAP1 DUP2 ISZERO PUSH2 0x1C8D JUMPI POP PUSH1 0x1 EQ PUSH2 0x1C4A JUMPI JUMPDEST POP SWAP1 PUSH2 0x1060 DUP2 PUSH1 0x3 SWAP5 SWAP4 SUB DUP3 PUSH2 0x34BD JUMP JUMPDEST DUP5 MSTORE PUSH1 0x1 DUP2 ADD SLOAD PUSH1 0x20 DUP6 ADD MSTORE PUSH1 0x2 DUP2 ADD SLOAD PUSH1 0x40 DUP6 ADD MSTORE ADD SLOAD PUSH2 0xFFFF DUP2 AND PUSH1 0x60 DUP5 ADD MSTORE PUSH1 0x1 PUSH1 0x1 PUSH1 0x40 SHL SUB DUP2 PUSH1 0x10 SHR AND PUSH1 0x80 DUP5 ADD MSTORE PUSH1 0x1 PUSH1 0x1 PUSH1 0x40 SHL SUB DUP2 PUSH1 0x50 SHR AND PUSH1 0xA0 DUP5 ADD MSTORE PUSH2 0xFFFF DUP2 PUSH1 0x90 SHR AND PUSH1 0xC0 DUP5 ADD MSTORE PUSH1 0xFF DUP1 DUP3 PUSH1 0xA0 SHR AND ISZERO SWAP2 DUP3 ISZERO PUSH1 0xE0 DUP7 ADD MSTORE PUSH1 0xA8 SHR AND ISZERO ISZERO PUSH2 0x100 DUP5 ADD MSTORE PUSH2 0x1BFA JUMPI PUSH1 0x1 PUSH1 0x1 PUSH1 0xA0 SHL SUB DUP2 AND CALLER EQ PUSH2 0x1BA7 JUMPI PUSH1 0x20 DUP3 ADD MLOAD PUSH1 0x40 MLOAD SWAP1 PUSH4 0x23B872DD PUSH1 0xE0 SHL PUSH1 0x20 DUP4 ADD MSTORE CALLER PUSH1 0x24 DUP4 ADD MSTORE ADDRESS PUSH1 0x44 DUP4 ADD MSTORE PUSH1 0x64 DUP3 ADD MSTORE PUSH1 0x64 DUP2 MSTORE DUP1 PUSH1 0xA0 DUP2 ADD LT PUSH1 0x1 PUSH1 0x1 PUSH1 0x40 SHL SUB PUSH1 0xA0 DUP4 ADD GT OR PUSH2 0x1B93 JUMPI PUSH1 0xA0 DUP2 ADD PUSH1 0x40 MSTORE PUSH2 0x1161 SWAP1 PUSH32 0x0 PUSH1 0x1 PUSH1 0x1 PUSH1 0xA0 SHL SUB AND PUSH2 0x37EB JUMP JUMPDEST PUSH2 0x116E PUSH1 0x20 DUP4 ADD MLOAD PUSH2 0x3CBF JUMP JUMPDEST PUSH1 0x40 MLOAD PUSH4 0x313CE567 PUSH1 0xE0 SHL DUP2 MSTORE SWAP1 SWAP3 SWAP1 PUSH1 0x20 DUP2 PUSH1 0x4 DUP2 PUSH32 0x0 PUSH1 0x1 PUSH1 0x1 PUSH1 0xA0 SHL SUB AND GAS STATICCALL SWAP1 DUP2 ISZERO PUSH2 0x1B88 JUMPI DUP6 SWAP2 PUSH2 0x1B4B JUMPI JUMPDEST POP PUSH1 0xFF PUSH1 0x12 SWAP2 AND SUB PUSH2 0x1AE0 JUMPI PUSH8 0xDE0B6B3A7640000 DUP4 MUL DUP4 DUP2 DIV PUSH8 0xDE0B6B3A7640000 EQ DUP5 ISZERO OR ISZERO PUSH2 0x1ACC JUMPI PUSH1 0x40 DUP3 ADD MLOAD PUSH2 0x11F8 SWAP2 PUSH2 0x375D JUMP JUMPDEST PUSH2 0xFFFF PUSH1 0x60 DUP4 ADD MLOAD AND PUSH2 0xFFFF DUP2 PUSH2 0x2710 SUB GT PUSH2 0x1AB8 JUMPI PUSH2 0x2710 PUSH2 0x1224 PUSH2 0xFFFF PUSH2 0x122C SWAP4 DUP4 SUB AND DUP8 PUSH2 0x374A JUMP JUMPDEST DIV DUP1 SWAP6 PUSH2 0x377D JUMP JUMPDEST PUSH2 0x2710 PUSH2 0x1241 PUSH2 0xFFFF PUSH1 0x60 DUP7 ADD MLOAD AND DUP5 PUSH2 0x374A JUMP JUMPDEST DIV SWAP5 PUSH2 0x124D DUP7 DUP5 PUSH2 0x377D JUMP JUMPDEST SWAP2 DUP4 PUSH2 0x1F4 DUP2 MUL DIV PUSH2 0x1F4 EQ DUP5 ISZERO OR ISZERO PUSH2 0x1AA4 JUMPI DUP7 PUSH2 0x193B JUMPI JUMPDEST PUSH2 0x2710 PUSH2 0x1F4 DUP6 MUL DIV PUSH2 0x1840 JUMPI JUMPDEST DUP1 PUSH2 0x17FC JUMPI JUMPDEST POP DUP1 ISZERO DUP1 ISZERO DUP1 PUSH2 0x17F1 JUMPI JUMPDEST PUSH2 0x1647 JUMPI JUMPDEST POP POP DUP2 PUSH2 0x15C7 JUMPI JUMPDEST DUP6 SWAP3 PUSH1 0x1 PUSH1 0x1 PUSH1 0xA0 SHL SUB DUP6 AND ISZERO ISZERO DUP1 PUSH2 0x15B6 JUMPI JUMPDEST PUSH2 0x14B0 JUMPI JUMPDEST PUSH1 0x20 DUP2 ADD MLOAD CALLER DUP9 MSTORE PUSH1 0x9 PUSH1 0x20 MSTORE PUSH1 0x40 DUP9 KECCAK256 PUSH2 0x12C8 DUP3 DUP3 SLOAD PUSH2 0x37A2 JUMP JUMPDEST DUP2 SSTORE PUSH1 0x1 DUP2 ADD PUSH2 0x12D9 DUP7 DUP3 SLOAD PUSH2 0x37A2 JUMP JUMPDEST SWAP1 SSTORE PUSH1 0x2 DUP2 ADD PUSH2 0x12EA DUP10 DUP3 SLOAD PUSH2 0x37A2 JUMP JUMPDEST SWAP1 SSTORE PUSH1 0x3 DUP2 ADD PUSH2 0x12FB DUP6 DUP3 SLOAD PUSH2 0x37A2 JUMP JUMPDEST SWAP1 SSTORE PUSH1 0x4 DUP2 ADD PUSH2 0x130C DUP7 DUP3 SLOAD PUSH2 0x37A2 JUMP JUMPDEST SWAP1 SSTORE PUSH1 0x6 DUP2 ADD SLOAD PUSH1 0x1 DUP2 ADD DUP2 GT PUSH2 0x149C JUMPI PUSH1 0x1 PUSH1 0x6 SWAP2 ADD SWAP2 ADD SSTORE CALLER DUP9 MSTORE PUSH1 0xA PUSH1 0x20 MSTORE PUSH1 0x40 DUP9 KECCAK256 PUSH1 0x40 MLOAD SWAP2 PUSH2 0x133F DUP4 PUSH2 0x3478 JUMP JUMPDEST PUSH1 0x4 CALLDATALOAD DUP4 MSTORE PUSH1 0x20 DUP4 ADD MSTORE DUP5 PUSH1 0x40 DUP4 ADD MSTORE DUP8 PUSH1 0x60 DUP4 ADD MSTORE DUP4 PUSH1 0x80 DUP4 ADD MSTORE DUP5 PUSH1 0xA0 DUP4 ADD MSTORE PUSH1 0x1 DUP1 PUSH1 0xA0 SHL SUB DUP8 AND PUSH1 0xC0 DUP4 ADD MSTORE DUP6 PUSH1 0xE0 DUP4 ADD MSTORE TIMESTAMP PUSH2 0x100 DUP4 ADD MSTORE DUP1 SLOAD SWAP1 PUSH1 0x1 PUSH1 0x40 SHL DUP3 LT ISZERO PUSH2 0x1488 JUMPI SWAP1 PUSH2 0x139B SWAP2 PUSH1 0x1 DUP3 ADD DUP2 SSTORE PUSH2 0x372E JUMP JUMPDEST SWAP2 SWAP1 SWAP2 PUSH2 0x1474 JUMPI SWAP1 PUSH1 0x8 PUSH2 0x100 DUP4 PUSH1 0x20 SWAP6 SWAP5 MLOAD DUP5 SSTORE DUP6 DUP2 ADD MLOAD PUSH1 0x1 DUP6 ADD SSTORE PUSH1 0x40 DUP2 ADD MLOAD PUSH1 0x2 DUP6 ADD SSTORE PUSH1 0x60 DUP2 ADD MLOAD PUSH1 0x3 DUP6 ADD SSTORE PUSH1 0x80 DUP2 ADD MLOAD PUSH1 0x4 DUP6 ADD SSTORE PUSH1 0xA0 DUP2 ADD MLOAD PUSH1 0x5 DUP6 ADD SSTORE PUSH1 0x6 DUP5 ADD PUSH1 0x1 DUP1 PUSH1 0xA0 SHL SUB PUSH1 0xC0 DUP4 ADD MLOAD AND PUSH12 0xFFFFFFFFFFFFFFFFFFFFFFFF PUSH1 0xA0 SHL DUP3 SLOAD AND OR SWAP1 SSTORE PUSH1 0xE0 DUP2 ADD MLOAD PUSH1 0x7 DUP6 ADD SSTORE ADD MLOAD SWAP2 ADD SSTORE ADD MLOAD SWAP5 PUSH1 0x40 MLOAD SWAP6 DUP7 MSTORE DUP3 PUSH1 0x20 DUP8 ADD MSTORE PUSH1 0x40 DUP7 ADD MSTORE PUSH1 0x60 DUP6 ADD MSTORE PUSH1 0x80 DUP5 ADD MSTORE PUSH1 0xA0 DUP4 ADD MSTORE PUSH1 0x1 DUP1 PUSH1 0xA0 SHL SUB AND SWAP1 PUSH1 0x4 CALLDATALOAD SWAP1 PUSH32 0x5A77E79107887EBCF23F054EF45C1E6EF75A6215CF598323E188D01A6E5DA7B3 PUSH1 0xC0 CALLER SWAP3 LOG4 PUSH1 0x1 DUP1 SSTORE DUP1 RETURN JUMPDEST PUSH4 0x4E487B71 PUSH1 0xE0 SHL DUP10 MSTORE PUSH1 0x4 DUP10 SWAP1 MSTORE PUSH1 0x24 DUP10 REVERT JUMPDEST PUSH4 0x4E487B71 PUSH1 0xE0 SHL DUP11 MSTORE PUSH1 0x41 PUSH1 0x4 MSTORE PUSH1 0x24 DUP11 REVERT JUMPDEST PUSH4 0x4E487B71 PUSH1 0xE0 SHL DUP11 MSTORE PUSH1 0x11 PUSH1 0x4 MSTORE PUSH1 0x24 DUP11 REVERT JUMPDEST SWAP3 POP PUSH2 0x2710 PUSH2 0x14C7 PUSH2 0xFFFF PUSH1 0xC0 DUP7 ADD MLOAD AND DUP5 PUSH2 0x374A JUMP JUMPDEST DIV SWAP3 DUP7 PUSH32 0x0 PUSH1 0x1 PUSH1 0x1 PUSH1 0xA0 SHL SUB AND DUP1 EXTCODESIZE ISZERO PUSH2 0x48A JUMPI PUSH1 0x40 MLOAD PUSH4 0x40C10F19 PUSH1 0xE0 SHL DUP2 MSTORE PUSH1 0x1 PUSH1 0x1 PUSH1 0xA0 SHL SUB DUP9 AND PUSH1 0x4 DUP3 ADD MSTORE PUSH1 0x24 DUP2 ADD DUP8 SWAP1 MSTORE SWAP1 DUP3 SWAP1 DUP3 SWAP1 PUSH1 0x44 SWAP1 DUP3 SWAP1 DUP5 SWAP1 GAS CALL DUP1 ISZERO PUSH2 0x5CC JUMPI PUSH2 0x159E JUMPI JUMPDEST POP POP PUSH1 0x1 PUSH1 0x1 PUSH1 0xA0 SHL SUB DUP6 AND DUP8 MSTORE PUSH1 0x9 PUSH1 0x20 MSTORE PUSH1 0x40 DUP8 KECCAK256 PUSH1 0x5 ADD DUP1 SLOAD PUSH2 0x155E SWAP1 DUP7 SWAP1 PUSH2 0x37A2 JUMP JUMPDEST SWAP1 SSTORE PUSH1 0x40 MLOAD DUP5 DUP2 MSTORE CALLER SWAP1 PUSH1 0x1 PUSH1 0x1 PUSH1 0xA0 SHL SUB DUP8 AND SWAP1 PUSH32 0xA721AB4682CEB61C7E4D264EF879FC419A6D764B136E7D96EF54B2053C75673 SWAP1 PUSH1 0x20 SWAP1 LOG3 PUSH2 0x12AC JUMP JUMPDEST PUSH2 0x15A7 SWAP1 PUSH2 0x34AA JUMP JUMPDEST PUSH2 0x15B2 JUMPI DUP7 DUP9 PUSH2 0x1537 JUMP JUMPDEST DUP7 DUP1 REVERT JUMPDEST POP PUSH2 0xFFFF PUSH1 0xC0 DUP3 ADD MLOAD AND ISZERO ISZERO PUSH2 0x12A7 JUMP JUMPDEST DUP6 PUSH32 0x0 PUSH1 0x1 PUSH1 0x1 PUSH1 0xA0 SHL SUB AND DUP1 EXTCODESIZE ISZERO PUSH2 0x48A JUMPI PUSH1 0x40 MLOAD PUSH4 0x40C10F19 PUSH1 0xE0 SHL DUP2 MSTORE CALLER PUSH1 0x4 DUP3 ADD MSTORE PUSH1 0x24 DUP2 ADD DUP6 SWAP1 MSTORE SWAP1 DUP3 SWAP1 DUP3 SWAP1 PUSH1 0x44 SWAP1 DUP3 SWAP1 DUP5 SWAP1 GAS CALL DUP1 ISZERO PUSH2 0x5CC JUMPI PUSH2 0x1633 JUMPI JUMPDEST POP POP PUSH2 0x1293 JUMP JUMPDEST PUSH2 0x163C SWAP1 PUSH2 0x34AA JUMP JUMPDEST PUSH2 0xB12 JUMPI DUP6 DUP8 PUSH2 0x162C JUMP JUMPDEST DUP2 PUSH8 0xDE0B6B3A7640000 DUP2 MUL DIV PUSH8 0xDE0B6B3A7640000 EQ OR ISZERO PUSH2 0x17DD JUMPI PUSH2 0x167A PUSH1 0x4 SLOAD PUSH8 0xDE0B6B3A7640000 DUP4 MUL PUSH2 0x375D JUMP JUMPDEST SWAP1 PUSH32 0x0 PUSH1 0x1 PUSH1 0x1 PUSH1 0xA0 SHL SUB AND EXTCODESIZE ISZERO PUSH2 0xC6B JUMPI PUSH1 0x40 MLOAD PUSH4 0x40C10F19 PUSH1 0xE0 SHL DUP2 MSTORE ADDRESS PUSH1 0x4 DUP3 ADD MSTORE PUSH1 0x24 DUP2 ADD DUP4 SWAP1 MSTORE DUP9 DUP1 DUP3 PUSH1 0x44 DUP2 DUP4 PUSH1 0x1 PUSH1 0x1 PUSH1 0xA0 SHL SUB PUSH32 0x0 AND GAS CALL SWAP2 DUP3 ISZERO PUSH2 0x17D0 JUMPI DUP5 SWAP3 PUSH2 0x17B9 JUMPI JUMPDEST POP POP PUSH2 0x1715 SWAP2 PUSH1 0x4 CALLDATALOAD CALLER PUSH2 0x3EFF JUMP JUMPDEST ISZERO PUSH2 0x1721 JUMPI JUMPDEST DUP1 PUSH2 0x128B JUMP JUMPDEST PUSH1 0x2 SLOAD PUSH1 0x40 MLOAD PUSH4 0xA9059CBB PUSH1 0xE0 SHL DUP2 MSTORE PUSH1 0x8 SWAP2 SWAP1 SWAP2 SHR PUSH1 0x1 PUSH1 0x1 PUSH1 0xA0 SHL SUB AND PUSH1 0x4 DUP3 ADD MSTORE PUSH1 0x24 DUP2 ADD SWAP2 SWAP1 SWAP2 MSTORE PUSH1 0x20 DUP2 DUP1 PUSH1 0x44 DUP2 ADD SUB DUP2 DUP11 PUSH32 0x0 PUSH1 0x1 PUSH1 0x1 PUSH1 0xA0 SHL SUB AND GAS CALL DUP1 ISZERO PUSH2 0x17AE JUMPI ISZERO PUSH2 0x171B JUMPI PUSH2 0x17A7 SWAP1 PUSH1 0x20 RETURNDATASIZE PUSH1 0x20 GT PUSH2 0xAEC JUMPI PUSH2 0xADD DUP2 DUP4 PUSH2 0x34BD JUMP JUMPDEST POP DUP7 PUSH2 0x171B JUMP JUMPDEST PUSH1 0x40 MLOAD RETURNDATASIZE DUP10 DUP3 RETURNDATACOPY RETURNDATASIZE SWAP1 REVERT JUMPDEST PUSH2 0x17C4 SWAP2 SWAP3 POP PUSH2 0x34AA JUMP JUMPDEST PUSH2 0xC6B JUMPI DUP2 DUP9 DUP11 PUSH2 0x1706 JUMP JUMPDEST POP PUSH1 0x40 MLOAD SWAP1 RETURNDATASIZE SWAP1 DUP3 RETURNDATACOPY RETURNDATASIZE SWAP1 REVERT JUMPDEST PUSH4 0x4E487B71 PUSH1 0xE0 SHL DUP8 MSTORE PUSH1 0x11 PUSH1 0x4 MSTORE PUSH1 0x24 DUP8 REVERT JUMPDEST POP PUSH1 0x4 SLOAD ISZERO ISZERO PUSH2 0x1286 JUMP JUMPDEST PUSH1 0x2 SLOAD PUSH2 0x183A SWAP2 SWAP1 PUSH1 0x8 SHR PUSH1 0x1 PUSH1 0x1 PUSH1 0xA0 SHL SUB SWAP1 DUP2 AND SWAP1 PUSH32 0x0 AND PUSH2 0x37AF JUMP JUMPDEST DUP8 PUSH2 0x127B JUMP JUMPDEST PUSH1 0x2 SLOAD DUP9 SWAP1 PUSH1 0x8 SHR PUSH1 0x1 PUSH1 0x1 PUSH1 0xA0 SHL SUB SWAP1 DUP2 AND SWAP1 PUSH32 0x0 AND EXTCODESIZE ISZERO PUSH2 0x48A JUMPI PUSH1 0x40 MLOAD PUSH4 0x40C10F19 PUSH1 0xE0 SHL DUP2 MSTORE PUSH1 0x1 PUSH1 0x1 PUSH1 0xA0 SHL SUB SWAP1 SWAP2 AND PUSH1 0x4 DUP3 ADD MSTORE PUSH2 0x2710 PUSH2 0x1F4 DUP8 MUL DIV PUSH1 0x24 DUP3 ADD MSTORE DUP2 DUP2 DUP1 PUSH1 0x44 DUP2 ADD SUB DUP2 DUP4 PUSH32 0x0 PUSH1 0x1 PUSH1 0x1 PUSH1 0xA0 SHL SUB AND GAS CALL DUP1 ISZERO PUSH2 0x5CC JUMPI PUSH2 0x1927 JUMPI JUMPDEST POP POP PUSH1 0x40 MLOAD PUSH2 0x2710 PUSH2 0x1F4 DUP7 MUL DIV DUP2 MSTORE PUSH1 0x4 CALLDATALOAD SWAP1 PUSH32 0x70E3CC1092F69F3C882A468D7366A29F082ABEE73557DB7B5A9C01412CA0171 PUSH1 0x20 CALLER SWAP3 LOG3 PUSH2 0x1275 JUMP JUMPDEST PUSH2 0x1930 SWAP1 PUSH2 0x34AA JUMP JUMPDEST PUSH2 0xC6B JUMPI DUP8 DUP10 PUSH2 0x18E8 JUMP JUMPDEST DUP8 PUSH32 0x0 PUSH1 0x1 PUSH1 0x1 PUSH1 0xA0 SHL SUB AND DUP1 EXTCODESIZE ISZERO PUSH2 0x48A JUMPI PUSH1 0x40 MLOAD PUSH4 0x40C10F19 PUSH1 0xE0 SHL DUP2 MSTORE PUSH1 0x1 PUSH1 0x1 PUSH1 0xA0 SHL SUB PUSH32 0x0 AND PUSH1 0x4 DUP3 ADD MSTORE PUSH1 0x24 DUP2 ADD DUP11 SWAP1 MSTORE SWAP2 SWAP1 DUP3 SWAP1 PUSH1 0x44 SWAP1 DUP3 SWAP1 DUP5 SWAP1 GAS CALL DUP1 ISZERO PUSH2 0xBDA JUMPI PUSH2 0x1A91 JUMPI JUMPDEST POP PUSH1 0x80 DUP6 ADD MLOAD PUSH1 0xA0 DUP7 ADD MLOAD DUP10 SWAP2 PUSH1 0x1 PUSH1 0x1 PUSH1 0x40 SHL SUB SWAP1 DUP2 AND SWAP2 AND PUSH32 0x0 PUSH1 0x1 PUSH1 0x1 PUSH1 0xA0 SHL SUB AND EXTCODESIZE ISZERO PUSH2 0x5F6 JUMPI PUSH1 0x40 MLOAD PUSH4 0xBF49EC4F PUSH1 0xE0 SHL DUP2 MSTORE CALLER PUSH1 0x4 DUP3 ADD MSTORE PUSH1 0x24 DUP2 ADD DUP12 SWAP1 MSTORE PUSH1 0x44 DUP2 ADD SWAP3 SWAP1 SWAP3 MSTORE PUSH1 0x64 DUP3 ADD MSTORE DUP2 DUP2 PUSH1 0x84 DUP2 DUP4 PUSH32 0x0 PUSH1 0x1 PUSH1 0x1 PUSH1 0xA0 SHL SUB AND GAS CALL DUP1 ISZERO PUSH2 0x5CC JUMPI PUSH2 0x1A7D JUMPI JUMPDEST POP POP PUSH2 0x1267 JUMP JUMPDEST PUSH2 0x1A86 SWAP1 PUSH2 0x34AA JUMP JUMPDEST PUSH2 0xC6B JUMPI DUP8 DUP10 PUSH2 0x1A76 JUMP JUMPDEST PUSH2 0x1A9D SWAP1 SWAP9 SWAP2 SWAP9 PUSH2 0x34AA JUMP JUMPDEST SWAP7 DUP9 PUSH2 0x19C8 JUMP JUMPDEST PUSH4 0x4E487B71 PUSH1 0xE0 SHL DUP9 MSTORE PUSH1 0x11 PUSH1 0x4 MSTORE PUSH1 0x24 DUP9 REVERT JUMPDEST PUSH4 0x4E487B71 PUSH1 0xE0 SHL DUP7 MSTORE PUSH1 0x11 PUSH1 0x4 MSTORE PUSH1 0x24 DUP7 REVERT JUMPDEST PUSH4 0x4E487B71 PUSH1 0xE0 SHL DUP6 MSTORE PUSH1 0x11 PUSH1 0x4 MSTORE PUSH1 0x24 DUP6 REVERT JUMPDEST PUSH1 0x40 MLOAD PUSH3 0x461BCD PUSH1 0xE5 SHL DUP2 MSTORE PUSH1 0x20 PUSH1 0x4 DUP3 ADD MSTORE PUSH1 0x3D PUSH1 0x24 DUP3 ADD MSTORE PUSH32 0x5061636B6167654D616E616765723A2055534454206D75737420757365203138 PUSH1 0x44 DUP3 ADD MSTORE PUSH32 0x20646563696D616C7320666F7220563220617263686974656374757265000000 PUSH1 0x64 DUP3 ADD MSTORE PUSH1 0x84 SWAP1 REVERT JUMPDEST SWAP1 POP PUSH1 0x20 DUP2 RETURNDATASIZE PUSH1 0x20 GT PUSH2 0x1B80 JUMPI JUMPDEST DUP2 PUSH2 0x1B66 PUSH1 0x20 SWAP4 DUP4 PUSH2 0x34BD JUMP JUMPDEST DUP2 ADD SUB SLT PUSH2 0xA87 JUMPI MLOAD PUSH1 0xFF DUP2 AND DUP2 SUB PUSH2 0xA87 JUMPI PUSH1 0xFF PUSH2 0x11BE JUMP JUMPDEST RETURNDATASIZE SWAP2 POP PUSH2 0x1B59 JUMP JUMPDEST PUSH1 0x40 MLOAD RETURNDATASIZE DUP8 DUP3 RETURNDATACOPY RETURNDATASIZE SWAP1 REVERT JUMPDEST PUSH4 0x4E487B71 PUSH1 0xE0 SHL DUP5 MSTORE PUSH1 0x41 PUSH1 0x4 MSTORE PUSH1 0x24 DUP5 REVERT JUMPDEST PUSH1 0x40 MLOAD PUSH3 0x461BCD PUSH1 0xE5 SHL DUP2 MSTORE PUSH1 0x20 PUSH1 0x4 DUP3 ADD MSTORE PUSH1 0x25 PUSH1 0x24 DUP3 ADD MSTORE PUSH32 0x5061636B6167654D616E616765723A2043616E6E6F7420726566657220796F75 PUSH1 0x44 DUP3 ADD MSTORE PUSH5 0x3939B2B633 PUSH1 0xD9 SHL PUSH1 0x64 DUP3 ADD MSTORE PUSH1 0x84 SWAP1 REVERT JUMPDEST PUSH1 0x40 MLOAD PUSH3 0x461BCD PUSH1 0xE5 SHL DUP2 MSTORE PUSH1 0x20 PUSH1 0x4 DUP3 ADD MSTORE PUSH1 0x22 PUSH1 0x24 DUP3 ADD MSTORE PUSH32 0x5061636B6167654D616E616765723A205061636B616765206E6F742061637469 PUSH1 0x44 DUP3 ADD MSTORE PUSH2 0x7665 PUSH1 0xF0 SHL PUSH1 0x64 DUP3 ADD MSTORE PUSH1 0x84 SWAP1 REVERT JUMPDEST DUP4 DUP8 MSTORE PUSH1 0x20 DUP8 KECCAK256 SWAP4 SWAP3 SWAP2 POP DUP7 SWAP1 JUMPDEST DUP1 DUP3 LT PUSH2 0x1C71 JUMPI POP SWAP2 SWAP3 POP SWAP1 DUP2 ADD PUSH1 0x20 ADD PUSH2 0x1060 PUSH2 0x104F JUMP JUMPDEST SWAP2 SWAP3 SWAP4 PUSH1 0x1 DUP2 PUSH1 0x20 SWAP3 SLOAD DUP4 DUP6 DUP9 ADD ADD MSTORE ADD SWAP2 ADD SWAP1 SWAP4 SWAP3 SWAP2 PUSH2 0x1C58 JUMP JUMPDEST PUSH1 0xFF NOT AND PUSH1 0x20 DUP1 DUP7 ADD SWAP2 SWAP1 SWAP2 MSTORE SWAP2 ISZERO ISZERO PUSH1 0x5 SHL DUP5 ADD SWAP1 SWAP2 ADD SWAP2 POP PUSH2 0x1060 SWAP1 POP PUSH2 0x104F JUMP JUMPDEST CALLVALUE PUSH2 0x29C JUMPI DUP1 PUSH1 0x3 NOT CALLDATASIZE ADD SLT PUSH2 0x29C JUMPI PUSH1 0x40 MLOAD PUSH32 0x0 PUSH1 0x1 PUSH1 0x1 PUSH1 0xA0 SHL SUB AND DUP2 MSTORE PUSH1 0x20 SWAP1 RETURN JUMPDEST PUSH2 0x31E0 JUMP JUMPDEST CALLVALUE PUSH2 0x29C JUMPI DUP1 PUSH1 0x3 NOT CALLDATASIZE ADD SLT PUSH2 0x29C JUMPI PUSH1 0x20 PUSH1 0x7 SLOAD PUSH1 0x40 MLOAD SWAP1 DUP2 MSTORE RETURN JUMPDEST CALLVALUE PUSH2 0x29C JUMPI DUP1 PUSH1 0x3 NOT CALLDATASIZE ADD SLT PUSH2 0x29C JUMPI PUSH1 0x7 SLOAD DUP2 DUP1 JUMPDEST DUP3 DUP2 LT PUSH2 0x1E04 JUMPI POP PUSH2 0x1D3E DUP4 PUSH2 0x3664 JUMP JUMPDEST SWAP3 PUSH2 0x1D4C PUSH1 0x40 MLOAD SWAP5 DUP6 PUSH2 0x34BD JUMP JUMPDEST DUP1 DUP5 MSTORE PUSH2 0x1D5B PUSH1 0x1F NOT SWAP2 PUSH2 0x3664 JUMP JUMPDEST ADD SWAP2 PUSH1 0x20 SWAP3 CALLDATASIZE DUP5 DUP7 ADD CALLDATACOPY DUP2 DUP1 JUMPDEST DUP3 DUP2 LT PUSH2 0x1D82 JUMPI PUSH1 0x40 MLOAD DUP6 DUP2 MSTORE DUP1 PUSH2 0xD35 DUP2 DUP9 ADD DUP10 PUSH2 0x31AC JUMP JUMPDEST PUSH2 0x1D8B DUP2 PUSH2 0x3533 JUMP JUMPDEST SWAP1 SLOAD PUSH1 0x3 SWAP2 DUP3 SHL SHR DUP4 MSTORE PUSH1 0x8 DUP7 MSTORE PUSH1 0xFF DUP2 PUSH1 0x40 DUP6 KECCAK256 ADD SLOAD PUSH1 0xA0 SHR AND PUSH2 0x1DBA JUMPI JUMPDEST POP PUSH2 0x1DB5 SWAP1 PUSH2 0x3453 JUMP JUMPDEST PUSH2 0x1D68 JUMP JUMPDEST PUSH2 0x1DC5 DUP3 SWAP6 SWAP3 PUSH2 0x3533 JUMP JUMPDEST SWAP1 SLOAD SWAP2 SHL SHR DUP7 MLOAD DUP3 LT ISZERO PUSH2 0x1DF0 JUMPI DUP2 PUSH2 0x1DE9 SWAP2 DUP8 PUSH2 0x1DB5 SWAP5 PUSH1 0x5 SHL DUP11 ADD ADD MSTORE PUSH2 0x3453 JUMP JUMPDEST SWAP4 SWAP1 PUSH2 0x1DAB JUMP JUMPDEST PUSH4 0x4E487B71 PUSH1 0xE0 SHL DUP4 MSTORE PUSH1 0x32 PUSH1 0x4 MSTORE PUSH1 0x24 DUP4 REVERT JUMPDEST PUSH1 0xFF PUSH2 0x1E0F DUP3 PUSH2 0x3533 JUMP JUMPDEST SWAP1 SLOAD PUSH1 0x3 SWAP2 DUP3 SHL SHR DUP5 MSTORE PUSH1 0x8 PUSH1 0x20 MSTORE PUSH1 0x40 DUP5 KECCAK256 ADD SLOAD PUSH1 0xA0 SHR AND PUSH2 0x1E3B JUMPI JUMPDEST PUSH2 0x1E36 SWAP1 PUSH2 0x3453 JUMP JUMPDEST PUSH2 0x1D2D JUMP JUMPDEST SWAP3 PUSH2 0x1E48 PUSH2 0x1E36 SWAP2 PUSH2 0x3453 JUMP JUMPDEST SWAP4 SWAP1 POP PUSH2 0x1E2D JUMP JUMPDEST CALLVALUE PUSH2 0x29C JUMPI PUSH1 0x20 CALLDATASIZE PUSH1 0x3 NOT ADD SLT PUSH2 0x29C JUMPI PUSH1 0x60 PUSH2 0x1E6E PUSH1 0x4 CALLDATALOAD PUSH2 0x38F4 JUMP JUMPDEST SWAP1 PUSH1 0x40 MLOAD SWAP3 DUP4 MSTORE PUSH1 0x20 DUP4 ADD MSTORE PUSH1 0x40 DUP3 ADD MSTORE RETURN JUMPDEST CALLVALUE PUSH2 0x29C JUMPI PUSH1 0x40 CALLDATASIZE PUSH1 0x3 NOT ADD SLT PUSH2 0x29C JUMPI PUSH1 0xFF PUSH1 0x40 PUSH1 0x20 SWAP3 PUSH2 0x1EA1 PUSH2 0x304F JUMP JUMPDEST PUSH1 0x4 CALLDATALOAD DUP3 MSTORE DUP2 DUP6 MSTORE DUP3 DUP3 KECCAK256 PUSH1 0x1 PUSH1 0x1 PUSH1 0xA0 SHL SUB SWAP1 SWAP2 AND DUP3 MSTORE DUP5 MSTORE KECCAK256 SLOAD PUSH1 0x40 MLOAD SWAP2 AND ISZERO ISZERO DUP2 MSTORE RETURN JUMPDEST CALLVALUE PUSH2 0x29C JUMPI DUP1 PUSH1 0x3 NOT CALLDATASIZE ADD SLT PUSH2 0x29C JUMPI DUP1 DUP1 MSTORE DUP1 PUSH1 0x20 MSTORE PUSH1 0x40 DUP2 KECCAK256 CALLER DUP3 MSTORE PUSH1 0x20 MSTORE PUSH2 0x1EF9 PUSH1 0xFF PUSH1 0x40 DUP4 KECCAK256 SLOAD AND PUSH2 0x33AD JUMP JUMPDEST PUSH2 0x1F01 PUSH2 0x35A9 JUMP JUMPDEST PUSH1 0x1 PUSH1 0xFF NOT PUSH1 0x2 SLOAD AND OR PUSH1 0x2 SSTORE PUSH32 0x62E78CEA01BEE320CD4E420270B5EA74000D11B0C9F74754EBDBFC544B05A258 PUSH1 0x20 PUSH1 0x40 MLOAD CALLER DUP2 MSTORE LOG1 DUP1 RETURN JUMPDEST CALLVALUE PUSH2 0x29C JUMPI PUSH1 0x20 DUP1 PUSH1 0x3 NOT CALLDATASIZE ADD SLT PUSH2 0x48A JUMPI PUSH1 0x4 CALLDATALOAD DUP3 DUP1 MSTORE DUP3 DUP3 MSTORE PUSH1 0x40 DUP4 KECCAK256 CALLER DUP5 MSTORE DUP3 MSTORE PUSH2 0x1F6F PUSH1 0xFF PUSH1 0x40 DUP6 KECCAK256 SLOAD AND PUSH2 0x33AD JUMP JUMPDEST PUSH1 0x3C DUP2 LT PUSH2 0x2008 JUMPI PUSH2 0xE10 DUP2 GT PUSH2 0x1FB9 JUMPI PUSH32 0xD377B1DC1F911F261AC96273F0011B33578119B6F87A37A787FC6FA3BA066DE4 SWAP2 PUSH1 0x40 SWAP2 PUSH1 0x3 SLOAD SWAP2 DUP2 PUSH1 0x3 SSTORE DUP4 MLOAD SWAP3 DUP4 MSTORE DUP3 ADD MSTORE LOG1 DUP1 RETURN JUMPDEST PUSH1 0x40 MLOAD PUSH3 0x461BCD PUSH1 0xE5 SHL DUP2 MSTORE PUSH1 0x4 DUP2 ADD DUP4 SWAP1 MSTORE PUSH1 0x21 PUSH1 0x24 DUP3 ADD MSTORE PUSH32 0x5061636B6167654D616E616765723A20446561646C696E6520746F6F206C6F6E PUSH1 0x44 DUP3 ADD MSTORE PUSH1 0x67 PUSH1 0xF8 SHL PUSH1 0x64 DUP3 ADD MSTORE PUSH1 0x84 SWAP1 REVERT JUMPDEST PUSH1 0x40 MLOAD PUSH3 0x461BCD PUSH1 0xE5 SHL DUP2 MSTORE PUSH1 0x4 DUP2 ADD DUP4 SWAP1 MSTORE PUSH1 0x22 PUSH1 0x24 DUP3 ADD MSTORE PUSH32 0x5061636B6167654D616E616765723A20446561646C696E6520746F6F2073686F PUSH1 0x44 DUP3 ADD MSTORE PUSH2 0x1C9D PUSH1 0xF2 SHL PUSH1 0x64 DUP3 ADD MSTORE PUSH1 0x84 SWAP1 REVERT JUMPDEST CALLVALUE PUSH2 0x29C JUMPI PUSH1 0x20 CALLDATASIZE PUSH1 0x3 NOT ADD SLT PUSH2 0x29C JUMPI PUSH1 0x4 CALLDATALOAD DUP2 DUP1 MSTORE DUP2 PUSH1 0x20 MSTORE PUSH1 0x40 DUP3 KECCAK256 CALLER DUP4 MSTORE PUSH1 0x20 MSTORE PUSH2 0x208D PUSH1 0xFF PUSH1 0x40 DUP5 KECCAK256 SLOAD AND PUSH2 0x33AD JUMP JUMPDEST DUP1 ISZERO PUSH2 0x20CD JUMPI PUSH1 0x40 PUSH32 0x3F0A47B6CB75D94633850C9A242C4CDB5876A35FC86C211A1F4F633CC37BA8ED SWAP2 PUSH1 0x4 SLOAD SWAP1 DUP1 PUSH1 0x4 SSTORE DUP3 MLOAD SWAP2 DUP3 MSTORE PUSH1 0x20 DUP3 ADD MSTORE LOG1 DUP1 RETURN JUMPDEST PUSH1 0x40 MLOAD PUSH3 0x461BCD PUSH1 0xE5 SHL DUP2 MSTORE PUSH1 0x20 PUSH1 0x4 DUP3 ADD MSTORE PUSH1 0x2B PUSH1 0x24 DUP3 ADD MSTORE PUSH32 0x5061636B6167654D616E616765723A20496E76616C696420676C6F62616C2074 PUSH1 0x44 DUP3 ADD MSTORE PUSH11 0x6172676574207072696365 PUSH1 0xA8 SHL PUSH1 0x64 DUP3 ADD MSTORE PUSH1 0x84 SWAP1 REVERT JUMPDEST CALLVALUE PUSH2 0x29C JUMPI PUSH1 0x40 CALLDATASIZE PUSH1 0x3 NOT ADD SLT PUSH2 0x29C JUMPI PUSH2 0x213F PUSH2 0x3065 JUMP JUMPDEST PUSH1 0x24 CALLDATALOAD DUP3 DUP1 MSTORE PUSH1 0x20 SWAP2 DUP4 DUP4 MSTORE PUSH1 0x40 DUP5 KECCAK256 CALLER DUP6 MSTORE DUP4 MSTORE PUSH2 0x2164 PUSH1 0xFF PUSH1 0x40 DUP7 KECCAK256 SLOAD AND PUSH2 0x33AD JUMP JUMPDEST PUSH1 0x1 PUSH1 0x1 PUSH1 0xA0 SHL SUB SWAP1 DUP2 AND SWAP1 DUP2 ISZERO PUSH2 0x2229 JUMPI DUP3 ISZERO PUSH2 0x21E4 JUMPI PUSH1 0x2 SLOAD PUSH1 0x40 MLOAD PUSH4 0xA9059CBB PUSH1 0xE0 SHL DUP2 MSTORE PUSH1 0x8 SWAP2 SWAP1 SWAP2 SHR SWAP2 SWAP1 SWAP2 AND PUSH1 0x1 PUSH1 0x1 PUSH1 0xA0 SHL SUB AND PUSH1 0x4 DUP3 ADD MSTORE PUSH1 0x24 DUP2 ADD SWAP3 SWAP1 SWAP3 MSTORE DUP3 SWAP1 DUP3 SWAP1 PUSH1 0x44 SWAP1 DUP3 SWAP1 DUP8 SWAP1 GAS CALL DUP1 ISZERO PUSH2 0x5EB JUMPI PUSH2 0x21C7 JUMPI DUP3 DUP1 RETURN JUMPDEST DUP2 PUSH2 0x21DD SWAP3 SWAP1 RETURNDATASIZE LT PUSH2 0xAEC JUMPI PUSH2 0xADD DUP2 DUP4 PUSH2 0x34BD JUMP JUMPDEST POP DUP2 DUP1 DUP3 DUP1 RETURN JUMPDEST PUSH1 0x40 MLOAD PUSH3 0x461BCD PUSH1 0xE5 SHL DUP2 MSTORE PUSH1 0x4 DUP2 ADD DUP6 SWAP1 MSTORE PUSH1 0x1E PUSH1 0x24 DUP3 ADD MSTORE PUSH32 0x5061636B6167654D616E616765723A20496E76616C696420616D6F756E740000 PUSH1 0x44 DUP3 ADD MSTORE PUSH1 0x64 SWAP1 REVERT JUMPDEST PUSH1 0x40 MLOAD PUSH3 0x461BCD PUSH1 0xE5 SHL DUP2 MSTORE PUSH1 0x4 DUP2 ADD DUP6 SWAP1 MSTORE PUSH1 0x25 PUSH1 0x24 DUP3 ADD MSTORE PUSH32 0x5061636B6167654D616E616765723A20496E76616C696420746F6B656E206164 PUSH1 0x44 DUP3 ADD MSTORE PUSH5 0x6472657373 PUSH1 0xD8 SHL PUSH1 0x64 DUP3 ADD MSTORE PUSH1 0x84 SWAP1 REVERT JUMPDEST CALLVALUE PUSH2 0x29C JUMPI DUP1 PUSH1 0x3 NOT CALLDATASIZE ADD SLT PUSH2 0x29C JUMPI PUSH1 0x40 MLOAD PUSH32 0x0 PUSH1 0x1 PUSH1 0x1 PUSH1 0xA0 SHL SUB AND DUP2 MSTORE PUSH1 0x20 SWAP1 RETURN JUMPDEST CALLVALUE PUSH2 0x29C JUMPI DUP1 PUSH1 0x3 NOT CALLDATASIZE ADD SLT PUSH2 0x29C JUMPI PUSH1 0x2 SLOAD PUSH1 0x40 MLOAD PUSH1 0x8 SWAP2 SWAP1 SWAP2 SHR PUSH1 0x1 PUSH1 0x1 PUSH1 0xA0 SHL SUB AND DUP2 MSTORE PUSH1 0x20 SWAP1 RETURN JUMPDEST CALLVALUE PUSH2 0x29C JUMPI DUP1 PUSH1 0x3 NOT CALLDATASIZE ADD SLT PUSH2 0x29C JUMPI PUSH1 0x40 MLOAD PUSH32 0x0 PUSH1 0x1 PUSH1 0x1 PUSH1 0xA0 SHL SUB AND DUP2 MSTORE PUSH1 0x20 SWAP1 RETURN JUMPDEST CALLVALUE PUSH2 0x29C JUMPI DUP1 PUSH1 0x3 NOT CALLDATASIZE ADD SLT PUSH2 0x29C JUMPI PUSH1 0x20 PUSH1 0xFF PUSH1 0x2 SLOAD AND PUSH1 0x40 MLOAD SWAP1 ISZERO ISZERO DUP2 MSTORE RETURN JUMPDEST CALLVALUE PUSH2 0x29C JUMPI PUSH1 0xE0 CALLDATASIZE PUSH1 0x3 NOT ADD SLT PUSH2 0x29C JUMPI PUSH1 0x1 PUSH1 0x1 PUSH1 0x40 SHL SUB PUSH1 0x4 CALLDATALOAD GT PUSH2 0x29C JUMPI CALLDATASIZE PUSH1 0x23 PUSH1 0x4 CALLDATALOAD ADD SLT ISZERO PUSH2 0x29C JUMPI PUSH1 0x1 PUSH1 0x1 PUSH1 0x40 SHL SUB PUSH1 0x4 CALLDATALOAD PUSH1 0x4 ADD CALLDATALOAD GT PUSH2 0x29C JUMPI CALLDATASIZE PUSH1 0x24 PUSH1 0x4 CALLDATALOAD PUSH1 0x4 ADD CALLDATALOAD PUSH1 0x4 CALLDATALOAD ADD ADD GT PUSH2 0x29C JUMPI PUSH1 0x64 DUP1 CALLDATALOAD PUSH2 0xFFFF DUP2 AND DUP2 SUB PUSH2 0x5F6 JUMPI PUSH1 0x84 CALLDATALOAD SWAP2 PUSH1 0x1 PUSH1 0x1 PUSH1 0x40 SHL SUB DUP4 AND DUP4 SUB PUSH2 0x294F JUMPI PUSH1 0xA4 CALLDATALOAD PUSH1 0x1 PUSH1 0x1 PUSH1 0x40 SHL SUB DUP2 AND DUP2 SUB PUSH2 0xA87 JUMPI PUSH1 0xC4 CALLDATALOAD SWAP2 PUSH2 0xFFFF DUP4 AND DUP4 SUB PUSH2 0xB12 JUMPI DUP6 DUP1 MSTORE DUP6 PUSH1 0x20 MSTORE PUSH1 0x40 DUP7 KECCAK256 CALLER DUP8 MSTORE PUSH1 0x20 MSTORE PUSH2 0x240E PUSH1 0xFF PUSH1 0x40 DUP9 KECCAK256 SLOAD AND PUSH2 0x33AD JUMP JUMPDEST PUSH2 0x2416 PUSH2 0x35A9 JUMP JUMPDEST PUSH1 0x4 CALLDATALOAD PUSH1 0x4 ADD CALLDATALOAD ISZERO PUSH2 0x290D JUMPI PUSH1 0x24 CALLDATALOAD ISZERO PUSH2 0x28BD JUMPI PUSH2 0x2437 PUSH1 0x44 CALLDATALOAD ISZERO ISZERO PUSH2 0x33F9 JUMP JUMPDEST PUSH2 0x2710 PUSH2 0xFFFF DUP6 AND GT PUSH2 0x2869 JUMPI PUSH2 0x3E8 PUSH2 0xFFFF DUP5 AND GT PUSH2 0x2816 JUMPI PUSH1 0x1 PUSH1 0x1 PUSH1 0x40 SHL SUB DUP3 AND ISZERO PUSH2 0x27D4 JUMPI POP PUSH1 0x6 SLOAD SWAP4 PUSH2 0x246E DUP6 PUSH2 0x3453 JUMP JUMPDEST PUSH1 0x6 SSTORE PUSH1 0x40 MLOAD PUSH2 0x247D DUP2 PUSH2 0x3478 JUMP JUMPDEST PUSH2 0x248C PUSH1 0x4 CALLDATALOAD PUSH1 0x4 ADD CALLDATALOAD PUSH2 0x34DE JUMP JUMPDEST PUSH2 0x2499 PUSH1 0x40 MLOAD SWAP2 DUP3 PUSH2 0x34BD JUMP JUMPDEST PUSH1 0x4 DUP1 CALLDATALOAD SWAP1 DUP2 ADD CALLDATALOAD DUP1 DUP4 MSTORE SWAP1 PUSH1 0x24 ADD PUSH1 0x20 DUP4 ADD CALLDATACOPY DUP8 PUSH1 0x20 PUSH1 0x4 CALLDATALOAD PUSH1 0x4 ADD CALLDATALOAD DUP4 ADD ADD MSTORE DUP2 MSTORE PUSH1 0x24 CALLDATALOAD PUSH1 0x20 DUP3 ADD MSTORE PUSH1 0x44 CALLDATALOAD PUSH1 0x40 DUP3 ADD MSTORE PUSH2 0xFFFF DUP6 AND PUSH1 0x60 DUP3 ADD MSTORE PUSH1 0x1 PUSH1 0x1 PUSH1 0x40 SHL SUB DUP3 AND PUSH1 0x80 DUP3 ADD MSTORE PUSH1 0x1 PUSH1 0x1 PUSH1 0x40 SHL SUB DUP4 AND PUSH1 0xA0 DUP3 ADD MSTORE PUSH2 0xFFFF DUP5 AND PUSH1 0xC0 DUP3 ADD MSTORE PUSH1 0x1 PUSH1 0xE0 DUP3 ADD MSTORE PUSH1 0x1 PUSH2 0x100 DUP3 ADD MSTORE DUP6 DUP8 MSTORE PUSH1 0x8 PUSH1 0x20 MSTORE PUSH1 0x40 DUP8 KECCAK256 DUP2 MLOAD DUP1 MLOAD SWAP1 PUSH1 0x1 PUSH1 0x1 PUSH1 0x40 SHL SUB DUP3 GT PUSH2 0x1488 JUMPI PUSH2 0x2537 DUP4 SLOAD PUSH2 0x34F9 JUMP JUMPDEST PUSH1 0x1F DUP2 GT PUSH2 0x2792 JUMPI JUMPDEST POP PUSH1 0x20 SWAP1 PUSH1 0x1F DUP4 GT PUSH1 0x1 EQ PUSH2 0x2726 JUMPI SWAP2 DUP1 PUSH2 0x100 SWAP5 SWAP3 PUSH1 0x3 SWAP5 DUP14 SWAP3 PUSH2 0x271B JUMPI JUMPDEST POP POP DUP2 PUSH1 0x1 SHL SWAP2 PUSH1 0x0 NOT SWAP1 DUP6 SHL SHR NOT AND OR DUP2 SSTORE JUMPDEST PUSH1 0x20 DUP5 ADD MLOAD PUSH1 0x1 DUP3 ADD SSTORE PUSH1 0x40 DUP5 ADD MLOAD PUSH1 0x2 DUP3 ADD SSTORE ADD SWAP2 PUSH2 0xFFFF PUSH1 0x60 DUP3 ADD MLOAD AND DUP4 SLOAD SWAP1 PUSH10 0xFFFFFFFFFFFFFFFF0000 PUSH1 0x80 DUP5 ADD MLOAD PUSH1 0x10 SHL AND PUSH1 0x1 PUSH1 0x1 PUSH1 0x40 SHL SUB PUSH1 0x50 SHL PUSH1 0xA0 DUP6 ADD MLOAD PUSH1 0x50 SHL AND SWAP2 PUSH2 0xFFFF PUSH1 0x90 SHL PUSH1 0xC0 DUP7 ADD MLOAD PUSH1 0x90 SHL AND SWAP4 PUSH12 0xFFFFFFFFFFFFFFFFFFFFFFFF PUSH1 0xA0 SHL AND OR OR OR OR DUP4 SSTORE PUSH2 0x260E PUSH1 0xE0 DUP3 ADD MLOAD ISZERO ISZERO DUP5 SWAP1 DUP2 SLOAD SWAP1 PUSH1 0xFF PUSH1 0xA0 SHL SWAP1 ISZERO ISZERO PUSH1 0xA0 SHL AND SWAP1 PUSH1 0xFF PUSH1 0xA0 SHL NOT AND OR SWAP1 SSTORE JUMP JUMPDEST ADD MLOAD DUP2 SLOAD PUSH1 0xFF PUSH1 0xA8 SHL NOT AND SWAP1 ISZERO ISZERO PUSH1 0xA8 SHL PUSH1 0xFF PUSH1 0xA8 SHL AND OR SWAP1 SSTORE PUSH1 0x7 SLOAD PUSH1 0x1 PUSH1 0x40 SHL DUP2 LT ISZERO PUSH2 0x2707 JUMPI PUSH2 0xFFFF SWAP3 PUSH1 0x1 PUSH1 0x1 PUSH1 0x40 SHL SUB PUSH32 0x38A9B0861AF6EDA42482A0E46839A625D911229840556475B544BC0BB1C5A66D SWAP7 SWAP6 SWAP4 PUSH2 0x2678 DUP5 PUSH1 0x1 DUP5 SWAP7 ADD PUSH1 0x7 SSTORE PUSH2 0x3533 JUMP JUMPDEST DUP2 SLOAD SWAP1 PUSH1 0x3 SHL SWAP1 DUP12 DUP3 SHL SWAP2 PUSH1 0x0 NOT SWAP1 SHL NOT AND OR SWAP1 SSTORE DUP6 PUSH1 0x40 MLOAD SWAP8 PUSH1 0xE0 DUP10 MSTORE PUSH1 0x4 CALLDATALOAD PUSH1 0x4 ADD CALLDATALOAD PUSH1 0xE0 DUP11 ADD MSTORE PUSH1 0x4 CALLDATALOAD PUSH1 0x4 ADD CALLDATALOAD PUSH1 0x24 PUSH1 0x4 CALLDATALOAD ADD PUSH2 0x100 DUP12 ADD CALLDATACOPY DUP12 PUSH2 0x100 PUSH1 0x4 CALLDATALOAD PUSH1 0x4 ADD CALLDATALOAD DUP12 ADD ADD MSTORE PUSH1 0x24 CALLDATALOAD PUSH1 0x20 DUP11 ADD MSTORE PUSH1 0x44 CALLDATALOAD PUSH1 0x40 DUP11 ADD MSTORE AND PUSH1 0x60 DUP9 ADD MSTORE AND PUSH1 0x80 DUP7 ADD MSTORE AND PUSH1 0xA0 DUP5 ADD MSTORE AND PUSH1 0xC0 DUP3 ADD MSTORE PUSH2 0x100 DUP2 PUSH1 0x1F NOT PUSH1 0x1F PUSH1 0x4 CALLDATALOAD PUSH1 0x4 ADD CALLDATALOAD ADD AND DUP2 ADD SUB ADD SWAP1 LOG2 DUP1 RETURN JUMPDEST PUSH4 0x4E487B71 PUSH1 0xE0 SHL DUP8 MSTORE PUSH1 0x41 PUSH1 0x4 MSTORE PUSH1 0x24 DUP8 REVERT JUMPDEST ADD MLOAD SWAP1 POP DUP13 DUP1 PUSH2 0x2560 JUMP JUMPDEST SWAP1 DUP4 DUP12 MSTORE PUSH1 0x20 DUP12 KECCAK256 SWAP2 DUP12 JUMPDEST PUSH1 0x1F NOT DUP6 AND DUP2 LT PUSH2 0x277A JUMPI POP SWAP3 PUSH2 0x100 SWAP5 SWAP3 PUSH1 0x1 SWAP3 PUSH1 0x3 SWAP6 DUP4 PUSH1 0x1F NOT DUP2 AND LT PUSH2 0x2762 JUMPI JUMPDEST POP POP POP DUP2 SHL ADD DUP2 SSTORE PUSH2 0x2574 JUMP JUMPDEST ADD MLOAD PUSH1 0x0 NOT DUP4 DUP8 SHL PUSH1 0xF8 AND SHR NOT AND SWAP1 SSTORE DUP13 DUP1 DUP1 PUSH2 0x2755 JUMP JUMPDEST SWAP2 SWAP3 PUSH1 0x20 PUSH1 0x1 DUP2 SWAP3 DUP7 DUP6 ADD MLOAD DUP2 SSTORE ADD SWAP5 ADD SWAP3 ADD PUSH2 0x2731 JUMP JUMPDEST DUP4 DUP12 MSTORE PUSH1 0x20 DUP12 KECCAK256 PUSH1 0x1F DUP5 ADD PUSH1 0x5 SHR DUP2 ADD PUSH1 0x20 DUP6 LT PUSH2 0x27CD JUMPI JUMPDEST DUP13 PUSH1 0x1F DUP5 ADD PUSH1 0x5 SHR DUP4 ADD DUP3 LT PUSH2 0x27C3 JUMPI POP POP POP PUSH2 0x2540 JUMP JUMPDEST DUP2 SSTORE PUSH1 0x1 ADD PUSH2 0x27AB JUMP JUMPDEST POP DUP1 PUSH2 0x27AB JUMP JUMPDEST PUSH1 0x40 MLOAD PUSH3 0x461BCD PUSH1 0xE5 SHL DUP2 MSTORE PUSH1 0x20 PUSH1 0x4 DUP3 ADD DUP2 SWAP1 MSTORE PUSH1 0x24 DUP3 ADD MSTORE PUSH32 0x5061636B6167654D616E616765723A20496E76616C6964206475726174696F6E PUSH1 0x44 DUP3 ADD MSTORE REVERT JUMPDEST PUSH1 0x84 SWAP1 PUSH6 0xDE40D0D2CED PUSH1 0xD3 SHL PUSH1 0x40 MLOAD SWAP2 PUSH3 0x461BCD PUSH1 0xE5 SHL DUP4 MSTORE PUSH1 0x20 PUSH1 0x4 DUP5 ADD MSTORE PUSH1 0x26 PUSH1 0x24 DUP5 ADD MSTORE PUSH32 0x5061636B6167654D616E616765723A20526566657272616C207261746520746F PUSH1 0x44 DUP5 ADD MSTORE DUP3 ADD MSTORE REVERT JUMPDEST PUSH1 0x84 SWAP1 PUSH7 0x63656E74616765 PUSH1 0xC8 SHL PUSH1 0x40 MLOAD SWAP2 PUSH3 0x461BCD PUSH1 0xE5 SHL DUP4 MSTORE PUSH1 0x20 PUSH1 0x4 DUP5 ADD MSTORE PUSH1 0x27 PUSH1 0x24 DUP5 ADD MSTORE PUSH32 0x5061636B6167654D616E616765723A20496E76616C6964207665737420706572 PUSH1 0x44 DUP5 ADD MSTORE DUP3 ADD MSTORE REVERT JUMPDEST PUSH1 0x84 SWAP1 PUSH4 0x1BDD5B9D PUSH1 0xE2 SHL PUSH1 0x40 MLOAD SWAP2 PUSH3 0x461BCD PUSH1 0xE5 SHL DUP4 MSTORE PUSH1 0x20 PUSH1 0x4 DUP5 ADD MSTORE PUSH1 0x24 DUP1 DUP5 ADD MSTORE PUSH32 0x5061636B6167654D616E616765723A20496E76616C696420656E74727920616D PUSH1 0x44 DUP5 ADD MSTORE DUP3 ADD MSTORE REVERT JUMPDEST PUSH1 0x40 MLOAD PUSH3 0x461BCD PUSH1 0xE5 SHL DUP2 MSTORE PUSH1 0x20 PUSH1 0x4 DUP3 ADD MSTORE PUSH1 0x1A PUSH1 0x24 DUP3 ADD MSTORE PUSH32 0x5061636B6167654D616E616765723A20456D707479206E616D65000000000000 PUSH1 0x44 DUP3 ADD MSTORE REVERT JUMPDEST DUP4 DUP1 REVERT JUMPDEST CALLVALUE PUSH2 0x29C JUMPI PUSH1 0x20 CALLDATASIZE PUSH1 0x3 NOT ADD SLT PUSH2 0x29C JUMPI PUSH1 0x40 PUSH2 0x120 SWAP2 PUSH2 0x2972 PUSH2 0x3065 JUMP JUMPDEST PUSH2 0x297A PUSH2 0x367B JUMP JUMPDEST POP PUSH1 0x1 PUSH1 0x1 PUSH1 0xA0 SHL SUB AND DUP2 MSTORE PUSH1 0x9 PUSH1 0x20 MSTORE KECCAK256 PUSH1 0x40 MLOAD PUSH2 0x2998 DUP2 PUSH2 0x3478 JUMP JUMPDEST DUP2 SLOAD SWAP2 DUP3 DUP3 MSTORE PUSH1 0x1 DUP2 ADD SLOAD SWAP1 PUSH1 0x20 DUP4 ADD SWAP2 DUP3 MSTORE PUSH1 0x2 DUP2 ADD SLOAD PUSH1 0x40 DUP5 ADD SWAP1 DUP2 MSTORE PUSH1 0x3 DUP3 ADD SLOAD PUSH1 0x60 DUP6 ADD SWAP1 DUP2 MSTORE PUSH1 0x4 DUP4 ADD SLOAD PUSH1 0x80 DUP7 ADD SWAP1 DUP2 MSTORE PUSH1 0x5 DUP5 ADD SLOAD SWAP2 PUSH1 0xA0 DUP8 ADD SWAP3 DUP4 MSTORE PUSH1 0x6 DUP6 ADD SLOAD SWAP4 PUSH1 0xC0 DUP9 ADD SWAP5 DUP6 MSTORE PUSH1 0x8 PUSH1 0x7 DUP8 ADD SLOAD SWAP7 PUSH1 0xE0 DUP11 ADD SWAP8 DUP9 MSTORE ADD SLOAD SWAP7 PUSH2 0x100 DUP1 SWAP10 ADD SWAP8 DUP9 MSTORE PUSH1 0x40 MLOAD SWAP10 DUP11 MSTORE MLOAD PUSH1 0x20 DUP11 ADD MSTORE MLOAD PUSH1 0x40 DUP10 ADD MSTORE MLOAD PUSH1 0x60 DUP9 ADD MSTORE MLOAD PUSH1 0x80 DUP8 ADD MSTORE MLOAD PUSH1 0xA0 DUP7 ADD MSTORE MLOAD PUSH1 0xC0 DUP6 ADD MSTORE MLOAD PUSH1 0xE0 DUP5 ADD MSTORE MLOAD SWAP1 DUP3 ADD MSTORE RETURN JUMPDEST CALLVALUE PUSH2 0x29C JUMPI DUP1 PUSH1 0x3 NOT CALLDATASIZE ADD SLT PUSH2 0x29C JUMPI PUSH1 0x40 MLOAD PUSH32 0x0 PUSH1 0x1 PUSH1 0x1 PUSH1 0xA0 SHL SUB AND DUP2 MSTORE PUSH1 0x20 SWAP1 RETURN JUMPDEST CALLVALUE PUSH2 0x29C JUMPI PUSH1 0x40 CALLDATASIZE PUSH1 0x3 NOT ADD SLT PUSH2 0x29C JUMPI PUSH2 0x2A98 PUSH2 0x3065 JUMP JUMPDEST SWAP1 PUSH1 0x24 CALLDATALOAD SWAP2 PUSH2 0x2AA5 PUSH2 0x367B JUMP JUMPDEST POP PUSH1 0x1 PUSH1 0x1 PUSH1 0xA0 SHL SUB AND DUP1 DUP3 MSTORE PUSH1 0xA PUSH1 0x20 MSTORE PUSH1 0x40 DUP3 KECCAK256 SLOAD SWAP1 SWAP2 SWAP1 DUP4 LT ISZERO PUSH2 0x2AF6 JUMPI PUSH2 0x120 SWAP3 PUSH1 0x40 DUP3 PUSH2 0x2AE7 SWAP5 PUSH2 0x2AE1 SWAP5 MSTORE PUSH1 0xA PUSH1 0x20 MSTORE KECCAK256 PUSH2 0x372E JUMP JUMPDEST POP PUSH2 0x36C0 JUMP JUMPDEST PUSH2 0x2AF4 PUSH1 0x40 MLOAD DUP1 SWAP3 PUSH2 0x307B JUMP JUMPDEST RETURN JUMPDEST PUSH1 0x40 MLOAD PUSH3 0x461BCD PUSH1 0xE5 SHL DUP2 MSTORE PUSH1 0x20 PUSH1 0x4 DUP3 ADD MSTORE PUSH1 0x26 PUSH1 0x24 DUP3 ADD MSTORE PUSH32 0x5061636B6167654D616E616765723A20496E76616C6964207075726368617365 PUSH1 0x44 DUP3 ADD MSTORE PUSH6 0x40D2DCC8CAF PUSH1 0xD3 SHL PUSH1 0x64 DUP3 ADD MSTORE PUSH1 0x84 SWAP1 REVERT JUMPDEST CALLVALUE PUSH2 0x29C JUMPI DUP1 PUSH1 0x3 NOT CALLDATASIZE ADD SLT PUSH2 0x29C JUMPI DUP1 DUP1 MSTORE DUP1 PUSH1 0x20 MSTORE PUSH1 0x40 DUP2 KECCAK256 CALLER DUP3 MSTORE PUSH1 0x20 MSTORE PUSH2 0x2B7B PUSH1 0xFF PUSH1 0x40 DUP4 KECCAK256 SLOAD AND PUSH2 0x33AD JUMP JUMPDEST PUSH1 0x2 SLOAD PUSH1 0xFF DUP2 AND ISZERO PUSH2 0x2BBB JUMPI PUSH1 0xFF NOT AND PUSH1 0x2 SSTORE PUSH32 0x5DB9EE0A495BF2E6FF9C91A7834C1BA4FDD244A5E8AA4E537BD38AEAE4B073AA PUSH1 0x20 PUSH1 0x40 MLOAD CALLER DUP2 MSTORE LOG1 DUP1 RETURN JUMPDEST PUSH1 0x40 MLOAD PUSH4 0x8DFC202B PUSH1 0xE0 SHL DUP2 MSTORE PUSH1 0x4 SWAP1 REVERT JUMPDEST CALLVALUE PUSH2 0x29C JUMPI PUSH1 0x40 CALLDATASIZE PUSH1 0x3 NOT ADD SLT PUSH2 0x29C JUMPI PUSH2 0x2BE6 PUSH2 0x304F JUMP JUMPDEST CALLER PUSH1 0x1 PUSH1 0x1 PUSH1 0xA0 SHL SUB DUP3 AND SUB PUSH2 0x2C02 JUMPI PUSH2 0x6F8 SWAP1 PUSH1 0x4 CALLDATALOAD PUSH2 0x3338 JUMP JUMPDEST PUSH1 0x40 MLOAD PUSH4 0x334BD919 PUSH1 0xE1 SHL DUP2 MSTORE PUSH1 0x4 SWAP1 REVERT JUMPDEST CALLVALUE PUSH2 0x29C JUMPI DUP1 PUSH1 0x3 NOT CALLDATASIZE ADD SLT PUSH2 0x29C JUMPI PUSH1 0x1 DUP1 PUSH1 0xA0 SHL SUB PUSH1 0x20 DUP2 PUSH1 0x2 SLOAD PUSH1 0x8 SHR AND PUSH1 0x24 PUSH1 0x40 MLOAD DUP1 SWAP5 DUP2 SWAP4 PUSH4 0x70A08231 PUSH1 0xE0 SHL DUP4 MSTORE PUSH1 0x4 DUP4 ADD MSTORE PUSH32 0x0 AND GAS STATICCALL SWAP1 DUP2 ISZERO PUSH2 0x5CC JUMPI DUP3 SWAP2 PUSH2 0x2C8A JUMPI JUMPDEST PUSH1 0x20 DUP3 PUSH1 0x40 MLOAD SWAP1 DUP2 MSTORE RETURN JUMPDEST SWAP1 POP PUSH1 0x20 DUP2 RETURNDATASIZE DUP3 GT PUSH2 0x2CB7 JUMPI JUMPDEST DUP2 PUSH2 0x2CA4 PUSH1 0x20 SWAP4 DUP4 PUSH2 0x34BD JUMP JUMPDEST DUP2 ADD SUB SLT PUSH2 0x48A JUMPI PUSH1 0x20 SWAP2 POP MLOAD DUP3 PUSH2 0x2C7F JUMP JUMPDEST RETURNDATASIZE SWAP2 POP PUSH2 0x2C97 JUMP JUMPDEST CALLVALUE PUSH2 0x29C JUMPI DUP1 PUSH1 0x3 NOT CALLDATASIZE ADD SLT PUSH2 0x29C JUMPI PUSH1 0x40 MLOAD PUSH32 0x0 PUSH1 0x1 PUSH1 0x1 PUSH1 0xA0 SHL SUB AND DUP2 MSTORE PUSH1 0x20 SWAP1 RETURN JUMPDEST CALLVALUE PUSH2 0x29C JUMPI PUSH1 0x40 CALLDATASIZE PUSH1 0x3 NOT ADD SLT PUSH2 0x29C JUMPI PUSH2 0x6F8 PUSH1 0x4 CALLDATALOAD PUSH2 0x2D22 PUSH2 0x304F JUMP JUMPDEST SWAP1 DUP1 DUP5 MSTORE DUP4 PUSH1 0x20 MSTORE PUSH2 0x2D3A PUSH1 0x1 PUSH1 0x40 DUP7 KECCAK256 ADD SLOAD PUSH2 0x3276 JUMP JUMPDEST PUSH2 0x32BA JUMP JUMPDEST CALLVALUE PUSH2 0x29C JUMPI DUP1 PUSH1 0x3 NOT CALLDATASIZE ADD SLT PUSH2 0x29C JUMPI PUSH1 0x40 MLOAD DUP1 SWAP2 DUP3 PUSH1 0x7 SLOAD DUP1 DUP5 MSTORE PUSH1 0x20 DUP1 SWAP5 ADD SWAP1 PUSH1 0x7 DUP5 MSTORE PUSH32 0xA66CC928B5EDB82AF9BD49922954155AB7B0942694BEA4CE44661D9A8736C688 SWAP4 JUMPDEST DUP6 DUP3 DUP3 LT PUSH2 0x2DB3 JUMPI POP POP POP PUSH2 0x2D9F SWAP3 POP SUB DUP4 PUSH2 0x34BD JUMP JUMPDEST PUSH2 0xD35 PUSH1 0x40 MLOAD SWAP3 DUP3 DUP5 SWAP4 DUP5 MSTORE DUP4 ADD SWAP1 PUSH2 0x31AC JUMP JUMPDEST DUP6 SLOAD DUP5 MSTORE PUSH1 0x1 SWAP6 DUP7 ADD SWAP6 DUP9 SWAP6 POP SWAP4 ADD SWAP3 ADD PUSH2 0x2D88 JUMP JUMPDEST CALLVALUE PUSH2 0x29C JUMPI DUP1 PUSH1 0x3 NOT CALLDATASIZE ADD SLT PUSH2 0x29C JUMPI PUSH1 0x20 PUSH1 0x40 MLOAD PUSH32 0x4AF58918E2C6F17F8B6DA7260D8669FA63150FFD279395662A723476F776F76A DUP2 MSTORE RETURN JUMPDEST CALLVALUE PUSH2 0x29C JUMPI PUSH1 0x20 CALLDATASIZE PUSH1 0x3 NOT ADD SLT PUSH2 0x29C JUMPI PUSH1 0x1 PUSH1 0x40 PUSH1 0x20 SWAP3 PUSH1 0x4 CALLDATALOAD DUP2 MSTORE DUP1 DUP5 MSTORE KECCAK256 ADD SLOAD PUSH1 0x40 MLOAD SWAP1 DUP2 MSTORE RETURN JUMPDEST CALLVALUE PUSH2 0x29C JUMPI DUP1 PUSH1 0x3 NOT CALLDATASIZE ADD SLT PUSH2 0x29C JUMPI PUSH1 0x2 SLOAD PUSH1 0x40 MLOAD PUSH4 0x6EB1769F PUSH1 0xE1 SHL DUP2 MSTORE PUSH1 0x1 PUSH1 0x1 PUSH1 0xA0 SHL SUB PUSH1 0x8 SWAP3 SWAP1 SWAP3 SHR DUP3 AND PUSH1 0x4 DUP3 ADD MSTORE ADDRESS PUSH1 0x24 DUP3 ADD MSTORE SWAP1 PUSH1 0x20 SWAP1 DUP3 SWAP1 PUSH1 0x44 SWAP1 DUP3 SWAP1 PUSH32 0x0 AND GAS STATICCALL SWAP1 DUP2 ISZERO PUSH2 0x5CC JUMPI DUP3 SWAP2 PUSH2 0x2C8A JUMPI PUSH1 0x20 DUP3 PUSH1 0x40 MLOAD SWAP1 DUP2 MSTORE RETURN JUMPDEST CALLVALUE PUSH2 0x29C JUMPI DUP1 PUSH1 0x3 NOT CALLDATASIZE ADD SLT PUSH2 0x29C JUMPI PUSH1 0x20 PUSH1 0x4 SLOAD PUSH1 0x40 MLOAD SWAP1 DUP2 MSTORE RETURN JUMPDEST CALLVALUE PUSH2 0x29C JUMPI PUSH1 0x20 DUP1 PUSH1 0x3 NOT CALLDATASIZE ADD SLT PUSH2 0x48A JUMPI PUSH1 0x4 CALLDATALOAD DUP3 DUP1 MSTORE DUP3 DUP3 MSTORE PUSH1 0x40 DUP4 KECCAK256 CALLER DUP5 MSTORE DUP3 MSTORE PUSH2 0x2F01 PUSH1 0xFF PUSH1 0x40 DUP6 KECCAK256 SLOAD AND PUSH2 0x33AD JUMP JUMPDEST PUSH2 0x3E8 DUP2 GT PUSH2 0x2FA3 JUMPI PUSH1 0x64 DUP2 LT PUSH2 0x2F4B JUMPI PUSH32 0xDDD31550B26E9EF8ADE466958BE83FF8A014D9B4F36D546B61A6847A45306575 SWAP2 PUSH1 0x40 SWAP2 PUSH1 0x5 SLOAD SWAP2 DUP2 PUSH1 0x5 SSTORE DUP4 MLOAD SWAP3 DUP4 MSTORE DUP3 ADD MSTORE LOG1 DUP1 RETURN JUMPDEST PUSH1 0x40 MLOAD PUSH3 0x461BCD PUSH1 0xE5 SHL DUP2 MSTORE PUSH1 0x4 DUP2 ADD DUP4 SWAP1 MSTORE PUSH1 0x2A PUSH1 0x24 DUP3 ADD MSTORE PUSH32 0x5061636B6167654D616E616765723A20536C69707061676520746F6C6572616E PUSH1 0x44 DUP3 ADD MSTORE PUSH10 0x636520746F6F206C6F77 PUSH1 0xB0 SHL PUSH1 0x64 DUP3 ADD MSTORE PUSH1 0x84 SWAP1 REVERT JUMPDEST PUSH1 0x40 MLOAD PUSH3 0x461BCD PUSH1 0xE5 SHL DUP2 MSTORE PUSH1 0x4 DUP2 ADD DUP4 SWAP1 MSTORE PUSH1 0x2B PUSH1 0x24 DUP3 ADD MSTORE PUSH32 0x5061636B6167654D616E616765723A20536C69707061676520746F6C6572616E PUSH1 0x44 DUP3 ADD MSTORE PUSH11 0xC6CA40E8DEDE40D0D2CED PUSH1 0xAB SHL PUSH1 0x64 DUP3 ADD MSTORE PUSH1 0x84 SWAP1 REVERT JUMPDEST CALLVALUE PUSH2 0x48A JUMPI PUSH1 0x20 CALLDATASIZE PUSH1 0x3 NOT ADD SLT PUSH2 0x48A JUMPI PUSH1 0x4 CALLDATALOAD PUSH4 0xFFFFFFFF PUSH1 0xE0 SHL DUP2 AND DUP1 SWAP2 SUB PUSH2 0x5F6 JUMPI PUSH1 0x20 SWAP3 POP PUSH4 0x7965DB0B PUSH1 0xE0 SHL DUP2 EQ SWAP1 DUP2 ISZERO PUSH2 0x303E JUMPI JUMPDEST POP ISZERO ISZERO DUP2 MSTORE RETURN JUMPDEST PUSH4 0x1FFC9A7 PUSH1 0xE0 SHL EQ SWAP1 POP DUP4 PUSH2 0x3037 JUMP JUMPDEST PUSH1 0x24 CALLDATALOAD SWAP1 PUSH1 0x1 PUSH1 0x1 PUSH1 0xA0 SHL SUB DUP3 AND DUP3 SUB PUSH2 0xB94 JUMPI JUMP JUMPDEST PUSH1 0x4 CALLDATALOAD SWAP1 PUSH1 0x1 PUSH1 0x1 PUSH1 0xA0 SHL SUB DUP3 AND DUP3 SUB PUSH2 0xB94 JUMPI JUMP JUMPDEST DUP1 MLOAD DUP3 MSTORE PUSH1 0x20 DUP2 ADD MLOAD PUSH1 0x20 DUP4 ADD MSTORE PUSH1 0x40 DUP2 ADD MLOAD PUSH1 0x40 DUP4 ADD MSTORE PUSH1 0x60 DUP2 ADD MLOAD PUSH1 0x60 DUP4 ADD MSTORE PUSH1 0x80 DUP2 ADD MLOAD PUSH1 0x80 DUP4 ADD MSTORE PUSH1 0xA0 DUP2 ADD MLOAD PUSH1 0xA0 DUP4 ADD MSTORE PUSH1 0x1 DUP1 PUSH1 0xA0 SHL SUB PUSH1 0xC0 DUP3 ADD MLOAD AND PUSH1 0xC0 DUP4 ADD MSTORE PUSH1 0xE0 DUP2 ADD MLOAD PUSH1 0xE0 DUP4 ADD MSTORE PUSH2 0x100 DUP1 SWAP2 ADD MLOAD SWAP2 ADD MSTORE JUMP JUMPDEST CALLVALUE PUSH2 0xB94 JUMPI PUSH1 0x20 DUP1 PUSH1 0x3 NOT CALLDATASIZE ADD SLT PUSH2 0xB94 JUMPI PUSH1 0x1 PUSH1 0x1 PUSH1 0xA0 SHL SUB PUSH2 0x30FB PUSH2 0x3065 JUMP JUMPDEST AND SWAP1 PUSH1 0x0 SWAP2 DUP3 MSTORE PUSH1 0xA DUP2 MSTORE PUSH1 0x40 DUP3 KECCAK256 DUP1 SLOAD PUSH2 0x3115 DUP2 PUSH2 0x3664 JUMP JUMPDEST SWAP1 PUSH2 0x3123 PUSH1 0x40 MLOAD SWAP3 DUP4 PUSH2 0x34BD JUMP JUMPDEST DUP1 DUP3 MSTORE DUP4 DUP3 ADD DUP1 SWAP4 DUP7 MSTORE DUP5 DUP7 KECCAK256 DUP7 SWAP2 JUMPDEST DUP4 DUP4 LT PUSH2 0x3185 JUMPI POP POP POP POP PUSH1 0x40 MLOAD SWAP3 DUP1 DUP5 ADD SWAP2 DUP2 DUP6 MSTORE MLOAD DUP1 SWAP3 MSTORE PUSH1 0x40 DUP5 ADD SWAP3 SWAP5 JUMPDEST DUP3 DUP2 LT PUSH2 0x3161 JUMPI DUP5 DUP5 SUB DUP6 RETURN JUMPDEST SWAP1 SWAP2 SWAP3 DUP3 PUSH2 0x120 DUP3 PUSH2 0x3176 PUSH1 0x1 SWAP5 DUP11 MLOAD PUSH2 0x307B JUMP JUMPDEST ADD SWAP7 ADD SWAP2 ADD SWAP5 SWAP3 SWAP2 SWAP1 SWAP5 PUSH2 0x3154 JUMP JUMPDEST PUSH1 0x9 DUP8 PUSH1 0x1 SWAP3 PUSH2 0x3199 DUP6 SWAP12 SWAP11 SWAP9 SWAP10 SWAP12 PUSH2 0x36C0 JUMP JUMPDEST DUP2 MSTORE ADD SWAP3 ADD SWAP3 ADD SWAP2 SWAP1 SWAP7 SWAP5 SWAP4 SWAP6 SWAP7 PUSH2 0x3133 JUMP JUMPDEST SWAP1 DUP2 MLOAD DUP1 DUP3 MSTORE PUSH1 0x20 DUP1 DUP1 SWAP4 ADD SWAP4 ADD SWAP2 PUSH1 0x0 JUMPDEST DUP3 DUP2 LT PUSH2 0x31CC JUMPI POP POP POP POP SWAP1 JUMP JUMPDEST DUP4 MLOAD DUP6 MSTORE SWAP4 DUP2 ADD SWAP4 SWAP3 DUP2 ADD SWAP3 PUSH1 0x1 ADD PUSH2 0x31BE JUMP JUMPDEST CALLVALUE PUSH2 0xB94 JUMPI PUSH1 0x0 CALLDATASIZE PUSH1 0x3 NOT ADD SLT PUSH2 0xB94 JUMPI PUSH1 0x20 PUSH1 0x40 MLOAD PUSH1 0x0 DUP2 MSTORE RETURN JUMPDEST CALLVALUE PUSH2 0xB94 JUMPI PUSH1 0x20 CALLDATASIZE PUSH1 0x3 NOT ADD SLT PUSH2 0xB94 JUMPI PUSH1 0x1 PUSH1 0x1 PUSH1 0xA0 SHL SUB PUSH2 0x321D PUSH2 0x3065 JUMP JUMPDEST AND PUSH1 0x0 MSTORE PUSH1 0xA PUSH1 0x20 MSTORE PUSH1 0x20 PUSH1 0x40 PUSH1 0x0 KECCAK256 SLOAD PUSH1 0x40 MLOAD SWAP1 DUP2 MSTORE RETURN JUMPDEST SWAP2 SWAP1 DUP3 MLOAD SWAP3 DUP4 DUP3 MSTORE PUSH1 0x0 JUMPDEST DUP5 DUP2 LT PUSH2 0x3262 JUMPI POP POP DUP3 PUSH1 0x0 PUSH1 0x20 DUP1 SWAP5 SWAP6 DUP5 ADD ADD MSTORE PUSH1 0x1F DUP1 NOT SWAP2 ADD AND ADD ADD SWAP1 JUMP JUMPDEST PUSH1 0x20 DUP2 DUP4 ADD DUP2 ADD MLOAD DUP5 DUP4 ADD DUP3 ADD MSTORE ADD PUSH2 0x3241 JUMP JUMPDEST DUP1 PUSH1 0x0 MSTORE PUSH1 0x0 PUSH1 0x20 MSTORE PUSH1 0x40 PUSH1 0x0 KECCAK256 CALLER PUSH1 0x0 MSTORE PUSH1 0x20 MSTORE PUSH1 0xFF PUSH1 0x40 PUSH1 0x0 KECCAK256 SLOAD AND ISZERO PUSH2 0x329C JUMPI POP JUMP JUMPDEST PUSH1 0x44 SWAP1 PUSH1 0x40 MLOAD SWAP1 PUSH4 0xE2517D3F PUSH1 0xE0 SHL DUP3 MSTORE CALLER PUSH1 0x4 DUP4 ADD MSTORE PUSH1 0x24 DUP3 ADD MSTORE REVERT JUMPDEST SWAP1 PUSH1 0x0 SWAP2 DUP1 DUP4 MSTORE DUP3 PUSH1 0x20 MSTORE PUSH1 0x40 DUP4 KECCAK256 SWAP2 PUSH1 0x1 DUP1 PUSH1 0xA0 SHL SUB AND SWAP2 DUP3 DUP5 MSTORE PUSH1 0x20 MSTORE PUSH1 0xFF PUSH1 0x40 DUP5 KECCAK256 SLOAD AND ISZERO PUSH1 0x0 EQ PUSH2 0x3333 JUMPI DUP1 DUP4 MSTORE DUP3 PUSH1 0x20 MSTORE PUSH1 0x40 DUP4 KECCAK256 DUP3 DUP5 MSTORE PUSH1 0x20 MSTORE PUSH1 0x40 DUP4 KECCAK256 PUSH1 0x1 PUSH1 0xFF NOT DUP3 SLOAD AND OR SWAP1 SSTORE PUSH32 0x2F8788117E7EFF1D82E926EC794901D17C78024A50270940304540A733656F0D CALLER SWAP4 DUP1 LOG4 PUSH1 0x1 SWAP1 JUMP JUMPDEST POP POP SWAP1 JUMP JUMPDEST SWAP1 PUSH1 0x0 SWAP2 DUP1 DUP4 MSTORE DUP3 PUSH1 0x20 MSTORE PUSH1 0x40 DUP4 KECCAK256 SWAP2 PUSH1 0x1 DUP1 PUSH1 0xA0 SHL SUB AND SWAP2 DUP3 DUP5 MSTORE PUSH1 0x20 MSTORE PUSH1 0xFF PUSH1 0x40 DUP5 KECCAK256 SLOAD AND PUSH1 0x0 EQ PUSH2 0x3333 JUMPI DUP1 DUP4 MSTORE DUP3 PUSH1 0x20 MSTORE PUSH1 0x40 DUP4 KECCAK256 DUP3 DUP5 MSTORE PUSH1 0x20 MSTORE PUSH1 0x40 DUP4 KECCAK256 PUSH1 0xFF NOT DUP2 SLOAD AND SWAP1 SSTORE PUSH32 0xF6391F5C32D9C69D2A47EA670B442974B53935D1EDC7FD64EB21E047A839171B CALLER SWAP4 DUP1 LOG4 PUSH1 0x1 SWAP1 JUMP JUMPDEST ISZERO PUSH2 0x33B4 JUMPI JUMP JUMPDEST PUSH1 0x40 MLOAD PUSH3 0x461BCD PUSH1 0xE5 SHL DUP2 MSTORE PUSH1 0x20 PUSH1 0x4 DUP3 ADD MSTORE PUSH1 0x19 PUSH1 0x24 DUP3 ADD MSTORE PUSH32 0x5061636B6167654D616E616765723A204E6F742061646D696E00000000000000 PUSH1 0x44 DUP3 ADD MSTORE PUSH1 0x64 SWAP1 REVERT JUMPDEST ISZERO PUSH2 0x3400 JUMPI JUMP JUMPDEST PUSH1 0x40 MLOAD PUSH3 0x461BCD PUSH1 0xE5 SHL DUP2 MSTORE PUSH1 0x20 PUSH1 0x4 DUP3 ADD MSTORE PUSH1 0x25 PUSH1 0x24 DUP3 ADD MSTORE PUSH32 0x5061636B6167654D616E616765723A20496E76616C69642065786368616E6765 PUSH1 0x44 DUP3 ADD MSTORE PUSH5 0x2072617465 PUSH1 0xD8 SHL PUSH1 0x64 DUP3 ADD MSTORE PUSH1 0x84 SWAP1 REVERT JUMPDEST PUSH1 0x0 NOT DUP2 EQ PUSH2 0x3462 JUMPI PUSH1 0x1 ADD SWAP1 JUMP JUMPDEST PUSH4 0x4E487B71 PUSH1 0xE0 SHL PUSH1 0x0 MSTORE PUSH1 0x11 PUSH1 0x4 MSTORE PUSH1 0x24 PUSH1 0x0 REVERT JUMPDEST PUSH2 0x120 DUP2 ADD SWAP1 DUP2 LT PUSH1 0x1 PUSH1 0x1 PUSH1 0x40 SHL SUB DUP3 GT OR PUSH2 0x3494 JUMPI PUSH1 0x40 MSTORE JUMP JUMPDEST PUSH4 0x4E487B71 PUSH1 0xE0 SHL PUSH1 0x0 MSTORE PUSH1 0x41 PUSH1 0x4 MSTORE PUSH1 0x24 PUSH1 0x0 REVERT JUMPDEST PUSH1 0x1 PUSH1 0x1 PUSH1 0x40 SHL SUB DUP2 GT PUSH2 0x3494 JUMPI PUSH1 0x40 MSTORE JUMP JUMPDEST SWAP1 PUSH1 0x1F DUP1 NOT SWAP2 ADD AND DUP2 ADD SWAP1 DUP2 LT PUSH1 0x1 PUSH1 0x1 PUSH1 0x40 SHL SUB DUP3 GT OR PUSH2 0x3494 JUMPI PUSH1 0x40 MSTORE JUMP JUMPDEST PUSH1 0x1 PUSH1 0x1 PUSH1 0x40 SHL SUB DUP2 GT PUSH2 0x3494 JUMPI PUSH1 0x1F ADD PUSH1 0x1F NOT AND PUSH1 0x20 ADD SWAP1 JUMP JUMPDEST SWAP1 PUSH1 0x1 DUP3 DUP2 SHR SWAP3 AND DUP1 ISZERO PUSH2 0x3529 JUMPI JUMPDEST PUSH1 0x20 DUP4 LT EQ PUSH2 0x3513 JUMPI JUMP JUMPDEST PUSH4 0x4E487B71 PUSH1 0xE0 SHL PUSH1 0x0 MSTORE PUSH1 0x22 PUSH1 0x4 MSTORE PUSH1 0x24 PUSH1 0x0 REVERT JUMPDEST SWAP2 PUSH1 0x7F AND SWAP2 PUSH2 0x3508 JUMP JUMPDEST PUSH1 0x7 SLOAD DUP2 LT ISZERO PUSH2 0x356A JUMPI PUSH1 0x7 PUSH1 0x0 MSTORE PUSH32 0xA66CC928B5EDB82AF9BD49922954155AB7B0942694BEA4CE44661D9A8736C688 ADD SWAP1 PUSH1 0x0 SWAP1 JUMP JUMPDEST PUSH4 0x4E487B71 PUSH1 0xE0 SHL PUSH1 0x0 MSTORE PUSH1 0x32 PUSH1 0x4 MSTORE PUSH1 0x24 PUSH1 0x0 REVERT JUMPDEST DUP1 SLOAD SWAP1 PUSH1 0x1 PUSH1 0x40 SHL DUP3 LT ISZERO PUSH2 0x3494 JUMPI PUSH1 0x1 DUP3 ADD DUP1 DUP3 SSTORE DUP3 LT ISZERO PUSH2 0x356A JUMPI PUSH1 0x0 MSTORE PUSH1 0x20 PUSH1 0x0 KECCAK256 ADD SSTORE JUMP JUMPDEST PUSH1 0xFF PUSH1 0x2 SLOAD AND PUSH2 0x35B5 JUMPI JUMP JUMPDEST PUSH1 0x40 MLOAD PUSH4 0xD93C0665 PUSH1 0xE0 SHL DUP2 MSTORE PUSH1 0x4 SWAP1 REVERT JUMPDEST ISZERO PUSH2 0x35CE JUMPI JUMP JUMPDEST PUSH1 0x40 MLOAD PUSH3 0x461BCD PUSH1 0xE5 SHL DUP2 MSTORE PUSH1 0x20 PUSH1 0x4 DUP3 ADD MSTORE PUSH1 0x1F PUSH1 0x24 DUP3 ADD MSTORE PUSH32 0x5061636B6167654D616E616765723A20496E76616C6964207061636B61676500 PUSH1 0x44 DUP3 ADD MSTORE PUSH1 0x64 SWAP1 REVERT JUMPDEST SWAP1 PUSH1 0x40 MLOAD SWAP2 DUP3 DUP2 SLOAD SWAP2 DUP3 DUP3 MSTORE PUSH1 0x20 SWAP3 DUP4 DUP4 ADD SWAP2 PUSH1 0x0 MSTORE DUP4 PUSH1 0x0 KECCAK256 SWAP4 PUSH1 0x0 SWAP1 JUMPDEST DUP3 DUP3 LT PUSH2 0x364A JUMPI POP POP POP PUSH2 0x3648 SWAP3 POP SUB DUP4 PUSH2 0x34BD JUMP JUMPDEST JUMP JUMPDEST DUP6 SLOAD DUP5 MSTORE PUSH1 0x1 SWAP6 DUP7 ADD SWAP6 DUP9 SWAP6 POP SWAP4 DUP2 ADD SWAP4 SWAP1 SWAP2 ADD SWAP1 PUSH2 0x3632 JUMP JUMPDEST PUSH1 0x1 PUSH1 0x1 PUSH1 0x40 SHL SUB DUP2 GT PUSH2 0x3494 JUMPI PUSH1 0x5 SHL PUSH1 0x20 ADD SWAP1 JUMP JUMPDEST PUSH1 0x40 MLOAD SWAP1 PUSH2 0x3688 DUP3 PUSH2 0x3478 JUMP JUMPDEST DUP2 PUSH2 0x100 PUSH1 0x0 SWAP2 DUP3 DUP2 MSTORE DUP3 PUSH1 0x20 DUP3 ADD MSTORE DUP3 PUSH1 0x40 DUP3 ADD MSTORE DUP3 PUSH1 0x60 DUP3 ADD MSTORE DUP3 PUSH1 0x80 DUP3 ADD MSTORE DUP3 PUSH1 0xA0 DUP3 ADD MSTORE DUP3 PUSH1 0xC0 DUP3 ADD MSTORE DUP3 PUSH1 0xE0 DUP3 ADD MSTORE ADD MSTORE JUMP JUMPDEST SWAP1 PUSH1 0x40 MLOAD PUSH2 0x36CD DUP2 PUSH2 0x3478 JUMP JUMPDEST DUP3 SLOAD DUP2 MSTORE PUSH1 0x1 DUP4 ADD SLOAD PUSH1 0x20 DUP3 ADD MSTORE PUSH1 0x2 DUP4 ADD SLOAD PUSH1 0x40 DUP3 ADD MSTORE PUSH1 0x3 DUP4 ADD SLOAD PUSH1 0x60 DUP3 ADD MSTORE PUSH1 0x4 DUP4 ADD SLOAD PUSH1 0x80 DUP3 ADD MSTORE PUSH1 0x5 DUP4 ADD SLOAD PUSH1 0xA0 DUP3 ADD MSTORE PUSH1 0x6 DUP4 ADD SLOAD PUSH1 0x1 PUSH1 0x1 PUSH1 0xA0 SHL SUB AND PUSH1 0xC0 DUP3 ADD MSTORE PUSH1 0x7 DUP4 ADD SLOAD PUSH1 0xE0 DUP3 ADD MSTORE PUSH1 0x8 SWAP1 SWAP3 ADD SLOAD PUSH2 0x100 DUP4 ADD MSTORE JUMP JUMPDEST DUP1 SLOAD DUP3 LT ISZERO PUSH2 0x356A JUMPI PUSH1 0x0 MSTORE PUSH1 0x9 PUSH1 0x20 PUSH1 0x0 KECCAK256 SWAP2 MUL ADD SWAP1 PUSH1 0x0 SWAP1 JUMP JUMPDEST DUP2 DUP2 MUL SWAP3 SWAP2 DUP2 ISZERO SWAP2 DUP5 DIV EQ OR ISZERO PUSH2 0x3462 JUMPI JUMP JUMPDEST DUP2 ISZERO PUSH2 0x3767 JUMPI DIV SWAP1 JUMP JUMPDEST PUSH4 0x4E487B71 PUSH1 0xE0 SHL PUSH1 0x0 MSTORE PUSH1 0x12 PUSH1 0x4 MSTORE PUSH1 0x24 PUSH1 0x0 REVERT JUMPDEST SWAP2 SWAP1 DUP3 SUB SWAP2 DUP3 GT PUSH2 0x3462 JUMPI JUMP JUMPDEST SWAP1 DUP2 PUSH1 0x20 SWAP2 SUB SLT PUSH2 0xB94 JUMPI MLOAD DUP1 ISZERO ISZERO DUP2 SUB PUSH2 0xB94 JUMPI SWAP1 JUMP JUMPDEST SWAP2 SWAP1 DUP3 ADD DUP1 SWAP3 GT PUSH2 0x3462 JUMPI JUMP JUMPDEST PUSH1 0x40 MLOAD PUSH4 0xA9059CBB PUSH1 0xE0 SHL PUSH1 0x20 DUP3 ADD MSTORE PUSH1 0x1 PUSH1 0x1 PUSH1 0xA0 SHL SUB SWAP3 SWAP1 SWAP3 AND PUSH1 0x24 DUP4 ADD MSTORE PUSH1 0x44 DUP1 DUP4 ADD SWAP4 SWAP1 SWAP4 MSTORE SWAP2 DUP2 MSTORE PUSH2 0x3648 SWAP2 PUSH2 0x37EB PUSH1 0x64 DUP4 PUSH2 0x34BD JUMP JUMPDEST SWAP1 PUSH1 0x0 PUSH1 0x20 SWAP2 DUP3 DUP2 MLOAD SWAP2 ADD DUP3 DUP6 GAS CALL ISZERO PUSH2 0x3847 JUMPI PUSH1 0x0 MLOAD RETURNDATASIZE PUSH2 0x383E JUMPI POP PUSH1 0x1 PUSH1 0x1 PUSH1 0xA0 SHL SUB DUP2 AND EXTCODESIZE ISZERO JUMPDEST PUSH2 0x381C JUMPI POP JUMP JUMPDEST PUSH1 0x40 MLOAD PUSH4 0x5274AFE7 PUSH1 0xE0 SHL DUP2 MSTORE PUSH1 0x1 PUSH1 0x1 PUSH1 0xA0 SHL SUB SWAP1 SWAP2 AND PUSH1 0x4 DUP3 ADD MSTORE PUSH1 0x24 SWAP1 REVERT JUMPDEST PUSH1 0x1 EQ ISZERO PUSH2 0x3815 JUMP JUMPDEST PUSH1 0x40 MLOAD RETURNDATASIZE PUSH1 0x0 DUP3 RETURNDATACOPY RETURNDATASIZE SWAP1 REVERT JUMPDEST PUSH1 0x2 PUSH1 0x1 SLOAD EQ PUSH2 0x3864 JUMPI PUSH1 0x2 PUSH1 0x1 SSTORE JUMP JUMPDEST PUSH1 0x40 MLOAD PUSH4 0x3EE5AEB5 PUSH1 0xE0 SHL DUP2 MSTORE PUSH1 0x4 SWAP1 REVERT JUMPDEST ISZERO PUSH2 0x387D JUMPI JUMP JUMPDEST PUSH1 0x40 MLOAD PUSH3 0x461BCD PUSH1 0xE5 SHL DUP2 MSTORE PUSH1 0x20 PUSH1 0x4 DUP3 ADD MSTORE PUSH1 0x21 PUSH1 0x24 DUP3 ADD MSTORE PUSH32 0x5061636B6167654D616E616765723A20496E76616C6964204C5020616D6F756E PUSH1 0x44 DUP3 ADD MSTORE PUSH1 0x1D PUSH1 0xFA SHL PUSH1 0x64 DUP3 ADD MSTORE PUSH1 0x84 SWAP1 REVERT JUMPDEST MLOAD SWAP1 PUSH1 0x1 PUSH1 0x1 PUSH1 0xA0 SHL SUB DUP3 AND DUP3 SUB PUSH2 0xB94 JUMPI JUMP JUMPDEST MLOAD SWAP1 PUSH1 0x1 PUSH1 0x1 PUSH1 0x70 SHL SUB DUP3 AND DUP3 SUB PUSH2 0xB94 JUMPI JUMP JUMPDEST SWAP1 PUSH2 0x3900 DUP3 ISZERO ISZERO PUSH2 0x3876 JUMP JUMPDEST PUSH1 0x40 DUP1 MLOAD PUSH4 0xE6A43905 PUSH1 0xE0 SHL DUP2 MSTORE PUSH1 0x1 PUSH1 0x1 PUSH1 0xA0 SHL SUB PUSH32 0x0 DUP2 AND PUSH1 0x4 DUP1 DUP5 ADD DUP3 SWAP1 MSTORE PUSH32 0x0 DUP4 AND PUSH1 0x24 DUP6 ADD MSTORE SWAP4 SWAP6 PUSH1 0x20 SWAP5 SWAP1 SWAP4 SWAP2 SWAP3 SWAP2 DUP6 DUP2 PUSH1 0x44 DUP2 PUSH32 0x0 DUP8 AND GAS STATICCALL DUP1 ISZERO PUSH2 0x3CB4 JUMPI DUP4 SWAP2 PUSH1 0x0 SWAP2 PUSH2 0x3C7D JUMPI JUMPDEST POP AND SWAP7 DUP8 ISZERO PUSH2 0x3C6A JUMPI DUP1 MLOAD PUSH4 0x70A08231 PUSH1 0xE0 SHL DUP2 MSTORE ADDRESS DUP4 DUP3 ADD MSTORE DUP7 DUP2 PUSH1 0x24 DUP2 DUP13 GAS STATICCALL SWAP1 DUP2 ISZERO PUSH2 0x3C5F JUMPI PUSH1 0x0 SWAP2 PUSH2 0x3C32 JUMPI JUMPDEST POP DUP2 MLOAD SWAP1 PUSH4 0x18160DDD PUSH1 0xE0 SHL SWAP7 DUP8 DUP4 MSTORE DUP9 DUP4 DUP7 DUP2 DUP10 PUSH32 0x0 AND GAS STATICCALL SWAP3 DUP4 ISZERO PUSH2 0x3B72 JUMPI PUSH1 0x0 SWAP4 PUSH2 0x3C03 JUMPI JUMPDEST POP DUP3 ISZERO DUP1 ISZERO PUSH2 0x3BFB JUMPI JUMPDEST PUSH2 0x3BE5 JUMPI PUSH2 0x3A47 SWAP3 SWAP2 PUSH2 0x3A42 SWAP2 PUSH2 0x374A JUMP JUMPDEST PUSH2 0x375D JUMP JUMPDEST SWAP6 DUP2 MLOAD PUSH4 0x240BC6B PUSH1 0xE2 SHL DUP2 MSTORE PUSH1 0x60 DUP2 DUP6 DUP2 DUP14 GAS STATICCALL SWAP7 DUP8 ISZERO PUSH2 0x3BDA JUMPI SWAP1 DUP11 SWAP2 PUSH1 0x0 SWAP2 DUP3 SWAP10 PUSH2 0x3B7D JUMPI JUMPDEST POP DUP4 SWAP1 DUP7 DUP7 MLOAD DUP1 SWAP6 DUP2 SWAP4 DUP3 MSTORE GAS STATICCALL SWAP2 DUP3 ISZERO PUSH2 0x3B72 JUMPI PUSH1 0x0 SWAP3 PUSH2 0x3B43 JUMPI JUMPDEST POP DUP2 ISZERO PUSH2 0x3B32 JUMPI DUP2 PUSH2 0x3A42 PUSH2 0x3ABE SWAP3 PUSH2 0x3AB6 DUP7 SWAP6 PUSH2 0x3A42 DUP15 PUSH1 0x1 PUSH1 0x1 PUSH1 0x70 SHL SUB DUP1 SWAP6 AND SWAP1 PUSH2 0x374A JUMP JUMPDEST SWAP11 AND DUP12 PUSH2 0x374A JUMP JUMPDEST SWAP10 DUP4 MLOAD SWAP5 DUP6 DUP1 SWAP3 PUSH4 0xDFE1681 PUSH1 0xE0 SHL DUP3 MSTORE GAS STATICCALL SWAP2 DUP3 ISZERO PUSH2 0x3B28 JUMPI POP PUSH1 0x0 SWAP2 PUSH2 0x3AF4 JUMPI JUMPDEST POP SWAP1 POP AND EQ PUSH1 0x0 EQ PUSH2 0x3AF1 JUMPI SWAP3 SWAP2 JUMP JUMPDEST SWAP2 JUMP JUMPDEST DUP3 DUP2 RETURNDATASIZE DUP4 GT PUSH2 0x3B21 JUMPI JUMPDEST PUSH2 0x3B08 DUP2 DUP4 PUSH2 0x34BD JUMP JUMPDEST DUP2 ADD SUB SLT PUSH2 0x29C JUMPI POP PUSH2 0x3B1A SWAP1 PUSH2 0x38CC JUMP JUMPDEST DUP1 CODESIZE PUSH2 0x3AE1 JUMP JUMPDEST POP RETURNDATASIZE PUSH2 0x3AFE JUMP JUMPDEST MLOAD RETURNDATASIZE PUSH1 0x0 DUP3 RETURNDATACOPY RETURNDATASIZE SWAP1 REVERT JUMPDEST POP PUSH1 0x0 SWAP10 POP DUP10 SWAP9 SWAP7 POP POP POP POP POP POP POP JUMP JUMPDEST SWAP1 SWAP2 DUP4 DUP3 DUP2 RETURNDATASIZE DUP4 GT PUSH2 0x3B6B JUMPI JUMPDEST PUSH2 0x3B5A DUP2 DUP4 PUSH2 0x34BD JUMP JUMPDEST DUP2 ADD SUB SLT PUSH2 0x29C JUMPI POP MLOAD SWAP1 CODESIZE PUSH2 0x3A8D JUMP JUMPDEST POP RETURNDATASIZE PUSH2 0x3B50 JUMP JUMPDEST DUP5 MLOAD RETURNDATASIZE PUSH1 0x0 DUP3 RETURNDATACOPY RETURNDATASIZE SWAP1 REVERT JUMPDEST SWAP3 POP SWAP8 POP PUSH1 0x60 DUP3 RETURNDATASIZE DUP3 GT PUSH2 0x3BD2 JUMPI JUMPDEST DUP2 PUSH2 0x3B99 PUSH1 0x60 SWAP4 DUP4 PUSH2 0x34BD JUMP JUMPDEST DUP2 ADD SUB SLT PUSH2 0x29C JUMPI PUSH2 0x3BAA DUP3 PUSH2 0x38E0 JUMP JUMPDEST SWAP1 DUP5 PUSH2 0x3BB7 DUP6 DUP6 ADD PUSH2 0x38E0 JUMP JUMPDEST SWAP4 ADD MLOAD PUSH4 0xFFFFFFFF DUP2 AND SUB PUSH2 0x29C JUMPI POP SWAP1 SWAP7 DUP11 SWAP2 SWAP1 DUP4 PUSH2 0x3A70 JUMP JUMPDEST RETURNDATASIZE SWAP2 POP PUSH2 0x3B8C JUMP JUMPDEST DUP4 MLOAD RETURNDATASIZE PUSH1 0x0 DUP3 RETURNDATACOPY RETURNDATASIZE SWAP1 REVERT JUMPDEST POP POP POP POP POP POP POP POP POP SWAP1 POP PUSH1 0x0 SWAP1 PUSH1 0x0 SWAP1 PUSH1 0x0 SWAP1 JUMP JUMPDEST POP DUP2 ISZERO PUSH2 0x3A30 JUMP JUMPDEST SWAP1 SWAP3 DUP10 DUP3 DUP2 RETURNDATASIZE DUP4 GT PUSH2 0x3C2B JUMPI JUMPDEST PUSH2 0x3C1A DUP2 DUP4 PUSH2 0x34BD JUMP JUMPDEST DUP2 ADD SUB SLT PUSH2 0x29C JUMPI POP MLOAD SWAP2 CODESIZE PUSH2 0x3A26 JUMP JUMPDEST POP RETURNDATASIZE PUSH2 0x3C10 JUMP JUMPDEST SWAP1 DUP8 DUP3 DUP2 RETURNDATASIZE DUP4 GT PUSH2 0x3C58 JUMPI JUMPDEST PUSH2 0x3C48 DUP2 DUP4 PUSH2 0x34BD JUMP JUMPDEST DUP2 ADD SUB SLT PUSH2 0x29C JUMPI POP MLOAD CODESIZE PUSH2 0x39DE JUMP JUMPDEST POP RETURNDATASIZE PUSH2 0x3C3E JUMP JUMPDEST DUP3 MLOAD RETURNDATASIZE PUSH1 0x0 DUP3 RETURNDATACOPY RETURNDATASIZE SWAP1 REVERT JUMPDEST POP POP POP POP POP POP SWAP1 POP PUSH1 0x0 SWAP1 PUSH1 0x0 SWAP1 PUSH1 0x0 SWAP1 JUMP JUMPDEST SWAP2 POP DUP7 DUP3 DUP2 RETURNDATASIZE DUP4 GT PUSH2 0x3CAD JUMPI JUMPDEST PUSH2 0x3C94 DUP2 DUP4 PUSH2 0x34BD JUMP JUMPDEST DUP2 ADD SUB SLT PUSH2 0x29C JUMPI POP PUSH2 0x3CA7 DUP4 SWAP2 PUSH2 0x38CC JUMP JUMPDEST CODESIZE PUSH2 0x39AD JUMP JUMPDEST POP RETURNDATASIZE PUSH2 0x3C8A JUMP JUMPDEST DUP9 MLOAD RETURNDATASIZE PUSH1 0x0 DUP3 RETURNDATACOPY RETURNDATASIZE SWAP1 REVERT JUMPDEST PUSH1 0x40 DUP1 MLOAD PUSH4 0x67403B61 PUSH1 0xE0 SHL DUP2 MSTORE PUSH32 0x995C68A7874AB62E799137BC19B39D4CDD1C165240E636649FBA7EDFDA9D16C8 PUSH1 0x4 DUP3 ADD DUP2 SWAP1 MSTORE PUSH1 0x1 PUSH1 0x1 PUSH1 0xA0 SHL SUB DUP4 DUP4 PUSH1 0x24 DUP2 PUSH32 0x0 DUP6 AND GAS STATICCALL SWAP3 DUP4 ISZERO PUSH2 0x3B72 JUMPI PUSH1 0x0 SWAP1 DUP2 SWAP5 PUSH2 0x3DDB JUMPI JUMPDEST POP PUSH2 0xFFFF AND DUP1 ISZERO ISZERO DUP1 PUSH2 0x3DD0 JUMPI JUMPDEST PUSH2 0x3D53 JUMPI JUMPDEST POP POP POP POP POP SWAP1 JUMP JUMPDEST PUSH2 0x3D60 PUSH2 0x2710 SWAP2 DUP8 PUSH2 0x374A JUMP JUMPDEST DIV SWAP4 DUP5 ISZERO PUSH2 0x3D4B JUMPI PUSH1 0x20 DUP3 PUSH32 0x9AD5F576AD2DC5ABD88AEE00524464D5AAFCD7F0A8D0141FD6A2B7CF76130E08 SWAP3 PUSH2 0x3DC0 DUP9 DUP9 PUSH2 0x3DCD SWAP12 SWAP10 SWAP9 SWAP8 PUSH32 0x0 AND PUSH2 0x37AF JUMP JUMPDEST MLOAD SWAP5 DUP8 DUP7 MSTORE AND SWAP4 LOG3 PUSH2 0x377D JUMP JUMPDEST SWAP1 JUMP JUMPDEST POP DUP2 DUP5 AND ISZERO ISZERO PUSH2 0x3D46 JUMP JUMPDEST SWAP1 SWAP4 POP DUP5 DUP2 DUP2 RETURNDATASIZE DUP4 GT PUSH2 0x3E20 JUMPI JUMPDEST PUSH2 0x3DF3 DUP2 DUP4 PUSH2 0x34BD JUMP JUMPDEST DUP2 ADD SUB SLT PUSH2 0x294F JUMPI DUP1 MLOAD SWAP4 PUSH2 0xFFFF DUP6 AND DUP6 SUB PUSH2 0x29C JUMPI POP PUSH2 0x3E19 PUSH1 0x20 PUSH2 0xFFFF SWAP3 ADD PUSH2 0x38CC JUMP JUMPDEST SWAP4 SWAP1 PUSH2 0x3D38 JUMP JUMPDEST POP RETURNDATASIZE PUSH2 0x3DE9 JUMP JUMPDEST PUSH1 0x1 PUSH1 0x1 PUSH1 0xA0 SHL SUB AND PUSH1 0x0 DUP2 DUP2 MSTORE PUSH1 0x9 PUSH1 0x20 MSTORE PUSH1 0x40 DUP2 KECCAK256 PUSH1 0x7 DUP2 ADD DUP1 SLOAD SWAP3 SWAP5 SWAP3 PUSH1 0x1 DUP2 ADD SWAP2 SWAP1 DUP3 LT PUSH2 0x1AB8 JUMPI SWAP3 PUSH1 0x8 PUSH1 0x40 SWAP6 SWAP4 PUSH2 0x3E82 SWAP4 PUSH2 0x3648 SWAP9 SWAP7 SSTORE ADD PUSH2 0x3E70 DUP3 DUP3 SLOAD PUSH2 0x37A2 JUMP JUMPDEST SWAP1 SSTORE DUP3 DUP5 MSTORE PUSH1 0xB PUSH1 0x20 MSTORE DUP5 DUP5 KECCAK256 PUSH2 0x3580 JUMP JUMPDEST DUP2 MSTORE PUSH1 0xC PUSH1 0x20 MSTORE KECCAK256 TIMESTAMP SWAP1 PUSH2 0x3580 JUMP JUMPDEST PUSH1 0x0 PUSH1 0x44 RETURNDATASIZE LT PUSH2 0x3DCD JUMPI PUSH1 0x40 MLOAD PUSH1 0x3 NOT SWAP2 RETURNDATASIZE DUP4 ADD PUSH1 0x4 DUP4 RETURNDATACOPY DUP2 MLOAD PUSH1 0x1 PUSH1 0x1 PUSH1 0x40 SHL SUB SWAP2 DUP3 DUP3 GT RETURNDATASIZE PUSH1 0x24 DUP5 ADD GT OR PUSH2 0x3EEE JUMPI DUP2 DUP5 ADD SWAP5 DUP6 MLOAD SWAP4 DUP5 GT PUSH2 0x3EF6 JUMPI RETURNDATASIZE DUP6 ADD ADD PUSH1 0x20 DUP5 DUP8 ADD ADD GT PUSH2 0x3EEE JUMPI POP PUSH2 0x3DCD SWAP3 SWAP2 ADD PUSH1 0x20 ADD SWAP1 PUSH2 0x34BD JUMP JUMPDEST SWAP5 SWAP4 POP POP POP POP JUMP JUMPDEST POP SWAP5 SWAP4 POP POP POP POP JUMP JUMPDEST SWAP2 SWAP1 SWAP3 PUSH1 0x5 SLOAD PUSH2 0x2710 SWAP1 DUP2 SUB SWAP1 DUP1 DUP3 GT PUSH2 0x3462 JUMPI PUSH2 0x3F29 DUP2 PUSH2 0x3F21 DUP5 DUP8 PUSH2 0x374A JUMP JUMPDEST DIV SWAP3 DUP5 PUSH2 0x374A JUMP JUMPDEST DIV DUP6 PUSH1 0x40 MLOAD PUSH32 0xC8AF3886655C52B7EBBBCFC08757E97B8BBD122D4EF3E5E6FD92524497C4360F PUSH1 0x1 DUP1 PUSH1 0xA0 SHL SUB DUP9 AND SWAP2 DUP1 PUSH2 0x3F7E DUP8 DUP8 DUP12 DUP12 DUP6 SWAP1 SWAP5 SWAP4 SWAP3 PUSH1 0x60 SWAP3 PUSH1 0x80 DUP4 ADD SWAP7 DUP4 MSTORE PUSH1 0x20 DUP4 ADD MSTORE PUSH1 0x40 DUP3 ADD MSTORE ADD MSTORE JUMP JUMPDEST SUB SWAP1 LOG3 PUSH1 0x40 MLOAD PUSH4 0x95EA7B3 PUSH1 0xE0 SHL DUP2 MSTORE PUSH32 0x0 PUSH1 0x1 PUSH1 0x1 PUSH1 0xA0 SHL SUB AND PUSH1 0x4 DUP3 ADD MSTORE PUSH1 0x24 DUP2 ADD DUP6 SWAP1 MSTORE PUSH1 0x20 DUP2 DUP1 PUSH1 0x44 DUP2 ADD SUB DUP2 PUSH1 0x0 PUSH32 0x0 PUSH1 0x1 PUSH1 0x1 PUSH1 0xA0 SHL SUB AND GAS CALL SWAP1 DUP2 ISZERO PUSH2 0x3847 JUMPI PUSH1 0x0 SWAP2 PUSH2 0x43E4 JUMPI JUMPDEST POP ISZERO PUSH2 0x4393 JUMPI PUSH1 0x40 MLOAD PUSH4 0x95EA7B3 PUSH1 0xE0 SHL DUP2 MSTORE PUSH1 0x1 PUSH1 0x1 PUSH1 0xA0 SHL SUB PUSH32 0x0 DUP2 AND PUSH1 0x4 DUP4 ADD MSTORE PUSH1 0x24 DUP3 ADD DUP6 SWAP1 MSTORE PUSH32 0x0 AND SWAP3 SWAP1 PUSH1 0x20 DUP2 PUSH1 0x44 DUP2 PUSH1 0x0 DUP9 GAS CALL SWAP1 DUP2 ISZERO PUSH2 0x3847 JUMPI PUSH1 0x0 SWAP2 PUSH2 0x4374 JUMPI JUMPDEST POP ISZERO PUSH2 0x4321 JUMPI PUSH2 0x40A5 PUSH1 0x3 SLOAD TIMESTAMP PUSH2 0x37A2 JUMP JUMPDEST SWAP2 PUSH1 0x40 MLOAD SWAP4 PUSH3 0xE8E337 PUSH1 0xE8 SHL DUP6 MSTORE PUSH1 0x4 DUP6 ADD MSTORE PUSH1 0x1 DUP1 PUSH1 0xA0 SHL SUB PUSH32 0x0 AND PUSH1 0x24 DUP6 ADD MSTORE DUP5 PUSH1 0x44 DUP6 ADD MSTORE DUP6 PUSH1 0x64 DUP6 ADD MSTORE PUSH1 0x84 DUP5 ADD MSTORE PUSH1 0xA4 DUP4 ADD MSTORE ADDRESS PUSH1 0xC4 DUP4 ADD MSTORE PUSH1 0xE4 DUP3 ADD MSTORE PUSH1 0x60 SWAP2 DUP3 DUP3 PUSH2 0x104 DUP2 PUSH1 0x0 PUSH1 0x1 DUP1 PUSH1 0xA0 SHL SUB PUSH32 0x0 AND GAS CALL SWAP2 PUSH1 0x0 DUP4 PUSH1 0x0 SWAP3 PUSH1 0x0 SWAP6 PUSH2 0x42E4 JUMPI JUMPDEST POP PUSH2 0x4235 JUMPI POP POP POP POP PUSH1 0x0 PUSH1 0x3 RETURNDATASIZE GT PUSH2 0x4223 JUMPI JUMPDEST PUSH4 0x8C379A0 EQ PUSH2 0x4204 JUMPI JUMPDEST RETURNDATASIZE ISZERO PUSH2 0x41FF JUMPI POP RETURNDATASIZE PUSH2 0x417C DUP2 PUSH2 0x34DE JUMP JUMPDEST SWAP1 PUSH2 0x418A PUSH1 0x40 MLOAD SWAP3 DUP4 PUSH2 0x34BD JUMP JUMPDEST DUP2 MSTORE RETURNDATASIZE PUSH1 0x0 PUSH1 0x20 DUP4 ADD RETURNDATACOPY JUMPDEST DUP1 MLOAD ISZERO PUSH2 0x41AC JUMPI SWAP3 PUSH2 0x41A7 SWAP4 SWAP3 PUSH2 0x4403 JUMP JUMPDEST PUSH1 0x0 SWAP1 JUMP JUMPDEST POP PUSH1 0x40 MLOAD SWAP3 PUSH1 0x40 DUP5 ADD SWAP4 DUP1 DUP6 LT PUSH1 0x1 PUSH1 0x1 PUSH1 0x40 SHL SUB DUP7 GT OR PUSH2 0x3494 JUMPI PUSH2 0x41A7 SWAP5 PUSH1 0x40 MSTORE PUSH1 0x17 DUP2 MSTORE PUSH32 0x556E6B6E6F776E206C6F772D6C6576656C206572726F72000000000000000000 PUSH1 0x20 DUP3 ADD MSTORE SWAP3 PUSH2 0x4403 JUMP JUMPDEST PUSH2 0x4195 JUMP JUMPDEST PUSH2 0x420C PUSH2 0x3E91 JUMP JUMPDEST DUP1 PUSH2 0x4217 JUMPI POP PUSH2 0x416B JUMP JUMPDEST SWAP3 PUSH2 0x41A7 SWAP5 SWAP2 POP PUSH2 0x4403 JUMP JUMPDEST POP PUSH1 0x4 PUSH1 0x0 DUP1 RETURNDATACOPY PUSH1 0x0 MLOAD PUSH1 0xE0 SHR PUSH2 0x4160 JUMP JUMPDEST DUP4 SWAP8 SWAP7 SWAP3 SWAP6 SWAP4 ISZERO PUSH2 0x428A JUMPI PUSH32 0xC7453E3EF562C31977302710E5FF58AE67AD8FA521DCDD8C76F877C4C0D91368 SWAP5 PUSH1 0xA0 SWAP5 PUSH1 0x40 MLOAD SWAP8 DUP9 MSTORE PUSH1 0x20 DUP9 ADD MSTORE DUP9 PUSH1 0x40 DUP9 ADD MSTORE DUP7 ADD MSTORE PUSH1 0x80 DUP6 ADD MSTORE PUSH1 0x1 DUP1 DUP4 SHL SUB AND SWAP3 LOG3 SWAP1 JUMP JUMPDEST PUSH1 0x40 MLOAD PUSH3 0x461BCD PUSH1 0xE5 SHL DUP2 MSTORE PUSH1 0x20 PUSH1 0x4 DUP3 ADD MSTORE PUSH1 0x2C PUSH1 0x24 DUP3 ADD MSTORE PUSH32 0x5061636B6167654D616E616765723A204E6F206C697175696469747920746F6B PUSH1 0x44 DUP3 ADD MSTORE PUSH12 0x195B9CC81C9958D95A5D9959 PUSH1 0xA2 SHL PUSH1 0x64 DUP3 ADD MSTORE PUSH1 0x84 SWAP1 REVERT JUMPDEST SWAP3 POP SWAP4 POP POP DUP4 DUP2 DUP2 RETURNDATASIZE DUP4 GT PUSH2 0x431A JUMPI JUMPDEST PUSH2 0x42FE DUP2 DUP4 PUSH2 0x34BD JUMP JUMPDEST DUP2 ADD SUB SLT PUSH2 0xB94 JUMPI DUP1 MLOAD PUSH1 0x20 DUP3 ADD MLOAD PUSH1 0x40 SWAP1 SWAP3 ADD MLOAD SWAP4 CODESIZE PUSH2 0x414C JUMP JUMPDEST POP RETURNDATASIZE PUSH2 0x42F4 JUMP JUMPDEST PUSH1 0x40 MLOAD PUSH3 0x461BCD PUSH1 0xE5 SHL DUP2 MSTORE PUSH1 0x20 PUSH1 0x4 DUP3 ADD MSTORE PUSH1 0x25 PUSH1 0x24 DUP3 ADD MSTORE PUSH32 0x5061636B6167654D616E616765723A20424C4F434B5320617070726F76652066 PUSH1 0x44 DUP3 ADD MSTORE PUSH5 0x185A5B1959 PUSH1 0xDA SHL PUSH1 0x64 DUP3 ADD MSTORE PUSH1 0x84 SWAP1 REVERT JUMPDEST PUSH2 0x438D SWAP2 POP PUSH1 0x20 RETURNDATASIZE PUSH1 0x20 GT PUSH2 0xAEC JUMPI PUSH2 0xADD DUP2 DUP4 PUSH2 0x34BD JUMP JUMPDEST CODESIZE PUSH2 0x4093 JUMP JUMPDEST PUSH1 0x40 MLOAD PUSH3 0x461BCD PUSH1 0xE5 SHL DUP2 MSTORE PUSH1 0x20 PUSH1 0x4 DUP3 ADD MSTORE PUSH1 0x23 PUSH1 0x24 DUP3 ADD MSTORE PUSH32 0x5061636B6167654D616E616765723A205553445420617070726F766520666169 PUSH1 0x44 DUP3 ADD MSTORE PUSH3 0x1B1959 PUSH1 0xEA SHL PUSH1 0x64 DUP3 ADD MSTORE PUSH1 0x84 SWAP1 REVERT JUMPDEST PUSH2 0x43FD SWAP2 POP PUSH1 0x20 RETURNDATASIZE PUSH1 0x20 GT PUSH2 0xAEC JUMPI PUSH2 0xADD DUP2 DUP4 PUSH2 0x34BD JUMP JUMPDEST CODESIZE PUSH2 0x400B JUMP JUMPDEST PUSH32 0x637414B7B370A8973BC89032447F4C07AD3048B83CE07B32E928D92FF3EDAF5E SWAP2 SWAP4 SWAP3 PUSH2 0x4480 PUSH1 0x1 DUP1 PUSH1 0xA0 SHL SUB PUSH2 0x4465 DUP4 DUP3 PUSH1 0x2 SLOAD PUSH1 0x8 SHR AND DUP4 PUSH32 0x0 AND PUSH2 0x37AF JUMP JUMPDEST PUSH1 0x40 MLOAD SWAP4 DUP5 SWAP4 DUP5 MSTORE PUSH1 0x40 PUSH1 0x20 DUP6 ADD MSTORE AND SWAP5 PUSH1 0x40 DUP4 ADD SWAP1 PUSH2 0x3236 JUMP JUMPDEST SUB SWAP1 LOG3 JUMP INVALID LOG2 PUSH5 0x6970667358 0x22 SLT KECCAK256 CHAINID PUSH8 0x3CCA89B506701EF1 0xDC JUMPI 0x2B 0xE1 CHAINID 0xAA DUP15 PUSH31 0x6E8CE281EF9251336EFA64A158C364736F6C634300081400332F8788117E7E SELFDESTRUCT SAR DUP3 0xE9 0x26 0xEC PUSH26 0x4901D17C78024A50270940304540A733656F0DAD3228B676F7D3 0xCD TIMESTAMP DUP5 0xA5 PREVRANDAO EXTCODEHASH OR CALL SWAP7 0x2B CALLDATASIZE 0xE4 SWAP2 0xB3 EXP BLOCKHASH 0xB2 BLOCKHASH PC 0x49 0xE5 SWAP8 0xBA PUSH0 0xB5 "},"methodIdentifiers":{"ADMIN_ROLE()":"75b238fc","DEFAULT_ADMIN_ROLE()":"a217fddf","PURCHASE_TAX_KEY()":"f987626b","REFERRAL_TAX_KEY()":"289317eb","addPackage(string,uint256,uint256,uint16,uint64,uint64,uint16)":"5c691b08","deadlineWindow()":"c28399ef","emergencyRecoverToken(address,uint256)":"79020194","factory()":"c45a0155","getActivePackageIds()":"9e4f8ab8","getPackage(uint256)":"b99dfe18","getPackageCount()":"9eb87dec","getPackageIds()":"2cf91f64","getPackagesByOwner(address)":"14f84777","getRedemptionPreview(uint256)":"9e16c709","getRoleAdmin(bytes32)":"248a9ca3","getTreasuryBlocksAllowance()":"230b8a3f","getTreasuryBlocksBalance()":"35dab4a8","getUserPackageCount(address)":"fcc18c23","getUserPackages(address)":"deef5378","getUserPurchase(address,uint256)":"46a56835","getUserPurchaseCount(address)":"91b96b63","getUserPurchases(address)":"c6e5d8f6","getUserRedemptionCount(address)":"ce9ddccc","getUserRedemptions(address)":"c4e71eaf","getUserStats(address)":"4e43603a","globalTargetPrice()":"175d1bcb","grantRole(bytes32,address)":"2f2ff15d","hasRole(bytes32,address)":"91d14854","lpToken()":"5fcbd285","nextPackageId()":"d7da9e4f","pause()":"8456cb59","paused()":"5c975abb","purchase(uint256,address)":"ae77c237","redeem(uint256)":"db006a75","redeemWithLiquidityRemoval(uint256,uint256,uint256,uint256)":"cd68aead","renounceRole(bytes32,address)":"36568abe","revokeRole(bytes32,address)":"d547741f","router()":"f887ea40","setDeadlineWindow(uint256)":"8432e3a6","setGlobalTargetPrice(uint256)":"7d2fd64e","setPackageExchangeRate(uint256,uint256)":"da7b109d","setSlippageTolerance(uint256)":"117da1ee","setTreasury(address)":"f0f44260","shareToken()":"6c9fa59e","slippageTolerance()":"d03153aa","supportsInterface(bytes4)":"01ffc9a7","taxManager()":"4d237730","togglePackage(uint256)":"df8ae236","treasury()":"61d027b3","unpause()":"3f4ba83a","usdt()":"2f48ab7d","vestingVault()":"a5917baf"}}}}}