{"contracts/DividendDistributor.sol":{"DividendDistributor":{"abi":[{"inputs":[{"internalType":"address","name":"_blocksToken","type":"address"},{"internalType":"address","name":"_dividendToken","type":"address"},{"internalType":"address","name":"admin","type":"address"}],"stateMutability":"nonpayable","type":"constructor"},{"inputs":[],"name":"AccessControlBadConfirmation","type":"error"},{"inputs":[{"internalType":"address","name":"account","type":"address"},{"internalType":"bytes32","name":"neededRole","type":"bytes32"}],"name":"AccessControlUnauthorizedAccount","type":"error"},{"inputs":[],"name":"EnforcedPause","type":"error"},{"inputs":[],"name":"ExpectedPause","type":"error"},{"inputs":[],"name":"ReentrancyGuardReentrantCall","type":"error"},{"inputs":[{"internalType":"address","name":"token","type":"address"}],"name":"SafeERC20FailedOperation","type":"error"},{"anonymous":false,"inputs":[{"indexed":true,"internalType":"address","name":"user","type":"address"},{"indexed":false,"internalType":"uint256","name":"amount","type":"uint256"}],"name":"DividendClaimed","type":"event"},{"anonymous":false,"inputs":[{"indexed":false,"internalType":"uint256","name":"amount","type":"uint256"},{"indexed":false,"internalType":"uint256","name":"totalSupply","type":"uint256"}],"name":"DividendDistributed","type":"event"},{"anonymous":false,"inputs":[{"indexed":false,"internalType":"address","name":"account","type":"address"}],"name":"Paused","type":"event"},{"anonymous":false,"inputs":[{"indexed":true,"internalType":"bytes32","name":"role","type":"bytes32"},{"indexed":true,"internalType":"bytes32","name":"previousAdminRole","type":"bytes32"},{"indexed":true,"internalType":"bytes32","name":"newAdminRole","type":"bytes32"}],"name":"RoleAdminChanged","type":"event"},{"anonymous":false,"inputs":[{"indexed":true,"internalType":"bytes32","name":"role","type":"bytes32"},{"indexed":true,"internalType":"address","name":"account","type":"address"},{"indexed":true,"internalType":"address","name":"sender","type":"address"}],"name":"RoleGranted","type":"event"},{"anonymous":false,"inputs":[{"indexed":true,"internalType":"bytes32","name":"role","type":"bytes32"},{"indexed":true,"internalType":"address","name":"account","type":"address"},{"indexed":true,"internalType":"address","name":"sender","type":"address"}],"name":"RoleRevoked","type":"event"},{"anonymous":false,"inputs":[{"indexed":false,"internalType":"address","name":"account","type":"address"}],"name":"Unpaused","type":"event"},{"inputs":[],"name":"DEFAULT_ADMIN_ROLE","outputs":[{"internalType":"bytes32","name":"","type":"bytes32"}],"stateMutability":"view","type":"function"},{"inputs":[],"name":"DISTRIBUTOR_ROLE","outputs":[{"internalType":"bytes32","name":"","type":"bytes32"}],"stateMutability":"view","type":"function"},{"inputs":[],"name":"claimDividend","outputs":[],"stateMutability":"nonpayable","type":"function"},{"inputs":[{"internalType":"uint256","name":"amount","type":"uint256"}],"name":"distributeDividends","outputs":[],"stateMutability":"nonpayable","type":"function"},{"inputs":[],"name":"dividendToken","outputs":[{"internalType":"contract IERC20","name":"","type":"address"}],"stateMutability":"view","type":"function"},{"inputs":[{"internalType":"address","name":"tokenAddress","type":"address"},{"internalType":"uint256","name":"amount","type":"uint256"}],"name":"emergencyWithdraw","outputs":[],"stateMutability":"nonpayable","type":"function"},{"inputs":[],"name":"getDividendStats","outputs":[{"internalType":"uint256","name":"totalDistributed","type":"uint256"},{"internalType":"uint256","name":"totalClaimed","type":"uint256"},{"internalType":"uint256","name":"totalPending","type":"uint256"}],"stateMutability":"view","type":"function"},{"inputs":[{"internalType":"address","name":"user","type":"address"}],"name":"getDividendsWithdrawn","outputs":[{"internalType":"uint256","name":"","type":"uint256"}],"stateMutability":"view","type":"function"},{"inputs":[{"internalType":"address","name":"user","type":"address"}],"name":"getPendingDividends","outputs":[{"internalType":"uint256","name":"","type":"uint256"}],"stateMutability":"view","type":"function"},{"inputs":[{"internalType":"bytes32","name":"role","type":"bytes32"}],"name":"getRoleAdmin","outputs":[{"internalType":"bytes32","name":"","type":"bytes32"}],"stateMutability":"view","type":"function"},{"inputs":[{"internalType":"address","name":"user","type":"address"}],"name":"getTotalDividendsEarned","outputs":[{"internalType":"uint256","name":"","type":"uint256"}],"stateMutability":"view","type":"function"},{"inputs":[{"internalType":"bytes32","name":"role","type":"bytes32"},{"internalType":"address","name":"account","type":"address"}],"name":"grantRole","outputs":[],"stateMutability":"nonpayable","type":"function"},{"inputs":[{"internalType":"bytes32","name":"role","type":"bytes32"},{"internalType":"address","name":"account","type":"address"}],"name":"hasRole","outputs":[{"internalType":"bool","name":"","type":"bool"}],"stateMutability":"view","type":"function"},{"inputs":[],"name":"pause","outputs":[],"stateMutability":"nonpayable","type":"function"},{"inputs":[],"name":"paused","outputs":[{"internalType":"bool","name":"","type":"bool"}],"stateMutability":"view","type":"function"},{"inputs":[{"internalType":"bytes32","name":"role","type":"bytes32"},{"internalType":"address","name":"callerConfirmation","type":"address"}],"name":"renounceRole","outputs":[],"stateMutability":"nonpayable","type":"function"},{"inputs":[{"internalType":"bytes32","name":"role","type":"bytes32"},{"internalType":"address","name":"account","type":"address"}],"name":"revokeRole","outputs":[],"stateMutability":"nonpayable","type":"function"},{"inputs":[{"internalType":"bytes4","name":"interfaceId","type":"bytes4"}],"name":"supportsInterface","outputs":[{"internalType":"bool","name":"","type":"bool"}],"stateMutability":"view","type":"function"},{"inputs":[],"name":"token","outputs":[{"internalType":"contract IERC20","name":"","type":"address"}],"stateMutability":"view","type":"function"},{"inputs":[],"name":"totalDividendsDistributed","outputs":[{"internalType":"uint256","name":"","type":"uint256"}],"stateMutability":"view","type":"function"},{"inputs":[],"name":"unpause","outputs":[],"stateMutability":"nonpayable","type":"function"},{"inputs":[{"internalType":"address","name":"user","type":"address"}],"name":"updateDividendTracker","outputs":[],"stateMutability":"nonpayable","type":"function"}],"evm":{"bytecode":{"linkReferences":{},"object":"60c0346200022d57601f620013e138819003918201601f1916830191906001600160401b03831184841017620002325781606092859260409586528339810103126200022d57620000508262000248565b6200006b82620000636020860162000248565b940162000248565b600180556001600160a01b03918216939091908415620001cf57811690811562000165578216156200010e57620000b5929360805260a052620000ae816200025d565b50620002dd565b50516110419081620003808239608051818181610176015281816105df015281816108d20152610f61015260a0518181816102080152818161036d015281816104db01528181610664015281816109540152610bac0152f35b825162461bcd60e51b815260206004820152602a60248201527f4469766964656e644469737472696275746f723a20496e76616c69642061646d604482015269696e206164647265737360b01b6064820152608490fd5b835162461bcd60e51b815260206004820152603360248201527f4469766964656e644469737472696275746f723a20496e76616c69642064697660448201527f6964656e6420746f6b656e2061646472657373000000000000000000000000006064820152608490fd5b835162461bcd60e51b815260206004820152603160248201527f4469766964656e644469737472696275746f723a20496e76616c696420424c4f604482015270434b5320746f6b656e206164647265737360781b6064820152608490fd5b600080fd5b634e487b7160e01b600052604160045260246000fd5b51906001600160a01b03821682036200022d57565b6001600160a01b031660008181527fad3228b676f7d3cd4284a5443f17f1962b36e491b30a40b2405849e597ba5fb5602052604081205490919060ff16620002d957818052816020526040822081835260205260408220600160ff198254161790553391600080516020620013c18339815191528180a4600190565b5090565b6001600160a01b031660008181527f37775adb12013835ce20d78b1c52193dd1da3dc792bc1ec9a2d7427221516c8a60205260408120549091907ffbd454f36a7e1a388bd6fc3ab10d434aa4578f811acbbcf33afb1c697486313c9060ff166200037a57808352826020526040832082845260205260408320600160ff19825416179055600080516020620013c1833981519152339380a4600190565b50509056fe6080604081815260048036101561001557600080fd5b600092833560e01c90816301ffc9a714610bdb575080631582358e14610b97578063248a9ca314610b6e5780632c3dcbc714610b485780632f2ff15d14610b1f5780633243c7911461085557806336568abe1461080e5780633f4ba83a146107a55780635c975abb146107815780638456cb591461072657806385a6b3ae1461070757806388bdd9be146105b757806391d148541461057257806395ccea67146104ab578063a217fddf14610490578063d547741f14610452578063f0bd87cc14610417578063f0fc6bca14610312578063f4622cf0146101de578063f982b597146101a9578063fc0c546a146101615763ff00e7051461011557600080fd5b3461015d57602036600319011261015d576101569061015083602095610139610c2f565b6001600160a01b0381168252938752205491610f34565b90610e09565b9051908152f35b8280fd5b5050346101a557816003193601126101a557517f00000000000000000000000000000000000000000000000000000000000000006001600160a01b03168152602090f35b5080fd5b503461015d57602036600319011261015d5760209282916001600160a01b036101d0610c2f565b168252845220549051908152f35b503461015d578260031936011261015d5760035482516370a0823160e01b808252308285015291937f00000000000000000000000000000000000000000000000000000000000000006001600160a01b031693909291602091908281602481895afa908115610308579083929189916102d1575b5061025f60249189610f27565b9486519788938492835230908301525afa9384156102c7578694610290575b50606095508251948552840152820152f35b9080945081813d83116102c0575b6102a88183610dd1565b810103126102bc576060955051923861027e565b8580fd5b503d61029e565b83513d88823e3d90fd5b83819492503d8311610301575b6102e88183610dd1565b810103126102fd57905182919061025f610252565b8780fd5b503d6102de565b85513d8a823e3d90fd5b50903461015d578260031936011261015d5761032c610e94565b610334610eb2565b61033d33610f34565b9182156103c257600654338552600560205282852055602052808320610364838254610e09565b905561039182337f0000000000000000000000000000000000000000000000000000000000000000610ed5565b519081527f5efa67896a23b651b741b525caacba039c00ca7853be3de8eb1f4269e8669c5660203392a26001805580f35b6020608492519162461bcd60e51b8352820152602a60248201527f4469766964656e644469737472696275746f723a204e6f206469766964656e646044820152697320746f20636c61696d60b01b6064820152fd5b5050346101a557816003193601126101a557602090517ffbd454f36a7e1a388bd6fc3ab10d434aa4578f811acbbcf33afb1c697486313c8152f35b50903461015d578060031936011261015d5761048c91356104876001610476610c4a565b938387528660205286200154610cb8565b610d5c565b5080f35b5050346101a557816003193601126101a55751908152602090f35b503461015d578160031936011261015d576104c4610c2f565b916104cd610c60565b6001600160a01b03928316927f0000000000000000000000000000000000000000000000000000000000000000168314610512578361050f6024353386610ed5565b80f35b906020608492519162461bcd60e51b8352820152603460248201527f4469766964656e644469737472696275746f723a2043616e6e6f74207769746860448201527364726177206469766964656e6420746f6b656e7360601b6064820152fd5b503461015d578160031936011261015d578160209360ff92610592610c4a565b903582528186528282206001600160a01b039091168252855220549151911615158152f35b50903461015d57602080600319360112610703576105d3610c2f565b926001600160a01b03927f0000000000000000000000000000000000000000000000000000000000000000841633036106a55761060f85610f34565b91821561069057827f5efa67896a23b651b741b525caacba039c00ca7853be3de8eb1f4269e8669c5695966106889260065498821698898b5260058852858b20558652838920610660838254610e09565b90557f0000000000000000000000000000000000000000000000000000000000000000610ed5565b51908152a280f35b50926005929150600654941685525282205580f35b91608492519162461bcd60e51b8352820152603460248201527f4469766964656e644469737472696275746f723a204f6e6c7920424c4f434b5360448201527320746f6b656e2063616e2063616c6c207468697360601b6064820152fd5b8380fd5b5050346101a557816003193601126101a5576020906003549051908152f35b5050346101a557816003193601126101a55760207f62e78cea01bee320cd4e420270b5ea74000d11b0c9f74754ebdbfc544b05a25891610764610c60565b61076c610e94565b600160ff19600254161760025551338152a180f35b5050346101a557816003193601126101a55760209060ff6002541690519015158152f35b503461015d578260031936011261015d576107be610c60565b6002549060ff821615610800575060ff1916600255513381527f5db9ee0a495bf2e6ff9c91a7834c1ba4fdd244a5e8aa4e537bd38aeae4b073aa90602090a180f35b8251638dfc202b60e01b8152fd5b509190346101a557806003193601126101a557610829610c4a565b90336001600160a01b03831603610846575061048c919235610d5c565b5163334bd91960e11b81528390fd5b509190346101a55760208060031936011261015d578335907ffbd454f36a7e1a388bd6fc3ab10d434aa4578f811acbbcf33afb1c697486313c808552848252838520338652825260ff848620541615610b0157506108b1610e94565b6108b9610eb2565b8115610aa45782516318160ddd60e01b815290808287817f00000000000000000000000000000000000000000000000000000000000000006001600160a01b03165afa918215610a9a578592610a67575b508115610a0f5783516323b872dd60e01b828201523360248201523060448201526064808201859052815260a0810167ffffffffffffffff8111828210176109fc578552610978907f0000000000000000000000000000000000000000000000000000000000000000610e2c565b670de0b6b3a76400008302670de0b6b3a763ffff19848204016109e9577f2f588cf4bb0247b0f3f60e06187f92e6fd1deaabb56e2bcc5672352337871327959650826109c79104600654610e09565b6006556109d683600354610e09565b6003558351928352820152a16001805580f35b634e487b7160e01b865260118752602486fd5b634e487b7160e01b875260418852602487fd5b8560849185519162461bcd60e51b8352820152602d60248201527f4469766964656e644469737472696275746f723a204e6f20746f6b656e73206960448201526c371031b4b931bab630ba34b7b760991b6064820152fd5b9080925081813d8311610a93575b610a7f8183610dd1565b81010312610a8f5751903861090a565b8480fd5b503d610a75565b84513d87823e3d90fd5b8460849184519162461bcd60e51b8352820152603260248201527f4469766964656e644469737472696275746f723a20416d6f756e74206d75737460448201527102062652067726561746572207468616e20360741b6064820152fd5b835163e2517d3f60e01b815233818801526024810191909152604490fd5b50903461015d578060031936011261015d5761048c9135610b436001610476610c4a565b610cde565b5050346101a55760203660031901126101a557602090610156610b69610c2f565b610f34565b503461015d57602036600319011261015d57816020936001923581528085522001549051908152f35b5050346101a557816003193601126101a557517f00000000000000000000000000000000000000000000000000000000000000006001600160a01b03168152602090f35b9250503461015d57602036600319011261015d573563ffffffff60e01b811680910361015d5760209250637965db0b60e01b8114908115610c1e575b5015158152f35b6301ffc9a760e01b14905038610c17565b600435906001600160a01b0382168203610c4557565b600080fd5b602435906001600160a01b0382168203610c4557565b3360009081527fad3228b676f7d3cd4284a5443f17f1962b36e491b30a40b2405849e597ba5fb5602052604081205460ff1615610c9a5750565b6044906040519063e2517d3f60e01b82523360048301526024820152fd5b80600052600060205260406000203360005260205260ff6040600020541615610c9a5750565b9060009180835282602052604083209160018060a01b03169182845260205260ff60408420541615600014610d5757808352826020526040832082845260205260408320600160ff198254161790557f2f8788117e7eff1d82e926ec794901d17c78024a50270940304540a733656f0d339380a4600190565b505090565b9060009180835282602052604083209160018060a01b03169182845260205260ff604084205416600014610d575780835282602052604083208284526020526040832060ff1981541690557ff6391f5c32d9c69d2a47ea670b442974b53935d1edc7fd64eb21e047a839171b339380a4600190565b90601f8019910116810190811067ffffffffffffffff821117610df357604052565b634e487b7160e01b600052604160045260246000fd5b91908201809211610e1657565b634e487b7160e01b600052601160045260246000fd5b906000602091828151910182855af115610e88576000513d610e7f57506001600160a01b0381163b155b610e5d5750565b604051635274afe760e01b81526001600160a01b039091166004820152602490fd5b60011415610e56565b6040513d6000823e3d90fd5b60ff60025416610ea057565b60405163d93c066560e01b8152600490fd5b600260015414610ec3576002600155565b604051633ee5aeb560e01b8152600490fd5b60405163a9059cbb60e01b60208201526001600160a01b039092166024830152604480830193909352918152608081019167ffffffffffffffff831182841017610df357610f2592604052610e2c565b565b91908203918211610e1657565b6040516370a0823160e01b81526001600160a01b03918216600482018190529091602090839060249082907f0000000000000000000000000000000000000000000000000000000000000000165afa918215610e8857600092610fd5575b508115610fce57610fb59060065490600052600560205260406000205490610f27565b80820291820403610e1657670de0b6b3a7640000900490565b5050600090565b90916020823d8211611003575b81610fef60209383610dd1565b810103126110005750519038610f92565b80fd5b3d9150610fe256fea26469706673582212208800f74c9feda6c6bac7deeae43528954c044675aa685cc508aadc17d06cb03964736f6c634300081400332f8788117e7eff1d82e926ec794901d17c78024a50270940304540a733656f0d","opcodes":"PUSH1 0xC0 CALLVALUE PUSH3 0x22D JUMPI PUSH1 0x1F PUSH3 0x13E1 CODESIZE DUP2 SWAP1 SUB SWAP2 DUP3 ADD PUSH1 0x1F NOT AND DUP4 ADD SWAP2 SWAP1 PUSH1 0x1 PUSH1 0x1 PUSH1 0x40 SHL SUB DUP4 GT DUP5 DUP5 LT OR PUSH3 0x232 JUMPI DUP2 PUSH1 0x60 SWAP3 DUP6 SWAP3 PUSH1 0x40 SWAP6 DUP7 MSTORE DUP4 CODECOPY DUP2 ADD SUB SLT PUSH3 0x22D JUMPI PUSH3 0x50 DUP3 PUSH3 0x248 JUMP JUMPDEST PUSH3 0x6B DUP3 PUSH3 0x63 PUSH1 0x20 DUP7 ADD PUSH3 0x248 JUMP JUMPDEST SWAP5 ADD PUSH3 0x248 JUMP JUMPDEST PUSH1 0x1 DUP1 SSTORE PUSH1 0x1 PUSH1 0x1 PUSH1 0xA0 SHL SUB SWAP2 DUP3 AND SWAP4 SWAP1 SWAP2 SWAP1 DUP5 ISZERO PUSH3 0x1CF JUMPI DUP2 AND SWAP1 DUP2 ISZERO PUSH3 0x165 JUMPI DUP3 AND ISZERO PUSH3 0x10E JUMPI PUSH3 0xB5 SWAP3 SWAP4 PUSH1 0x80 MSTORE PUSH1 0xA0 MSTORE PUSH3 0xAE DUP2 PUSH3 0x25D JUMP JUMPDEST POP PUSH3 0x2DD JUMP JUMPDEST POP MLOAD PUSH2 0x1041 SWAP1 DUP2 PUSH3 0x380 DUP3 CODECOPY PUSH1 0x80 MLOAD DUP2 DUP2 DUP2 PUSH2 0x176 ADD MSTORE DUP2 DUP2 PUSH2 0x5DF ADD MSTORE DUP2 DUP2 PUSH2 0x8D2 ADD MSTORE PUSH2 0xF61 ADD MSTORE PUSH1 0xA0 MLOAD DUP2 DUP2 DUP2 PUSH2 0x208 ADD MSTORE DUP2 DUP2 PUSH2 0x36D ADD MSTORE DUP2 DUP2 PUSH2 0x4DB ADD MSTORE DUP2 DUP2 PUSH2 0x664 ADD MSTORE DUP2 DUP2 PUSH2 0x954 ADD MSTORE PUSH2 0xBAC ADD MSTORE RETURN JUMPDEST DUP3 MLOAD PUSH3 0x461BCD PUSH1 0xE5 SHL DUP2 MSTORE PUSH1 0x20 PUSH1 0x4 DUP3 ADD MSTORE PUSH1 0x2A PUSH1 0x24 DUP3 ADD MSTORE PUSH32 0x4469766964656E644469737472696275746F723A20496E76616C69642061646D PUSH1 0x44 DUP3 ADD MSTORE PUSH10 0x696E2061646472657373 PUSH1 0xB0 SHL PUSH1 0x64 DUP3 ADD MSTORE PUSH1 0x84 SWAP1 REVERT JUMPDEST DUP4 MLOAD PUSH3 0x461BCD PUSH1 0xE5 SHL DUP2 MSTORE PUSH1 0x20 PUSH1 0x4 DUP3 ADD MSTORE PUSH1 0x33 PUSH1 0x24 DUP3 ADD MSTORE PUSH32 0x4469766964656E644469737472696275746F723A20496E76616C696420646976 PUSH1 0x44 DUP3 ADD MSTORE PUSH32 0x6964656E6420746F6B656E206164647265737300000000000000000000000000 PUSH1 0x64 DUP3 ADD MSTORE PUSH1 0x84 SWAP1 REVERT JUMPDEST DUP4 MLOAD PUSH3 0x461BCD PUSH1 0xE5 SHL DUP2 MSTORE PUSH1 0x20 PUSH1 0x4 DUP3 ADD MSTORE PUSH1 0x31 PUSH1 0x24 DUP3 ADD MSTORE PUSH32 0x4469766964656E644469737472696275746F723A20496E76616C696420424C4F PUSH1 0x44 DUP3 ADD MSTORE PUSH17 0x434B5320746F6B656E2061646472657373 PUSH1 0x78 SHL PUSH1 0x64 DUP3 ADD MSTORE PUSH1 0x84 SWAP1 REVERT JUMPDEST PUSH1 0x0 DUP1 REVERT JUMPDEST PUSH4 0x4E487B71 PUSH1 0xE0 SHL PUSH1 0x0 MSTORE PUSH1 0x41 PUSH1 0x4 MSTORE PUSH1 0x24 PUSH1 0x0 REVERT JUMPDEST MLOAD SWAP1 PUSH1 0x1 PUSH1 0x1 PUSH1 0xA0 SHL SUB DUP3 AND DUP3 SUB PUSH3 0x22D JUMPI JUMP JUMPDEST PUSH1 0x1 PUSH1 0x1 PUSH1 0xA0 SHL SUB AND PUSH1 0x0 DUP2 DUP2 MSTORE PUSH32 0xAD3228B676F7D3CD4284A5443F17F1962B36E491B30A40B2405849E597BA5FB5 PUSH1 0x20 MSTORE PUSH1 0x40 DUP2 KECCAK256 SLOAD SWAP1 SWAP2 SWAP1 PUSH1 0xFF AND PUSH3 0x2D9 JUMPI DUP2 DUP1 MSTORE DUP2 PUSH1 0x20 MSTORE PUSH1 0x40 DUP3 KECCAK256 DUP2 DUP4 MSTORE PUSH1 0x20 MSTORE PUSH1 0x40 DUP3 KECCAK256 PUSH1 0x1 PUSH1 0xFF NOT DUP3 SLOAD AND OR SWAP1 SSTORE CALLER SWAP2 PUSH1 0x0 DUP1 MLOAD PUSH1 0x20 PUSH3 0x13C1 DUP4 CODECOPY DUP2 MLOAD SWAP2 MSTORE DUP2 DUP1 LOG4 PUSH1 0x1 SWAP1 JUMP JUMPDEST POP SWAP1 JUMP JUMPDEST PUSH1 0x1 PUSH1 0x1 PUSH1 0xA0 SHL SUB AND PUSH1 0x0 DUP2 DUP2 MSTORE PUSH32 0x37775ADB12013835CE20D78B1C52193DD1DA3DC792BC1EC9A2D7427221516C8A PUSH1 0x20 MSTORE PUSH1 0x40 DUP2 KECCAK256 SLOAD SWAP1 SWAP2 SWAP1 PUSH32 0xFBD454F36A7E1A388BD6FC3AB10D434AA4578F811ACBBCF33AFB1C697486313C SWAP1 PUSH1 0xFF AND PUSH3 0x37A JUMPI DUP1 DUP4 MSTORE DUP3 PUSH1 0x20 MSTORE PUSH1 0x40 DUP4 KECCAK256 DUP3 DUP5 MSTORE PUSH1 0x20 MSTORE PUSH1 0x40 DUP4 KECCAK256 PUSH1 0x1 PUSH1 0xFF NOT DUP3 SLOAD AND OR SWAP1 SSTORE PUSH1 0x0 DUP1 MLOAD PUSH1 0x20 PUSH3 0x13C1 DUP4 CODECOPY DUP2 MLOAD SWAP2 MSTORE CALLER SWAP4 DUP1 LOG4 PUSH1 0x1 SWAP1 JUMP JUMPDEST POP POP SWAP1 JUMP INVALID PUSH1 0x80 PUSH1 0x40 DUP2 DUP2 MSTORE PUSH1 0x4 DUP1 CALLDATASIZE LT ISZERO PUSH2 0x15 JUMPI PUSH1 0x0 DUP1 REVERT JUMPDEST PUSH1 0x0 SWAP3 DUP4 CALLDATALOAD PUSH1 0xE0 SHR SWAP1 DUP2 PUSH4 0x1FFC9A7 EQ PUSH2 0xBDB JUMPI POP DUP1 PUSH4 0x1582358E EQ PUSH2 0xB97 JUMPI DUP1 PUSH4 0x248A9CA3 EQ PUSH2 0xB6E JUMPI DUP1 PUSH4 0x2C3DCBC7 EQ PUSH2 0xB48 JUMPI DUP1 PUSH4 0x2F2FF15D EQ PUSH2 0xB1F JUMPI DUP1 PUSH4 0x3243C791 EQ PUSH2 0x855 JUMPI DUP1 PUSH4 0x36568ABE EQ PUSH2 0x80E JUMPI DUP1 PUSH4 0x3F4BA83A EQ PUSH2 0x7A5 JUMPI DUP1 PUSH4 0x5C975ABB EQ PUSH2 0x781 JUMPI DUP1 PUSH4 0x8456CB59 EQ PUSH2 0x726 JUMPI DUP1 PUSH4 0x85A6B3AE EQ PUSH2 0x707 JUMPI DUP1 PUSH4 0x88BDD9BE EQ PUSH2 0x5B7 JUMPI DUP1 PUSH4 0x91D14854 EQ PUSH2 0x572 JUMPI DUP1 PUSH4 0x95CCEA67 EQ PUSH2 0x4AB JUMPI DUP1 PUSH4 0xA217FDDF EQ PUSH2 0x490 JUMPI DUP1 PUSH4 0xD547741F EQ PUSH2 0x452 JUMPI DUP1 PUSH4 0xF0BD87CC EQ PUSH2 0x417 JUMPI DUP1 PUSH4 0xF0FC6BCA EQ PUSH2 0x312 JUMPI DUP1 PUSH4 0xF4622CF0 EQ PUSH2 0x1DE JUMPI DUP1 PUSH4 0xF982B597 EQ PUSH2 0x1A9 JUMPI DUP1 PUSH4 0xFC0C546A EQ PUSH2 0x161 JUMPI PUSH4 0xFF00E705 EQ PUSH2 0x115 JUMPI PUSH1 0x0 DUP1 REVERT JUMPDEST CALLVALUE PUSH2 0x15D JUMPI PUSH1 0x20 CALLDATASIZE PUSH1 0x3 NOT ADD SLT PUSH2 0x15D JUMPI PUSH2 0x156 SWAP1 PUSH2 0x150 DUP4 PUSH1 0x20 SWAP6 PUSH2 0x139 PUSH2 0xC2F JUMP JUMPDEST PUSH1 0x1 PUSH1 0x1 PUSH1 0xA0 SHL SUB DUP2 AND DUP3 MSTORE SWAP4 DUP8 MSTORE KECCAK256 SLOAD SWAP2 PUSH2 0xF34 JUMP JUMPDEST SWAP1 PUSH2 0xE09 JUMP JUMPDEST SWAP1 MLOAD SWAP1 DUP2 MSTORE RETURN JUMPDEST DUP3 DUP1 REVERT JUMPDEST POP POP CALLVALUE PUSH2 0x1A5 JUMPI DUP2 PUSH1 0x3 NOT CALLDATASIZE ADD SLT PUSH2 0x1A5 JUMPI MLOAD PUSH32 0x0 PUSH1 0x1 PUSH1 0x1 PUSH1 0xA0 SHL SUB AND DUP2 MSTORE PUSH1 0x20 SWAP1 RETURN JUMPDEST POP DUP1 REVERT JUMPDEST POP CALLVALUE PUSH2 0x15D JUMPI PUSH1 0x20 CALLDATASIZE PUSH1 0x3 NOT ADD SLT PUSH2 0x15D JUMPI PUSH1 0x20 SWAP3 DUP3 SWAP2 PUSH1 0x1 PUSH1 0x1 PUSH1 0xA0 SHL SUB PUSH2 0x1D0 PUSH2 0xC2F JUMP JUMPDEST AND DUP3 MSTORE DUP5 MSTORE KECCAK256 SLOAD SWAP1 MLOAD SWAP1 DUP2 MSTORE RETURN JUMPDEST POP CALLVALUE PUSH2 0x15D JUMPI DUP3 PUSH1 0x3 NOT CALLDATASIZE ADD SLT PUSH2 0x15D JUMPI PUSH1 0x3 SLOAD DUP3 MLOAD PUSH4 0x70A08231 PUSH1 0xE0 SHL DUP1 DUP3 MSTORE ADDRESS DUP3 DUP6 ADD MSTORE SWAP2 SWAP4 PUSH32 0x0 PUSH1 0x1 PUSH1 0x1 PUSH1 0xA0 SHL SUB AND SWAP4 SWAP1 SWAP3 SWAP2 PUSH1 0x20 SWAP2 SWAP1 DUP3 DUP2 PUSH1 0x24 DUP2 DUP10 GAS STATICCALL SWAP1 DUP2 ISZERO PUSH2 0x308 JUMPI SWAP1 DUP4 SWAP3 SWAP2 DUP10 SWAP2 PUSH2 0x2D1 JUMPI JUMPDEST POP PUSH2 0x25F PUSH1 0x24 SWAP2 DUP10 PUSH2 0xF27 JUMP JUMPDEST SWAP5 DUP7 MLOAD SWAP8 DUP9 SWAP4 DUP5 SWAP3 DUP4 MSTORE ADDRESS SWAP1 DUP4 ADD MSTORE GAS STATICCALL SWAP4 DUP5 ISZERO PUSH2 0x2C7 JUMPI DUP7 SWAP5 PUSH2 0x290 JUMPI JUMPDEST POP PUSH1 0x60 SWAP6 POP DUP3 MLOAD SWAP5 DUP6 MSTORE DUP5 ADD MSTORE DUP3 ADD MSTORE RETURN JUMPDEST SWAP1 DUP1 SWAP5 POP DUP2 DUP2 RETURNDATASIZE DUP4 GT PUSH2 0x2C0 JUMPI JUMPDEST PUSH2 0x2A8 DUP2 DUP4 PUSH2 0xDD1 JUMP JUMPDEST DUP2 ADD SUB SLT PUSH2 0x2BC JUMPI PUSH1 0x60 SWAP6 POP MLOAD SWAP3 CODESIZE PUSH2 0x27E JUMP JUMPDEST DUP6 DUP1 REVERT JUMPDEST POP RETURNDATASIZE PUSH2 0x29E JUMP JUMPDEST DUP4 MLOAD RETURNDATASIZE DUP9 DUP3 RETURNDATACOPY RETURNDATASIZE SWAP1 REVERT JUMPDEST DUP4 DUP2 SWAP5 SWAP3 POP RETURNDATASIZE DUP4 GT PUSH2 0x301 JUMPI JUMPDEST PUSH2 0x2E8 DUP2 DUP4 PUSH2 0xDD1 JUMP JUMPDEST DUP2 ADD SUB SLT PUSH2 0x2FD JUMPI SWAP1 MLOAD DUP3 SWAP2 SWAP1 PUSH2 0x25F PUSH2 0x252 JUMP JUMPDEST DUP8 DUP1 REVERT JUMPDEST POP RETURNDATASIZE PUSH2 0x2DE JUMP JUMPDEST DUP6 MLOAD RETURNDATASIZE DUP11 DUP3 RETURNDATACOPY RETURNDATASIZE SWAP1 REVERT JUMPDEST POP SWAP1 CALLVALUE PUSH2 0x15D JUMPI DUP3 PUSH1 0x3 NOT CALLDATASIZE ADD SLT PUSH2 0x15D JUMPI PUSH2 0x32C PUSH2 0xE94 JUMP JUMPDEST PUSH2 0x334 PUSH2 0xEB2 JUMP JUMPDEST PUSH2 0x33D CALLER PUSH2 0xF34 JUMP JUMPDEST SWAP2 DUP3 ISZERO PUSH2 0x3C2 JUMPI PUSH1 0x6 SLOAD CALLER DUP6 MSTORE PUSH1 0x5 PUSH1 0x20 MSTORE DUP3 DUP6 KECCAK256 SSTORE PUSH1 0x20 MSTORE DUP1 DUP4 KECCAK256 PUSH2 0x364 DUP4 DUP3 SLOAD PUSH2 0xE09 JUMP JUMPDEST SWAP1 SSTORE PUSH2 0x391 DUP3 CALLER PUSH32 0x0 PUSH2 0xED5 JUMP JUMPDEST MLOAD SWAP1 DUP2 MSTORE PUSH32 0x5EFA67896A23B651B741B525CAACBA039C00CA7853BE3DE8EB1F4269E8669C56 PUSH1 0x20 CALLER SWAP3 LOG2 PUSH1 0x1 DUP1 SSTORE DUP1 RETURN JUMPDEST PUSH1 0x20 PUSH1 0x84 SWAP3 MLOAD SWAP2 PUSH3 0x461BCD PUSH1 0xE5 SHL DUP4 MSTORE DUP3 ADD MSTORE PUSH1 0x2A PUSH1 0x24 DUP3 ADD MSTORE PUSH32 0x4469766964656E644469737472696275746F723A204E6F206469766964656E64 PUSH1 0x44 DUP3 ADD MSTORE PUSH10 0x7320746F20636C61696D PUSH1 0xB0 SHL PUSH1 0x64 DUP3 ADD MSTORE REVERT JUMPDEST POP POP CALLVALUE PUSH2 0x1A5 JUMPI DUP2 PUSH1 0x3 NOT CALLDATASIZE ADD SLT PUSH2 0x1A5 JUMPI PUSH1 0x20 SWAP1 MLOAD PUSH32 0xFBD454F36A7E1A388BD6FC3AB10D434AA4578F811ACBBCF33AFB1C697486313C DUP2 MSTORE RETURN JUMPDEST POP SWAP1 CALLVALUE PUSH2 0x15D JUMPI DUP1 PUSH1 0x3 NOT CALLDATASIZE ADD SLT PUSH2 0x15D JUMPI PUSH2 0x48C SWAP2 CALLDATALOAD PUSH2 0x487 PUSH1 0x1 PUSH2 0x476 PUSH2 0xC4A JUMP JUMPDEST SWAP4 DUP4 DUP8 MSTORE DUP7 PUSH1 0x20 MSTORE DUP7 KECCAK256 ADD SLOAD PUSH2 0xCB8 JUMP JUMPDEST PUSH2 0xD5C JUMP JUMPDEST POP DUP1 RETURN JUMPDEST POP POP CALLVALUE PUSH2 0x1A5 JUMPI DUP2 PUSH1 0x3 NOT CALLDATASIZE ADD SLT PUSH2 0x1A5 JUMPI MLOAD SWAP1 DUP2 MSTORE PUSH1 0x20 SWAP1 RETURN JUMPDEST POP CALLVALUE PUSH2 0x15D JUMPI DUP2 PUSH1 0x3 NOT CALLDATASIZE ADD SLT PUSH2 0x15D JUMPI PUSH2 0x4C4 PUSH2 0xC2F JUMP JUMPDEST SWAP2 PUSH2 0x4CD PUSH2 0xC60 JUMP JUMPDEST PUSH1 0x1 PUSH1 0x1 PUSH1 0xA0 SHL SUB SWAP3 DUP4 AND SWAP3 PUSH32 0x0 AND DUP4 EQ PUSH2 0x512 JUMPI DUP4 PUSH2 0x50F PUSH1 0x24 CALLDATALOAD CALLER DUP7 PUSH2 0xED5 JUMP JUMPDEST DUP1 RETURN JUMPDEST SWAP1 PUSH1 0x20 PUSH1 0x84 SWAP3 MLOAD SWAP2 PUSH3 0x461BCD PUSH1 0xE5 SHL DUP4 MSTORE DUP3 ADD MSTORE PUSH1 0x34 PUSH1 0x24 DUP3 ADD MSTORE PUSH32 0x4469766964656E644469737472696275746F723A2043616E6E6F742077697468 PUSH1 0x44 DUP3 ADD MSTORE PUSH20 0x64726177206469766964656E6420746F6B656E73 PUSH1 0x60 SHL PUSH1 0x64 DUP3 ADD MSTORE REVERT JUMPDEST POP CALLVALUE PUSH2 0x15D JUMPI DUP2 PUSH1 0x3 NOT CALLDATASIZE ADD SLT PUSH2 0x15D JUMPI DUP2 PUSH1 0x20 SWAP4 PUSH1 0xFF SWAP3 PUSH2 0x592 PUSH2 0xC4A JUMP JUMPDEST SWAP1 CALLDATALOAD DUP3 MSTORE DUP2 DUP7 MSTORE DUP3 DUP3 KECCAK256 PUSH1 0x1 PUSH1 0x1 PUSH1 0xA0 SHL SUB SWAP1 SWAP2 AND DUP3 MSTORE DUP6 MSTORE KECCAK256 SLOAD SWAP2 MLOAD SWAP2 AND ISZERO ISZERO DUP2 MSTORE RETURN JUMPDEST POP SWAP1 CALLVALUE PUSH2 0x15D JUMPI PUSH1 0x20 DUP1 PUSH1 0x3 NOT CALLDATASIZE ADD SLT PUSH2 0x703 JUMPI PUSH2 0x5D3 PUSH2 0xC2F JUMP JUMPDEST SWAP3 PUSH1 0x1 PUSH1 0x1 PUSH1 0xA0 SHL SUB SWAP3 PUSH32 0x0 DUP5 AND CALLER SUB PUSH2 0x6A5 JUMPI PUSH2 0x60F DUP6 PUSH2 0xF34 JUMP JUMPDEST SWAP2 DUP3 ISZERO PUSH2 0x690 JUMPI DUP3 PUSH32 0x5EFA67896A23B651B741B525CAACBA039C00CA7853BE3DE8EB1F4269E8669C56 SWAP6 SWAP7 PUSH2 0x688 SWAP3 PUSH1 0x6 SLOAD SWAP9 DUP3 AND SWAP9 DUP10 DUP12 MSTORE PUSH1 0x5 DUP9 MSTORE DUP6 DUP12 KECCAK256 SSTORE DUP7 MSTORE DUP4 DUP10 KECCAK256 PUSH2 0x660 DUP4 DUP3 SLOAD PUSH2 0xE09 JUMP JUMPDEST SWAP1 SSTORE PUSH32 0x0 PUSH2 0xED5 JUMP JUMPDEST MLOAD SWAP1 DUP2 MSTORE LOG2 DUP1 RETURN JUMPDEST POP SWAP3 PUSH1 0x5 SWAP3 SWAP2 POP PUSH1 0x6 SLOAD SWAP5 AND DUP6 MSTORE MSTORE DUP3 KECCAK256 SSTORE DUP1 RETURN JUMPDEST SWAP2 PUSH1 0x84 SWAP3 MLOAD SWAP2 PUSH3 0x461BCD PUSH1 0xE5 SHL DUP4 MSTORE DUP3 ADD MSTORE PUSH1 0x34 PUSH1 0x24 DUP3 ADD MSTORE PUSH32 0x4469766964656E644469737472696275746F723A204F6E6C7920424C4F434B53 PUSH1 0x44 DUP3 ADD MSTORE PUSH20 0x20746F6B656E2063616E2063616C6C2074686973 PUSH1 0x60 SHL PUSH1 0x64 DUP3 ADD MSTORE REVERT JUMPDEST DUP4 DUP1 REVERT JUMPDEST POP POP CALLVALUE PUSH2 0x1A5 JUMPI DUP2 PUSH1 0x3 NOT CALLDATASIZE ADD SLT PUSH2 0x1A5 JUMPI PUSH1 0x20 SWAP1 PUSH1 0x3 SLOAD SWAP1 MLOAD SWAP1 DUP2 MSTORE RETURN JUMPDEST POP POP CALLVALUE PUSH2 0x1A5 JUMPI DUP2 PUSH1 0x3 NOT CALLDATASIZE ADD SLT PUSH2 0x1A5 JUMPI PUSH1 0x20 PUSH32 0x62E78CEA01BEE320CD4E420270B5EA74000D11B0C9F74754EBDBFC544B05A258 SWAP2 PUSH2 0x764 PUSH2 0xC60 JUMP JUMPDEST PUSH2 0x76C PUSH2 0xE94 JUMP JUMPDEST PUSH1 0x1 PUSH1 0xFF NOT PUSH1 0x2 SLOAD AND OR PUSH1 0x2 SSTORE MLOAD CALLER DUP2 MSTORE LOG1 DUP1 RETURN JUMPDEST POP POP CALLVALUE PUSH2 0x1A5 JUMPI DUP2 PUSH1 0x3 NOT CALLDATASIZE ADD SLT PUSH2 0x1A5 JUMPI PUSH1 0x20 SWAP1 PUSH1 0xFF PUSH1 0x2 SLOAD AND SWAP1 MLOAD SWAP1 ISZERO ISZERO DUP2 MSTORE RETURN JUMPDEST POP CALLVALUE PUSH2 0x15D JUMPI DUP3 PUSH1 0x3 NOT CALLDATASIZE ADD SLT PUSH2 0x15D JUMPI PUSH2 0x7BE PUSH2 0xC60 JUMP JUMPDEST PUSH1 0x2 SLOAD SWAP1 PUSH1 0xFF DUP3 AND ISZERO PUSH2 0x800 JUMPI POP PUSH1 0xFF NOT AND PUSH1 0x2 SSTORE MLOAD CALLER DUP2 MSTORE PUSH32 0x5DB9EE0A495BF2E6FF9C91A7834C1BA4FDD244A5E8AA4E537BD38AEAE4B073AA SWAP1 PUSH1 0x20 SWAP1 LOG1 DUP1 RETURN JUMPDEST DUP3 MLOAD PUSH4 0x8DFC202B PUSH1 0xE0 SHL DUP2 MSTORE REVERT JUMPDEST POP SWAP2 SWAP1 CALLVALUE PUSH2 0x1A5 JUMPI DUP1 PUSH1 0x3 NOT CALLDATASIZE ADD SLT PUSH2 0x1A5 JUMPI PUSH2 0x829 PUSH2 0xC4A JUMP JUMPDEST SWAP1 CALLER PUSH1 0x1 PUSH1 0x1 PUSH1 0xA0 SHL SUB DUP4 AND SUB PUSH2 0x846 JUMPI POP PUSH2 0x48C SWAP2 SWAP3 CALLDATALOAD PUSH2 0xD5C JUMP JUMPDEST MLOAD PUSH4 0x334BD919 PUSH1 0xE1 SHL DUP2 MSTORE DUP4 SWAP1 REVERT JUMPDEST POP SWAP2 SWAP1 CALLVALUE PUSH2 0x1A5 JUMPI PUSH1 0x20 DUP1 PUSH1 0x3 NOT CALLDATASIZE ADD SLT PUSH2 0x15D JUMPI DUP4 CALLDATALOAD SWAP1 PUSH32 0xFBD454F36A7E1A388BD6FC3AB10D434AA4578F811ACBBCF33AFB1C697486313C DUP1 DUP6 MSTORE DUP5 DUP3 MSTORE DUP4 DUP6 KECCAK256 CALLER DUP7 MSTORE DUP3 MSTORE PUSH1 0xFF DUP5 DUP7 KECCAK256 SLOAD AND ISZERO PUSH2 0xB01 JUMPI POP PUSH2 0x8B1 PUSH2 0xE94 JUMP JUMPDEST PUSH2 0x8B9 PUSH2 0xEB2 JUMP JUMPDEST DUP2 ISZERO PUSH2 0xAA4 JUMPI DUP3 MLOAD PUSH4 0x18160DDD PUSH1 0xE0 SHL DUP2 MSTORE SWAP1 DUP1 DUP3 DUP8 DUP2 PUSH32 0x0 PUSH1 0x1 PUSH1 0x1 PUSH1 0xA0 SHL SUB AND GAS STATICCALL SWAP2 DUP3 ISZERO PUSH2 0xA9A JUMPI DUP6 SWAP3 PUSH2 0xA67 JUMPI JUMPDEST POP DUP2 ISZERO PUSH2 0xA0F JUMPI DUP4 MLOAD PUSH4 0x23B872DD PUSH1 0xE0 SHL DUP3 DUP3 ADD MSTORE CALLER PUSH1 0x24 DUP3 ADD MSTORE ADDRESS PUSH1 0x44 DUP3 ADD MSTORE PUSH1 0x64 DUP1 DUP3 ADD DUP6 SWAP1 MSTORE DUP2 MSTORE PUSH1 0xA0 DUP2 ADD PUSH8 0xFFFFFFFFFFFFFFFF DUP2 GT DUP3 DUP3 LT OR PUSH2 0x9FC JUMPI DUP6 MSTORE PUSH2 0x978 SWAP1 PUSH32 0x0 PUSH2 0xE2C JUMP JUMPDEST PUSH8 0xDE0B6B3A7640000 DUP4 MUL PUSH8 0xDE0B6B3A763FFFF NOT DUP5 DUP3 DIV ADD PUSH2 0x9E9 JUMPI PUSH32 0x2F588CF4BB0247B0F3F60E06187F92E6FD1DEAABB56E2BCC5672352337871327 SWAP6 SWAP7 POP DUP3 PUSH2 0x9C7 SWAP2 DIV PUSH1 0x6 SLOAD PUSH2 0xE09 JUMP JUMPDEST PUSH1 0x6 SSTORE PUSH2 0x9D6 DUP4 PUSH1 0x3 SLOAD PUSH2 0xE09 JUMP JUMPDEST PUSH1 0x3 SSTORE DUP4 MLOAD SWAP3 DUP4 MSTORE DUP3 ADD MSTORE LOG1 PUSH1 0x1 DUP1 SSTORE DUP1 RETURN JUMPDEST PUSH4 0x4E487B71 PUSH1 0xE0 SHL DUP7 MSTORE PUSH1 0x11 DUP8 MSTORE PUSH1 0x24 DUP7 REVERT JUMPDEST PUSH4 0x4E487B71 PUSH1 0xE0 SHL DUP8 MSTORE PUSH1 0x41 DUP9 MSTORE PUSH1 0x24 DUP8 REVERT JUMPDEST DUP6 PUSH1 0x84 SWAP2 DUP6 MLOAD SWAP2 PUSH3 0x461BCD PUSH1 0xE5 SHL DUP4 MSTORE DUP3 ADD MSTORE PUSH1 0x2D PUSH1 0x24 DUP3 ADD MSTORE PUSH32 0x4469766964656E644469737472696275746F723A204E6F20746F6B656E732069 PUSH1 0x44 DUP3 ADD MSTORE PUSH13 0x371031B4B931BAB630BA34B7B7 PUSH1 0x99 SHL PUSH1 0x64 DUP3 ADD MSTORE REVERT JUMPDEST SWAP1 DUP1 SWAP3 POP DUP2 DUP2 RETURNDATASIZE DUP4 GT PUSH2 0xA93 JUMPI JUMPDEST PUSH2 0xA7F DUP2 DUP4 PUSH2 0xDD1 JUMP JUMPDEST DUP2 ADD SUB SLT PUSH2 0xA8F JUMPI MLOAD SWAP1 CODESIZE PUSH2 0x90A JUMP JUMPDEST DUP5 DUP1 REVERT JUMPDEST POP RETURNDATASIZE PUSH2 0xA75 JUMP JUMPDEST DUP5 MLOAD RETURNDATASIZE DUP8 DUP3 RETURNDATACOPY RETURNDATASIZE SWAP1 REVERT JUMPDEST DUP5 PUSH1 0x84 SWAP2 DUP5 MLOAD SWAP2 PUSH3 0x461BCD PUSH1 0xE5 SHL DUP4 MSTORE DUP3 ADD MSTORE PUSH1 0x32 PUSH1 0x24 DUP3 ADD MSTORE PUSH32 0x4469766964656E644469737472696275746F723A20416D6F756E74206D757374 PUSH1 0x44 DUP3 ADD MSTORE PUSH18 0x2062652067726561746572207468616E203 PUSH1 0x74 SHL PUSH1 0x64 DUP3 ADD MSTORE REVERT JUMPDEST DUP4 MLOAD PUSH4 0xE2517D3F PUSH1 0xE0 SHL DUP2 MSTORE CALLER DUP2 DUP9 ADD MSTORE PUSH1 0x24 DUP2 ADD SWAP2 SWAP1 SWAP2 MSTORE PUSH1 0x44 SWAP1 REVERT JUMPDEST POP SWAP1 CALLVALUE PUSH2 0x15D JUMPI DUP1 PUSH1 0x3 NOT CALLDATASIZE ADD SLT PUSH2 0x15D JUMPI PUSH2 0x48C SWAP2 CALLDATALOAD PUSH2 0xB43 PUSH1 0x1 PUSH2 0x476 PUSH2 0xC4A JUMP JUMPDEST PUSH2 0xCDE JUMP JUMPDEST POP POP CALLVALUE PUSH2 0x1A5 JUMPI PUSH1 0x20 CALLDATASIZE PUSH1 0x3 NOT ADD SLT PUSH2 0x1A5 JUMPI PUSH1 0x20 SWAP1 PUSH2 0x156 PUSH2 0xB69 PUSH2 0xC2F JUMP JUMPDEST PUSH2 0xF34 JUMP JUMPDEST POP CALLVALUE PUSH2 0x15D JUMPI PUSH1 0x20 CALLDATASIZE PUSH1 0x3 NOT ADD SLT PUSH2 0x15D JUMPI DUP2 PUSH1 0x20 SWAP4 PUSH1 0x1 SWAP3 CALLDATALOAD DUP2 MSTORE DUP1 DUP6 MSTORE KECCAK256 ADD SLOAD SWAP1 MLOAD SWAP1 DUP2 MSTORE RETURN JUMPDEST POP POP CALLVALUE PUSH2 0x1A5 JUMPI DUP2 PUSH1 0x3 NOT CALLDATASIZE ADD SLT PUSH2 0x1A5 JUMPI MLOAD PUSH32 0x0 PUSH1 0x1 PUSH1 0x1 PUSH1 0xA0 SHL SUB AND DUP2 MSTORE PUSH1 0x20 SWAP1 RETURN JUMPDEST SWAP3 POP POP CALLVALUE PUSH2 0x15D JUMPI PUSH1 0x20 CALLDATASIZE PUSH1 0x3 NOT ADD SLT PUSH2 0x15D JUMPI CALLDATALOAD PUSH4 0xFFFFFFFF PUSH1 0xE0 SHL DUP2 AND DUP1 SWAP2 SUB PUSH2 0x15D JUMPI PUSH1 0x20 SWAP3 POP PUSH4 0x7965DB0B PUSH1 0xE0 SHL DUP2 EQ SWAP1 DUP2 ISZERO PUSH2 0xC1E JUMPI JUMPDEST POP ISZERO ISZERO DUP2 MSTORE RETURN JUMPDEST PUSH4 0x1FFC9A7 PUSH1 0xE0 SHL EQ SWAP1 POP CODESIZE PUSH2 0xC17 JUMP JUMPDEST PUSH1 0x4 CALLDATALOAD SWAP1 PUSH1 0x1 PUSH1 0x1 PUSH1 0xA0 SHL SUB DUP3 AND DUP3 SUB PUSH2 0xC45 JUMPI JUMP JUMPDEST PUSH1 0x0 DUP1 REVERT JUMPDEST PUSH1 0x24 CALLDATALOAD SWAP1 PUSH1 0x1 PUSH1 0x1 PUSH1 0xA0 SHL SUB DUP3 AND DUP3 SUB PUSH2 0xC45 JUMPI JUMP JUMPDEST CALLER PUSH1 0x0 SWAP1 DUP2 MSTORE PUSH32 0xAD3228B676F7D3CD4284A5443F17F1962B36E491B30A40B2405849E597BA5FB5 PUSH1 0x20 MSTORE PUSH1 0x40 DUP2 KECCAK256 SLOAD PUSH1 0xFF AND ISZERO PUSH2 0xC9A JUMPI POP JUMP JUMPDEST PUSH1 0x44 SWAP1 PUSH1 0x40 MLOAD SWAP1 PUSH4 0xE2517D3F PUSH1 0xE0 SHL DUP3 MSTORE CALLER PUSH1 0x4 DUP4 ADD MSTORE PUSH1 0x24 DUP3 ADD MSTORE REVERT JUMPDEST DUP1 PUSH1 0x0 MSTORE PUSH1 0x0 PUSH1 0x20 MSTORE PUSH1 0x40 PUSH1 0x0 KECCAK256 CALLER PUSH1 0x0 MSTORE PUSH1 0x20 MSTORE PUSH1 0xFF PUSH1 0x40 PUSH1 0x0 KECCAK256 SLOAD AND ISZERO PUSH2 0xC9A JUMPI POP JUMP JUMPDEST SWAP1 PUSH1 0x0 SWAP2 DUP1 DUP4 MSTORE DUP3 PUSH1 0x20 MSTORE PUSH1 0x40 DUP4 KECCAK256 SWAP2 PUSH1 0x1 DUP1 PUSH1 0xA0 SHL SUB AND SWAP2 DUP3 DUP5 MSTORE PUSH1 0x20 MSTORE PUSH1 0xFF PUSH1 0x40 DUP5 KECCAK256 SLOAD AND ISZERO PUSH1 0x0 EQ PUSH2 0xD57 JUMPI DUP1 DUP4 MSTORE DUP3 PUSH1 0x20 MSTORE PUSH1 0x40 DUP4 KECCAK256 DUP3 DUP5 MSTORE PUSH1 0x20 MSTORE PUSH1 0x40 DUP4 KECCAK256 PUSH1 0x1 PUSH1 0xFF NOT DUP3 SLOAD AND OR SWAP1 SSTORE PUSH32 0x2F8788117E7EFF1D82E926EC794901D17C78024A50270940304540A733656F0D CALLER SWAP4 DUP1 LOG4 PUSH1 0x1 SWAP1 JUMP JUMPDEST POP POP SWAP1 JUMP JUMPDEST SWAP1 PUSH1 0x0 SWAP2 DUP1 DUP4 MSTORE DUP3 PUSH1 0x20 MSTORE PUSH1 0x40 DUP4 KECCAK256 SWAP2 PUSH1 0x1 DUP1 PUSH1 0xA0 SHL SUB AND SWAP2 DUP3 DUP5 MSTORE PUSH1 0x20 MSTORE PUSH1 0xFF PUSH1 0x40 DUP5 KECCAK256 SLOAD AND PUSH1 0x0 EQ PUSH2 0xD57 JUMPI DUP1 DUP4 MSTORE DUP3 PUSH1 0x20 MSTORE PUSH1 0x40 DUP4 KECCAK256 DUP3 DUP5 MSTORE PUSH1 0x20 MSTORE PUSH1 0x40 DUP4 KECCAK256 PUSH1 0xFF NOT DUP2 SLOAD AND SWAP1 SSTORE PUSH32 0xF6391F5C32D9C69D2A47EA670B442974B53935D1EDC7FD64EB21E047A839171B CALLER SWAP4 DUP1 LOG4 PUSH1 0x1 SWAP1 JUMP JUMPDEST SWAP1 PUSH1 0x1F DUP1 NOT SWAP2 ADD AND DUP2 ADD SWAP1 DUP2 LT PUSH8 0xFFFFFFFFFFFFFFFF DUP3 GT OR PUSH2 0xDF3 JUMPI PUSH1 0x40 MSTORE JUMP JUMPDEST PUSH4 0x4E487B71 PUSH1 0xE0 SHL PUSH1 0x0 MSTORE PUSH1 0x41 PUSH1 0x4 MSTORE PUSH1 0x24 PUSH1 0x0 REVERT JUMPDEST SWAP2 SWAP1 DUP3 ADD DUP1 SWAP3 GT PUSH2 0xE16 JUMPI JUMP JUMPDEST PUSH4 0x4E487B71 PUSH1 0xE0 SHL PUSH1 0x0 MSTORE PUSH1 0x11 PUSH1 0x4 MSTORE PUSH1 0x24 PUSH1 0x0 REVERT JUMPDEST SWAP1 PUSH1 0x0 PUSH1 0x20 SWAP2 DUP3 DUP2 MLOAD SWAP2 ADD DUP3 DUP6 GAS CALL ISZERO PUSH2 0xE88 JUMPI PUSH1 0x0 MLOAD RETURNDATASIZE PUSH2 0xE7F JUMPI POP PUSH1 0x1 PUSH1 0x1 PUSH1 0xA0 SHL SUB DUP2 AND EXTCODESIZE ISZERO JUMPDEST PUSH2 0xE5D JUMPI POP JUMP JUMPDEST PUSH1 0x40 MLOAD PUSH4 0x5274AFE7 PUSH1 0xE0 SHL DUP2 MSTORE PUSH1 0x1 PUSH1 0x1 PUSH1 0xA0 SHL SUB SWAP1 SWAP2 AND PUSH1 0x4 DUP3 ADD MSTORE PUSH1 0x24 SWAP1 REVERT JUMPDEST PUSH1 0x1 EQ ISZERO PUSH2 0xE56 JUMP JUMPDEST PUSH1 0x40 MLOAD RETURNDATASIZE PUSH1 0x0 DUP3 RETURNDATACOPY RETURNDATASIZE SWAP1 REVERT JUMPDEST PUSH1 0xFF PUSH1 0x2 SLOAD AND PUSH2 0xEA0 JUMPI JUMP JUMPDEST PUSH1 0x40 MLOAD PUSH4 0xD93C0665 PUSH1 0xE0 SHL DUP2 MSTORE PUSH1 0x4 SWAP1 REVERT JUMPDEST PUSH1 0x2 PUSH1 0x1 SLOAD EQ PUSH2 0xEC3 JUMPI PUSH1 0x2 PUSH1 0x1 SSTORE JUMP JUMPDEST PUSH1 0x40 MLOAD PUSH4 0x3EE5AEB5 PUSH1 0xE0 SHL DUP2 MSTORE PUSH1 0x4 SWAP1 REVERT JUMPDEST PUSH1 0x40 MLOAD PUSH4 0xA9059CBB PUSH1 0xE0 SHL PUSH1 0x20 DUP3 ADD MSTORE PUSH1 0x1 PUSH1 0x1 PUSH1 0xA0 SHL SUB SWAP1 SWAP3 AND PUSH1 0x24 DUP4 ADD MSTORE PUSH1 0x44 DUP1 DUP4 ADD SWAP4 SWAP1 SWAP4 MSTORE SWAP2 DUP2 MSTORE PUSH1 0x80 DUP2 ADD SWAP2 PUSH8 0xFFFFFFFFFFFFFFFF DUP4 GT DUP3 DUP5 LT OR PUSH2 0xDF3 JUMPI PUSH2 0xF25 SWAP3 PUSH1 0x40 MSTORE PUSH2 0xE2C JUMP JUMPDEST JUMP JUMPDEST SWAP2 SWAP1 DUP3 SUB SWAP2 DUP3 GT PUSH2 0xE16 JUMPI JUMP JUMPDEST PUSH1 0x40 MLOAD PUSH4 0x70A08231 PUSH1 0xE0 SHL DUP2 MSTORE PUSH1 0x1 PUSH1 0x1 PUSH1 0xA0 SHL SUB SWAP2 DUP3 AND PUSH1 0x4 DUP3 ADD DUP2 SWAP1 MSTORE SWAP1 SWAP2 PUSH1 0x20 SWAP1 DUP4 SWAP1 PUSH1 0x24 SWAP1 DUP3 SWAP1 PUSH32 0x0 AND GAS STATICCALL SWAP2 DUP3 ISZERO PUSH2 0xE88 JUMPI PUSH1 0x0 SWAP3 PUSH2 0xFD5 JUMPI JUMPDEST POP DUP2 ISZERO PUSH2 0xFCE JUMPI PUSH2 0xFB5 SWAP1 PUSH1 0x6 SLOAD SWAP1 PUSH1 0x0 MSTORE PUSH1 0x5 PUSH1 0x20 MSTORE PUSH1 0x40 PUSH1 0x0 KECCAK256 SLOAD SWAP1 PUSH2 0xF27 JUMP JUMPDEST DUP1 DUP3 MUL SWAP2 DUP3 DIV SUB PUSH2 0xE16 JUMPI PUSH8 0xDE0B6B3A7640000 SWAP1 DIV SWAP1 JUMP JUMPDEST POP POP PUSH1 0x0 SWAP1 JUMP JUMPDEST SWAP1 SWAP2 PUSH1 0x20 DUP3 RETURNDATASIZE DUP3 GT PUSH2 0x1003 JUMPI JUMPDEST DUP2 PUSH2 0xFEF PUSH1 0x20 SWAP4 DUP4 PUSH2 0xDD1 JUMP JUMPDEST DUP2 ADD SUB SLT PUSH2 0x1000 JUMPI POP MLOAD SWAP1 CODESIZE PUSH2 0xF92 JUMP JUMPDEST DUP1 REVERT JUMPDEST RETURNDATASIZE SWAP2 POP PUSH2 0xFE2 JUMP INVALID LOG2 PUSH5 0x6970667358 0x22 SLT KECCAK256 DUP9 STOP 0xF7 0x4C SWAP16 0xED 0xA6 0xC6 0xBA 0xC7 0xDE 0xEA 0xE4 CALLDATALOAD 0x28 SWAP6 0x4C DIV CHAINID PUSH22 0xAA685CC508AADC17D06CB03964736F6C634300081400 CALLER 0x2F DUP8 DUP9 GT PUSH31 0x7EFF1D82E926EC794901D17C78024A50270940304540A733656F0D00000000 "},"methodIdentifiers":{"DEFAULT_ADMIN_ROLE()":"a217fddf","DISTRIBUTOR_ROLE()":"f0bd87cc","claimDividend()":"f0fc6bca","distributeDividends(uint256)":"3243c791","dividendToken()":"1582358e","emergencyWithdraw(address,uint256)":"95ccea67","getDividendStats()":"f4622cf0","getDividendsWithdrawn(address)":"f982b597","getPendingDividends(address)":"2c3dcbc7","getRoleAdmin(bytes32)":"248a9ca3","getTotalDividendsEarned(address)":"ff00e705","grantRole(bytes32,address)":"2f2ff15d","hasRole(bytes32,address)":"91d14854","pause()":"8456cb59","paused()":"5c975abb","renounceRole(bytes32,address)":"36568abe","revokeRole(bytes32,address)":"d547741f","supportsInterface(bytes4)":"01ffc9a7","token()":"fc0c546a","totalDividendsDistributed()":"85a6b3ae","unpause()":"3f4ba83a","updateDividendTracker(address)":"88bdd9be"}}}}}