{"contracts/BlockCoopV2.sol":{"BLOCKS":{"abi":[{"inputs":[{"internalType":"string","name":"name","type":"string"},{"internalType":"string","name":"symbol","type":"string"},{"internalType":"address","name":"admin","type":"address"},{"internalType":"address","name":"_swapTaxManager","type":"address"}],"stateMutability":"nonpayable","type":"constructor"},{"inputs":[],"name":"AccessControlBadConfirmation","type":"error"},{"inputs":[{"internalType":"address","name":"account","type":"address"},{"internalType":"bytes32","name":"neededRole","type":"bytes32"}],"name":"AccessControlUnauthorizedAccount","type":"error"},{"inputs":[{"internalType":"address","name":"spender","type":"address"},{"internalType":"uint256","name":"allowance","type":"uint256"},{"internalType":"uint256","name":"needed","type":"uint256"}],"name":"ERC20InsufficientAllowance","type":"error"},{"inputs":[{"internalType":"address","name":"sender","type":"address"},{"internalType":"uint256","name":"balance","type":"uint256"},{"internalType":"uint256","name":"needed","type":"uint256"}],"name":"ERC20InsufficientBalance","type":"error"},{"inputs":[{"internalType":"address","name":"approver","type":"address"}],"name":"ERC20InvalidApprover","type":"error"},{"inputs":[{"internalType":"address","name":"receiver","type":"address"}],"name":"ERC20InvalidReceiver","type":"error"},{"inputs":[{"internalType":"address","name":"sender","type":"address"}],"name":"ERC20InvalidSender","type":"error"},{"inputs":[{"internalType":"address","name":"spender","type":"address"}],"name":"ERC20InvalidSpender","type":"error"},{"anonymous":false,"inputs":[{"indexed":true,"internalType":"address","name":"pair","type":"address"},{"indexed":false,"internalType":"bool","name":"isAMM","type":"bool"}],"name":"AMMStatusUpdated","type":"event"},{"anonymous":false,"inputs":[{"indexed":true,"internalType":"address","name":"owner","type":"address"},{"indexed":true,"internalType":"address","name":"spender","type":"address"},{"indexed":false,"internalType":"uint256","name":"value","type":"uint256"}],"name":"Approval","type":"event"},{"anonymous":false,"inputs":[{"indexed":true,"internalType":"bytes32","name":"role","type":"bytes32"},{"indexed":true,"internalType":"bytes32","name":"previousAdminRole","type":"bytes32"},{"indexed":true,"internalType":"bytes32","name":"newAdminRole","type":"bytes32"}],"name":"RoleAdminChanged","type":"event"},{"anonymous":false,"inputs":[{"indexed":true,"internalType":"bytes32","name":"role","type":"bytes32"},{"indexed":true,"internalType":"address","name":"account","type":"address"},{"indexed":true,"internalType":"address","name":"sender","type":"address"}],"name":"RoleGranted","type":"event"},{"anonymous":false,"inputs":[{"indexed":true,"internalType":"bytes32","name":"role","type":"bytes32"},{"indexed":true,"internalType":"address","name":"account","type":"address"},{"indexed":true,"internalType":"address","name":"sender","type":"address"}],"name":"RoleRevoked","type":"event"},{"anonymous":false,"inputs":[{"indexed":true,"internalType":"bytes32","name":"taxKey","type":"bytes32"},{"indexed":true,"internalType":"address","name":"from","type":"address"},{"indexed":true,"internalType":"address","name":"to","type":"address"},{"indexed":false,"internalType":"uint256","name":"taxAmount","type":"uint256"}],"name":"SwapTaxApplied","type":"event"},{"anonymous":false,"inputs":[{"indexed":true,"internalType":"address","name":"oldManager","type":"address"},{"indexed":true,"internalType":"address","name":"newManager","type":"address"}],"name":"SwapTaxManagerUpdated","type":"event"},{"anonymous":false,"inputs":[{"indexed":true,"internalType":"address","name":"from","type":"address"},{"indexed":true,"internalType":"address","name":"to","type":"address"},{"indexed":false,"internalType":"uint256","name":"value","type":"uint256"}],"name":"Transfer","type":"event"},{"inputs":[],"name":"BUY_TAX_KEY","outputs":[{"internalType":"bytes32","name":"","type":"bytes32"}],"stateMutability":"view","type":"function"},{"inputs":[],"name":"DEFAULT_ADMIN_ROLE","outputs":[{"internalType":"bytes32","name":"","type":"bytes32"}],"stateMutability":"view","type":"function"},{"inputs":[],"name":"MINTER_ROLE","outputs":[{"internalType":"bytes32","name":"","type":"bytes32"}],"stateMutability":"view","type":"function"},{"inputs":[],"name":"SELL_TAX_KEY","outputs":[{"internalType":"bytes32","name":"","type":"bytes32"}],"stateMutability":"view","type":"function"},{"inputs":[],"name":"TAX_MANAGER_ROLE","outputs":[{"internalType":"bytes32","name":"","type":"bytes32"}],"stateMutability":"view","type":"function"},{"inputs":[{"internalType":"address","name":"owner","type":"address"},{"internalType":"address","name":"spender","type":"address"}],"name":"allowance","outputs":[{"internalType":"uint256","name":"","type":"uint256"}],"stateMutability":"view","type":"function"},{"inputs":[{"internalType":"address","name":"spender","type":"address"},{"internalType":"uint256","name":"value","type":"uint256"}],"name":"approve","outputs":[{"internalType":"bool","name":"","type":"bool"}],"stateMutability":"nonpayable","type":"function"},{"inputs":[{"internalType":"address","name":"account","type":"address"}],"name":"balanceOf","outputs":[{"internalType":"uint256","name":"","type":"uint256"}],"stateMutability":"view","type":"function"},{"inputs":[],"name":"decimals","outputs":[{"internalType":"uint8","name":"","type":"uint8"}],"stateMutability":"view","type":"function"},{"inputs":[{"internalType":"bytes32","name":"role","type":"bytes32"}],"name":"getRoleAdmin","outputs":[{"internalType":"bytes32","name":"","type":"bytes32"}],"stateMutability":"view","type":"function"},{"inputs":[{"internalType":"bytes32","name":"role","type":"bytes32"},{"internalType":"address","name":"account","type":"address"}],"name":"grantRole","outputs":[],"stateMutability":"nonpayable","type":"function"},{"inputs":[{"internalType":"bytes32","name":"role","type":"bytes32"},{"internalType":"address","name":"account","type":"address"}],"name":"hasRole","outputs":[{"internalType":"bool","name":"","type":"bool"}],"stateMutability":"view","type":"function"},{"inputs":[{"internalType":"address","name":"","type":"address"}],"name":"isAMM","outputs":[{"internalType":"bool","name":"","type":"bool"}],"stateMutability":"view","type":"function"},{"inputs":[{"internalType":"address","name":"to","type":"address"},{"internalType":"uint256","name":"amount","type":"uint256"}],"name":"mint","outputs":[],"stateMutability":"nonpayable","type":"function"},{"inputs":[],"name":"name","outputs":[{"internalType":"string","name":"","type":"string"}],"stateMutability":"view","type":"function"},{"inputs":[{"internalType":"bytes32","name":"role","type":"bytes32"},{"internalType":"address","name":"callerConfirmation","type":"address"}],"name":"renounceRole","outputs":[],"stateMutability":"nonpayable","type":"function"},{"inputs":[{"internalType":"bytes32","name":"role","type":"bytes32"},{"internalType":"address","name":"account","type":"address"}],"name":"revokeRole","outputs":[],"stateMutability":"nonpayable","type":"function"},{"inputs":[{"internalType":"address","name":"pair","type":"address"},{"internalType":"bool","name":"_isAMM","type":"bool"}],"name":"setAMMStatus","outputs":[],"stateMutability":"nonpayable","type":"function"},{"inputs":[{"internalType":"address","name":"_swapTaxManager","type":"address"}],"name":"setSwapTaxManager","outputs":[],"stateMutability":"nonpayable","type":"function"},{"inputs":[{"internalType":"bytes4","name":"interfaceId","type":"bytes4"}],"name":"supportsInterface","outputs":[{"internalType":"bool","name":"","type":"bool"}],"stateMutability":"view","type":"function"},{"inputs":[],"name":"swapTaxManager","outputs":[{"internalType":"contract ISwapTaxManager","name":"","type":"address"}],"stateMutability":"view","type":"function"},{"inputs":[],"name":"symbol","outputs":[{"internalType":"string","name":"","type":"string"}],"stateMutability":"view","type":"function"},{"inputs":[],"name":"totalSupply","outputs":[{"internalType":"uint256","name":"","type":"uint256"}],"stateMutability":"view","type":"function"},{"inputs":[{"internalType":"address","name":"to","type":"address"},{"internalType":"uint256","name":"amount","type":"uint256"}],"name":"transfer","outputs":[{"internalType":"bool","name":"","type":"bool"}],"stateMutability":"nonpayable","type":"function"},{"inputs":[{"internalType":"address","name":"from","type":"address"},{"internalType":"address","name":"to","type":"address"},{"internalType":"uint256","name":"amount","type":"uint256"}],"name":"transferFrom","outputs":[{"internalType":"bool","name":"","type":"bool"}],"stateMutability":"nonpayable","type":"function"}],"evm":{"bytecode":{"linkReferences":{},"object":"6080604052346200036c57620015bb803803806200001d8162000371565b92833981016080828203126200036c5781516001600160401b0392908381116200036c57826200004f91830162000397565b9160209081830151908582116200036c576200006d91840162000397565b936200008a6060620000826040860162000409565b940162000409565b938051908282116200026c576003918254906001928383811c9316801562000361575b878410146200034b578190601f93848111620002f5575b5087908483116001146200028e5760009262000282575b505060001982861b1c191690831b1783555b87519384116200026c5760049485548381811c9116801562000261575b828210146200024c5782811162000201575b5080918511600114620001905750839291839162000153989960009562000184575b50501b92600019911b1c19161790556200041e565b50600680546001600160a01b0319166001600160a01b039290921691909117905560405161110a9081620004b18239f35b0151935038806200013e565b91939290601f198416988660005283600020936000905b8b8210620001e95750508462000153999a10620001ce575b50505050811b0190556200041e565b01519060f884600019921b161c1916905538808080620001bf565b808885978294968601518155019601930190620001a7565b86600052816000208380880160051c82019284891062000242575b0160051c019084905b828110620002355750506200011c565b6000815501849062000225565b925081926200021c565b602287634e487b7160e01b6000525260246000fd5b90607f16906200010a565b634e487b7160e01b600052604160045260246000fd5b015190503880620000db565b90859350601f1983169187600052896000209260005b8b828210620002de5750508411620002c5575b505050811b018355620000ed565b015160001983881b60f8161c19169055388080620002b7565b8385015186558997909501949384019301620002a4565b90915085600052876000208480850160051c8201928a861062000341575b918791869594930160051c01915b82811062000331575050620000c4565b6000815585945087910162000321565b9250819262000313565b634e487b7160e01b600052602260045260246000fd5b92607f1692620000ad565b600080fd5b6040519190601f01601f191682016001600160401b038111838210176200026c57604052565b919080601f840112156200036c5782516001600160401b0381116200026c57602090620003cd601f8201601f1916830162000371565b928184528282870101116200036c5760005b818110620003f557508260009394955001015290565b8581018301518482018401528201620003df565b51906001600160a01b03821682036200036c57565b6001600160a01b031660008181527f05b8ccbb9d4d8fb16ea74ce3c29a41f1b461fbdaff4714a0d9a8eb05499746bc602052604081205490919060ff16620004ac5781805260056020526040822081835260205260408220600160ff1982541617905533917f2f8788117e7eff1d82e926ec794901d17c78024a50270940304540a733656f0d8180a4600190565b509056fe6080604081815260048036101561001557600080fd5b600092833560e01c90816301ffc9a714610b5b5750806306fdde0314610a67578063095ea7b3146109be57806318160ddd1461099f57806323b872dd1461089a578063248a9ca3146108705780632f2ff15d14610847578063313ce5671461082b57806336568abe146107e457806340c10f19146106fe578063424ba848146105dd57806343fb90a6146105b457806370a082311461057d5780638bd08d991461054257806391d14854146104fc57806395d89b41146103f8578063967a2a70146103bd578063a217fddf146103a2578063a9059cbb14610367578063bea23e681461032c578063d46b6a30146102ee578063d5391393146102b3578063d547741f14610274578063dd62ed3e146102275763eda929231461013657600080fd5b346102235760203660031901126102235761014f610bf8565b90838052600560205282842033855260205260ff838520541615610206576001600160a01b039182169283156101c3575050600654826bffffffffffffffffffffffff60a01b821617600655167f62fdf470703779b7c46c8407475d199ba05b143673ef3faaec6a56efb1f76bb68380a380f35b906020606492519162461bcd60e51b8352820152601b60248201527f424c4f434b533a20496e76616c696420746178206d616e6167657200000000006044820152fd5b6044908484519163e2517d3f60e01b835233908301526024820152fd5b8280fd5b50503461027057806003193601126102705780602092610245610bf8565b61024d610c13565b6001600160a01b0391821683526001865283832091168252845220549051908152f35b5080fd5b5090346102235780600319360112610223576102af91356102aa6001610298610c13565b93838752600560205286200154610c29565b610ced565b5080f35b505034610270578160031936011261027057602090517f9f2df0fed2c77648de5860a4cc508cd0818c85b8b8a1ab4ceeef8d981c8956a68152f35b5050346102705760203660031901126102705760209160ff9082906001600160a01b03610319610bf8565b1681526007855220541690519015158152f35b505034610270578160031936011261027057602090517f8e9b148654316179bd45e9ec5f0b575ae8288e79df16d7be748ec9a9bdca8b4c8152f35b50503461027057806003193601126102705760209061039b610387610bf8565b6103946024358233610e7a565b9033610d9c565b5160018152f35b50503461027057816003193601126102705751908152602090f35b505034610270578160031936011261027057602090517f30f4f48440c1ad721c73a3b5549aa3db7105f00012df64020e3a66b689c0e70b8152f35b50919034610270578160031936011261027057805191809380549160019083821c928285169485156104f2575b60209586861081146104df578589529081156104bb5750600114610463575b61045f8787610455828c0383610d64565b5191829182610baf565b0390f35b81529295507f8a35acfbc15ff81a39ae7d344fd709f28e8600b4aa8c65c6b64bfe7fe36bd19b5b8284106104a8575050508261045f9461045592820101943880610444565b805486850188015292860192810161048a565b60ff19168887015250505050151560051b83010192506104558261045f3880610444565b634e487b7160e01b845260228352602484fd5b93607f1693610425565b50346102235781600319360112610223578160209360ff9261051c610c13565b90358252600586528282206001600160a01b039091168252855220549151911615158152f35b505034610270578160031936011261027057602090517f46e2aa85b4ea4837644e46fe22acb44743da12e349006c0093a61f6bf09676028152f35b5050346102705760203660031901126102705760209181906001600160a01b036105a5610bf8565b16815280845220549051908152f35b50503461027057816003193601126102705760065490516001600160a01b039091168152602090f35b5090346102235780600319360112610223576105f7610bf8565b90602435918215158093036106fa577f30f4f48440c1ad721c73a3b5549aa3db7105f00012df64020e3a66b689c0e70b808652600560205282862033875260205260ff8387205416156106dc57506001600160a01b031692831561069a57507f33add1feebd4edfa2a3ddda0bad6cd03949c993877767bf1e6c78f3fa709c63e916020918486526007835280862060ff1981541660ff841617905551908152a280f35b6020606492519162461bcd60e51b8352820152601c60248201527f424c4f434b533a20496e76616c696420706169722061646472657373000000006044820152fd5b825163e2517d3f60e01b815233818701526024810191909152604490fd5b8480fd5b509034610223578060031936011261022357610718610bf8565b90602435917f9f2df0fed2c77648de5860a4cc508cd0818c85b8b8a1ab4ceeef8d981c8956a6808652600560205282862033875260205260ff8387205416156106dc57506001600160a01b03169283156107cf57600254908382018092116107bc575084927fddf252ad1be2c89b69c2b068fc378daa952ba7f163c4a11628f55a4df523b3ef9260209260025585855284835280852082815401905551908152a380f35b634e487b7160e01b865260119052602485fd5b84602492519163ec442f0560e01b8352820152fd5b509190346102705780600319360112610270576107ff610c13565b90336001600160a01b0383160361081c57506102af919235610ced565b5163334bd91960e11b81528390fd5b5050346102705781600319360112610270576020905160128152f35b5090346102235780600319360112610223576102af913561086b6001610298610c13565b610c6d565b50346102235760203660031901126102235781602093600192358152600585522001549051908152f35b50823461099c57606036600319011261099c576108b5610bf8565b916108be610c13565b916044359160018060a01b038516808352600160205286832033845260205286832054916000198310610905575b60208861039b89896108ff8a8284610e7a565b91610d9c565b848310610970578115610959573315610942575082526001602090815286832033845281529186902090839003905582906108ff9061039b6108ec565b8751634a1406b160e11b8152908101849052602490fd5b875163e602df0560e01b8152908101849052602490fd5b8751637dc7a0d960e11b8152339181019182526020820193909352604081018590528291506060010390fd5b80fd5b5050346102705781600319360112610270576020906002549051908152f35b50346102235781600319360112610223576109d7610bf8565b602435903315610a50576001600160a01b0316918215610a3957508083602095338152600187528181208582528752205582519081527f8c5be1e5ebec7d5bd14f71427d1e84f3dd0314c0f7b2291e5b200ac8c7c3b925843392a35160018152f35b8351634a1406b160e11b8152908101859052602490fd5b835163e602df0560e01b8152808401869052602490fd5b509034610223578260031936011261022357805191836003549060019082821c928281168015610b51575b6020958686108214610b3e5750848852908115610b1c5750600114610ac3575b61045f8686610455828b0383610d64565b929550600383527fc2575a0e9e593c00f959f8c92f12db2869c3395a3b0502d05e2516446f71f85b5b828410610b09575050508261045f94610455928201019438610ab2565b8054868501880152928601928101610aec565b60ff191687860152505050151560051b83010192506104558261045f38610ab2565b634e487b7160e01b845260229052602483fd5b93607f1693610a92565b92505034610223576020366003190112610223573563ffffffff60e01b81168091036102235760209250637965db0b60e01b8114908115610b9e575b5015158152f35b6301ffc9a760e01b14905038610b97565b6020808252825181830181905290939260005b828110610be457505060409293506000838284010152601f8019910116010190565b818101860151848201604001528501610bc2565b600435906001600160a01b0382168203610c0e57565b600080fd5b602435906001600160a01b0382168203610c0e57565b80600052600560205260406000203360005260205260ff6040600020541615610c4f5750565b6044906040519063e2517d3f60e01b82523360048301526024820152fd5b906000918083526005602052604083209160018060a01b03169182845260205260ff60408420541615600014610ce85780835260056020526040832082845260205260408320600160ff198254161790557f2f8788117e7eff1d82e926ec794901d17c78024a50270940304540a733656f0d339380a4600190565b505090565b906000918083526005602052604083209160018060a01b03169182845260205260ff604084205416600014610ce8578083526005602052604083208284526020526040832060ff1981541690557ff6391f5c32d9c69d2a47ea670b442974b53935d1edc7fd64eb21e047a839171b339380a4600190565b90601f8019910116810190811067ffffffffffffffff821117610d8657604052565b634e487b7160e01b600052604160045260246000fd5b916001600160a01b03808416928315610e615716928315610e485760009083825281602052604082205490838210610e16575091604082827fddf252ad1be2c89b69c2b068fc378daa952ba7f163c4a11628f55a4df523b3ef958760209652828652038282205586815220818154019055604051908152a3565b60405163391434e360e21b81526001600160a01b03919091166004820152602481019190915260448101839052606490fd5b60405163ec442f0560e01b815260006004820152602490fd5b604051634b637e8f60e11b815260006004820152602490fd5b919060018060a01b038084169081600052600760205260ff6040600020541680610ee5575b15610eb2575050610eaf92611056565b90565b821660005260ff604060002054169081610edb575b50610ed25750905090565b610eaf92610ef0565b9050151538610ec7565b508083161515610e9f565b6006546001600160a01b0392908316801561104f5760408051906367403b6160e01b825280826024817f46e2aa85b4ea4837644e46fe22acb44743da12e349006c0093a61f6bf0967602968760048301525afa918215611044576000908193610ff4575b5061ffff1680151580610fe9575b610f71575b5050505050505090565b808802908882041488151715610fd3576127109004958615610f675780602092610fbd897fa7ae82844ad7274ffc746c1b05d7367aa0cf8438a545600854b4183ba7d3864a968a610d9c565b519588875216951693a48103908111610fd35790565b634e487b7160e01b600052601160045260246000fd5b508683161515610f62565b9092508181813d831161103d575b61100c8183610d64565b810103126102235780519061ffff82168203611039576020015192878416840361099c575061ffff610f54565b8380fd5b503d611002565b50513d6000823e3d90fd5b5050505090565b6006546001600160a01b0392908316801561104f5760408051906367403b6160e01b825280826024817f8e9b148654316179bd45e9ec5f0b575ae8288e79df16d7be748ec9a9bdca8b4c968760048301525afa918215611044576000908193610ff4575061ffff1680151580610fe957610f7157505050505050509056fea264697066735822122098b4353d570855cdbf88ddb7987d8a3a688c1baa073a2ff49465f484480b8da964736f6c63430008140033","opcodes":"PUSH1 0x80 PUSH1 0x40 MSTORE CALLVALUE PUSH3 0x36C JUMPI PUSH3 0x15BB DUP1 CODESIZE SUB DUP1 PUSH3 0x1D DUP2 PUSH3 0x371 JUMP JUMPDEST SWAP3 DUP4 CODECOPY DUP2 ADD PUSH1 0x80 DUP3 DUP3 SUB SLT PUSH3 0x36C JUMPI DUP2 MLOAD PUSH1 0x1 PUSH1 0x1 PUSH1 0x40 SHL SUB SWAP3 SWAP1 DUP4 DUP2 GT PUSH3 0x36C JUMPI DUP3 PUSH3 0x4F SWAP2 DUP4 ADD PUSH3 0x397 JUMP JUMPDEST SWAP2 PUSH1 0x20 SWAP1 DUP2 DUP4 ADD MLOAD SWAP1 DUP6 DUP3 GT PUSH3 0x36C JUMPI PUSH3 0x6D SWAP2 DUP5 ADD PUSH3 0x397 JUMP JUMPDEST SWAP4 PUSH3 0x8A PUSH1 0x60 PUSH3 0x82 PUSH1 0x40 DUP7 ADD PUSH3 0x409 JUMP JUMPDEST SWAP5 ADD PUSH3 0x409 JUMP JUMPDEST SWAP4 DUP1 MLOAD SWAP1 DUP3 DUP3 GT PUSH3 0x26C JUMPI PUSH1 0x3 SWAP2 DUP3 SLOAD SWAP1 PUSH1 0x1 SWAP3 DUP4 DUP4 DUP2 SHR SWAP4 AND DUP1 ISZERO PUSH3 0x361 JUMPI JUMPDEST DUP8 DUP5 LT EQ PUSH3 0x34B JUMPI DUP2 SWAP1 PUSH1 0x1F SWAP4 DUP5 DUP2 GT PUSH3 0x2F5 JUMPI JUMPDEST POP DUP8 SWAP1 DUP5 DUP4 GT PUSH1 0x1 EQ PUSH3 0x28E JUMPI PUSH1 0x0 SWAP3 PUSH3 0x282 JUMPI JUMPDEST POP POP PUSH1 0x0 NOT DUP3 DUP7 SHL SHR NOT AND SWAP1 DUP4 SHL OR DUP4 SSTORE JUMPDEST DUP8 MLOAD SWAP4 DUP5 GT PUSH3 0x26C JUMPI PUSH1 0x4 SWAP5 DUP6 SLOAD DUP4 DUP2 DUP2 SHR SWAP2 AND DUP1 ISZERO PUSH3 0x261 JUMPI JUMPDEST DUP3 DUP3 LT EQ PUSH3 0x24C JUMPI DUP3 DUP2 GT PUSH3 0x201 JUMPI JUMPDEST POP DUP1 SWAP2 DUP6 GT PUSH1 0x1 EQ PUSH3 0x190 JUMPI POP DUP4 SWAP3 SWAP2 DUP4 SWAP2 PUSH3 0x153 SWAP9 SWAP10 PUSH1 0x0 SWAP6 PUSH3 0x184 JUMPI JUMPDEST POP POP SHL SWAP3 PUSH1 0x0 NOT SWAP2 SHL SHR NOT AND OR SWAP1 SSTORE PUSH3 0x41E JUMP JUMPDEST POP PUSH1 0x6 DUP1 SLOAD PUSH1 0x1 PUSH1 0x1 PUSH1 0xA0 SHL SUB NOT AND PUSH1 0x1 PUSH1 0x1 PUSH1 0xA0 SHL SUB SWAP3 SWAP1 SWAP3 AND SWAP2 SWAP1 SWAP2 OR SWAP1 SSTORE PUSH1 0x40 MLOAD PUSH2 0x110A SWAP1 DUP2 PUSH3 0x4B1 DUP3 CODECOPY RETURN JUMPDEST ADD MLOAD SWAP4 POP CODESIZE DUP1 PUSH3 0x13E JUMP JUMPDEST SWAP2 SWAP4 SWAP3 SWAP1 PUSH1 0x1F NOT DUP5 AND SWAP9 DUP7 PUSH1 0x0 MSTORE DUP4 PUSH1 0x0 KECCAK256 SWAP4 PUSH1 0x0 SWAP1 JUMPDEST DUP12 DUP3 LT PUSH3 0x1E9 JUMPI POP POP DUP5 PUSH3 0x153 SWAP10 SWAP11 LT PUSH3 0x1CE JUMPI JUMPDEST POP POP POP POP DUP2 SHL ADD SWAP1 SSTORE PUSH3 0x41E JUMP JUMPDEST ADD MLOAD SWAP1 PUSH1 0xF8 DUP5 PUSH1 0x0 NOT SWAP3 SHL AND SHR NOT AND SWAP1 SSTORE CODESIZE DUP1 DUP1 DUP1 PUSH3 0x1BF JUMP JUMPDEST DUP1 DUP9 DUP6 SWAP8 DUP3 SWAP5 SWAP7 DUP7 ADD MLOAD DUP2 SSTORE ADD SWAP7 ADD SWAP4 ADD SWAP1 PUSH3 0x1A7 JUMP JUMPDEST DUP7 PUSH1 0x0 MSTORE DUP2 PUSH1 0x0 KECCAK256 DUP4 DUP1 DUP9 ADD PUSH1 0x5 SHR DUP3 ADD SWAP3 DUP5 DUP10 LT PUSH3 0x242 JUMPI JUMPDEST ADD PUSH1 0x5 SHR ADD SWAP1 DUP5 SWAP1 JUMPDEST DUP3 DUP2 LT PUSH3 0x235 JUMPI POP POP PUSH3 0x11C JUMP JUMPDEST PUSH1 0x0 DUP2 SSTORE ADD DUP5 SWAP1 PUSH3 0x225 JUMP JUMPDEST SWAP3 POP DUP2 SWAP3 PUSH3 0x21C JUMP JUMPDEST PUSH1 0x22 DUP8 PUSH4 0x4E487B71 PUSH1 0xE0 SHL PUSH1 0x0 MSTORE MSTORE PUSH1 0x24 PUSH1 0x0 REVERT JUMPDEST SWAP1 PUSH1 0x7F AND SWAP1 PUSH3 0x10A JUMP JUMPDEST PUSH4 0x4E487B71 PUSH1 0xE0 SHL PUSH1 0x0 MSTORE PUSH1 0x41 PUSH1 0x4 MSTORE PUSH1 0x24 PUSH1 0x0 REVERT JUMPDEST ADD MLOAD SWAP1 POP CODESIZE DUP1 PUSH3 0xDB JUMP JUMPDEST SWAP1 DUP6 SWAP4 POP PUSH1 0x1F NOT DUP4 AND SWAP2 DUP8 PUSH1 0x0 MSTORE DUP10 PUSH1 0x0 KECCAK256 SWAP3 PUSH1 0x0 JUMPDEST DUP12 DUP3 DUP3 LT PUSH3 0x2DE JUMPI POP POP DUP5 GT PUSH3 0x2C5 JUMPI JUMPDEST POP POP POP DUP2 SHL ADD DUP4 SSTORE PUSH3 0xED JUMP JUMPDEST ADD MLOAD PUSH1 0x0 NOT DUP4 DUP9 SHL PUSH1 0xF8 AND SHR NOT AND SWAP1 SSTORE CODESIZE DUP1 DUP1 PUSH3 0x2B7 JUMP JUMPDEST DUP4 DUP6 ADD MLOAD DUP7 SSTORE DUP10 SWAP8 SWAP1 SWAP6 ADD SWAP5 SWAP4 DUP5 ADD SWAP4 ADD PUSH3 0x2A4 JUMP JUMPDEST SWAP1 SWAP2 POP DUP6 PUSH1 0x0 MSTORE DUP8 PUSH1 0x0 KECCAK256 DUP5 DUP1 DUP6 ADD PUSH1 0x5 SHR DUP3 ADD SWAP3 DUP11 DUP7 LT PUSH3 0x341 JUMPI JUMPDEST SWAP2 DUP8 SWAP2 DUP7 SWAP6 SWAP5 SWAP4 ADD PUSH1 0x5 SHR ADD SWAP2 JUMPDEST DUP3 DUP2 LT PUSH3 0x331 JUMPI POP POP PUSH3 0xC4 JUMP JUMPDEST PUSH1 0x0 DUP2 SSTORE DUP6 SWAP5 POP DUP8 SWAP2 ADD PUSH3 0x321 JUMP JUMPDEST SWAP3 POP DUP2 SWAP3 PUSH3 0x313 JUMP JUMPDEST PUSH4 0x4E487B71 PUSH1 0xE0 SHL PUSH1 0x0 MSTORE PUSH1 0x22 PUSH1 0x4 MSTORE PUSH1 0x24 PUSH1 0x0 REVERT JUMPDEST SWAP3 PUSH1 0x7F AND SWAP3 PUSH3 0xAD JUMP JUMPDEST PUSH1 0x0 DUP1 REVERT JUMPDEST PUSH1 0x40 MLOAD SWAP2 SWAP1 PUSH1 0x1F ADD PUSH1 0x1F NOT AND DUP3 ADD PUSH1 0x1 PUSH1 0x1 PUSH1 0x40 SHL SUB DUP2 GT DUP4 DUP3 LT OR PUSH3 0x26C JUMPI PUSH1 0x40 MSTORE JUMP JUMPDEST SWAP2 SWAP1 DUP1 PUSH1 0x1F DUP5 ADD SLT ISZERO PUSH3 0x36C JUMPI DUP3 MLOAD PUSH1 0x1 PUSH1 0x1 PUSH1 0x40 SHL SUB DUP2 GT PUSH3 0x26C JUMPI PUSH1 0x20 SWAP1 PUSH3 0x3CD PUSH1 0x1F DUP3 ADD PUSH1 0x1F NOT AND DUP4 ADD PUSH3 0x371 JUMP JUMPDEST SWAP3 DUP2 DUP5 MSTORE DUP3 DUP3 DUP8 ADD ADD GT PUSH3 0x36C JUMPI PUSH1 0x0 JUMPDEST DUP2 DUP2 LT PUSH3 0x3F5 JUMPI POP DUP3 PUSH1 0x0 SWAP4 SWAP5 SWAP6 POP ADD ADD MSTORE SWAP1 JUMP JUMPDEST DUP6 DUP2 ADD DUP4 ADD MLOAD DUP5 DUP3 ADD DUP5 ADD MSTORE DUP3 ADD PUSH3 0x3DF JUMP JUMPDEST MLOAD SWAP1 PUSH1 0x1 PUSH1 0x1 PUSH1 0xA0 SHL SUB DUP3 AND DUP3 SUB PUSH3 0x36C JUMPI JUMP JUMPDEST PUSH1 0x1 PUSH1 0x1 PUSH1 0xA0 SHL SUB AND PUSH1 0x0 DUP2 DUP2 MSTORE PUSH32 0x5B8CCBB9D4D8FB16EA74CE3C29A41F1B461FBDAFF4714A0D9A8EB05499746BC PUSH1 0x20 MSTORE PUSH1 0x40 DUP2 KECCAK256 SLOAD SWAP1 SWAP2 SWAP1 PUSH1 0xFF AND PUSH3 0x4AC JUMPI DUP2 DUP1 MSTORE PUSH1 0x5 PUSH1 0x20 MSTORE PUSH1 0x40 DUP3 KECCAK256 DUP2 DUP4 MSTORE PUSH1 0x20 MSTORE PUSH1 0x40 DUP3 KECCAK256 PUSH1 0x1 PUSH1 0xFF NOT DUP3 SLOAD AND OR SWAP1 SSTORE CALLER SWAP2 PUSH32 0x2F8788117E7EFF1D82E926EC794901D17C78024A50270940304540A733656F0D DUP2 DUP1 LOG4 PUSH1 0x1 SWAP1 JUMP JUMPDEST POP SWAP1 JUMP INVALID PUSH1 0x80 PUSH1 0x40 DUP2 DUP2 MSTORE PUSH1 0x4 DUP1 CALLDATASIZE LT ISZERO PUSH2 0x15 JUMPI PUSH1 0x0 DUP1 REVERT JUMPDEST PUSH1 0x0 SWAP3 DUP4 CALLDATALOAD PUSH1 0xE0 SHR SWAP1 DUP2 PUSH4 0x1FFC9A7 EQ PUSH2 0xB5B JUMPI POP DUP1 PUSH4 0x6FDDE03 EQ PUSH2 0xA67 JUMPI DUP1 PUSH4 0x95EA7B3 EQ PUSH2 0x9BE JUMPI DUP1 PUSH4 0x18160DDD EQ PUSH2 0x99F JUMPI DUP1 PUSH4 0x23B872DD EQ PUSH2 0x89A JUMPI DUP1 PUSH4 0x248A9CA3 EQ PUSH2 0x870 JUMPI DUP1 PUSH4 0x2F2FF15D EQ PUSH2 0x847 JUMPI DUP1 PUSH4 0x313CE567 EQ PUSH2 0x82B JUMPI DUP1 PUSH4 0x36568ABE EQ PUSH2 0x7E4 JUMPI DUP1 PUSH4 0x40C10F19 EQ PUSH2 0x6FE JUMPI DUP1 PUSH4 0x424BA848 EQ PUSH2 0x5DD JUMPI DUP1 PUSH4 0x43FB90A6 EQ PUSH2 0x5B4 JUMPI DUP1 PUSH4 0x70A08231 EQ PUSH2 0x57D JUMPI DUP1 PUSH4 0x8BD08D99 EQ PUSH2 0x542 JUMPI DUP1 PUSH4 0x91D14854 EQ PUSH2 0x4FC JUMPI DUP1 PUSH4 0x95D89B41 EQ PUSH2 0x3F8 JUMPI DUP1 PUSH4 0x967A2A70 EQ PUSH2 0x3BD JUMPI DUP1 PUSH4 0xA217FDDF EQ PUSH2 0x3A2 JUMPI DUP1 PUSH4 0xA9059CBB EQ PUSH2 0x367 JUMPI DUP1 PUSH4 0xBEA23E68 EQ PUSH2 0x32C JUMPI DUP1 PUSH4 0xD46B6A30 EQ PUSH2 0x2EE JUMPI DUP1 PUSH4 0xD5391393 EQ PUSH2 0x2B3 JUMPI DUP1 PUSH4 0xD547741F EQ PUSH2 0x274 JUMPI DUP1 PUSH4 0xDD62ED3E EQ PUSH2 0x227 JUMPI PUSH4 0xEDA92923 EQ PUSH2 0x136 JUMPI PUSH1 0x0 DUP1 REVERT JUMPDEST CALLVALUE PUSH2 0x223 JUMPI PUSH1 0x20 CALLDATASIZE PUSH1 0x3 NOT ADD SLT PUSH2 0x223 JUMPI PUSH2 0x14F PUSH2 0xBF8 JUMP JUMPDEST SWAP1 DUP4 DUP1 MSTORE PUSH1 0x5 PUSH1 0x20 MSTORE DUP3 DUP5 KECCAK256 CALLER DUP6 MSTORE PUSH1 0x20 MSTORE PUSH1 0xFF DUP4 DUP6 KECCAK256 SLOAD AND ISZERO PUSH2 0x206 JUMPI PUSH1 0x1 PUSH1 0x1 PUSH1 0xA0 SHL SUB SWAP2 DUP3 AND SWAP3 DUP4 ISZERO PUSH2 0x1C3 JUMPI POP POP PUSH1 0x6 SLOAD DUP3 PUSH12 0xFFFFFFFFFFFFFFFFFFFFFFFF PUSH1 0xA0 SHL DUP3 AND OR PUSH1 0x6 SSTORE AND PUSH32 0x62FDF470703779B7C46C8407475D199BA05B143673EF3FAAEC6A56EFB1F76BB6 DUP4 DUP1 LOG3 DUP1 RETURN JUMPDEST SWAP1 PUSH1 0x20 PUSH1 0x64 SWAP3 MLOAD SWAP2 PUSH3 0x461BCD PUSH1 0xE5 SHL DUP4 MSTORE DUP3 ADD MSTORE PUSH1 0x1B PUSH1 0x24 DUP3 ADD MSTORE PUSH32 0x424C4F434B533A20496E76616C696420746178206D616E616765720000000000 PUSH1 0x44 DUP3 ADD MSTORE REVERT JUMPDEST PUSH1 0x44 SWAP1 DUP5 DUP5 MLOAD SWAP2 PUSH4 0xE2517D3F PUSH1 0xE0 SHL DUP4 MSTORE CALLER SWAP1 DUP4 ADD MSTORE PUSH1 0x24 DUP3 ADD MSTORE REVERT JUMPDEST DUP3 DUP1 REVERT JUMPDEST POP POP CALLVALUE PUSH2 0x270 JUMPI DUP1 PUSH1 0x3 NOT CALLDATASIZE ADD SLT PUSH2 0x270 JUMPI DUP1 PUSH1 0x20 SWAP3 PUSH2 0x245 PUSH2 0xBF8 JUMP JUMPDEST PUSH2 0x24D PUSH2 0xC13 JUMP JUMPDEST PUSH1 0x1 PUSH1 0x1 PUSH1 0xA0 SHL SUB SWAP2 DUP3 AND DUP4 MSTORE PUSH1 0x1 DUP7 MSTORE DUP4 DUP4 KECCAK256 SWAP2 AND DUP3 MSTORE DUP5 MSTORE KECCAK256 SLOAD SWAP1 MLOAD SWAP1 DUP2 MSTORE RETURN JUMPDEST POP DUP1 REVERT JUMPDEST POP SWAP1 CALLVALUE PUSH2 0x223 JUMPI DUP1 PUSH1 0x3 NOT CALLDATASIZE ADD SLT PUSH2 0x223 JUMPI PUSH2 0x2AF SWAP2 CALLDATALOAD PUSH2 0x2AA PUSH1 0x1 PUSH2 0x298 PUSH2 0xC13 JUMP JUMPDEST SWAP4 DUP4 DUP8 MSTORE PUSH1 0x5 PUSH1 0x20 MSTORE DUP7 KECCAK256 ADD SLOAD PUSH2 0xC29 JUMP JUMPDEST PUSH2 0xCED JUMP JUMPDEST POP DUP1 RETURN JUMPDEST POP POP CALLVALUE PUSH2 0x270 JUMPI DUP2 PUSH1 0x3 NOT CALLDATASIZE ADD SLT PUSH2 0x270 JUMPI PUSH1 0x20 SWAP1 MLOAD PUSH32 0x9F2DF0FED2C77648DE5860A4CC508CD0818C85B8B8A1AB4CEEEF8D981C8956A6 DUP2 MSTORE RETURN JUMPDEST POP POP CALLVALUE PUSH2 0x270 JUMPI PUSH1 0x20 CALLDATASIZE PUSH1 0x3 NOT ADD SLT PUSH2 0x270 JUMPI PUSH1 0x20 SWAP2 PUSH1 0xFF SWAP1 DUP3 SWAP1 PUSH1 0x1 PUSH1 0x1 PUSH1 0xA0 SHL SUB PUSH2 0x319 PUSH2 0xBF8 JUMP JUMPDEST AND DUP2 MSTORE PUSH1 0x7 DUP6 MSTORE KECCAK256 SLOAD AND SWAP1 MLOAD SWAP1 ISZERO ISZERO DUP2 MSTORE RETURN JUMPDEST POP POP CALLVALUE PUSH2 0x270 JUMPI DUP2 PUSH1 0x3 NOT CALLDATASIZE ADD SLT PUSH2 0x270 JUMPI PUSH1 0x20 SWAP1 MLOAD PUSH32 0x8E9B148654316179BD45E9EC5F0B575AE8288E79DF16D7BE748EC9A9BDCA8B4C DUP2 MSTORE RETURN JUMPDEST POP POP CALLVALUE PUSH2 0x270 JUMPI DUP1 PUSH1 0x3 NOT CALLDATASIZE ADD SLT PUSH2 0x270 JUMPI PUSH1 0x20 SWAP1 PUSH2 0x39B PUSH2 0x387 PUSH2 0xBF8 JUMP JUMPDEST PUSH2 0x394 PUSH1 0x24 CALLDATALOAD DUP3 CALLER PUSH2 0xE7A JUMP JUMPDEST SWAP1 CALLER PUSH2 0xD9C JUMP JUMPDEST MLOAD PUSH1 0x1 DUP2 MSTORE RETURN JUMPDEST POP POP CALLVALUE PUSH2 0x270 JUMPI DUP2 PUSH1 0x3 NOT CALLDATASIZE ADD SLT PUSH2 0x270 JUMPI MLOAD SWAP1 DUP2 MSTORE PUSH1 0x20 SWAP1 RETURN JUMPDEST POP POP CALLVALUE PUSH2 0x270 JUMPI DUP2 PUSH1 0x3 NOT CALLDATASIZE ADD SLT PUSH2 0x270 JUMPI PUSH1 0x20 SWAP1 MLOAD PUSH32 0x30F4F48440C1AD721C73A3B5549AA3DB7105F00012DF64020E3A66B689C0E70B DUP2 MSTORE RETURN JUMPDEST POP SWAP2 SWAP1 CALLVALUE PUSH2 0x270 JUMPI DUP2 PUSH1 0x3 NOT CALLDATASIZE ADD SLT PUSH2 0x270 JUMPI DUP1 MLOAD SWAP2 DUP1 SWAP4 DUP1 SLOAD SWAP2 PUSH1 0x1 SWAP1 DUP4 DUP3 SHR SWAP3 DUP3 DUP6 AND SWAP5 DUP6 ISZERO PUSH2 0x4F2 JUMPI JUMPDEST PUSH1 0x20 SWAP6 DUP7 DUP7 LT DUP2 EQ PUSH2 0x4DF JUMPI DUP6 DUP10 MSTORE SWAP1 DUP2 ISZERO PUSH2 0x4BB JUMPI POP PUSH1 0x1 EQ PUSH2 0x463 JUMPI JUMPDEST PUSH2 0x45F DUP8 DUP8 PUSH2 0x455 DUP3 DUP13 SUB DUP4 PUSH2 0xD64 JUMP JUMPDEST MLOAD SWAP2 DUP3 SWAP2 DUP3 PUSH2 0xBAF JUMP JUMPDEST SUB SWAP1 RETURN JUMPDEST DUP2 MSTORE SWAP3 SWAP6 POP PUSH32 0x8A35ACFBC15FF81A39AE7D344FD709F28E8600B4AA8C65C6B64BFE7FE36BD19B JUMPDEST DUP3 DUP5 LT PUSH2 0x4A8 JUMPI POP POP POP DUP3 PUSH2 0x45F SWAP5 PUSH2 0x455 SWAP3 DUP3 ADD ADD SWAP5 CODESIZE DUP1 PUSH2 0x444 JUMP JUMPDEST DUP1 SLOAD DUP7 DUP6 ADD DUP9 ADD MSTORE SWAP3 DUP7 ADD SWAP3 DUP2 ADD PUSH2 0x48A JUMP JUMPDEST PUSH1 0xFF NOT AND DUP9 DUP8 ADD MSTORE POP POP POP POP ISZERO ISZERO PUSH1 0x5 SHL DUP4 ADD ADD SWAP3 POP PUSH2 0x455 DUP3 PUSH2 0x45F CODESIZE DUP1 PUSH2 0x444 JUMP JUMPDEST PUSH4 0x4E487B71 PUSH1 0xE0 SHL DUP5 MSTORE PUSH1 0x22 DUP4 MSTORE PUSH1 0x24 DUP5 REVERT JUMPDEST SWAP4 PUSH1 0x7F AND SWAP4 PUSH2 0x425 JUMP JUMPDEST POP CALLVALUE PUSH2 0x223 JUMPI DUP2 PUSH1 0x3 NOT CALLDATASIZE ADD SLT PUSH2 0x223 JUMPI DUP2 PUSH1 0x20 SWAP4 PUSH1 0xFF SWAP3 PUSH2 0x51C PUSH2 0xC13 JUMP JUMPDEST SWAP1 CALLDATALOAD DUP3 MSTORE PUSH1 0x5 DUP7 MSTORE DUP3 DUP3 KECCAK256 PUSH1 0x1 PUSH1 0x1 PUSH1 0xA0 SHL SUB SWAP1 SWAP2 AND DUP3 MSTORE DUP6 MSTORE KECCAK256 SLOAD SWAP2 MLOAD SWAP2 AND ISZERO ISZERO DUP2 MSTORE RETURN JUMPDEST POP POP CALLVALUE PUSH2 0x270 JUMPI DUP2 PUSH1 0x3 NOT CALLDATASIZE ADD SLT PUSH2 0x270 JUMPI PUSH1 0x20 SWAP1 MLOAD PUSH32 0x46E2AA85B4EA4837644E46FE22ACB44743DA12E349006C0093A61F6BF0967602 DUP2 MSTORE RETURN JUMPDEST POP POP CALLVALUE PUSH2 0x270 JUMPI PUSH1 0x20 CALLDATASIZE PUSH1 0x3 NOT ADD SLT PUSH2 0x270 JUMPI PUSH1 0x20 SWAP2 DUP2 SWAP1 PUSH1 0x1 PUSH1 0x1 PUSH1 0xA0 SHL SUB PUSH2 0x5A5 PUSH2 0xBF8 JUMP JUMPDEST AND DUP2 MSTORE DUP1 DUP5 MSTORE KECCAK256 SLOAD SWAP1 MLOAD SWAP1 DUP2 MSTORE RETURN JUMPDEST POP POP CALLVALUE PUSH2 0x270 JUMPI DUP2 PUSH1 0x3 NOT CALLDATASIZE ADD SLT PUSH2 0x270 JUMPI PUSH1 0x6 SLOAD SWAP1 MLOAD PUSH1 0x1 PUSH1 0x1 PUSH1 0xA0 SHL SUB SWAP1 SWAP2 AND DUP2 MSTORE PUSH1 0x20 SWAP1 RETURN JUMPDEST POP SWAP1 CALLVALUE PUSH2 0x223 JUMPI DUP1 PUSH1 0x3 NOT CALLDATASIZE ADD SLT PUSH2 0x223 JUMPI PUSH2 0x5F7 PUSH2 0xBF8 JUMP JUMPDEST SWAP1 PUSH1 0x24 CALLDATALOAD SWAP2 DUP3 ISZERO ISZERO DUP1 SWAP4 SUB PUSH2 0x6FA JUMPI PUSH32 0x30F4F48440C1AD721C73A3B5549AA3DB7105F00012DF64020E3A66B689C0E70B DUP1 DUP7 MSTORE PUSH1 0x5 PUSH1 0x20 MSTORE DUP3 DUP7 KECCAK256 CALLER DUP8 MSTORE PUSH1 0x20 MSTORE PUSH1 0xFF DUP4 DUP8 KECCAK256 SLOAD AND ISZERO PUSH2 0x6DC JUMPI POP PUSH1 0x1 PUSH1 0x1 PUSH1 0xA0 SHL SUB AND SWAP3 DUP4 ISZERO PUSH2 0x69A JUMPI POP PUSH32 0x33ADD1FEEBD4EDFA2A3DDDA0BAD6CD03949C993877767BF1E6C78F3FA709C63E SWAP2 PUSH1 0x20 SWAP2 DUP5 DUP7 MSTORE PUSH1 0x7 DUP4 MSTORE DUP1 DUP7 KECCAK256 PUSH1 0xFF NOT DUP2 SLOAD AND PUSH1 0xFF DUP5 AND OR SWAP1 SSTORE MLOAD SWAP1 DUP2 MSTORE LOG2 DUP1 RETURN JUMPDEST PUSH1 0x20 PUSH1 0x64 SWAP3 MLOAD SWAP2 PUSH3 0x461BCD PUSH1 0xE5 SHL DUP4 MSTORE DUP3 ADD MSTORE PUSH1 0x1C PUSH1 0x24 DUP3 ADD MSTORE PUSH32 0x424C4F434B533A20496E76616C69642070616972206164647265737300000000 PUSH1 0x44 DUP3 ADD MSTORE REVERT JUMPDEST DUP3 MLOAD PUSH4 0xE2517D3F PUSH1 0xE0 SHL DUP2 MSTORE CALLER DUP2 DUP8 ADD MSTORE PUSH1 0x24 DUP2 ADD SWAP2 SWAP1 SWAP2 MSTORE PUSH1 0x44 SWAP1 REVERT JUMPDEST DUP5 DUP1 REVERT JUMPDEST POP SWAP1 CALLVALUE PUSH2 0x223 JUMPI DUP1 PUSH1 0x3 NOT CALLDATASIZE ADD SLT PUSH2 0x223 JUMPI PUSH2 0x718 PUSH2 0xBF8 JUMP JUMPDEST SWAP1 PUSH1 0x24 CALLDATALOAD SWAP2 PUSH32 0x9F2DF0FED2C77648DE5860A4CC508CD0818C85B8B8A1AB4CEEEF8D981C8956A6 DUP1 DUP7 MSTORE PUSH1 0x5 PUSH1 0x20 MSTORE DUP3 DUP7 KECCAK256 CALLER DUP8 MSTORE PUSH1 0x20 MSTORE PUSH1 0xFF DUP4 DUP8 KECCAK256 SLOAD AND ISZERO PUSH2 0x6DC JUMPI POP PUSH1 0x1 PUSH1 0x1 PUSH1 0xA0 SHL SUB AND SWAP3 DUP4 ISZERO PUSH2 0x7CF JUMPI PUSH1 0x2 SLOAD SWAP1 DUP4 DUP3 ADD DUP1 SWAP3 GT PUSH2 0x7BC JUMPI POP DUP5 SWAP3 PUSH32 0xDDF252AD1BE2C89B69C2B068FC378DAA952BA7F163C4A11628F55A4DF523B3EF SWAP3 PUSH1 0x20 SWAP3 PUSH1 0x2 SSTORE DUP6 DUP6 MSTORE DUP5 DUP4 MSTORE DUP1 DUP6 KECCAK256 DUP3 DUP2 SLOAD ADD SWAP1 SSTORE MLOAD SWAP1 DUP2 MSTORE LOG3 DUP1 RETURN JUMPDEST PUSH4 0x4E487B71 PUSH1 0xE0 SHL DUP7 MSTORE PUSH1 0x11 SWAP1 MSTORE PUSH1 0x24 DUP6 REVERT JUMPDEST DUP5 PUSH1 0x24 SWAP3 MLOAD SWAP2 PUSH4 0xEC442F05 PUSH1 0xE0 SHL DUP4 MSTORE DUP3 ADD MSTORE REVERT JUMPDEST POP SWAP2 SWAP1 CALLVALUE PUSH2 0x270 JUMPI DUP1 PUSH1 0x3 NOT CALLDATASIZE ADD SLT PUSH2 0x270 JUMPI PUSH2 0x7FF PUSH2 0xC13 JUMP JUMPDEST SWAP1 CALLER PUSH1 0x1 PUSH1 0x1 PUSH1 0xA0 SHL SUB DUP4 AND SUB PUSH2 0x81C JUMPI POP PUSH2 0x2AF SWAP2 SWAP3 CALLDATALOAD PUSH2 0xCED JUMP JUMPDEST MLOAD PUSH4 0x334BD919 PUSH1 0xE1 SHL DUP2 MSTORE DUP4 SWAP1 REVERT JUMPDEST POP POP CALLVALUE PUSH2 0x270 JUMPI DUP2 PUSH1 0x3 NOT CALLDATASIZE ADD SLT PUSH2 0x270 JUMPI PUSH1 0x20 SWAP1 MLOAD PUSH1 0x12 DUP2 MSTORE RETURN JUMPDEST POP SWAP1 CALLVALUE PUSH2 0x223 JUMPI DUP1 PUSH1 0x3 NOT CALLDATASIZE ADD SLT PUSH2 0x223 JUMPI PUSH2 0x2AF SWAP2 CALLDATALOAD PUSH2 0x86B PUSH1 0x1 PUSH2 0x298 PUSH2 0xC13 JUMP JUMPDEST PUSH2 0xC6D JUMP JUMPDEST POP CALLVALUE PUSH2 0x223 JUMPI PUSH1 0x20 CALLDATASIZE PUSH1 0x3 NOT ADD SLT PUSH2 0x223 JUMPI DUP2 PUSH1 0x20 SWAP4 PUSH1 0x1 SWAP3 CALLDATALOAD DUP2 MSTORE PUSH1 0x5 DUP6 MSTORE KECCAK256 ADD SLOAD SWAP1 MLOAD SWAP1 DUP2 MSTORE RETURN JUMPDEST POP DUP3 CALLVALUE PUSH2 0x99C JUMPI PUSH1 0x60 CALLDATASIZE PUSH1 0x3 NOT ADD SLT PUSH2 0x99C JUMPI PUSH2 0x8B5 PUSH2 0xBF8 JUMP JUMPDEST SWAP2 PUSH2 0x8BE PUSH2 0xC13 JUMP JUMPDEST SWAP2 PUSH1 0x44 CALLDATALOAD SWAP2 PUSH1 0x1 DUP1 PUSH1 0xA0 SHL SUB DUP6 AND DUP1 DUP4 MSTORE PUSH1 0x1 PUSH1 0x20 MSTORE DUP7 DUP4 KECCAK256 CALLER DUP5 MSTORE PUSH1 0x20 MSTORE DUP7 DUP4 KECCAK256 SLOAD SWAP2 PUSH1 0x0 NOT DUP4 LT PUSH2 0x905 JUMPI JUMPDEST PUSH1 0x20 DUP9 PUSH2 0x39B DUP10 DUP10 PUSH2 0x8FF DUP11 DUP3 DUP5 PUSH2 0xE7A JUMP JUMPDEST SWAP2 PUSH2 0xD9C JUMP JUMPDEST DUP5 DUP4 LT PUSH2 0x970 JUMPI DUP2 ISZERO PUSH2 0x959 JUMPI CALLER ISZERO PUSH2 0x942 JUMPI POP DUP3 MSTORE PUSH1 0x1 PUSH1 0x20 SWAP1 DUP2 MSTORE DUP7 DUP4 KECCAK256 CALLER DUP5 MSTORE DUP2 MSTORE SWAP2 DUP7 SWAP1 KECCAK256 SWAP1 DUP4 SWAP1 SUB SWAP1 SSTORE DUP3 SWAP1 PUSH2 0x8FF SWAP1 PUSH2 0x39B PUSH2 0x8EC JUMP JUMPDEST DUP8 MLOAD PUSH4 0x4A1406B1 PUSH1 0xE1 SHL DUP2 MSTORE SWAP1 DUP2 ADD DUP5 SWAP1 MSTORE PUSH1 0x24 SWAP1 REVERT JUMPDEST DUP8 MLOAD PUSH4 0xE602DF05 PUSH1 0xE0 SHL DUP2 MSTORE SWAP1 DUP2 ADD DUP5 SWAP1 MSTORE PUSH1 0x24 SWAP1 REVERT JUMPDEST DUP8 MLOAD PUSH4 0x7DC7A0D9 PUSH1 0xE1 SHL DUP2 MSTORE CALLER SWAP2 DUP2 ADD SWAP2 DUP3 MSTORE PUSH1 0x20 DUP3 ADD SWAP4 SWAP1 SWAP4 MSTORE PUSH1 0x40 DUP2 ADD DUP6 SWAP1 MSTORE DUP3 SWAP2 POP PUSH1 0x60 ADD SUB SWAP1 REVERT JUMPDEST DUP1 REVERT JUMPDEST POP POP CALLVALUE PUSH2 0x270 JUMPI DUP2 PUSH1 0x3 NOT CALLDATASIZE ADD SLT PUSH2 0x270 JUMPI PUSH1 0x20 SWAP1 PUSH1 0x2 SLOAD SWAP1 MLOAD SWAP1 DUP2 MSTORE RETURN JUMPDEST POP CALLVALUE PUSH2 0x223 JUMPI DUP2 PUSH1 0x3 NOT CALLDATASIZE ADD SLT PUSH2 0x223 JUMPI PUSH2 0x9D7 PUSH2 0xBF8 JUMP JUMPDEST PUSH1 0x24 CALLDATALOAD SWAP1 CALLER ISZERO PUSH2 0xA50 JUMPI PUSH1 0x1 PUSH1 0x1 PUSH1 0xA0 SHL SUB AND SWAP2 DUP3 ISZERO PUSH2 0xA39 JUMPI POP DUP1 DUP4 PUSH1 0x20 SWAP6 CALLER DUP2 MSTORE PUSH1 0x1 DUP8 MSTORE DUP2 DUP2 KECCAK256 DUP6 DUP3 MSTORE DUP8 MSTORE KECCAK256 SSTORE DUP3 MLOAD SWAP1 DUP2 MSTORE PUSH32 0x8C5BE1E5EBEC7D5BD14F71427D1E84F3DD0314C0F7B2291E5B200AC8C7C3B925 DUP5 CALLER SWAP3 LOG3 MLOAD PUSH1 0x1 DUP2 MSTORE RETURN JUMPDEST DUP4 MLOAD PUSH4 0x4A1406B1 PUSH1 0xE1 SHL DUP2 MSTORE SWAP1 DUP2 ADD DUP6 SWAP1 MSTORE PUSH1 0x24 SWAP1 REVERT JUMPDEST DUP4 MLOAD PUSH4 0xE602DF05 PUSH1 0xE0 SHL DUP2 MSTORE DUP1 DUP5 ADD DUP7 SWAP1 MSTORE PUSH1 0x24 SWAP1 REVERT JUMPDEST POP SWAP1 CALLVALUE PUSH2 0x223 JUMPI DUP3 PUSH1 0x3 NOT CALLDATASIZE ADD SLT PUSH2 0x223 JUMPI DUP1 MLOAD SWAP2 DUP4 PUSH1 0x3 SLOAD SWAP1 PUSH1 0x1 SWAP1 DUP3 DUP3 SHR SWAP3 DUP3 DUP2 AND DUP1 ISZERO PUSH2 0xB51 JUMPI JUMPDEST PUSH1 0x20 SWAP6 DUP7 DUP7 LT DUP3 EQ PUSH2 0xB3E JUMPI POP DUP5 DUP9 MSTORE SWAP1 DUP2 ISZERO PUSH2 0xB1C JUMPI POP PUSH1 0x1 EQ PUSH2 0xAC3 JUMPI JUMPDEST PUSH2 0x45F DUP7 DUP7 PUSH2 0x455 DUP3 DUP12 SUB DUP4 PUSH2 0xD64 JUMP JUMPDEST SWAP3 SWAP6 POP PUSH1 0x3 DUP4 MSTORE PUSH32 0xC2575A0E9E593C00F959F8C92F12DB2869C3395A3B0502D05E2516446F71F85B JUMPDEST DUP3 DUP5 LT PUSH2 0xB09 JUMPI POP POP POP DUP3 PUSH2 0x45F SWAP5 PUSH2 0x455 SWAP3 DUP3 ADD ADD SWAP5 CODESIZE PUSH2 0xAB2 JUMP JUMPDEST DUP1 SLOAD DUP7 DUP6 ADD DUP9 ADD MSTORE SWAP3 DUP7 ADD SWAP3 DUP2 ADD PUSH2 0xAEC JUMP JUMPDEST PUSH1 0xFF NOT AND DUP8 DUP7 ADD MSTORE POP POP POP ISZERO ISZERO PUSH1 0x5 SHL DUP4 ADD ADD SWAP3 POP PUSH2 0x455 DUP3 PUSH2 0x45F CODESIZE PUSH2 0xAB2 JUMP JUMPDEST PUSH4 0x4E487B71 PUSH1 0xE0 SHL DUP5 MSTORE PUSH1 0x22 SWAP1 MSTORE PUSH1 0x24 DUP4 REVERT JUMPDEST SWAP4 PUSH1 0x7F AND SWAP4 PUSH2 0xA92 JUMP JUMPDEST SWAP3 POP POP CALLVALUE PUSH2 0x223 JUMPI PUSH1 0x20 CALLDATASIZE PUSH1 0x3 NOT ADD SLT PUSH2 0x223 JUMPI CALLDATALOAD PUSH4 0xFFFFFFFF PUSH1 0xE0 SHL DUP2 AND DUP1 SWAP2 SUB PUSH2 0x223 JUMPI PUSH1 0x20 SWAP3 POP PUSH4 0x7965DB0B PUSH1 0xE0 SHL DUP2 EQ SWAP1 DUP2 ISZERO PUSH2 0xB9E JUMPI JUMPDEST POP ISZERO ISZERO DUP2 MSTORE RETURN JUMPDEST PUSH4 0x1FFC9A7 PUSH1 0xE0 SHL EQ SWAP1 POP CODESIZE PUSH2 0xB97 JUMP JUMPDEST PUSH1 0x20 DUP1 DUP3 MSTORE DUP3 MLOAD DUP2 DUP4 ADD DUP2 SWAP1 MSTORE SWAP1 SWAP4 SWAP3 PUSH1 0x0 JUMPDEST DUP3 DUP2 LT PUSH2 0xBE4 JUMPI POP POP PUSH1 0x40 SWAP3 SWAP4 POP PUSH1 0x0 DUP4 DUP3 DUP5 ADD ADD MSTORE PUSH1 0x1F DUP1 NOT SWAP2 ADD AND ADD ADD SWAP1 JUMP JUMPDEST DUP2 DUP2 ADD DUP7 ADD MLOAD DUP5 DUP3 ADD PUSH1 0x40 ADD MSTORE DUP6 ADD PUSH2 0xBC2 JUMP JUMPDEST PUSH1 0x4 CALLDATALOAD SWAP1 PUSH1 0x1 PUSH1 0x1 PUSH1 0xA0 SHL SUB DUP3 AND DUP3 SUB PUSH2 0xC0E JUMPI JUMP JUMPDEST PUSH1 0x0 DUP1 REVERT JUMPDEST PUSH1 0x24 CALLDATALOAD SWAP1 PUSH1 0x1 PUSH1 0x1 PUSH1 0xA0 SHL SUB DUP3 AND DUP3 SUB PUSH2 0xC0E JUMPI JUMP JUMPDEST DUP1 PUSH1 0x0 MSTORE PUSH1 0x5 PUSH1 0x20 MSTORE PUSH1 0x40 PUSH1 0x0 KECCAK256 CALLER PUSH1 0x0 MSTORE PUSH1 0x20 MSTORE PUSH1 0xFF PUSH1 0x40 PUSH1 0x0 KECCAK256 SLOAD AND ISZERO PUSH2 0xC4F JUMPI POP JUMP JUMPDEST PUSH1 0x44 SWAP1 PUSH1 0x40 MLOAD SWAP1 PUSH4 0xE2517D3F PUSH1 0xE0 SHL DUP3 MSTORE CALLER PUSH1 0x4 DUP4 ADD MSTORE PUSH1 0x24 DUP3 ADD MSTORE REVERT JUMPDEST SWAP1 PUSH1 0x0 SWAP2 DUP1 DUP4 MSTORE PUSH1 0x5 PUSH1 0x20 MSTORE PUSH1 0x40 DUP4 KECCAK256 SWAP2 PUSH1 0x1 DUP1 PUSH1 0xA0 SHL SUB AND SWAP2 DUP3 DUP5 MSTORE PUSH1 0x20 MSTORE PUSH1 0xFF PUSH1 0x40 DUP5 KECCAK256 SLOAD AND ISZERO PUSH1 0x0 EQ PUSH2 0xCE8 JUMPI DUP1 DUP4 MSTORE PUSH1 0x5 PUSH1 0x20 MSTORE PUSH1 0x40 DUP4 KECCAK256 DUP3 DUP5 MSTORE PUSH1 0x20 MSTORE PUSH1 0x40 DUP4 KECCAK256 PUSH1 0x1 PUSH1 0xFF NOT DUP3 SLOAD AND OR SWAP1 SSTORE PUSH32 0x2F8788117E7EFF1D82E926EC794901D17C78024A50270940304540A733656F0D CALLER SWAP4 DUP1 LOG4 PUSH1 0x1 SWAP1 JUMP JUMPDEST POP POP SWAP1 JUMP JUMPDEST SWAP1 PUSH1 0x0 SWAP2 DUP1 DUP4 MSTORE PUSH1 0x5 PUSH1 0x20 MSTORE PUSH1 0x40 DUP4 KECCAK256 SWAP2 PUSH1 0x1 DUP1 PUSH1 0xA0 SHL SUB AND SWAP2 DUP3 DUP5 MSTORE PUSH1 0x20 MSTORE PUSH1 0xFF PUSH1 0x40 DUP5 KECCAK256 SLOAD AND PUSH1 0x0 EQ PUSH2 0xCE8 JUMPI DUP1 DUP4 MSTORE PUSH1 0x5 PUSH1 0x20 MSTORE PUSH1 0x40 DUP4 KECCAK256 DUP3 DUP5 MSTORE PUSH1 0x20 MSTORE PUSH1 0x40 DUP4 KECCAK256 PUSH1 0xFF NOT DUP2 SLOAD AND SWAP1 SSTORE PUSH32 0xF6391F5C32D9C69D2A47EA670B442974B53935D1EDC7FD64EB21E047A839171B CALLER SWAP4 DUP1 LOG4 PUSH1 0x1 SWAP1 JUMP JUMPDEST SWAP1 PUSH1 0x1F DUP1 NOT SWAP2 ADD AND DUP2 ADD SWAP1 DUP2 LT PUSH8 0xFFFFFFFFFFFFFFFF DUP3 GT OR PUSH2 0xD86 JUMPI PUSH1 0x40 MSTORE JUMP JUMPDEST PUSH4 0x4E487B71 PUSH1 0xE0 SHL PUSH1 0x0 MSTORE PUSH1 0x41 PUSH1 0x4 MSTORE PUSH1 0x24 PUSH1 0x0 REVERT JUMPDEST SWAP2 PUSH1 0x1 PUSH1 0x1 PUSH1 0xA0 SHL SUB DUP1 DUP5 AND SWAP3 DUP4 ISZERO PUSH2 0xE61 JUMPI AND SWAP3 DUP4 ISZERO PUSH2 0xE48 JUMPI PUSH1 0x0 SWAP1 DUP4 DUP3 MSTORE DUP2 PUSH1 0x20 MSTORE PUSH1 0x40 DUP3 KECCAK256 SLOAD SWAP1 DUP4 DUP3 LT PUSH2 0xE16 JUMPI POP SWAP2 PUSH1 0x40 DUP3 DUP3 PUSH32 0xDDF252AD1BE2C89B69C2B068FC378DAA952BA7F163C4A11628F55A4DF523B3EF SWAP6 DUP8 PUSH1 0x20 SWAP7 MSTORE DUP3 DUP7 MSTORE SUB DUP3 DUP3 KECCAK256 SSTORE DUP7 DUP2 MSTORE KECCAK256 DUP2 DUP2 SLOAD ADD SWAP1 SSTORE PUSH1 0x40 MLOAD SWAP1 DUP2 MSTORE LOG3 JUMP JUMPDEST PUSH1 0x40 MLOAD PUSH4 0x391434E3 PUSH1 0xE2 SHL DUP2 MSTORE PUSH1 0x1 PUSH1 0x1 PUSH1 0xA0 SHL SUB SWAP2 SWAP1 SWAP2 AND PUSH1 0x4 DUP3 ADD MSTORE PUSH1 0x24 DUP2 ADD SWAP2 SWAP1 SWAP2 MSTORE PUSH1 0x44 DUP2 ADD DUP4 SWAP1 MSTORE PUSH1 0x64 SWAP1 REVERT JUMPDEST PUSH1 0x40 MLOAD PUSH4 0xEC442F05 PUSH1 0xE0 SHL DUP2 MSTORE PUSH1 0x0 PUSH1 0x4 DUP3 ADD MSTORE PUSH1 0x24 SWAP1 REVERT JUMPDEST PUSH1 0x40 MLOAD PUSH4 0x4B637E8F PUSH1 0xE1 SHL DUP2 MSTORE PUSH1 0x0 PUSH1 0x4 DUP3 ADD MSTORE PUSH1 0x24 SWAP1 REVERT JUMPDEST SWAP2 SWAP1 PUSH1 0x1 DUP1 PUSH1 0xA0 SHL SUB DUP1 DUP5 AND SWAP1 DUP2 PUSH1 0x0 MSTORE PUSH1 0x7 PUSH1 0x20 MSTORE PUSH1 0xFF PUSH1 0x40 PUSH1 0x0 KECCAK256 SLOAD AND DUP1 PUSH2 0xEE5 JUMPI JUMPDEST ISZERO PUSH2 0xEB2 JUMPI POP POP PUSH2 0xEAF SWAP3 PUSH2 0x1056 JUMP JUMPDEST SWAP1 JUMP JUMPDEST DUP3 AND PUSH1 0x0 MSTORE PUSH1 0xFF PUSH1 0x40 PUSH1 0x0 KECCAK256 SLOAD AND SWAP1 DUP2 PUSH2 0xEDB JUMPI JUMPDEST POP PUSH2 0xED2 JUMPI POP SWAP1 POP SWAP1 JUMP JUMPDEST PUSH2 0xEAF SWAP3 PUSH2 0xEF0 JUMP JUMPDEST SWAP1 POP ISZERO ISZERO CODESIZE PUSH2 0xEC7 JUMP JUMPDEST POP DUP1 DUP4 AND ISZERO ISZERO PUSH2 0xE9F JUMP JUMPDEST PUSH1 0x6 SLOAD PUSH1 0x1 PUSH1 0x1 PUSH1 0xA0 SHL SUB SWAP3 SWAP1 DUP4 AND DUP1 ISZERO PUSH2 0x104F JUMPI PUSH1 0x40 DUP1 MLOAD SWAP1 PUSH4 0x67403B61 PUSH1 0xE0 SHL DUP3 MSTORE DUP1 DUP3 PUSH1 0x24 DUP2 PUSH32 0x46E2AA85B4EA4837644E46FE22ACB44743DA12E349006C0093A61F6BF0967602 SWAP7 DUP8 PUSH1 0x4 DUP4 ADD MSTORE GAS STATICCALL SWAP2 DUP3 ISZERO PUSH2 0x1044 JUMPI PUSH1 0x0 SWAP1 DUP2 SWAP4 PUSH2 0xFF4 JUMPI JUMPDEST POP PUSH2 0xFFFF AND DUP1 ISZERO ISZERO DUP1 PUSH2 0xFE9 JUMPI JUMPDEST PUSH2 0xF71 JUMPI JUMPDEST POP POP POP POP POP POP POP SWAP1 JUMP JUMPDEST DUP1 DUP9 MUL SWAP1 DUP9 DUP3 DIV EQ DUP9 ISZERO OR ISZERO PUSH2 0xFD3 JUMPI PUSH2 0x2710 SWAP1 DIV SWAP6 DUP7 ISZERO PUSH2 0xF67 JUMPI DUP1 PUSH1 0x20 SWAP3 PUSH2 0xFBD DUP10 PUSH32 0xA7AE82844AD7274FFC746C1B05D7367AA0CF8438A545600854B4183BA7D3864A SWAP7 DUP11 PUSH2 0xD9C JUMP JUMPDEST MLOAD SWAP6 DUP9 DUP8 MSTORE AND SWAP6 AND SWAP4 LOG4 DUP2 SUB SWAP1 DUP2 GT PUSH2 0xFD3 JUMPI SWAP1 JUMP JUMPDEST PUSH4 0x4E487B71 PUSH1 0xE0 SHL PUSH1 0x0 MSTORE PUSH1 0x11 PUSH1 0x4 MSTORE PUSH1 0x24 PUSH1 0x0 REVERT JUMPDEST POP DUP7 DUP4 AND ISZERO ISZERO PUSH2 0xF62 JUMP JUMPDEST SWAP1 SWAP3 POP DUP2 DUP2 DUP2 RETURNDATASIZE DUP4 GT PUSH2 0x103D JUMPI JUMPDEST PUSH2 0x100C DUP2 DUP4 PUSH2 0xD64 JUMP JUMPDEST DUP2 ADD SUB SLT PUSH2 0x223 JUMPI DUP1 MLOAD SWAP1 PUSH2 0xFFFF DUP3 AND DUP3 SUB PUSH2 0x1039 JUMPI PUSH1 0x20 ADD MLOAD SWAP3 DUP8 DUP5 AND DUP5 SUB PUSH2 0x99C JUMPI POP PUSH2 0xFFFF PUSH2 0xF54 JUMP JUMPDEST DUP4 DUP1 REVERT JUMPDEST POP RETURNDATASIZE PUSH2 0x1002 JUMP JUMPDEST POP MLOAD RETURNDATASIZE PUSH1 0x0 DUP3 RETURNDATACOPY RETURNDATASIZE SWAP1 REVERT JUMPDEST POP POP POP POP SWAP1 JUMP JUMPDEST PUSH1 0x6 SLOAD PUSH1 0x1 PUSH1 0x1 PUSH1 0xA0 SHL SUB SWAP3 SWAP1 DUP4 AND DUP1 ISZERO PUSH2 0x104F JUMPI PUSH1 0x40 DUP1 MLOAD SWAP1 PUSH4 0x67403B61 PUSH1 0xE0 SHL DUP3 MSTORE DUP1 DUP3 PUSH1 0x24 DUP2 PUSH32 0x8E9B148654316179BD45E9EC5F0B575AE8288E79DF16D7BE748EC9A9BDCA8B4C SWAP7 DUP8 PUSH1 0x4 DUP4 ADD MSTORE GAS STATICCALL SWAP2 DUP3 ISZERO PUSH2 0x1044 JUMPI PUSH1 0x0 SWAP1 DUP2 SWAP4 PUSH2 0xFF4 JUMPI POP PUSH2 0xFFFF AND DUP1 ISZERO ISZERO DUP1 PUSH2 0xFE9 JUMPI PUSH2 0xF71 JUMPI POP POP POP POP POP POP POP SWAP1 JUMP INVALID LOG2 PUSH5 0x6970667358 0x22 SLT KECCAK256 SWAP9 0xB4 CALLDATALOAD RETURNDATASIZE JUMPI ADDMOD SSTORE 0xCD 0xBF DUP9 0xDD 0xB7 SWAP9 PUSH30 0x8A3A688C1BAA073A2FF49465F484480B8DA964736F6C6343000814003300 "},"methodIdentifiers":{"BUY_TAX_KEY()":"bea23e68","DEFAULT_ADMIN_ROLE()":"a217fddf","MINTER_ROLE()":"d5391393","SELL_TAX_KEY()":"8bd08d99","TAX_MANAGER_ROLE()":"967a2a70","allowance(address,address)":"dd62ed3e","approve(address,uint256)":"095ea7b3","balanceOf(address)":"70a08231","decimals()":"313ce567","getRoleAdmin(bytes32)":"248a9ca3","grantRole(bytes32,address)":"2f2ff15d","hasRole(bytes32,address)":"91d14854","isAMM(address)":"d46b6a30","mint(address,uint256)":"40c10f19","name()":"06fdde03","renounceRole(bytes32,address)":"36568abe","revokeRole(bytes32,address)":"d547741f","setAMMStatus(address,bool)":"424ba848","setSwapTaxManager(address)":"eda92923","supportsInterface(bytes4)":"01ffc9a7","swapTaxManager()":"43fb90a6","symbol()":"95d89b41","totalSupply()":"18160ddd","transfer(address,uint256)":"a9059cbb","transferFrom(address,address,uint256)":"23b872dd"}}}}}