{"contracts/BlockCoopV2.sol":{"VestingVault":{"abi":[{"inputs":[{"internalType":"address","name":"shareToken_","type":"address"},{"internalType":"address","name":"admin","type":"address"}],"stateMutability":"nonpayable","type":"constructor"},{"inputs":[],"name":"AccessControlBadConfirmation","type":"error"},{"inputs":[{"internalType":"address","name":"account","type":"address"},{"internalType":"bytes32","name":"neededRole","type":"bytes32"}],"name":"AccessControlUnauthorizedAccount","type":"error"},{"inputs":[],"name":"ReentrancyGuardReentrantCall","type":"error"},{"inputs":[{"internalType":"address","name":"token","type":"address"}],"name":"SafeERC20FailedOperation","type":"error"},{"anonymous":false,"inputs":[{"indexed":true,"internalType":"address","name":"user","type":"address"},{"indexed":false,"internalType":"uint256","name":"amount","type":"uint256"}],"name":"Claimed","type":"event"},{"anonymous":false,"inputs":[{"indexed":true,"internalType":"address","name":"user","type":"address"},{"indexed":false,"internalType":"uint256","name":"amount","type":"uint256"},{"indexed":false,"internalType":"uint64","name":"cliff","type":"uint64"},{"indexed":false,"internalType":"uint64","name":"duration","type":"uint64"}],"name":"Locked","type":"event"},{"anonymous":false,"inputs":[{"indexed":true,"internalType":"bytes32","name":"role","type":"bytes32"},{"indexed":true,"internalType":"bytes32","name":"previousAdminRole","type":"bytes32"},{"indexed":true,"internalType":"bytes32","name":"newAdminRole","type":"bytes32"}],"name":"RoleAdminChanged","type":"event"},{"anonymous":false,"inputs":[{"indexed":true,"internalType":"bytes32","name":"role","type":"bytes32"},{"indexed":true,"internalType":"address","name":"account","type":"address"},{"indexed":true,"internalType":"address","name":"sender","type":"address"}],"name":"RoleGranted","type":"event"},{"anonymous":false,"inputs":[{"indexed":true,"internalType":"bytes32","name":"role","type":"bytes32"},{"indexed":true,"internalType":"address","name":"account","type":"address"},{"indexed":true,"internalType":"address","name":"sender","type":"address"}],"name":"RoleRevoked","type":"event"},{"inputs":[],"name":"DEFAULT_ADMIN_ROLE","outputs":[{"internalType":"bytes32","name":"","type":"bytes32"}],"stateMutability":"view","type":"function"},{"inputs":[],"name":"LOCKER_ROLE","outputs":[{"internalType":"bytes32","name":"","type":"bytes32"}],"stateMutability":"view","type":"function"},{"inputs":[],"name":"claim","outputs":[],"stateMutability":"nonpayable","type":"function"},{"inputs":[{"internalType":"bytes32","name":"role","type":"bytes32"}],"name":"getRoleAdmin","outputs":[{"internalType":"bytes32","name":"","type":"bytes32"}],"stateMutability":"view","type":"function"},{"inputs":[{"internalType":"bytes32","name":"role","type":"bytes32"},{"internalType":"address","name":"account","type":"address"}],"name":"grantRole","outputs":[],"stateMutability":"nonpayable","type":"function"},{"inputs":[{"internalType":"bytes32","name":"role","type":"bytes32"},{"internalType":"address","name":"account","type":"address"}],"name":"hasRole","outputs":[{"internalType":"bool","name":"","type":"bool"}],"stateMutability":"view","type":"function"},{"inputs":[{"internalType":"address","name":"user","type":"address"},{"internalType":"uint256","name":"amount","type":"uint256"},{"internalType":"uint64","name":"cliff","type":"uint64"},{"internalType":"uint64","name":"duration","type":"uint64"}],"name":"lock","outputs":[],"stateMutability":"nonpayable","type":"function"},{"inputs":[{"internalType":"address","name":"","type":"address"}],"name":"released","outputs":[{"internalType":"uint256","name":"","type":"uint256"}],"stateMutability":"view","type":"function"},{"inputs":[{"internalType":"bytes32","name":"role","type":"bytes32"},{"internalType":"address","name":"callerConfirmation","type":"address"}],"name":"renounceRole","outputs":[],"stateMutability":"nonpayable","type":"function"},{"inputs":[{"internalType":"bytes32","name":"role","type":"bytes32"},{"internalType":"address","name":"account","type":"address"}],"name":"revokeRole","outputs":[],"stateMutability":"nonpayable","type":"function"},{"inputs":[],"name":"shareToken","outputs":[{"internalType":"contract BLOCKS","name":"","type":"address"}],"stateMutability":"view","type":"function"},{"inputs":[{"internalType":"bytes4","name":"interfaceId","type":"bytes4"}],"name":"supportsInterface","outputs":[{"internalType":"bool","name":"","type":"bool"}],"stateMutability":"view","type":"function"},{"inputs":[{"internalType":"address","name":"","type":"address"}],"name":"totalLocked","outputs":[{"internalType":"uint256","name":"","type":"uint256"}],"stateMutability":"view","type":"function"},{"inputs":[{"internalType":"address","name":"","type":"address"}],"name":"userSchedule","outputs":[{"internalType":"uint64","name":"cliff","type":"uint64"},{"internalType":"uint64","name":"duration","type":"uint64"},{"internalType":"uint256","name":"start","type":"uint256"}],"stateMutability":"view","type":"function"},{"inputs":[{"internalType":"address","name":"user","type":"address"}],"name":"vestedAmount","outputs":[{"internalType":"uint256","name":"","type":"uint256"}],"stateMutability":"view","type":"function"}],"evm":{"bytecode":{"linkReferences":{},"object":"60a03461008d57601f610ae438819003918201601f19168301916001600160401b0383118484101761009257808492604094855283398101031261008d5780610056602061004f61006d946100a8565b92016100a8565b600180556001600160a01b039091166080526100bc565b50604051610997908161014d823960805181818161038d015261043f0152f35b600080fd5b634e487b7160e01b600052604160045260246000fd5b51906001600160a01b038216820361008d57565b6001600160a01b031660008181527fad3228b676f7d3cd4284a5443f17f1962b36e491b30a40b2405849e597ba5fb5602052604081205490919060ff1661014857818052816020526040822081835260205260408220600160ff1982541617905533917f2f8788117e7eff1d82e926ec794901d17c78024a50270940304540a733656f0d8180a4600190565b509056fe608060408181526004918236101561001657600080fd5b600092833560e01c91826301ffc9a71461066c57508163248a9ca3146106425781632f2ff15d1461061857816336568abe146105d2578163384711cc146105a5578163424bb3311461054e5781634e71d92d146103bc5781636c9fa59e1461037857816391d14854146103325781639852595c146102fa578163a217fddf146102df578163bf49ec4f14610181578163d547741f1461013e57508063d8fb9337146101075763f3621367146100ca57600080fd5b34610103578160031936011261010357602090517faf9a8bb3cbd6b84fbccefa71ff73e26e798553c6914585a84886212a46a902798152f35b5080fd5b50346101035760203660031901126101035760209181906001600160a01b0361012e6106da565b1681526002845220549051908152f35b9190503461017d578060031936011261017d57610179913561017460016101636106bf565b9383875286602052862001546106f0565b6107b2565b5080f35b8280fd5b9190503461017d57608036600319011261017d5761019d6106da565b6024359160443567ffffffffffffffff928382168092036102db57606435938085168095036102d7577faf9a8bb3cbd6b84fbccefa71ff73e26e798553c6914585a84886212a46a9027991828952602092898452858a20338b52845260ff868b205416156102b95750916060959391600186948b7f2b150aca9bf716e6de7b8315dadc8a8301141e9857c9ebe5350151ca3dd24c389a98519361023f85610827565b86855287868601928a845281870194428652868060a01b03169e8f82528852209451166fffffffffffffffff000000000000000085549251891b16916fffffffffffffffffffffffffffffffff19161717835551910155600281528289206102a8868254610859565b90558251948552840152820152a280f35b855163e2517d3f60e01b815233818b01526024810191909152604490fd5b8780fd5b8680fd5b50503461010357816003193601126101035751908152602090f35b5050346101035760203660031901126101035760209181906001600160a01b036103226106da565b1681526003845220549051908152f35b90503461017d578160031936011261017d578160209360ff926103536106bf565b903582528186528282206001600160a01b039091168252855220549151911615158152f35b505034610103578160031936011261010357517f00000000000000000000000000000000000000000000000000000000000000006001600160a01b03168152602090f35b9190503461017d578260031936011261017d576002600154146105415760026001556103e733610889565b903384526103ff60209260038452828620549061087c565b92831561050d573385526003835281852061041b858254610859565b9055815163a9059cbb60e01b848201908152336024830152604480830187905282527f00000000000000000000000000000000000000000000000000000000000000006001600160a01b0316916080810167ffffffffffffffff8111828210176104fa57855251859188919082855af1156104f05785513d6104e75750803b155b6104d3575050907fd8138f8a3f377c5259ca548e70e4c2de94f129f5a11036a15b69513cba2b426a91519283523392a26001805580f35b6024925191635274afe760e01b8352820152fd5b6001141561049c565b82513d87823e3d90fd5b634e487b7160e01b895260418552602489fd5b82606492519162461bcd60e51b8352820152601060248201526f4e6f7468696e6720746f20636c61696d60801b6044820152fd5b51633ee5aeb560e01b8152fd5b90503461017d57602036600319011261017d5760609282916001600160a01b036105766106da565b1682526020522090600182549201549080519267ffffffffffffffff908181168552821c166020840152820152f35b505034610103576020366003190112610103576020906105cb6105c66106da565b610889565b9051908152f35b8383346101035780600319360112610103576105ec6106bf565b90336001600160a01b0383160361060957506101799192356107b2565b5163334bd91960e11b81528390fd5b9190503461017d578060031936011261017d57610179913561063d60016101636106bf565b610734565b90503461017d57602036600319011261017d57816020936001923581528085522001549051908152f35b84913461017d57602036600319011261017d573563ffffffff60e01b811680910361017d5760209250637965db0b60e01b81149081156106ae575b5015158152f35b6301ffc9a760e01b149050836106a7565b602435906001600160a01b03821682036106d557565b600080fd5b600435906001600160a01b03821682036106d557565b80600052600060205260406000203360005260205260ff60406000205416156107165750565b6044906040519063e2517d3f60e01b82523360048301526024820152fd5b9060009180835282602052604083209160018060a01b03169182845260205260ff604084205416156000146107ad57808352826020526040832082845260205260408320600160ff198254161790557f2f8788117e7eff1d82e926ec794901d17c78024a50270940304540a733656f0d339380a4600190565b505090565b9060009180835282602052604083209160018060a01b03169182845260205260ff6040842054166000146107ad5780835282602052604083208284526020526040832060ff1981541690557ff6391f5c32d9c69d2a47ea670b442974b53935d1edc7fd64eb21e047a839171b339380a4600190565b6060810190811067ffffffffffffffff82111761084357604052565b634e487b7160e01b600052604160045260246000fd5b9190820180921161086657565b634e487b7160e01b600052601160045260246000fd5b9190820391821161086657565b6001600160a01b03166000818152600460205260408082209051919291906108b082610827565b6108e2815491604067ffffffffffffffff94600186861693848352876020840197851c16875201549182910152610859565b9283421061095a57845260026020526109006040852054934261087c565b92828251168410156109525783810293818504149015171561093e57511691821561092a57500490565b634e487b7160e01b81526012600452602490fd5b634e487b7160e01b84526011600452602484fd5b935050505090565b505050509056fea26469706673582212203f8dbc1e0a2c98ee5645461ee08b4234d2b1dc509ef951144d57e2fa360f39d064736f6c63430008140033","opcodes":"PUSH1 0xA0 CALLVALUE PUSH2 0x8D JUMPI PUSH1 0x1F PUSH2 0xAE4 CODESIZE DUP2 SWAP1 SUB SWAP2 DUP3 ADD PUSH1 0x1F NOT AND DUP4 ADD SWAP2 PUSH1 0x1 PUSH1 0x1 PUSH1 0x40 SHL SUB DUP4 GT DUP5 DUP5 LT OR PUSH2 0x92 JUMPI DUP1 DUP5 SWAP3 PUSH1 0x40 SWAP5 DUP6 MSTORE DUP4 CODECOPY DUP2 ADD SUB SLT PUSH2 0x8D JUMPI DUP1 PUSH2 0x56 PUSH1 0x20 PUSH2 0x4F PUSH2 0x6D SWAP5 PUSH2 0xA8 JUMP JUMPDEST SWAP3 ADD PUSH2 0xA8 JUMP JUMPDEST PUSH1 0x1 DUP1 SSTORE PUSH1 0x1 PUSH1 0x1 PUSH1 0xA0 SHL SUB SWAP1 SWAP2 AND PUSH1 0x80 MSTORE PUSH2 0xBC JUMP JUMPDEST POP PUSH1 0x40 MLOAD PUSH2 0x997 SWAP1 DUP2 PUSH2 0x14D DUP3 CODECOPY PUSH1 0x80 MLOAD DUP2 DUP2 DUP2 PUSH2 0x38D ADD MSTORE PUSH2 0x43F ADD MSTORE RETURN JUMPDEST PUSH1 0x0 DUP1 REVERT JUMPDEST PUSH4 0x4E487B71 PUSH1 0xE0 SHL PUSH1 0x0 MSTORE PUSH1 0x41 PUSH1 0x4 MSTORE PUSH1 0x24 PUSH1 0x0 REVERT JUMPDEST MLOAD SWAP1 PUSH1 0x1 PUSH1 0x1 PUSH1 0xA0 SHL SUB DUP3 AND DUP3 SUB PUSH2 0x8D JUMPI JUMP JUMPDEST PUSH1 0x1 PUSH1 0x1 PUSH1 0xA0 SHL SUB AND PUSH1 0x0 DUP2 DUP2 MSTORE PUSH32 0xAD3228B676F7D3CD4284A5443F17F1962B36E491B30A40B2405849E597BA5FB5 PUSH1 0x20 MSTORE PUSH1 0x40 DUP2 KECCAK256 SLOAD SWAP1 SWAP2 SWAP1 PUSH1 0xFF AND PUSH2 0x148 JUMPI DUP2 DUP1 MSTORE DUP2 PUSH1 0x20 MSTORE PUSH1 0x40 DUP3 KECCAK256 DUP2 DUP4 MSTORE PUSH1 0x20 MSTORE PUSH1 0x40 DUP3 KECCAK256 PUSH1 0x1 PUSH1 0xFF NOT DUP3 SLOAD AND OR SWAP1 SSTORE CALLER SWAP2 PUSH32 0x2F8788117E7EFF1D82E926EC794901D17C78024A50270940304540A733656F0D DUP2 DUP1 LOG4 PUSH1 0x1 SWAP1 JUMP JUMPDEST POP SWAP1 JUMP INVALID PUSH1 0x80 PUSH1 0x40 DUP2 DUP2 MSTORE PUSH1 0x4 SWAP2 DUP3 CALLDATASIZE LT ISZERO PUSH2 0x16 JUMPI PUSH1 0x0 DUP1 REVERT JUMPDEST PUSH1 0x0 SWAP3 DUP4 CALLDATALOAD PUSH1 0xE0 SHR SWAP2 DUP3 PUSH4 0x1FFC9A7 EQ PUSH2 0x66C JUMPI POP DUP2 PUSH4 0x248A9CA3 EQ PUSH2 0x642 JUMPI DUP2 PUSH4 0x2F2FF15D EQ PUSH2 0x618 JUMPI DUP2 PUSH4 0x36568ABE EQ PUSH2 0x5D2 JUMPI DUP2 PUSH4 0x384711CC EQ PUSH2 0x5A5 JUMPI DUP2 PUSH4 0x424BB331 EQ PUSH2 0x54E JUMPI DUP2 PUSH4 0x4E71D92D EQ PUSH2 0x3BC JUMPI DUP2 PUSH4 0x6C9FA59E EQ PUSH2 0x378 JUMPI DUP2 PUSH4 0x91D14854 EQ PUSH2 0x332 JUMPI DUP2 PUSH4 0x9852595C EQ PUSH2 0x2FA JUMPI DUP2 PUSH4 0xA217FDDF EQ PUSH2 0x2DF JUMPI DUP2 PUSH4 0xBF49EC4F EQ PUSH2 0x181 JUMPI DUP2 PUSH4 0xD547741F EQ PUSH2 0x13E JUMPI POP DUP1 PUSH4 0xD8FB9337 EQ PUSH2 0x107 JUMPI PUSH4 0xF3621367 EQ PUSH2 0xCA JUMPI PUSH1 0x0 DUP1 REVERT JUMPDEST CALLVALUE PUSH2 0x103 JUMPI DUP2 PUSH1 0x3 NOT CALLDATASIZE ADD SLT PUSH2 0x103 JUMPI PUSH1 0x20 SWAP1 MLOAD PUSH32 0xAF9A8BB3CBD6B84FBCCEFA71FF73E26E798553C6914585A84886212A46A90279 DUP2 MSTORE RETURN JUMPDEST POP DUP1 REVERT JUMPDEST POP CALLVALUE PUSH2 0x103 JUMPI PUSH1 0x20 CALLDATASIZE PUSH1 0x3 NOT ADD SLT PUSH2 0x103 JUMPI PUSH1 0x20 SWAP2 DUP2 SWAP1 PUSH1 0x1 PUSH1 0x1 PUSH1 0xA0 SHL SUB PUSH2 0x12E PUSH2 0x6DA JUMP JUMPDEST AND DUP2 MSTORE PUSH1 0x2 DUP5 MSTORE KECCAK256 SLOAD SWAP1 MLOAD SWAP1 DUP2 MSTORE RETURN JUMPDEST SWAP2 SWAP1 POP CALLVALUE PUSH2 0x17D JUMPI DUP1 PUSH1 0x3 NOT CALLDATASIZE ADD SLT PUSH2 0x17D JUMPI PUSH2 0x179 SWAP2 CALLDATALOAD PUSH2 0x174 PUSH1 0x1 PUSH2 0x163 PUSH2 0x6BF JUMP JUMPDEST SWAP4 DUP4 DUP8 MSTORE DUP7 PUSH1 0x20 MSTORE DUP7 KECCAK256 ADD SLOAD PUSH2 0x6F0 JUMP JUMPDEST PUSH2 0x7B2 JUMP JUMPDEST POP DUP1 RETURN JUMPDEST DUP3 DUP1 REVERT JUMPDEST SWAP2 SWAP1 POP CALLVALUE PUSH2 0x17D JUMPI PUSH1 0x80 CALLDATASIZE PUSH1 0x3 NOT ADD SLT PUSH2 0x17D JUMPI PUSH2 0x19D PUSH2 0x6DA JUMP JUMPDEST PUSH1 0x24 CALLDATALOAD SWAP2 PUSH1 0x44 CALLDATALOAD PUSH8 0xFFFFFFFFFFFFFFFF SWAP3 DUP4 DUP3 AND DUP1 SWAP3 SUB PUSH2 0x2DB JUMPI PUSH1 0x64 CALLDATALOAD SWAP4 DUP1 DUP6 AND DUP1 SWAP6 SUB PUSH2 0x2D7 JUMPI PUSH32 0xAF9A8BB3CBD6B84FBCCEFA71FF73E26E798553C6914585A84886212A46A90279 SWAP2 DUP3 DUP10 MSTORE PUSH1 0x20 SWAP3 DUP10 DUP5 MSTORE DUP6 DUP11 KECCAK256 CALLER DUP12 MSTORE DUP5 MSTORE PUSH1 0xFF DUP7 DUP12 KECCAK256 SLOAD AND ISZERO PUSH2 0x2B9 JUMPI POP SWAP2 PUSH1 0x60 SWAP6 SWAP4 SWAP2 PUSH1 0x1 DUP7 SWAP5 DUP12 PUSH32 0x2B150ACA9BF716E6DE7B8315DADC8A8301141E9857C9EBE5350151CA3DD24C38 SWAP11 SWAP9 MLOAD SWAP4 PUSH2 0x23F DUP6 PUSH2 0x827 JUMP JUMPDEST DUP7 DUP6 MSTORE DUP8 DUP7 DUP7 ADD SWAP3 DUP11 DUP5 MSTORE DUP2 DUP8 ADD SWAP5 TIMESTAMP DUP7 MSTORE DUP7 DUP1 PUSH1 0xA0 SHL SUB AND SWAP15 DUP16 DUP3 MSTORE DUP9 MSTORE KECCAK256 SWAP5 MLOAD AND PUSH16 0xFFFFFFFFFFFFFFFF0000000000000000 DUP6 SLOAD SWAP3 MLOAD DUP10 SHL AND SWAP2 PUSH16 0xFFFFFFFFFFFFFFFFFFFFFFFFFFFFFFFF NOT AND OR OR DUP4 SSTORE MLOAD SWAP2 ADD SSTORE PUSH1 0x2 DUP2 MSTORE DUP3 DUP10 KECCAK256 PUSH2 0x2A8 DUP7 DUP3 SLOAD PUSH2 0x859 JUMP JUMPDEST SWAP1 SSTORE DUP3 MLOAD SWAP5 DUP6 MSTORE DUP5 ADD MSTORE DUP3 ADD MSTORE LOG2 DUP1 RETURN JUMPDEST DUP6 MLOAD PUSH4 0xE2517D3F PUSH1 0xE0 SHL DUP2 MSTORE CALLER DUP2 DUP12 ADD MSTORE PUSH1 0x24 DUP2 ADD SWAP2 SWAP1 SWAP2 MSTORE PUSH1 0x44 SWAP1 REVERT JUMPDEST DUP8 DUP1 REVERT JUMPDEST DUP7 DUP1 REVERT JUMPDEST POP POP CALLVALUE PUSH2 0x103 JUMPI DUP2 PUSH1 0x3 NOT CALLDATASIZE ADD SLT PUSH2 0x103 JUMPI MLOAD SWAP1 DUP2 MSTORE PUSH1 0x20 SWAP1 RETURN JUMPDEST POP POP CALLVALUE PUSH2 0x103 JUMPI PUSH1 0x20 CALLDATASIZE PUSH1 0x3 NOT ADD SLT PUSH2 0x103 JUMPI PUSH1 0x20 SWAP2 DUP2 SWAP1 PUSH1 0x1 PUSH1 0x1 PUSH1 0xA0 SHL SUB PUSH2 0x322 PUSH2 0x6DA JUMP JUMPDEST AND DUP2 MSTORE PUSH1 0x3 DUP5 MSTORE KECCAK256 SLOAD SWAP1 MLOAD SWAP1 DUP2 MSTORE RETURN JUMPDEST SWAP1 POP CALLVALUE PUSH2 0x17D JUMPI DUP2 PUSH1 0x3 NOT CALLDATASIZE ADD SLT PUSH2 0x17D JUMPI DUP2 PUSH1 0x20 SWAP4 PUSH1 0xFF SWAP3 PUSH2 0x353 PUSH2 0x6BF JUMP JUMPDEST SWAP1 CALLDATALOAD DUP3 MSTORE DUP2 DUP7 MSTORE DUP3 DUP3 KECCAK256 PUSH1 0x1 PUSH1 0x1 PUSH1 0xA0 SHL SUB SWAP1 SWAP2 AND DUP3 MSTORE DUP6 MSTORE KECCAK256 SLOAD SWAP2 MLOAD SWAP2 AND ISZERO ISZERO DUP2 MSTORE RETURN JUMPDEST POP POP CALLVALUE PUSH2 0x103 JUMPI DUP2 PUSH1 0x3 NOT CALLDATASIZE ADD SLT PUSH2 0x103 JUMPI MLOAD PUSH32 0x0 PUSH1 0x1 PUSH1 0x1 PUSH1 0xA0 SHL SUB AND DUP2 MSTORE PUSH1 0x20 SWAP1 RETURN JUMPDEST SWAP2 SWAP1 POP CALLVALUE PUSH2 0x17D JUMPI DUP3 PUSH1 0x3 NOT CALLDATASIZE ADD SLT PUSH2 0x17D JUMPI PUSH1 0x2 PUSH1 0x1 SLOAD EQ PUSH2 0x541 JUMPI PUSH1 0x2 PUSH1 0x1 SSTORE PUSH2 0x3E7 CALLER PUSH2 0x889 JUMP JUMPDEST SWAP1 CALLER DUP5 MSTORE PUSH2 0x3FF PUSH1 0x20 SWAP3 PUSH1 0x3 DUP5 MSTORE DUP3 DUP7 KECCAK256 SLOAD SWAP1 PUSH2 0x87C JUMP JUMPDEST SWAP3 DUP4 ISZERO PUSH2 0x50D JUMPI CALLER DUP6 MSTORE PUSH1 0x3 DUP4 MSTORE DUP2 DUP6 KECCAK256 PUSH2 0x41B DUP6 DUP3 SLOAD PUSH2 0x859 JUMP JUMPDEST SWAP1 SSTORE DUP2 MLOAD PUSH4 0xA9059CBB PUSH1 0xE0 SHL DUP5 DUP3 ADD SWAP1 DUP2 MSTORE CALLER PUSH1 0x24 DUP4 ADD MSTORE PUSH1 0x44 DUP1 DUP4 ADD DUP8 SWAP1 MSTORE DUP3 MSTORE PUSH32 0x0 PUSH1 0x1 PUSH1 0x1 PUSH1 0xA0 SHL SUB AND SWAP2 PUSH1 0x80 DUP2 ADD PUSH8 0xFFFFFFFFFFFFFFFF DUP2 GT DUP3 DUP3 LT OR PUSH2 0x4FA JUMPI DUP6 MSTORE MLOAD DUP6 SWAP2 DUP9 SWAP2 SWAP1 DUP3 DUP6 GAS CALL ISZERO PUSH2 0x4F0 JUMPI DUP6 MLOAD RETURNDATASIZE PUSH2 0x4E7 JUMPI POP DUP1 EXTCODESIZE ISZERO JUMPDEST PUSH2 0x4D3 JUMPI POP POP SWAP1 PUSH32 0xD8138F8A3F377C5259CA548E70E4C2DE94F129F5A11036A15B69513CBA2B426A SWAP2 MLOAD SWAP3 DUP4 MSTORE CALLER SWAP3 LOG2 PUSH1 0x1 DUP1 SSTORE DUP1 RETURN JUMPDEST PUSH1 0x24 SWAP3 MLOAD SWAP2 PUSH4 0x5274AFE7 PUSH1 0xE0 SHL DUP4 MSTORE DUP3 ADD MSTORE REVERT JUMPDEST PUSH1 0x1 EQ ISZERO PUSH2 0x49C JUMP JUMPDEST DUP3 MLOAD RETURNDATASIZE DUP8 DUP3 RETURNDATACOPY RETURNDATASIZE SWAP1 REVERT JUMPDEST PUSH4 0x4E487B71 PUSH1 0xE0 SHL DUP10 MSTORE PUSH1 0x41 DUP6 MSTORE PUSH1 0x24 DUP10 REVERT JUMPDEST DUP3 PUSH1 0x64 SWAP3 MLOAD SWAP2 PUSH3 0x461BCD PUSH1 0xE5 SHL DUP4 MSTORE DUP3 ADD MSTORE PUSH1 0x10 PUSH1 0x24 DUP3 ADD MSTORE PUSH16 0x4E6F7468696E6720746F20636C61696D PUSH1 0x80 SHL PUSH1 0x44 DUP3 ADD MSTORE REVERT JUMPDEST MLOAD PUSH4 0x3EE5AEB5 PUSH1 0xE0 SHL DUP2 MSTORE REVERT JUMPDEST SWAP1 POP CALLVALUE PUSH2 0x17D JUMPI PUSH1 0x20 CALLDATASIZE PUSH1 0x3 NOT ADD SLT PUSH2 0x17D JUMPI PUSH1 0x60 SWAP3 DUP3 SWAP2 PUSH1 0x1 PUSH1 0x1 PUSH1 0xA0 SHL SUB PUSH2 0x576 PUSH2 0x6DA JUMP JUMPDEST AND DUP3 MSTORE PUSH1 0x20 MSTORE KECCAK256 SWAP1 PUSH1 0x1 DUP3 SLOAD SWAP3 ADD SLOAD SWAP1 DUP1 MLOAD SWAP3 PUSH8 0xFFFFFFFFFFFFFFFF SWAP1 DUP2 DUP2 AND DUP6 MSTORE DUP3 SHR AND PUSH1 0x20 DUP5 ADD MSTORE DUP3 ADD MSTORE RETURN JUMPDEST POP POP CALLVALUE PUSH2 0x103 JUMPI PUSH1 0x20 CALLDATASIZE PUSH1 0x3 NOT ADD SLT PUSH2 0x103 JUMPI PUSH1 0x20 SWAP1 PUSH2 0x5CB PUSH2 0x5C6 PUSH2 0x6DA JUMP JUMPDEST PUSH2 0x889 JUMP JUMPDEST SWAP1 MLOAD SWAP1 DUP2 MSTORE RETURN JUMPDEST DUP4 DUP4 CALLVALUE PUSH2 0x103 JUMPI DUP1 PUSH1 0x3 NOT CALLDATASIZE ADD SLT PUSH2 0x103 JUMPI PUSH2 0x5EC PUSH2 0x6BF JUMP JUMPDEST SWAP1 CALLER PUSH1 0x1 PUSH1 0x1 PUSH1 0xA0 SHL SUB DUP4 AND SUB PUSH2 0x609 JUMPI POP PUSH2 0x179 SWAP2 SWAP3 CALLDATALOAD PUSH2 0x7B2 JUMP JUMPDEST MLOAD PUSH4 0x334BD919 PUSH1 0xE1 SHL DUP2 MSTORE DUP4 SWAP1 REVERT JUMPDEST SWAP2 SWAP1 POP CALLVALUE PUSH2 0x17D JUMPI DUP1 PUSH1 0x3 NOT CALLDATASIZE ADD SLT PUSH2 0x17D JUMPI PUSH2 0x179 SWAP2 CALLDATALOAD PUSH2 0x63D PUSH1 0x1 PUSH2 0x163 PUSH2 0x6BF JUMP JUMPDEST PUSH2 0x734 JUMP JUMPDEST SWAP1 POP CALLVALUE PUSH2 0x17D JUMPI PUSH1 0x20 CALLDATASIZE PUSH1 0x3 NOT ADD SLT PUSH2 0x17D JUMPI DUP2 PUSH1 0x20 SWAP4 PUSH1 0x1 SWAP3 CALLDATALOAD DUP2 MSTORE DUP1 DUP6 MSTORE KECCAK256 ADD SLOAD SWAP1 MLOAD SWAP1 DUP2 MSTORE RETURN JUMPDEST DUP5 SWAP2 CALLVALUE PUSH2 0x17D JUMPI PUSH1 0x20 CALLDATASIZE PUSH1 0x3 NOT ADD SLT PUSH2 0x17D JUMPI CALLDATALOAD PUSH4 0xFFFFFFFF PUSH1 0xE0 SHL DUP2 AND DUP1 SWAP2 SUB PUSH2 0x17D JUMPI PUSH1 0x20 SWAP3 POP PUSH4 0x7965DB0B PUSH1 0xE0 SHL DUP2 EQ SWAP1 DUP2 ISZERO PUSH2 0x6AE JUMPI JUMPDEST POP ISZERO ISZERO DUP2 MSTORE RETURN JUMPDEST PUSH4 0x1FFC9A7 PUSH1 0xE0 SHL EQ SWAP1 POP DUP4 PUSH2 0x6A7 JUMP JUMPDEST PUSH1 0x24 CALLDATALOAD SWAP1 PUSH1 0x1 PUSH1 0x1 PUSH1 0xA0 SHL SUB DUP3 AND DUP3 SUB PUSH2 0x6D5 JUMPI JUMP JUMPDEST PUSH1 0x0 DUP1 REVERT JUMPDEST PUSH1 0x4 CALLDATALOAD SWAP1 PUSH1 0x1 PUSH1 0x1 PUSH1 0xA0 SHL SUB DUP3 AND DUP3 SUB PUSH2 0x6D5 JUMPI JUMP JUMPDEST DUP1 PUSH1 0x0 MSTORE PUSH1 0x0 PUSH1 0x20 MSTORE PUSH1 0x40 PUSH1 0x0 KECCAK256 CALLER PUSH1 0x0 MSTORE PUSH1 0x20 MSTORE PUSH1 0xFF PUSH1 0x40 PUSH1 0x0 KECCAK256 SLOAD AND ISZERO PUSH2 0x716 JUMPI POP JUMP JUMPDEST PUSH1 0x44 SWAP1 PUSH1 0x40 MLOAD SWAP1 PUSH4 0xE2517D3F PUSH1 0xE0 SHL DUP3 MSTORE CALLER PUSH1 0x4 DUP4 ADD MSTORE PUSH1 0x24 DUP3 ADD MSTORE REVERT JUMPDEST SWAP1 PUSH1 0x0 SWAP2 DUP1 DUP4 MSTORE DUP3 PUSH1 0x20 MSTORE PUSH1 0x40 DUP4 KECCAK256 SWAP2 PUSH1 0x1 DUP1 PUSH1 0xA0 SHL SUB AND SWAP2 DUP3 DUP5 MSTORE PUSH1 0x20 MSTORE PUSH1 0xFF PUSH1 0x40 DUP5 KECCAK256 SLOAD AND ISZERO PUSH1 0x0 EQ PUSH2 0x7AD JUMPI DUP1 DUP4 MSTORE DUP3 PUSH1 0x20 MSTORE PUSH1 0x40 DUP4 KECCAK256 DUP3 DUP5 MSTORE PUSH1 0x20 MSTORE PUSH1 0x40 DUP4 KECCAK256 PUSH1 0x1 PUSH1 0xFF NOT DUP3 SLOAD AND OR SWAP1 SSTORE PUSH32 0x2F8788117E7EFF1D82E926EC794901D17C78024A50270940304540A733656F0D CALLER SWAP4 DUP1 LOG4 PUSH1 0x1 SWAP1 JUMP JUMPDEST POP POP SWAP1 JUMP JUMPDEST SWAP1 PUSH1 0x0 SWAP2 DUP1 DUP4 MSTORE DUP3 PUSH1 0x20 MSTORE PUSH1 0x40 DUP4 KECCAK256 SWAP2 PUSH1 0x1 DUP1 PUSH1 0xA0 SHL SUB AND SWAP2 DUP3 DUP5 MSTORE PUSH1 0x20 MSTORE PUSH1 0xFF PUSH1 0x40 DUP5 KECCAK256 SLOAD AND PUSH1 0x0 EQ PUSH2 0x7AD JUMPI DUP1 DUP4 MSTORE DUP3 PUSH1 0x20 MSTORE PUSH1 0x40 DUP4 KECCAK256 DUP3 DUP5 MSTORE PUSH1 0x20 MSTORE PUSH1 0x40 DUP4 KECCAK256 PUSH1 0xFF NOT DUP2 SLOAD AND SWAP1 SSTORE PUSH32 0xF6391F5C32D9C69D2A47EA670B442974B53935D1EDC7FD64EB21E047A839171B CALLER SWAP4 DUP1 LOG4 PUSH1 0x1 SWAP1 JUMP JUMPDEST PUSH1 0x60 DUP2 ADD SWAP1 DUP2 LT PUSH8 0xFFFFFFFFFFFFFFFF DUP3 GT OR PUSH2 0x843 JUMPI PUSH1 0x40 MSTORE JUMP JUMPDEST PUSH4 0x4E487B71 PUSH1 0xE0 SHL PUSH1 0x0 MSTORE PUSH1 0x41 PUSH1 0x4 MSTORE PUSH1 0x24 PUSH1 0x0 REVERT JUMPDEST SWAP2 SWAP1 DUP3 ADD DUP1 SWAP3 GT PUSH2 0x866 JUMPI JUMP JUMPDEST PUSH4 0x4E487B71 PUSH1 0xE0 SHL PUSH1 0x0 MSTORE PUSH1 0x11 PUSH1 0x4 MSTORE PUSH1 0x24 PUSH1 0x0 REVERT JUMPDEST SWAP2 SWAP1 DUP3 SUB SWAP2 DUP3 GT PUSH2 0x866 JUMPI JUMP JUMPDEST PUSH1 0x1 PUSH1 0x1 PUSH1 0xA0 SHL SUB AND PUSH1 0x0 DUP2 DUP2 MSTORE PUSH1 0x4 PUSH1 0x20 MSTORE PUSH1 0x40 DUP1 DUP3 KECCAK256 SWAP1 MLOAD SWAP2 SWAP3 SWAP2 SWAP1 PUSH2 0x8B0 DUP3 PUSH2 0x827 JUMP JUMPDEST PUSH2 0x8E2 DUP2 SLOAD SWAP2 PUSH1 0x40 PUSH8 0xFFFFFFFFFFFFFFFF SWAP5 PUSH1 0x1 DUP7 DUP7 AND SWAP4 DUP5 DUP4 MSTORE DUP8 PUSH1 0x20 DUP5 ADD SWAP8 DUP6 SHR AND DUP8 MSTORE ADD SLOAD SWAP2 DUP3 SWAP2 ADD MSTORE PUSH2 0x859 JUMP JUMPDEST SWAP3 DUP4 TIMESTAMP LT PUSH2 0x95A JUMPI DUP5 MSTORE PUSH1 0x2 PUSH1 0x20 MSTORE PUSH2 0x900 PUSH1 0x40 DUP6 KECCAK256 SLOAD SWAP4 TIMESTAMP PUSH2 0x87C JUMP JUMPDEST SWAP3 DUP3 DUP3 MLOAD AND DUP5 LT ISZERO PUSH2 0x952 JUMPI DUP4 DUP2 MUL SWAP4 DUP2 DUP6 DIV EQ SWAP1 ISZERO OR ISZERO PUSH2 0x93E JUMPI MLOAD AND SWAP2 DUP3 ISZERO PUSH2 0x92A JUMPI POP DIV SWAP1 JUMP JUMPDEST PUSH4 0x4E487B71 PUSH1 0xE0 SHL DUP2 MSTORE PUSH1 0x12 PUSH1 0x4 MSTORE PUSH1 0x24 SWAP1 REVERT JUMPDEST PUSH4 0x4E487B71 PUSH1 0xE0 SHL DUP5 MSTORE PUSH1 0x11 PUSH1 0x4 MSTORE PUSH1 0x24 DUP5 REVERT JUMPDEST SWAP4 POP POP POP POP SWAP1 JUMP JUMPDEST POP POP POP POP SWAP1 JUMP INVALID LOG2 PUSH5 0x6970667358 0x22 SLT KECCAK256 EXTCODEHASH DUP14 0xBC 0x1E EXP 0x2C SWAP9 0xEE JUMP GASLIMIT CHAINID 0x1E 0xE0 DUP12 TIMESTAMP CALLVALUE 0xD2 0xB1 0xDC POP SWAP15 0xF9 MLOAD EQ 0x4D JUMPI 0xE2 STATICCALL CALLDATASIZE 0xF CODECOPY 0xD0 PUSH5 0x736F6C6343 STOP ADDMOD EQ STOP CALLER "},"methodIdentifiers":{"DEFAULT_ADMIN_ROLE()":"a217fddf","LOCKER_ROLE()":"f3621367","claim()":"4e71d92d","getRoleAdmin(bytes32)":"248a9ca3","grantRole(bytes32,address)":"2f2ff15d","hasRole(bytes32,address)":"91d14854","lock(address,uint256,uint64,uint64)":"bf49ec4f","released(address)":"9852595c","renounceRole(bytes32,address)":"36568abe","revokeRole(bytes32,address)":"d547741f","shareToken()":"6c9fa59e","supportsInterface(bytes4)":"01ffc9a7","totalLocked(address)":"d8fb9337","userSchedule(address)":"424bb331","vestedAmount(address)":"384711cc"}}}}}