{"contracts/MpesaTreasuryAdapterV2.sol":{"MpesaTreasuryAdapterV2":{"abi":[{"inputs":[{"internalType":"address","name":"_usdt","type":"address"},{"internalType":"address","name":"_pm","type":"address"},{"internalType":"address","name":"_treasury","type":"address"},{"internalType":"address","name":"_backend","type":"address"}],"stateMutability":"nonpayable","type":"constructor"},{"inputs":[],"name":"backendEOA","outputs":[{"internalType":"address","name":"","type":"address"}],"stateMutability":"view","type":"function"},{"inputs":[],"name":"packageManager","outputs":[{"internalType":"address","name":"","type":"address"}],"stateMutability":"view","type":"function"},{"inputs":[],"name":"preapprove","outputs":[],"stateMutability":"nonpayable","type":"function"},{"inputs":[{"internalType":"address","name":"buyer","type":"address"},{"internalType":"uint256","name":"packageId","type":"uint256"},{"internalType":"address","name":"referrer","type":"address"}],"name":"purchaseUsingTreasury","outputs":[],"stateMutability":"nonpayable","type":"function"},{"inputs":[],"name":"treasury","outputs":[{"internalType":"address","name":"","type":"address"}],"stateMutability":"view","type":"function"},{"inputs":[],"name":"usdt","outputs":[{"internalType":"address","name":"","type":"address"}],"stateMutability":"view","type":"function"}],"evm":{"bytecode":{"linkReferences":{},"object":"6101003461018057601f610c5238819003918201601f19168301916001600160401b0383118484101761018557808492608094604052833981010312610180576100488161019b565b906100556020820161019b565b61006d60606100666040850161019b565b930161019b565b926001600160a01b0380821615159081610174575b81610168575b8161015c575b501561012c5760805260a05260c05260e052604051610aa290816101b0823960805181818161013a015281816103cd0152610952015260a05181818160780152818161010201528181610282015281816102de015281816103390152818161042101528181610473015281816104dc0152610548015260c051818181610398015261090d015260e05181818160cc0152818161023001526109950152f35b60405162461bcd60e51b81526020600482015260086024820152673130b21030b2323960c11b6044820152606490fd5b9050841615153861008e565b84811615159150610088565b83811615159150610082565b600080fd5b634e487b7160e01b600052604160045260246000fd5b51906001600160a01b03821682036101805756fe608080604052600436101561001357600080fd5b600090813560e01c9081631b41073f14610981575080632f48ab7d1461093c57806361d027b3146108f757806367785d48146101f2578063739e9c79146100aa5763bf2e233e1461006357600080fd5b346100a757806003193601126100a7576040517f00000000000000000000000000000000000000000000000000000000000000006001600160a01b03168152602090f35b80fd5b50346100a757806003193601126100a7578060206001600160a01b036100f3337f00000000000000000000000000000000000000000000000000000000000000008316146109c4565b60405163095ea7b360e01b81527f000000000000000000000000000000000000000000000000000000000000000082166004820152600019602482015292839160449183917f0000000000000000000000000000000000000000000000000000000000000000165af19081156101e75782916101aa575b50156101735780f35b60405162461bcd60e51b815260206004820152600f60248201526e1c1c99585c1c1c9bdd994819985a5b608a1b6044820152606490fd5b90506020813d82116101df575b816101c4602093836109fe565b810103126101db576101d590610a36565b3861016a565b5080fd5b3d91506101b7565b6040513d84823e3d90fd5b50346100a75760603660031901126100a7576004356001600160a01b03811681036101db576044356001600160a01b03811681036105355761025e337f00000000000000000000000000000000000000000000000000000000000000006001600160a01b0316146109c4565b6001600160a01b038216156108c657604051630633ca0d60e21b81526020816004817f00000000000000000000000000000000000000000000000000000000000000006001600160a01b03165afa908115610618578491610894575b50604051632474521560e21b815260048101919091523060248201526020816044817f00000000000000000000000000000000000000000000000000000000000000006001600160a01b03165afa90811561061857849161085a575b501561082457604051631733bfc360e31b815260248035600483015284908290817f00000000000000000000000000000000000000000000000000000000000000006001600160a01b03165afa80156106185784918590869261070a575b5081610702575b50156106cf576040516323b872dd60e01b81526001600160a01b037f000000000000000000000000000000000000000000000000000000000000000081166004830152306024830152604482018390527f0000000000000000000000000000000000000000000000000000000000000000169060208160648189865af19081156106c4578691610686575b501561065557604051636eb1769f60e11b81523060048201527f00000000000000000000000000000000000000000000000000000000000000006001600160a01b03166024820152859290602081604481865afa908115610618578491610623575b5010610539575b50507f00000000000000000000000000000000000000000000000000000000000000006001600160a01b03163b15610535576040516330769aef60e21b81526001600160a01b039283166004820152602480359082015290821660448201529082908290606490829084907f0000000000000000000000000000000000000000000000000000000000000000165af180156101e75761050c575080f35b67ffffffffffffffff81116105215760405280f35b634e487b7160e01b82526041600452602482fd5b8280fd5b60405163095ea7b360e01b81527f00000000000000000000000000000000000000000000000000000000000000006001600160a01b0316600482015260001960248201529160209183916044918391905af19081156106185784916105da575b50156105a657823861046f565b60405162461bcd60e51b815260206004820152600c60248201526b185c1c1c9bdd994819985a5b60a21b6044820152606490fd5b90506020813d602011610610575b816105f5602093836109fe565b8101031261060c5761060690610a36565b38610599565b8380fd5b3d91506105e8565b6040513d86823e3d90fd5b90506020813d60201161064d575b8161063e602093836109fe565b8101031261060c575138610468565b3d9150610631565b60405162461bcd60e51b81526020600482015260096024820152681c1d5b1b0819985a5b60ba1b6044820152606490fd5b90506020813d6020116106bc575b816106a1602093836109fe565b810103126106b8576106b290610a36565b38610406565b8580fd5b3d9150610694565b6040513d88823e3d90fd5b60405162461bcd60e51b815260206004820152600b60248201526a626164207061636b61676560a81b6044820152606490fd5b90503861037b565b925050503d8085833e61071d81836109fe565b81016101208282031261082057815161073860408401610a48565b5061074560608401610a48565b5061075260808401610a5d565b5061075f60a08401610a5d565b5061076c60c08401610a36565b9261077960e08201610a36565b926101008201519167ffffffffffffffff928381116108085782601f828401011215610808578082015193841161080c57604051926107c2601f8601601f1916602001856109fe565b848452602085838501010111610808579089939291845b8481106107ef5750505001602001529138610374565b602083830182018101518583018201528c9650016107d9565b8980fd5b634e487b7160e01b8a52604160045260248afd5b8480fd5b60405162461bcd60e51b815260206004820152600e60248201526d6e6f2073657276657220726f6c6560901b6044820152606490fd5b90506020813d60201161088c575b81610875602093836109fe565b8101031261060c5761088690610a36565b38610316565b3d9150610868565b90506020813d6020116108be575b816108af602093836109fe565b8101031261060c5751386102ba565b3d91506108a2565b60405162461bcd60e51b81526020600482015260096024820152683130b210313abcb2b960b91b6044820152606490fd5b50346100a757806003193601126100a7576040517f00000000000000000000000000000000000000000000000000000000000000006001600160a01b03168152602090f35b50346100a757806003193601126100a7576040517f00000000000000000000000000000000000000000000000000000000000000006001600160a01b03168152602090f35b9050346101db57816003193601126101db577f00000000000000000000000000000000000000000000000000000000000000006001600160a01b03168152602090f35b156109cb57565b60405162461bcd60e51b815260206004820152600b60248201526a1b9bdd08189858dad95b9960aa1b6044820152606490fd5b90601f8019910116810190811067ffffffffffffffff821117610a2057604052565b634e487b7160e01b600052604160045260246000fd5b51908115158203610a4357565b600080fd5b519067ffffffffffffffff82168203610a4357565b519061ffff82168203610a435756fea2646970667358221220713b86ed293b690df0ddc957cb173c4d7dd3dbf049071d96abc5ec3f3073b0e964736f6c63430008140033","opcodes":"PUSH2 0x100 CALLVALUE PUSH2 0x180 JUMPI PUSH1 0x1F PUSH2 0xC52 CODESIZE DUP2 SWAP1 SUB SWAP2 DUP3 ADD PUSH1 0x1F NOT AND DUP4 ADD SWAP2 PUSH1 0x1 PUSH1 0x1 PUSH1 0x40 SHL SUB DUP4 GT DUP5 DUP5 LT OR PUSH2 0x185 JUMPI DUP1 DUP5 SWAP3 PUSH1 0x80 SWAP5 PUSH1 0x40 MSTORE DUP4 CODECOPY DUP2 ADD SUB SLT PUSH2 0x180 JUMPI PUSH2 0x48 DUP2 PUSH2 0x19B JUMP JUMPDEST SWAP1 PUSH2 0x55 PUSH1 0x20 DUP3 ADD PUSH2 0x19B JUMP JUMPDEST PUSH2 0x6D PUSH1 0x60 PUSH2 0x66 PUSH1 0x40 DUP6 ADD PUSH2 0x19B JUMP JUMPDEST SWAP4 ADD PUSH2 0x19B JUMP JUMPDEST SWAP3 PUSH1 0x1 PUSH1 0x1 PUSH1 0xA0 SHL SUB DUP1 DUP3 AND ISZERO ISZERO SWAP1 DUP2 PUSH2 0x174 JUMPI JUMPDEST DUP2 PUSH2 0x168 JUMPI JUMPDEST DUP2 PUSH2 0x15C JUMPI JUMPDEST POP ISZERO PUSH2 0x12C JUMPI PUSH1 0x80 MSTORE PUSH1 0xA0 MSTORE PUSH1 0xC0 MSTORE PUSH1 0xE0 MSTORE PUSH1 0x40 MLOAD PUSH2 0xAA2 SWAP1 DUP2 PUSH2 0x1B0 DUP3 CODECOPY PUSH1 0x80 MLOAD DUP2 DUP2 DUP2 PUSH2 0x13A ADD MSTORE DUP2 DUP2 PUSH2 0x3CD ADD MSTORE PUSH2 0x952 ADD MSTORE PUSH1 0xA0 MLOAD DUP2 DUP2 DUP2 PUSH1 0x78 ADD MSTORE DUP2 DUP2 PUSH2 0x102 ADD MSTORE DUP2 DUP2 PUSH2 0x282 ADD MSTORE DUP2 DUP2 PUSH2 0x2DE ADD MSTORE DUP2 DUP2 PUSH2 0x339 ADD MSTORE DUP2 DUP2 PUSH2 0x421 ADD MSTORE DUP2 DUP2 PUSH2 0x473 ADD MSTORE DUP2 DUP2 PUSH2 0x4DC ADD MSTORE PUSH2 0x548 ADD MSTORE PUSH1 0xC0 MLOAD DUP2 DUP2 DUP2 PUSH2 0x398 ADD MSTORE PUSH2 0x90D ADD MSTORE PUSH1 0xE0 MLOAD DUP2 DUP2 DUP2 PUSH1 0xCC ADD MSTORE DUP2 DUP2 PUSH2 0x230 ADD MSTORE PUSH2 0x995 ADD MSTORE RETURN JUMPDEST PUSH1 0x40 MLOAD PUSH3 0x461BCD PUSH1 0xE5 SHL DUP2 MSTORE PUSH1 0x20 PUSH1 0x4 DUP3 ADD MSTORE PUSH1 0x8 PUSH1 0x24 DUP3 ADD MSTORE PUSH8 0x3130B21030B23239 PUSH1 0xC1 SHL PUSH1 0x44 DUP3 ADD MSTORE PUSH1 0x64 SWAP1 REVERT JUMPDEST SWAP1 POP DUP5 AND ISZERO ISZERO CODESIZE PUSH2 0x8E JUMP JUMPDEST DUP5 DUP2 AND ISZERO ISZERO SWAP2 POP PUSH2 0x88 JUMP JUMPDEST DUP4 DUP2 AND ISZERO ISZERO SWAP2 POP PUSH2 0x82 JUMP JUMPDEST PUSH1 0x0 DUP1 REVERT JUMPDEST PUSH4 0x4E487B71 PUSH1 0xE0 SHL PUSH1 0x0 MSTORE PUSH1 0x41 PUSH1 0x4 MSTORE PUSH1 0x24 PUSH1 0x0 REVERT JUMPDEST MLOAD SWAP1 PUSH1 0x1 PUSH1 0x1 PUSH1 0xA0 SHL SUB DUP3 AND DUP3 SUB PUSH2 0x180 JUMPI JUMP INVALID PUSH1 0x80 DUP1 PUSH1 0x40 MSTORE PUSH1 0x4 CALLDATASIZE LT ISZERO PUSH2 0x13 JUMPI PUSH1 0x0 DUP1 REVERT JUMPDEST PUSH1 0x0 SWAP1 DUP2 CALLDATALOAD PUSH1 0xE0 SHR SWAP1 DUP2 PUSH4 0x1B41073F EQ PUSH2 0x981 JUMPI POP DUP1 PUSH4 0x2F48AB7D EQ PUSH2 0x93C JUMPI DUP1 PUSH4 0x61D027B3 EQ PUSH2 0x8F7 JUMPI DUP1 PUSH4 0x67785D48 EQ PUSH2 0x1F2 JUMPI DUP1 PUSH4 0x739E9C79 EQ PUSH2 0xAA JUMPI PUSH4 0xBF2E233E EQ PUSH2 0x63 JUMPI PUSH1 0x0 DUP1 REVERT JUMPDEST CALLVALUE PUSH2 0xA7 JUMPI DUP1 PUSH1 0x3 NOT CALLDATASIZE ADD SLT PUSH2 0xA7 JUMPI PUSH1 0x40 MLOAD PUSH32 0x0 PUSH1 0x1 PUSH1 0x1 PUSH1 0xA0 SHL SUB AND DUP2 MSTORE PUSH1 0x20 SWAP1 RETURN JUMPDEST DUP1 REVERT JUMPDEST POP CALLVALUE PUSH2 0xA7 JUMPI DUP1 PUSH1 0x3 NOT CALLDATASIZE ADD SLT PUSH2 0xA7 JUMPI DUP1 PUSH1 0x20 PUSH1 0x1 PUSH1 0x1 PUSH1 0xA0 SHL SUB PUSH2 0xF3 CALLER PUSH32 0x0 DUP4 AND EQ PUSH2 0x9C4 JUMP JUMPDEST PUSH1 0x40 MLOAD PUSH4 0x95EA7B3 PUSH1 0xE0 SHL DUP2 MSTORE PUSH32 0x0 DUP3 AND PUSH1 0x4 DUP3 ADD MSTORE PUSH1 0x0 NOT PUSH1 0x24 DUP3 ADD MSTORE SWAP3 DUP4 SWAP2 PUSH1 0x44 SWAP2 DUP4 SWAP2 PUSH32 0x0 AND GAS CALL SWAP1 DUP2 ISZERO PUSH2 0x1E7 JUMPI DUP3 SWAP2 PUSH2 0x1AA JUMPI JUMPDEST POP ISZERO PUSH2 0x173 JUMPI DUP1 RETURN JUMPDEST PUSH1 0x40 MLOAD PUSH3 0x461BCD PUSH1 0xE5 SHL DUP2 MSTORE PUSH1 0x20 PUSH1 0x4 DUP3 ADD MSTORE PUSH1 0xF PUSH1 0x24 DUP3 ADD MSTORE PUSH15 0x1C1C99585C1C1C9BDD994819985A5B PUSH1 0x8A SHL PUSH1 0x44 DUP3 ADD MSTORE PUSH1 0x64 SWAP1 REVERT JUMPDEST SWAP1 POP PUSH1 0x20 DUP2 RETURNDATASIZE DUP3 GT PUSH2 0x1DF JUMPI JUMPDEST DUP2 PUSH2 0x1C4 PUSH1 0x20 SWAP4 DUP4 PUSH2 0x9FE JUMP JUMPDEST DUP2 ADD SUB SLT PUSH2 0x1DB JUMPI PUSH2 0x1D5 SWAP1 PUSH2 0xA36 JUMP JUMPDEST CODESIZE PUSH2 0x16A JUMP JUMPDEST POP DUP1 REVERT JUMPDEST RETURNDATASIZE SWAP2 POP PUSH2 0x1B7 JUMP JUMPDEST PUSH1 0x40 MLOAD RETURNDATASIZE DUP5 DUP3 RETURNDATACOPY RETURNDATASIZE SWAP1 REVERT JUMPDEST POP CALLVALUE PUSH2 0xA7 JUMPI PUSH1 0x60 CALLDATASIZE PUSH1 0x3 NOT ADD SLT PUSH2 0xA7 JUMPI PUSH1 0x4 CALLDATALOAD PUSH1 0x1 PUSH1 0x1 PUSH1 0xA0 SHL SUB DUP2 AND DUP2 SUB PUSH2 0x1DB JUMPI PUSH1 0x44 CALLDATALOAD PUSH1 0x1 PUSH1 0x1 PUSH1 0xA0 SHL SUB DUP2 AND DUP2 SUB PUSH2 0x535 JUMPI PUSH2 0x25E CALLER PUSH32 0x0 PUSH1 0x1 PUSH1 0x1 PUSH1 0xA0 SHL SUB AND EQ PUSH2 0x9C4 JUMP JUMPDEST PUSH1 0x1 PUSH1 0x1 PUSH1 0xA0 SHL SUB DUP3 AND ISZERO PUSH2 0x8C6 JUMPI PUSH1 0x40 MLOAD PUSH4 0x633CA0D PUSH1 0xE2 SHL DUP2 MSTORE PUSH1 0x20 DUP2 PUSH1 0x4 DUP2 PUSH32 0x0 PUSH1 0x1 PUSH1 0x1 PUSH1 0xA0 SHL SUB AND GAS STATICCALL SWAP1 DUP2 ISZERO PUSH2 0x618 JUMPI DUP5 SWAP2 PUSH2 0x894 JUMPI JUMPDEST POP PUSH1 0x40 MLOAD PUSH4 0x24745215 PUSH1 0xE2 SHL DUP2 MSTORE PUSH1 0x4 DUP2 ADD SWAP2 SWAP1 SWAP2 MSTORE ADDRESS PUSH1 0x24 DUP3 ADD MSTORE PUSH1 0x20 DUP2 PUSH1 0x44 DUP2 PUSH32 0x0 PUSH1 0x1 PUSH1 0x1 PUSH1 0xA0 SHL SUB AND GAS STATICCALL SWAP1 DUP2 ISZERO PUSH2 0x618 JUMPI DUP5 SWAP2 PUSH2 0x85A JUMPI JUMPDEST POP ISZERO PUSH2 0x824 JUMPI PUSH1 0x40 MLOAD PUSH4 0x1733BFC3 PUSH1 0xE3 SHL DUP2 MSTORE PUSH1 0x24 DUP1 CALLDATALOAD PUSH1 0x4 DUP4 ADD MSTORE DUP5 SWAP1 DUP3 SWAP1 DUP2 PUSH32 0x0 PUSH1 0x1 PUSH1 0x1 PUSH1 0xA0 SHL SUB AND GAS STATICCALL DUP1 ISZERO PUSH2 0x618 JUMPI DUP5 SWAP2 DUP6 SWAP1 DUP7 SWAP3 PUSH2 0x70A JUMPI JUMPDEST POP DUP2 PUSH2 0x702 JUMPI JUMPDEST POP ISZERO PUSH2 0x6CF JUMPI PUSH1 0x40 MLOAD PUSH4 0x23B872DD PUSH1 0xE0 SHL DUP2 MSTORE PUSH1 0x1 PUSH1 0x1 PUSH1 0xA0 SHL SUB PUSH32 0x0 DUP2 AND PUSH1 0x4 DUP4 ADD MSTORE ADDRESS PUSH1 0x24 DUP4 ADD MSTORE PUSH1 0x44 DUP3 ADD DUP4 SWAP1 MSTORE PUSH32 0x0 AND SWAP1 PUSH1 0x20 DUP2 PUSH1 0x64 DUP2 DUP10 DUP7 GAS CALL SWAP1 DUP2 ISZERO PUSH2 0x6C4 JUMPI DUP7 SWAP2 PUSH2 0x686 JUMPI JUMPDEST POP ISZERO PUSH2 0x655 JUMPI PUSH1 0x40 MLOAD PUSH4 0x6EB1769F PUSH1 0xE1 SHL DUP2 MSTORE ADDRESS PUSH1 0x4 DUP3 ADD MSTORE PUSH32 0x0 PUSH1 0x1 PUSH1 0x1 PUSH1 0xA0 SHL SUB AND PUSH1 0x24 DUP3 ADD MSTORE DUP6 SWAP3 SWAP1 PUSH1 0x20 DUP2 PUSH1 0x44 DUP2 DUP7 GAS STATICCALL SWAP1 DUP2 ISZERO PUSH2 0x618 JUMPI DUP5 SWAP2 PUSH2 0x623 JUMPI JUMPDEST POP LT PUSH2 0x539 JUMPI JUMPDEST POP POP PUSH32 0x0 PUSH1 0x1 PUSH1 0x1 PUSH1 0xA0 SHL SUB AND EXTCODESIZE ISZERO PUSH2 0x535 JUMPI PUSH1 0x40 MLOAD PUSH4 0x30769AEF PUSH1 0xE2 SHL DUP2 MSTORE PUSH1 0x1 PUSH1 0x1 PUSH1 0xA0 SHL SUB SWAP3 DUP4 AND PUSH1 0x4 DUP3 ADD MSTORE PUSH1 0x24 DUP1 CALLDATALOAD SWAP1 DUP3 ADD MSTORE SWAP1 DUP3 AND PUSH1 0x44 DUP3 ADD MSTORE SWAP1 DUP3 SWAP1 DUP3 SWAP1 PUSH1 0x64 SWAP1 DUP3 SWAP1 DUP5 SWAP1 PUSH32 0x0 AND GAS CALL DUP1 ISZERO PUSH2 0x1E7 JUMPI PUSH2 0x50C JUMPI POP DUP1 RETURN JUMPDEST PUSH8 0xFFFFFFFFFFFFFFFF DUP2 GT PUSH2 0x521 JUMPI PUSH1 0x40 MSTORE DUP1 RETURN JUMPDEST PUSH4 0x4E487B71 PUSH1 0xE0 SHL DUP3 MSTORE PUSH1 0x41 PUSH1 0x4 MSTORE PUSH1 0x24 DUP3 REVERT JUMPDEST DUP3 DUP1 REVERT JUMPDEST PUSH1 0x40 MLOAD PUSH4 0x95EA7B3 PUSH1 0xE0 SHL DUP2 MSTORE PUSH32 0x0 PUSH1 0x1 PUSH1 0x1 PUSH1 0xA0 SHL SUB AND PUSH1 0x4 DUP3 ADD MSTORE PUSH1 0x0 NOT PUSH1 0x24 DUP3 ADD MSTORE SWAP2 PUSH1 0x20 SWAP2 DUP4 SWAP2 PUSH1 0x44 SWAP2 DUP4 SWAP2 SWAP1 GAS CALL SWAP1 DUP2 ISZERO PUSH2 0x618 JUMPI DUP5 SWAP2 PUSH2 0x5DA JUMPI JUMPDEST POP ISZERO PUSH2 0x5A6 JUMPI DUP3 CODESIZE PUSH2 0x46F JUMP JUMPDEST PUSH1 0x40 MLOAD PUSH3 0x461BCD PUSH1 0xE5 SHL DUP2 MSTORE PUSH1 0x20 PUSH1 0x4 DUP3 ADD MSTORE PUSH1 0xC PUSH1 0x24 DUP3 ADD MSTORE PUSH12 0x185C1C1C9BDD994819985A5B PUSH1 0xA2 SHL PUSH1 0x44 DUP3 ADD MSTORE PUSH1 0x64 SWAP1 REVERT JUMPDEST SWAP1 POP PUSH1 0x20 DUP2 RETURNDATASIZE PUSH1 0x20 GT PUSH2 0x610 JUMPI JUMPDEST DUP2 PUSH2 0x5F5 PUSH1 0x20 SWAP4 DUP4 PUSH2 0x9FE JUMP JUMPDEST DUP2 ADD SUB SLT PUSH2 0x60C JUMPI PUSH2 0x606 SWAP1 PUSH2 0xA36 JUMP JUMPDEST CODESIZE PUSH2 0x599 JUMP JUMPDEST DUP4 DUP1 REVERT JUMPDEST RETURNDATASIZE SWAP2 POP PUSH2 0x5E8 JUMP JUMPDEST PUSH1 0x40 MLOAD RETURNDATASIZE DUP7 DUP3 RETURNDATACOPY RETURNDATASIZE SWAP1 REVERT JUMPDEST SWAP1 POP PUSH1 0x20 DUP2 RETURNDATASIZE PUSH1 0x20 GT PUSH2 0x64D JUMPI JUMPDEST DUP2 PUSH2 0x63E PUSH1 0x20 SWAP4 DUP4 PUSH2 0x9FE JUMP JUMPDEST DUP2 ADD SUB SLT PUSH2 0x60C JUMPI MLOAD CODESIZE PUSH2 0x468 JUMP JUMPDEST RETURNDATASIZE SWAP2 POP PUSH2 0x631 JUMP JUMPDEST PUSH1 0x40 MLOAD PUSH3 0x461BCD PUSH1 0xE5 SHL DUP2 MSTORE PUSH1 0x20 PUSH1 0x4 DUP3 ADD MSTORE PUSH1 0x9 PUSH1 0x24 DUP3 ADD MSTORE PUSH9 0x1C1D5B1B0819985A5B PUSH1 0xBA SHL PUSH1 0x44 DUP3 ADD MSTORE PUSH1 0x64 SWAP1 REVERT JUMPDEST SWAP1 POP PUSH1 0x20 DUP2 RETURNDATASIZE PUSH1 0x20 GT PUSH2 0x6BC JUMPI JUMPDEST DUP2 PUSH2 0x6A1 PUSH1 0x20 SWAP4 DUP4 PUSH2 0x9FE JUMP JUMPDEST DUP2 ADD SUB SLT PUSH2 0x6B8 JUMPI PUSH2 0x6B2 SWAP1 PUSH2 0xA36 JUMP JUMPDEST CODESIZE PUSH2 0x406 JUMP JUMPDEST DUP6 DUP1 REVERT JUMPDEST RETURNDATASIZE SWAP2 POP PUSH2 0x694 JUMP JUMPDEST PUSH1 0x40 MLOAD RETURNDATASIZE DUP9 DUP3 RETURNDATACOPY RETURNDATASIZE SWAP1 REVERT JUMPDEST PUSH1 0x40 MLOAD PUSH3 0x461BCD PUSH1 0xE5 SHL DUP2 MSTORE PUSH1 0x20 PUSH1 0x4 DUP3 ADD MSTORE PUSH1 0xB PUSH1 0x24 DUP3 ADD MSTORE PUSH11 0x626164207061636B616765 PUSH1 0xA8 SHL PUSH1 0x44 DUP3 ADD MSTORE PUSH1 0x64 SWAP1 REVERT JUMPDEST SWAP1 POP CODESIZE PUSH2 0x37B JUMP JUMPDEST SWAP3 POP POP POP RETURNDATASIZE DUP1 DUP6 DUP4 RETURNDATACOPY PUSH2 0x71D DUP2 DUP4 PUSH2 0x9FE JUMP JUMPDEST DUP2 ADD PUSH2 0x120 DUP3 DUP3 SUB SLT PUSH2 0x820 JUMPI DUP2 MLOAD PUSH2 0x738 PUSH1 0x40 DUP5 ADD PUSH2 0xA48 JUMP JUMPDEST POP PUSH2 0x745 PUSH1 0x60 DUP5 ADD PUSH2 0xA48 JUMP JUMPDEST POP PUSH2 0x752 PUSH1 0x80 DUP5 ADD PUSH2 0xA5D JUMP JUMPDEST POP PUSH2 0x75F PUSH1 0xA0 DUP5 ADD PUSH2 0xA5D JUMP JUMPDEST POP PUSH2 0x76C PUSH1 0xC0 DUP5 ADD PUSH2 0xA36 JUMP JUMPDEST SWAP3 PUSH2 0x779 PUSH1 0xE0 DUP3 ADD PUSH2 0xA36 JUMP JUMPDEST SWAP3 PUSH2 0x100 DUP3 ADD MLOAD SWAP2 PUSH8 0xFFFFFFFFFFFFFFFF SWAP3 DUP4 DUP2 GT PUSH2 0x808 JUMPI DUP3 PUSH1 0x1F DUP3 DUP5 ADD ADD SLT ISZERO PUSH2 0x808 JUMPI DUP1 DUP3 ADD MLOAD SWAP4 DUP5 GT PUSH2 0x80C JUMPI PUSH1 0x40 MLOAD SWAP3 PUSH2 0x7C2 PUSH1 0x1F DUP7 ADD PUSH1 0x1F NOT AND PUSH1 0x20 ADD DUP6 PUSH2 0x9FE JUMP JUMPDEST DUP5 DUP5 MSTORE PUSH1 0x20 DUP6 DUP4 DUP6 ADD ADD ADD GT PUSH2 0x808 JUMPI SWAP1 DUP10 SWAP4 SWAP3 SWAP2 DUP5 JUMPDEST DUP5 DUP2 LT PUSH2 0x7EF JUMPI POP POP POP ADD PUSH1 0x20 ADD MSTORE SWAP2 CODESIZE PUSH2 0x374 JUMP JUMPDEST PUSH1 0x20 DUP4 DUP4 ADD DUP3 ADD DUP2 ADD MLOAD DUP6 DUP4 ADD DUP3 ADD MSTORE DUP13 SWAP7 POP ADD PUSH2 0x7D9 JUMP JUMPDEST DUP10 DUP1 REVERT JUMPDEST PUSH4 0x4E487B71 PUSH1 0xE0 SHL DUP11 MSTORE PUSH1 0x41 PUSH1 0x4 MSTORE PUSH1 0x24 DUP11 REVERT JUMPDEST DUP5 DUP1 REVERT JUMPDEST PUSH1 0x40 MLOAD PUSH3 0x461BCD PUSH1 0xE5 SHL DUP2 MSTORE PUSH1 0x20 PUSH1 0x4 DUP3 ADD MSTORE PUSH1 0xE PUSH1 0x24 DUP3 ADD MSTORE PUSH14 0x6E6F2073657276657220726F6C65 PUSH1 0x90 SHL PUSH1 0x44 DUP3 ADD MSTORE PUSH1 0x64 SWAP1 REVERT JUMPDEST SWAP1 POP PUSH1 0x20 DUP2 RETURNDATASIZE PUSH1 0x20 GT PUSH2 0x88C JUMPI JUMPDEST DUP2 PUSH2 0x875 PUSH1 0x20 SWAP4 DUP4 PUSH2 0x9FE JUMP JUMPDEST DUP2 ADD SUB SLT PUSH2 0x60C JUMPI PUSH2 0x886 SWAP1 PUSH2 0xA36 JUMP JUMPDEST CODESIZE PUSH2 0x316 JUMP JUMPDEST RETURNDATASIZE SWAP2 POP PUSH2 0x868 JUMP JUMPDEST SWAP1 POP PUSH1 0x20 DUP2 RETURNDATASIZE PUSH1 0x20 GT PUSH2 0x8BE JUMPI JUMPDEST DUP2 PUSH2 0x8AF PUSH1 0x20 SWAP4 DUP4 PUSH2 0x9FE JUMP JUMPDEST DUP2 ADD SUB SLT PUSH2 0x60C JUMPI MLOAD CODESIZE PUSH2 0x2BA JUMP JUMPDEST RETURNDATASIZE SWAP2 POP PUSH2 0x8A2 JUMP JUMPDEST PUSH1 0x40 MLOAD PUSH3 0x461BCD PUSH1 0xE5 SHL DUP2 MSTORE PUSH1 0x20 PUSH1 0x4 DUP3 ADD MSTORE PUSH1 0x9 PUSH1 0x24 DUP3 ADD MSTORE PUSH9 0x3130B210313ABCB2B9 PUSH1 0xB9 SHL PUSH1 0x44 DUP3 ADD MSTORE PUSH1 0x64 SWAP1 REVERT JUMPDEST POP CALLVALUE PUSH2 0xA7 JUMPI DUP1 PUSH1 0x3 NOT CALLDATASIZE ADD SLT PUSH2 0xA7 JUMPI PUSH1 0x40 MLOAD PUSH32 0x0 PUSH1 0x1 PUSH1 0x1 PUSH1 0xA0 SHL SUB AND DUP2 MSTORE PUSH1 0x20 SWAP1 RETURN JUMPDEST POP CALLVALUE PUSH2 0xA7 JUMPI DUP1 PUSH1 0x3 NOT CALLDATASIZE ADD SLT PUSH2 0xA7 JUMPI PUSH1 0x40 MLOAD PUSH32 0x0 PUSH1 0x1 PUSH1 0x1 PUSH1 0xA0 SHL SUB AND DUP2 MSTORE PUSH1 0x20 SWAP1 RETURN JUMPDEST SWAP1 POP CALLVALUE PUSH2 0x1DB JUMPI DUP2 PUSH1 0x3 NOT CALLDATASIZE ADD SLT PUSH2 0x1DB JUMPI PUSH32 0x0 PUSH1 0x1 PUSH1 0x1 PUSH1 0xA0 SHL SUB AND DUP2 MSTORE PUSH1 0x20 SWAP1 RETURN JUMPDEST ISZERO PUSH2 0x9CB JUMPI JUMP JUMPDEST PUSH1 0x40 MLOAD PUSH3 0x461BCD PUSH1 0xE5 SHL DUP2 MSTORE PUSH1 0x20 PUSH1 0x4 DUP3 ADD MSTORE PUSH1 0xB PUSH1 0x24 DUP3 ADD MSTORE PUSH11 0x1B9BDD08189858DAD95B99 PUSH1 0xAA SHL PUSH1 0x44 DUP3 ADD MSTORE PUSH1 0x64 SWAP1 REVERT JUMPDEST SWAP1 PUSH1 0x1F DUP1 NOT SWAP2 ADD AND DUP2 ADD SWAP1 DUP2 LT PUSH8 0xFFFFFFFFFFFFFFFF DUP3 GT OR PUSH2 0xA20 JUMPI PUSH1 0x40 MSTORE JUMP JUMPDEST PUSH4 0x4E487B71 PUSH1 0xE0 SHL PUSH1 0x0 MSTORE PUSH1 0x41 PUSH1 0x4 MSTORE PUSH1 0x24 PUSH1 0x0 REVERT JUMPDEST MLOAD SWAP1 DUP2 ISZERO ISZERO DUP3 SUB PUSH2 0xA43 JUMPI JUMP JUMPDEST PUSH1 0x0 DUP1 REVERT JUMPDEST MLOAD SWAP1 PUSH8 0xFFFFFFFFFFFFFFFF DUP3 AND DUP3 SUB PUSH2 0xA43 JUMPI JUMP JUMPDEST MLOAD SWAP1 PUSH2 0xFFFF DUP3 AND DUP3 SUB PUSH2 0xA43 JUMPI JUMP INVALID LOG2 PUSH5 0x6970667358 0x22 SLT KECCAK256 PUSH18 0x3B86ED293B690DF0DDC957CB173C4D7DD3DB CREATE 0x49 SMOD SAR SWAP7 0xAB 0xC5 0xEC EXTCODEHASH ADDRESS PUSH20 0xB0E964736F6C6343000814003300000000000000 "},"methodIdentifiers":{"backendEOA()":"1b41073f","packageManager()":"bf2e233e","preapprove()":"739e9c79","purchaseUsingTreasury(address,uint256,address)":"67785d48","treasury()":"61d027b3","usdt()":"2f48ab7d"}},"storageLayout":{"storage":[],"types":null}}}}