{"contracts/MpesaTreasuryAdapterV3.sol":{"MpesaTreasuryAdapterV3":{"abi":[{"inputs":[{"internalType":"address","name":"_usdt","type":"address"},{"internalType":"address","name":"_pm","type":"address"},{"internalType":"address","name":"_treasury","type":"address"},{"internalType":"address","name":"_backend","type":"address"}],"stateMutability":"nonpayable","type":"constructor"},{"inputs":[],"name":"backendEOA","outputs":[{"internalType":"address","name":"","type":"address"}],"stateMutability":"view","type":"function"},{"inputs":[],"name":"packageManager","outputs":[{"internalType":"address","name":"","type":"address"}],"stateMutability":"view","type":"function"},{"inputs":[],"name":"preapprove","outputs":[],"stateMutability":"nonpayable","type":"function"},{"inputs":[{"internalType":"address","name":"buyer","type":"address"},{"internalType":"uint256","name":"packageId","type":"uint256"},{"internalType":"address","name":"referrer","type":"address"}],"name":"purchaseUsingTreasury","outputs":[],"stateMutability":"nonpayable","type":"function"},{"inputs":[],"name":"treasury","outputs":[{"internalType":"address","name":"","type":"address"}],"stateMutability":"view","type":"function"},{"inputs":[],"name":"usdt","outputs":[{"internalType":"address","name":"","type":"address"}],"stateMutability":"view","type":"function"}],"evm":{"bytecode":{"linkReferences":{},"object":"6101003461018057601f610cd838819003918201601f19168301916001600160401b0383118484101761018557808492608094604052833981010312610180576100488161019b565b906100556020820161019b565b61006d60606100666040850161019b565b930161019b565b926001600160a01b0380821615159081610174575b81610168575b8161015c575b501561012c5760805260a05260c05260e052604051610b2890816101b0823960805181818161013a015281816103cf01526109d8015260a05181818160780152818161010201528181610282015281816102de015281816103390152818161042601528181610475015281816104de015261054a015260c0518181816103980152610993015260e05181818160cc015281816102300152610a1b0152f35b60405162461bcd60e51b81526020600482015260086024820152673130b21030b2323960c11b6044820152606490fd5b9050841615153861008e565b84811615159150610088565b83811615159150610082565b600080fd5b634e487b7160e01b600052604160045260246000fd5b51906001600160a01b03821682036101805756fe608080604052600436101561001357600080fd5b600090813560e01c9081631b41073f14610a07575080632f48ab7d146109c257806361d027b31461097d57806367785d48146101f2578063739e9c79146100aa5763bf2e233e1461006357600080fd5b346100a757806003193601126100a7576040517f00000000000000000000000000000000000000000000000000000000000000006001600160a01b03168152602090f35b80fd5b50346100a757806003193601126100a7578060206001600160a01b036100f3337f0000000000000000000000000000000000000000000000000000000000000000831614610a4a565b60405163095ea7b360e01b81527f000000000000000000000000000000000000000000000000000000000000000082166004820152600019602482015292839160449183917f0000000000000000000000000000000000000000000000000000000000000000165af19081156101e75782916101aa575b50156101735780f35b60405162461bcd60e51b815260206004820152600f60248201526e1c1c99585c1c1c9bdd994819985a5b608a1b6044820152606490fd5b90506020813d82116101df575b816101c460209383610a84565b810103126101db576101d590610abc565b3861016a565b5080fd5b3d91506101b7565b6040513d84823e3d90fd5b50346100a75760603660031901126100a7576004356001600160a01b03811681036101db576044356001600160a01b03811681036105375761025e337f00000000000000000000000000000000000000000000000000000000000000006001600160a01b031614610a4a565b6001600160a01b0382161561094c57604051630633ca0d60e21b81526020816004817f00000000000000000000000000000000000000000000000000000000000000006001600160a01b03165afa90811561061a57849161091a575b50604051632474521560e21b815260048101919091523060248201526020816044817f00000000000000000000000000000000000000000000000000000000000000006001600160a01b03165afa90811561061a5784916108e0575b50156108aa57604051631733bfc360e31b815260248035600483015284908290817f00000000000000000000000000000000000000000000000000000000000000006001600160a01b03165afa801561061a57849185908692610790575b5081610788575b5015610755576040516323b872dd60e01b81526001600160a01b037f0000000000000000000000000000000000000000000000000000000000000000811660048301523060248301526044820183905285927f00000000000000000000000000000000000000000000000000000000000000009091169160208160648187875af190811561061a57849161071b575b5015610657575b604051636eb1769f60e11b81523060048201527f00000000000000000000000000000000000000000000000000000000000000006001600160a01b03166024820152602081604481865afa90811561061a578491610625575b501061053b575b50507f00000000000000000000000000000000000000000000000000000000000000006001600160a01b03163b15610537576040516330769aef60e21b81526001600160a01b039283166004820152602480359082015290821660448201529082908290606490829084907f0000000000000000000000000000000000000000000000000000000000000000165af180156101e75761050e575080f35b67ffffffffffffffff81116105235760405280f35b634e487b7160e01b82526041600452602482fd5b8280fd5b60405163095ea7b360e01b81527f00000000000000000000000000000000000000000000000000000000000000006001600160a01b0316600482015260001960248201529160209183916044918391905af190811561061a5784916105dc575b50156105a8578238610471565b60405162461bcd60e51b815260206004820152600c60248201526b185c1c1c9bdd994819985a5b60a21b6044820152606490fd5b90506020813d602011610612575b816105f760209383610a84565b8101031261060e5761060890610abc565b3861059b565b8380fd5b3d91506105ea565b6040513d86823e3d90fd5b90506020813d60201161064f575b8161064060209383610a84565b8101031261060e57513861046a565b3d9150610633565b6040516370a0823160e01b8152306004820152909250602081602481855afa801561071057839187916106d7575b5010610692578491610411565b60405162461bcd60e51b815260206004820152601a60248201527f696e73756666696369656e7420616461707465722066756e64730000000000006044820152606490fd5b9150506020813d602011610708575b816106f360209383610a84565b810103126107045782905138610685565b8580fd5b3d91506106e6565b6040513d88823e3d90fd5b90506020813d60201161074d575b8161073660209383610a84565b8101031261060e5761074790610abc565b3861040a565b3d9150610729565b60405162461bcd60e51b815260206004820152600b60248201526a626164207061636b61676560a81b6044820152606490fd5b90503861037b565b925050503d8085833e6107a38183610a84565b8101610120828203126108a65781516107be60408401610ace565b506107cb60608401610ace565b506107d860808401610ae3565b506107e560a08401610ae3565b506107f260c08401610abc565b926107ff60e08201610abc565b926101008201519167ffffffffffffffff9283811161088e5782601f82840101121561088e57808201519384116108925760405192610848601f8601601f191660200185610a84565b84845260208583850101011161088e579089939291845b8481106108755750505001602001529138610374565b602083830182018101518583018201528c96500161085f565b8980fd5b634e487b7160e01b8a52604160045260248afd5b8480fd5b60405162461bcd60e51b815260206004820152600e60248201526d6e6f2073657276657220726f6c6560901b6044820152606490fd5b90506020813d602011610912575b816108fb60209383610a84565b8101031261060e5761090c90610abc565b38610316565b3d91506108ee565b90506020813d602011610944575b8161093560209383610a84565b8101031261060e5751386102ba565b3d9150610928565b60405162461bcd60e51b81526020600482015260096024820152683130b210313abcb2b960b91b6044820152606490fd5b50346100a757806003193601126100a7576040517f00000000000000000000000000000000000000000000000000000000000000006001600160a01b03168152602090f35b50346100a757806003193601126100a7576040517f00000000000000000000000000000000000000000000000000000000000000006001600160a01b03168152602090f35b9050346101db57816003193601126101db577f00000000000000000000000000000000000000000000000000000000000000006001600160a01b03168152602090f35b15610a5157565b60405162461bcd60e51b815260206004820152600b60248201526a1b9bdd08189858dad95b9960aa1b6044820152606490fd5b90601f8019910116810190811067ffffffffffffffff821117610aa657604052565b634e487b7160e01b600052604160045260246000fd5b51908115158203610ac957565b600080fd5b519067ffffffffffffffff82168203610ac957565b519061ffff82168203610ac95756fea2646970667358221220f8e75b770aaba933dcd634877b8b47905258c75d2a97e83b4a21c8429d8f640c64736f6c63430008140033","opcodes":"PUSH2 0x100 CALLVALUE PUSH2 0x180 JUMPI PUSH1 0x1F PUSH2 0xCD8 CODESIZE DUP2 SWAP1 SUB SWAP2 DUP3 ADD PUSH1 0x1F NOT AND DUP4 ADD SWAP2 PUSH1 0x1 PUSH1 0x1 PUSH1 0x40 SHL SUB DUP4 GT DUP5 DUP5 LT OR PUSH2 0x185 JUMPI DUP1 DUP5 SWAP3 PUSH1 0x80 SWAP5 PUSH1 0x40 MSTORE DUP4 CODECOPY DUP2 ADD SUB SLT PUSH2 0x180 JUMPI PUSH2 0x48 DUP2 PUSH2 0x19B JUMP JUMPDEST SWAP1 PUSH2 0x55 PUSH1 0x20 DUP3 ADD PUSH2 0x19B JUMP JUMPDEST PUSH2 0x6D PUSH1 0x60 PUSH2 0x66 PUSH1 0x40 DUP6 ADD PUSH2 0x19B JUMP JUMPDEST SWAP4 ADD PUSH2 0x19B JUMP JUMPDEST SWAP3 PUSH1 0x1 PUSH1 0x1 PUSH1 0xA0 SHL SUB DUP1 DUP3 AND ISZERO ISZERO SWAP1 DUP2 PUSH2 0x174 JUMPI JUMPDEST DUP2 PUSH2 0x168 JUMPI JUMPDEST DUP2 PUSH2 0x15C JUMPI JUMPDEST POP ISZERO PUSH2 0x12C JUMPI PUSH1 0x80 MSTORE PUSH1 0xA0 MSTORE PUSH1 0xC0 MSTORE PUSH1 0xE0 MSTORE PUSH1 0x40 MLOAD PUSH2 0xB28 SWAP1 DUP2 PUSH2 0x1B0 DUP3 CODECOPY PUSH1 0x80 MLOAD DUP2 DUP2 DUP2 PUSH2 0x13A ADD MSTORE DUP2 DUP2 PUSH2 0x3CF ADD MSTORE PUSH2 0x9D8 ADD MSTORE PUSH1 0xA0 MLOAD DUP2 DUP2 DUP2 PUSH1 0x78 ADD MSTORE DUP2 DUP2 PUSH2 0x102 ADD MSTORE DUP2 DUP2 PUSH2 0x282 ADD MSTORE DUP2 DUP2 PUSH2 0x2DE ADD MSTORE DUP2 DUP2 PUSH2 0x339 ADD MSTORE DUP2 DUP2 PUSH2 0x426 ADD MSTORE DUP2 DUP2 PUSH2 0x475 ADD MSTORE DUP2 DUP2 PUSH2 0x4DE ADD MSTORE PUSH2 0x54A ADD MSTORE PUSH1 0xC0 MLOAD DUP2 DUP2 DUP2 PUSH2 0x398 ADD MSTORE PUSH2 0x993 ADD MSTORE PUSH1 0xE0 MLOAD DUP2 DUP2 DUP2 PUSH1 0xCC ADD MSTORE DUP2 DUP2 PUSH2 0x230 ADD MSTORE PUSH2 0xA1B ADD MSTORE RETURN JUMPDEST PUSH1 0x40 MLOAD PUSH3 0x461BCD PUSH1 0xE5 SHL DUP2 MSTORE PUSH1 0x20 PUSH1 0x4 DUP3 ADD MSTORE PUSH1 0x8 PUSH1 0x24 DUP3 ADD MSTORE PUSH8 0x3130B21030B23239 PUSH1 0xC1 SHL PUSH1 0x44 DUP3 ADD MSTORE PUSH1 0x64 SWAP1 REVERT JUMPDEST SWAP1 POP DUP5 AND ISZERO ISZERO CODESIZE PUSH2 0x8E JUMP JUMPDEST DUP5 DUP2 AND ISZERO ISZERO SWAP2 POP PUSH2 0x88 JUMP JUMPDEST DUP4 DUP2 AND ISZERO ISZERO SWAP2 POP PUSH2 0x82 JUMP JUMPDEST PUSH1 0x0 DUP1 REVERT JUMPDEST PUSH4 0x4E487B71 PUSH1 0xE0 SHL PUSH1 0x0 MSTORE PUSH1 0x41 PUSH1 0x4 MSTORE PUSH1 0x24 PUSH1 0x0 REVERT JUMPDEST MLOAD SWAP1 PUSH1 0x1 PUSH1 0x1 PUSH1 0xA0 SHL SUB DUP3 AND DUP3 SUB PUSH2 0x180 JUMPI JUMP INVALID PUSH1 0x80 DUP1 PUSH1 0x40 MSTORE PUSH1 0x4 CALLDATASIZE LT ISZERO PUSH2 0x13 JUMPI PUSH1 0x0 DUP1 REVERT JUMPDEST PUSH1 0x0 SWAP1 DUP2 CALLDATALOAD PUSH1 0xE0 SHR SWAP1 DUP2 PUSH4 0x1B41073F EQ PUSH2 0xA07 JUMPI POP DUP1 PUSH4 0x2F48AB7D EQ PUSH2 0x9C2 JUMPI DUP1 PUSH4 0x61D027B3 EQ PUSH2 0x97D JUMPI DUP1 PUSH4 0x67785D48 EQ PUSH2 0x1F2 JUMPI DUP1 PUSH4 0x739E9C79 EQ PUSH2 0xAA JUMPI PUSH4 0xBF2E233E EQ PUSH2 0x63 JUMPI PUSH1 0x0 DUP1 REVERT JUMPDEST CALLVALUE PUSH2 0xA7 JUMPI DUP1 PUSH1 0x3 NOT CALLDATASIZE ADD SLT PUSH2 0xA7 JUMPI PUSH1 0x40 MLOAD PUSH32 0x0 PUSH1 0x1 PUSH1 0x1 PUSH1 0xA0 SHL SUB AND DUP2 MSTORE PUSH1 0x20 SWAP1 RETURN JUMPDEST DUP1 REVERT JUMPDEST POP CALLVALUE PUSH2 0xA7 JUMPI DUP1 PUSH1 0x3 NOT CALLDATASIZE ADD SLT PUSH2 0xA7 JUMPI DUP1 PUSH1 0x20 PUSH1 0x1 PUSH1 0x1 PUSH1 0xA0 SHL SUB PUSH2 0xF3 CALLER PUSH32 0x0 DUP4 AND EQ PUSH2 0xA4A JUMP JUMPDEST PUSH1 0x40 MLOAD PUSH4 0x95EA7B3 PUSH1 0xE0 SHL DUP2 MSTORE PUSH32 0x0 DUP3 AND PUSH1 0x4 DUP3 ADD MSTORE PUSH1 0x0 NOT PUSH1 0x24 DUP3 ADD MSTORE SWAP3 DUP4 SWAP2 PUSH1 0x44 SWAP2 DUP4 SWAP2 PUSH32 0x0 AND GAS CALL SWAP1 DUP2 ISZERO PUSH2 0x1E7 JUMPI DUP3 SWAP2 PUSH2 0x1AA JUMPI JUMPDEST POP ISZERO PUSH2 0x173 JUMPI DUP1 RETURN JUMPDEST PUSH1 0x40 MLOAD PUSH3 0x461BCD PUSH1 0xE5 SHL DUP2 MSTORE PUSH1 0x20 PUSH1 0x4 DUP3 ADD MSTORE PUSH1 0xF PUSH1 0x24 DUP3 ADD MSTORE PUSH15 0x1C1C99585C1C1C9BDD994819985A5B PUSH1 0x8A SHL PUSH1 0x44 DUP3 ADD MSTORE PUSH1 0x64 SWAP1 REVERT JUMPDEST SWAP1 POP PUSH1 0x20 DUP2 RETURNDATASIZE DUP3 GT PUSH2 0x1DF JUMPI JUMPDEST DUP2 PUSH2 0x1C4 PUSH1 0x20 SWAP4 DUP4 PUSH2 0xA84 JUMP JUMPDEST DUP2 ADD SUB SLT PUSH2 0x1DB JUMPI PUSH2 0x1D5 SWAP1 PUSH2 0xABC JUMP JUMPDEST CODESIZE PUSH2 0x16A JUMP JUMPDEST POP DUP1 REVERT JUMPDEST RETURNDATASIZE SWAP2 POP PUSH2 0x1B7 JUMP JUMPDEST PUSH1 0x40 MLOAD RETURNDATASIZE DUP5 DUP3 RETURNDATACOPY RETURNDATASIZE SWAP1 REVERT JUMPDEST POP CALLVALUE PUSH2 0xA7 JUMPI PUSH1 0x60 CALLDATASIZE PUSH1 0x3 NOT ADD SLT PUSH2 0xA7 JUMPI PUSH1 0x4 CALLDATALOAD PUSH1 0x1 PUSH1 0x1 PUSH1 0xA0 SHL SUB DUP2 AND DUP2 SUB PUSH2 0x1DB JUMPI PUSH1 0x44 CALLDATALOAD PUSH1 0x1 PUSH1 0x1 PUSH1 0xA0 SHL SUB DUP2 AND DUP2 SUB PUSH2 0x537 JUMPI PUSH2 0x25E CALLER PUSH32 0x0 PUSH1 0x1 PUSH1 0x1 PUSH1 0xA0 SHL SUB AND EQ PUSH2 0xA4A JUMP JUMPDEST PUSH1 0x1 PUSH1 0x1 PUSH1 0xA0 SHL SUB DUP3 AND ISZERO PUSH2 0x94C JUMPI PUSH1 0x40 MLOAD PUSH4 0x633CA0D PUSH1 0xE2 SHL DUP2 MSTORE PUSH1 0x20 DUP2 PUSH1 0x4 DUP2 PUSH32 0x0 PUSH1 0x1 PUSH1 0x1 PUSH1 0xA0 SHL SUB AND GAS STATICCALL SWAP1 DUP2 ISZERO PUSH2 0x61A JUMPI DUP5 SWAP2 PUSH2 0x91A JUMPI JUMPDEST POP PUSH1 0x40 MLOAD PUSH4 0x24745215 PUSH1 0xE2 SHL DUP2 MSTORE PUSH1 0x4 DUP2 ADD SWAP2 SWAP1 SWAP2 MSTORE ADDRESS PUSH1 0x24 DUP3 ADD MSTORE PUSH1 0x20 DUP2 PUSH1 0x44 DUP2 PUSH32 0x0 PUSH1 0x1 PUSH1 0x1 PUSH1 0xA0 SHL SUB AND GAS STATICCALL SWAP1 DUP2 ISZERO PUSH2 0x61A JUMPI DUP5 SWAP2 PUSH2 0x8E0 JUMPI JUMPDEST POP ISZERO PUSH2 0x8AA JUMPI PUSH1 0x40 MLOAD PUSH4 0x1733BFC3 PUSH1 0xE3 SHL DUP2 MSTORE PUSH1 0x24 DUP1 CALLDATALOAD PUSH1 0x4 DUP4 ADD MSTORE DUP5 SWAP1 DUP3 SWAP1 DUP2 PUSH32 0x0 PUSH1 0x1 PUSH1 0x1 PUSH1 0xA0 SHL SUB AND GAS STATICCALL DUP1 ISZERO PUSH2 0x61A JUMPI DUP5 SWAP2 DUP6 SWAP1 DUP7 SWAP3 PUSH2 0x790 JUMPI JUMPDEST POP DUP2 PUSH2 0x788 JUMPI JUMPDEST POP ISZERO PUSH2 0x755 JUMPI PUSH1 0x40 MLOAD PUSH4 0x23B872DD PUSH1 0xE0 SHL DUP2 MSTORE PUSH1 0x1 PUSH1 0x1 PUSH1 0xA0 SHL SUB PUSH32 0x0 DUP2 AND PUSH1 0x4 DUP4 ADD MSTORE ADDRESS PUSH1 0x24 DUP4 ADD MSTORE PUSH1 0x44 DUP3 ADD DUP4 SWAP1 MSTORE DUP6 SWAP3 PUSH32 0x0 SWAP1 SWAP2 AND SWAP2 PUSH1 0x20 DUP2 PUSH1 0x64 DUP2 DUP8 DUP8 GAS CALL SWAP1 DUP2 ISZERO PUSH2 0x61A JUMPI DUP5 SWAP2 PUSH2 0x71B JUMPI JUMPDEST POP ISZERO PUSH2 0x657 JUMPI JUMPDEST PUSH1 0x40 MLOAD PUSH4 0x6EB1769F PUSH1 0xE1 SHL DUP2 MSTORE ADDRESS PUSH1 0x4 DUP3 ADD MSTORE PUSH32 0x0 PUSH1 0x1 PUSH1 0x1 PUSH1 0xA0 SHL SUB AND PUSH1 0x24 DUP3 ADD MSTORE PUSH1 0x20 DUP2 PUSH1 0x44 DUP2 DUP7 GAS STATICCALL SWAP1 DUP2 ISZERO PUSH2 0x61A JUMPI DUP5 SWAP2 PUSH2 0x625 JUMPI JUMPDEST POP LT PUSH2 0x53B JUMPI JUMPDEST POP POP PUSH32 0x0 PUSH1 0x1 PUSH1 0x1 PUSH1 0xA0 SHL SUB AND EXTCODESIZE ISZERO PUSH2 0x537 JUMPI PUSH1 0x40 MLOAD PUSH4 0x30769AEF PUSH1 0xE2 SHL DUP2 MSTORE PUSH1 0x1 PUSH1 0x1 PUSH1 0xA0 SHL SUB SWAP3 DUP4 AND PUSH1 0x4 DUP3 ADD MSTORE PUSH1 0x24 DUP1 CALLDATALOAD SWAP1 DUP3 ADD MSTORE SWAP1 DUP3 AND PUSH1 0x44 DUP3 ADD MSTORE SWAP1 DUP3 SWAP1 DUP3 SWAP1 PUSH1 0x64 SWAP1 DUP3 SWAP1 DUP5 SWAP1 PUSH32 0x0 AND GAS CALL DUP1 ISZERO PUSH2 0x1E7 JUMPI PUSH2 0x50E JUMPI POP DUP1 RETURN JUMPDEST PUSH8 0xFFFFFFFFFFFFFFFF DUP2 GT PUSH2 0x523 JUMPI PUSH1 0x40 MSTORE DUP1 RETURN JUMPDEST PUSH4 0x4E487B71 PUSH1 0xE0 SHL DUP3 MSTORE PUSH1 0x41 PUSH1 0x4 MSTORE PUSH1 0x24 DUP3 REVERT JUMPDEST DUP3 DUP1 REVERT JUMPDEST PUSH1 0x40 MLOAD PUSH4 0x95EA7B3 PUSH1 0xE0 SHL DUP2 MSTORE PUSH32 0x0 PUSH1 0x1 PUSH1 0x1 PUSH1 0xA0 SHL SUB AND PUSH1 0x4 DUP3 ADD MSTORE PUSH1 0x0 NOT PUSH1 0x24 DUP3 ADD MSTORE SWAP2 PUSH1 0x20 SWAP2 DUP4 SWAP2 PUSH1 0x44 SWAP2 DUP4 SWAP2 SWAP1 GAS CALL SWAP1 DUP2 ISZERO PUSH2 0x61A JUMPI DUP5 SWAP2 PUSH2 0x5DC JUMPI JUMPDEST POP ISZERO PUSH2 0x5A8 JUMPI DUP3 CODESIZE PUSH2 0x471 JUMP JUMPDEST PUSH1 0x40 MLOAD PUSH3 0x461BCD PUSH1 0xE5 SHL DUP2 MSTORE PUSH1 0x20 PUSH1 0x4 DUP3 ADD MSTORE PUSH1 0xC PUSH1 0x24 DUP3 ADD MSTORE PUSH12 0x185C1C1C9BDD994819985A5B PUSH1 0xA2 SHL PUSH1 0x44 DUP3 ADD MSTORE PUSH1 0x64 SWAP1 REVERT JUMPDEST SWAP1 POP PUSH1 0x20 DUP2 RETURNDATASIZE PUSH1 0x20 GT PUSH2 0x612 JUMPI JUMPDEST DUP2 PUSH2 0x5F7 PUSH1 0x20 SWAP4 DUP4 PUSH2 0xA84 JUMP JUMPDEST DUP2 ADD SUB SLT PUSH2 0x60E JUMPI PUSH2 0x608 SWAP1 PUSH2 0xABC JUMP JUMPDEST CODESIZE PUSH2 0x59B JUMP JUMPDEST DUP4 DUP1 REVERT JUMPDEST RETURNDATASIZE SWAP2 POP PUSH2 0x5EA JUMP JUMPDEST PUSH1 0x40 MLOAD RETURNDATASIZE DUP7 DUP3 RETURNDATACOPY RETURNDATASIZE SWAP1 REVERT JUMPDEST SWAP1 POP PUSH1 0x20 DUP2 RETURNDATASIZE PUSH1 0x20 GT PUSH2 0x64F JUMPI JUMPDEST DUP2 PUSH2 0x640 PUSH1 0x20 SWAP4 DUP4 PUSH2 0xA84 JUMP JUMPDEST DUP2 ADD SUB SLT PUSH2 0x60E JUMPI MLOAD CODESIZE PUSH2 0x46A JUMP JUMPDEST RETURNDATASIZE SWAP2 POP PUSH2 0x633 JUMP JUMPDEST PUSH1 0x40 MLOAD PUSH4 0x70A08231 PUSH1 0xE0 SHL DUP2 MSTORE ADDRESS PUSH1 0x4 DUP3 ADD MSTORE SWAP1 SWAP3 POP PUSH1 0x20 DUP2 PUSH1 0x24 DUP2 DUP6 GAS STATICCALL DUP1 ISZERO PUSH2 0x710 JUMPI DUP4 SWAP2 DUP8 SWAP2 PUSH2 0x6D7 JUMPI JUMPDEST POP LT PUSH2 0x692 JUMPI DUP5 SWAP2 PUSH2 0x411 JUMP JUMPDEST PUSH1 0x40 MLOAD PUSH3 0x461BCD PUSH1 0xE5 SHL DUP2 MSTORE PUSH1 0x20 PUSH1 0x4 DUP3 ADD MSTORE PUSH1 0x1A PUSH1 0x24 DUP3 ADD MSTORE PUSH32 0x696E73756666696369656E7420616461707465722066756E6473000000000000 PUSH1 0x44 DUP3 ADD MSTORE PUSH1 0x64 SWAP1 REVERT JUMPDEST SWAP2 POP POP PUSH1 0x20 DUP2 RETURNDATASIZE PUSH1 0x20 GT PUSH2 0x708 JUMPI JUMPDEST DUP2 PUSH2 0x6F3 PUSH1 0x20 SWAP4 DUP4 PUSH2 0xA84 JUMP JUMPDEST DUP2 ADD SUB SLT PUSH2 0x704 JUMPI DUP3 SWAP1 MLOAD CODESIZE PUSH2 0x685 JUMP JUMPDEST DUP6 DUP1 REVERT JUMPDEST RETURNDATASIZE SWAP2 POP PUSH2 0x6E6 JUMP JUMPDEST PUSH1 0x40 MLOAD RETURNDATASIZE DUP9 DUP3 RETURNDATACOPY RETURNDATASIZE SWAP1 REVERT JUMPDEST SWAP1 POP PUSH1 0x20 DUP2 RETURNDATASIZE PUSH1 0x20 GT PUSH2 0x74D JUMPI JUMPDEST DUP2 PUSH2 0x736 PUSH1 0x20 SWAP4 DUP4 PUSH2 0xA84 JUMP JUMPDEST DUP2 ADD SUB SLT PUSH2 0x60E JUMPI PUSH2 0x747 SWAP1 PUSH2 0xABC JUMP JUMPDEST CODESIZE PUSH2 0x40A JUMP JUMPDEST RETURNDATASIZE SWAP2 POP PUSH2 0x729 JUMP JUMPDEST PUSH1 0x40 MLOAD PUSH3 0x461BCD PUSH1 0xE5 SHL DUP2 MSTORE PUSH1 0x20 PUSH1 0x4 DUP3 ADD MSTORE PUSH1 0xB PUSH1 0x24 DUP3 ADD MSTORE PUSH11 0x626164207061636B616765 PUSH1 0xA8 SHL PUSH1 0x44 DUP3 ADD MSTORE PUSH1 0x64 SWAP1 REVERT JUMPDEST SWAP1 POP CODESIZE PUSH2 0x37B JUMP JUMPDEST SWAP3 POP POP POP RETURNDATASIZE DUP1 DUP6 DUP4 RETURNDATACOPY PUSH2 0x7A3 DUP2 DUP4 PUSH2 0xA84 JUMP JUMPDEST DUP2 ADD PUSH2 0x120 DUP3 DUP3 SUB SLT PUSH2 0x8A6 JUMPI DUP2 MLOAD PUSH2 0x7BE PUSH1 0x40 DUP5 ADD PUSH2 0xACE JUMP JUMPDEST POP PUSH2 0x7CB PUSH1 0x60 DUP5 ADD PUSH2 0xACE JUMP JUMPDEST POP PUSH2 0x7D8 PUSH1 0x80 DUP5 ADD PUSH2 0xAE3 JUMP JUMPDEST POP PUSH2 0x7E5 PUSH1 0xA0 DUP5 ADD PUSH2 0xAE3 JUMP JUMPDEST POP PUSH2 0x7F2 PUSH1 0xC0 DUP5 ADD PUSH2 0xABC JUMP JUMPDEST SWAP3 PUSH2 0x7FF PUSH1 0xE0 DUP3 ADD PUSH2 0xABC JUMP JUMPDEST SWAP3 PUSH2 0x100 DUP3 ADD MLOAD SWAP2 PUSH8 0xFFFFFFFFFFFFFFFF SWAP3 DUP4 DUP2 GT PUSH2 0x88E JUMPI DUP3 PUSH1 0x1F DUP3 DUP5 ADD ADD SLT ISZERO PUSH2 0x88E JUMPI DUP1 DUP3 ADD MLOAD SWAP4 DUP5 GT PUSH2 0x892 JUMPI PUSH1 0x40 MLOAD SWAP3 PUSH2 0x848 PUSH1 0x1F DUP7 ADD PUSH1 0x1F NOT AND PUSH1 0x20 ADD DUP6 PUSH2 0xA84 JUMP JUMPDEST DUP5 DUP5 MSTORE PUSH1 0x20 DUP6 DUP4 DUP6 ADD ADD ADD GT PUSH2 0x88E JUMPI SWAP1 DUP10 SWAP4 SWAP3 SWAP2 DUP5 JUMPDEST DUP5 DUP2 LT PUSH2 0x875 JUMPI POP POP POP ADD PUSH1 0x20 ADD MSTORE SWAP2 CODESIZE PUSH2 0x374 JUMP JUMPDEST PUSH1 0x20 DUP4 DUP4 ADD DUP3 ADD DUP2 ADD MLOAD DUP6 DUP4 ADD DUP3 ADD MSTORE DUP13 SWAP7 POP ADD PUSH2 0x85F JUMP JUMPDEST DUP10 DUP1 REVERT JUMPDEST PUSH4 0x4E487B71 PUSH1 0xE0 SHL DUP11 MSTORE PUSH1 0x41 PUSH1 0x4 MSTORE PUSH1 0x24 DUP11 REVERT JUMPDEST DUP5 DUP1 REVERT JUMPDEST PUSH1 0x40 MLOAD PUSH3 0x461BCD PUSH1 0xE5 SHL DUP2 MSTORE PUSH1 0x20 PUSH1 0x4 DUP3 ADD MSTORE PUSH1 0xE PUSH1 0x24 DUP3 ADD MSTORE PUSH14 0x6E6F2073657276657220726F6C65 PUSH1 0x90 SHL PUSH1 0x44 DUP3 ADD MSTORE PUSH1 0x64 SWAP1 REVERT JUMPDEST SWAP1 POP PUSH1 0x20 DUP2 RETURNDATASIZE PUSH1 0x20 GT PUSH2 0x912 JUMPI JUMPDEST DUP2 PUSH2 0x8FB PUSH1 0x20 SWAP4 DUP4 PUSH2 0xA84 JUMP JUMPDEST DUP2 ADD SUB SLT PUSH2 0x60E JUMPI PUSH2 0x90C SWAP1 PUSH2 0xABC JUMP JUMPDEST CODESIZE PUSH2 0x316 JUMP JUMPDEST RETURNDATASIZE SWAP2 POP PUSH2 0x8EE JUMP JUMPDEST SWAP1 POP PUSH1 0x20 DUP2 RETURNDATASIZE PUSH1 0x20 GT PUSH2 0x944 JUMPI JUMPDEST DUP2 PUSH2 0x935 PUSH1 0x20 SWAP4 DUP4 PUSH2 0xA84 JUMP JUMPDEST DUP2 ADD SUB SLT PUSH2 0x60E JUMPI MLOAD CODESIZE PUSH2 0x2BA JUMP JUMPDEST RETURNDATASIZE SWAP2 POP PUSH2 0x928 JUMP JUMPDEST PUSH1 0x40 MLOAD PUSH3 0x461BCD PUSH1 0xE5 SHL DUP2 MSTORE PUSH1 0x20 PUSH1 0x4 DUP3 ADD MSTORE PUSH1 0x9 PUSH1 0x24 DUP3 ADD MSTORE PUSH9 0x3130B210313ABCB2B9 PUSH1 0xB9 SHL PUSH1 0x44 DUP3 ADD MSTORE PUSH1 0x64 SWAP1 REVERT JUMPDEST POP CALLVALUE PUSH2 0xA7 JUMPI DUP1 PUSH1 0x3 NOT CALLDATASIZE ADD SLT PUSH2 0xA7 JUMPI PUSH1 0x40 MLOAD PUSH32 0x0 PUSH1 0x1 PUSH1 0x1 PUSH1 0xA0 SHL SUB AND DUP2 MSTORE PUSH1 0x20 SWAP1 RETURN JUMPDEST POP CALLVALUE PUSH2 0xA7 JUMPI DUP1 PUSH1 0x3 NOT CALLDATASIZE ADD SLT PUSH2 0xA7 JUMPI PUSH1 0x40 MLOAD PUSH32 0x0 PUSH1 0x1 PUSH1 0x1 PUSH1 0xA0 SHL SUB AND DUP2 MSTORE PUSH1 0x20 SWAP1 RETURN JUMPDEST SWAP1 POP CALLVALUE PUSH2 0x1DB JUMPI DUP2 PUSH1 0x3 NOT CALLDATASIZE ADD SLT PUSH2 0x1DB JUMPI PUSH32 0x0 PUSH1 0x1 PUSH1 0x1 PUSH1 0xA0 SHL SUB AND DUP2 MSTORE PUSH1 0x20 SWAP1 RETURN JUMPDEST ISZERO PUSH2 0xA51 JUMPI JUMP JUMPDEST PUSH1 0x40 MLOAD PUSH3 0x461BCD PUSH1 0xE5 SHL DUP2 MSTORE PUSH1 0x20 PUSH1 0x4 DUP3 ADD MSTORE PUSH1 0xB PUSH1 0x24 DUP3 ADD MSTORE PUSH11 0x1B9BDD08189858DAD95B99 PUSH1 0xAA SHL PUSH1 0x44 DUP3 ADD MSTORE PUSH1 0x64 SWAP1 REVERT JUMPDEST SWAP1 PUSH1 0x1F DUP1 NOT SWAP2 ADD AND DUP2 ADD SWAP1 DUP2 LT PUSH8 0xFFFFFFFFFFFFFFFF DUP3 GT OR PUSH2 0xAA6 JUMPI PUSH1 0x40 MSTORE JUMP JUMPDEST PUSH4 0x4E487B71 PUSH1 0xE0 SHL PUSH1 0x0 MSTORE PUSH1 0x41 PUSH1 0x4 MSTORE PUSH1 0x24 PUSH1 0x0 REVERT JUMPDEST MLOAD SWAP1 DUP2 ISZERO ISZERO DUP3 SUB PUSH2 0xAC9 JUMPI JUMP JUMPDEST PUSH1 0x0 DUP1 REVERT JUMPDEST MLOAD SWAP1 PUSH8 0xFFFFFFFFFFFFFFFF DUP3 AND DUP3 SUB PUSH2 0xAC9 JUMPI JUMP JUMPDEST MLOAD SWAP1 PUSH2 0xFFFF DUP3 AND DUP3 SUB PUSH2 0xAC9 JUMPI JUMP INVALID LOG2 PUSH5 0x6970667358 0x22 SLT KECCAK256 0xF8 0xE7 JUMPDEST PUSH24 0xAABA933DCD634877B8B47905258C75D2A97E83B4A21C842 SWAP14 DUP16 PUSH5 0xC64736F6C PUSH4 0x43000814 STOP CALLER "},"methodIdentifiers":{"backendEOA()":"1b41073f","packageManager()":"bf2e233e","preapprove()":"739e9c79","purchaseUsingTreasury(address,uint256,address)":"67785d48","treasury()":"61d027b3","usdt()":"2f48ab7d"}},"storageLayout":{"storage":[],"types":null}}}}