{"contracts/BlockCoopV2.sol":{"VestingVault":{"abi":[{"inputs":[{"internalType":"address","name":"shareToken_","type":"address"},{"internalType":"address","name":"admin","type":"address"}],"stateMutability":"nonpayable","type":"constructor"},{"inputs":[],"name":"AccessControlBadConfirmation","type":"error"},{"inputs":[{"internalType":"address","name":"account","type":"address"},{"internalType":"bytes32","name":"neededRole","type":"bytes32"}],"name":"AccessControlUnauthorizedAccount","type":"error"},{"inputs":[],"name":"ReentrancyGuardReentrantCall","type":"error"},{"inputs":[{"internalType":"address","name":"token","type":"address"}],"name":"SafeERC20FailedOperation","type":"error"},{"anonymous":false,"inputs":[{"indexed":true,"internalType":"address","name":"user","type":"address"},{"indexed":false,"internalType":"uint256","name":"amount","type":"uint256"}],"name":"Claimed","type":"event"},{"anonymous":false,"inputs":[{"indexed":true,"internalType":"address","name":"user","type":"address"},{"indexed":false,"internalType":"uint256","name":"amount","type":"uint256"},{"indexed":false,"internalType":"uint64","name":"cliff","type":"uint64"},{"indexed":false,"internalType":"uint64","name":"duration","type":"uint64"}],"name":"Locked","type":"event"},{"anonymous":false,"inputs":[{"indexed":true,"internalType":"bytes32","name":"role","type":"bytes32"},{"indexed":true,"internalType":"bytes32","name":"previousAdminRole","type":"bytes32"},{"indexed":true,"internalType":"bytes32","name":"newAdminRole","type":"bytes32"}],"name":"RoleAdminChanged","type":"event"},{"anonymous":false,"inputs":[{"indexed":true,"internalType":"bytes32","name":"role","type":"bytes32"},{"indexed":true,"internalType":"address","name":"account","type":"address"},{"indexed":true,"internalType":"address","name":"sender","type":"address"}],"name":"RoleGranted","type":"event"},{"anonymous":false,"inputs":[{"indexed":true,"internalType":"bytes32","name":"role","type":"bytes32"},{"indexed":true,"internalType":"address","name":"account","type":"address"},{"indexed":true,"internalType":"address","name":"sender","type":"address"}],"name":"RoleRevoked","type":"event"},{"inputs":[],"name":"DEFAULT_ADMIN_ROLE","outputs":[{"internalType":"bytes32","name":"","type":"bytes32"}],"stateMutability":"view","type":"function"},{"inputs":[],"name":"LOCKER_ROLE","outputs":[{"internalType":"bytes32","name":"","type":"bytes32"}],"stateMutability":"view","type":"function"},{"inputs":[],"name":"claim","outputs":[],"stateMutability":"nonpayable","type":"function"},{"inputs":[{"internalType":"address","name":"user","type":"address"}],"name":"claimFor","outputs":[],"stateMutability":"nonpayable","type":"function"},{"inputs":[{"internalType":"bytes32","name":"role","type":"bytes32"}],"name":"getRoleAdmin","outputs":[{"internalType":"bytes32","name":"","type":"bytes32"}],"stateMutability":"view","type":"function"},{"inputs":[{"internalType":"bytes32","name":"role","type":"bytes32"},{"internalType":"address","name":"account","type":"address"}],"name":"grantRole","outputs":[],"stateMutability":"nonpayable","type":"function"},{"inputs":[{"internalType":"bytes32","name":"role","type":"bytes32"},{"internalType":"address","name":"account","type":"address"}],"name":"hasRole","outputs":[{"internalType":"bool","name":"","type":"bool"}],"stateMutability":"view","type":"function"},{"inputs":[{"internalType":"address","name":"user","type":"address"},{"internalType":"uint256","name":"amount","type":"uint256"},{"internalType":"uint64","name":"cliff","type":"uint64"},{"internalType":"uint64","name":"duration","type":"uint64"}],"name":"lock","outputs":[],"stateMutability":"nonpayable","type":"function"},{"inputs":[{"internalType":"address","name":"","type":"address"}],"name":"released","outputs":[{"internalType":"uint256","name":"","type":"uint256"}],"stateMutability":"view","type":"function"},{"inputs":[{"internalType":"bytes32","name":"role","type":"bytes32"},{"internalType":"address","name":"callerConfirmation","type":"address"}],"name":"renounceRole","outputs":[],"stateMutability":"nonpayable","type":"function"},{"inputs":[{"internalType":"bytes32","name":"role","type":"bytes32"},{"internalType":"address","name":"account","type":"address"}],"name":"revokeRole","outputs":[],"stateMutability":"nonpayable","type":"function"},{"inputs":[],"name":"shareToken","outputs":[{"internalType":"contract BLOCKS","name":"","type":"address"}],"stateMutability":"view","type":"function"},{"inputs":[{"internalType":"bytes4","name":"interfaceId","type":"bytes4"}],"name":"supportsInterface","outputs":[{"internalType":"bool","name":"","type":"bool"}],"stateMutability":"view","type":"function"},{"inputs":[{"internalType":"address","name":"","type":"address"}],"name":"totalLocked","outputs":[{"internalType":"uint256","name":"","type":"uint256"}],"stateMutability":"view","type":"function"},{"inputs":[{"internalType":"address","name":"","type":"address"}],"name":"userSchedule","outputs":[{"internalType":"uint64","name":"cliff","type":"uint64"},{"internalType":"uint64","name":"duration","type":"uint64"},{"internalType":"uint256","name":"start","type":"uint256"}],"stateMutability":"view","type":"function"},{"inputs":[{"internalType":"address","name":"user","type":"address"}],"name":"vestedAmount","outputs":[{"internalType":"uint256","name":"","type":"uint256"}],"stateMutability":"view","type":"function"}],"evm":{"bytecode":{"linkReferences":{},"object":"60a03461009457601f610c3238819003918201601f19168301916001600160401b038311848410176100995780849260409485528339810103126100945780610056602061004f61006d946100af565b92016100af565b600180556001600160a01b039091166080526100c3565b50604051610ade908161015482396080518181816101b7015281816104a101526105330152f35b600080fd5b634e487b7160e01b600052604160045260246000fd5b51906001600160a01b038216820361009457565b6001600160a01b031660008181527fad3228b676f7d3cd4284a5443f17f1962b36e491b30a40b2405849e597ba5fb5602052604081205490919060ff1661014f57818052816020526040822081835260205260408220600160ff1982541617905533917f2f8788117e7eff1d82e926ec794901d17c78024a50270940304540a733656f0d8180a4600190565b509056fe608060408181526004918236101561001657600080fd5b600092833560e01c91826301ffc9a7146106af57508163248a9ca3146106855781632f2ff15d1461065b57816336568abe14610615578163384711cc146105e8578163424bb331146105915781634e71d92d146104d05781636c9fa59e1461048c57816391d14854146104465781639852595c1461040e578163a217fddf146103f3578163bf49ec4f14610295578163d547741f14610256578163d8fb93371461021e578163ddeae03314610112575063f3621367146100d557600080fd5b3461010e578160031936011261010e57602090517faf9a8bb3cbd6b84fbccefa71ff73e26e798553c6914585a84886212a46a902798152f35b5080fd5b9190503461021a57602036600319011261021a5761012e61071d565b906101376109ad565b6001600160a01b038281169384156101e85750916020916101dc7fd8138f8a3f377c5259ca548e70e4c2de94f129f5a11036a15b69513cba2b426a9461019061017f856109d0565b888a5260038752848a2054906108bf565b93849161019e8315156108cc565b888a5260038752848a206101b384825461089c565b90557f00000000000000000000000000000000000000000000000000000000000000001661090b565b51908152a26001805580f35b606490602084519162461bcd60e51b8352820152600c60248201526b24b73b30b634b2103ab9b2b960a11b6044820152fd5b8280fd5b50503461010e57602036600319011261010e5760209181906001600160a01b0361024661071d565b1681526002845220549051908152f35b9190503461021a578060031936011261021a57610291913561028c600161027b610702565b938387528660205286200154610733565b6107f5565b5080f35b9190503461021a57608036600319011261021a576102b161071d565b6024359160443567ffffffffffffffff928382168092036103ef57606435938085168095036103eb577faf9a8bb3cbd6b84fbccefa71ff73e26e798553c6914585a84886212a46a9027991828952602092898452858a20338b52845260ff868b205416156103cd5750916060959391600186948b7f2b150aca9bf716e6de7b8315dadc8a8301141e9857c9ebe5350151ca3dd24c389a9851936103538561086a565b86855287868601928a845281870194428652868060a01b03169e8f82528852209451166fffffffffffffffff000000000000000085549251891b16916fffffffffffffffffffffffffffffffff19161717835551910155600281528289206103bc86825461089c565b90558251948552840152820152a280f35b855163e2517d3f60e01b815233818b01526024810191909152604490fd5b8780fd5b8680fd5b50503461010e578160031936011261010e5751908152602090f35b50503461010e57602036600319011261010e5760209181906001600160a01b0361043661071d565b1681526003845220549051908152f35b90503461021a578160031936011261021a578160209360ff92610467610702565b903582528186528282206001600160a01b039091168252855220549151911615158152f35b50503461010e578160031936011261010e57517f00000000000000000000000000000000000000000000000000000000000000006001600160a01b03168152602090f35b50503461010e578160031936011261010e576104ea6109ad565b6105086104f6336109d0565b338452600360205282842054906108bf565b906105148215156108cc565b338352600360205280832061052a83825461089c565b905561056082337f00000000000000000000000000000000000000000000000000000000000000006001600160a01b031661090b565b519081527fd8138f8a3f377c5259ca548e70e4c2de94f129f5a11036a15b69513cba2b426a60203392a26001805580f35b90503461021a57602036600319011261021a5760609282916001600160a01b036105b961071d565b1682526020522090600182549201549080519267ffffffffffffffff908181168552821c166020840152820152f35b50503461010e57602036600319011261010e5760209061060e61060961071d565b6109d0565b9051908152f35b83833461010e578060031936011261010e5761062f610702565b90336001600160a01b0383160361064c57506102919192356107f5565b5163334bd91960e11b81528390fd5b9190503461021a578060031936011261021a576102919135610680600161027b610702565b610777565b90503461021a57602036600319011261021a57816020936001923581528085522001549051908152f35b84913461021a57602036600319011261021a573563ffffffff60e01b811680910361021a5760209250637965db0b60e01b81149081156106f1575b5015158152f35b6301ffc9a760e01b149050836106ea565b602435906001600160a01b038216820361071857565b600080fd5b600435906001600160a01b038216820361071857565b80600052600060205260406000203360005260205260ff60406000205416156107595750565b6044906040519063e2517d3f60e01b82523360048301526024820152fd5b9060009180835282602052604083209160018060a01b03169182845260205260ff604084205416156000146107f057808352826020526040832082845260205260408320600160ff198254161790557f2f8788117e7eff1d82e926ec794901d17c78024a50270940304540a733656f0d339380a4600190565b505090565b9060009180835282602052604083209160018060a01b03169182845260205260ff6040842054166000146107f05780835282602052604083208284526020526040832060ff1981541690557ff6391f5c32d9c69d2a47ea670b442974b53935d1edc7fd64eb21e047a839171b339380a4600190565b6060810190811067ffffffffffffffff82111761088657604052565b634e487b7160e01b600052604160045260246000fd5b919082018092116108a957565b634e487b7160e01b600052601160045260246000fd5b919082039182116108a957565b156108d357565b60405162461bcd60e51b815260206004820152601060248201526f4e6f7468696e6720746f20636c61696d60801b6044820152606490fd5b60405163a9059cbb60e01b602082019081526001600160a01b0393841660248301526044808301959095529381529092608082019067ffffffffffffffff82118383101761088657602092600092604052519082865af1156109a1576000513d61099857508082163b155b61097e575050565b604051635274afe760e01b81529116600482015260249150fd5b60011415610976565b6040513d6000823e3d90fd5b6002600154146109be576002600155565b604051633ee5aeb560e01b8152600490fd5b6001600160a01b03166000818152600460205260408082209051919291906109f78261086a565b610a29815491604067ffffffffffffffff94600186861693848352876020840197851c1687520154918291015261089c565b92834210610aa15784526002602052610a47604085205493426108bf565b9282825116841015610a9957838102938185041490151715610a85575116918215610a7157500490565b634e487b7160e01b81526012600452602490fd5b634e487b7160e01b84526011600452602484fd5b935050505090565b505050509056fea26469706673582212201cf704cf86f867b2bbd74c7c752a075044bc1f31c9e28638338c0e19eed43e3164736f6c63430008140033","opcodes":"PUSH1 0xA0 CALLVALUE PUSH2 0x94 JUMPI PUSH1 0x1F PUSH2 0xC32 CODESIZE DUP2 SWAP1 SUB SWAP2 DUP3 ADD PUSH1 0x1F NOT AND DUP4 ADD SWAP2 PUSH1 0x1 PUSH1 0x1 PUSH1 0x40 SHL SUB DUP4 GT DUP5 DUP5 LT OR PUSH2 0x99 JUMPI DUP1 DUP5 SWAP3 PUSH1 0x40 SWAP5 DUP6 MSTORE DUP4 CODECOPY DUP2 ADD SUB SLT PUSH2 0x94 JUMPI DUP1 PUSH2 0x56 PUSH1 0x20 PUSH2 0x4F PUSH2 0x6D SWAP5 PUSH2 0xAF JUMP JUMPDEST SWAP3 ADD PUSH2 0xAF JUMP JUMPDEST PUSH1 0x1 DUP1 SSTORE PUSH1 0x1 PUSH1 0x1 PUSH1 0xA0 SHL SUB SWAP1 SWAP2 AND PUSH1 0x80 MSTORE PUSH2 0xC3 JUMP JUMPDEST POP PUSH1 0x40 MLOAD PUSH2 0xADE SWAP1 DUP2 PUSH2 0x154 DUP3 CODECOPY PUSH1 0x80 MLOAD DUP2 DUP2 DUP2 PUSH2 0x1B7 ADD MSTORE DUP2 DUP2 PUSH2 0x4A1 ADD MSTORE PUSH2 0x533 ADD MSTORE RETURN JUMPDEST PUSH1 0x0 DUP1 REVERT JUMPDEST PUSH4 0x4E487B71 PUSH1 0xE0 SHL PUSH1 0x0 MSTORE PUSH1 0x41 PUSH1 0x4 MSTORE PUSH1 0x24 PUSH1 0x0 REVERT JUMPDEST MLOAD SWAP1 PUSH1 0x1 PUSH1 0x1 PUSH1 0xA0 SHL SUB DUP3 AND DUP3 SUB PUSH2 0x94 JUMPI JUMP JUMPDEST PUSH1 0x1 PUSH1 0x1 PUSH1 0xA0 SHL SUB AND PUSH1 0x0 DUP2 DUP2 MSTORE PUSH32 0xAD3228B676F7D3CD4284A5443F17F1962B36E491B30A40B2405849E597BA5FB5 PUSH1 0x20 MSTORE PUSH1 0x40 DUP2 KECCAK256 SLOAD SWAP1 SWAP2 SWAP1 PUSH1 0xFF AND PUSH2 0x14F JUMPI DUP2 DUP1 MSTORE DUP2 PUSH1 0x20 MSTORE PUSH1 0x40 DUP3 KECCAK256 DUP2 DUP4 MSTORE PUSH1 0x20 MSTORE PUSH1 0x40 DUP3 KECCAK256 PUSH1 0x1 PUSH1 0xFF NOT DUP3 SLOAD AND OR SWAP1 SSTORE CALLER SWAP2 PUSH32 0x2F8788117E7EFF1D82E926EC794901D17C78024A50270940304540A733656F0D DUP2 DUP1 LOG4 PUSH1 0x1 SWAP1 JUMP JUMPDEST POP SWAP1 JUMP INVALID PUSH1 0x80 PUSH1 0x40 DUP2 DUP2 MSTORE PUSH1 0x4 SWAP2 DUP3 CALLDATASIZE LT ISZERO PUSH2 0x16 JUMPI PUSH1 0x0 DUP1 REVERT JUMPDEST PUSH1 0x0 SWAP3 DUP4 CALLDATALOAD PUSH1 0xE0 SHR SWAP2 DUP3 PUSH4 0x1FFC9A7 EQ PUSH2 0x6AF JUMPI POP DUP2 PUSH4 0x248A9CA3 EQ PUSH2 0x685 JUMPI DUP2 PUSH4 0x2F2FF15D EQ PUSH2 0x65B JUMPI DUP2 PUSH4 0x36568ABE EQ PUSH2 0x615 JUMPI DUP2 PUSH4 0x384711CC EQ PUSH2 0x5E8 JUMPI DUP2 PUSH4 0x424BB331 EQ PUSH2 0x591 JUMPI DUP2 PUSH4 0x4E71D92D EQ PUSH2 0x4D0 JUMPI DUP2 PUSH4 0x6C9FA59E EQ PUSH2 0x48C JUMPI DUP2 PUSH4 0x91D14854 EQ PUSH2 0x446 JUMPI DUP2 PUSH4 0x9852595C EQ PUSH2 0x40E JUMPI DUP2 PUSH4 0xA217FDDF EQ PUSH2 0x3F3 JUMPI DUP2 PUSH4 0xBF49EC4F EQ PUSH2 0x295 JUMPI DUP2 PUSH4 0xD547741F EQ PUSH2 0x256 JUMPI DUP2 PUSH4 0xD8FB9337 EQ PUSH2 0x21E JUMPI DUP2 PUSH4 0xDDEAE033 EQ PUSH2 0x112 JUMPI POP PUSH4 0xF3621367 EQ PUSH2 0xD5 JUMPI PUSH1 0x0 DUP1 REVERT JUMPDEST CALLVALUE PUSH2 0x10E JUMPI DUP2 PUSH1 0x3 NOT CALLDATASIZE ADD SLT PUSH2 0x10E JUMPI PUSH1 0x20 SWAP1 MLOAD PUSH32 0xAF9A8BB3CBD6B84FBCCEFA71FF73E26E798553C6914585A84886212A46A90279 DUP2 MSTORE RETURN JUMPDEST POP DUP1 REVERT JUMPDEST SWAP2 SWAP1 POP CALLVALUE PUSH2 0x21A JUMPI PUSH1 0x20 CALLDATASIZE PUSH1 0x3 NOT ADD SLT PUSH2 0x21A JUMPI PUSH2 0x12E PUSH2 0x71D JUMP JUMPDEST SWAP1 PUSH2 0x137 PUSH2 0x9AD JUMP JUMPDEST PUSH1 0x1 PUSH1 0x1 PUSH1 0xA0 SHL SUB DUP3 DUP2 AND SWAP4 DUP5 ISZERO PUSH2 0x1E8 JUMPI POP SWAP2 PUSH1 0x20 SWAP2 PUSH2 0x1DC PUSH32 0xD8138F8A3F377C5259CA548E70E4C2DE94F129F5A11036A15B69513CBA2B426A SWAP5 PUSH2 0x190 PUSH2 0x17F DUP6 PUSH2 0x9D0 JUMP JUMPDEST DUP9 DUP11 MSTORE PUSH1 0x3 DUP8 MSTORE DUP5 DUP11 KECCAK256 SLOAD SWAP1 PUSH2 0x8BF JUMP JUMPDEST SWAP4 DUP5 SWAP2 PUSH2 0x19E DUP4 ISZERO ISZERO PUSH2 0x8CC JUMP JUMPDEST DUP9 DUP11 MSTORE PUSH1 0x3 DUP8 MSTORE DUP5 DUP11 KECCAK256 PUSH2 0x1B3 DUP5 DUP3 SLOAD PUSH2 0x89C JUMP JUMPDEST SWAP1 SSTORE PUSH32 0x0 AND PUSH2 0x90B JUMP JUMPDEST MLOAD SWAP1 DUP2 MSTORE LOG2 PUSH1 0x1 DUP1 SSTORE DUP1 RETURN JUMPDEST PUSH1 0x64 SWAP1 PUSH1 0x20 DUP5 MLOAD SWAP2 PUSH3 0x461BCD PUSH1 0xE5 SHL DUP4 MSTORE DUP3 ADD MSTORE PUSH1 0xC PUSH1 0x24 DUP3 ADD MSTORE PUSH12 0x24B73B30B634B2103AB9B2B9 PUSH1 0xA1 SHL PUSH1 0x44 DUP3 ADD MSTORE REVERT JUMPDEST DUP3 DUP1 REVERT JUMPDEST POP POP CALLVALUE PUSH2 0x10E JUMPI PUSH1 0x20 CALLDATASIZE PUSH1 0x3 NOT ADD SLT PUSH2 0x10E JUMPI PUSH1 0x20 SWAP2 DUP2 SWAP1 PUSH1 0x1 PUSH1 0x1 PUSH1 0xA0 SHL SUB PUSH2 0x246 PUSH2 0x71D JUMP JUMPDEST AND DUP2 MSTORE PUSH1 0x2 DUP5 MSTORE KECCAK256 SLOAD SWAP1 MLOAD SWAP1 DUP2 MSTORE RETURN JUMPDEST SWAP2 SWAP1 POP CALLVALUE PUSH2 0x21A JUMPI DUP1 PUSH1 0x3 NOT CALLDATASIZE ADD SLT PUSH2 0x21A JUMPI PUSH2 0x291 SWAP2 CALLDATALOAD PUSH2 0x28C PUSH1 0x1 PUSH2 0x27B PUSH2 0x702 JUMP JUMPDEST SWAP4 DUP4 DUP8 MSTORE DUP7 PUSH1 0x20 MSTORE DUP7 KECCAK256 ADD SLOAD PUSH2 0x733 JUMP JUMPDEST PUSH2 0x7F5 JUMP JUMPDEST POP DUP1 RETURN JUMPDEST SWAP2 SWAP1 POP CALLVALUE PUSH2 0x21A JUMPI PUSH1 0x80 CALLDATASIZE PUSH1 0x3 NOT ADD SLT PUSH2 0x21A JUMPI PUSH2 0x2B1 PUSH2 0x71D JUMP JUMPDEST PUSH1 0x24 CALLDATALOAD SWAP2 PUSH1 0x44 CALLDATALOAD PUSH8 0xFFFFFFFFFFFFFFFF SWAP3 DUP4 DUP3 AND DUP1 SWAP3 SUB PUSH2 0x3EF JUMPI PUSH1 0x64 CALLDATALOAD SWAP4 DUP1 DUP6 AND DUP1 SWAP6 SUB PUSH2 0x3EB JUMPI PUSH32 0xAF9A8BB3CBD6B84FBCCEFA71FF73E26E798553C6914585A84886212A46A90279 SWAP2 DUP3 DUP10 MSTORE PUSH1 0x20 SWAP3 DUP10 DUP5 MSTORE DUP6 DUP11 KECCAK256 CALLER DUP12 MSTORE DUP5 MSTORE PUSH1 0xFF DUP7 DUP12 KECCAK256 SLOAD AND ISZERO PUSH2 0x3CD JUMPI POP SWAP2 PUSH1 0x60 SWAP6 SWAP4 SWAP2 PUSH1 0x1 DUP7 SWAP5 DUP12 PUSH32 0x2B150ACA9BF716E6DE7B8315DADC8A8301141E9857C9EBE5350151CA3DD24C38 SWAP11 SWAP9 MLOAD SWAP4 PUSH2 0x353 DUP6 PUSH2 0x86A JUMP JUMPDEST DUP7 DUP6 MSTORE DUP8 DUP7 DUP7 ADD SWAP3 DUP11 DUP5 MSTORE DUP2 DUP8 ADD SWAP5 TIMESTAMP DUP7 MSTORE DUP7 DUP1 PUSH1 0xA0 SHL SUB AND SWAP15 DUP16 DUP3 MSTORE DUP9 MSTORE KECCAK256 SWAP5 MLOAD AND PUSH16 0xFFFFFFFFFFFFFFFF0000000000000000 DUP6 SLOAD SWAP3 MLOAD DUP10 SHL AND SWAP2 PUSH16 0xFFFFFFFFFFFFFFFFFFFFFFFFFFFFFFFF NOT AND OR OR DUP4 SSTORE MLOAD SWAP2 ADD SSTORE PUSH1 0x2 DUP2 MSTORE DUP3 DUP10 KECCAK256 PUSH2 0x3BC DUP7 DUP3 SLOAD PUSH2 0x89C JUMP JUMPDEST SWAP1 SSTORE DUP3 MLOAD SWAP5 DUP6 MSTORE DUP5 ADD MSTORE DUP3 ADD MSTORE LOG2 DUP1 RETURN JUMPDEST DUP6 MLOAD PUSH4 0xE2517D3F PUSH1 0xE0 SHL DUP2 MSTORE CALLER DUP2 DUP12 ADD MSTORE PUSH1 0x24 DUP2 ADD SWAP2 SWAP1 SWAP2 MSTORE PUSH1 0x44 SWAP1 REVERT JUMPDEST DUP8 DUP1 REVERT JUMPDEST DUP7 DUP1 REVERT JUMPDEST POP POP CALLVALUE PUSH2 0x10E JUMPI DUP2 PUSH1 0x3 NOT CALLDATASIZE ADD SLT PUSH2 0x10E JUMPI MLOAD SWAP1 DUP2 MSTORE PUSH1 0x20 SWAP1 RETURN JUMPDEST POP POP CALLVALUE PUSH2 0x10E JUMPI PUSH1 0x20 CALLDATASIZE PUSH1 0x3 NOT ADD SLT PUSH2 0x10E JUMPI PUSH1 0x20 SWAP2 DUP2 SWAP1 PUSH1 0x1 PUSH1 0x1 PUSH1 0xA0 SHL SUB PUSH2 0x436 PUSH2 0x71D JUMP JUMPDEST AND DUP2 MSTORE PUSH1 0x3 DUP5 MSTORE KECCAK256 SLOAD SWAP1 MLOAD SWAP1 DUP2 MSTORE RETURN JUMPDEST SWAP1 POP CALLVALUE PUSH2 0x21A JUMPI DUP2 PUSH1 0x3 NOT CALLDATASIZE ADD SLT PUSH2 0x21A JUMPI DUP2 PUSH1 0x20 SWAP4 PUSH1 0xFF SWAP3 PUSH2 0x467 PUSH2 0x702 JUMP JUMPDEST SWAP1 CALLDATALOAD DUP3 MSTORE DUP2 DUP7 MSTORE DUP3 DUP3 KECCAK256 PUSH1 0x1 PUSH1 0x1 PUSH1 0xA0 SHL SUB SWAP1 SWAP2 AND DUP3 MSTORE DUP6 MSTORE KECCAK256 SLOAD SWAP2 MLOAD SWAP2 AND ISZERO ISZERO DUP2 MSTORE RETURN JUMPDEST POP POP CALLVALUE PUSH2 0x10E JUMPI DUP2 PUSH1 0x3 NOT CALLDATASIZE ADD SLT PUSH2 0x10E JUMPI MLOAD PUSH32 0x0 PUSH1 0x1 PUSH1 0x1 PUSH1 0xA0 SHL SUB AND DUP2 MSTORE PUSH1 0x20 SWAP1 RETURN JUMPDEST POP POP CALLVALUE PUSH2 0x10E JUMPI DUP2 PUSH1 0x3 NOT CALLDATASIZE ADD SLT PUSH2 0x10E JUMPI PUSH2 0x4EA PUSH2 0x9AD JUMP JUMPDEST PUSH2 0x508 PUSH2 0x4F6 CALLER PUSH2 0x9D0 JUMP JUMPDEST CALLER DUP5 MSTORE PUSH1 0x3 PUSH1 0x20 MSTORE DUP3 DUP5 KECCAK256 SLOAD SWAP1 PUSH2 0x8BF JUMP JUMPDEST SWAP1 PUSH2 0x514 DUP3 ISZERO ISZERO PUSH2 0x8CC JUMP JUMPDEST CALLER DUP4 MSTORE PUSH1 0x3 PUSH1 0x20 MSTORE DUP1 DUP4 KECCAK256 PUSH2 0x52A DUP4 DUP3 SLOAD PUSH2 0x89C JUMP JUMPDEST SWAP1 SSTORE PUSH2 0x560 DUP3 CALLER PUSH32 0x0 PUSH1 0x1 PUSH1 0x1 PUSH1 0xA0 SHL SUB AND PUSH2 0x90B JUMP JUMPDEST MLOAD SWAP1 DUP2 MSTORE PUSH32 0xD8138F8A3F377C5259CA548E70E4C2DE94F129F5A11036A15B69513CBA2B426A PUSH1 0x20 CALLER SWAP3 LOG2 PUSH1 0x1 DUP1 SSTORE DUP1 RETURN JUMPDEST SWAP1 POP CALLVALUE PUSH2 0x21A JUMPI PUSH1 0x20 CALLDATASIZE PUSH1 0x3 NOT ADD SLT PUSH2 0x21A JUMPI PUSH1 0x60 SWAP3 DUP3 SWAP2 PUSH1 0x1 PUSH1 0x1 PUSH1 0xA0 SHL SUB PUSH2 0x5B9 PUSH2 0x71D JUMP JUMPDEST AND DUP3 MSTORE PUSH1 0x20 MSTORE KECCAK256 SWAP1 PUSH1 0x1 DUP3 SLOAD SWAP3 ADD SLOAD SWAP1 DUP1 MLOAD SWAP3 PUSH8 0xFFFFFFFFFFFFFFFF SWAP1 DUP2 DUP2 AND DUP6 MSTORE DUP3 SHR AND PUSH1 0x20 DUP5 ADD MSTORE DUP3 ADD MSTORE RETURN JUMPDEST POP POP CALLVALUE PUSH2 0x10E JUMPI PUSH1 0x20 CALLDATASIZE PUSH1 0x3 NOT ADD SLT PUSH2 0x10E JUMPI PUSH1 0x20 SWAP1 PUSH2 0x60E PUSH2 0x609 PUSH2 0x71D JUMP JUMPDEST PUSH2 0x9D0 JUMP JUMPDEST SWAP1 MLOAD SWAP1 DUP2 MSTORE RETURN JUMPDEST DUP4 DUP4 CALLVALUE PUSH2 0x10E JUMPI DUP1 PUSH1 0x3 NOT CALLDATASIZE ADD SLT PUSH2 0x10E JUMPI PUSH2 0x62F PUSH2 0x702 JUMP JUMPDEST SWAP1 CALLER PUSH1 0x1 PUSH1 0x1 PUSH1 0xA0 SHL SUB DUP4 AND SUB PUSH2 0x64C JUMPI POP PUSH2 0x291 SWAP2 SWAP3 CALLDATALOAD PUSH2 0x7F5 JUMP JUMPDEST MLOAD PUSH4 0x334BD919 PUSH1 0xE1 SHL DUP2 MSTORE DUP4 SWAP1 REVERT JUMPDEST SWAP2 SWAP1 POP CALLVALUE PUSH2 0x21A JUMPI DUP1 PUSH1 0x3 NOT CALLDATASIZE ADD SLT PUSH2 0x21A JUMPI PUSH2 0x291 SWAP2 CALLDATALOAD PUSH2 0x680 PUSH1 0x1 PUSH2 0x27B PUSH2 0x702 JUMP JUMPDEST PUSH2 0x777 JUMP JUMPDEST SWAP1 POP CALLVALUE PUSH2 0x21A JUMPI PUSH1 0x20 CALLDATASIZE PUSH1 0x3 NOT ADD SLT PUSH2 0x21A JUMPI DUP2 PUSH1 0x20 SWAP4 PUSH1 0x1 SWAP3 CALLDATALOAD DUP2 MSTORE DUP1 DUP6 MSTORE KECCAK256 ADD SLOAD SWAP1 MLOAD SWAP1 DUP2 MSTORE RETURN JUMPDEST DUP5 SWAP2 CALLVALUE PUSH2 0x21A JUMPI PUSH1 0x20 CALLDATASIZE PUSH1 0x3 NOT ADD SLT PUSH2 0x21A JUMPI CALLDATALOAD PUSH4 0xFFFFFFFF PUSH1 0xE0 SHL DUP2 AND DUP1 SWAP2 SUB PUSH2 0x21A JUMPI PUSH1 0x20 SWAP3 POP PUSH4 0x7965DB0B PUSH1 0xE0 SHL DUP2 EQ SWAP1 DUP2 ISZERO PUSH2 0x6F1 JUMPI JUMPDEST POP ISZERO ISZERO DUP2 MSTORE RETURN JUMPDEST PUSH4 0x1FFC9A7 PUSH1 0xE0 SHL EQ SWAP1 POP DUP4 PUSH2 0x6EA JUMP JUMPDEST PUSH1 0x24 CALLDATALOAD SWAP1 PUSH1 0x1 PUSH1 0x1 PUSH1 0xA0 SHL SUB DUP3 AND DUP3 SUB PUSH2 0x718 JUMPI JUMP JUMPDEST PUSH1 0x0 DUP1 REVERT JUMPDEST PUSH1 0x4 CALLDATALOAD SWAP1 PUSH1 0x1 PUSH1 0x1 PUSH1 0xA0 SHL SUB DUP3 AND DUP3 SUB PUSH2 0x718 JUMPI JUMP JUMPDEST DUP1 PUSH1 0x0 MSTORE PUSH1 0x0 PUSH1 0x20 MSTORE PUSH1 0x40 PUSH1 0x0 KECCAK256 CALLER PUSH1 0x0 MSTORE PUSH1 0x20 MSTORE PUSH1 0xFF PUSH1 0x40 PUSH1 0x0 KECCAK256 SLOAD AND ISZERO PUSH2 0x759 JUMPI POP JUMP JUMPDEST PUSH1 0x44 SWAP1 PUSH1 0x40 MLOAD SWAP1 PUSH4 0xE2517D3F PUSH1 0xE0 SHL DUP3 MSTORE CALLER PUSH1 0x4 DUP4 ADD MSTORE PUSH1 0x24 DUP3 ADD MSTORE REVERT JUMPDEST SWAP1 PUSH1 0x0 SWAP2 DUP1 DUP4 MSTORE DUP3 PUSH1 0x20 MSTORE PUSH1 0x40 DUP4 KECCAK256 SWAP2 PUSH1 0x1 DUP1 PUSH1 0xA0 SHL SUB AND SWAP2 DUP3 DUP5 MSTORE PUSH1 0x20 MSTORE PUSH1 0xFF PUSH1 0x40 DUP5 KECCAK256 SLOAD AND ISZERO PUSH1 0x0 EQ PUSH2 0x7F0 JUMPI DUP1 DUP4 MSTORE DUP3 PUSH1 0x20 MSTORE PUSH1 0x40 DUP4 KECCAK256 DUP3 DUP5 MSTORE PUSH1 0x20 MSTORE PUSH1 0x40 DUP4 KECCAK256 PUSH1 0x1 PUSH1 0xFF NOT DUP3 SLOAD AND OR SWAP1 SSTORE PUSH32 0x2F8788117E7EFF1D82E926EC794901D17C78024A50270940304540A733656F0D CALLER SWAP4 DUP1 LOG4 PUSH1 0x1 SWAP1 JUMP JUMPDEST POP POP SWAP1 JUMP JUMPDEST SWAP1 PUSH1 0x0 SWAP2 DUP1 DUP4 MSTORE DUP3 PUSH1 0x20 MSTORE PUSH1 0x40 DUP4 KECCAK256 SWAP2 PUSH1 0x1 DUP1 PUSH1 0xA0 SHL SUB AND SWAP2 DUP3 DUP5 MSTORE PUSH1 0x20 MSTORE PUSH1 0xFF PUSH1 0x40 DUP5 KECCAK256 SLOAD AND PUSH1 0x0 EQ PUSH2 0x7F0 JUMPI DUP1 DUP4 MSTORE DUP3 PUSH1 0x20 MSTORE PUSH1 0x40 DUP4 KECCAK256 DUP3 DUP5 MSTORE PUSH1 0x20 MSTORE PUSH1 0x40 DUP4 KECCAK256 PUSH1 0xFF NOT DUP2 SLOAD AND SWAP1 SSTORE PUSH32 0xF6391F5C32D9C69D2A47EA670B442974B53935D1EDC7FD64EB21E047A839171B CALLER SWAP4 DUP1 LOG4 PUSH1 0x1 SWAP1 JUMP JUMPDEST PUSH1 0x60 DUP2 ADD SWAP1 DUP2 LT PUSH8 0xFFFFFFFFFFFFFFFF DUP3 GT OR PUSH2 0x886 JUMPI PUSH1 0x40 MSTORE JUMP JUMPDEST PUSH4 0x4E487B71 PUSH1 0xE0 SHL PUSH1 0x0 MSTORE PUSH1 0x41 PUSH1 0x4 MSTORE PUSH1 0x24 PUSH1 0x0 REVERT JUMPDEST SWAP2 SWAP1 DUP3 ADD DUP1 SWAP3 GT PUSH2 0x8A9 JUMPI JUMP JUMPDEST PUSH4 0x4E487B71 PUSH1 0xE0 SHL PUSH1 0x0 MSTORE PUSH1 0x11 PUSH1 0x4 MSTORE PUSH1 0x24 PUSH1 0x0 REVERT JUMPDEST SWAP2 SWAP1 DUP3 SUB SWAP2 DUP3 GT PUSH2 0x8A9 JUMPI JUMP JUMPDEST ISZERO PUSH2 0x8D3 JUMPI JUMP JUMPDEST PUSH1 0x40 MLOAD PUSH3 0x461BCD PUSH1 0xE5 SHL DUP2 MSTORE PUSH1 0x20 PUSH1 0x4 DUP3 ADD MSTORE PUSH1 0x10 PUSH1 0x24 DUP3 ADD MSTORE PUSH16 0x4E6F7468696E6720746F20636C61696D PUSH1 0x80 SHL PUSH1 0x44 DUP3 ADD MSTORE PUSH1 0x64 SWAP1 REVERT JUMPDEST PUSH1 0x40 MLOAD PUSH4 0xA9059CBB PUSH1 0xE0 SHL PUSH1 0x20 DUP3 ADD SWAP1 DUP2 MSTORE PUSH1 0x1 PUSH1 0x1 PUSH1 0xA0 SHL SUB SWAP4 DUP5 AND PUSH1 0x24 DUP4 ADD MSTORE PUSH1 0x44 DUP1 DUP4 ADD SWAP6 SWAP1 SWAP6 MSTORE SWAP4 DUP2 MSTORE SWAP1 SWAP3 PUSH1 0x80 DUP3 ADD SWAP1 PUSH8 0xFFFFFFFFFFFFFFFF DUP3 GT DUP4 DUP4 LT OR PUSH2 0x886 JUMPI PUSH1 0x20 SWAP3 PUSH1 0x0 SWAP3 PUSH1 0x40 MSTORE MLOAD SWAP1 DUP3 DUP7 GAS CALL ISZERO PUSH2 0x9A1 JUMPI PUSH1 0x0 MLOAD RETURNDATASIZE PUSH2 0x998 JUMPI POP DUP1 DUP3 AND EXTCODESIZE ISZERO JUMPDEST PUSH2 0x97E JUMPI POP POP JUMP JUMPDEST PUSH1 0x40 MLOAD PUSH4 0x5274AFE7 PUSH1 0xE0 SHL DUP2 MSTORE SWAP2 AND PUSH1 0x4 DUP3 ADD MSTORE PUSH1 0x24 SWAP2 POP REVERT JUMPDEST PUSH1 0x1 EQ ISZERO PUSH2 0x976 JUMP JUMPDEST PUSH1 0x40 MLOAD RETURNDATASIZE PUSH1 0x0 DUP3 RETURNDATACOPY RETURNDATASIZE SWAP1 REVERT JUMPDEST PUSH1 0x2 PUSH1 0x1 SLOAD EQ PUSH2 0x9BE JUMPI PUSH1 0x2 PUSH1 0x1 SSTORE JUMP JUMPDEST PUSH1 0x40 MLOAD PUSH4 0x3EE5AEB5 PUSH1 0xE0 SHL DUP2 MSTORE PUSH1 0x4 SWAP1 REVERT JUMPDEST PUSH1 0x1 PUSH1 0x1 PUSH1 0xA0 SHL SUB AND PUSH1 0x0 DUP2 DUP2 MSTORE PUSH1 0x4 PUSH1 0x20 MSTORE PUSH1 0x40 DUP1 DUP3 KECCAK256 SWAP1 MLOAD SWAP2 SWAP3 SWAP2 SWAP1 PUSH2 0x9F7 DUP3 PUSH2 0x86A JUMP JUMPDEST PUSH2 0xA29 DUP2 SLOAD SWAP2 PUSH1 0x40 PUSH8 0xFFFFFFFFFFFFFFFF SWAP5 PUSH1 0x1 DUP7 DUP7 AND SWAP4 DUP5 DUP4 MSTORE DUP8 PUSH1 0x20 DUP5 ADD SWAP8 DUP6 SHR AND DUP8 MSTORE ADD SLOAD SWAP2 DUP3 SWAP2 ADD MSTORE PUSH2 0x89C JUMP JUMPDEST SWAP3 DUP4 TIMESTAMP LT PUSH2 0xAA1 JUMPI DUP5 MSTORE PUSH1 0x2 PUSH1 0x20 MSTORE PUSH2 0xA47 PUSH1 0x40 DUP6 KECCAK256 SLOAD SWAP4 TIMESTAMP PUSH2 0x8BF JUMP JUMPDEST SWAP3 DUP3 DUP3 MLOAD AND DUP5 LT ISZERO PUSH2 0xA99 JUMPI DUP4 DUP2 MUL SWAP4 DUP2 DUP6 DIV EQ SWAP1 ISZERO OR ISZERO PUSH2 0xA85 JUMPI MLOAD AND SWAP2 DUP3 ISZERO PUSH2 0xA71 JUMPI POP DIV SWAP1 JUMP JUMPDEST PUSH4 0x4E487B71 PUSH1 0xE0 SHL DUP2 MSTORE PUSH1 0x12 PUSH1 0x4 MSTORE PUSH1 0x24 SWAP1 REVERT JUMPDEST PUSH4 0x4E487B71 PUSH1 0xE0 SHL DUP5 MSTORE PUSH1 0x11 PUSH1 0x4 MSTORE PUSH1 0x24 DUP5 REVERT JUMPDEST SWAP4 POP POP POP POP SWAP1 JUMP JUMPDEST POP POP POP POP SWAP1 JUMP INVALID LOG2 PUSH5 0x6970667358 0x22 SLT KECCAK256 SHR 0xF7 DIV 0xCF DUP7 0xF8 PUSH8 0xB2BBD74C7C752A07 POP PREVRANDAO 0xBC 0x1F BALANCE 0xC9 0xE2 DUP7 CODESIZE CALLER DUP13 0xE NOT 0xEE 0xD4 RETURNDATACOPY BALANCE PUSH5 0x736F6C6343 STOP ADDMOD EQ STOP CALLER "},"methodIdentifiers":{"DEFAULT_ADMIN_ROLE()":"a217fddf","LOCKER_ROLE()":"f3621367","claim()":"4e71d92d","claimFor(address)":"ddeae033","getRoleAdmin(bytes32)":"248a9ca3","grantRole(bytes32,address)":"2f2ff15d","hasRole(bytes32,address)":"91d14854","lock(address,uint256,uint64,uint64)":"bf49ec4f","released(address)":"9852595c","renounceRole(bytes32,address)":"36568abe","revokeRole(bytes32,address)":"d547741f","shareToken()":"6c9fa59e","supportsInterface(bytes4)":"01ffc9a7","totalLocked(address)":"d8fb9337","userSchedule(address)":"424bb331","vestedAmount(address)":"384711cc"}}}}}