{"contracts/BLOCKSStakingV2.sol":{"BLOCKSStakingV2":{"abi":[{"inputs":[{"internalType":"address","name":"_stakingToken","type":"address"},{"internalType":"address","name":"_rewardToken","type":"address"},{"internalType":"address","name":"admin","type":"address"}],"stateMutability":"nonpayable","type":"constructor"},{"inputs":[],"name":"AccessControlBadConfirmation","type":"error"},{"inputs":[{"internalType":"address","name":"account","type":"address"},{"internalType":"bytes32","name":"neededRole","type":"bytes32"}],"name":"AccessControlUnauthorizedAccount","type":"error"},{"inputs":[],"name":"EnforcedPause","type":"error"},{"inputs":[],"name":"ExpectedPause","type":"error"},{"inputs":[],"name":"ReentrancyGuardReentrantCall","type":"error"},{"inputs":[{"internalType":"address","name":"token","type":"address"}],"name":"SafeERC20FailedOperation","type":"error"},{"anonymous":false,"inputs":[{"indexed":true,"internalType":"address","name":"user","type":"address"},{"indexed":true,"internalType":"uint256","name":"poolId","type":"uint256"},{"indexed":false,"internalType":"uint256","name":"amount","type":"uint256"},{"indexed":false,"internalType":"uint256","name":"penalty","type":"uint256"}],"name":"EmergencyUnstake","type":"event"},{"anonymous":false,"inputs":[{"indexed":false,"internalType":"address","name":"account","type":"address"}],"name":"Paused","type":"event"},{"anonymous":false,"inputs":[{"indexed":true,"internalType":"uint256","name":"poolId","type":"uint256"},{"indexed":false,"internalType":"string","name":"name","type":"string"},{"indexed":false,"internalType":"uint256","name":"lockPeriod","type":"uint256"},{"indexed":false,"internalType":"uint256","name":"apyBasisPoints","type":"uint256"}],"name":"PoolCreated","type":"event"},{"anonymous":false,"inputs":[{"indexed":true,"internalType":"uint256","name":"poolId","type":"uint256"},{"indexed":false,"internalType":"uint256","name":"apyBasisPoints","type":"uint256"},{"indexed":false,"internalType":"bool","name":"isActive","type":"bool"}],"name":"PoolUpdated","type":"event"},{"anonymous":false,"inputs":[{"indexed":true,"internalType":"address","name":"user","type":"address"},{"indexed":true,"internalType":"uint256","name":"poolId","type":"uint256"},{"indexed":false,"internalType":"uint256","name":"amount","type":"uint256"}],"name":"RewardsClaimed","type":"event"},{"anonymous":false,"inputs":[{"indexed":false,"internalType":"uint256","name":"amount","type":"uint256"},{"indexed":false,"internalType":"uint256","name":"newRewardRate","type":"uint256"}],"name":"RewardsDistributed","type":"event"},{"anonymous":false,"inputs":[{"indexed":true,"internalType":"bytes32","name":"role","type":"bytes32"},{"indexed":true,"internalType":"bytes32","name":"previousAdminRole","type":"bytes32"},{"indexed":true,"internalType":"bytes32","name":"newAdminRole","type":"bytes32"}],"name":"RoleAdminChanged","type":"event"},{"anonymous":false,"inputs":[{"indexed":true,"internalType":"bytes32","name":"role","type":"bytes32"},{"indexed":true,"internalType":"address","name":"account","type":"address"},{"indexed":true,"internalType":"address","name":"sender","type":"address"}],"name":"RoleGranted","type":"event"},{"anonymous":false,"inputs":[{"indexed":true,"internalType":"bytes32","name":"role","type":"bytes32"},{"indexed":true,"internalType":"address","name":"account","type":"address"},{"indexed":true,"internalType":"address","name":"sender","type":"address"}],"name":"RoleRevoked","type":"event"},{"anonymous":false,"inputs":[{"indexed":true,"internalType":"address","name":"user","type":"address"},{"indexed":true,"internalType":"uint256","name":"poolId","type":"uint256"},{"indexed":false,"internalType":"uint256","name":"amount","type":"uint256"},{"indexed":false,"internalType":"uint256","name":"lockEndTime","type":"uint256"}],"name":"Staked","type":"event"},{"anonymous":false,"inputs":[{"indexed":false,"internalType":"address","name":"account","type":"address"}],"name":"Unpaused","type":"event"},{"anonymous":false,"inputs":[{"indexed":true,"internalType":"address","name":"user","type":"address"},{"indexed":true,"internalType":"uint256","name":"poolId","type":"uint256"},{"indexed":false,"internalType":"uint256","name":"amount","type":"uint256"},{"indexed":false,"internalType":"uint256","name":"penalty","type":"uint256"}],"name":"Unstaked","type":"event"},{"inputs":[],"name":"DEFAULT_ADMIN_ROLE","outputs":[{"internalType":"bytes32","name":"","type":"bytes32"}],"stateMutability":"view","type":"function"},{"inputs":[],"name":"EMERGENCY_ROLE","outputs":[{"internalType":"bytes32","name":"","type":"bytes32"}],"stateMutability":"view","type":"function"},{"inputs":[],"name":"POOL_MANAGER_ROLE","outputs":[{"internalType":"bytes32","name":"","type":"bytes32"}],"stateMutability":"view","type":"function"},{"inputs":[],"name":"REWARD_DISTRIBUTOR_ROLE","outputs":[{"internalType":"bytes32","name":"","type":"bytes32"}],"stateMutability":"view","type":"function"},{"inputs":[],"name":"claimAllRewards","outputs":[],"stateMutability":"nonpayable","type":"function"},{"inputs":[{"internalType":"uint256","name":"poolId","type":"uint256"}],"name":"claimRewards","outputs":[],"stateMutability":"nonpayable","type":"function"},{"inputs":[{"internalType":"string","name":"name","type":"string"},{"internalType":"uint256","name":"lockPeriod","type":"uint256"},{"internalType":"uint256","name":"apyBasisPoints","type":"uint256"},{"internalType":"uint256","name":"minStake","type":"uint256"},{"internalType":"uint256","name":"maxStake","type":"uint256"},{"internalType":"uint256","name":"rewardMultiplier","type":"uint256"},{"internalType":"uint256","name":"emergencyExitPenalty","type":"uint256"}],"name":"createPool","outputs":[],"stateMutability":"nonpayable","type":"function"},{"inputs":[{"internalType":"uint256","name":"amount","type":"uint256"}],"name":"distributeRewards","outputs":[],"stateMutability":"nonpayable","type":"function"},{"inputs":[{"internalType":"uint256","name":"poolId","type":"uint256"},{"internalType":"uint256","name":"amount","type":"uint256"}],"name":"emergencyUnstake","outputs":[],"stateMutability":"nonpayable","type":"function"},{"inputs":[{"internalType":"address","name":"token","type":"address"},{"internalType":"uint256","name":"amount","type":"uint256"}],"name":"emergencyWithdraw","outputs":[],"stateMutability":"nonpayable","type":"function"},{"inputs":[],"name":"getContractStats","outputs":[{"internalType":"uint256","name":"_totalStaked","type":"uint256"},{"internalType":"uint256","name":"_totalRewardsDistributed","type":"uint256"},{"internalType":"uint256","name":"_poolCount","type":"uint256"},{"internalType":"uint256","name":"_rewardTokenBalance","type":"uint256"}],"stateMutability":"view","type":"function"},{"inputs":[{"internalType":"address","name":"user","type":"address"},{"internalType":"uint256","name":"poolId","type":"uint256"}],"name":"getPendingRewards","outputs":[{"internalType":"uint256","name":"","type":"uint256"}],"stateMutability":"view","type":"function"},{"inputs":[{"internalType":"bytes32","name":"role","type":"bytes32"}],"name":"getRoleAdmin","outputs":[{"internalType":"bytes32","name":"","type":"bytes32"}],"stateMutability":"view","type":"function"},{"inputs":[{"internalType":"address","name":"user","type":"address"}],"name":"getTotalPendingRewards","outputs":[{"internalType":"uint256","name":"","type":"uint256"}],"stateMutability":"view","type":"function"},{"inputs":[{"internalType":"address","name":"user","type":"address"}],"name":"getUserPoolIds","outputs":[{"internalType":"uint256[]","name":"","type":"uint256[]"}],"stateMutability":"view","type":"function"},{"inputs":[{"internalType":"address","name":"user","type":"address"},{"internalType":"uint256","name":"poolId","type":"uint256"}],"name":"getUserStake","outputs":[{"internalType":"uint256","name":"amount","type":"uint256"},{"internalType":"uint256","name":"stakedAt","type":"uint256"},{"internalType":"uint256","name":"lockEndTime","type":"uint256"},{"internalType":"uint256","name":"pendingRewards","type":"uint256"},{"internalType":"bool","name":"isLocked","type":"bool"}],"stateMutability":"view","type":"function"},{"inputs":[],"name":"globalRewardRate","outputs":[{"internalType":"uint256","name":"","type":"uint256"}],"stateMutability":"view","type":"function"},{"inputs":[{"internalType":"bytes32","name":"role","type":"bytes32"},{"internalType":"address","name":"account","type":"address"}],"name":"grantRole","outputs":[],"stateMutability":"nonpayable","type":"function"},{"inputs":[{"internalType":"address","name":"user","type":"address"},{"internalType":"uint256","name":"poolId","type":"uint256"}],"name":"hasActiveStake","outputs":[{"internalType":"bool","name":"","type":"bool"}],"stateMutability":"view","type":"function"},{"inputs":[{"internalType":"bytes32","name":"role","type":"bytes32"},{"internalType":"address","name":"account","type":"address"}],"name":"hasRole","outputs":[{"internalType":"bool","name":"","type":"bool"}],"stateMutability":"view","type":"function"},{"inputs":[],"name":"pause","outputs":[],"stateMutability":"nonpayable","type":"function"},{"inputs":[],"name":"paused","outputs":[{"internalType":"bool","name":"","type":"bool"}],"stateMutability":"view","type":"function"},{"inputs":[],"name":"poolCount","outputs":[{"internalType":"uint256","name":"","type":"uint256"}],"stateMutability":"view","type":"function"},{"inputs":[{"internalType":"uint256","name":"","type":"uint256"}],"name":"poolLastUpdateTime","outputs":[{"internalType":"uint256","name":"","type":"uint256"}],"stateMutability":"view","type":"function"},{"inputs":[{"internalType":"uint256","name":"","type":"uint256"}],"name":"poolRewardPerTokenStored","outputs":[{"internalType":"uint256","name":"","type":"uint256"}],"stateMutability":"view","type":"function"},{"inputs":[{"internalType":"bytes32","name":"role","type":"bytes32"},{"internalType":"address","name":"callerConfirmation","type":"address"}],"name":"renounceRole","outputs":[],"stateMutability":"nonpayable","type":"function"},{"inputs":[{"internalType":"bytes32","name":"role","type":"bytes32"},{"internalType":"address","name":"account","type":"address"}],"name":"revokeRole","outputs":[],"stateMutability":"nonpayable","type":"function"},{"inputs":[],"name":"rewardToken","outputs":[{"internalType":"contract IERC20","name":"","type":"address"}],"stateMutability":"view","type":"function"},{"inputs":[{"internalType":"uint256","name":"poolId","type":"uint256"},{"internalType":"uint256","name":"amount","type":"uint256"}],"name":"stake","outputs":[],"stateMutability":"nonpayable","type":"function"},{"inputs":[{"internalType":"uint256","name":"","type":"uint256"}],"name":"stakingPools","outputs":[{"internalType":"string","name":"name","type":"string"},{"internalType":"uint256","name":"lockPeriod","type":"uint256"},{"internalType":"uint256","name":"apyBasisPoints","type":"uint256"},{"internalType":"uint256","name":"minStake","type":"uint256"},{"internalType":"uint256","name":"maxStake","type":"uint256"},{"internalType":"uint256","name":"totalStaked","type":"uint256"},{"internalType":"uint256","name":"rewardMultiplier","type":"uint256"},{"internalType":"bool","name":"isActive","type":"bool"},{"internalType":"uint256","name":"emergencyExitPenalty","type":"uint256"}],"stateMutability":"view","type":"function"},{"inputs":[],"name":"stakingToken","outputs":[{"internalType":"contract IERC20","name":"","type":"address"}],"stateMutability":"view","type":"function"},{"inputs":[{"internalType":"bytes4","name":"interfaceId","type":"bytes4"}],"name":"supportsInterface","outputs":[{"internalType":"bool","name":"","type":"bool"}],"stateMutability":"view","type":"function"},{"inputs":[],"name":"totalRewardsDistributed","outputs":[{"internalType":"uint256","name":"","type":"uint256"}],"stateMutability":"view","type":"function"},{"inputs":[],"name":"totalStaked","outputs":[{"internalType":"uint256","name":"","type":"uint256"}],"stateMutability":"view","type":"function"},{"inputs":[{"internalType":"address","name":"","type":"address"}],"name":"totalUserStaked","outputs":[{"internalType":"uint256","name":"","type":"uint256"}],"stateMutability":"view","type":"function"},{"inputs":[],"name":"unpause","outputs":[],"stateMutability":"nonpayable","type":"function"},{"inputs":[{"internalType":"uint256","name":"poolId","type":"uint256"},{"internalType":"uint256","name":"amount","type":"uint256"}],"name":"unstake","outputs":[],"stateMutability":"nonpayable","type":"function"},{"inputs":[{"internalType":"uint256","name":"poolId","type":"uint256"},{"internalType":"uint256","name":"apyBasisPoints","type":"uint256"},{"internalType":"uint256","name":"rewardMultiplier","type":"uint256"},{"internalType":"bool","name":"isActive","type":"bool"}],"name":"updatePool","outputs":[],"stateMutability":"nonpayable","type":"function"},{"inputs":[{"internalType":"address","name":"","type":"address"},{"internalType":"uint256","name":"","type":"uint256"}],"name":"userPoolIds","outputs":[{"internalType":"uint256","name":"","type":"uint256"}],"stateMutability":"view","type":"function"},{"inputs":[{"internalType":"uint256","name":"","type":"uint256"},{"internalType":"address","name":"","type":"address"}],"name":"userRewardPerTokenPaid","outputs":[{"internalType":"uint256","name":"","type":"uint256"}],"stateMutability":"view","type":"function"},{"inputs":[{"internalType":"uint256","name":"","type":"uint256"},{"internalType":"address","name":"","type":"address"}],"name":"userStakes","outputs":[{"internalType":"uint256","name":"amount","type":"uint256"},{"internalType":"uint256","name":"stakedAt","type":"uint256"},{"internalType":"uint256","name":"lockEndTime","type":"uint256"},{"internalType":"uint256","name":"lastRewardClaim","type":"uint256"},{"internalType":"uint256","name":"accumulatedRewards","type":"uint256"},{"internalType":"bool","name":"isActive","type":"bool"}],"stateMutability":"view","type":"function"}],"evm":{"bytecode":{"linkReferences":{},"object":"60c0346200054a57601f6200308a38819003918201601f19168301916001600160401b038311848410176200054f578084926060946040528339810103126200054a576200004d81620005a6565b6200006960406200006160208501620005a6565b9301620005a6565b600180556001600160a01b03918216929091908315620004f6578116908115620004a3578216156200045e57620000ca9260805260a052620000ab81620005bb565b50620000b7816200063b565b50620000c381620006dd565b506200077a565b5062000153620000d962000565565b620000e362000586565b601081526f466c657869626c65205374616b696e6760801b60208201528152600060208201526103206040820152670de0b6b3a7640000606082015269d3c21bcecceda10000006080820152600060a082015261271060c0820152600160e0820152600061010082015262000817565b620001d96200016162000565565b6200016b62000586565b600b81526a33302d446179204c6f636b60a81b6020820152815262278d0060208201526104b06040820152678ac7230489e80000606082015269d3c21bcecceda10000006080820152600060a0820152612cec60c0820152600160e08201526101f461010082015262000817565b62000260620001e762000565565b620001f162000586565b600b81526a39302d446179204c6f636b60a81b602082015281526276a700602082015261070860408201526802b5e3af16b1880000606082015269d3c21bcecceda10000006080820152600060a08201526132c860c0820152600160e08201526103e861010082015262000817565b620002e86200026e62000565565b6200027862000586565b600b81526a312d59656172204c6f636b60a81b602082015281526301e1338060208201526109c4604082015268056bc75e2d63100000606082015269d3c21bcecceda10000006080820152600060a0820152613a9860c0820152600160e08201526107d061010082015262000817565b60006000805160206200306a83398151915260a060405160608152601060608201526f466c657869626c65205374616b696e6760801b60808201528360208201526103206040820152a260016000805160206200306a83398151915260a060405160608152600b60608201526a33302d446179204c6f636b60a81b608082015262278d0060208201526104b06040820152a260026000805160206200306a83398151915260a060405160608152600b60608201526a39302d446179204c6f636b60a81b60808201526276a70060208201526107086040820152a260036000805160206200306a83398151915260a060405160608152600b60608201526a312d59656172204c6f636b60a81b60808201526301e1338060208201526109c46040820152a2604051612600908162000a4a8239608051818181610ba501528181610d24015281816110d1015281816113090152611699015260a0518181816101f701528181610355015281816114f901526123ce0152f35b60405162461bcd60e51b815260206004820152601e60248201527f424c4f434b535374616b696e6756323a20496e76616c69642061646d696e00006044820152606490fd5b60405162461bcd60e51b815260206004820152602560248201527f424c4f434b535374616b696e6756323a20496e76616c696420726577617264206044820152643a37b5b2b760d91b6064820152608490fd5b60405162461bcd60e51b815260206004820152602660248201527f424c4f434b535374616b696e6756323a20496e76616c6964207374616b696e67604482015265103a37b5b2b760d11b6064820152608490fd5b600080fd5b634e487b7160e01b600052604160045260246000fd5b6040519061012082016001600160401b038111838210176200054f57604052565b60408051919082016001600160401b038111838210176200054f57604052565b51906001600160a01b03821682036200054a57565b6001600160a01b031660008181527fad3228b676f7d3cd4284a5443f17f1962b36e491b30a40b2405849e597ba5fb5602052604081205490919060ff166200063757818052816020526040822081835260205260408220600160ff1982541617905533916000805160206200304a8339815191528180a4600190565b5090565b6001600160a01b031660008181527f729ef9451dd492832bd2a98139702ced95dfa0cec7e99526dbbcb957abcbc47660205260408120549091907f6077685936c8169d09204a1d97db12e41713588c38e1d29a61867d3dcee98aff9060ff16620006d857808352826020526040832082845260205260408320600160ff198254161790556000805160206200304a833981519152339380a4600190565b505090565b6001600160a01b031660008181527f9e607de338c7d6508550727646d2998939f27517879a7dd916362b3520e3948760205260408120549091907fb814ff4a26ea3ec5cd1fa579daad86324826254265f3acfec78303a19845b4499060ff16620006d857808352826020526040832082845260205260408320600160ff198254161790556000805160206200304a833981519152339380a4600190565b6001600160a01b031660008181527f3c1b1854ab1360abbb06c8d4c6b2672d4b8cedc5eff522ab19e51d5cb8fdbd4660205260408120549091907fbf233dd2aafeb4d50879c4aa5c81e96d92f6e6945c906a58f9f2d1c1631b4b269060ff16620006d857808352826020526040832082845260205260408320600160ff198254161790556000805160206200304a833981519152339380a4600190565b90600654680100000000000000008110156200054f576001928382018060065582101562000a33576006600090815281518051909560099094027ff652222313e28459528d920b65115c16c04f3efc82aaedc97be59f3f377c0d3f019391602091906001600160401b03821162000a1f5785548481811c9116801562000a14575b8482101462000a0057601f8111620009b5575b508290601f83116001146200094857918091600897989961010097969594926200093c575b5050600019600383901b1c191690831b1786555b8201519085015560408101516002850155606081015160038501556080810151600485015560a0810151600585015560c0810151600685015560e08101511515600785019060ff801983541691161790550151910155565b015190503880620008d0565b90601f198316878352848320925b8181106200099f5750918391600898999a8796956101009998951062000985575b505050811b018655620008e4565b015160001960f88460031b161c1916905538808062000977565b8a83015184559286019291850191850162000956565b868252838220601f840160051c810191858510620009f5575b601f0160051c019085905b828110620009e9575050620008ab565b838155018590620009d9565b9091508190620009ce565b634e487b7160e01b82526022600452602482fd5b90607f169062000898565b634e487b7160e01b81526041600452602490fd5b634e487b7160e01b600052603260045260246000fdfe608080604052600436101561001357600080fd5b60003560e01c908162a47ddd14611b345750806301ffc9a714611ade5780630962ef7914611aa45780630b83a727146119c65780630b907ece1461199a57806320df43591461195f578063248a9ca3146119305780632f2ff15d146118f157806332e4bb0a146118b657806336568abe1461186f578063376582f7146117ba57806339a623951461179c5780633a107739146117625780633f4ba83a146116f857806342b58a821461156857806356d735681461152d57806359974e38146114545780635aad6cf0146113ab5780635c975abb146113885780636290c0901461133857806372f702f3146112f35780637b0472f014611022578063817b1cd2146110045780638456cb5914610faa5780638aabb08214610f5257806391d1485414610f055780639251f8b514610e5157806395ccea6714610c9a57806399956b9d14610c6e5780639e2c8a5b14610ac1578063a166a201146105f2578063a217fddf146105d6578063a8c478ba146104e0578063cec695fa1461042a578063d547741f146103e9578063dfe6b5d61461031a578063e4e7c6b4146102eb578063e899052414610267578063ee17254614610249578063f525cb681461022b5763f7c618c1146101e157600080fd5b34610226576000366003190112610226576040517f00000000000000000000000000000000000000000000000000000000000000006001600160a01b03168152602090f35b600080fd5b34610226576000366003190112610226576020600654604051908152f35b34610226576000366003190112610226576020600454604051908152f35b3461022657604036600319011261022657610280611b77565b600435600052600760205260406000209060018060a01b031660005260205260c06040600020805490600181015490600281015460038201549060ff6005600485015494015416936040519586526020860152604085015260608401526080830152151560a0820152f35b34610226576040366003190112610226576020610312610309611b8d565b60243590611f79565b604051908152f35b3461022657600036600319011261022657600354600480546006546040516370a0823160e01b815230938101939093529192916020846024817f00000000000000000000000000000000000000000000000000000000000000006001600160a01b03165afa9182156103dd576000926103a9575b60809450604051938452602084015260408301526060820152f35b91506020843d82116103d5575b816103c360209383611c7d565b8101031261022657608093519161038e565b3d91506103b6565b6040513d6000823e3d90fd5b3461022657604036600319011261022657610428600435610408611b77565b90806000526000602052610423600160406000200154611e33565b611ed7565b005b346102265760403660031901126102265760a0610445611b8d565b602435908160005260076020526040600020600180851b038216600052602052604060002060405161047681611c61565b6104bf8254948583526001840154948560208501526002850154938860ff60056040840198888a5260038101546060860152600481015460808601520154161515910152611f79565b91514210926040519485526020850152604084015260608301526080820152f35b3461022657602080600319360112610226576104fa611b8d565b6001600160a01b038116600081815260088452604080822090518154808252918352858320939490939091849081880190855b898282106105c05750505061054492500384611c7d565b60005b83518110156105b65761055a81856124f3565b5160005260078652604060002085600052865260ff6005604060002001541661058c575b6105879061240f565b610547565b916105ae610587916105a86105a186886124f3565b5185611f79565b90611f6c565b92905061057e565b8583604051908152f35b855484526001958601958995509301920161052d565b3461022657600036600319011261022657602060405160008152f35b346102265760e03660031901126102265760043567ffffffffffffffff80821161022657366023830112156102265781600401358181116109045760405192610645601f8301601f191660200185611c7d565b81845236602483830101116102265781600092602460209301838701378401015260643560c43560a43560843561067a611d9d565b855115610a6957612710610692816044351115612507565b8415610a065784821061099b576106ab90831015612563565b611388831161093057604051936106c185611c44565b8685526024356020860152604435604086015260608501526080840152600060a084015260c0830152600160e0830152610100820152600654600160401b811015610904578060016107169201600655611bb9565b92909261091a5781518051918211610904576107328454611c0a565b601f81116108c0575b50602090601f83116001146108505791806008949261010094600092610845575b50508160011b916000199060031b1c19161784555b6020810151600185015560408101516002850155606081015160038501556080810151600485015560a0810151600585015560c081015160068501556107cc60e08201511515600786019060ff801983541691151516179055565b015191015560065460001981019190821161082f5761081a7fd6a5afaab19aa08059d2a773896ae3716587b8cb7dd9ffa3989de36e7ce8d6a391604051918291606083526060830190611d45565b602435602083015260443560408301520390a2005b634e487b7160e01b600052601160045260246000fd5b01519050878061075c565b908460005260206000209160005b601f19851681106108a8575092600894926001926101009583601f1981161061088f575b505050811b018455610771565b015160001960f88460031b161c19169055878080610882565b9192602060018192868501518155019401920161085e565b846000526020600020601f840160051c8101602085106108fd575b601f830160051c820181106108f157505061073b565b600081556001016108db565b50806108db565b634e487b7160e01b600052604160045260246000fd5b634e487b7160e01b600052600060045260246000fd5b60405162461bcd60e51b815260206004820152603960248201527f424c4f434b535374616b696e6756323a20456d657267656e637920657869742060448201527f70656e616c74792063616e6e6f742065786365656420353025000000000000006064820152608490fd5b60405162461bcd60e51b815260206004820152603760248201527f424c4f434b535374616b696e6756323a204d6178696d756d207374616b65206d60448201527f757374206265203e3d206d696e696d756d207374616b650000000000000000006064820152608490fd5b60405162461bcd60e51b815260206004820152603560248201527f424c4f434b535374616b696e6756323a204d696e696d756d207374616b65206d60448201527407573742062652067726561746572207468616e203605c1b6064820152608490fd5b60405162461bcd60e51b815260206004820152602a60248201527f424c4f434b535374616b696e6756323a20506f6f6c206e616d652063616e6e6f6044820152697420626520656d70747960b01b6064820152608490fd5b3461022657610acf36611ba3565b610ad761222a565b610adf612248565b610aec60065483106120cb565b610af7811515612116565b81600052600760205260406000203360005260205260406000206005810190610b2360ff83541661226b565b610b3083825410156122b6565b60028101544210610c1a57610b458433612366565b610b50838254611f4c565b80915515610c02575b506005610b6583611bb9565b5001610b72828254611f4c565b9055610b8081600354611f4c565b6003553360005260096020526040600020610b9c828254611f4c565b9055610bc981337f0000000000000000000000000000000000000000000000000000000000000000612316565b604051908152600060208201527f204fccf0d92ed8d48f204adb39b2e81e92bad0dedb93f5716ca9478cfb57de0060403392a360018055005b805460ff19169055610c14823361241e565b82610b59565b60405162461bcd60e51b815260206004820152602660248201527f424c4f434b535374616b696e6756323a205374616b65206973207374696c6c206044820152651b1bd8dad95960d21b6064820152608490fd5b3461022657602036600319011261022657600435600052600b6020526020604060002054604051908152f35b3461022657604036600319011261022657610cb3611b8d565b3360009081527f3c1b1854ab1360abbb06c8d4c6b2672d4b8cedc5eff522ab19e51d5cb8fdbd4660209081526040909120549091602435917fbf233dd2aafeb4d50879c4aa5c81e96d92f6e6945c906a58f9f2d1c1631b4b269060ff1615610e3357506001600160a01b03908116907f0000000000000000000000000000000000000000000000000000000000000000168181148015918591610dc0575b505015610d645761042892503390612316565b60405162461bcd60e51b815260048101849052602e60248201527f424c4f434b535374616b696e6756323a2043616e6e6f7420776974686472617760448201526d207374616b656420746f6b656e7360901b6064820152608490fd5b6040516370a0823160e01b81523060048201529250829060249082905afa80156103dd57600090610e04575b610dfa915060035490611f4c565b8211158385610d51565b508381813d8311610e2c575b610e1a8183611c7d565b8101031261022657610dfa9051610dec565b503d610e10565b6044906040519063e2517d3f60e01b82523360048301526024820152fd5b3461022657602080600319360112610226576001600160a01b03610e73611b8d565b1660005260088152604060002060405190818382549182815201908192600052846000209060005b86828210610ef1578686610eb182880383611c7d565b604051928392818401908285525180915260408401929160005b828110610eda57505050500390f35b835185528695509381019392810192600101610ecb565b835485529093019260019283019201610e9b565b3461022657604036600319011261022657610f1e611b77565b600435600052600060205260406000209060018060a01b0316600052602052602060ff604060002054166040519015158152f35b3461022657604036600319011261022657610f6b611b8d565b6001600160a01b031660009081526008602052604090208054602435919082101561022657602091610f9c91611d85565b90546040519160031b1c8152f35b3461022657600036600319011261022657610fc3611df9565b610fcb61222a565b600160ff1960025416176002557f62e78cea01bee320cd4e420270b5ea74000d11b0c9f74754ebdbfc544b05a2586020604051338152a1005b34610226576000366003190112610226576020600354604051908152f35b346102265761103036611ba3565b61103861222a565b611040612248565b61104d60065483106120cb565b611058811515612116565b61106182611bb9565b5060ff600782015416156112a2576003810154821061124957826000526020906007825260406000203360005282526040600020906110a1848354611f6c565b6004820154106111ee57600582019060ff82541660001461119d576005916110c98733612366565b6110f58630337f0000000000000000000000000000000000000000000000000000000000000000612179565b611100868554611f6c565b8455426001850155611116600183015442611f6c565b9360028101948555600342910155600160ff198254161790550161113b848254611f6c565b905561114983600354611f6c565b60035533600052600982526040600020611164848254611f6c565b905554906040519283528201527fb4caaf29adda3eefee3ad552a8e85058589bf834c7466cae4ee58787f70589ed60403392a360018055005b3360005260088452604060002091825492600160401b84101561090457876111d0856111e9936001600598018155611d85565b90919082549060031b91821b91600019901b1916179055565b6110c9565b60405162461bcd60e51b815260048101849052602d60248201527f424c4f434b535374616b696e6756323a20416d6f756e7420657863656564732060448201526c6d6178696d756d207374616b6560981b6064820152608490fd5b60405162461bcd60e51b815260206004820152602b60248201527f424c4f434b535374616b696e6756323a20416d6f756e742062656c6f77206d6960448201526a6e696d756d207374616b6560a81b6064820152608490fd5b60405162461bcd60e51b815260206004820152602360248201527f424c4f434b535374616b696e6756323a20506f6f6c206973206e6f742061637460448201526269766560e81b6064820152608490fd5b34610226576000366003190112610226576040517f00000000000000000000000000000000000000000000000000000000000000006001600160a01b03168152602090f35b3461022657604036600319011261022657611351611b8d565b602435600052600760205260406000209060018060a01b0316600052602052602060ff600560406000200154166040519015158152f35b3461022657600036600319011261022657602060ff600254166040519015158152f35b3461022657602036600319011261022657600435600654811015610226576113d561142491611bb9565b506113df81611c9f565b9060018101549060028101549060038101546004820154600583015490600684015492600860ff60078701541695015495604051998a99610120808c528b0190611d45565b9760208a015260408901526060880152608087015260a086015260c0850152151560e08401526101008301520390f35b34610226576020366003190112610226573360009081527f9e607de338c7d6508550727646d2998939f27517879a7dd916362b3520e394876020526040902054600435907fb814ff4a26ea3ec5cd1fa579daad86324826254265f3acfec78303a19845b4499060ff1615610e33577f29e98ba00d07f171959c4ddcd2f3020debc7c52cf537a034d7e664340d098c6c6040836114f1811515612116565b61151d8130337f0000000000000000000000000000000000000000000000000000000000000000612179565b60055482519182526020820152a1005b346102265760003660031901126102265760206040517f6077685936c8169d09204a1d97db12e41713588c38e1d29a61867d3dcee98aff8152f35b346102265761157636611ba3565b61157e61222a565b611586612248565b61159360065483106120cb565b61159e811515612116565b8160005260076020526040600020336000526020526040600020600581016115c960ff82541661226b565b6115d683835410156122b6565b6115df84611bb9565b50600091600284015442106116db575b600592936115fd8733612366565b611608868254611f4c565b809155156116c3575b500161161e838254611f4c565b905561162c82600354611f4c565b6003553360005260096020526040600020611648838254611f4c565b90556116548183611f4c565b80611692575b5060405191825260208201527fef2ec7ade2d89c8b9c114f5a682d19fc527f3e9e3d38afaf890a584d2107f30f60403392a360018055005b6116bd90337f0000000000000000000000000000000000000000000000000000000000000000612316565b8361165a565b805460ff191690556116d5853361241e565b85611611565b600592506127106116f0600884015487611f59565b0492506115ef565b3461022657600036600319011261022657611711611df9565b60025460ff8116156117505760ff19166002557f5db9ee0a495bf2e6ff9c91a7834c1ba4fdd244a5e8aa4e537bd38aeae4b073aa6020604051338152a1005b604051638dfc202b60e01b8152600490fd5b34610226576020366003190112610226576001600160a01b03611783611b8d565b1660005260096020526020604060002054604051908152f35b34610226576000366003190112610226576020600554604051908152f35b34610226576080366003190112610226576004356044356064356024358115158083036102265761186260409360077fec70f7b7f8beefa9ff0456053baafec83986e3915f156e2ed04b0acb57d7dd5596611813611d9d565b6118206006548a106120cb565b61183a61271061183281891115612507565b821015612563565b61184389611bb9565b50908660028301556006820155019060ff801983541691151516179055565b82519182526020820152a2005b3461022657604036600319011261022657611888611b77565b336001600160a01b038216036118a45761042890600435611ed7565b60405163334bd91960e11b8152600490fd5b346102265760003660031901126102265760206040517fb814ff4a26ea3ec5cd1fa579daad86324826254265f3acfec78303a19845b4498152f35b3461022657604036600319011261022657610428600435611910611b77565b9080600052600060205261192b600160406000200154611e33565b611e59565b346102265760203660031901126102265760043560005260006020526020600160406000200154604051908152f35b346102265760003660031901126102265760206040517fbf233dd2aafeb4d50879c4aa5c81e96d92f6e6945c906a58f9f2d1c1631b4b268152f35b3461022657602036600319011261022657600435600052600a6020526020604060002054604051908152f35b34610226576000366003190112610226576119df61222a565b6119e7612248565b33600052602060088152604060002090604051808383829554938481520190600052836000209260005b85828210611a8e57505050611a2892500383611c7d565b60005b8251811015611a885780611a42611a6a92856124f3565b5160005260078352604060002033600052835260ff60056040600020015416611a6f5761240f565b611a2b565b611a83611a7c82866124f3565b5133612366565b61240f565b60018055005b8554845260019586019588955093019201611a11565b3461022657602036600319011261022657611a88600435611ac361222a565b611acb612248565b611ad860065482106120cb565b33612366565b346102265760203660031901126102265760043563ffffffff60e01b811680910361022657602090637965db0b60e01b8114908115611b23575b506040519015158152f35b6301ffc9a760e01b14905082611b18565b3461022657604036600319011261022657602090611b50611b77565b6004356000908152600c845260408082206001600160a01b03909316825291845220548152f35b602435906001600160a01b038216820361022657565b600435906001600160a01b038216820361022657565b6040906003190112610226576004359060243590565b600654811015611bf4576009906006600052027ff652222313e28459528d920b65115c16c04f3efc82aaedc97be59f3f377c0d3f0190600090565b634e487b7160e01b600052603260045260246000fd5b90600182811c92168015611c3a575b6020831014611c2457565b634e487b7160e01b600052602260045260246000fd5b91607f1691611c19565b610120810190811067ffffffffffffffff82111761090457604052565b60c0810190811067ffffffffffffffff82111761090457604052565b90601f8019910116810190811067ffffffffffffffff82111761090457604052565b9060405191826000825492611cb384611c0a565b908184526001948581169081600014611d225750600114611cdf575b5050611cdd92500383611c7d565b565b9093915060005260209081600020936000915b818310611d0a575050611cdd93508201013880611ccf565b85548884018501529485019487945091830191611cf2565b915050611cdd94506020925060ff191682840152151560051b8201013880611ccf565b919082519283825260005b848110611d71575050826000602080949584010152601f8019910116010190565b602081830181015184830182015201611d50565b8054821015611bf45760005260206000200190600090565b3360009081527f729ef9451dd492832bd2a98139702ced95dfa0cec7e99526dbbcb957abcbc47660205260409020547f6077685936c8169d09204a1d97db12e41713588c38e1d29a61867d3dcee98aff9060ff1615610e335750565b3360009081527fad3228b676f7d3cd4284a5443f17f1962b36e491b30a40b2405849e597ba5fb5602052604081205460ff1615610e335750565b80600052600060205260406000203360005260205260ff6040600020541615610e335750565b9060009180835282602052604083209160018060a01b03169182845260205260ff60408420541615600014611ed257808352826020526040832082845260205260408320600160ff198254161790557f2f8788117e7eff1d82e926ec794901d17c78024a50270940304540a733656f0d339380a4600190565b505090565b9060009180835282602052604083209160018060a01b03169182845260205260ff604084205416600014611ed25780835282602052604083208284526020526040832060ff1981541690557ff6391f5c32d9c69d2a47ea670b442974b53935d1edc7fd64eb21e047a839171b339380a4600190565b9190820391821161082f57565b8181029291811591840414171561082f57565b9190820180921161082f57565b816000526007602052604090816000209060018060a01b03166000526020528060002090805192611fa984611c61565b8254808552600184015460208601526002840154838601526003840154906060860191825260ff60056004870154966080890197885201541615908115918260a0890152916120c2575b506120b8576301e133806120a46120b59661208b6120136120ad96611bb9565b5094875161202081611c44565b61202987611c9f565b81526001870154602082015260028701549881019889526003870154606082015260048701546080820152600587015460a0820152610100600860068901549860c08401998a5260ff600782015416151560e085015201549101525142611f4c565b90519561209e6127109788925190611f59565b04611f59565b04905190611f59565b049051611f6c565b90565b5050505050600090565b90501538611ff3565b156120d257565b606460405162461bcd60e51b815260206004820152602060248201527f424c4f434b535374616b696e6756323a20496e76616c696420706f6f6c2049446044820152fd5b1561211d57565b60405162461bcd60e51b815260206004820152602e60248201527f424c4f434b535374616b696e6756323a20416d6f756e74206d7573742062652060448201526d067726561746572207468616e20360941b6064820152608490fd5b6040516323b872dd60e01b60208201526001600160a01b03928316602482015292909116604483015260648083019390935291815260a081019181831067ffffffffffffffff84111761090457611cdd926040525b906000602091828151910182855af1156103dd576000513d61222157506001600160a01b0381163b155b6121ff5750565b604051635274afe760e01b81526001600160a01b039091166004820152602490fd5b600114156121f8565b60ff6002541661223657565b60405163d93c066560e01b8152600490fd5b600260015414612259576002600155565b604051633ee5aeb560e01b8152600490fd5b1561227257565b606460405162461bcd60e51b815260206004820152602060248201527f424c4f434b535374616b696e6756323a204e6f20616374697665207374616b656044820152fd5b156122bd57565b60405162461bcd60e51b815260206004820152602b60248201527f424c4f434b535374616b696e6756323a20496e73756666696369656e7420737460448201526a185ad95908185b5bdd5b9d60aa1b6064820152608490fd5b60405163a9059cbb60e01b60208201526001600160a01b039092166024830152604480830193909352918152608081019167ffffffffffffffff83118284101761090457611cdd926040526121ce565b6123708282611f79565b801561240a5760207fdacbdde355ba930696a362ea6738feb9f8bd52dfb3d81947558fd3217e23e3259184600052600782526123f28160406000209560018060a01b03811696876000528552600060046040822042600382015501557f0000000000000000000000000000000000000000000000000000000000000000612316565b6123fe81600454611f6c565b600455604051908152a3565b505050565b600019811461082f5760010190565b6001600160a01b03166000908152600860205260408120909190825b8154808210156124ec5783906124508385611d85565b929054600393841b1c1461246e5750506124699061240f565b61243a565b9293509390600019928381019081116124d857906111d061249261249f9387611d85565b905490881b1c9186611d85565b82549081156124c457508101926124b68484611d85565b81939154921b1b1916905555565b634e487b7160e01b81526031600452602490fd5b634e487b7160e01b83526011600452602483fd5b5050505050565b8051821015611bf45760209160051b010190565b1561250e57565b60405162461bcd60e51b815260206004820152602760248201527f424c4f434b535374616b696e6756323a204150592063616e6e6f7420657863656044820152666564203130302560c81b6064820152608490fd5b1561256a57565b60405162461bcd60e51b815260206004820152603260248201527f424c4f434b535374616b696e6756323a20526577617264206d756c7469706c696044820152716572206d757374206265203e3d203130302560701b6064820152608490fdfea26469706673582212203197ce5bc21689ec3a9cce389b1baa4e6d428bd8f5827b28678e2665776f788e64736f6c634300081400332f8788117e7eff1d82e926ec794901d17c78024a50270940304540a733656f0dd6a5afaab19aa08059d2a773896ae3716587b8cb7dd9ffa3989de36e7ce8d6a3","opcodes":"PUSH1 0xC0 CALLVALUE PUSH3 0x54A JUMPI PUSH1 0x1F PUSH3 0x308A CODESIZE DUP2 SWAP1 SUB SWAP2 DUP3 ADD PUSH1 0x1F NOT AND DUP4 ADD SWAP2 PUSH1 0x1 PUSH1 0x1 PUSH1 0x40 SHL SUB DUP4 GT DUP5 DUP5 LT OR PUSH3 0x54F JUMPI DUP1 DUP5 SWAP3 PUSH1 0x60 SWAP5 PUSH1 0x40 MSTORE DUP4 CODECOPY DUP2 ADD SUB SLT PUSH3 0x54A JUMPI PUSH3 0x4D DUP2 PUSH3 0x5A6 JUMP JUMPDEST PUSH3 0x69 PUSH1 0x40 PUSH3 0x61 PUSH1 0x20 DUP6 ADD PUSH3 0x5A6 JUMP JUMPDEST SWAP4 ADD PUSH3 0x5A6 JUMP JUMPDEST PUSH1 0x1 DUP1 SSTORE PUSH1 0x1 PUSH1 0x1 PUSH1 0xA0 SHL SUB SWAP2 DUP3 AND SWAP3 SWAP1 SWAP2 SWAP1 DUP4 ISZERO PUSH3 0x4F6 JUMPI DUP2 AND SWAP1 DUP2 ISZERO PUSH3 0x4A3 JUMPI DUP3 AND ISZERO PUSH3 0x45E JUMPI PUSH3 0xCA SWAP3 PUSH1 0x80 MSTORE PUSH1 0xA0 MSTORE PUSH3 0xAB DUP2 PUSH3 0x5BB JUMP JUMPDEST POP PUSH3 0xB7 DUP2 PUSH3 0x63B JUMP JUMPDEST POP PUSH3 0xC3 DUP2 PUSH3 0x6DD JUMP JUMPDEST POP PUSH3 0x77A JUMP JUMPDEST POP PUSH3 0x153 PUSH3 0xD9 PUSH3 0x565 JUMP JUMPDEST PUSH3 0xE3 PUSH3 0x586 JUMP JUMPDEST PUSH1 0x10 DUP2 MSTORE PUSH16 0x466C657869626C65205374616B696E67 PUSH1 0x80 SHL PUSH1 0x20 DUP3 ADD MSTORE DUP2 MSTORE PUSH1 0x0 PUSH1 0x20 DUP3 ADD MSTORE PUSH2 0x320 PUSH1 0x40 DUP3 ADD MSTORE PUSH8 0xDE0B6B3A7640000 PUSH1 0x60 DUP3 ADD MSTORE PUSH10 0xD3C21BCECCEDA1000000 PUSH1 0x80 DUP3 ADD MSTORE PUSH1 0x0 PUSH1 0xA0 DUP3 ADD MSTORE PUSH2 0x2710 PUSH1 0xC0 DUP3 ADD MSTORE PUSH1 0x1 PUSH1 0xE0 DUP3 ADD MSTORE PUSH1 0x0 PUSH2 0x100 DUP3 ADD MSTORE PUSH3 0x817 JUMP JUMPDEST PUSH3 0x1D9 PUSH3 0x161 PUSH3 0x565 JUMP JUMPDEST PUSH3 0x16B PUSH3 0x586 JUMP JUMPDEST PUSH1 0xB DUP2 MSTORE PUSH11 0x33302D446179204C6F636B PUSH1 0xA8 SHL PUSH1 0x20 DUP3 ADD MSTORE DUP2 MSTORE PUSH3 0x278D00 PUSH1 0x20 DUP3 ADD MSTORE PUSH2 0x4B0 PUSH1 0x40 DUP3 ADD MSTORE PUSH8 0x8AC7230489E80000 PUSH1 0x60 DUP3 ADD MSTORE PUSH10 0xD3C21BCECCEDA1000000 PUSH1 0x80 DUP3 ADD MSTORE PUSH1 0x0 PUSH1 0xA0 DUP3 ADD MSTORE PUSH2 0x2CEC PUSH1 0xC0 DUP3 ADD MSTORE PUSH1 0x1 PUSH1 0xE0 DUP3 ADD MSTORE PUSH2 0x1F4 PUSH2 0x100 DUP3 ADD MSTORE PUSH3 0x817 JUMP JUMPDEST PUSH3 0x260 PUSH3 0x1E7 PUSH3 0x565 JUMP JUMPDEST PUSH3 0x1F1 PUSH3 0x586 JUMP JUMPDEST PUSH1 0xB DUP2 MSTORE PUSH11 0x39302D446179204C6F636B PUSH1 0xA8 SHL PUSH1 0x20 DUP3 ADD MSTORE DUP2 MSTORE PUSH3 0x76A700 PUSH1 0x20 DUP3 ADD MSTORE PUSH2 0x708 PUSH1 0x40 DUP3 ADD MSTORE PUSH9 0x2B5E3AF16B1880000 PUSH1 0x60 DUP3 ADD MSTORE PUSH10 0xD3C21BCECCEDA1000000 PUSH1 0x80 DUP3 ADD MSTORE PUSH1 0x0 PUSH1 0xA0 DUP3 ADD MSTORE PUSH2 0x32C8 PUSH1 0xC0 DUP3 ADD MSTORE PUSH1 0x1 PUSH1 0xE0 DUP3 ADD MSTORE PUSH2 0x3E8 PUSH2 0x100 DUP3 ADD MSTORE PUSH3 0x817 JUMP JUMPDEST PUSH3 0x2E8 PUSH3 0x26E PUSH3 0x565 JUMP JUMPDEST PUSH3 0x278 PUSH3 0x586 JUMP JUMPDEST PUSH1 0xB DUP2 MSTORE PUSH11 0x312D59656172204C6F636B PUSH1 0xA8 SHL PUSH1 0x20 DUP3 ADD MSTORE DUP2 MSTORE PUSH4 0x1E13380 PUSH1 0x20 DUP3 ADD MSTORE PUSH2 0x9C4 PUSH1 0x40 DUP3 ADD MSTORE PUSH9 0x56BC75E2D63100000 PUSH1 0x60 DUP3 ADD MSTORE PUSH10 0xD3C21BCECCEDA1000000 PUSH1 0x80 DUP3 ADD MSTORE PUSH1 0x0 PUSH1 0xA0 DUP3 ADD MSTORE PUSH2 0x3A98 PUSH1 0xC0 DUP3 ADD MSTORE PUSH1 0x1 PUSH1 0xE0 DUP3 ADD MSTORE PUSH2 0x7D0 PUSH2 0x100 DUP3 ADD MSTORE PUSH3 0x817 JUMP JUMPDEST PUSH1 0x0 PUSH1 0x0 DUP1 MLOAD PUSH1 0x20 PUSH3 0x306A DUP4 CODECOPY DUP2 MLOAD SWAP2 MSTORE PUSH1 0xA0 PUSH1 0x40 MLOAD PUSH1 0x60 DUP2 MSTORE PUSH1 0x10 PUSH1 0x60 DUP3 ADD MSTORE PUSH16 0x466C657869626C65205374616B696E67 PUSH1 0x80 SHL PUSH1 0x80 DUP3 ADD MSTORE DUP4 PUSH1 0x20 DUP3 ADD MSTORE PUSH2 0x320 PUSH1 0x40 DUP3 ADD MSTORE LOG2 PUSH1 0x1 PUSH1 0x0 DUP1 MLOAD PUSH1 0x20 PUSH3 0x306A DUP4 CODECOPY DUP2 MLOAD SWAP2 MSTORE PUSH1 0xA0 PUSH1 0x40 MLOAD PUSH1 0x60 DUP2 MSTORE PUSH1 0xB PUSH1 0x60 DUP3 ADD MSTORE PUSH11 0x33302D446179204C6F636B PUSH1 0xA8 SHL PUSH1 0x80 DUP3 ADD MSTORE PUSH3 0x278D00 PUSH1 0x20 DUP3 ADD MSTORE PUSH2 0x4B0 PUSH1 0x40 DUP3 ADD MSTORE LOG2 PUSH1 0x2 PUSH1 0x0 DUP1 MLOAD PUSH1 0x20 PUSH3 0x306A DUP4 CODECOPY DUP2 MLOAD SWAP2 MSTORE PUSH1 0xA0 PUSH1 0x40 MLOAD PUSH1 0x60 DUP2 MSTORE PUSH1 0xB PUSH1 0x60 DUP3 ADD MSTORE PUSH11 0x39302D446179204C6F636B PUSH1 0xA8 SHL PUSH1 0x80 DUP3 ADD MSTORE PUSH3 0x76A700 PUSH1 0x20 DUP3 ADD MSTORE PUSH2 0x708 PUSH1 0x40 DUP3 ADD MSTORE LOG2 PUSH1 0x3 PUSH1 0x0 DUP1 MLOAD PUSH1 0x20 PUSH3 0x306A DUP4 CODECOPY DUP2 MLOAD SWAP2 MSTORE PUSH1 0xA0 PUSH1 0x40 MLOAD PUSH1 0x60 DUP2 MSTORE PUSH1 0xB PUSH1 0x60 DUP3 ADD MSTORE PUSH11 0x312D59656172204C6F636B PUSH1 0xA8 SHL PUSH1 0x80 DUP3 ADD MSTORE PUSH4 0x1E13380 PUSH1 0x20 DUP3 ADD MSTORE PUSH2 0x9C4 PUSH1 0x40 DUP3 ADD MSTORE LOG2 PUSH1 0x40 MLOAD PUSH2 0x2600 SWAP1 DUP2 PUSH3 0xA4A DUP3 CODECOPY PUSH1 0x80 MLOAD DUP2 DUP2 DUP2 PUSH2 0xBA5 ADD MSTORE DUP2 DUP2 PUSH2 0xD24 ADD MSTORE DUP2 DUP2 PUSH2 0x10D1 ADD MSTORE DUP2 DUP2 PUSH2 0x1309 ADD MSTORE PUSH2 0x1699 ADD MSTORE PUSH1 0xA0 MLOAD DUP2 DUP2 DUP2 PUSH2 0x1F7 ADD MSTORE DUP2 DUP2 PUSH2 0x355 ADD MSTORE DUP2 DUP2 PUSH2 0x14F9 ADD MSTORE PUSH2 0x23CE ADD MSTORE RETURN JUMPDEST PUSH1 0x40 MLOAD PUSH3 0x461BCD PUSH1 0xE5 SHL DUP2 MSTORE PUSH1 0x20 PUSH1 0x4 DUP3 ADD MSTORE PUSH1 0x1E PUSH1 0x24 DUP3 ADD MSTORE PUSH32 0x424C4F434B535374616B696E6756323A20496E76616C69642061646D696E0000 PUSH1 0x44 DUP3 ADD MSTORE PUSH1 0x64 SWAP1 REVERT JUMPDEST PUSH1 0x40 MLOAD PUSH3 0x461BCD PUSH1 0xE5 SHL DUP2 MSTORE PUSH1 0x20 PUSH1 0x4 DUP3 ADD MSTORE PUSH1 0x25 PUSH1 0x24 DUP3 ADD MSTORE PUSH32 0x424C4F434B535374616B696E6756323A20496E76616C69642072657761726420 PUSH1 0x44 DUP3 ADD MSTORE PUSH5 0x3A37B5B2B7 PUSH1 0xD9 SHL PUSH1 0x64 DUP3 ADD MSTORE PUSH1 0x84 SWAP1 REVERT JUMPDEST PUSH1 0x40 MLOAD PUSH3 0x461BCD PUSH1 0xE5 SHL DUP2 MSTORE PUSH1 0x20 PUSH1 0x4 DUP3 ADD MSTORE PUSH1 0x26 PUSH1 0x24 DUP3 ADD MSTORE PUSH32 0x424C4F434B535374616B696E6756323A20496E76616C6964207374616B696E67 PUSH1 0x44 DUP3 ADD MSTORE PUSH6 0x103A37B5B2B7 PUSH1 0xD1 SHL PUSH1 0x64 DUP3 ADD MSTORE PUSH1 0x84 SWAP1 REVERT JUMPDEST PUSH1 0x0 DUP1 REVERT JUMPDEST PUSH4 0x4E487B71 PUSH1 0xE0 SHL PUSH1 0x0 MSTORE PUSH1 0x41 PUSH1 0x4 MSTORE PUSH1 0x24 PUSH1 0x0 REVERT JUMPDEST PUSH1 0x40 MLOAD SWAP1 PUSH2 0x120 DUP3 ADD PUSH1 0x1 PUSH1 0x1 PUSH1 0x40 SHL SUB DUP2 GT DUP4 DUP3 LT OR PUSH3 0x54F JUMPI PUSH1 0x40 MSTORE JUMP JUMPDEST PUSH1 0x40 DUP1 MLOAD SWAP2 SWAP1 DUP3 ADD PUSH1 0x1 PUSH1 0x1 PUSH1 0x40 SHL SUB DUP2 GT DUP4 DUP3 LT OR PUSH3 0x54F JUMPI PUSH1 0x40 MSTORE JUMP JUMPDEST MLOAD SWAP1 PUSH1 0x1 PUSH1 0x1 PUSH1 0xA0 SHL SUB DUP3 AND DUP3 SUB PUSH3 0x54A JUMPI JUMP JUMPDEST PUSH1 0x1 PUSH1 0x1 PUSH1 0xA0 SHL SUB AND PUSH1 0x0 DUP2 DUP2 MSTORE PUSH32 0xAD3228B676F7D3CD4284A5443F17F1962B36E491B30A40B2405849E597BA5FB5 PUSH1 0x20 MSTORE PUSH1 0x40 DUP2 KECCAK256 SLOAD SWAP1 SWAP2 SWAP1 PUSH1 0xFF AND PUSH3 0x637 JUMPI DUP2 DUP1 MSTORE DUP2 PUSH1 0x20 MSTORE PUSH1 0x40 DUP3 KECCAK256 DUP2 DUP4 MSTORE PUSH1 0x20 MSTORE PUSH1 0x40 DUP3 KECCAK256 PUSH1 0x1 PUSH1 0xFF NOT DUP3 SLOAD AND OR SWAP1 SSTORE CALLER SWAP2 PUSH1 0x0 DUP1 MLOAD PUSH1 0x20 PUSH3 0x304A DUP4 CODECOPY DUP2 MLOAD SWAP2 MSTORE DUP2 DUP1 LOG4 PUSH1 0x1 SWAP1 JUMP JUMPDEST POP SWAP1 JUMP JUMPDEST PUSH1 0x1 PUSH1 0x1 PUSH1 0xA0 SHL SUB AND PUSH1 0x0 DUP2 DUP2 MSTORE PUSH32 0x729EF9451DD492832BD2A98139702CED95DFA0CEC7E99526DBBCB957ABCBC476 PUSH1 0x20 MSTORE PUSH1 0x40 DUP2 KECCAK256 SLOAD SWAP1 SWAP2 SWAP1 PUSH32 0x6077685936C8169D09204A1D97DB12E41713588C38E1D29A61867D3DCEE98AFF SWAP1 PUSH1 0xFF AND PUSH3 0x6D8 JUMPI DUP1 DUP4 MSTORE DUP3 PUSH1 0x20 MSTORE PUSH1 0x40 DUP4 KECCAK256 DUP3 DUP5 MSTORE PUSH1 0x20 MSTORE PUSH1 0x40 DUP4 KECCAK256 PUSH1 0x1 PUSH1 0xFF NOT DUP3 SLOAD AND OR SWAP1 SSTORE PUSH1 0x0 DUP1 MLOAD PUSH1 0x20 PUSH3 0x304A DUP4 CODECOPY DUP2 MLOAD SWAP2 MSTORE CALLER SWAP4 DUP1 LOG4 PUSH1 0x1 SWAP1 JUMP JUMPDEST POP POP SWAP1 JUMP JUMPDEST PUSH1 0x1 PUSH1 0x1 PUSH1 0xA0 SHL SUB AND PUSH1 0x0 DUP2 DUP2 MSTORE PUSH32 0x9E607DE338C7D6508550727646D2998939F27517879A7DD916362B3520E39487 PUSH1 0x20 MSTORE PUSH1 0x40 DUP2 KECCAK256 SLOAD SWAP1 SWAP2 SWAP1 PUSH32 0xB814FF4A26EA3EC5CD1FA579DAAD86324826254265F3ACFEC78303A19845B449 SWAP1 PUSH1 0xFF AND PUSH3 0x6D8 JUMPI DUP1 DUP4 MSTORE DUP3 PUSH1 0x20 MSTORE PUSH1 0x40 DUP4 KECCAK256 DUP3 DUP5 MSTORE PUSH1 0x20 MSTORE PUSH1 0x40 DUP4 KECCAK256 PUSH1 0x1 PUSH1 0xFF NOT DUP3 SLOAD AND OR SWAP1 SSTORE PUSH1 0x0 DUP1 MLOAD PUSH1 0x20 PUSH3 0x304A DUP4 CODECOPY DUP2 MLOAD SWAP2 MSTORE CALLER SWAP4 DUP1 LOG4 PUSH1 0x1 SWAP1 JUMP JUMPDEST PUSH1 0x1 PUSH1 0x1 PUSH1 0xA0 SHL SUB AND PUSH1 0x0 DUP2 DUP2 MSTORE PUSH32 0x3C1B1854AB1360ABBB06C8D4C6B2672D4B8CEDC5EFF522AB19E51D5CB8FDBD46 PUSH1 0x20 MSTORE PUSH1 0x40 DUP2 KECCAK256 SLOAD SWAP1 SWAP2 SWAP1 PUSH32 0xBF233DD2AAFEB4D50879C4AA5C81E96D92F6E6945C906A58F9F2D1C1631B4B26 SWAP1 PUSH1 0xFF AND PUSH3 0x6D8 JUMPI DUP1 DUP4 MSTORE DUP3 PUSH1 0x20 MSTORE PUSH1 0x40 DUP4 KECCAK256 DUP3 DUP5 MSTORE PUSH1 0x20 MSTORE PUSH1 0x40 DUP4 KECCAK256 PUSH1 0x1 PUSH1 0xFF NOT DUP3 SLOAD AND OR SWAP1 SSTORE PUSH1 0x0 DUP1 MLOAD PUSH1 0x20 PUSH3 0x304A DUP4 CODECOPY DUP2 MLOAD SWAP2 MSTORE CALLER SWAP4 DUP1 LOG4 PUSH1 0x1 SWAP1 JUMP JUMPDEST SWAP1 PUSH1 0x6 SLOAD PUSH9 0x10000000000000000 DUP2 LT ISZERO PUSH3 0x54F JUMPI PUSH1 0x1 SWAP3 DUP4 DUP3 ADD DUP1 PUSH1 0x6 SSTORE DUP3 LT ISZERO PUSH3 0xA33 JUMPI PUSH1 0x6 PUSH1 0x0 SWAP1 DUP2 MSTORE DUP2 MLOAD DUP1 MLOAD SWAP1 SWAP6 PUSH1 0x9 SWAP1 SWAP5 MUL PUSH32 0xF652222313E28459528D920B65115C16C04F3EFC82AAEDC97BE59F3F377C0D3F ADD SWAP4 SWAP2 PUSH1 0x20 SWAP2 SWAP1 PUSH1 0x1 PUSH1 0x1 PUSH1 0x40 SHL SUB DUP3 GT PUSH3 0xA1F JUMPI DUP6 SLOAD DUP5 DUP2 DUP2 SHR SWAP2 AND DUP1 ISZERO PUSH3 0xA14 JUMPI JUMPDEST DUP5 DUP3 LT EQ PUSH3 0xA00 JUMPI PUSH1 0x1F DUP2 GT PUSH3 0x9B5 JUMPI JUMPDEST POP DUP3 SWAP1 PUSH1 0x1F DUP4 GT PUSH1 0x1 EQ PUSH3 0x948 JUMPI SWAP2 DUP1 SWAP2 PUSH1 0x8 SWAP8 SWAP9 SWAP10 PUSH2 0x100 SWAP8 SWAP7 SWAP6 SWAP5 SWAP3 PUSH3 0x93C JUMPI JUMPDEST POP POP PUSH1 0x0 NOT PUSH1 0x3 DUP4 SWAP1 SHL SHR NOT AND SWAP1 DUP4 SHL OR DUP7 SSTORE JUMPDEST DUP3 ADD MLOAD SWAP1 DUP6 ADD SSTORE PUSH1 0x40 DUP2 ADD MLOAD PUSH1 0x2 DUP6 ADD SSTORE PUSH1 0x60 DUP2 ADD MLOAD PUSH1 0x3 DUP6 ADD SSTORE PUSH1 0x80 DUP2 ADD MLOAD PUSH1 0x4 DUP6 ADD SSTORE PUSH1 0xA0 DUP2 ADD MLOAD PUSH1 0x5 DUP6 ADD SSTORE PUSH1 0xC0 DUP2 ADD MLOAD PUSH1 0x6 DUP6 ADD SSTORE PUSH1 0xE0 DUP2 ADD MLOAD ISZERO ISZERO PUSH1 0x7 DUP6 ADD SWAP1 PUSH1 0xFF DUP1 NOT DUP4 SLOAD AND SWAP2 AND OR SWAP1 SSTORE ADD MLOAD SWAP2 ADD SSTORE JUMP JUMPDEST ADD MLOAD SWAP1 POP CODESIZE DUP1 PUSH3 0x8D0 JUMP JUMPDEST SWAP1 PUSH1 0x1F NOT DUP4 AND DUP8 DUP4 MSTORE DUP5 DUP4 KECCAK256 SWAP3 JUMPDEST DUP2 DUP2 LT PUSH3 0x99F JUMPI POP SWAP2 DUP4 SWAP2 PUSH1 0x8 SWAP9 SWAP10 SWAP11 DUP8 SWAP7 SWAP6 PUSH2 0x100 SWAP10 SWAP9 SWAP6 LT PUSH3 0x985 JUMPI JUMPDEST POP POP POP DUP2 SHL ADD DUP7 SSTORE PUSH3 0x8E4 JUMP JUMPDEST ADD MLOAD PUSH1 0x0 NOT PUSH1 0xF8 DUP5 PUSH1 0x3 SHL AND SHR NOT AND SWAP1 SSTORE CODESIZE DUP1 DUP1 PUSH3 0x977 JUMP JUMPDEST DUP11 DUP4 ADD MLOAD DUP5 SSTORE SWAP3 DUP7 ADD SWAP3 SWAP2 DUP6 ADD SWAP2 DUP6 ADD PUSH3 0x956 JUMP JUMPDEST DUP7 DUP3 MSTORE DUP4 DUP3 KECCAK256 PUSH1 0x1F DUP5 ADD PUSH1 0x5 SHR DUP2 ADD SWAP2 DUP6 DUP6 LT PUSH3 0x9F5 JUMPI JUMPDEST PUSH1 0x1F ADD PUSH1 0x5 SHR ADD SWAP1 DUP6 SWAP1 JUMPDEST DUP3 DUP2 LT PUSH3 0x9E9 JUMPI POP POP PUSH3 0x8AB JUMP JUMPDEST DUP4 DUP2 SSTORE ADD DUP6 SWAP1 PUSH3 0x9D9 JUMP JUMPDEST SWAP1 SWAP2 POP DUP2 SWAP1 PUSH3 0x9CE JUMP JUMPDEST PUSH4 0x4E487B71 PUSH1 0xE0 SHL DUP3 MSTORE PUSH1 0x22 PUSH1 0x4 MSTORE PUSH1 0x24 DUP3 REVERT JUMPDEST SWAP1 PUSH1 0x7F AND SWAP1 PUSH3 0x898 JUMP JUMPDEST PUSH4 0x4E487B71 PUSH1 0xE0 SHL DUP2 MSTORE PUSH1 0x41 PUSH1 0x4 MSTORE PUSH1 0x24 SWAP1 REVERT JUMPDEST PUSH4 0x4E487B71 PUSH1 0xE0 SHL PUSH1 0x0 MSTORE PUSH1 0x32 PUSH1 0x4 MSTORE PUSH1 0x24 PUSH1 0x0 REVERT INVALID PUSH1 0x80 DUP1 PUSH1 0x40 MSTORE PUSH1 0x4 CALLDATASIZE LT ISZERO PUSH2 0x13 JUMPI PUSH1 0x0 DUP1 REVERT JUMPDEST PUSH1 0x0 CALLDATALOAD PUSH1 0xE0 SHR SWAP1 DUP2 PUSH3 0xA47DDD EQ PUSH2 0x1B34 JUMPI POP DUP1 PUSH4 0x1FFC9A7 EQ PUSH2 0x1ADE JUMPI DUP1 PUSH4 0x962EF79 EQ PUSH2 0x1AA4 JUMPI DUP1 PUSH4 0xB83A727 EQ PUSH2 0x19C6 JUMPI DUP1 PUSH4 0xB907ECE EQ PUSH2 0x199A JUMPI DUP1 PUSH4 0x20DF4359 EQ PUSH2 0x195F JUMPI DUP1 PUSH4 0x248A9CA3 EQ PUSH2 0x1930 JUMPI DUP1 PUSH4 0x2F2FF15D EQ PUSH2 0x18F1 JUMPI DUP1 PUSH4 0x32E4BB0A EQ PUSH2 0x18B6 JUMPI DUP1 PUSH4 0x36568ABE EQ PUSH2 0x186F JUMPI DUP1 PUSH4 0x376582F7 EQ PUSH2 0x17BA JUMPI DUP1 PUSH4 0x39A62395 EQ PUSH2 0x179C JUMPI DUP1 PUSH4 0x3A107739 EQ PUSH2 0x1762 JUMPI DUP1 PUSH4 0x3F4BA83A EQ PUSH2 0x16F8 JUMPI DUP1 PUSH4 0x42B58A82 EQ PUSH2 0x1568 JUMPI DUP1 PUSH4 0x56D73568 EQ PUSH2 0x152D JUMPI DUP1 PUSH4 0x59974E38 EQ PUSH2 0x1454 JUMPI DUP1 PUSH4 0x5AAD6CF0 EQ PUSH2 0x13AB JUMPI DUP1 PUSH4 0x5C975ABB EQ PUSH2 0x1388 JUMPI DUP1 PUSH4 0x6290C090 EQ PUSH2 0x1338 JUMPI DUP1 PUSH4 0x72F702F3 EQ PUSH2 0x12F3 JUMPI DUP1 PUSH4 0x7B0472F0 EQ PUSH2 0x1022 JUMPI DUP1 PUSH4 0x817B1CD2 EQ PUSH2 0x1004 JUMPI DUP1 PUSH4 0x8456CB59 EQ PUSH2 0xFAA JUMPI DUP1 PUSH4 0x8AABB082 EQ PUSH2 0xF52 JUMPI DUP1 PUSH4 0x91D14854 EQ PUSH2 0xF05 JUMPI DUP1 PUSH4 0x9251F8B5 EQ PUSH2 0xE51 JUMPI DUP1 PUSH4 0x95CCEA67 EQ PUSH2 0xC9A JUMPI DUP1 PUSH4 0x99956B9D EQ PUSH2 0xC6E JUMPI DUP1 PUSH4 0x9E2C8A5B EQ PUSH2 0xAC1 JUMPI DUP1 PUSH4 0xA166A201 EQ PUSH2 0x5F2 JUMPI DUP1 PUSH4 0xA217FDDF EQ PUSH2 0x5D6 JUMPI DUP1 PUSH4 0xA8C478BA EQ PUSH2 0x4E0 JUMPI DUP1 PUSH4 0xCEC695FA EQ PUSH2 0x42A JUMPI DUP1 PUSH4 0xD547741F EQ PUSH2 0x3E9 JUMPI DUP1 PUSH4 0xDFE6B5D6 EQ PUSH2 0x31A JUMPI DUP1 PUSH4 0xE4E7C6B4 EQ PUSH2 0x2EB JUMPI DUP1 PUSH4 0xE8990524 EQ PUSH2 0x267 JUMPI DUP1 PUSH4 0xEE172546 EQ PUSH2 0x249 JUMPI DUP1 PUSH4 0xF525CB68 EQ PUSH2 0x22B JUMPI PUSH4 0xF7C618C1 EQ PUSH2 0x1E1 JUMPI PUSH1 0x0 DUP1 REVERT JUMPDEST CALLVALUE PUSH2 0x226 JUMPI PUSH1 0x0 CALLDATASIZE PUSH1 0x3 NOT ADD SLT PUSH2 0x226 JUMPI PUSH1 0x40 MLOAD PUSH32 0x0 PUSH1 0x1 PUSH1 0x1 PUSH1 0xA0 SHL SUB AND DUP2 MSTORE PUSH1 0x20 SWAP1 RETURN JUMPDEST PUSH1 0x0 DUP1 REVERT JUMPDEST CALLVALUE PUSH2 0x226 JUMPI PUSH1 0x0 CALLDATASIZE PUSH1 0x3 NOT ADD SLT PUSH2 0x226 JUMPI PUSH1 0x20 PUSH1 0x6 SLOAD PUSH1 0x40 MLOAD SWAP1 DUP2 MSTORE RETURN JUMPDEST CALLVALUE PUSH2 0x226 JUMPI PUSH1 0x0 CALLDATASIZE PUSH1 0x3 NOT ADD SLT PUSH2 0x226 JUMPI PUSH1 0x20 PUSH1 0x4 SLOAD PUSH1 0x40 MLOAD SWAP1 DUP2 MSTORE RETURN JUMPDEST CALLVALUE PUSH2 0x226 JUMPI PUSH1 0x40 CALLDATASIZE PUSH1 0x3 NOT ADD SLT PUSH2 0x226 JUMPI PUSH2 0x280 PUSH2 0x1B77 JUMP JUMPDEST PUSH1 0x4 CALLDATALOAD PUSH1 0x0 MSTORE PUSH1 0x7 PUSH1 0x20 MSTORE PUSH1 0x40 PUSH1 0x0 KECCAK256 SWAP1 PUSH1 0x1 DUP1 PUSH1 0xA0 SHL SUB AND PUSH1 0x0 MSTORE PUSH1 0x20 MSTORE PUSH1 0xC0 PUSH1 0x40 PUSH1 0x0 KECCAK256 DUP1 SLOAD SWAP1 PUSH1 0x1 DUP2 ADD SLOAD SWAP1 PUSH1 0x2 DUP2 ADD SLOAD PUSH1 0x3 DUP3 ADD SLOAD SWAP1 PUSH1 0xFF PUSH1 0x5 PUSH1 0x4 DUP6 ADD SLOAD SWAP5 ADD SLOAD AND SWAP4 PUSH1 0x40 MLOAD SWAP6 DUP7 MSTORE PUSH1 0x20 DUP7 ADD MSTORE PUSH1 0x40 DUP6 ADD MSTORE PUSH1 0x60 DUP5 ADD MSTORE PUSH1 0x80 DUP4 ADD MSTORE ISZERO ISZERO PUSH1 0xA0 DUP3 ADD MSTORE RETURN JUMPDEST CALLVALUE PUSH2 0x226 JUMPI PUSH1 0x40 CALLDATASIZE PUSH1 0x3 NOT ADD SLT PUSH2 0x226 JUMPI PUSH1 0x20 PUSH2 0x312 PUSH2 0x309 PUSH2 0x1B8D JUMP JUMPDEST PUSH1 0x24 CALLDATALOAD SWAP1 PUSH2 0x1F79 JUMP JUMPDEST PUSH1 0x40 MLOAD SWAP1 DUP2 MSTORE RETURN JUMPDEST CALLVALUE PUSH2 0x226 JUMPI PUSH1 0x0 CALLDATASIZE PUSH1 0x3 NOT ADD SLT PUSH2 0x226 JUMPI PUSH1 0x3 SLOAD PUSH1 0x4 DUP1 SLOAD PUSH1 0x6 SLOAD PUSH1 0x40 MLOAD PUSH4 0x70A08231 PUSH1 0xE0 SHL DUP2 MSTORE ADDRESS SWAP4 DUP2 ADD SWAP4 SWAP1 SWAP4 MSTORE SWAP2 SWAP3 SWAP2 PUSH1 0x20 DUP5 PUSH1 0x24 DUP2 PUSH32 0x0 PUSH1 0x1 PUSH1 0x1 PUSH1 0xA0 SHL SUB AND GAS STATICCALL SWAP2 DUP3 ISZERO PUSH2 0x3DD JUMPI PUSH1 0x0 SWAP3 PUSH2 0x3A9 JUMPI JUMPDEST PUSH1 0x80 SWAP5 POP PUSH1 0x40 MLOAD SWAP4 DUP5 MSTORE PUSH1 0x20 DUP5 ADD MSTORE PUSH1 0x40 DUP4 ADD MSTORE PUSH1 0x60 DUP3 ADD MSTORE RETURN JUMPDEST SWAP2 POP PUSH1 0x20 DUP5 RETURNDATASIZE DUP3 GT PUSH2 0x3D5 JUMPI JUMPDEST DUP2 PUSH2 0x3C3 PUSH1 0x20 SWAP4 DUP4 PUSH2 0x1C7D JUMP JUMPDEST DUP2 ADD SUB SLT PUSH2 0x226 JUMPI PUSH1 0x80 SWAP4 MLOAD SWAP2 PUSH2 0x38E JUMP JUMPDEST RETURNDATASIZE SWAP2 POP PUSH2 0x3B6 JUMP JUMPDEST PUSH1 0x40 MLOAD RETURNDATASIZE PUSH1 0x0 DUP3 RETURNDATACOPY RETURNDATASIZE SWAP1 REVERT JUMPDEST CALLVALUE PUSH2 0x226 JUMPI PUSH1 0x40 CALLDATASIZE PUSH1 0x3 NOT ADD SLT PUSH2 0x226 JUMPI PUSH2 0x428 PUSH1 0x4 CALLDATALOAD PUSH2 0x408 PUSH2 0x1B77 JUMP JUMPDEST SWAP1 DUP1 PUSH1 0x0 MSTORE PUSH1 0x0 PUSH1 0x20 MSTORE PUSH2 0x423 PUSH1 0x1 PUSH1 0x40 PUSH1 0x0 KECCAK256 ADD SLOAD PUSH2 0x1E33 JUMP JUMPDEST PUSH2 0x1ED7 JUMP JUMPDEST STOP JUMPDEST CALLVALUE PUSH2 0x226 JUMPI PUSH1 0x40 CALLDATASIZE PUSH1 0x3 NOT ADD SLT PUSH2 0x226 JUMPI PUSH1 0xA0 PUSH2 0x445 PUSH2 0x1B8D JUMP JUMPDEST PUSH1 0x24 CALLDATALOAD SWAP1 DUP2 PUSH1 0x0 MSTORE PUSH1 0x7 PUSH1 0x20 MSTORE PUSH1 0x40 PUSH1 0x0 KECCAK256 PUSH1 0x1 DUP1 DUP6 SHL SUB DUP3 AND PUSH1 0x0 MSTORE PUSH1 0x20 MSTORE PUSH1 0x40 PUSH1 0x0 KECCAK256 PUSH1 0x40 MLOAD PUSH2 0x476 DUP2 PUSH2 0x1C61 JUMP JUMPDEST PUSH2 0x4BF DUP3 SLOAD SWAP5 DUP6 DUP4 MSTORE PUSH1 0x1 DUP5 ADD SLOAD SWAP5 DUP6 PUSH1 0x20 DUP6 ADD MSTORE PUSH1 0x2 DUP6 ADD SLOAD SWAP4 DUP9 PUSH1 0xFF PUSH1 0x5 PUSH1 0x40 DUP5 ADD SWAP9 DUP9 DUP11 MSTORE PUSH1 0x3 DUP2 ADD SLOAD PUSH1 0x60 DUP7 ADD MSTORE PUSH1 0x4 DUP2 ADD SLOAD PUSH1 0x80 DUP7 ADD MSTORE ADD SLOAD AND ISZERO ISZERO SWAP2 ADD MSTORE PUSH2 0x1F79 JUMP JUMPDEST SWAP2 MLOAD TIMESTAMP LT SWAP3 PUSH1 0x40 MLOAD SWAP5 DUP6 MSTORE PUSH1 0x20 DUP6 ADD MSTORE PUSH1 0x40 DUP5 ADD MSTORE PUSH1 0x60 DUP4 ADD MSTORE PUSH1 0x80 DUP3 ADD MSTORE RETURN JUMPDEST CALLVALUE PUSH2 0x226 JUMPI PUSH1 0x20 DUP1 PUSH1 0x3 NOT CALLDATASIZE ADD SLT PUSH2 0x226 JUMPI PUSH2 0x4FA PUSH2 0x1B8D JUMP JUMPDEST PUSH1 0x1 PUSH1 0x1 PUSH1 0xA0 SHL SUB DUP2 AND PUSH1 0x0 DUP2 DUP2 MSTORE PUSH1 0x8 DUP5 MSTORE PUSH1 0x40 DUP1 DUP3 KECCAK256 SWAP1 MLOAD DUP2 SLOAD DUP1 DUP3 MSTORE SWAP2 DUP4 MSTORE DUP6 DUP4 KECCAK256 SWAP4 SWAP5 SWAP1 SWAP4 SWAP1 SWAP2 DUP5 SWAP1 DUP2 DUP9 ADD SWAP1 DUP6 JUMPDEST DUP10 DUP3 DUP3 LT PUSH2 0x5C0 JUMPI POP POP POP PUSH2 0x544 SWAP3 POP SUB DUP5 PUSH2 0x1C7D JUMP JUMPDEST PUSH1 0x0 JUMPDEST DUP4 MLOAD DUP2 LT ISZERO PUSH2 0x5B6 JUMPI PUSH2 0x55A DUP2 DUP6 PUSH2 0x24F3 JUMP JUMPDEST MLOAD PUSH1 0x0 MSTORE PUSH1 0x7 DUP7 MSTORE PUSH1 0x40 PUSH1 0x0 KECCAK256 DUP6 PUSH1 0x0 MSTORE DUP7 MSTORE PUSH1 0xFF PUSH1 0x5 PUSH1 0x40 PUSH1 0x0 KECCAK256 ADD SLOAD AND PUSH2 0x58C JUMPI JUMPDEST PUSH2 0x587 SWAP1 PUSH2 0x240F JUMP JUMPDEST PUSH2 0x547 JUMP JUMPDEST SWAP2 PUSH2 0x5AE PUSH2 0x587 SWAP2 PUSH2 0x5A8 PUSH2 0x5A1 DUP7 DUP9 PUSH2 0x24F3 JUMP JUMPDEST MLOAD DUP6 PUSH2 0x1F79 JUMP JUMPDEST SWAP1 PUSH2 0x1F6C JUMP JUMPDEST SWAP3 SWAP1 POP PUSH2 0x57E JUMP JUMPDEST DUP6 DUP4 PUSH1 0x40 MLOAD SWAP1 DUP2 MSTORE RETURN JUMPDEST DUP6 SLOAD DUP5 MSTORE PUSH1 0x1 SWAP6 DUP7 ADD SWAP6 DUP10 SWAP6 POP SWAP4 ADD SWAP3 ADD PUSH2 0x52D JUMP JUMPDEST CALLVALUE PUSH2 0x226 JUMPI PUSH1 0x0 CALLDATASIZE PUSH1 0x3 NOT ADD SLT PUSH2 0x226 JUMPI PUSH1 0x20 PUSH1 0x40 MLOAD PUSH1 0x0 DUP2 MSTORE RETURN JUMPDEST CALLVALUE PUSH2 0x226 JUMPI PUSH1 0xE0 CALLDATASIZE PUSH1 0x3 NOT ADD SLT PUSH2 0x226 JUMPI PUSH1 0x4 CALLDATALOAD PUSH8 0xFFFFFFFFFFFFFFFF DUP1 DUP3 GT PUSH2 0x226 JUMPI CALLDATASIZE PUSH1 0x23 DUP4 ADD SLT ISZERO PUSH2 0x226 JUMPI DUP2 PUSH1 0x4 ADD CALLDATALOAD DUP2 DUP2 GT PUSH2 0x904 JUMPI PUSH1 0x40 MLOAD SWAP3 PUSH2 0x645 PUSH1 0x1F DUP4 ADD PUSH1 0x1F NOT AND PUSH1 0x20 ADD DUP6 PUSH2 0x1C7D JUMP JUMPDEST DUP2 DUP5 MSTORE CALLDATASIZE PUSH1 0x24 DUP4 DUP4 ADD ADD GT PUSH2 0x226 JUMPI DUP2 PUSH1 0x0 SWAP3 PUSH1 0x24 PUSH1 0x20 SWAP4 ADD DUP4 DUP8 ADD CALLDATACOPY DUP5 ADD ADD MSTORE PUSH1 0x64 CALLDATALOAD PUSH1 0xC4 CALLDATALOAD PUSH1 0xA4 CALLDATALOAD PUSH1 0x84 CALLDATALOAD PUSH2 0x67A PUSH2 0x1D9D JUMP JUMPDEST DUP6 MLOAD ISZERO PUSH2 0xA69 JUMPI PUSH2 0x2710 PUSH2 0x692 DUP2 PUSH1 0x44 CALLDATALOAD GT ISZERO PUSH2 0x2507 JUMP JUMPDEST DUP5 ISZERO PUSH2 0xA06 JUMPI DUP5 DUP3 LT PUSH2 0x99B JUMPI PUSH2 0x6AB SWAP1 DUP4 LT ISZERO PUSH2 0x2563 JUMP JUMPDEST PUSH2 0x1388 DUP4 GT PUSH2 0x930 JUMPI PUSH1 0x40 MLOAD SWAP4 PUSH2 0x6C1 DUP6 PUSH2 0x1C44 JUMP JUMPDEST DUP7 DUP6 MSTORE PUSH1 0x24 CALLDATALOAD PUSH1 0x20 DUP7 ADD MSTORE PUSH1 0x44 CALLDATALOAD PUSH1 0x40 DUP7 ADD MSTORE PUSH1 0x60 DUP6 ADD MSTORE PUSH1 0x80 DUP5 ADD MSTORE PUSH1 0x0 PUSH1 0xA0 DUP5 ADD MSTORE PUSH1 0xC0 DUP4 ADD MSTORE PUSH1 0x1 PUSH1 0xE0 DUP4 ADD MSTORE PUSH2 0x100 DUP3 ADD MSTORE PUSH1 0x6 SLOAD PUSH1 0x1 PUSH1 0x40 SHL DUP2 LT ISZERO PUSH2 0x904 JUMPI DUP1 PUSH1 0x1 PUSH2 0x716 SWAP3 ADD PUSH1 0x6 SSTORE PUSH2 0x1BB9 JUMP JUMPDEST SWAP3 SWAP1 SWAP3 PUSH2 0x91A JUMPI DUP2 MLOAD DUP1 MLOAD SWAP2 DUP3 GT PUSH2 0x904 JUMPI PUSH2 0x732 DUP5 SLOAD PUSH2 0x1C0A JUMP JUMPDEST PUSH1 0x1F DUP2 GT PUSH2 0x8C0 JUMPI JUMPDEST POP PUSH1 0x20 SWAP1 PUSH1 0x1F DUP4 GT PUSH1 0x1 EQ PUSH2 0x850 JUMPI SWAP2 DUP1 PUSH1 0x8 SWAP5 SWAP3 PUSH2 0x100 SWAP5 PUSH1 0x0 SWAP3 PUSH2 0x845 JUMPI JUMPDEST POP POP DUP2 PUSH1 0x1 SHL SWAP2 PUSH1 0x0 NOT SWAP1 PUSH1 0x3 SHL SHR NOT AND OR DUP5 SSTORE JUMPDEST PUSH1 0x20 DUP2 ADD MLOAD PUSH1 0x1 DUP6 ADD SSTORE PUSH1 0x40 DUP2 ADD MLOAD PUSH1 0x2 DUP6 ADD SSTORE PUSH1 0x60 DUP2 ADD MLOAD PUSH1 0x3 DUP6 ADD SSTORE PUSH1 0x80 DUP2 ADD MLOAD PUSH1 0x4 DUP6 ADD SSTORE PUSH1 0xA0 DUP2 ADD MLOAD PUSH1 0x5 DUP6 ADD SSTORE PUSH1 0xC0 DUP2 ADD MLOAD PUSH1 0x6 DUP6 ADD SSTORE PUSH2 0x7CC PUSH1 0xE0 DUP3 ADD MLOAD ISZERO ISZERO PUSH1 0x7 DUP7 ADD SWAP1 PUSH1 0xFF DUP1 NOT DUP4 SLOAD AND SWAP2 ISZERO ISZERO AND OR SWAP1 SSTORE JUMP JUMPDEST ADD MLOAD SWAP2 ADD SSTORE PUSH1 0x6 SLOAD PUSH1 0x0 NOT DUP2 ADD SWAP2 SWAP1 DUP3 GT PUSH2 0x82F JUMPI PUSH2 0x81A PUSH32 0xD6A5AFAAB19AA08059D2A773896AE3716587B8CB7DD9FFA3989DE36E7CE8D6A3 SWAP2 PUSH1 0x40 MLOAD SWAP2 DUP3 SWAP2 PUSH1 0x60 DUP4 MSTORE PUSH1 0x60 DUP4 ADD SWAP1 PUSH2 0x1D45 JUMP JUMPDEST PUSH1 0x24 CALLDATALOAD PUSH1 0x20 DUP4 ADD MSTORE PUSH1 0x44 CALLDATALOAD PUSH1 0x40 DUP4 ADD MSTORE SUB SWAP1 LOG2 STOP JUMPDEST PUSH4 0x4E487B71 PUSH1 0xE0 SHL PUSH1 0x0 MSTORE PUSH1 0x11 PUSH1 0x4 MSTORE PUSH1 0x24 PUSH1 0x0 REVERT JUMPDEST ADD MLOAD SWAP1 POP DUP8 DUP1 PUSH2 0x75C JUMP JUMPDEST SWAP1 DUP5 PUSH1 0x0 MSTORE PUSH1 0x20 PUSH1 0x0 KECCAK256 SWAP2 PUSH1 0x0 JUMPDEST PUSH1 0x1F NOT DUP6 AND DUP2 LT PUSH2 0x8A8 JUMPI POP SWAP3 PUSH1 0x8 SWAP5 SWAP3 PUSH1 0x1 SWAP3 PUSH2 0x100 SWAP6 DUP4 PUSH1 0x1F NOT DUP2 AND LT PUSH2 0x88F JUMPI JUMPDEST POP POP POP DUP2 SHL ADD DUP5 SSTORE PUSH2 0x771 JUMP JUMPDEST ADD MLOAD PUSH1 0x0 NOT PUSH1 0xF8 DUP5 PUSH1 0x3 SHL AND SHR NOT AND SWAP1 SSTORE DUP8 DUP1 DUP1 PUSH2 0x882 JUMP JUMPDEST SWAP2 SWAP3 PUSH1 0x20 PUSH1 0x1 DUP2 SWAP3 DUP7 DUP6 ADD MLOAD DUP2 SSTORE ADD SWAP5 ADD SWAP3 ADD PUSH2 0x85E JUMP JUMPDEST DUP5 PUSH1 0x0 MSTORE PUSH1 0x20 PUSH1 0x0 KECCAK256 PUSH1 0x1F DUP5 ADD PUSH1 0x5 SHR DUP2 ADD PUSH1 0x20 DUP6 LT PUSH2 0x8FD JUMPI JUMPDEST PUSH1 0x1F DUP4 ADD PUSH1 0x5 SHR DUP3 ADD DUP2 LT PUSH2 0x8F1 JUMPI POP POP PUSH2 0x73B JUMP JUMPDEST PUSH1 0x0 DUP2 SSTORE PUSH1 0x1 ADD PUSH2 0x8DB JUMP JUMPDEST POP DUP1 PUSH2 0x8DB JUMP JUMPDEST PUSH4 0x4E487B71 PUSH1 0xE0 SHL PUSH1 0x0 MSTORE PUSH1 0x41 PUSH1 0x4 MSTORE PUSH1 0x24 PUSH1 0x0 REVERT JUMPDEST PUSH4 0x4E487B71 PUSH1 0xE0 SHL PUSH1 0x0 MSTORE PUSH1 0x0 PUSH1 0x4 MSTORE PUSH1 0x24 PUSH1 0x0 REVERT JUMPDEST PUSH1 0x40 MLOAD PUSH3 0x461BCD PUSH1 0xE5 SHL DUP2 MSTORE PUSH1 0x20 PUSH1 0x4 DUP3 ADD MSTORE PUSH1 0x39 PUSH1 0x24 DUP3 ADD MSTORE PUSH32 0x424C4F434B535374616B696E6756323A20456D657267656E6379206578697420 PUSH1 0x44 DUP3 ADD MSTORE PUSH32 0x70656E616C74792063616E6E6F74206578636565642035302500000000000000 PUSH1 0x64 DUP3 ADD MSTORE PUSH1 0x84 SWAP1 REVERT JUMPDEST PUSH1 0x40 MLOAD PUSH3 0x461BCD PUSH1 0xE5 SHL DUP2 MSTORE PUSH1 0x20 PUSH1 0x4 DUP3 ADD MSTORE PUSH1 0x37 PUSH1 0x24 DUP3 ADD MSTORE PUSH32 0x424C4F434B535374616B696E6756323A204D6178696D756D207374616B65206D PUSH1 0x44 DUP3 ADD MSTORE PUSH32 0x757374206265203E3D206D696E696D756D207374616B65000000000000000000 PUSH1 0x64 DUP3 ADD MSTORE PUSH1 0x84 SWAP1 REVERT JUMPDEST PUSH1 0x40 MLOAD PUSH3 0x461BCD PUSH1 0xE5 SHL DUP2 MSTORE PUSH1 0x20 PUSH1 0x4 DUP3 ADD MSTORE PUSH1 0x35 PUSH1 0x24 DUP3 ADD MSTORE PUSH32 0x424C4F434B535374616B696E6756323A204D696E696D756D207374616B65206D PUSH1 0x44 DUP3 ADD MSTORE PUSH21 0x7573742062652067726561746572207468616E203 PUSH1 0x5C SHL PUSH1 0x64 DUP3 ADD MSTORE PUSH1 0x84 SWAP1 REVERT JUMPDEST PUSH1 0x40 MLOAD PUSH3 0x461BCD PUSH1 0xE5 SHL DUP2 MSTORE PUSH1 0x20 PUSH1 0x4 DUP3 ADD MSTORE PUSH1 0x2A PUSH1 0x24 DUP3 ADD MSTORE PUSH32 0x424C4F434B535374616B696E6756323A20506F6F6C206E616D652063616E6E6F PUSH1 0x44 DUP3 ADD MSTORE PUSH10 0x7420626520656D707479 PUSH1 0xB0 SHL PUSH1 0x64 DUP3 ADD MSTORE PUSH1 0x84 SWAP1 REVERT JUMPDEST CALLVALUE PUSH2 0x226 JUMPI PUSH2 0xACF CALLDATASIZE PUSH2 0x1BA3 JUMP JUMPDEST PUSH2 0xAD7 PUSH2 0x222A JUMP JUMPDEST PUSH2 0xADF PUSH2 0x2248 JUMP JUMPDEST PUSH2 0xAEC PUSH1 0x6 SLOAD DUP4 LT PUSH2 0x20CB JUMP JUMPDEST PUSH2 0xAF7 DUP2 ISZERO ISZERO PUSH2 0x2116 JUMP JUMPDEST DUP2 PUSH1 0x0 MSTORE PUSH1 0x7 PUSH1 0x20 MSTORE PUSH1 0x40 PUSH1 0x0 KECCAK256 CALLER PUSH1 0x0 MSTORE PUSH1 0x20 MSTORE PUSH1 0x40 PUSH1 0x0 KECCAK256 PUSH1 0x5 DUP2 ADD SWAP1 PUSH2 0xB23 PUSH1 0xFF DUP4 SLOAD AND PUSH2 0x226B JUMP JUMPDEST PUSH2 0xB30 DUP4 DUP3 SLOAD LT ISZERO PUSH2 0x22B6 JUMP JUMPDEST PUSH1 0x2 DUP2 ADD SLOAD TIMESTAMP LT PUSH2 0xC1A JUMPI PUSH2 0xB45 DUP5 CALLER PUSH2 0x2366 JUMP JUMPDEST PUSH2 0xB50 DUP4 DUP3 SLOAD PUSH2 0x1F4C JUMP JUMPDEST DUP1 SWAP2 SSTORE ISZERO PUSH2 0xC02 JUMPI JUMPDEST POP PUSH1 0x5 PUSH2 0xB65 DUP4 PUSH2 0x1BB9 JUMP JUMPDEST POP ADD PUSH2 0xB72 DUP3 DUP3 SLOAD PUSH2 0x1F4C JUMP JUMPDEST SWAP1 SSTORE PUSH2 0xB80 DUP2 PUSH1 0x3 SLOAD PUSH2 0x1F4C JUMP JUMPDEST PUSH1 0x3 SSTORE CALLER PUSH1 0x0 MSTORE PUSH1 0x9 PUSH1 0x20 MSTORE PUSH1 0x40 PUSH1 0x0 KECCAK256 PUSH2 0xB9C DUP3 DUP3 SLOAD PUSH2 0x1F4C JUMP JUMPDEST SWAP1 SSTORE PUSH2 0xBC9 DUP2 CALLER PUSH32 0x0 PUSH2 0x2316 JUMP JUMPDEST PUSH1 0x40 MLOAD SWAP1 DUP2 MSTORE PUSH1 0x0 PUSH1 0x20 DUP3 ADD MSTORE PUSH32 0x204FCCF0D92ED8D48F204ADB39B2E81E92BAD0DEDB93F5716CA9478CFB57DE00 PUSH1 0x40 CALLER SWAP3 LOG3 PUSH1 0x1 DUP1 SSTORE STOP JUMPDEST DUP1 SLOAD PUSH1 0xFF NOT AND SWAP1 SSTORE PUSH2 0xC14 DUP3 CALLER PUSH2 0x241E JUMP JUMPDEST DUP3 PUSH2 0xB59 JUMP JUMPDEST PUSH1 0x40 MLOAD PUSH3 0x461BCD PUSH1 0xE5 SHL DUP2 MSTORE PUSH1 0x20 PUSH1 0x4 DUP3 ADD MSTORE PUSH1 0x26 PUSH1 0x24 DUP3 ADD MSTORE PUSH32 0x424C4F434B535374616B696E6756323A205374616B65206973207374696C6C20 PUSH1 0x44 DUP3 ADD MSTORE PUSH6 0x1B1BD8DAD959 PUSH1 0xD2 SHL PUSH1 0x64 DUP3 ADD MSTORE PUSH1 0x84 SWAP1 REVERT JUMPDEST CALLVALUE PUSH2 0x226 JUMPI PUSH1 0x20 CALLDATASIZE PUSH1 0x3 NOT ADD SLT PUSH2 0x226 JUMPI PUSH1 0x4 CALLDATALOAD PUSH1 0x0 MSTORE PUSH1 0xB PUSH1 0x20 MSTORE PUSH1 0x20 PUSH1 0x40 PUSH1 0x0 KECCAK256 SLOAD PUSH1 0x40 MLOAD SWAP1 DUP2 MSTORE RETURN JUMPDEST CALLVALUE PUSH2 0x226 JUMPI PUSH1 0x40 CALLDATASIZE PUSH1 0x3 NOT ADD SLT PUSH2 0x226 JUMPI PUSH2 0xCB3 PUSH2 0x1B8D JUMP JUMPDEST CALLER PUSH1 0x0 SWAP1 DUP2 MSTORE PUSH32 0x3C1B1854AB1360ABBB06C8D4C6B2672D4B8CEDC5EFF522AB19E51D5CB8FDBD46 PUSH1 0x20 SWAP1 DUP2 MSTORE PUSH1 0x40 SWAP1 SWAP2 KECCAK256 SLOAD SWAP1 SWAP2 PUSH1 0x24 CALLDATALOAD SWAP2 PUSH32 0xBF233DD2AAFEB4D50879C4AA5C81E96D92F6E6945C906A58F9F2D1C1631B4B26 SWAP1 PUSH1 0xFF AND ISZERO PUSH2 0xE33 JUMPI POP PUSH1 0x1 PUSH1 0x1 PUSH1 0xA0 SHL SUB SWAP1 DUP2 AND SWAP1 PUSH32 0x0 AND DUP2 DUP2 EQ DUP1 ISZERO SWAP2 DUP6 SWAP2 PUSH2 0xDC0 JUMPI JUMPDEST POP POP ISZERO PUSH2 0xD64 JUMPI PUSH2 0x428 SWAP3 POP CALLER SWAP1 PUSH2 0x2316 JUMP JUMPDEST PUSH1 0x40 MLOAD PUSH3 0x461BCD PUSH1 0xE5 SHL DUP2 MSTORE PUSH1 0x4 DUP2 ADD DUP5 SWAP1 MSTORE PUSH1 0x2E PUSH1 0x24 DUP3 ADD MSTORE PUSH32 0x424C4F434B535374616B696E6756323A2043616E6E6F74207769746864726177 PUSH1 0x44 DUP3 ADD MSTORE PUSH14 0x207374616B656420746F6B656E73 PUSH1 0x90 SHL PUSH1 0x64 DUP3 ADD MSTORE PUSH1 0x84 SWAP1 REVERT JUMPDEST PUSH1 0x40 MLOAD PUSH4 0x70A08231 PUSH1 0xE0 SHL DUP2 MSTORE ADDRESS PUSH1 0x4 DUP3 ADD MSTORE SWAP3 POP DUP3 SWAP1 PUSH1 0x24 SWAP1 DUP3 SWAP1 GAS STATICCALL DUP1 ISZERO PUSH2 0x3DD JUMPI PUSH1 0x0 SWAP1 PUSH2 0xE04 JUMPI JUMPDEST PUSH2 0xDFA SWAP2 POP PUSH1 0x3 SLOAD SWAP1 PUSH2 0x1F4C JUMP JUMPDEST DUP3 GT ISZERO DUP4 DUP6 PUSH2 0xD51 JUMP JUMPDEST POP DUP4 DUP2 DUP2 RETURNDATASIZE DUP4 GT PUSH2 0xE2C JUMPI JUMPDEST PUSH2 0xE1A DUP2 DUP4 PUSH2 0x1C7D JUMP JUMPDEST DUP2 ADD SUB SLT PUSH2 0x226 JUMPI PUSH2 0xDFA SWAP1 MLOAD PUSH2 0xDEC JUMP JUMPDEST POP RETURNDATASIZE PUSH2 0xE10 JUMP JUMPDEST PUSH1 0x44 SWAP1 PUSH1 0x40 MLOAD SWAP1 PUSH4 0xE2517D3F PUSH1 0xE0 SHL DUP3 MSTORE CALLER PUSH1 0x4 DUP4 ADD MSTORE PUSH1 0x24 DUP3 ADD MSTORE REVERT JUMPDEST CALLVALUE PUSH2 0x226 JUMPI PUSH1 0x20 DUP1 PUSH1 0x3 NOT CALLDATASIZE ADD SLT PUSH2 0x226 JUMPI PUSH1 0x1 PUSH1 0x1 PUSH1 0xA0 SHL SUB PUSH2 0xE73 PUSH2 0x1B8D JUMP JUMPDEST AND PUSH1 0x0 MSTORE PUSH1 0x8 DUP2 MSTORE PUSH1 0x40 PUSH1 0x0 KECCAK256 PUSH1 0x40 MLOAD SWAP1 DUP2 DUP4 DUP3 SLOAD SWAP2 DUP3 DUP2 MSTORE ADD SWAP1 DUP2 SWAP3 PUSH1 0x0 MSTORE DUP5 PUSH1 0x0 KECCAK256 SWAP1 PUSH1 0x0 JUMPDEST DUP7 DUP3 DUP3 LT PUSH2 0xEF1 JUMPI DUP7 DUP7 PUSH2 0xEB1 DUP3 DUP9 SUB DUP4 PUSH2 0x1C7D JUMP JUMPDEST PUSH1 0x40 MLOAD SWAP3 DUP4 SWAP3 DUP2 DUP5 ADD SWAP1 DUP3 DUP6 MSTORE MLOAD DUP1 SWAP2 MSTORE PUSH1 0x40 DUP5 ADD SWAP3 SWAP2 PUSH1 0x0 JUMPDEST DUP3 DUP2 LT PUSH2 0xEDA JUMPI POP POP POP POP SUB SWAP1 RETURN JUMPDEST DUP4 MLOAD DUP6 MSTORE DUP7 SWAP6 POP SWAP4 DUP2 ADD SWAP4 SWAP3 DUP2 ADD SWAP3 PUSH1 0x1 ADD PUSH2 0xECB JUMP JUMPDEST DUP4 SLOAD DUP6 MSTORE SWAP1 SWAP4 ADD SWAP3 PUSH1 0x1 SWAP3 DUP4 ADD SWAP3 ADD PUSH2 0xE9B JUMP JUMPDEST CALLVALUE PUSH2 0x226 JUMPI PUSH1 0x40 CALLDATASIZE PUSH1 0x3 NOT ADD SLT PUSH2 0x226 JUMPI PUSH2 0xF1E PUSH2 0x1B77 JUMP JUMPDEST PUSH1 0x4 CALLDATALOAD PUSH1 0x0 MSTORE PUSH1 0x0 PUSH1 0x20 MSTORE PUSH1 0x40 PUSH1 0x0 KECCAK256 SWAP1 PUSH1 0x1 DUP1 PUSH1 0xA0 SHL SUB AND PUSH1 0x0 MSTORE PUSH1 0x20 MSTORE PUSH1 0x20 PUSH1 0xFF PUSH1 0x40 PUSH1 0x0 KECCAK256 SLOAD AND PUSH1 0x40 MLOAD SWAP1 ISZERO ISZERO DUP2 MSTORE RETURN JUMPDEST CALLVALUE PUSH2 0x226 JUMPI PUSH1 0x40 CALLDATASIZE PUSH1 0x3 NOT ADD SLT PUSH2 0x226 JUMPI PUSH2 0xF6B PUSH2 0x1B8D JUMP JUMPDEST PUSH1 0x1 PUSH1 0x1 PUSH1 0xA0 SHL SUB AND PUSH1 0x0 SWAP1 DUP2 MSTORE PUSH1 0x8 PUSH1 0x20 MSTORE PUSH1 0x40 SWAP1 KECCAK256 DUP1 SLOAD PUSH1 0x24 CALLDATALOAD SWAP2 SWAP1 DUP3 LT ISZERO PUSH2 0x226 JUMPI PUSH1 0x20 SWAP2 PUSH2 0xF9C SWAP2 PUSH2 0x1D85 JUMP JUMPDEST SWAP1 SLOAD PUSH1 0x40 MLOAD SWAP2 PUSH1 0x3 SHL SHR DUP2 MSTORE RETURN JUMPDEST CALLVALUE PUSH2 0x226 JUMPI PUSH1 0x0 CALLDATASIZE PUSH1 0x3 NOT ADD SLT PUSH2 0x226 JUMPI PUSH2 0xFC3 PUSH2 0x1DF9 JUMP JUMPDEST PUSH2 0xFCB PUSH2 0x222A JUMP JUMPDEST PUSH1 0x1 PUSH1 0xFF NOT PUSH1 0x2 SLOAD AND OR PUSH1 0x2 SSTORE PUSH32 0x62E78CEA01BEE320CD4E420270B5EA74000D11B0C9F74754EBDBFC544B05A258 PUSH1 0x20 PUSH1 0x40 MLOAD CALLER DUP2 MSTORE LOG1 STOP JUMPDEST CALLVALUE PUSH2 0x226 JUMPI PUSH1 0x0 CALLDATASIZE PUSH1 0x3 NOT ADD SLT PUSH2 0x226 JUMPI PUSH1 0x20 PUSH1 0x3 SLOAD PUSH1 0x40 MLOAD SWAP1 DUP2 MSTORE RETURN JUMPDEST CALLVALUE PUSH2 0x226 JUMPI PUSH2 0x1030 CALLDATASIZE PUSH2 0x1BA3 JUMP JUMPDEST PUSH2 0x1038 PUSH2 0x222A JUMP JUMPDEST PUSH2 0x1040 PUSH2 0x2248 JUMP JUMPDEST PUSH2 0x104D PUSH1 0x6 SLOAD DUP4 LT PUSH2 0x20CB JUMP JUMPDEST PUSH2 0x1058 DUP2 ISZERO ISZERO PUSH2 0x2116 JUMP JUMPDEST PUSH2 0x1061 DUP3 PUSH2 0x1BB9 JUMP JUMPDEST POP PUSH1 0xFF PUSH1 0x7 DUP3 ADD SLOAD AND ISZERO PUSH2 0x12A2 JUMPI PUSH1 0x3 DUP2 ADD SLOAD DUP3 LT PUSH2 0x1249 JUMPI DUP3 PUSH1 0x0 MSTORE PUSH1 0x20 SWAP1 PUSH1 0x7 DUP3 MSTORE PUSH1 0x40 PUSH1 0x0 KECCAK256 CALLER PUSH1 0x0 MSTORE DUP3 MSTORE PUSH1 0x40 PUSH1 0x0 KECCAK256 SWAP1 PUSH2 0x10A1 DUP5 DUP4 SLOAD PUSH2 0x1F6C JUMP JUMPDEST PUSH1 0x4 DUP3 ADD SLOAD LT PUSH2 0x11EE JUMPI PUSH1 0x5 DUP3 ADD SWAP1 PUSH1 0xFF DUP3 SLOAD AND PUSH1 0x0 EQ PUSH2 0x119D JUMPI PUSH1 0x5 SWAP2 PUSH2 0x10C9 DUP8 CALLER PUSH2 0x2366 JUMP JUMPDEST PUSH2 0x10F5 DUP7 ADDRESS CALLER PUSH32 0x0 PUSH2 0x2179 JUMP JUMPDEST PUSH2 0x1100 DUP7 DUP6 SLOAD PUSH2 0x1F6C JUMP JUMPDEST DUP5 SSTORE TIMESTAMP PUSH1 0x1 DUP6 ADD SSTORE PUSH2 0x1116 PUSH1 0x1 DUP4 ADD SLOAD TIMESTAMP PUSH2 0x1F6C JUMP JUMPDEST SWAP4 PUSH1 0x2 DUP2 ADD SWAP5 DUP6 SSTORE PUSH1 0x3 TIMESTAMP SWAP2 ADD SSTORE PUSH1 0x1 PUSH1 0xFF NOT DUP3 SLOAD AND OR SWAP1 SSTORE ADD PUSH2 0x113B DUP5 DUP3 SLOAD PUSH2 0x1F6C JUMP JUMPDEST SWAP1 SSTORE PUSH2 0x1149 DUP4 PUSH1 0x3 SLOAD PUSH2 0x1F6C JUMP JUMPDEST PUSH1 0x3 SSTORE CALLER PUSH1 0x0 MSTORE PUSH1 0x9 DUP3 MSTORE PUSH1 0x40 PUSH1 0x0 KECCAK256 PUSH2 0x1164 DUP5 DUP3 SLOAD PUSH2 0x1F6C JUMP JUMPDEST SWAP1 SSTORE SLOAD SWAP1 PUSH1 0x40 MLOAD SWAP3 DUP4 MSTORE DUP3 ADD MSTORE PUSH32 0xB4CAAF29ADDA3EEFEE3AD552A8E85058589BF834C7466CAE4EE58787F70589ED PUSH1 0x40 CALLER SWAP3 LOG3 PUSH1 0x1 DUP1 SSTORE STOP JUMPDEST CALLER PUSH1 0x0 MSTORE PUSH1 0x8 DUP5 MSTORE PUSH1 0x40 PUSH1 0x0 KECCAK256 SWAP2 DUP3 SLOAD SWAP3 PUSH1 0x1 PUSH1 0x40 SHL DUP5 LT ISZERO PUSH2 0x904 JUMPI DUP8 PUSH2 0x11D0 DUP6 PUSH2 0x11E9 SWAP4 PUSH1 0x1 PUSH1 0x5 SWAP9 ADD DUP2 SSTORE PUSH2 0x1D85 JUMP JUMPDEST SWAP1 SWAP2 SWAP1 DUP3 SLOAD SWAP1 PUSH1 0x3 SHL SWAP2 DUP3 SHL SWAP2 PUSH1 0x0 NOT SWAP1 SHL NOT AND OR SWAP1 SSTORE JUMP JUMPDEST PUSH2 0x10C9 JUMP JUMPDEST PUSH1 0x40 MLOAD PUSH3 0x461BCD PUSH1 0xE5 SHL DUP2 MSTORE PUSH1 0x4 DUP2 ADD DUP5 SWAP1 MSTORE PUSH1 0x2D PUSH1 0x24 DUP3 ADD MSTORE PUSH32 0x424C4F434B535374616B696E6756323A20416D6F756E74206578636565647320 PUSH1 0x44 DUP3 ADD MSTORE PUSH13 0x6D6178696D756D207374616B65 PUSH1 0x98 SHL PUSH1 0x64 DUP3 ADD MSTORE PUSH1 0x84 SWAP1 REVERT JUMPDEST PUSH1 0x40 MLOAD PUSH3 0x461BCD PUSH1 0xE5 SHL DUP2 MSTORE PUSH1 0x20 PUSH1 0x4 DUP3 ADD MSTORE PUSH1 0x2B PUSH1 0x24 DUP3 ADD MSTORE PUSH32 0x424C4F434B535374616B696E6756323A20416D6F756E742062656C6F77206D69 PUSH1 0x44 DUP3 ADD MSTORE PUSH11 0x6E696D756D207374616B65 PUSH1 0xA8 SHL PUSH1 0x64 DUP3 ADD MSTORE PUSH1 0x84 SWAP1 REVERT JUMPDEST PUSH1 0x40 MLOAD PUSH3 0x461BCD PUSH1 0xE5 SHL DUP2 MSTORE PUSH1 0x20 PUSH1 0x4 DUP3 ADD MSTORE PUSH1 0x23 PUSH1 0x24 DUP3 ADD MSTORE PUSH32 0x424C4F434B535374616B696E6756323A20506F6F6C206973206E6F7420616374 PUSH1 0x44 DUP3 ADD MSTORE PUSH3 0x697665 PUSH1 0xE8 SHL PUSH1 0x64 DUP3 ADD MSTORE PUSH1 0x84 SWAP1 REVERT JUMPDEST CALLVALUE PUSH2 0x226 JUMPI PUSH1 0x0 CALLDATASIZE PUSH1 0x3 NOT ADD SLT PUSH2 0x226 JUMPI PUSH1 0x40 MLOAD PUSH32 0x0 PUSH1 0x1 PUSH1 0x1 PUSH1 0xA0 SHL SUB AND DUP2 MSTORE PUSH1 0x20 SWAP1 RETURN JUMPDEST CALLVALUE PUSH2 0x226 JUMPI PUSH1 0x40 CALLDATASIZE PUSH1 0x3 NOT ADD SLT PUSH2 0x226 JUMPI PUSH2 0x1351 PUSH2 0x1B8D JUMP JUMPDEST PUSH1 0x24 CALLDATALOAD PUSH1 0x0 MSTORE PUSH1 0x7 PUSH1 0x20 MSTORE PUSH1 0x40 PUSH1 0x0 KECCAK256 SWAP1 PUSH1 0x1 DUP1 PUSH1 0xA0 SHL SUB AND PUSH1 0x0 MSTORE PUSH1 0x20 MSTORE PUSH1 0x20 PUSH1 0xFF PUSH1 0x5 PUSH1 0x40 PUSH1 0x0 KECCAK256 ADD SLOAD AND PUSH1 0x40 MLOAD SWAP1 ISZERO ISZERO DUP2 MSTORE RETURN JUMPDEST CALLVALUE PUSH2 0x226 JUMPI PUSH1 0x0 CALLDATASIZE PUSH1 0x3 NOT ADD SLT PUSH2 0x226 JUMPI PUSH1 0x20 PUSH1 0xFF PUSH1 0x2 SLOAD AND PUSH1 0x40 MLOAD SWAP1 ISZERO ISZERO DUP2 MSTORE RETURN JUMPDEST CALLVALUE PUSH2 0x226 JUMPI PUSH1 0x20 CALLDATASIZE PUSH1 0x3 NOT ADD SLT PUSH2 0x226 JUMPI PUSH1 0x4 CALLDATALOAD PUSH1 0x6 SLOAD DUP2 LT ISZERO PUSH2 0x226 JUMPI PUSH2 0x13D5 PUSH2 0x1424 SWAP2 PUSH2 0x1BB9 JUMP JUMPDEST POP PUSH2 0x13DF DUP2 PUSH2 0x1C9F JUMP JUMPDEST SWAP1 PUSH1 0x1 DUP2 ADD SLOAD SWAP1 PUSH1 0x2 DUP2 ADD SLOAD SWAP1 PUSH1 0x3 DUP2 ADD SLOAD PUSH1 0x4 DUP3 ADD SLOAD PUSH1 0x5 DUP4 ADD SLOAD SWAP1 PUSH1 0x6 DUP5 ADD SLOAD SWAP3 PUSH1 0x8 PUSH1 0xFF PUSH1 0x7 DUP8 ADD SLOAD AND SWAP6 ADD SLOAD SWAP6 PUSH1 0x40 MLOAD SWAP10 DUP11 SWAP10 PUSH2 0x120 DUP1 DUP13 MSTORE DUP12 ADD SWAP1 PUSH2 0x1D45 JUMP JUMPDEST SWAP8 PUSH1 0x20 DUP11 ADD MSTORE PUSH1 0x40 DUP10 ADD MSTORE PUSH1 0x60 DUP9 ADD MSTORE PUSH1 0x80 DUP8 ADD MSTORE PUSH1 0xA0 DUP7 ADD MSTORE PUSH1 0xC0 DUP6 ADD MSTORE ISZERO ISZERO PUSH1 0xE0 DUP5 ADD MSTORE PUSH2 0x100 DUP4 ADD MSTORE SUB SWAP1 RETURN JUMPDEST CALLVALUE PUSH2 0x226 JUMPI PUSH1 0x20 CALLDATASIZE PUSH1 0x3 NOT ADD SLT PUSH2 0x226 JUMPI CALLER PUSH1 0x0 SWAP1 DUP2 MSTORE PUSH32 0x9E607DE338C7D6508550727646D2998939F27517879A7DD916362B3520E39487 PUSH1 0x20 MSTORE PUSH1 0x40 SWAP1 KECCAK256 SLOAD PUSH1 0x4 CALLDATALOAD SWAP1 PUSH32 0xB814FF4A26EA3EC5CD1FA579DAAD86324826254265F3ACFEC78303A19845B449 SWAP1 PUSH1 0xFF AND ISZERO PUSH2 0xE33 JUMPI PUSH32 0x29E98BA00D07F171959C4DDCD2F3020DEBC7C52CF537A034D7E664340D098C6C PUSH1 0x40 DUP4 PUSH2 0x14F1 DUP2 ISZERO ISZERO PUSH2 0x2116 JUMP JUMPDEST PUSH2 0x151D DUP2 ADDRESS CALLER PUSH32 0x0 PUSH2 0x2179 JUMP JUMPDEST PUSH1 0x5 SLOAD DUP3 MLOAD SWAP2 DUP3 MSTORE PUSH1 0x20 DUP3 ADD MSTORE LOG1 STOP JUMPDEST CALLVALUE PUSH2 0x226 JUMPI PUSH1 0x0 CALLDATASIZE PUSH1 0x3 NOT ADD SLT PUSH2 0x226 JUMPI PUSH1 0x20 PUSH1 0x40 MLOAD PUSH32 0x6077685936C8169D09204A1D97DB12E41713588C38E1D29A61867D3DCEE98AFF DUP2 MSTORE RETURN JUMPDEST CALLVALUE PUSH2 0x226 JUMPI PUSH2 0x1576 CALLDATASIZE PUSH2 0x1BA3 JUMP JUMPDEST PUSH2 0x157E PUSH2 0x222A JUMP JUMPDEST PUSH2 0x1586 PUSH2 0x2248 JUMP JUMPDEST PUSH2 0x1593 PUSH1 0x6 SLOAD DUP4 LT PUSH2 0x20CB JUMP JUMPDEST PUSH2 0x159E DUP2 ISZERO ISZERO PUSH2 0x2116 JUMP JUMPDEST DUP2 PUSH1 0x0 MSTORE PUSH1 0x7 PUSH1 0x20 MSTORE PUSH1 0x40 PUSH1 0x0 KECCAK256 CALLER PUSH1 0x0 MSTORE PUSH1 0x20 MSTORE PUSH1 0x40 PUSH1 0x0 KECCAK256 PUSH1 0x5 DUP2 ADD PUSH2 0x15C9 PUSH1 0xFF DUP3 SLOAD AND PUSH2 0x226B JUMP JUMPDEST PUSH2 0x15D6 DUP4 DUP4 SLOAD LT ISZERO PUSH2 0x22B6 JUMP JUMPDEST PUSH2 0x15DF DUP5 PUSH2 0x1BB9 JUMP JUMPDEST POP PUSH1 0x0 SWAP2 PUSH1 0x2 DUP5 ADD SLOAD TIMESTAMP LT PUSH2 0x16DB JUMPI JUMPDEST PUSH1 0x5 SWAP3 SWAP4 PUSH2 0x15FD DUP8 CALLER PUSH2 0x2366 JUMP JUMPDEST PUSH2 0x1608 DUP7 DUP3 SLOAD PUSH2 0x1F4C JUMP JUMPDEST DUP1 SWAP2 SSTORE ISZERO PUSH2 0x16C3 JUMPI JUMPDEST POP ADD PUSH2 0x161E DUP4 DUP3 SLOAD PUSH2 0x1F4C JUMP JUMPDEST SWAP1 SSTORE PUSH2 0x162C DUP3 PUSH1 0x3 SLOAD PUSH2 0x1F4C JUMP JUMPDEST PUSH1 0x3 SSTORE CALLER PUSH1 0x0 MSTORE PUSH1 0x9 PUSH1 0x20 MSTORE PUSH1 0x40 PUSH1 0x0 KECCAK256 PUSH2 0x1648 DUP4 DUP3 SLOAD PUSH2 0x1F4C JUMP JUMPDEST SWAP1 SSTORE PUSH2 0x1654 DUP2 DUP4 PUSH2 0x1F4C JUMP JUMPDEST DUP1 PUSH2 0x1692 JUMPI JUMPDEST POP PUSH1 0x40 MLOAD SWAP2 DUP3 MSTORE PUSH1 0x20 DUP3 ADD MSTORE PUSH32 0xEF2EC7ADE2D89C8B9C114F5A682D19FC527F3E9E3D38AFAF890A584D2107F30F PUSH1 0x40 CALLER SWAP3 LOG3 PUSH1 0x1 DUP1 SSTORE STOP JUMPDEST PUSH2 0x16BD SWAP1 CALLER PUSH32 0x0 PUSH2 0x2316 JUMP JUMPDEST DUP4 PUSH2 0x165A JUMP JUMPDEST DUP1 SLOAD PUSH1 0xFF NOT AND SWAP1 SSTORE PUSH2 0x16D5 DUP6 CALLER PUSH2 0x241E JUMP JUMPDEST DUP6 PUSH2 0x1611 JUMP JUMPDEST PUSH1 0x5 SWAP3 POP PUSH2 0x2710 PUSH2 0x16F0 PUSH1 0x8 DUP5 ADD SLOAD DUP8 PUSH2 0x1F59 JUMP JUMPDEST DIV SWAP3 POP PUSH2 0x15EF JUMP JUMPDEST CALLVALUE PUSH2 0x226 JUMPI PUSH1 0x0 CALLDATASIZE PUSH1 0x3 NOT ADD SLT PUSH2 0x226 JUMPI PUSH2 0x1711 PUSH2 0x1DF9 JUMP JUMPDEST PUSH1 0x2 SLOAD PUSH1 0xFF DUP2 AND ISZERO PUSH2 0x1750 JUMPI PUSH1 0xFF NOT AND PUSH1 0x2 SSTORE PUSH32 0x5DB9EE0A495BF2E6FF9C91A7834C1BA4FDD244A5E8AA4E537BD38AEAE4B073AA PUSH1 0x20 PUSH1 0x40 MLOAD CALLER DUP2 MSTORE LOG1 STOP JUMPDEST PUSH1 0x40 MLOAD PUSH4 0x8DFC202B PUSH1 0xE0 SHL DUP2 MSTORE PUSH1 0x4 SWAP1 REVERT JUMPDEST CALLVALUE PUSH2 0x226 JUMPI PUSH1 0x20 CALLDATASIZE PUSH1 0x3 NOT ADD SLT PUSH2 0x226 JUMPI PUSH1 0x1 PUSH1 0x1 PUSH1 0xA0 SHL SUB PUSH2 0x1783 PUSH2 0x1B8D JUMP JUMPDEST AND PUSH1 0x0 MSTORE PUSH1 0x9 PUSH1 0x20 MSTORE PUSH1 0x20 PUSH1 0x40 PUSH1 0x0 KECCAK256 SLOAD PUSH1 0x40 MLOAD SWAP1 DUP2 MSTORE RETURN JUMPDEST CALLVALUE PUSH2 0x226 JUMPI PUSH1 0x0 CALLDATASIZE PUSH1 0x3 NOT ADD SLT PUSH2 0x226 JUMPI PUSH1 0x20 PUSH1 0x5 SLOAD PUSH1 0x40 MLOAD SWAP1 DUP2 MSTORE RETURN JUMPDEST CALLVALUE PUSH2 0x226 JUMPI PUSH1 0x80 CALLDATASIZE PUSH1 0x3 NOT ADD SLT PUSH2 0x226 JUMPI PUSH1 0x4 CALLDATALOAD PUSH1 0x44 CALLDATALOAD PUSH1 0x64 CALLDATALOAD PUSH1 0x24 CALLDATALOAD DUP2 ISZERO ISZERO DUP1 DUP4 SUB PUSH2 0x226 JUMPI PUSH2 0x1862 PUSH1 0x40 SWAP4 PUSH1 0x7 PUSH32 0xEC70F7B7F8BEEFA9FF0456053BAAFEC83986E3915F156E2ED04B0ACB57D7DD55 SWAP7 PUSH2 0x1813 PUSH2 0x1D9D JUMP JUMPDEST PUSH2 0x1820 PUSH1 0x6 SLOAD DUP11 LT PUSH2 0x20CB JUMP JUMPDEST PUSH2 0x183A PUSH2 0x2710 PUSH2 0x1832 DUP2 DUP10 GT ISZERO PUSH2 0x2507 JUMP JUMPDEST DUP3 LT ISZERO PUSH2 0x2563 JUMP JUMPDEST PUSH2 0x1843 DUP10 PUSH2 0x1BB9 JUMP JUMPDEST POP SWAP1 DUP7 PUSH1 0x2 DUP4 ADD SSTORE PUSH1 0x6 DUP3 ADD SSTORE ADD SWAP1 PUSH1 0xFF DUP1 NOT DUP4 SLOAD AND SWAP2 ISZERO ISZERO AND OR SWAP1 SSTORE JUMP JUMPDEST DUP3 MLOAD SWAP2 DUP3 MSTORE PUSH1 0x20 DUP3 ADD MSTORE LOG2 STOP JUMPDEST CALLVALUE PUSH2 0x226 JUMPI PUSH1 0x40 CALLDATASIZE PUSH1 0x3 NOT ADD SLT PUSH2 0x226 JUMPI PUSH2 0x1888 PUSH2 0x1B77 JUMP JUMPDEST CALLER PUSH1 0x1 PUSH1 0x1 PUSH1 0xA0 SHL SUB DUP3 AND SUB PUSH2 0x18A4 JUMPI PUSH2 0x428 SWAP1 PUSH1 0x4 CALLDATALOAD PUSH2 0x1ED7 JUMP JUMPDEST PUSH1 0x40 MLOAD PUSH4 0x334BD919 PUSH1 0xE1 SHL DUP2 MSTORE PUSH1 0x4 SWAP1 REVERT JUMPDEST CALLVALUE PUSH2 0x226 JUMPI PUSH1 0x0 CALLDATASIZE PUSH1 0x3 NOT ADD SLT PUSH2 0x226 JUMPI PUSH1 0x20 PUSH1 0x40 MLOAD PUSH32 0xB814FF4A26EA3EC5CD1FA579DAAD86324826254265F3ACFEC78303A19845B449 DUP2 MSTORE RETURN JUMPDEST CALLVALUE PUSH2 0x226 JUMPI PUSH1 0x40 CALLDATASIZE PUSH1 0x3 NOT ADD SLT PUSH2 0x226 JUMPI PUSH2 0x428 PUSH1 0x4 CALLDATALOAD PUSH2 0x1910 PUSH2 0x1B77 JUMP JUMPDEST SWAP1 DUP1 PUSH1 0x0 MSTORE PUSH1 0x0 PUSH1 0x20 MSTORE PUSH2 0x192B PUSH1 0x1 PUSH1 0x40 PUSH1 0x0 KECCAK256 ADD SLOAD PUSH2 0x1E33 JUMP JUMPDEST PUSH2 0x1E59 JUMP JUMPDEST CALLVALUE PUSH2 0x226 JUMPI PUSH1 0x20 CALLDATASIZE PUSH1 0x3 NOT ADD SLT PUSH2 0x226 JUMPI PUSH1 0x4 CALLDATALOAD PUSH1 0x0 MSTORE PUSH1 0x0 PUSH1 0x20 MSTORE PUSH1 0x20 PUSH1 0x1 PUSH1 0x40 PUSH1 0x0 KECCAK256 ADD SLOAD PUSH1 0x40 MLOAD SWAP1 DUP2 MSTORE RETURN JUMPDEST CALLVALUE PUSH2 0x226 JUMPI PUSH1 0x0 CALLDATASIZE PUSH1 0x3 NOT ADD SLT PUSH2 0x226 JUMPI PUSH1 0x20 PUSH1 0x40 MLOAD PUSH32 0xBF233DD2AAFEB4D50879C4AA5C81E96D92F6E6945C906A58F9F2D1C1631B4B26 DUP2 MSTORE RETURN JUMPDEST CALLVALUE PUSH2 0x226 JUMPI PUSH1 0x20 CALLDATASIZE PUSH1 0x3 NOT ADD SLT PUSH2 0x226 JUMPI PUSH1 0x4 CALLDATALOAD PUSH1 0x0 MSTORE PUSH1 0xA PUSH1 0x20 MSTORE PUSH1 0x20 PUSH1 0x40 PUSH1 0x0 KECCAK256 SLOAD PUSH1 0x40 MLOAD SWAP1 DUP2 MSTORE RETURN JUMPDEST CALLVALUE PUSH2 0x226 JUMPI PUSH1 0x0 CALLDATASIZE PUSH1 0x3 NOT ADD SLT PUSH2 0x226 JUMPI PUSH2 0x19DF PUSH2 0x222A JUMP JUMPDEST PUSH2 0x19E7 PUSH2 0x2248 JUMP JUMPDEST CALLER PUSH1 0x0 MSTORE PUSH1 0x20 PUSH1 0x8 DUP2 MSTORE PUSH1 0x40 PUSH1 0x0 KECCAK256 SWAP1 PUSH1 0x40 MLOAD DUP1 DUP4 DUP4 DUP3 SWAP6 SLOAD SWAP4 DUP5 DUP2 MSTORE ADD SWAP1 PUSH1 0x0 MSTORE DUP4 PUSH1 0x0 KECCAK256 SWAP3 PUSH1 0x0 JUMPDEST DUP6 DUP3 DUP3 LT PUSH2 0x1A8E JUMPI POP POP POP PUSH2 0x1A28 SWAP3 POP SUB DUP4 PUSH2 0x1C7D JUMP JUMPDEST PUSH1 0x0 JUMPDEST DUP3 MLOAD DUP2 LT ISZERO PUSH2 0x1A88 JUMPI DUP1 PUSH2 0x1A42 PUSH2 0x1A6A SWAP3 DUP6 PUSH2 0x24F3 JUMP JUMPDEST MLOAD PUSH1 0x0 MSTORE PUSH1 0x7 DUP4 MSTORE PUSH1 0x40 PUSH1 0x0 KECCAK256 CALLER PUSH1 0x0 MSTORE DUP4 MSTORE PUSH1 0xFF PUSH1 0x5 PUSH1 0x40 PUSH1 0x0 KECCAK256 ADD SLOAD AND PUSH2 0x1A6F JUMPI PUSH2 0x240F JUMP JUMPDEST PUSH2 0x1A2B JUMP JUMPDEST PUSH2 0x1A83 PUSH2 0x1A7C DUP3 DUP7 PUSH2 0x24F3 JUMP JUMPDEST MLOAD CALLER PUSH2 0x2366 JUMP JUMPDEST PUSH2 0x240F JUMP JUMPDEST PUSH1 0x1 DUP1 SSTORE STOP JUMPDEST DUP6 SLOAD DUP5 MSTORE PUSH1 0x1 SWAP6 DUP7 ADD SWAP6 DUP9 SWAP6 POP SWAP4 ADD SWAP3 ADD PUSH2 0x1A11 JUMP JUMPDEST CALLVALUE PUSH2 0x226 JUMPI PUSH1 0x20 CALLDATASIZE PUSH1 0x3 NOT ADD SLT PUSH2 0x226 JUMPI PUSH2 0x1A88 PUSH1 0x4 CALLDATALOAD PUSH2 0x1AC3 PUSH2 0x222A JUMP JUMPDEST PUSH2 0x1ACB PUSH2 0x2248 JUMP JUMPDEST PUSH2 0x1AD8 PUSH1 0x6 SLOAD DUP3 LT PUSH2 0x20CB JUMP JUMPDEST CALLER PUSH2 0x2366 JUMP JUMPDEST CALLVALUE PUSH2 0x226 JUMPI PUSH1 0x20 CALLDATASIZE PUSH1 0x3 NOT ADD SLT PUSH2 0x226 JUMPI PUSH1 0x4 CALLDATALOAD PUSH4 0xFFFFFFFF PUSH1 0xE0 SHL DUP2 AND DUP1 SWAP2 SUB PUSH2 0x226 JUMPI PUSH1 0x20 SWAP1 PUSH4 0x7965DB0B PUSH1 0xE0 SHL DUP2 EQ SWAP1 DUP2 ISZERO PUSH2 0x1B23 JUMPI JUMPDEST POP PUSH1 0x40 MLOAD SWAP1 ISZERO ISZERO DUP2 MSTORE RETURN JUMPDEST PUSH4 0x1FFC9A7 PUSH1 0xE0 SHL EQ SWAP1 POP DUP3 PUSH2 0x1B18 JUMP JUMPDEST CALLVALUE PUSH2 0x226 JUMPI PUSH1 0x40 CALLDATASIZE PUSH1 0x3 NOT ADD SLT PUSH2 0x226 JUMPI PUSH1 0x20 SWAP1 PUSH2 0x1B50 PUSH2 0x1B77 JUMP JUMPDEST PUSH1 0x4 CALLDATALOAD PUSH1 0x0 SWAP1 DUP2 MSTORE PUSH1 0xC DUP5 MSTORE PUSH1 0x40 DUP1 DUP3 KECCAK256 PUSH1 0x1 PUSH1 0x1 PUSH1 0xA0 SHL SUB SWAP1 SWAP4 AND DUP3 MSTORE SWAP2 DUP5 MSTORE KECCAK256 SLOAD DUP2 MSTORE RETURN JUMPDEST PUSH1 0x24 CALLDATALOAD SWAP1 PUSH1 0x1 PUSH1 0x1 PUSH1 0xA0 SHL SUB DUP3 AND DUP3 SUB PUSH2 0x226 JUMPI JUMP JUMPDEST PUSH1 0x4 CALLDATALOAD SWAP1 PUSH1 0x1 PUSH1 0x1 PUSH1 0xA0 SHL SUB DUP3 AND DUP3 SUB PUSH2 0x226 JUMPI JUMP JUMPDEST PUSH1 0x40 SWAP1 PUSH1 0x3 NOT ADD SLT PUSH2 0x226 JUMPI PUSH1 0x4 CALLDATALOAD SWAP1 PUSH1 0x24 CALLDATALOAD SWAP1 JUMP JUMPDEST PUSH1 0x6 SLOAD DUP2 LT ISZERO PUSH2 0x1BF4 JUMPI PUSH1 0x9 SWAP1 PUSH1 0x6 PUSH1 0x0 MSTORE MUL PUSH32 0xF652222313E28459528D920B65115C16C04F3EFC82AAEDC97BE59F3F377C0D3F ADD SWAP1 PUSH1 0x0 SWAP1 JUMP JUMPDEST PUSH4 0x4E487B71 PUSH1 0xE0 SHL PUSH1 0x0 MSTORE PUSH1 0x32 PUSH1 0x4 MSTORE PUSH1 0x24 PUSH1 0x0 REVERT JUMPDEST SWAP1 PUSH1 0x1 DUP3 DUP2 SHR SWAP3 AND DUP1 ISZERO PUSH2 0x1C3A JUMPI JUMPDEST PUSH1 0x20 DUP4 LT EQ PUSH2 0x1C24 JUMPI JUMP JUMPDEST PUSH4 0x4E487B71 PUSH1 0xE0 SHL PUSH1 0x0 MSTORE PUSH1 0x22 PUSH1 0x4 MSTORE PUSH1 0x24 PUSH1 0x0 REVERT JUMPDEST SWAP2 PUSH1 0x7F AND SWAP2 PUSH2 0x1C19 JUMP JUMPDEST PUSH2 0x120 DUP2 ADD SWAP1 DUP2 LT PUSH8 0xFFFFFFFFFFFFFFFF DUP3 GT OR PUSH2 0x904 JUMPI PUSH1 0x40 MSTORE JUMP JUMPDEST PUSH1 0xC0 DUP2 ADD SWAP1 DUP2 LT PUSH8 0xFFFFFFFFFFFFFFFF DUP3 GT OR PUSH2 0x904 JUMPI PUSH1 0x40 MSTORE JUMP JUMPDEST SWAP1 PUSH1 0x1F DUP1 NOT SWAP2 ADD AND DUP2 ADD SWAP1 DUP2 LT PUSH8 0xFFFFFFFFFFFFFFFF DUP3 GT OR PUSH2 0x904 JUMPI PUSH1 0x40 MSTORE JUMP JUMPDEST SWAP1 PUSH1 0x40 MLOAD SWAP2 DUP3 PUSH1 0x0 DUP3 SLOAD SWAP3 PUSH2 0x1CB3 DUP5 PUSH2 0x1C0A JUMP JUMPDEST SWAP1 DUP2 DUP5 MSTORE PUSH1 0x1 SWAP5 DUP6 DUP2 AND SWAP1 DUP2 PUSH1 0x0 EQ PUSH2 0x1D22 JUMPI POP PUSH1 0x1 EQ PUSH2 0x1CDF JUMPI JUMPDEST POP POP PUSH2 0x1CDD SWAP3 POP SUB DUP4 PUSH2 0x1C7D JUMP JUMPDEST JUMP JUMPDEST SWAP1 SWAP4 SWAP2 POP PUSH1 0x0 MSTORE PUSH1 0x20 SWAP1 DUP2 PUSH1 0x0 KECCAK256 SWAP4 PUSH1 0x0 SWAP2 JUMPDEST DUP2 DUP4 LT PUSH2 0x1D0A JUMPI POP POP PUSH2 0x1CDD SWAP4 POP DUP3 ADD ADD CODESIZE DUP1 PUSH2 0x1CCF JUMP JUMPDEST DUP6 SLOAD DUP9 DUP5 ADD DUP6 ADD MSTORE SWAP5 DUP6 ADD SWAP5 DUP8 SWAP5 POP SWAP2 DUP4 ADD SWAP2 PUSH2 0x1CF2 JUMP JUMPDEST SWAP2 POP POP PUSH2 0x1CDD SWAP5 POP PUSH1 0x20 SWAP3 POP PUSH1 0xFF NOT AND DUP3 DUP5 ADD MSTORE ISZERO ISZERO PUSH1 0x5 SHL DUP3 ADD ADD CODESIZE DUP1 PUSH2 0x1CCF JUMP JUMPDEST SWAP2 SWAP1 DUP3 MLOAD SWAP3 DUP4 DUP3 MSTORE PUSH1 0x0 JUMPDEST DUP5 DUP2 LT PUSH2 0x1D71 JUMPI POP POP DUP3 PUSH1 0x0 PUSH1 0x20 DUP1 SWAP5 SWAP6 DUP5 ADD ADD MSTORE PUSH1 0x1F DUP1 NOT SWAP2 ADD AND ADD ADD SWAP1 JUMP JUMPDEST PUSH1 0x20 DUP2 DUP4 ADD DUP2 ADD MLOAD DUP5 DUP4 ADD DUP3 ADD MSTORE ADD PUSH2 0x1D50 JUMP JUMPDEST DUP1 SLOAD DUP3 LT ISZERO PUSH2 0x1BF4 JUMPI PUSH1 0x0 MSTORE PUSH1 0x20 PUSH1 0x0 KECCAK256 ADD SWAP1 PUSH1 0x0 SWAP1 JUMP JUMPDEST CALLER PUSH1 0x0 SWAP1 DUP2 MSTORE PUSH32 0x729EF9451DD492832BD2A98139702CED95DFA0CEC7E99526DBBCB957ABCBC476 PUSH1 0x20 MSTORE PUSH1 0x40 SWAP1 KECCAK256 SLOAD PUSH32 0x6077685936C8169D09204A1D97DB12E41713588C38E1D29A61867D3DCEE98AFF SWAP1 PUSH1 0xFF AND ISZERO PUSH2 0xE33 JUMPI POP JUMP JUMPDEST CALLER PUSH1 0x0 SWAP1 DUP2 MSTORE PUSH32 0xAD3228B676F7D3CD4284A5443F17F1962B36E491B30A40B2405849E597BA5FB5 PUSH1 0x20 MSTORE PUSH1 0x40 DUP2 KECCAK256 SLOAD PUSH1 0xFF AND ISZERO PUSH2 0xE33 JUMPI POP JUMP JUMPDEST DUP1 PUSH1 0x0 MSTORE PUSH1 0x0 PUSH1 0x20 MSTORE PUSH1 0x40 PUSH1 0x0 KECCAK256 CALLER PUSH1 0x0 MSTORE PUSH1 0x20 MSTORE PUSH1 0xFF PUSH1 0x40 PUSH1 0x0 KECCAK256 SLOAD AND ISZERO PUSH2 0xE33 JUMPI POP JUMP JUMPDEST SWAP1 PUSH1 0x0 SWAP2 DUP1 DUP4 MSTORE DUP3 PUSH1 0x20 MSTORE PUSH1 0x40 DUP4 KECCAK256 SWAP2 PUSH1 0x1 DUP1 PUSH1 0xA0 SHL SUB AND SWAP2 DUP3 DUP5 MSTORE PUSH1 0x20 MSTORE PUSH1 0xFF PUSH1 0x40 DUP5 KECCAK256 SLOAD AND ISZERO PUSH1 0x0 EQ PUSH2 0x1ED2 JUMPI DUP1 DUP4 MSTORE DUP3 PUSH1 0x20 MSTORE PUSH1 0x40 DUP4 KECCAK256 DUP3 DUP5 MSTORE PUSH1 0x20 MSTORE PUSH1 0x40 DUP4 KECCAK256 PUSH1 0x1 PUSH1 0xFF NOT DUP3 SLOAD AND OR SWAP1 SSTORE PUSH32 0x2F8788117E7EFF1D82E926EC794901D17C78024A50270940304540A733656F0D CALLER SWAP4 DUP1 LOG4 PUSH1 0x1 SWAP1 JUMP JUMPDEST POP POP SWAP1 JUMP JUMPDEST SWAP1 PUSH1 0x0 SWAP2 DUP1 DUP4 MSTORE DUP3 PUSH1 0x20 MSTORE PUSH1 0x40 DUP4 KECCAK256 SWAP2 PUSH1 0x1 DUP1 PUSH1 0xA0 SHL SUB AND SWAP2 DUP3 DUP5 MSTORE PUSH1 0x20 MSTORE PUSH1 0xFF PUSH1 0x40 DUP5 KECCAK256 SLOAD AND PUSH1 0x0 EQ PUSH2 0x1ED2 JUMPI DUP1 DUP4 MSTORE DUP3 PUSH1 0x20 MSTORE PUSH1 0x40 DUP4 KECCAK256 DUP3 DUP5 MSTORE PUSH1 0x20 MSTORE PUSH1 0x40 DUP4 KECCAK256 PUSH1 0xFF NOT DUP2 SLOAD AND SWAP1 SSTORE PUSH32 0xF6391F5C32D9C69D2A47EA670B442974B53935D1EDC7FD64EB21E047A839171B CALLER SWAP4 DUP1 LOG4 PUSH1 0x1 SWAP1 JUMP JUMPDEST SWAP2 SWAP1 DUP3 SUB SWAP2 DUP3 GT PUSH2 0x82F JUMPI JUMP JUMPDEST DUP2 DUP2 MUL SWAP3 SWAP2 DUP2 ISZERO SWAP2 DUP5 DIV EQ OR ISZERO PUSH2 0x82F JUMPI JUMP JUMPDEST SWAP2 SWAP1 DUP3 ADD DUP1 SWAP3 GT PUSH2 0x82F JUMPI JUMP JUMPDEST DUP2 PUSH1 0x0 MSTORE PUSH1 0x7 PUSH1 0x20 MSTORE PUSH1 0x40 SWAP1 DUP2 PUSH1 0x0 KECCAK256 SWAP1 PUSH1 0x1 DUP1 PUSH1 0xA0 SHL SUB AND PUSH1 0x0 MSTORE PUSH1 0x20 MSTORE DUP1 PUSH1 0x0 KECCAK256 SWAP1 DUP1 MLOAD SWAP3 PUSH2 0x1FA9 DUP5 PUSH2 0x1C61 JUMP JUMPDEST DUP3 SLOAD DUP1 DUP6 MSTORE PUSH1 0x1 DUP5 ADD SLOAD PUSH1 0x20 DUP7 ADD MSTORE PUSH1 0x2 DUP5 ADD SLOAD DUP4 DUP7 ADD MSTORE PUSH1 0x3 DUP5 ADD SLOAD SWAP1 PUSH1 0x60 DUP7 ADD SWAP2 DUP3 MSTORE PUSH1 0xFF PUSH1 0x5 PUSH1 0x4 DUP8 ADD SLOAD SWAP7 PUSH1 0x80 DUP10 ADD SWAP8 DUP9 MSTORE ADD SLOAD AND ISZERO SWAP1 DUP2 ISZERO SWAP2 DUP3 PUSH1 0xA0 DUP10 ADD MSTORE SWAP2 PUSH2 0x20C2 JUMPI JUMPDEST POP PUSH2 0x20B8 JUMPI PUSH4 0x1E13380 PUSH2 0x20A4 PUSH2 0x20B5 SWAP7 PUSH2 0x208B PUSH2 0x2013 PUSH2 0x20AD SWAP7 PUSH2 0x1BB9 JUMP JUMPDEST POP SWAP5 DUP8 MLOAD PUSH2 0x2020 DUP2 PUSH2 0x1C44 JUMP JUMPDEST PUSH2 0x2029 DUP8 PUSH2 0x1C9F JUMP JUMPDEST DUP2 MSTORE PUSH1 0x1 DUP8 ADD SLOAD PUSH1 0x20 DUP3 ADD MSTORE PUSH1 0x2 DUP8 ADD SLOAD SWAP9 DUP2 ADD SWAP9 DUP10 MSTORE PUSH1 0x3 DUP8 ADD SLOAD PUSH1 0x60 DUP3 ADD MSTORE PUSH1 0x4 DUP8 ADD SLOAD PUSH1 0x80 DUP3 ADD MSTORE PUSH1 0x5 DUP8 ADD SLOAD PUSH1 0xA0 DUP3 ADD MSTORE PUSH2 0x100 PUSH1 0x8 PUSH1 0x6 DUP10 ADD SLOAD SWAP9 PUSH1 0xC0 DUP5 ADD SWAP10 DUP11 MSTORE PUSH1 0xFF PUSH1 0x7 DUP3 ADD SLOAD AND ISZERO ISZERO PUSH1 0xE0 DUP6 ADD MSTORE ADD SLOAD SWAP2 ADD MSTORE MLOAD TIMESTAMP PUSH2 0x1F4C JUMP JUMPDEST SWAP1 MLOAD SWAP6 PUSH2 0x209E PUSH2 0x2710 SWAP8 DUP9 SWAP3 MLOAD SWAP1 PUSH2 0x1F59 JUMP JUMPDEST DIV PUSH2 0x1F59 JUMP JUMPDEST DIV SWAP1 MLOAD SWAP1 PUSH2 0x1F59 JUMP JUMPDEST DIV SWAP1 MLOAD PUSH2 0x1F6C JUMP JUMPDEST SWAP1 JUMP JUMPDEST POP POP POP POP POP PUSH1 0x0 SWAP1 JUMP JUMPDEST SWAP1 POP ISZERO CODESIZE PUSH2 0x1FF3 JUMP JUMPDEST ISZERO PUSH2 0x20D2 JUMPI JUMP JUMPDEST PUSH1 0x64 PUSH1 0x40 MLOAD PUSH3 0x461BCD PUSH1 0xE5 SHL DUP2 MSTORE PUSH1 0x20 PUSH1 0x4 DUP3 ADD MSTORE PUSH1 0x20 PUSH1 0x24 DUP3 ADD MSTORE PUSH32 0x424C4F434B535374616B696E6756323A20496E76616C696420706F6F6C204944 PUSH1 0x44 DUP3 ADD MSTORE REVERT JUMPDEST ISZERO PUSH2 0x211D JUMPI JUMP JUMPDEST PUSH1 0x40 MLOAD PUSH3 0x461BCD PUSH1 0xE5 SHL DUP2 MSTORE PUSH1 0x20 PUSH1 0x4 DUP3 ADD MSTORE PUSH1 0x2E PUSH1 0x24 DUP3 ADD MSTORE PUSH32 0x424C4F434B535374616B696E6756323A20416D6F756E74206D75737420626520 PUSH1 0x44 DUP3 ADD MSTORE PUSH14 0x67726561746572207468616E203 PUSH1 0x94 SHL PUSH1 0x64 DUP3 ADD MSTORE PUSH1 0x84 SWAP1 REVERT JUMPDEST PUSH1 0x40 MLOAD PUSH4 0x23B872DD PUSH1 0xE0 SHL PUSH1 0x20 DUP3 ADD MSTORE PUSH1 0x1 PUSH1 0x1 PUSH1 0xA0 SHL SUB SWAP3 DUP4 AND PUSH1 0x24 DUP3 ADD MSTORE SWAP3 SWAP1 SWAP2 AND PUSH1 0x44 DUP4 ADD MSTORE PUSH1 0x64 DUP1 DUP4 ADD SWAP4 SWAP1 SWAP4 MSTORE SWAP2 DUP2 MSTORE PUSH1 0xA0 DUP2 ADD SWAP2 DUP2 DUP4 LT PUSH8 0xFFFFFFFFFFFFFFFF DUP5 GT OR PUSH2 0x904 JUMPI PUSH2 0x1CDD SWAP3 PUSH1 0x40 MSTORE JUMPDEST SWAP1 PUSH1 0x0 PUSH1 0x20 SWAP2 DUP3 DUP2 MLOAD SWAP2 ADD DUP3 DUP6 GAS CALL ISZERO PUSH2 0x3DD JUMPI PUSH1 0x0 MLOAD RETURNDATASIZE PUSH2 0x2221 JUMPI POP PUSH1 0x1 PUSH1 0x1 PUSH1 0xA0 SHL SUB DUP2 AND EXTCODESIZE ISZERO JUMPDEST PUSH2 0x21FF JUMPI POP JUMP JUMPDEST PUSH1 0x40 MLOAD PUSH4 0x5274AFE7 PUSH1 0xE0 SHL DUP2 MSTORE PUSH1 0x1 PUSH1 0x1 PUSH1 0xA0 SHL SUB SWAP1 SWAP2 AND PUSH1 0x4 DUP3 ADD MSTORE PUSH1 0x24 SWAP1 REVERT JUMPDEST PUSH1 0x1 EQ ISZERO PUSH2 0x21F8 JUMP JUMPDEST PUSH1 0xFF PUSH1 0x2 SLOAD AND PUSH2 0x2236 JUMPI JUMP JUMPDEST PUSH1 0x40 MLOAD PUSH4 0xD93C0665 PUSH1 0xE0 SHL DUP2 MSTORE PUSH1 0x4 SWAP1 REVERT JUMPDEST PUSH1 0x2 PUSH1 0x1 SLOAD EQ PUSH2 0x2259 JUMPI PUSH1 0x2 PUSH1 0x1 SSTORE JUMP JUMPDEST PUSH1 0x40 MLOAD PUSH4 0x3EE5AEB5 PUSH1 0xE0 SHL DUP2 MSTORE PUSH1 0x4 SWAP1 REVERT JUMPDEST ISZERO PUSH2 0x2272 JUMPI JUMP JUMPDEST PUSH1 0x64 PUSH1 0x40 MLOAD PUSH3 0x461BCD PUSH1 0xE5 SHL DUP2 MSTORE PUSH1 0x20 PUSH1 0x4 DUP3 ADD MSTORE PUSH1 0x20 PUSH1 0x24 DUP3 ADD MSTORE PUSH32 0x424C4F434B535374616B696E6756323A204E6F20616374697665207374616B65 PUSH1 0x44 DUP3 ADD MSTORE REVERT JUMPDEST ISZERO PUSH2 0x22BD JUMPI JUMP JUMPDEST PUSH1 0x40 MLOAD PUSH3 0x461BCD PUSH1 0xE5 SHL DUP2 MSTORE PUSH1 0x20 PUSH1 0x4 DUP3 ADD MSTORE PUSH1 0x2B PUSH1 0x24 DUP3 ADD MSTORE PUSH32 0x424C4F434B535374616B696E6756323A20496E73756666696369656E74207374 PUSH1 0x44 DUP3 ADD MSTORE PUSH11 0x185AD95908185B5BDD5B9D PUSH1 0xAA SHL PUSH1 0x64 DUP3 ADD MSTORE PUSH1 0x84 SWAP1 REVERT JUMPDEST PUSH1 0x40 MLOAD PUSH4 0xA9059CBB PUSH1 0xE0 SHL PUSH1 0x20 DUP3 ADD MSTORE PUSH1 0x1 PUSH1 0x1 PUSH1 0xA0 SHL SUB SWAP1 SWAP3 AND PUSH1 0x24 DUP4 ADD MSTORE PUSH1 0x44 DUP1 DUP4 ADD SWAP4 SWAP1 SWAP4 MSTORE SWAP2 DUP2 MSTORE PUSH1 0x80 DUP2 ADD SWAP2 PUSH8 0xFFFFFFFFFFFFFFFF DUP4 GT DUP3 DUP5 LT OR PUSH2 0x904 JUMPI PUSH2 0x1CDD SWAP3 PUSH1 0x40 MSTORE PUSH2 0x21CE JUMP JUMPDEST PUSH2 0x2370 DUP3 DUP3 PUSH2 0x1F79 JUMP JUMPDEST DUP1 ISZERO PUSH2 0x240A JUMPI PUSH1 0x20 PUSH32 0xDACBDDE355BA930696A362EA6738FEB9F8BD52DFB3D81947558FD3217E23E325 SWAP2 DUP5 PUSH1 0x0 MSTORE PUSH1 0x7 DUP3 MSTORE PUSH2 0x23F2 DUP2 PUSH1 0x40 PUSH1 0x0 KECCAK256 SWAP6 PUSH1 0x1 DUP1 PUSH1 0xA0 SHL SUB DUP2 AND SWAP7 DUP8 PUSH1 0x0 MSTORE DUP6 MSTORE PUSH1 0x0 PUSH1 0x4 PUSH1 0x40 DUP3 KECCAK256 TIMESTAMP PUSH1 0x3 DUP3 ADD SSTORE ADD SSTORE PUSH32 0x0 PUSH2 0x2316 JUMP JUMPDEST PUSH2 0x23FE DUP2 PUSH1 0x4 SLOAD PUSH2 0x1F6C JUMP JUMPDEST PUSH1 0x4 SSTORE PUSH1 0x40 MLOAD SWAP1 DUP2 MSTORE LOG3 JUMP JUMPDEST POP POP POP JUMP JUMPDEST PUSH1 0x0 NOT DUP2 EQ PUSH2 0x82F JUMPI PUSH1 0x1 ADD SWAP1 JUMP JUMPDEST PUSH1 0x1 PUSH1 0x1 PUSH1 0xA0 SHL SUB AND PUSH1 0x0 SWAP1 DUP2 MSTORE PUSH1 0x8 PUSH1 0x20 MSTORE PUSH1 0x40 DUP2 KECCAK256 SWAP1 SWAP2 SWAP1 DUP3 JUMPDEST DUP2 SLOAD DUP1 DUP3 LT ISZERO PUSH2 0x24EC JUMPI DUP4 SWAP1 PUSH2 0x2450 DUP4 DUP6 PUSH2 0x1D85 JUMP JUMPDEST SWAP3 SWAP1 SLOAD PUSH1 0x3 SWAP4 DUP5 SHL SHR EQ PUSH2 0x246E JUMPI POP POP PUSH2 0x2469 SWAP1 PUSH2 0x240F JUMP JUMPDEST PUSH2 0x243A JUMP JUMPDEST SWAP3 SWAP4 POP SWAP4 SWAP1 PUSH1 0x0 NOT SWAP3 DUP4 DUP2 ADD SWAP1 DUP2 GT PUSH2 0x24D8 JUMPI SWAP1 PUSH2 0x11D0 PUSH2 0x2492 PUSH2 0x249F SWAP4 DUP8 PUSH2 0x1D85 JUMP JUMPDEST SWAP1 SLOAD SWAP1 DUP9 SHL SHR SWAP2 DUP7 PUSH2 0x1D85 JUMP JUMPDEST DUP3 SLOAD SWAP1 DUP2 ISZERO PUSH2 0x24C4 JUMPI POP DUP2 ADD SWAP3 PUSH2 0x24B6 DUP5 DUP5 PUSH2 0x1D85 JUMP JUMPDEST DUP2 SWAP4 SWAP2 SLOAD SWAP3 SHL SHL NOT AND SWAP1 SSTORE SSTORE JUMP JUMPDEST PUSH4 0x4E487B71 PUSH1 0xE0 SHL DUP2 MSTORE PUSH1 0x31 PUSH1 0x4 MSTORE PUSH1 0x24 SWAP1 REVERT JUMPDEST PUSH4 0x4E487B71 PUSH1 0xE0 SHL DUP4 MSTORE PUSH1 0x11 PUSH1 0x4 MSTORE PUSH1 0x24 DUP4 REVERT JUMPDEST POP POP POP POP POP JUMP JUMPDEST DUP1 MLOAD DUP3 LT ISZERO PUSH2 0x1BF4 JUMPI PUSH1 0x20 SWAP2 PUSH1 0x5 SHL ADD ADD SWAP1 JUMP JUMPDEST ISZERO PUSH2 0x250E JUMPI JUMP JUMPDEST PUSH1 0x40 MLOAD PUSH3 0x461BCD PUSH1 0xE5 SHL DUP2 MSTORE PUSH1 0x20 PUSH1 0x4 DUP3 ADD MSTORE PUSH1 0x27 PUSH1 0x24 DUP3 ADD MSTORE PUSH32 0x424C4F434B535374616B696E6756323A204150592063616E6E6F742065786365 PUSH1 0x44 DUP3 ADD MSTORE PUSH7 0x65642031303025 PUSH1 0xC8 SHL PUSH1 0x64 DUP3 ADD MSTORE PUSH1 0x84 SWAP1 REVERT JUMPDEST ISZERO PUSH2 0x256A JUMPI JUMP JUMPDEST PUSH1 0x40 MLOAD PUSH3 0x461BCD PUSH1 0xE5 SHL DUP2 MSTORE PUSH1 0x20 PUSH1 0x4 DUP3 ADD MSTORE PUSH1 0x32 PUSH1 0x24 DUP3 ADD MSTORE PUSH32 0x424C4F434B535374616B696E6756323A20526577617264206D756C7469706C69 PUSH1 0x44 DUP3 ADD MSTORE PUSH18 0x6572206D757374206265203E3D2031303025 PUSH1 0x70 SHL PUSH1 0x64 DUP3 ADD MSTORE PUSH1 0x84 SWAP1 REVERT INVALID LOG2 PUSH5 0x6970667358 0x22 SLT KECCAK256 BALANCE SWAP8 0xCE JUMPDEST 0xC2 AND DUP10 0xEC GASPRICE SWAP13 0xCE CODESIZE SWAP12 SHL 0xAA 0x4E PUSH14 0x428BD8F5827B28678E2665776F78 DUP15 PUSH5 0x736F6C6343 STOP ADDMOD EQ STOP CALLER 0x2F DUP8 DUP9 GT PUSH31 0x7EFF1D82E926EC794901D17C78024A50270940304540A733656F0DD6A5AFAA 0xB1 SWAP11 LOG0 DUP1 MSIZE 0xD2 0xA7 PUSH20 0x896AE3716587B8CB7DD9FFA3989DE36E7CE8D6A3 "},"methodIdentifiers":{"DEFAULT_ADMIN_ROLE()":"a217fddf","EMERGENCY_ROLE()":"20df4359","POOL_MANAGER_ROLE()":"56d73568","REWARD_DISTRIBUTOR_ROLE()":"32e4bb0a","claimAllRewards()":"0b83a727","claimRewards(uint256)":"0962ef79","createPool(string,uint256,uint256,uint256,uint256,uint256,uint256)":"a166a201","distributeRewards(uint256)":"59974e38","emergencyUnstake(uint256,uint256)":"42b58a82","emergencyWithdraw(address,uint256)":"95ccea67","getContractStats()":"dfe6b5d6","getPendingRewards(address,uint256)":"e4e7c6b4","getRoleAdmin(bytes32)":"248a9ca3","getTotalPendingRewards(address)":"a8c478ba","getUserPoolIds(address)":"9251f8b5","getUserStake(address,uint256)":"cec695fa","globalRewardRate()":"39a62395","grantRole(bytes32,address)":"2f2ff15d","hasActiveStake(address,uint256)":"6290c090","hasRole(bytes32,address)":"91d14854","pause()":"8456cb59","paused()":"5c975abb","poolCount()":"f525cb68","poolLastUpdateTime(uint256)":"99956b9d","poolRewardPerTokenStored(uint256)":"0b907ece","renounceRole(bytes32,address)":"36568abe","revokeRole(bytes32,address)":"d547741f","rewardToken()":"f7c618c1","stake(uint256,uint256)":"7b0472f0","stakingPools(uint256)":"5aad6cf0","stakingToken()":"72f702f3","supportsInterface(bytes4)":"01ffc9a7","totalRewardsDistributed()":"ee172546","totalStaked()":"817b1cd2","totalUserStaked(address)":"3a107739","unpause()":"3f4ba83a","unstake(uint256,uint256)":"9e2c8a5b","updatePool(uint256,uint256,uint256,bool)":"376582f7","userPoolIds(address,uint256)":"8aabb082","userRewardPerTokenPaid(uint256,address)":"00a47ddd","userStakes(uint256,address)":"e8990524"}}}}}