{"contracts/SecondaryMarket.sol":{"SecondaryMarket":{"abi":[{"inputs":[{"internalType":"address","name":"_usdtToken","type":"address"},{"internalType":"address","name":"_blocksToken","type":"address"},{"internalType":"address","name":"_router","type":"address"},{"internalType":"address","name":"_factory","type":"address"},{"internalType":"address","name":"_feeRecipient","type":"address"},{"internalType":"address","name":"admin","type":"address"},{"internalType":"uint256","name":"_targetPrice","type":"uint256"}],"stateMutability":"nonpayable","type":"constructor"},{"inputs":[],"name":"AccessControlBadConfirmation","type":"error"},{"inputs":[{"internalType":"address","name":"account","type":"address"},{"internalType":"bytes32","name":"neededRole","type":"bytes32"}],"name":"AccessControlUnauthorizedAccount","type":"error"},{"inputs":[],"name":"EnforcedPause","type":"error"},{"inputs":[],"name":"ExpectedPause","type":"error"},{"inputs":[],"name":"ReentrancyGuardReentrantCall","type":"error"},{"inputs":[{"internalType":"address","name":"token","type":"address"}],"name":"SafeERC20FailedOperation","type":"error"},{"anonymous":false,"inputs":[{"indexed":false,"internalType":"address","name":"oldRecipient","type":"address"},{"indexed":false,"internalType":"address","name":"newRecipient","type":"address"}],"name":"FeeRecipientUpdated","type":"event"},{"anonymous":false,"inputs":[{"indexed":false,"internalType":"address","name":"account","type":"address"}],"name":"Paused","type":"event"},{"anonymous":false,"inputs":[{"indexed":true,"internalType":"bytes32","name":"role","type":"bytes32"},{"indexed":true,"internalType":"bytes32","name":"previousAdminRole","type":"bytes32"},{"indexed":true,"internalType":"bytes32","name":"newAdminRole","type":"bytes32"}],"name":"RoleAdminChanged","type":"event"},{"anonymous":false,"inputs":[{"indexed":true,"internalType":"bytes32","name":"role","type":"bytes32"},{"indexed":true,"internalType":"address","name":"account","type":"address"},{"indexed":true,"internalType":"address","name":"sender","type":"address"}],"name":"RoleGranted","type":"event"},{"anonymous":false,"inputs":[{"indexed":true,"internalType":"bytes32","name":"role","type":"bytes32"},{"indexed":true,"internalType":"address","name":"account","type":"address"},{"indexed":true,"internalType":"address","name":"sender","type":"address"}],"name":"RoleRevoked","type":"event"},{"anonymous":false,"inputs":[{"indexed":false,"internalType":"uint256","name":"oldFee","type":"uint256"},{"indexed":false,"internalType":"uint256","name":"newFee","type":"uint256"}],"name":"SwapFeeUpdated","type":"event"},{"anonymous":false,"inputs":[{"indexed":false,"internalType":"uint256","name":"oldPrice","type":"uint256"},{"indexed":false,"internalType":"uint256","name":"newPrice","type":"uint256"}],"name":"TargetPriceUpdated","type":"event"},{"anonymous":false,"inputs":[{"indexed":true,"internalType":"address","name":"user","type":"address"},{"indexed":false,"internalType":"uint256","name":"blocksAmount","type":"uint256"},{"indexed":false,"internalType":"uint256","name":"usdtAmount","type":"uint256"}],"name":"TokensSwapped","type":"event"},{"anonymous":false,"inputs":[{"indexed":false,"internalType":"address","name":"account","type":"address"}],"name":"Unpaused","type":"event"},{"inputs":[],"name":"ADMIN_ROLE","outputs":[{"internalType":"bytes32","name":"","type":"bytes32"}],"stateMutability":"view","type":"function"},{"inputs":[],"name":"DEFAULT_ADMIN_ROLE","outputs":[{"internalType":"bytes32","name":"","type":"bytes32"}],"stateMutability":"view","type":"function"},{"inputs":[],"name":"OPERATOR_ROLE","outputs":[{"internalType":"bytes32","name":"","type":"bytes32"}],"stateMutability":"view","type":"function"},{"inputs":[{"internalType":"address","name":"tokenAddress","type":"address"},{"internalType":"uint256","name":"amount","type":"uint256"}],"name":"emergencyWithdraw","outputs":[],"stateMutability":"nonpayable","type":"function"},{"inputs":[],"name":"factory","outputs":[{"internalType":"contract IPancakeFactory","name":"","type":"address"}],"stateMutability":"view","type":"function"},{"inputs":[],"name":"feeRecipient","outputs":[{"internalType":"address","name":"","type":"address"}],"stateMutability":"view","type":"function"},{"inputs":[{"internalType":"bytes32","name":"role","type":"bytes32"}],"name":"getRoleAdmin","outputs":[{"internalType":"bytes32","name":"","type":"bytes32"}],"stateMutability":"view","type":"function"},{"inputs":[{"internalType":"uint256","name":"blocksAmount","type":"uint256"}],"name":"getSwapQuote","outputs":[{"internalType":"uint256","name":"usdtAmount","type":"uint256"}],"stateMutability":"view","type":"function"},{"inputs":[{"internalType":"bytes32","name":"role","type":"bytes32"},{"internalType":"address","name":"account","type":"address"}],"name":"grantRole","outputs":[],"stateMutability":"nonpayable","type":"function"},{"inputs":[{"internalType":"bytes32","name":"role","type":"bytes32"},{"internalType":"address","name":"account","type":"address"}],"name":"hasRole","outputs":[{"internalType":"bool","name":"","type":"bool"}],"stateMutability":"view","type":"function"},{"inputs":[],"name":"pause","outputs":[],"stateMutability":"nonpayable","type":"function"},{"inputs":[],"name":"paused","outputs":[{"internalType":"bool","name":"","type":"bool"}],"stateMutability":"view","type":"function"},{"inputs":[{"internalType":"bytes32","name":"role","type":"bytes32"},{"internalType":"address","name":"callerConfirmation","type":"address"}],"name":"renounceRole","outputs":[],"stateMutability":"nonpayable","type":"function"},{"inputs":[{"internalType":"bytes32","name":"role","type":"bytes32"},{"internalType":"address","name":"account","type":"address"}],"name":"revokeRole","outputs":[],"stateMutability":"nonpayable","type":"function"},{"inputs":[],"name":"router","outputs":[{"internalType":"contract IPancakeRouter","name":"","type":"address"}],"stateMutability":"view","type":"function"},{"inputs":[{"internalType":"bytes4","name":"interfaceId","type":"bytes4"}],"name":"supportsInterface","outputs":[{"internalType":"bool","name":"","type":"bool"}],"stateMutability":"view","type":"function"},{"inputs":[{"internalType":"uint256","name":"blocksAmount","type":"uint256"},{"internalType":"uint256","name":"minUsdtAmount","type":"uint256"}],"name":"swapBLOCKSForUSDT","outputs":[],"stateMutability":"nonpayable","type":"function"},{"inputs":[],"name":"swapFee","outputs":[{"internalType":"uint256","name":"","type":"uint256"}],"stateMutability":"view","type":"function"},{"inputs":[{"internalType":"uint256","name":"usdtAmount","type":"uint256"},{"internalType":"uint256","name":"minBlocksAmount","type":"uint256"}],"name":"swapUSDTForBLOCKS","outputs":[],"stateMutability":"nonpayable","type":"function"},{"inputs":[],"name":"targetPrice","outputs":[{"internalType":"uint256","name":"","type":"uint256"}],"stateMutability":"view","type":"function"},{"inputs":[],"name":"token","outputs":[{"internalType":"contract IERC20","name":"","type":"address"}],"stateMutability":"view","type":"function"},{"inputs":[],"name":"unpause","outputs":[],"stateMutability":"nonpayable","type":"function"},{"inputs":[{"internalType":"address","name":"newFeeRecipient","type":"address"}],"name":"updateFeeRecipient","outputs":[],"stateMutability":"nonpayable","type":"function"},{"inputs":[{"internalType":"uint256","name":"newSwapFee","type":"uint256"}],"name":"updateSwapFee","outputs":[],"stateMutability":"nonpayable","type":"function"},{"inputs":[{"internalType":"uint256","name":"newTargetPrice","type":"uint256"}],"name":"updateTargetPrice","outputs":[],"stateMutability":"nonpayable","type":"function"},{"inputs":[],"name":"usdtToken","outputs":[{"internalType":"contract IERC20","name":"","type":"address"}],"stateMutability":"view","type":"function"}],"evm":{"bytecode":{"linkReferences":{},"object":"610100346200040f57601f620019e638819003918201601f1916830191906001600160401b0383118484101762000414578160e092859260409586528339810103126200040f5762000051826200042a565b91602092620000628483016200042a565b90620000708484016200042a565b906200007f606085016200042a565b6200008d608086016200042a565b9260c06200009e60a088016200042a565b96015160018055946001600160a01b03938416908115620003b75784169182156200035d57841692831562000309578416938415620002b45780861615620002595787161562000206578515620001b45760805260a05260c05260e05260028054610100600160a81b03191660089290921b610100600160a81b0316919091179055600355606460045590915062000142906200013b816200043f565b50620004bf565b505161146490816200056282396080518181816104f60152818161063a01528181610a4a0152611334015260a051818181610156015281816105e001528181610ace0152611306015260c05181818161019d0152818161066e01528181610afa015261138b015260e051816104130152f35b875162461bcd60e51b8152600481018a9052602560248201527f5365636f6e646172794d61726b65743a20496e76616c69642074617267657420604482015264707269636560d81b6064820152608490fd5b875162461bcd60e51b8152600481018a9052602660248201527f5365636f6e646172794d61726b65743a20496e76616c69642061646d696e206160448201526564647265737360d01b6064820152608490fd5b885162461bcd60e51b8152600481018b9052602e60248201527f5365636f6e646172794d61726b65743a20496e76616c6964206665652072656360448201526d697069656e74206164647265737360901b6064820152608490fd5b885162461bcd60e51b8152600481018b9052602860248201527f5365636f6e646172794d61726b65743a20496e76616c696420666163746f7279604482015267206164647265737360c01b6064820152608490fd5b885162461bcd60e51b8152600481018b9052602760248201527f5365636f6e646172794d61726b65743a20496e76616c696420726f75746572206044820152666164647265737360c81b6064820152608490fd5b885162461bcd60e51b8152600481018b9052602d60248201527f5365636f6e646172794d61726b65743a20496e76616c696420424c4f434b532060448201526c746f6b656e206164647265737360981b6064820152608490fd5b885162461bcd60e51b8152600481018b9052602b60248201527f5365636f6e646172794d61726b65743a20496e76616c6964205553445420746f60448201526a6b656e206164647265737360a81b6064820152608490fd5b600080fd5b634e487b7160e01b600052604160045260246000fd5b51906001600160a01b03821682036200040f57565b6001600160a01b031660008181527fad3228b676f7d3cd4284a5443f17f1962b36e491b30a40b2405849e597ba5fb5602052604081205490919060ff16620004bb57818052816020526040822081835260205260408220600160ff198254161790553391600080516020620019c68339815191528180a4600190565b5090565b6001600160a01b031660008181527fee57cd81e84075558e8fcc182a1f4393f91fc97f963a136e66b7f949a62f319f60205260408120549091907f97667070c54ef182b0f5858b034beac1b6f3089aa2d3188bb1e8929f4fa9b9299060ff166200055c57808352826020526040832082845260205260408320600160ff19825416179055600080516020620019c6833981519152339380a4600190565b50509056fe608060408181526004918236101561001657600080fd5b600092833560e01c91826301ffc9a714610ccb57508163248a9ca314610ca15781632949cb3214610a185781632f2ff15d146109ee57816336568abe146109a85781633f4ba83a1461093e578163469048401461091157816352f057d5146108ea57816354cf2aeb146108cc5781635c975abb146108a857816375b238fc146105255781638456cb591461084d5781638d464a9d146105ae57816391d148541461056857816395ccea671461052a578163a217fddf14610525578163a98ad46c146104e1578163bf16f65a14610442578163c45a0155146103fe578163d547741f146103bf578163dc38679c146103a0578163f160d369146102ba578163f5b541a61461027f578163f84578ea146101cc57508063f887ea40146101895763fc0c546a1461014357600080fd5b34610185578160031936011261018557517f00000000000000000000000000000000000000000000000000000000000000006001600160a01b03168152602090f35b5080fd5b5034610185578160031936011261018557517f00000000000000000000000000000000000000000000000000000000000000006001600160a01b03168152602090f35b90503461027b57602036600319011261027b578035906101ea610d81565b811561022a5750907ffe2ca48e8f5e2cd3d7ea00a480bc16b3f94688a985c493b1f9151f61beddf66a91600354908060035582519182526020820152a180f35b608490602084519162461bcd60e51b8352820152602560248201527f5365636f6e646172794d61726b65743a20496e76616c69642074617267657420604482015264707269636560d81b6064820152fd5b8280fd5b505034610185578160031936011261018557602090517f97667070c54ef182b0f5858b034beac1b6f3089aa2d3188bb1e8929f4fa9b9298152f35b838334610185576020366003190112610185576102d5610d4f565b6102dd610d81565b6001600160a01b039381851690811561034e575060028054610100600160a81b03198116600894851b610100600160a81b0316179091558351921c9094168152602081019390935290917faaebcf1bfa00580e41d966056b48521fa9f202645c86d4ddf28113e617c1b1d39190a180f35b608490602085519162461bcd60e51b8352820152602660248201527f5365636f6e646172794d61726b65743a20496e76616c696420666565207265636044820152651a5c1a595b9d60d21b6064820152fd5b5050346101855781600319360112610185576020906003549051908152f35b9190503461027b578060031936011261027b576103fa91356103f560016103e4610d39565b938387528660205286200154610dd9565b610e7d565b5080f35b505034610185578160031936011261018557517f00000000000000000000000000000000000000000000000000000000000000006001600160a01b03168152602090f35b83833461018557602036600319011261018557823592610460610d81565b6103e8841161049f57837fc8273cce54f5cf71712dee009c7e6438ae7e1db578da0ec076cf360af45501b993948254925582519182526020820152a180f35b6020606492519162461bcd60e51b8352820152601d60248201527f5365636f6e646172794d61726b65743a2046656520746f6f20686967680000006044820152fd5b505034610185578160031936011261018557517f00000000000000000000000000000000000000000000000000000000000000006001600160a01b03168152602090f35b610d65565b5050346101855736600319011261056557610562610546610d4f565b61054e610d81565b6024359033906001600160a01b03166110a1565b80f35b80fd5b90503461027b578160031936011261027b578160209360ff92610589610d39565b903582528186528282206001600160a01b039091168252855220549151911615158152f35b9190503461027b576105bf36610d1e565b6105ca929192611298565b6105d26112b6565b82156107fb5780156107a3577f00000000000000000000000000000000000000000000000000000000000000009061060c843033856110e4565b825161061781610f28565b60028152833660208301376001600160a01b039283168061063783610f7c565b527f00000000000000000000000000000000000000000000000000000000000000009284841661066684610f9f565b5261069587867f000000000000000000000000000000000000000000000000000000000000000016809461113d565b61012c420180421161079057918893918a896106c882968b51988997889687956338ed173960e01b875230938701611068565b03925af1908115610786579161072661271061071e6107157f18704ae982dcd24a1beeeed3ecf045ab0520d7b7519b97adf3e4f40bf7efe339999a95610738978d91610764575b50610f9f565b51945485610ef2565b048093610f1b565b9382859361074c575b505033906110a1565b815193845260208401523392a26001805580f35b61075d9160025460081c16836110a1565b388061072f565b61078091503d808f833e6107788183610f5a565b810190610faf565b3861070f565b84513d89823e3d90fd5b634e487b7160e01b8a526011895260248afd5b815162461bcd60e51b8152602081860152602c60248201527f5365636f6e646172794d61726b65743a20496e76616c6964206d696e696d756d60448201526b081554d11508185b5bdd5b9d60a21b6064820152608490fd5b815162461bcd60e51b8152602081860152602660248201527f5365636f6e646172794d61726b65743a20496e76616c696420424c4f434b5320604482015265185b5bdd5b9d60d21b6064820152608490fd5b50503461018557816003193601126101855760207f62e78cea01bee320cd4e420270b5ea74000d11b0c9f74754ebdbfc544b05a2589161088b610d81565b610893611298565b600160ff19600254161760025551338152a180f35b50503461018557816003193601126101855760209060ff6002541690519015158152f35b90503461027b578260031936011261027b5760209250549051908152f35b828434610565576020366003190112610565575061090a602092356112d9565b9051908152f35b505034610185578160031936011261018557600254905160089190911c6001600160a01b03168152602090f35b90503461027b578260031936011261027b57610958610d81565b6002549060ff82161561099a575060ff1916600255513381527f5db9ee0a495bf2e6ff9c91a7834c1ba4fdd244a5e8aa4e537bd38aeae4b073aa90602090a180f35b8251638dfc202b60e01b8152fd5b8383346101855780600319360112610185576109c2610d39565b90336001600160a01b038316036109df57506103fa919235610e7d565b5163334bd91960e11b81528390fd5b9190503461027b578060031936011261027b576103fa9135610a1360016103e4610d39565b610dff565b9190503461027b57610a2936610d1e565b610a34939193611298565b610a3c6112b6565b8315610c52578015610bf8577f0000000000000000000000000000000000000000000000000000000000000000610a75853033846110e4565b612710610a83845487610ef2565b0491610a8f8387610f1b565b9280610bd8575b50845192610aa384610f28565b60028452853660208601376001600160a01b0392831692610b2190829085610aca88610f7c565b52807f000000000000000000000000000000000000000000000000000000000000000016610af788610f9f565b527f000000000000000000000000000000000000000000000000000000000000000016809561113d565b61012c4201804211610bc5578894939291610b5386928951988997889687956338ed173960e01b875233938701611068565b03925af1908115610bbb577f18704ae982dcd24a1beeeed3ecf045ab0520d7b7519b97adf3e4f40bf7efe3399291610b91918691610ba75750610f9f565b5192815193845260208401523392a26001805580f35b61078091503d8088833e6107788183610f5a565b82513d86823e3d90fd5b634e487b7160e01b895260118652602489fd5b600254610bf2919060081c6001600160a01b0316846110a1565b38610a96565b506020608492519162461bcd60e51b8352820152602e60248201527f5365636f6e646172794d61726b65743a20496e76616c6964206d696e696d756d60448201526d08109313d0d2d4c8185b5bdd5b9d60921b6064820152fd5b506020608492519162461bcd60e51b83528201526024808201527f5365636f6e646172794d61726b65743a20496e76616c6964205553445420616d6044820152631bdd5b9d60e21b6064820152fd5b90503461027b57602036600319011261027b57816020936001923581528085522001549051908152f35b84913461027b57602036600319011261027b573563ffffffff60e01b811680910361027b5760209250637965db0b60e01b8114908115610d0d575b5015158152f35b6301ffc9a760e01b14905083610d06565b6040906003190112610d34576004359060243590565b600080fd5b602435906001600160a01b0382168203610d3457565b600435906001600160a01b0382168203610d3457565b34610d34576000366003190112610d3457602060405160008152f35b3360009081527fad3228b676f7d3cd4284a5443f17f1962b36e491b30a40b2405849e597ba5fb5602052604081205460ff1615610dbb5750565b6044906040519063e2517d3f60e01b82523360048301526024820152fd5b80600052600060205260406000203360005260205260ff6040600020541615610dbb5750565b9060009180835282602052604083209160018060a01b03169182845260205260ff60408420541615600014610e7857808352826020526040832082845260205260408320600160ff198254161790557f2f8788117e7eff1d82e926ec794901d17c78024a50270940304540a733656f0d339380a4600190565b505090565b9060009180835282602052604083209160018060a01b03169182845260205260ff604084205416600014610e785780835282602052604083208284526020526040832060ff1981541690557ff6391f5c32d9c69d2a47ea670b442974b53935d1edc7fd64eb21e047a839171b339380a4600190565b81810292918115918404141715610f0557565b634e487b7160e01b600052601160045260246000fd5b91908203918211610f0557565b6060810190811067ffffffffffffffff821117610f4457604052565b634e487b7160e01b600052604160045260246000fd5b90601f8019910116810190811067ffffffffffffffff821117610f4457604052565b805115610f895760200190565b634e487b7160e01b600052603260045260246000fd5b805160011015610f895760400190565b906020908183820312610d3457825167ffffffffffffffff93848211610d34570181601f82011215610d34578051938411610f44578360051b9060405194610ff985840187610f5a565b85528380860192820101928311610d34578301905b82821061101c575050505090565b8151815290830190830161100e565b90815180825260208080930193019160005b82811061104b575050505090565b83516001600160a01b03168552938101939281019260010161103d565b919260809361108d92979695978452602084015260a0604084015260a083019061102b565b6001600160a01b0390951660608201520152565b60405163a9059cbb60e01b60208201526001600160a01b039290921660248301526044808301939093529181526110e2916110dd606483610f5a565b611230565b565b6040516323b872dd60e01b60208201526001600160a01b03928316602482015292909116604483015260648083019390935291815260a081019181831067ffffffffffffffff841117610f44576110e292604052611230565b60405163095ea7b360e01b602082018181526001600160a01b038516602484015260448084019690965294825294939092611179606485610f5a565b60206000809386519082875af182513d8261120b575b50501561119f575b505050509050565b60405160208101969096526001600160a01b0316602486015260448086018290528552608085019067ffffffffffffffff8211868310176111f757506111ed93946110dd9160405282611230565b8038808080611197565b634e487b7160e01b81526041600452602490fd5b90915061122857506001600160a01b0383163b15155b388061118f565b600114611221565b906000602091828151910182855af11561128c576000513d61128357506001600160a01b0381163b155b6112615750565b604051635274afe760e01b81526001600160a01b039091166004820152602490fd5b6001141561125a565b6040513d6000823e3d90fd5b60ff600254166112a457565b60405163d93c066560e01b8152600490fd5b6002600154146112c7576002600155565b604051633ee5aeb560e01b8152600490fd5b80156114285761138760006040516112f081610f28565b6002815260403660208301376001600160a01b037f0000000000000000000000000000000000000000000000000000000000000000811661133083610f7c565b52807f00000000000000000000000000000000000000000000000000000000000000001661135d83610f9f565b52604051808095819463d06ca61f60e01b835288600484015260406024840152604483019061102b565b03917f0000000000000000000000000000000000000000000000000000000000000000165afa6000918161140d575b506113ef5750670de0b6b3a76400006113d56113ec9260035490610ef2565b046127106113e560045483610ef2565b0490610f1b565b90565b6113ec91506113fd90610f9f565b516127106113e560045483610ef2565b61142191923d8091833e6107788183610f5a565b90386113b6565b5060009056fea264697066735822122006df1763f3e88d2673c243c5bd2759ae535844c3a9169f7f9c01b687fa4e7b6864736f6c634300081400332f8788117e7eff1d82e926ec794901d17c78024a50270940304540a733656f0d","opcodes":"PUSH2 0x100 CALLVALUE PUSH3 0x40F JUMPI PUSH1 0x1F PUSH3 0x19E6 CODESIZE DUP2 SWAP1 SUB SWAP2 DUP3 ADD PUSH1 0x1F NOT AND DUP4 ADD SWAP2 SWAP1 PUSH1 0x1 PUSH1 0x1 PUSH1 0x40 SHL SUB DUP4 GT DUP5 DUP5 LT OR PUSH3 0x414 JUMPI DUP2 PUSH1 0xE0 SWAP3 DUP6 SWAP3 PUSH1 0x40 SWAP6 DUP7 MSTORE DUP4 CODECOPY DUP2 ADD SUB SLT PUSH3 0x40F JUMPI PUSH3 0x51 DUP3 PUSH3 0x42A JUMP JUMPDEST SWAP2 PUSH1 0x20 SWAP3 PUSH3 0x62 DUP5 DUP4 ADD PUSH3 0x42A JUMP JUMPDEST SWAP1 PUSH3 0x70 DUP5 DUP5 ADD PUSH3 0x42A JUMP JUMPDEST SWAP1 PUSH3 0x7F PUSH1 0x60 DUP6 ADD PUSH3 0x42A JUMP JUMPDEST PUSH3 0x8D PUSH1 0x80 DUP7 ADD PUSH3 0x42A JUMP JUMPDEST SWAP3 PUSH1 0xC0 PUSH3 0x9E PUSH1 0xA0 DUP9 ADD PUSH3 0x42A JUMP JUMPDEST SWAP7 ADD MLOAD PUSH1 0x1 DUP1 SSTORE SWAP5 PUSH1 0x1 PUSH1 0x1 PUSH1 0xA0 SHL SUB SWAP4 DUP5 AND SWAP1 DUP2 ISZERO PUSH3 0x3B7 JUMPI DUP5 AND SWAP2 DUP3 ISZERO PUSH3 0x35D JUMPI DUP5 AND SWAP3 DUP4 ISZERO PUSH3 0x309 JUMPI DUP5 AND SWAP4 DUP5 ISZERO PUSH3 0x2B4 JUMPI DUP1 DUP7 AND ISZERO PUSH3 0x259 JUMPI DUP8 AND ISZERO PUSH3 0x206 JUMPI DUP6 ISZERO PUSH3 0x1B4 JUMPI PUSH1 0x80 MSTORE PUSH1 0xA0 MSTORE PUSH1 0xC0 MSTORE PUSH1 0xE0 MSTORE PUSH1 0x2 DUP1 SLOAD PUSH2 0x100 PUSH1 0x1 PUSH1 0xA8 SHL SUB NOT AND PUSH1 0x8 SWAP3 SWAP1 SWAP3 SHL PUSH2 0x100 PUSH1 0x1 PUSH1 0xA8 SHL SUB AND SWAP2 SWAP1 SWAP2 OR SWAP1 SSTORE PUSH1 0x3 SSTORE PUSH1 0x64 PUSH1 0x4 SSTORE SWAP1 SWAP2 POP PUSH3 0x142 SWAP1 PUSH3 0x13B DUP2 PUSH3 0x43F JUMP JUMPDEST POP PUSH3 0x4BF JUMP JUMPDEST POP MLOAD PUSH2 0x1464 SWAP1 DUP2 PUSH3 0x562 DUP3 CODECOPY PUSH1 0x80 MLOAD DUP2 DUP2 DUP2 PUSH2 0x4F6 ADD MSTORE DUP2 DUP2 PUSH2 0x63A ADD MSTORE DUP2 DUP2 PUSH2 0xA4A ADD MSTORE PUSH2 0x1334 ADD MSTORE PUSH1 0xA0 MLOAD DUP2 DUP2 DUP2 PUSH2 0x156 ADD MSTORE DUP2 DUP2 PUSH2 0x5E0 ADD MSTORE DUP2 DUP2 PUSH2 0xACE ADD MSTORE PUSH2 0x1306 ADD MSTORE PUSH1 0xC0 MLOAD DUP2 DUP2 DUP2 PUSH2 0x19D ADD MSTORE DUP2 DUP2 PUSH2 0x66E ADD MSTORE DUP2 DUP2 PUSH2 0xAFA ADD MSTORE PUSH2 0x138B ADD MSTORE PUSH1 0xE0 MLOAD DUP2 PUSH2 0x413 ADD MSTORE RETURN JUMPDEST DUP8 MLOAD PUSH3 0x461BCD PUSH1 0xE5 SHL DUP2 MSTORE PUSH1 0x4 DUP2 ADD DUP11 SWAP1 MSTORE PUSH1 0x25 PUSH1 0x24 DUP3 ADD MSTORE PUSH32 0x5365636F6E646172794D61726B65743A20496E76616C69642074617267657420 PUSH1 0x44 DUP3 ADD MSTORE PUSH5 0x7072696365 PUSH1 0xD8 SHL PUSH1 0x64 DUP3 ADD MSTORE PUSH1 0x84 SWAP1 REVERT JUMPDEST DUP8 MLOAD PUSH3 0x461BCD PUSH1 0xE5 SHL DUP2 MSTORE PUSH1 0x4 DUP2 ADD DUP11 SWAP1 MSTORE PUSH1 0x26 PUSH1 0x24 DUP3 ADD MSTORE PUSH32 0x5365636F6E646172794D61726B65743A20496E76616C69642061646D696E2061 PUSH1 0x44 DUP3 ADD MSTORE PUSH6 0x646472657373 PUSH1 0xD0 SHL PUSH1 0x64 DUP3 ADD MSTORE PUSH1 0x84 SWAP1 REVERT JUMPDEST DUP9 MLOAD PUSH3 0x461BCD PUSH1 0xE5 SHL DUP2 MSTORE PUSH1 0x4 DUP2 ADD DUP12 SWAP1 MSTORE PUSH1 0x2E PUSH1 0x24 DUP3 ADD MSTORE PUSH32 0x5365636F6E646172794D61726B65743A20496E76616C69642066656520726563 PUSH1 0x44 DUP3 ADD MSTORE PUSH14 0x697069656E742061646472657373 PUSH1 0x90 SHL PUSH1 0x64 DUP3 ADD MSTORE PUSH1 0x84 SWAP1 REVERT JUMPDEST DUP9 MLOAD PUSH3 0x461BCD PUSH1 0xE5 SHL DUP2 MSTORE PUSH1 0x4 DUP2 ADD DUP12 SWAP1 MSTORE PUSH1 0x28 PUSH1 0x24 DUP3 ADD MSTORE PUSH32 0x5365636F6E646172794D61726B65743A20496E76616C696420666163746F7279 PUSH1 0x44 DUP3 ADD MSTORE PUSH8 0x2061646472657373 PUSH1 0xC0 SHL PUSH1 0x64 DUP3 ADD MSTORE PUSH1 0x84 SWAP1 REVERT JUMPDEST DUP9 MLOAD PUSH3 0x461BCD PUSH1 0xE5 SHL DUP2 MSTORE PUSH1 0x4 DUP2 ADD DUP12 SWAP1 MSTORE PUSH1 0x27 PUSH1 0x24 DUP3 ADD MSTORE PUSH32 0x5365636F6E646172794D61726B65743A20496E76616C696420726F7574657220 PUSH1 0x44 DUP3 ADD MSTORE PUSH7 0x61646472657373 PUSH1 0xC8 SHL PUSH1 0x64 DUP3 ADD MSTORE PUSH1 0x84 SWAP1 REVERT JUMPDEST DUP9 MLOAD PUSH3 0x461BCD PUSH1 0xE5 SHL DUP2 MSTORE PUSH1 0x4 DUP2 ADD DUP12 SWAP1 MSTORE PUSH1 0x2D PUSH1 0x24 DUP3 ADD MSTORE PUSH32 0x5365636F6E646172794D61726B65743A20496E76616C696420424C4F434B5320 PUSH1 0x44 DUP3 ADD MSTORE PUSH13 0x746F6B656E2061646472657373 PUSH1 0x98 SHL PUSH1 0x64 DUP3 ADD MSTORE PUSH1 0x84 SWAP1 REVERT JUMPDEST DUP9 MLOAD PUSH3 0x461BCD PUSH1 0xE5 SHL DUP2 MSTORE PUSH1 0x4 DUP2 ADD DUP12 SWAP1 MSTORE PUSH1 0x2B PUSH1 0x24 DUP3 ADD MSTORE PUSH32 0x5365636F6E646172794D61726B65743A20496E76616C6964205553445420746F PUSH1 0x44 DUP3 ADD MSTORE PUSH11 0x6B656E2061646472657373 PUSH1 0xA8 SHL PUSH1 0x64 DUP3 ADD MSTORE PUSH1 0x84 SWAP1 REVERT JUMPDEST PUSH1 0x0 DUP1 REVERT JUMPDEST PUSH4 0x4E487B71 PUSH1 0xE0 SHL PUSH1 0x0 MSTORE PUSH1 0x41 PUSH1 0x4 MSTORE PUSH1 0x24 PUSH1 0x0 REVERT JUMPDEST MLOAD SWAP1 PUSH1 0x1 PUSH1 0x1 PUSH1 0xA0 SHL SUB DUP3 AND DUP3 SUB PUSH3 0x40F JUMPI JUMP JUMPDEST PUSH1 0x1 PUSH1 0x1 PUSH1 0xA0 SHL SUB AND PUSH1 0x0 DUP2 DUP2 MSTORE PUSH32 0xAD3228B676F7D3CD4284A5443F17F1962B36E491B30A40B2405849E597BA5FB5 PUSH1 0x20 MSTORE PUSH1 0x40 DUP2 KECCAK256 SLOAD SWAP1 SWAP2 SWAP1 PUSH1 0xFF AND PUSH3 0x4BB JUMPI DUP2 DUP1 MSTORE DUP2 PUSH1 0x20 MSTORE PUSH1 0x40 DUP3 KECCAK256 DUP2 DUP4 MSTORE PUSH1 0x20 MSTORE PUSH1 0x40 DUP3 KECCAK256 PUSH1 0x1 PUSH1 0xFF NOT DUP3 SLOAD AND OR SWAP1 SSTORE CALLER SWAP2 PUSH1 0x0 DUP1 MLOAD PUSH1 0x20 PUSH3 0x19C6 DUP4 CODECOPY DUP2 MLOAD SWAP2 MSTORE DUP2 DUP1 LOG4 PUSH1 0x1 SWAP1 JUMP JUMPDEST POP SWAP1 JUMP JUMPDEST PUSH1 0x1 PUSH1 0x1 PUSH1 0xA0 SHL SUB AND PUSH1 0x0 DUP2 DUP2 MSTORE PUSH32 0xEE57CD81E84075558E8FCC182A1F4393F91FC97F963A136E66B7F949A62F319F PUSH1 0x20 MSTORE PUSH1 0x40 DUP2 KECCAK256 SLOAD SWAP1 SWAP2 SWAP1 PUSH32 0x97667070C54EF182B0F5858B034BEAC1B6F3089AA2D3188BB1E8929F4FA9B929 SWAP1 PUSH1 0xFF AND PUSH3 0x55C JUMPI DUP1 DUP4 MSTORE DUP3 PUSH1 0x20 MSTORE PUSH1 0x40 DUP4 KECCAK256 DUP3 DUP5 MSTORE PUSH1 0x20 MSTORE PUSH1 0x40 DUP4 KECCAK256 PUSH1 0x1 PUSH1 0xFF NOT DUP3 SLOAD AND OR SWAP1 SSTORE PUSH1 0x0 DUP1 MLOAD PUSH1 0x20 PUSH3 0x19C6 DUP4 CODECOPY DUP2 MLOAD SWAP2 MSTORE CALLER SWAP4 DUP1 LOG4 PUSH1 0x1 SWAP1 JUMP JUMPDEST POP POP SWAP1 JUMP INVALID PUSH1 0x80 PUSH1 0x40 DUP2 DUP2 MSTORE PUSH1 0x4 SWAP2 DUP3 CALLDATASIZE LT ISZERO PUSH2 0x16 JUMPI PUSH1 0x0 DUP1 REVERT JUMPDEST PUSH1 0x0 SWAP3 DUP4 CALLDATALOAD PUSH1 0xE0 SHR SWAP2 DUP3 PUSH4 0x1FFC9A7 EQ PUSH2 0xCCB JUMPI POP DUP2 PUSH4 0x248A9CA3 EQ PUSH2 0xCA1 JUMPI DUP2 PUSH4 0x2949CB32 EQ PUSH2 0xA18 JUMPI DUP2 PUSH4 0x2F2FF15D EQ PUSH2 0x9EE JUMPI DUP2 PUSH4 0x36568ABE EQ PUSH2 0x9A8 JUMPI DUP2 PUSH4 0x3F4BA83A EQ PUSH2 0x93E JUMPI DUP2 PUSH4 0x46904840 EQ PUSH2 0x911 JUMPI DUP2 PUSH4 0x52F057D5 EQ PUSH2 0x8EA JUMPI DUP2 PUSH4 0x54CF2AEB EQ PUSH2 0x8CC JUMPI DUP2 PUSH4 0x5C975ABB EQ PUSH2 0x8A8 JUMPI DUP2 PUSH4 0x75B238FC EQ PUSH2 0x525 JUMPI DUP2 PUSH4 0x8456CB59 EQ PUSH2 0x84D JUMPI DUP2 PUSH4 0x8D464A9D EQ PUSH2 0x5AE JUMPI DUP2 PUSH4 0x91D14854 EQ PUSH2 0x568 JUMPI DUP2 PUSH4 0x95CCEA67 EQ PUSH2 0x52A JUMPI DUP2 PUSH4 0xA217FDDF EQ PUSH2 0x525 JUMPI DUP2 PUSH4 0xA98AD46C EQ PUSH2 0x4E1 JUMPI DUP2 PUSH4 0xBF16F65A EQ PUSH2 0x442 JUMPI DUP2 PUSH4 0xC45A0155 EQ PUSH2 0x3FE JUMPI DUP2 PUSH4 0xD547741F EQ PUSH2 0x3BF JUMPI DUP2 PUSH4 0xDC38679C EQ PUSH2 0x3A0 JUMPI DUP2 PUSH4 0xF160D369 EQ PUSH2 0x2BA JUMPI DUP2 PUSH4 0xF5B541A6 EQ PUSH2 0x27F JUMPI DUP2 PUSH4 0xF84578EA EQ PUSH2 0x1CC JUMPI POP DUP1 PUSH4 0xF887EA40 EQ PUSH2 0x189 JUMPI PUSH4 0xFC0C546A EQ PUSH2 0x143 JUMPI PUSH1 0x0 DUP1 REVERT JUMPDEST CALLVALUE PUSH2 0x185 JUMPI DUP2 PUSH1 0x3 NOT CALLDATASIZE ADD SLT PUSH2 0x185 JUMPI MLOAD PUSH32 0x0 PUSH1 0x1 PUSH1 0x1 PUSH1 0xA0 SHL SUB AND DUP2 MSTORE PUSH1 0x20 SWAP1 RETURN JUMPDEST POP DUP1 REVERT JUMPDEST POP CALLVALUE PUSH2 0x185 JUMPI DUP2 PUSH1 0x3 NOT CALLDATASIZE ADD SLT PUSH2 0x185 JUMPI MLOAD PUSH32 0x0 PUSH1 0x1 PUSH1 0x1 PUSH1 0xA0 SHL SUB AND DUP2 MSTORE PUSH1 0x20 SWAP1 RETURN JUMPDEST SWAP1 POP CALLVALUE PUSH2 0x27B JUMPI PUSH1 0x20 CALLDATASIZE PUSH1 0x3 NOT ADD SLT PUSH2 0x27B JUMPI DUP1 CALLDATALOAD SWAP1 PUSH2 0x1EA PUSH2 0xD81 JUMP JUMPDEST DUP2 ISZERO PUSH2 0x22A JUMPI POP SWAP1 PUSH32 0xFE2CA48E8F5E2CD3D7EA00A480BC16B3F94688A985C493B1F9151F61BEDDF66A SWAP2 PUSH1 0x3 SLOAD SWAP1 DUP1 PUSH1 0x3 SSTORE DUP3 MLOAD SWAP2 DUP3 MSTORE PUSH1 0x20 DUP3 ADD MSTORE LOG1 DUP1 RETURN JUMPDEST PUSH1 0x84 SWAP1 PUSH1 0x20 DUP5 MLOAD SWAP2 PUSH3 0x461BCD PUSH1 0xE5 SHL DUP4 MSTORE DUP3 ADD MSTORE PUSH1 0x25 PUSH1 0x24 DUP3 ADD MSTORE PUSH32 0x5365636F6E646172794D61726B65743A20496E76616C69642074617267657420 PUSH1 0x44 DUP3 ADD MSTORE PUSH5 0x7072696365 PUSH1 0xD8 SHL PUSH1 0x64 DUP3 ADD MSTORE REVERT JUMPDEST DUP3 DUP1 REVERT JUMPDEST POP POP CALLVALUE PUSH2 0x185 JUMPI DUP2 PUSH1 0x3 NOT CALLDATASIZE ADD SLT PUSH2 0x185 JUMPI PUSH1 0x20 SWAP1 MLOAD PUSH32 0x97667070C54EF182B0F5858B034BEAC1B6F3089AA2D3188BB1E8929F4FA9B929 DUP2 MSTORE RETURN JUMPDEST DUP4 DUP4 CALLVALUE PUSH2 0x185 JUMPI PUSH1 0x20 CALLDATASIZE PUSH1 0x3 NOT ADD SLT PUSH2 0x185 JUMPI PUSH2 0x2D5 PUSH2 0xD4F JUMP JUMPDEST PUSH2 0x2DD PUSH2 0xD81 JUMP JUMPDEST PUSH1 0x1 PUSH1 0x1 PUSH1 0xA0 SHL SUB SWAP4 DUP2 DUP6 AND SWAP1 DUP2 ISZERO PUSH2 0x34E JUMPI POP PUSH1 0x2 DUP1 SLOAD PUSH2 0x100 PUSH1 0x1 PUSH1 0xA8 SHL SUB NOT DUP2 AND PUSH1 0x8 SWAP5 DUP6 SHL PUSH2 0x100 PUSH1 0x1 PUSH1 0xA8 SHL SUB AND OR SWAP1 SWAP2 SSTORE DUP4 MLOAD SWAP3 SHR SWAP1 SWAP5 AND DUP2 MSTORE PUSH1 0x20 DUP2 ADD SWAP4 SWAP1 SWAP4 MSTORE SWAP1 SWAP2 PUSH32 0xAAEBCF1BFA00580E41D966056B48521FA9F202645C86D4DDF28113E617C1B1D3 SWAP2 SWAP1 LOG1 DUP1 RETURN JUMPDEST PUSH1 0x84 SWAP1 PUSH1 0x20 DUP6 MLOAD SWAP2 PUSH3 0x461BCD PUSH1 0xE5 SHL DUP4 MSTORE DUP3 ADD MSTORE PUSH1 0x26 PUSH1 0x24 DUP3 ADD MSTORE PUSH32 0x5365636F6E646172794D61726B65743A20496E76616C69642066656520726563 PUSH1 0x44 DUP3 ADD MSTORE PUSH6 0x1A5C1A595B9D PUSH1 0xD2 SHL PUSH1 0x64 DUP3 ADD MSTORE REVERT JUMPDEST POP POP CALLVALUE PUSH2 0x185 JUMPI DUP2 PUSH1 0x3 NOT CALLDATASIZE ADD SLT PUSH2 0x185 JUMPI PUSH1 0x20 SWAP1 PUSH1 0x3 SLOAD SWAP1 MLOAD SWAP1 DUP2 MSTORE RETURN JUMPDEST SWAP2 SWAP1 POP CALLVALUE PUSH2 0x27B JUMPI DUP1 PUSH1 0x3 NOT CALLDATASIZE ADD SLT PUSH2 0x27B JUMPI PUSH2 0x3FA SWAP2 CALLDATALOAD PUSH2 0x3F5 PUSH1 0x1 PUSH2 0x3E4 PUSH2 0xD39 JUMP JUMPDEST SWAP4 DUP4 DUP8 MSTORE DUP7 PUSH1 0x20 MSTORE DUP7 KECCAK256 ADD SLOAD PUSH2 0xDD9 JUMP JUMPDEST PUSH2 0xE7D JUMP JUMPDEST POP DUP1 RETURN JUMPDEST POP POP CALLVALUE PUSH2 0x185 JUMPI DUP2 PUSH1 0x3 NOT CALLDATASIZE ADD SLT PUSH2 0x185 JUMPI MLOAD PUSH32 0x0 PUSH1 0x1 PUSH1 0x1 PUSH1 0xA0 SHL SUB AND DUP2 MSTORE PUSH1 0x20 SWAP1 RETURN JUMPDEST DUP4 DUP4 CALLVALUE PUSH2 0x185 JUMPI PUSH1 0x20 CALLDATASIZE PUSH1 0x3 NOT ADD SLT PUSH2 0x185 JUMPI DUP3 CALLDATALOAD SWAP3 PUSH2 0x460 PUSH2 0xD81 JUMP JUMPDEST PUSH2 0x3E8 DUP5 GT PUSH2 0x49F JUMPI DUP4 PUSH32 0xC8273CCE54F5CF71712DEE009C7E6438AE7E1DB578DA0EC076CF360AF45501B9 SWAP4 SWAP5 DUP3 SLOAD SWAP3 SSTORE DUP3 MLOAD SWAP2 DUP3 MSTORE PUSH1 0x20 DUP3 ADD MSTORE LOG1 DUP1 RETURN JUMPDEST PUSH1 0x20 PUSH1 0x64 SWAP3 MLOAD SWAP2 PUSH3 0x461BCD PUSH1 0xE5 SHL DUP4 MSTORE DUP3 ADD MSTORE PUSH1 0x1D PUSH1 0x24 DUP3 ADD MSTORE PUSH32 0x5365636F6E646172794D61726B65743A2046656520746F6F2068696768000000 PUSH1 0x44 DUP3 ADD MSTORE REVERT JUMPDEST POP POP CALLVALUE PUSH2 0x185 JUMPI DUP2 PUSH1 0x3 NOT CALLDATASIZE ADD SLT PUSH2 0x185 JUMPI MLOAD PUSH32 0x0 PUSH1 0x1 PUSH1 0x1 PUSH1 0xA0 SHL SUB AND DUP2 MSTORE PUSH1 0x20 SWAP1 RETURN JUMPDEST PUSH2 0xD65 JUMP JUMPDEST POP POP CALLVALUE PUSH2 0x185 JUMPI CALLDATASIZE PUSH1 0x3 NOT ADD SLT PUSH2 0x565 JUMPI PUSH2 0x562 PUSH2 0x546 PUSH2 0xD4F JUMP JUMPDEST PUSH2 0x54E PUSH2 0xD81 JUMP JUMPDEST PUSH1 0x24 CALLDATALOAD SWAP1 CALLER SWAP1 PUSH1 0x1 PUSH1 0x1 PUSH1 0xA0 SHL SUB AND PUSH2 0x10A1 JUMP JUMPDEST DUP1 RETURN JUMPDEST DUP1 REVERT JUMPDEST SWAP1 POP CALLVALUE PUSH2 0x27B JUMPI DUP2 PUSH1 0x3 NOT CALLDATASIZE ADD SLT PUSH2 0x27B JUMPI DUP2 PUSH1 0x20 SWAP4 PUSH1 0xFF SWAP3 PUSH2 0x589 PUSH2 0xD39 JUMP JUMPDEST SWAP1 CALLDATALOAD DUP3 MSTORE DUP2 DUP7 MSTORE DUP3 DUP3 KECCAK256 PUSH1 0x1 PUSH1 0x1 PUSH1 0xA0 SHL SUB SWAP1 SWAP2 AND DUP3 MSTORE DUP6 MSTORE KECCAK256 SLOAD SWAP2 MLOAD SWAP2 AND ISZERO ISZERO DUP2 MSTORE RETURN JUMPDEST SWAP2 SWAP1 POP CALLVALUE PUSH2 0x27B JUMPI PUSH2 0x5BF CALLDATASIZE PUSH2 0xD1E JUMP JUMPDEST PUSH2 0x5CA SWAP3 SWAP2 SWAP3 PUSH2 0x1298 JUMP JUMPDEST PUSH2 0x5D2 PUSH2 0x12B6 JUMP JUMPDEST DUP3 ISZERO PUSH2 0x7FB JUMPI DUP1 ISZERO PUSH2 0x7A3 JUMPI PUSH32 0x0 SWAP1 PUSH2 0x60C DUP5 ADDRESS CALLER DUP6 PUSH2 0x10E4 JUMP JUMPDEST DUP3 MLOAD PUSH2 0x617 DUP2 PUSH2 0xF28 JUMP JUMPDEST PUSH1 0x2 DUP2 MSTORE DUP4 CALLDATASIZE PUSH1 0x20 DUP4 ADD CALLDATACOPY PUSH1 0x1 PUSH1 0x1 PUSH1 0xA0 SHL SUB SWAP3 DUP4 AND DUP1 PUSH2 0x637 DUP4 PUSH2 0xF7C JUMP JUMPDEST MSTORE PUSH32 0x0 SWAP3 DUP5 DUP5 AND PUSH2 0x666 DUP5 PUSH2 0xF9F JUMP JUMPDEST MSTORE PUSH2 0x695 DUP8 DUP7 PUSH32 0x0 AND DUP1 SWAP5 PUSH2 0x113D JUMP JUMPDEST PUSH2 0x12C TIMESTAMP ADD DUP1 TIMESTAMP GT PUSH2 0x790 JUMPI SWAP2 DUP9 SWAP4 SWAP2 DUP11 DUP10 PUSH2 0x6C8 DUP3 SWAP7 DUP12 MLOAD SWAP9 DUP10 SWAP8 DUP9 SWAP7 DUP8 SWAP6 PUSH4 0x38ED1739 PUSH1 0xE0 SHL DUP8 MSTORE ADDRESS SWAP4 DUP8 ADD PUSH2 0x1068 JUMP JUMPDEST SUB SWAP3 GAS CALL SWAP1 DUP2 ISZERO PUSH2 0x786 JUMPI SWAP2 PUSH2 0x726 PUSH2 0x2710 PUSH2 0x71E PUSH2 0x715 PUSH32 0x18704AE982DCD24A1BEEEED3ECF045AB0520D7B7519B97ADF3E4F40BF7EFE339 SWAP10 SWAP11 SWAP6 PUSH2 0x738 SWAP8 DUP14 SWAP2 PUSH2 0x764 JUMPI JUMPDEST POP PUSH2 0xF9F JUMP JUMPDEST MLOAD SWAP5 SLOAD DUP6 PUSH2 0xEF2 JUMP JUMPDEST DIV DUP1 SWAP4 PUSH2 0xF1B JUMP JUMPDEST SWAP4 DUP3 DUP6 SWAP4 PUSH2 0x74C JUMPI JUMPDEST POP POP CALLER SWAP1 PUSH2 0x10A1 JUMP JUMPDEST DUP2 MLOAD SWAP4 DUP5 MSTORE PUSH1 0x20 DUP5 ADD MSTORE CALLER SWAP3 LOG2 PUSH1 0x1 DUP1 SSTORE DUP1 RETURN JUMPDEST PUSH2 0x75D SWAP2 PUSH1 0x2 SLOAD PUSH1 0x8 SHR AND DUP4 PUSH2 0x10A1 JUMP JUMPDEST CODESIZE DUP1 PUSH2 0x72F JUMP JUMPDEST PUSH2 0x780 SWAP2 POP RETURNDATASIZE DUP1 DUP16 DUP4 RETURNDATACOPY PUSH2 0x778 DUP2 DUP4 PUSH2 0xF5A JUMP JUMPDEST DUP2 ADD SWAP1 PUSH2 0xFAF JUMP JUMPDEST CODESIZE PUSH2 0x70F JUMP JUMPDEST DUP5 MLOAD RETURNDATASIZE DUP10 DUP3 RETURNDATACOPY RETURNDATASIZE SWAP1 REVERT JUMPDEST PUSH4 0x4E487B71 PUSH1 0xE0 SHL DUP11 MSTORE PUSH1 0x11 DUP10 MSTORE PUSH1 0x24 DUP11 REVERT JUMPDEST DUP2 MLOAD PUSH3 0x461BCD PUSH1 0xE5 SHL DUP2 MSTORE PUSH1 0x20 DUP2 DUP7 ADD MSTORE PUSH1 0x2C PUSH1 0x24 DUP3 ADD MSTORE PUSH32 0x5365636F6E646172794D61726B65743A20496E76616C6964206D696E696D756D PUSH1 0x44 DUP3 ADD MSTORE PUSH12 0x81554D11508185B5BDD5B9D PUSH1 0xA2 SHL PUSH1 0x64 DUP3 ADD MSTORE PUSH1 0x84 SWAP1 REVERT JUMPDEST DUP2 MLOAD PUSH3 0x461BCD PUSH1 0xE5 SHL DUP2 MSTORE PUSH1 0x20 DUP2 DUP7 ADD MSTORE PUSH1 0x26 PUSH1 0x24 DUP3 ADD MSTORE PUSH32 0x5365636F6E646172794D61726B65743A20496E76616C696420424C4F434B5320 PUSH1 0x44 DUP3 ADD MSTORE PUSH6 0x185B5BDD5B9D PUSH1 0xD2 SHL PUSH1 0x64 DUP3 ADD MSTORE PUSH1 0x84 SWAP1 REVERT JUMPDEST POP POP CALLVALUE PUSH2 0x185 JUMPI DUP2 PUSH1 0x3 NOT CALLDATASIZE ADD SLT PUSH2 0x185 JUMPI PUSH1 0x20 PUSH32 0x62E78CEA01BEE320CD4E420270B5EA74000D11B0C9F74754EBDBFC544B05A258 SWAP2 PUSH2 0x88B PUSH2 0xD81 JUMP JUMPDEST PUSH2 0x893 PUSH2 0x1298 JUMP JUMPDEST PUSH1 0x1 PUSH1 0xFF NOT PUSH1 0x2 SLOAD AND OR PUSH1 0x2 SSTORE MLOAD CALLER DUP2 MSTORE LOG1 DUP1 RETURN JUMPDEST POP POP CALLVALUE PUSH2 0x185 JUMPI DUP2 PUSH1 0x3 NOT CALLDATASIZE ADD SLT PUSH2 0x185 JUMPI PUSH1 0x20 SWAP1 PUSH1 0xFF PUSH1 0x2 SLOAD AND SWAP1 MLOAD SWAP1 ISZERO ISZERO DUP2 MSTORE RETURN JUMPDEST SWAP1 POP CALLVALUE PUSH2 0x27B JUMPI DUP3 PUSH1 0x3 NOT CALLDATASIZE ADD SLT PUSH2 0x27B JUMPI PUSH1 0x20 SWAP3 POP SLOAD SWAP1 MLOAD SWAP1 DUP2 MSTORE RETURN JUMPDEST DUP3 DUP5 CALLVALUE PUSH2 0x565 JUMPI PUSH1 0x20 CALLDATASIZE PUSH1 0x3 NOT ADD SLT PUSH2 0x565 JUMPI POP PUSH2 0x90A PUSH1 0x20 SWAP3 CALLDATALOAD PUSH2 0x12D9 JUMP JUMPDEST SWAP1 MLOAD SWAP1 DUP2 MSTORE RETURN JUMPDEST POP POP CALLVALUE PUSH2 0x185 JUMPI DUP2 PUSH1 0x3 NOT CALLDATASIZE ADD SLT PUSH2 0x185 JUMPI PUSH1 0x2 SLOAD SWAP1 MLOAD PUSH1 0x8 SWAP2 SWAP1 SWAP2 SHR PUSH1 0x1 PUSH1 0x1 PUSH1 0xA0 SHL SUB AND DUP2 MSTORE PUSH1 0x20 SWAP1 RETURN JUMPDEST SWAP1 POP CALLVALUE PUSH2 0x27B JUMPI DUP3 PUSH1 0x3 NOT CALLDATASIZE ADD SLT PUSH2 0x27B JUMPI PUSH2 0x958 PUSH2 0xD81 JUMP JUMPDEST PUSH1 0x2 SLOAD SWAP1 PUSH1 0xFF DUP3 AND ISZERO PUSH2 0x99A JUMPI POP PUSH1 0xFF NOT AND PUSH1 0x2 SSTORE MLOAD CALLER DUP2 MSTORE PUSH32 0x5DB9EE0A495BF2E6FF9C91A7834C1BA4FDD244A5E8AA4E537BD38AEAE4B073AA SWAP1 PUSH1 0x20 SWAP1 LOG1 DUP1 RETURN JUMPDEST DUP3 MLOAD PUSH4 0x8DFC202B PUSH1 0xE0 SHL DUP2 MSTORE REVERT JUMPDEST DUP4 DUP4 CALLVALUE PUSH2 0x185 JUMPI DUP1 PUSH1 0x3 NOT CALLDATASIZE ADD SLT PUSH2 0x185 JUMPI PUSH2 0x9C2 PUSH2 0xD39 JUMP JUMPDEST SWAP1 CALLER PUSH1 0x1 PUSH1 0x1 PUSH1 0xA0 SHL SUB DUP4 AND SUB PUSH2 0x9DF JUMPI POP PUSH2 0x3FA SWAP2 SWAP3 CALLDATALOAD PUSH2 0xE7D JUMP JUMPDEST MLOAD PUSH4 0x334BD919 PUSH1 0xE1 SHL DUP2 MSTORE DUP4 SWAP1 REVERT JUMPDEST SWAP2 SWAP1 POP CALLVALUE PUSH2 0x27B JUMPI DUP1 PUSH1 0x3 NOT CALLDATASIZE ADD SLT PUSH2 0x27B JUMPI PUSH2 0x3FA SWAP2 CALLDATALOAD PUSH2 0xA13 PUSH1 0x1 PUSH2 0x3E4 PUSH2 0xD39 JUMP JUMPDEST PUSH2 0xDFF JUMP JUMPDEST SWAP2 SWAP1 POP CALLVALUE PUSH2 0x27B JUMPI PUSH2 0xA29 CALLDATASIZE PUSH2 0xD1E JUMP JUMPDEST PUSH2 0xA34 SWAP4 SWAP2 SWAP4 PUSH2 0x1298 JUMP JUMPDEST PUSH2 0xA3C PUSH2 0x12B6 JUMP JUMPDEST DUP4 ISZERO PUSH2 0xC52 JUMPI DUP1 ISZERO PUSH2 0xBF8 JUMPI PUSH32 0x0 PUSH2 0xA75 DUP6 ADDRESS CALLER DUP5 PUSH2 0x10E4 JUMP JUMPDEST PUSH2 0x2710 PUSH2 0xA83 DUP5 SLOAD DUP8 PUSH2 0xEF2 JUMP JUMPDEST DIV SWAP2 PUSH2 0xA8F DUP4 DUP8 PUSH2 0xF1B JUMP JUMPDEST SWAP3 DUP1 PUSH2 0xBD8 JUMPI JUMPDEST POP DUP5 MLOAD SWAP3 PUSH2 0xAA3 DUP5 PUSH2 0xF28 JUMP JUMPDEST PUSH1 0x2 DUP5 MSTORE DUP6 CALLDATASIZE PUSH1 0x20 DUP7 ADD CALLDATACOPY PUSH1 0x1 PUSH1 0x1 PUSH1 0xA0 SHL SUB SWAP3 DUP4 AND SWAP3 PUSH2 0xB21 SWAP1 DUP3 SWAP1 DUP6 PUSH2 0xACA DUP9 PUSH2 0xF7C JUMP JUMPDEST MSTORE DUP1 PUSH32 0x0 AND PUSH2 0xAF7 DUP9 PUSH2 0xF9F JUMP JUMPDEST MSTORE PUSH32 0x0 AND DUP1 SWAP6 PUSH2 0x113D JUMP JUMPDEST PUSH2 0x12C TIMESTAMP ADD DUP1 TIMESTAMP GT PUSH2 0xBC5 JUMPI DUP9 SWAP5 SWAP4 SWAP3 SWAP2 PUSH2 0xB53 DUP7 SWAP3 DUP10 MLOAD SWAP9 DUP10 SWAP8 DUP9 SWAP7 DUP8 SWAP6 PUSH4 0x38ED1739 PUSH1 0xE0 SHL DUP8 MSTORE CALLER SWAP4 DUP8 ADD PUSH2 0x1068 JUMP JUMPDEST SUB SWAP3 GAS CALL SWAP1 DUP2 ISZERO PUSH2 0xBBB JUMPI PUSH32 0x18704AE982DCD24A1BEEEED3ECF045AB0520D7B7519B97ADF3E4F40BF7EFE339 SWAP3 SWAP2 PUSH2 0xB91 SWAP2 DUP7 SWAP2 PUSH2 0xBA7 JUMPI POP PUSH2 0xF9F JUMP JUMPDEST MLOAD SWAP3 DUP2 MLOAD SWAP4 DUP5 MSTORE PUSH1 0x20 DUP5 ADD MSTORE CALLER SWAP3 LOG2 PUSH1 0x1 DUP1 SSTORE DUP1 RETURN JUMPDEST PUSH2 0x780 SWAP2 POP RETURNDATASIZE DUP1 DUP9 DUP4 RETURNDATACOPY PUSH2 0x778 DUP2 DUP4 PUSH2 0xF5A JUMP JUMPDEST DUP3 MLOAD RETURNDATASIZE DUP7 DUP3 RETURNDATACOPY RETURNDATASIZE SWAP1 REVERT JUMPDEST PUSH4 0x4E487B71 PUSH1 0xE0 SHL DUP10 MSTORE PUSH1 0x11 DUP7 MSTORE PUSH1 0x24 DUP10 REVERT JUMPDEST PUSH1 0x2 SLOAD PUSH2 0xBF2 SWAP2 SWAP1 PUSH1 0x8 SHR PUSH1 0x1 PUSH1 0x1 PUSH1 0xA0 SHL SUB AND DUP5 PUSH2 0x10A1 JUMP JUMPDEST CODESIZE PUSH2 0xA96 JUMP JUMPDEST POP PUSH1 0x20 PUSH1 0x84 SWAP3 MLOAD SWAP2 PUSH3 0x461BCD PUSH1 0xE5 SHL DUP4 MSTORE DUP3 ADD MSTORE PUSH1 0x2E PUSH1 0x24 DUP3 ADD MSTORE PUSH32 0x5365636F6E646172794D61726B65743A20496E76616C6964206D696E696D756D PUSH1 0x44 DUP3 ADD MSTORE PUSH14 0x8109313D0D2D4C8185B5BDD5B9D PUSH1 0x92 SHL PUSH1 0x64 DUP3 ADD MSTORE REVERT JUMPDEST POP PUSH1 0x20 PUSH1 0x84 SWAP3 MLOAD SWAP2 PUSH3 0x461BCD PUSH1 0xE5 SHL DUP4 MSTORE DUP3 ADD MSTORE PUSH1 0x24 DUP1 DUP3 ADD MSTORE PUSH32 0x5365636F6E646172794D61726B65743A20496E76616C6964205553445420616D PUSH1 0x44 DUP3 ADD MSTORE PUSH4 0x1BDD5B9D PUSH1 0xE2 SHL PUSH1 0x64 DUP3 ADD MSTORE REVERT JUMPDEST SWAP1 POP CALLVALUE PUSH2 0x27B JUMPI PUSH1 0x20 CALLDATASIZE PUSH1 0x3 NOT ADD SLT PUSH2 0x27B JUMPI DUP2 PUSH1 0x20 SWAP4 PUSH1 0x1 SWAP3 CALLDATALOAD DUP2 MSTORE DUP1 DUP6 MSTORE KECCAK256 ADD SLOAD SWAP1 MLOAD SWAP1 DUP2 MSTORE RETURN JUMPDEST DUP5 SWAP2 CALLVALUE PUSH2 0x27B JUMPI PUSH1 0x20 CALLDATASIZE PUSH1 0x3 NOT ADD SLT PUSH2 0x27B JUMPI CALLDATALOAD PUSH4 0xFFFFFFFF PUSH1 0xE0 SHL DUP2 AND DUP1 SWAP2 SUB PUSH2 0x27B JUMPI PUSH1 0x20 SWAP3 POP PUSH4 0x7965DB0B PUSH1 0xE0 SHL DUP2 EQ SWAP1 DUP2 ISZERO PUSH2 0xD0D JUMPI JUMPDEST POP ISZERO ISZERO DUP2 MSTORE RETURN JUMPDEST PUSH4 0x1FFC9A7 PUSH1 0xE0 SHL EQ SWAP1 POP DUP4 PUSH2 0xD06 JUMP JUMPDEST PUSH1 0x40 SWAP1 PUSH1 0x3 NOT ADD SLT PUSH2 0xD34 JUMPI PUSH1 0x4 CALLDATALOAD SWAP1 PUSH1 0x24 CALLDATALOAD SWAP1 JUMP JUMPDEST PUSH1 0x0 DUP1 REVERT JUMPDEST PUSH1 0x24 CALLDATALOAD SWAP1 PUSH1 0x1 PUSH1 0x1 PUSH1 0xA0 SHL SUB DUP3 AND DUP3 SUB PUSH2 0xD34 JUMPI JUMP JUMPDEST PUSH1 0x4 CALLDATALOAD SWAP1 PUSH1 0x1 PUSH1 0x1 PUSH1 0xA0 SHL SUB DUP3 AND DUP3 SUB PUSH2 0xD34 JUMPI JUMP JUMPDEST CALLVALUE PUSH2 0xD34 JUMPI PUSH1 0x0 CALLDATASIZE PUSH1 0x3 NOT ADD SLT PUSH2 0xD34 JUMPI PUSH1 0x20 PUSH1 0x40 MLOAD PUSH1 0x0 DUP2 MSTORE RETURN JUMPDEST CALLER PUSH1 0x0 SWAP1 DUP2 MSTORE PUSH32 0xAD3228B676F7D3CD4284A5443F17F1962B36E491B30A40B2405849E597BA5FB5 PUSH1 0x20 MSTORE PUSH1 0x40 DUP2 KECCAK256 SLOAD PUSH1 0xFF AND ISZERO PUSH2 0xDBB JUMPI POP JUMP JUMPDEST PUSH1 0x44 SWAP1 PUSH1 0x40 MLOAD SWAP1 PUSH4 0xE2517D3F PUSH1 0xE0 SHL DUP3 MSTORE CALLER PUSH1 0x4 DUP4 ADD MSTORE PUSH1 0x24 DUP3 ADD MSTORE REVERT JUMPDEST DUP1 PUSH1 0x0 MSTORE PUSH1 0x0 PUSH1 0x20 MSTORE PUSH1 0x40 PUSH1 0x0 KECCAK256 CALLER PUSH1 0x0 MSTORE PUSH1 0x20 MSTORE PUSH1 0xFF PUSH1 0x40 PUSH1 0x0 KECCAK256 SLOAD AND ISZERO PUSH2 0xDBB JUMPI POP JUMP JUMPDEST SWAP1 PUSH1 0x0 SWAP2 DUP1 DUP4 MSTORE DUP3 PUSH1 0x20 MSTORE PUSH1 0x40 DUP4 KECCAK256 SWAP2 PUSH1 0x1 DUP1 PUSH1 0xA0 SHL SUB AND SWAP2 DUP3 DUP5 MSTORE PUSH1 0x20 MSTORE PUSH1 0xFF PUSH1 0x40 DUP5 KECCAK256 SLOAD AND ISZERO PUSH1 0x0 EQ PUSH2 0xE78 JUMPI DUP1 DUP4 MSTORE DUP3 PUSH1 0x20 MSTORE PUSH1 0x40 DUP4 KECCAK256 DUP3 DUP5 MSTORE PUSH1 0x20 MSTORE PUSH1 0x40 DUP4 KECCAK256 PUSH1 0x1 PUSH1 0xFF NOT DUP3 SLOAD AND OR SWAP1 SSTORE PUSH32 0x2F8788117E7EFF1D82E926EC794901D17C78024A50270940304540A733656F0D CALLER SWAP4 DUP1 LOG4 PUSH1 0x1 SWAP1 JUMP JUMPDEST POP POP SWAP1 JUMP JUMPDEST SWAP1 PUSH1 0x0 SWAP2 DUP1 DUP4 MSTORE DUP3 PUSH1 0x20 MSTORE PUSH1 0x40 DUP4 KECCAK256 SWAP2 PUSH1 0x1 DUP1 PUSH1 0xA0 SHL SUB AND SWAP2 DUP3 DUP5 MSTORE PUSH1 0x20 MSTORE PUSH1 0xFF PUSH1 0x40 DUP5 KECCAK256 SLOAD AND PUSH1 0x0 EQ PUSH2 0xE78 JUMPI DUP1 DUP4 MSTORE DUP3 PUSH1 0x20 MSTORE PUSH1 0x40 DUP4 KECCAK256 DUP3 DUP5 MSTORE PUSH1 0x20 MSTORE PUSH1 0x40 DUP4 KECCAK256 PUSH1 0xFF NOT DUP2 SLOAD AND SWAP1 SSTORE PUSH32 0xF6391F5C32D9C69D2A47EA670B442974B53935D1EDC7FD64EB21E047A839171B CALLER SWAP4 DUP1 LOG4 PUSH1 0x1 SWAP1 JUMP JUMPDEST DUP2 DUP2 MUL SWAP3 SWAP2 DUP2 ISZERO SWAP2 DUP5 DIV EQ OR ISZERO PUSH2 0xF05 JUMPI JUMP JUMPDEST PUSH4 0x4E487B71 PUSH1 0xE0 SHL PUSH1 0x0 MSTORE PUSH1 0x11 PUSH1 0x4 MSTORE PUSH1 0x24 PUSH1 0x0 REVERT JUMPDEST SWAP2 SWAP1 DUP3 SUB SWAP2 DUP3 GT PUSH2 0xF05 JUMPI JUMP JUMPDEST PUSH1 0x60 DUP2 ADD SWAP1 DUP2 LT PUSH8 0xFFFFFFFFFFFFFFFF DUP3 GT OR PUSH2 0xF44 JUMPI PUSH1 0x40 MSTORE JUMP JUMPDEST PUSH4 0x4E487B71 PUSH1 0xE0 SHL PUSH1 0x0 MSTORE PUSH1 0x41 PUSH1 0x4 MSTORE PUSH1 0x24 PUSH1 0x0 REVERT JUMPDEST SWAP1 PUSH1 0x1F DUP1 NOT SWAP2 ADD AND DUP2 ADD SWAP1 DUP2 LT PUSH8 0xFFFFFFFFFFFFFFFF DUP3 GT OR PUSH2 0xF44 JUMPI PUSH1 0x40 MSTORE JUMP JUMPDEST DUP1 MLOAD ISZERO PUSH2 0xF89 JUMPI PUSH1 0x20 ADD SWAP1 JUMP JUMPDEST PUSH4 0x4E487B71 PUSH1 0xE0 SHL PUSH1 0x0 MSTORE PUSH1 0x32 PUSH1 0x4 MSTORE PUSH1 0x24 PUSH1 0x0 REVERT JUMPDEST DUP1 MLOAD PUSH1 0x1 LT ISZERO PUSH2 0xF89 JUMPI PUSH1 0x40 ADD SWAP1 JUMP JUMPDEST SWAP1 PUSH1 0x20 SWAP1 DUP2 DUP4 DUP3 SUB SLT PUSH2 0xD34 JUMPI DUP3 MLOAD PUSH8 0xFFFFFFFFFFFFFFFF SWAP4 DUP5 DUP3 GT PUSH2 0xD34 JUMPI ADD DUP2 PUSH1 0x1F DUP3 ADD SLT ISZERO PUSH2 0xD34 JUMPI DUP1 MLOAD SWAP4 DUP5 GT PUSH2 0xF44 JUMPI DUP4 PUSH1 0x5 SHL SWAP1 PUSH1 0x40 MLOAD SWAP5 PUSH2 0xFF9 DUP6 DUP5 ADD DUP8 PUSH2 0xF5A JUMP JUMPDEST DUP6 MSTORE DUP4 DUP1 DUP7 ADD SWAP3 DUP3 ADD ADD SWAP3 DUP4 GT PUSH2 0xD34 JUMPI DUP4 ADD SWAP1 JUMPDEST DUP3 DUP3 LT PUSH2 0x101C JUMPI POP POP POP POP SWAP1 JUMP JUMPDEST DUP2 MLOAD DUP2 MSTORE SWAP1 DUP4 ADD SWAP1 DUP4 ADD PUSH2 0x100E JUMP JUMPDEST SWAP1 DUP2 MLOAD DUP1 DUP3 MSTORE PUSH1 0x20 DUP1 DUP1 SWAP4 ADD SWAP4 ADD SWAP2 PUSH1 0x0 JUMPDEST DUP3 DUP2 LT PUSH2 0x104B JUMPI POP POP POP POP SWAP1 JUMP JUMPDEST DUP4 MLOAD PUSH1 0x1 PUSH1 0x1 PUSH1 0xA0 SHL SUB AND DUP6 MSTORE SWAP4 DUP2 ADD SWAP4 SWAP3 DUP2 ADD SWAP3 PUSH1 0x1 ADD PUSH2 0x103D JUMP JUMPDEST SWAP2 SWAP3 PUSH1 0x80 SWAP4 PUSH2 0x108D SWAP3 SWAP8 SWAP7 SWAP6 SWAP8 DUP5 MSTORE PUSH1 0x20 DUP5 ADD MSTORE PUSH1 0xA0 PUSH1 0x40 DUP5 ADD MSTORE PUSH1 0xA0 DUP4 ADD SWAP1 PUSH2 0x102B JUMP JUMPDEST PUSH1 0x1 PUSH1 0x1 PUSH1 0xA0 SHL SUB SWAP1 SWAP6 AND PUSH1 0x60 DUP3 ADD MSTORE ADD MSTORE JUMP JUMPDEST PUSH1 0x40 MLOAD PUSH4 0xA9059CBB PUSH1 0xE0 SHL PUSH1 0x20 DUP3 ADD MSTORE PUSH1 0x1 PUSH1 0x1 PUSH1 0xA0 SHL SUB SWAP3 SWAP1 SWAP3 AND PUSH1 0x24 DUP4 ADD MSTORE PUSH1 0x44 DUP1 DUP4 ADD SWAP4 SWAP1 SWAP4 MSTORE SWAP2 DUP2 MSTORE PUSH2 0x10E2 SWAP2 PUSH2 0x10DD PUSH1 0x64 DUP4 PUSH2 0xF5A JUMP JUMPDEST PUSH2 0x1230 JUMP JUMPDEST JUMP JUMPDEST PUSH1 0x40 MLOAD PUSH4 0x23B872DD PUSH1 0xE0 SHL PUSH1 0x20 DUP3 ADD MSTORE PUSH1 0x1 PUSH1 0x1 PUSH1 0xA0 SHL SUB SWAP3 DUP4 AND PUSH1 0x24 DUP3 ADD MSTORE SWAP3 SWAP1 SWAP2 AND PUSH1 0x44 DUP4 ADD MSTORE PUSH1 0x64 DUP1 DUP4 ADD SWAP4 SWAP1 SWAP4 MSTORE SWAP2 DUP2 MSTORE PUSH1 0xA0 DUP2 ADD SWAP2 DUP2 DUP4 LT PUSH8 0xFFFFFFFFFFFFFFFF DUP5 GT OR PUSH2 0xF44 JUMPI PUSH2 0x10E2 SWAP3 PUSH1 0x40 MSTORE PUSH2 0x1230 JUMP JUMPDEST PUSH1 0x40 MLOAD PUSH4 0x95EA7B3 PUSH1 0xE0 SHL PUSH1 0x20 DUP3 ADD DUP2 DUP2 MSTORE PUSH1 0x1 PUSH1 0x1 PUSH1 0xA0 SHL SUB DUP6 AND PUSH1 0x24 DUP5 ADD MSTORE PUSH1 0x44 DUP1 DUP5 ADD SWAP7 SWAP1 SWAP7 MSTORE SWAP5 DUP3 MSTORE SWAP5 SWAP4 SWAP1 SWAP3 PUSH2 0x1179 PUSH1 0x64 DUP6 PUSH2 0xF5A JUMP JUMPDEST PUSH1 0x20 PUSH1 0x0 DUP1 SWAP4 DUP7 MLOAD SWAP1 DUP3 DUP8 GAS CALL DUP3 MLOAD RETURNDATASIZE DUP3 PUSH2 0x120B JUMPI JUMPDEST POP POP ISZERO PUSH2 0x119F JUMPI JUMPDEST POP POP POP POP SWAP1 POP JUMP JUMPDEST PUSH1 0x40 MLOAD PUSH1 0x20 DUP2 ADD SWAP7 SWAP1 SWAP7 MSTORE PUSH1 0x1 PUSH1 0x1 PUSH1 0xA0 SHL SUB AND PUSH1 0x24 DUP7 ADD MSTORE PUSH1 0x44 DUP1 DUP7 ADD DUP3 SWAP1 MSTORE DUP6 MSTORE PUSH1 0x80 DUP6 ADD SWAP1 PUSH8 0xFFFFFFFFFFFFFFFF DUP3 GT DUP7 DUP4 LT OR PUSH2 0x11F7 JUMPI POP PUSH2 0x11ED SWAP4 SWAP5 PUSH2 0x10DD SWAP2 PUSH1 0x40 MSTORE DUP3 PUSH2 0x1230 JUMP JUMPDEST DUP1 CODESIZE DUP1 DUP1 DUP1 PUSH2 0x1197 JUMP JUMPDEST PUSH4 0x4E487B71 PUSH1 0xE0 SHL DUP2 MSTORE PUSH1 0x41 PUSH1 0x4 MSTORE PUSH1 0x24 SWAP1 REVERT JUMPDEST SWAP1 SWAP2 POP PUSH2 0x1228 JUMPI POP PUSH1 0x1 PUSH1 0x1 PUSH1 0xA0 SHL SUB DUP4 AND EXTCODESIZE ISZERO ISZERO JUMPDEST CODESIZE DUP1 PUSH2 0x118F JUMP JUMPDEST PUSH1 0x1 EQ PUSH2 0x1221 JUMP JUMPDEST SWAP1 PUSH1 0x0 PUSH1 0x20 SWAP2 DUP3 DUP2 MLOAD SWAP2 ADD DUP3 DUP6 GAS CALL ISZERO PUSH2 0x128C JUMPI PUSH1 0x0 MLOAD RETURNDATASIZE PUSH2 0x1283 JUMPI POP PUSH1 0x1 PUSH1 0x1 PUSH1 0xA0 SHL SUB DUP2 AND EXTCODESIZE ISZERO JUMPDEST PUSH2 0x1261 JUMPI POP JUMP JUMPDEST PUSH1 0x40 MLOAD PUSH4 0x5274AFE7 PUSH1 0xE0 SHL DUP2 MSTORE PUSH1 0x1 PUSH1 0x1 PUSH1 0xA0 SHL SUB SWAP1 SWAP2 AND PUSH1 0x4 DUP3 ADD MSTORE PUSH1 0x24 SWAP1 REVERT JUMPDEST PUSH1 0x1 EQ ISZERO PUSH2 0x125A JUMP JUMPDEST PUSH1 0x40 MLOAD RETURNDATASIZE PUSH1 0x0 DUP3 RETURNDATACOPY RETURNDATASIZE SWAP1 REVERT JUMPDEST PUSH1 0xFF PUSH1 0x2 SLOAD AND PUSH2 0x12A4 JUMPI JUMP JUMPDEST PUSH1 0x40 MLOAD PUSH4 0xD93C0665 PUSH1 0xE0 SHL DUP2 MSTORE PUSH1 0x4 SWAP1 REVERT JUMPDEST PUSH1 0x2 PUSH1 0x1 SLOAD EQ PUSH2 0x12C7 JUMPI PUSH1 0x2 PUSH1 0x1 SSTORE JUMP JUMPDEST PUSH1 0x40 MLOAD PUSH4 0x3EE5AEB5 PUSH1 0xE0 SHL DUP2 MSTORE PUSH1 0x4 SWAP1 REVERT JUMPDEST DUP1 ISZERO PUSH2 0x1428 JUMPI PUSH2 0x1387 PUSH1 0x0 PUSH1 0x40 MLOAD PUSH2 0x12F0 DUP2 PUSH2 0xF28 JUMP JUMPDEST PUSH1 0x2 DUP2 MSTORE PUSH1 0x40 CALLDATASIZE PUSH1 0x20 DUP4 ADD CALLDATACOPY PUSH1 0x1 PUSH1 0x1 PUSH1 0xA0 SHL SUB PUSH32 0x0 DUP2 AND PUSH2 0x1330 DUP4 PUSH2 0xF7C JUMP JUMPDEST MSTORE DUP1 PUSH32 0x0 AND PUSH2 0x135D DUP4 PUSH2 0xF9F JUMP JUMPDEST MSTORE PUSH1 0x40 MLOAD DUP1 DUP1 SWAP6 DUP2 SWAP5 PUSH4 0xD06CA61F PUSH1 0xE0 SHL DUP4 MSTORE DUP9 PUSH1 0x4 DUP5 ADD MSTORE PUSH1 0x40 PUSH1 0x24 DUP5 ADD MSTORE PUSH1 0x44 DUP4 ADD SWAP1 PUSH2 0x102B JUMP JUMPDEST SUB SWAP2 PUSH32 0x0 AND GAS STATICCALL PUSH1 0x0 SWAP2 DUP2 PUSH2 0x140D JUMPI JUMPDEST POP PUSH2 0x13EF JUMPI POP PUSH8 0xDE0B6B3A7640000 PUSH2 0x13D5 PUSH2 0x13EC SWAP3 PUSH1 0x3 SLOAD SWAP1 PUSH2 0xEF2 JUMP JUMPDEST DIV PUSH2 0x2710 PUSH2 0x13E5 PUSH1 0x4 SLOAD DUP4 PUSH2 0xEF2 JUMP JUMPDEST DIV SWAP1 PUSH2 0xF1B JUMP JUMPDEST SWAP1 JUMP JUMPDEST PUSH2 0x13EC SWAP2 POP PUSH2 0x13FD SWAP1 PUSH2 0xF9F JUMP JUMPDEST MLOAD PUSH2 0x2710 PUSH2 0x13E5 PUSH1 0x4 SLOAD DUP4 PUSH2 0xEF2 JUMP JUMPDEST PUSH2 0x1421 SWAP2 SWAP3 RETURNDATASIZE DUP1 SWAP2 DUP4 RETURNDATACOPY PUSH2 0x778 DUP2 DUP4 PUSH2 0xF5A JUMP JUMPDEST SWAP1 CODESIZE PUSH2 0x13B6 JUMP JUMPDEST POP PUSH1 0x0 SWAP1 JUMP INVALID LOG2 PUSH5 0x6970667358 0x22 SLT KECCAK256 MOD 0xDF OR PUSH4 0xF3E88D26 PUSH20 0xC243C5BD2759AE535844C3A9169F7F9C01B687FA 0x4E PUSH28 0x6864736F6C634300081400332F8788117E7EFF1D82E926EC794901D1 PUSH29 0x78024A50270940304540A733656F0D0000000000000000000000000000 "},"methodIdentifiers":{"ADMIN_ROLE()":"75b238fc","DEFAULT_ADMIN_ROLE()":"a217fddf","OPERATOR_ROLE()":"f5b541a6","emergencyWithdraw(address,uint256)":"95ccea67","factory()":"c45a0155","feeRecipient()":"46904840","getRoleAdmin(bytes32)":"248a9ca3","getSwapQuote(uint256)":"52f057d5","grantRole(bytes32,address)":"2f2ff15d","hasRole(bytes32,address)":"91d14854","pause()":"8456cb59","paused()":"5c975abb","renounceRole(bytes32,address)":"36568abe","revokeRole(bytes32,address)":"d547741f","router()":"f887ea40","supportsInterface(bytes4)":"01ffc9a7","swapBLOCKSForUSDT(uint256,uint256)":"8d464a9d","swapFee()":"54cf2aeb","swapUSDTForBLOCKS(uint256,uint256)":"2949cb32","targetPrice()":"dc38679c","token()":"fc0c546a","unpause()":"3f4ba83a","updateFeeRecipient(address)":"f160d369","updateSwapFee(uint256)":"bf16f65a","updateTargetPrice(uint256)":"f84578ea","usdtToken()":"a98ad46c"}}}}}