{"contracts/PackageManagerV2_2.sol":{"PackageManagerV2_2":{"abi":[{"inputs":[{"internalType":"address","name":"usdt_","type":"address"},{"internalType":"address","name":"share_","type":"address"},{"internalType":"address","name":"lp_","type":"address"},{"internalType":"address","name":"vault_","type":"address"},{"internalType":"address","name":"router_","type":"address"},{"internalType":"address","name":"factory_","type":"address"},{"internalType":"address","name":"treasury_","type":"address"},{"internalType":"address","name":"tax_","type":"address"},{"internalType":"address","name":"admin","type":"address"},{"internalType":"uint256","name":"initialGlobalTargetPrice_","type":"uint256"}],"stateMutability":"nonpayable","type":"constructor"},{"inputs":[],"name":"AccessControlBadConfirmation","type":"error"},{"inputs":[{"internalType":"address","name":"account","type":"address"},{"internalType":"bytes32","name":"neededRole","type":"bytes32"}],"name":"AccessControlUnauthorizedAccount","type":"error"},{"inputs":[],"name":"EnforcedPause","type":"error"},{"inputs":[],"name":"ExpectedPause","type":"error"},{"inputs":[],"name":"ReentrancyGuardReentrantCall","type":"error"},{"inputs":[{"internalType":"address","name":"token","type":"address"}],"name":"SafeERC20FailedOperation","type":"error"},{"anonymous":false,"inputs":[{"indexed":false,"internalType":"uint256","name":"oldWindow","type":"uint256"},{"indexed":false,"internalType":"uint256","name":"newWindow","type":"uint256"}],"name":"DeadlineWindowUpdated","type":"event"},{"anonymous":false,"inputs":[{"indexed":false,"internalType":"uint256","name":"oldGlobalTargetPrice","type":"uint256"},{"indexed":false,"internalType":"uint256","name":"newGlobalTargetPrice","type":"uint256"}],"name":"GlobalTargetPriceUpdated","type":"event"},{"anonymous":false,"inputs":[{"indexed":true,"internalType":"address","name":"user","type":"address"},{"indexed":true,"internalType":"uint256","name":"packageId","type":"uint256"},{"indexed":false,"internalType":"uint256","name":"shareTokenAmount","type":"uint256"},{"indexed":false,"internalType":"uint256","name":"usdtAmount","type":"uint256"},{"indexed":false,"internalType":"uint256","name":"liquidityTokens","type":"uint256"},{"indexed":false,"internalType":"uint256","name":"actualShareToken","type":"uint256"},{"indexed":false,"internalType":"uint256","name":"actualUSDT","type":"uint256"}],"name":"LiquidityAdded","type":"event"},{"anonymous":false,"inputs":[{"indexed":true,"internalType":"address","name":"user","type":"address"},{"indexed":true,"internalType":"uint256","name":"packageId","type":"uint256"},{"indexed":false,"internalType":"uint256","name":"usdtAmount","type":"uint256"},{"indexed":false,"internalType":"string","name":"reason","type":"string"}],"name":"LiquidityAdditionFailed","type":"event"},{"anonymous":false,"inputs":[{"indexed":true,"internalType":"address","name":"user","type":"address"},{"indexed":false,"internalType":"uint256","name":"lpTokensBurned","type":"uint256"},{"indexed":false,"internalType":"uint256","name":"liquidityRemoved","type":"uint256"},{"indexed":false,"internalType":"uint256","name":"shareTokenReceived","type":"uint256"},{"indexed":false,"internalType":"uint256","name":"usdtReceived","type":"uint256"}],"name":"LiquidityRedeemed","type":"event"},{"anonymous":false,"inputs":[{"indexed":false,"internalType":"uint256","name":"marketPrice","type":"uint256"},{"indexed":false,"internalType":"uint256","name":"globalTargetPrice","type":"uint256"},{"indexed":false,"internalType":"uint256","name":"priceDifference","type":"uint256"}],"name":"MarketPriceUsed","type":"event"},{"anonymous":false,"inputs":[{"indexed":true,"internalType":"uint256","name":"id","type":"uint256"},{"indexed":false,"internalType":"string","name":"name","type":"string"},{"indexed":false,"internalType":"uint256","name":"entryUSDT","type":"uint256"},{"indexed":false,"internalType":"uint256","name":"exchangeRate","type":"uint256"},{"indexed":false,"internalType":"uint16","name":"vestBps","type":"uint16"},{"indexed":false,"internalType":"uint64","name":"cliff","type":"uint64"},{"indexed":false,"internalType":"uint64","name":"duration","type":"uint64"},{"indexed":false,"internalType":"uint16","name":"referralBps","type":"uint16"}],"name":"PackageAdded","type":"event"},{"anonymous":false,"inputs":[{"indexed":true,"internalType":"uint256","name":"id","type":"uint256"},{"indexed":false,"internalType":"uint256","name":"oldExchangeRate","type":"uint256"},{"indexed":false,"internalType":"uint256","name":"newExchangeRate","type":"uint256"}],"name":"PackageExchangeRateUpdated","type":"event"},{"anonymous":false,"inputs":[{"indexed":true,"internalType":"uint256","name":"id","type":"uint256"},{"indexed":false,"internalType":"bool","name":"active","type":"bool"}],"name":"PackageToggled","type":"event"},{"anonymous":false,"inputs":[{"indexed":false,"internalType":"address","name":"account","type":"address"}],"name":"Paused","type":"event"},{"anonymous":false,"inputs":[{"indexed":true,"internalType":"address","name":"buyer","type":"address"},{"indexed":true,"internalType":"uint256","name":"packageId","type":"uint256"},{"indexed":false,"internalType":"uint256","name":"usdtAmount","type":"uint256"},{"indexed":false,"internalType":"uint256","name":"totalTokens","type":"uint256"},{"indexed":false,"internalType":"uint256","name":"vestTokens","type":"uint256"},{"indexed":false,"internalType":"uint256","name":"poolTokens","type":"uint256"},{"indexed":false,"internalType":"uint256","name":"lpTokens","type":"uint256"},{"indexed":true,"internalType":"address","name":"referrer","type":"address"},{"indexed":false,"internalType":"uint256","name":"referralReward","type":"uint256"}],"name":"Purchased","type":"event"},{"anonymous":false,"inputs":[{"indexed":true,"internalType":"address","name":"user","type":"address"},{"indexed":false,"internalType":"uint256","name":"lpAmount","type":"uint256"}],"name":"Redeemed","type":"event"},{"anonymous":false,"inputs":[{"indexed":true,"internalType":"address","name":"referrer","type":"address"},{"indexed":true,"internalType":"address","name":"buyer","type":"address"},{"indexed":false,"internalType":"uint256","name":"reward","type":"uint256"}],"name":"ReferralPaid","type":"event"},{"anonymous":false,"inputs":[{"indexed":true,"internalType":"bytes32","name":"role","type":"bytes32"},{"indexed":true,"internalType":"bytes32","name":"previousAdminRole","type":"bytes32"},{"indexed":true,"internalType":"bytes32","name":"newAdminRole","type":"bytes32"}],"name":"RoleAdminChanged","type":"event"},{"anonymous":false,"inputs":[{"indexed":true,"internalType":"bytes32","name":"role","type":"bytes32"},{"indexed":true,"internalType":"address","name":"account","type":"address"},{"indexed":true,"internalType":"address","name":"sender","type":"address"}],"name":"RoleGranted","type":"event"},{"anonymous":false,"inputs":[{"indexed":true,"internalType":"bytes32","name":"role","type":"bytes32"},{"indexed":true,"internalType":"address","name":"account","type":"address"},{"indexed":true,"internalType":"address","name":"sender","type":"address"}],"name":"RoleRevoked","type":"event"},{"anonymous":false,"inputs":[{"indexed":true,"internalType":"address","name":"user","type":"address"},{"indexed":true,"internalType":"uint256","name":"packageId","type":"uint256"},{"indexed":false,"internalType":"uint256","name":"requestedShareToken","type":"uint256"},{"indexed":false,"internalType":"uint256","name":"requestedUSDT","type":"uint256"},{"indexed":false,"internalType":"uint256","name":"minShareToken","type":"uint256"},{"indexed":false,"internalType":"uint256","name":"minUSDT","type":"uint256"}],"name":"SlippageProtectionTriggered","type":"event"},{"anonymous":false,"inputs":[{"indexed":false,"internalType":"uint256","name":"oldTolerance","type":"uint256"},{"indexed":false,"internalType":"uint256","name":"newTolerance","type":"uint256"}],"name":"SlippageToleranceUpdated","type":"event"},{"anonymous":false,"inputs":[{"indexed":true,"internalType":"bytes32","name":"taxKey","type":"bytes32"},{"indexed":false,"internalType":"uint256","name":"amount","type":"uint256"},{"indexed":true,"internalType":"address","name":"recipient","type":"address"}],"name":"TaxApplied","type":"event"},{"anonymous":false,"inputs":[{"indexed":true,"internalType":"address","name":"buyer","type":"address"},{"indexed":true,"internalType":"uint256","name":"packageId","type":"uint256"},{"indexed":false,"internalType":"uint256","name":"amount","type":"uint256"}],"name":"TreasuryBlocksAllocated","type":"event"},{"anonymous":false,"inputs":[{"indexed":true,"internalType":"address","name":"oldTreasury","type":"address"},{"indexed":true,"internalType":"address","name":"newTreasury","type":"address"}],"name":"TreasuryUpdated","type":"event"},{"anonymous":false,"inputs":[{"indexed":false,"internalType":"address","name":"account","type":"address"}],"name":"Unpaused","type":"event"},{"inputs":[],"name":"ADMIN_ROLE","outputs":[{"internalType":"bytes32","name":"","type":"bytes32"}],"stateMutability":"view","type":"function"},{"inputs":[],"name":"DEFAULT_ADMIN_ROLE","outputs":[{"internalType":"bytes32","name":"","type":"bytes32"}],"stateMutability":"view","type":"function"},{"inputs":[],"name":"PURCHASE_TAX_KEY","outputs":[{"internalType":"bytes32","name":"","type":"bytes32"}],"stateMutability":"view","type":"function"},{"inputs":[],"name":"SERVER_ROLE","outputs":[{"internalType":"bytes32","name":"","type":"bytes32"}],"stateMutability":"view","type":"function"},{"inputs":[],"name":"USDT_DEC","outputs":[{"internalType":"uint8","name":"","type":"uint8"}],"stateMutability":"view","type":"function"},{"inputs":[],"name":"USDT_SCALE","outputs":[{"internalType":"uint256","name":"","type":"uint256"}],"stateMutability":"view","type":"function"},{"inputs":[],"name":"USDT_SCALE_UP","outputs":[{"internalType":"bool","name":"","type":"bool"}],"stateMutability":"view","type":"function"},{"inputs":[{"internalType":"string","name":"name","type":"string"},{"internalType":"uint256","name":"entryUSDT","type":"uint256"},{"internalType":"uint256","name":"exchangeRate","type":"uint256"},{"internalType":"uint16","name":"vestBps","type":"uint16"},{"internalType":"uint64","name":"cliff","type":"uint64"},{"internalType":"uint64","name":"duration","type":"uint64"},{"internalType":"uint16","name":"referralBps","type":"uint16"}],"name":"addPackage","outputs":[],"stateMutability":"nonpayable","type":"function"},{"inputs":[],"name":"deadlineWindow","outputs":[{"internalType":"uint256","name":"","type":"uint256"}],"stateMutability":"view","type":"function"},{"inputs":[],"name":"factory","outputs":[{"internalType":"contract IPancakeFactory","name":"","type":"address"}],"stateMutability":"view","type":"function"},{"inputs":[],"name":"getActivePackageIds","outputs":[{"internalType":"uint256[]","name":"","type":"uint256[]"}],"stateMutability":"view","type":"function"},{"inputs":[],"name":"getCurrentMarketPrice","outputs":[{"internalType":"uint256","name":"marketPrice","type":"uint256"},{"internalType":"bool","name":"hasLiquidity","type":"bool"}],"stateMutability":"view","type":"function"},{"inputs":[{"internalType":"uint256","name":"id","type":"uint256"}],"name":"getPackage","outputs":[{"components":[{"internalType":"uint256","name":"entryUSDT","type":"uint256"},{"internalType":"uint256","name":"exchangeRate","type":"uint256"},{"internalType":"uint64","name":"cliff","type":"uint64"},{"internalType":"uint64","name":"duration","type":"uint64"},{"internalType":"uint16","name":"vestBps","type":"uint16"},{"internalType":"uint16","name":"referralBps","type":"uint16"},{"internalType":"bool","name":"active","type":"bool"},{"internalType":"bool","name":"exists","type":"bool"},{"internalType":"string","name":"name","type":"string"}],"internalType":"struct PackageManagerV2_2.Package","name":"","type":"tuple"}],"stateMutability":"view","type":"function"},{"inputs":[],"name":"getPackageCount","outputs":[{"internalType":"uint256","name":"","type":"uint256"}],"stateMutability":"view","type":"function"},{"inputs":[],"name":"getPackageIds","outputs":[{"internalType":"uint256[]","name":"","type":"uint256[]"}],"stateMutability":"view","type":"function"},{"inputs":[{"internalType":"bytes32","name":"role","type":"bytes32"}],"name":"getRoleAdmin","outputs":[{"internalType":"bytes32","name":"","type":"bytes32"}],"stateMutability":"view","type":"function"},{"inputs":[{"internalType":"address","name":"user","type":"address"}],"name":"getUserPackageCount","outputs":[{"internalType":"uint256","name":"","type":"uint256"}],"stateMutability":"view","type":"function"},{"inputs":[{"internalType":"address","name":"user","type":"address"}],"name":"getUserPackages","outputs":[{"components":[{"internalType":"uint256","name":"packageId","type":"uint256"},{"internalType":"uint256","name":"usdtAmount","type":"uint256"},{"internalType":"uint256","name":"totalTokens","type":"uint256"},{"internalType":"uint256","name":"vestTokens","type":"uint256"},{"internalType":"uint256","name":"poolTokens","type":"uint256"},{"internalType":"uint256","name":"lpTokens","type":"uint256"},{"internalType":"address","name":"referrer","type":"address"},{"internalType":"uint256","name":"referralReward","type":"uint256"},{"internalType":"uint256","name":"timestamp","type":"uint256"}],"internalType":"struct PackageManagerV2_2.UserPurchase[]","name":"","type":"tuple[]"}],"stateMutability":"view","type":"function"},{"inputs":[{"internalType":"address","name":"user","type":"address"},{"internalType":"uint256","name":"index","type":"uint256"}],"name":"getUserPurchase","outputs":[{"components":[{"internalType":"uint256","name":"packageId","type":"uint256"},{"internalType":"uint256","name":"usdtAmount","type":"uint256"},{"internalType":"uint256","name":"totalTokens","type":"uint256"},{"internalType":"uint256","name":"vestTokens","type":"uint256"},{"internalType":"uint256","name":"poolTokens","type":"uint256"},{"internalType":"uint256","name":"lpTokens","type":"uint256"},{"internalType":"address","name":"referrer","type":"address"},{"internalType":"uint256","name":"referralReward","type":"uint256"},{"internalType":"uint256","name":"timestamp","type":"uint256"}],"internalType":"struct PackageManagerV2_2.UserPurchase","name":"","type":"tuple"}],"stateMutability":"view","type":"function"},{"inputs":[{"internalType":"address","name":"user","type":"address"}],"name":"getUserPurchaseCount","outputs":[{"internalType":"uint256","name":"","type":"uint256"}],"stateMutability":"view","type":"function"},{"inputs":[{"internalType":"address","name":"user","type":"address"}],"name":"getUserPurchases","outputs":[{"components":[{"internalType":"uint256","name":"packageId","type":"uint256"},{"internalType":"uint256","name":"usdtAmount","type":"uint256"},{"internalType":"uint256","name":"totalTokens","type":"uint256"},{"internalType":"uint256","name":"vestTokens","type":"uint256"},{"internalType":"uint256","name":"poolTokens","type":"uint256"},{"internalType":"uint256","name":"lpTokens","type":"uint256"},{"internalType":"address","name":"referrer","type":"address"},{"internalType":"uint256","name":"referralReward","type":"uint256"},{"internalType":"uint256","name":"timestamp","type":"uint256"}],"internalType":"struct PackageManagerV2_2.UserPurchase[]","name":"","type":"tuple[]"}],"stateMutability":"view","type":"function"},{"inputs":[{"internalType":"address","name":"user","type":"address"}],"name":"getUserRedemptionCount","outputs":[{"internalType":"uint256","name":"","type":"uint256"}],"stateMutability":"view","type":"function"},{"inputs":[{"internalType":"address","name":"user","type":"address"}],"name":"getUserRedemptions","outputs":[{"internalType":"uint256[]","name":"amounts","type":"uint256[]"},{"internalType":"uint256[]","name":"timestamps","type":"uint256[]"}],"stateMutability":"view","type":"function"},{"inputs":[{"internalType":"address","name":"user","type":"address"}],"name":"getUserStats","outputs":[{"components":[{"internalType":"uint256","name":"totalInvested","type":"uint256"},{"internalType":"uint256","name":"totalTokensReceived","type":"uint256"},{"internalType":"uint256","name":"totalVestTokens","type":"uint256"},{"internalType":"uint256","name":"totalPoolTokens","type":"uint256"},{"internalType":"uint256","name":"totalLPTokens","type":"uint256"},{"internalType":"uint256","name":"totalReferralRewards","type":"uint256"},{"internalType":"uint256","name":"purchaseCount","type":"uint256"},{"internalType":"uint256","name":"redemptionCount","type":"uint256"},{"internalType":"uint256","name":"totalRedemptions","type":"uint256"}],"internalType":"struct PackageManagerV2_2.UserStats","name":"","type":"tuple"}],"stateMutability":"view","type":"function"},{"inputs":[],"name":"globalTargetPrice","outputs":[{"internalType":"uint256","name":"","type":"uint256"}],"stateMutability":"view","type":"function"},{"inputs":[{"internalType":"bytes32","name":"role","type":"bytes32"},{"internalType":"address","name":"account","type":"address"}],"name":"grantRole","outputs":[],"stateMutability":"nonpayable","type":"function"},{"inputs":[{"internalType":"bytes32","name":"role","type":"bytes32"},{"internalType":"address","name":"account","type":"address"}],"name":"hasRole","outputs":[{"internalType":"bool","name":"","type":"bool"}],"stateMutability":"view","type":"function"},{"inputs":[],"name":"initRouterAllowances","outputs":[],"stateMutability":"nonpayable","type":"function"},{"inputs":[],"name":"lpToken","outputs":[{"internalType":"contract IBLOCKS_LP","name":"","type":"address"}],"stateMutability":"view","type":"function"},{"inputs":[],"name":"nextPackageId","outputs":[{"internalType":"uint256","name":"","type":"uint256"}],"stateMutability":"view","type":"function"},{"inputs":[],"name":"pause","outputs":[],"stateMutability":"nonpayable","type":"function"},{"inputs":[],"name":"paused","outputs":[{"internalType":"bool","name":"","type":"bool"}],"stateMutability":"view","type":"function"},{"inputs":[{"internalType":"uint256","name":"id","type":"uint256"},{"internalType":"address","name":"referrer","type":"address"}],"name":"purchase","outputs":[],"stateMutability":"nonpayable","type":"function"},{"inputs":[{"internalType":"address","name":"buyer","type":"address"},{"internalType":"uint256","name":"id","type":"uint256"},{"internalType":"address","name":"referrer","type":"address"}],"name":"purchaseFor","outputs":[],"stateMutability":"nonpayable","type":"function"},{"inputs":[{"internalType":"uint256","name":"lpAmount","type":"uint256"}],"name":"redeem","outputs":[],"stateMutability":"nonpayable","type":"function"},{"inputs":[{"internalType":"bytes32","name":"role","type":"bytes32"},{"internalType":"address","name":"callerConfirmation","type":"address"}],"name":"renounceRole","outputs":[],"stateMutability":"nonpayable","type":"function"},{"inputs":[{"internalType":"bytes32","name":"role","type":"bytes32"},{"internalType":"address","name":"account","type":"address"}],"name":"revokeRole","outputs":[],"stateMutability":"nonpayable","type":"function"},{"inputs":[],"name":"router","outputs":[{"internalType":"contract IPancakeRouter","name":"","type":"address"}],"stateMutability":"view","type":"function"},{"inputs":[{"internalType":"uint256","name":"newWindow","type":"uint256"}],"name":"setDeadlineWindow","outputs":[],"stateMutability":"nonpayable","type":"function"},{"inputs":[{"internalType":"uint256","name":"newPrice","type":"uint256"}],"name":"setGlobalTargetPrice","outputs":[],"stateMutability":"nonpayable","type":"function"},{"inputs":[{"internalType":"uint256","name":"id","type":"uint256"},{"internalType":"uint256","name":"newExchangeRate","type":"uint256"}],"name":"setPackageExchangeRate","outputs":[],"stateMutability":"nonpayable","type":"function"},{"inputs":[{"internalType":"uint256","name":"newTolBps","type":"uint256"}],"name":"setSlippageTolerance","outputs":[],"stateMutability":"nonpayable","type":"function"},{"inputs":[{"internalType":"address","name":"newTreasury","type":"address"}],"name":"setTreasury","outputs":[],"stateMutability":"nonpayable","type":"function"},{"inputs":[],"name":"shareToken","outputs":[{"internalType":"contract IBLOCKS","name":"","type":"address"}],"stateMutability":"view","type":"function"},{"inputs":[],"name":"slippageTolerance","outputs":[{"internalType":"uint256","name":"","type":"uint256"}],"stateMutability":"view","type":"function"},{"inputs":[{"internalType":"bytes4","name":"interfaceId","type":"bytes4"}],"name":"supportsInterface","outputs":[{"internalType":"bool","name":"","type":"bool"}],"stateMutability":"view","type":"function"},{"inputs":[],"name":"taxManager","outputs":[{"internalType":"contract ISwapTaxManager","name":"","type":"address"}],"stateMutability":"view","type":"function"},{"inputs":[{"internalType":"uint256","name":"id","type":"uint256"}],"name":"togglePackage","outputs":[],"stateMutability":"nonpayable","type":"function"},{"inputs":[],"name":"treasury","outputs":[{"internalType":"address","name":"","type":"address"}],"stateMutability":"view","type":"function"},{"inputs":[],"name":"unpause","outputs":[],"stateMutability":"nonpayable","type":"function"},{"inputs":[],"name":"usdt","outputs":[{"internalType":"contract IERC20Decimals","name":"","type":"address"}],"stateMutability":"view","type":"function"},{"inputs":[],"name":"vestingVault","outputs":[{"internalType":"contract IVestingVault","name":"","type":"address"}],"stateMutability":"view","type":"function"}],"evm":{"bytecode":{"linkReferences":{},"object":"6101c06040908082523462000539578062004a8680380380916200002482856200053e565b8339610140918291810103126200053957620000408262000578565b9060206200005081850162000578565b916200005e86860162000578565b956200006d6060870162000578565b936200007c6080880162000578565b976200008b60a0890162000578565b966200009a60c08a0162000578565b97620000a960e08b0162000578565b906101009b620000bb8d8d0162000578565b6101209c8d01516001805561012c6003556101f4600555909a6001600160a01b039586169791969091881515878f826200052c575b826200051f575b8262000512575b8262000505575b82620004f8575b82620004eb575b505080620004df575b80620004d3575b15620004a05787156200045c576080899052861660a052851660c052841660e05283168c5282168a5216845260028054610100600160a81b031916600889901b610100600160a81b03161790556004908155825163313ce56760e01b8152918591839182905afa938415620004515760009462000408575b505060ff610160938085521694600060128714600014620003965750620001e190620001da6001965b61018097885260126101a09911158952620005b5565b5062000635565b50519461438e9687620006d888396080518781816105390152818161128b01528181611e40015281816126d401528181612e790152818161377501528181613bdf01528181613de101528181613ef8015281816142790152614313015260a051878181610506015281816112b90152818161159c015281816126a80152818161322001528181613280015281816132d701528181613570015281816135c801528181613675015281816137a20152818161381f01528181613e6b01528181613ed0015281816140fe01526141e1015260c0518781816104b801528181611646015261344f015260e0518781816106b40152818161101d015281816137df0152818161386e01526138d70152518681816102b4015281816106320152818161126301528181613da701528181613e3201528181613f59015281816141bd015261425501525185818161056a01528181610bf901528181611318015261270d015251848181611c860152613b3a0152518381816111bd01526127c40152518281816115e201528181612edb0152818161351d015281816136f4015261395d015251818181610d6901528181612eb201526134f40152f35b6012871015620003de57866012039060ff8211620003ca575090620001da620003c3620001e1936200058d565b96620001c4565b634e487b7160e01b81526011600452602490fd5b60111987019060ff8211620003ca575090620001da62000402620001e1936200058d565b620003c3565b81819593953d831162000449575b6200042281836200053e565b810103126200044557519060ff821682036200044257509138806200019b565b80fd5b5080fd5b503d62000416565b82513d6000823e3d90fd5b895162461bcd60e51b8152600481018d9052601560248201527f496e76616c696420676c6f62616c2074617267657400000000000000000000006044820152606490fd5b895162461bcd60e51b8152600481018d9052600c60248201526b24b73b30b634b21030b2323960a11b6044820152606490fd5b50868d16151562000123565b5086861615156200011c565b1615159050878f62000113565b878216151592506200010c565b8682161515925062000105565b85821615159250620000fe565b84821615159250620000f7565b83821615159250620000f0565b600080fd5b601f909101601f19168101906001600160401b038211908210176200056257604052565b634e487b7160e01b600052604160045260246000fd5b51906001600160a01b03821682036200053957565b60ff16604d81116200059f57600a0a90565b634e487b7160e01b600052601160045260246000fd5b6001600160a01b031660008181527fad3228b676f7d3cd4284a5443f17f1962b36e491b30a40b2405849e597ba5fb5602052604081205490919060ff166200063157818052816020526040822081835260205260408220600160ff19825416179055339160008051602062004a668339815191528180a4600190565b5090565b6001600160a01b031660008181527f9c5aa8bf4d93dca6430115e88fa8c1700204beda30fff3ec04054c8739a0a2b560205260408120549091907fa8a7bc421f721cb936ea99efdad79237e6ee0b871a2a08cf648691f9584cdc779060ff16620006d257808352826020526040832082845260205260408320600160ff1982541617905560008051602062004a66833981519152339380a4600190565b50509056fe608080604052600436101561001357600080fd5b6000803560e01c91826301ffc9a71461208757508163117da1ee14611fdf578163175d1bcb14611fc257816318cf283414611f885781631ae74cce14611f60578163248a9ca314611f355781632cf91f6414611eab5781632f2ff15d14611e6f5781632f48ab7d14611e2b57816336568abe14611de45781633f4ba83a14611d6157816346a5683514611cb55781634d23773014611c715781634e43603a14611b895781635c691b08146116975781635c975abb146116755781635fcbd2851461163157816361d027b3146116055781636398bf82146115cb5781636c9fa59e1461158757816375b238fc1461104c5781637d2fd64e146114dd5781638432e3a61461141c5781638456cb59146113a95781638d2326121461122857816391b96b631461025d57816391d14854146111e15781639a7844a6146111a45781639e4f8ab81461106e5781639eb87dec14611051578163a217fddf1461104c578163a5917baf14611008578163ae77c23714610fb3578163b99dfe1814610d8e578163bde0280f14610d52578163c1da6bbc14610c45578163c28399ef14610c28578163c45a015514610be4578163c4e71eaf14610b70578163c6e5d8f614610470578163ce9ddccc14610b38578163d03153aa14610b1b578163d547741f14610adb578163d7da9e4f14610abe578163da7b109d146109ea578163db006a7514610475578163deef537814610470578163df8ae236146103b6578163f0f44260146102e3578163f887ea401461029f578163f987626b14610262575063fcc18c231461025d57600080fd5b6121b9565b3461029c578060031936011261029c5760206040517f995c68a7874ab62e799137bc19b39d4cdd1c165240e636649fba7edfda9d16c88152f35b80fd5b3461029c578060031936011261029c576040517f00000000000000000000000000000000000000000000000000000000000000006001600160a01b03168152602090f35b3461029c57602036600319011261029c576102fc612129565b81805281602052604082203360005260205261031f60ff6040600020541661241f565b6001600160a01b0381811691821561037e5760028054610100600160a81b03198116600893841b610100600160a81b031617909155901c167f4ab5be82436d353e61ca18726e984e561f5c1cc7c6d38b29d2553c790434705a8380a380f35b60405162461bcd60e51b815260206004820152601060248201526f496e76616c696420747265617375727960801b6044820152606490fd5b3461029c5760208060031936011261046c577ff07234658490cc011f9f49fd5c1b020ffd25ca0e3df67ac88818648c16a269cd600435918380528381526040842033600052815261040e60ff6040600020541661241f565b8284526008815261042b60ff600260408720015460a81c166125e6565b8284526008815260408420600201805460ff60a01b19811660a091821c60ff9081161590921b60ff60a01b16178255905460a01c166040519015158152a280f35b5080fd5b612233565b3461029c5760208060031936011261046c5760043590610493612ae0565b61049b6125c8565b81156109b2576040516318160ddd60e01b81526001600160a01b037f00000000000000000000000000000000000000000000000000000000000000008116918381600481865afa9081156109a757869161097a575b5080156109465760405163e6a4390560e01b81527f000000000000000000000000000000000000000000000000000000000000000083166001600160a01b0381811660048401527f0000000000000000000000000000000000000000000000000000000000000000851690811660248401529186816044817f000000000000000000000000000000000000000000000000000000000000000089165afa801561085a5785918a9161090a575b50169283156108d8576040516370a0823160e01b81523060048201528781602481885afa9081156108cd578a9161089c575b5080156108655789916105e48a6105e99361267d565b61265d565b95803b1561046c57604051632770a7eb60e21b8152336004820152602481018a905291908290604490829084905af1801561085a57610841575b50879160e460409261065988887f0000000000000000000000000000000000000000000000000000000000000000168098612c65565b8461066660035442612b03565b9685519788958694635d5155ef60e11b8652600486015260248501528a60448501528260648501528260848501523360a485015260c48401525af192831561083457819282946107f8575b507f000000000000000000000000000000000000000000000000000000000000000016803b1561046c5781809160246040518094819363ddeae03360e01b83523360048401525af16107e0575b5050338652600984526040862060078101805490600182018092116107cc577f4896181ff8f4543cc00db9fe9b6fb7e6f032b7eb772c72ab1ec1b4d2e03b9369969594927f3934fc962ef79ea87f2b6d34fdfdb727537e44f786c7810133c7e23f19a1481494926008925501610775888254612b03565b9055338852600b855261078b8760408a2061259f565b338852600c855261079f4260408a2061259f565b60408051888152602081019590955284015260608301523391608090a26040519283523392a26001805580f35b634e487b7160e01b89526011600452602489fd5b6107e9906124ae565b6107f45785876106fe565b8580fd5b92509250506040813d60401161082c575b81610816604093836124dc565b810103126107f4578584825192015192886106b1565b3d9150610809565b50604051903d90823e3d90fd5b9160e498610851604093946124ae565b98509190610623565b6040513d8b823e3d90fd5b60405162461bcd60e51b815260048101899052600f60248201526e139bc81c99585b081314081a195b19608a1b6044820152606490fd5b90508781813d83116108c6575b6108b381836124dc565b810103126108c257518a6105ce565b8980fd5b503d6108a9565b6040513d8c823e3d90fd5b60405162461bcd60e51b815260048101889052600a6024820152692737902628103830b4b960b11b6044820152606490fd5b809250888092503d831161093f575b61092381836124dc565b8101031261093b576109358591612624565b8a61059c565b8880fd5b503d610919565b60405162461bcd60e51b815260048101859052600c60248201526b4e6f204c5020737570706c7960a01b6044820152606490fd5b90508381813d83116109a0575b61099181836124dc565b810103126107f45751866104f0565b503d610987565b6040513d88823e3d90fd5b6064906040519062461bcd60e51b825260048201526011602482015270125b9d985b1a5908131408185b5bdd5b9d607a1b6044820152fd5b3461029c57604036600319011261029c57600435602435828052602090838252604084203385528252610a2360ff60408620541661241f565b82845260088252610a4060ff600260408720015460a81c166125e6565b8015610a8a577fa1883cbb0491700bbb491dc908b557f640688276c8d7b9ec57f4bea05f20501491604091848652600882526001838720019181835493558351928352820152a280f35b60405162461bcd60e51b815260048101839052600c60248201526b496e76616c6964207261746560a01b6044820152606490fd5b3461029c578060031936011261029c576020600654604051908152f35b3461029c57604036600319011261029c57610b17600435610afa61210e565b9080845283602052610b126001604086200154612306565b6123aa565b5080f35b3461029c578060031936011261029c576020600554604051908152f35b3461029c57602036600319011261029c576020906040906001600160a01b03610b5f612129565b168152600b83522054604051908152f35b3461029c57602036600319011261029c57610bd2906001600160a01b03610b95612129565b168152600b602052610be0610bbe610bb8604080852094600c60205220936129a9565b926129a9565b6040519384936040855260408501906120da565b9083820360208501526120da565b0390f35b3461029c578060031936011261029c576040517f00000000000000000000000000000000000000000000000000000000000000006001600160a01b03168152602090f35b3461029c578060031936011261029c576020600354604051908152f35b3461029c57606036600319011261029c57610c5e612129565b6044356024356001600160a01b038083168303610d4e57610c7d612ae0565b610c856125c8565b8185526008602052610ca360ff600260408820015460a81c166125e6565b7fa8a7bc421f721cb936ea99efdad79237e6ee0b871a2a08cf648691f9584cdc77808652856020526040862033875260205260ff60408720541615610d305750831615610cfb57610cf49233612d8c565b6001805580f35b60405162461bcd60e51b815260206004820152600d60248201526c24b73b30b634b210313abcb2b960991b6044820152606490fd5b6044906040519063e2517d3f60e01b82523360048301526024820152fd5b8480fd5b3461029c578060031936011261029c5760206040517f000000000000000000000000000000000000000000000000000000000000000015158152f35b3461029c57602036600319011261029c576004356060610100604051610db38161247c565b84815284602082015284604082015284838201528460808201528460a08201528460c08201528460e082015201528082526008602052610dff60ff600260408520015460a81c166125e6565b81526008602052604081209060405190610e188261247c565b825482526001830154602083015260ff60028401546001600160401b03811660408501526001600160401b038160401c16606085015261ffff8160801c16608085015261ffff8160901c1660a0850152818160a01c16151560c085015260a81c16151560e083015260405190600381940190815491610e9683612518565b8085529260018116908115610f8b5750600114610f4f575b505050610ec0816101009403826124dc565b82820152610be06040519283926020845280516020850152602081015160408501526001600160401b0360408201511660608501526001600160401b03606082015116608085015261ffff60808201511660a085015261ffff60a08201511660c085015260c0810151151560e085015260e08101511515828501520151610120808401526101408301906121f3565b908092955052602081205b848210610f75575081016020019250610ec081610100610eae565b6001816020925483858701015201910190610f5a565b610100975085935060209250610ec094915060ff191682840152151560051b82010194610eae565b3461029c57604036600319011261029c57610cf4600435610fd261210e565b90610fdb612ae0565b610fe36125c8565b808452600860205261100160ff600260408720015460a81c166125e6565b3333612d8c565b3461029c578060031936011261029c576040517f00000000000000000000000000000000000000000000000000000000000000006001600160a01b03168152602090f35b61219d565b3461029c578060031936011261029c576020600754604051908152f35b3461029c578060031936011261029c5760075481805b8281106111575750611095836129fa565b926110a360405194856124dc565b8084526110b2601f19916129fa565b0191602092368486013781825b8281106110d95760405185815280610be0818801896120da565b6110e281612552565b9054600391821b1c85526008865260ff600260408720015460a01c16611112575b5061110d90612457565b6110bf565b61111b82612552565b9054911b1c61112983612457565b9287518110156111435760051b870186015261110d611103565b634e487b7160e01b86526032600452602486fd5b61116081612552565b90549060031b1c8252600860205260ff600260408420015460a01c1661118f575b61118a90612457565b611084565b9261119c61118a91612457565b939050611181565b3461029c578060031936011261029c57602060405160ff7f0000000000000000000000000000000000000000000000000000000000000000168152f35b3461029c57604036600319011261029c5760ff604060209261120161210e565b60043582528185528282206001600160a01b03909116825284522054604051911615158152f35b3461029c578060031936011261029c57808052602081815260408220338352815261125960ff60408420541661241f565b6001600160a01b037f0000000000000000000000000000000000000000000000000000000000000000811691611313817f000000000000000000000000000000000000000000000000000000000000000084166112b68682612b10565b847f0000000000000000000000000000000000000000000000000000000000000000166112e38782612b10565b60405163e6a4390560e01b81526001600160a01b0391821660048201529116602482015291829081906044820190565b0381867f0000000000000000000000000000000000000000000000000000000000000000165afa91821561139e578592611364575b5050169081611355578280f35b61135e91612b10565b81808280f35b90809250813d8311611397575b61137b81836124dc565b810103126113935761138c90612624565b8480611348565b8380fd5b503d611371565b6040513d87823e3d90fd5b3461029c578060031936011261029c5780805280602052604081203382526020526113da60ff60408320541661241f565b6113e26125c8565b600160ff1960025416176002557f62e78cea01bee320cd4e420270b5ea74000d11b0c9f74754ebdbfc544b05a2586020604051338152a180f35b3461029c57602036600319011261029c57600435818052816020526040822033835260205261145160ff60408420541661241f565b603c811015806114d1575b1561149b5760407fd377b1dc1f911f261ac96273f0011b33578119b6f87a37a787fc6fa3ba066de491600354908060035582519182526020820152a180f35b60405162461bcd60e51b815260206004820152600e60248201526d496e76616c69642077696e646f7760901b6044820152606490fd5b50610e1081111561145c565b3461029c57602036600319011261029c57600435818052816020526040822033835260205261151260ff60408420541661241f565b80156115525760407f3f0a47b6cb75d94633850c9a242c4cdb5876a35fc86c211a1f4f633cc37ba8ed91600454908060045582519182526020820152a180f35b60405162461bcd60e51b815260206004820152600d60248201526c496e76616c696420707269636560981b6044820152606490fd5b3461029c578060031936011261029c576040517f00000000000000000000000000000000000000000000000000000000000000006001600160a01b03168152602090f35b3461029c578060031936011261029c5760206040517f00000000000000000000000000000000000000000000000000000000000000008152f35b3461029c578060031936011261029c5760025460405160089190911c6001600160a01b03168152602090f35b3461029c578060031936011261029c576040517f00000000000000000000000000000000000000000000000000000000000000006001600160a01b03168152602090f35b3461029c578060031936011261029c57602060ff600254166040519015158152f35b3461029c5760e036600319011261029c576001600160401b036004351161029c5736602360043501121561029c576001600160401b03600435600401351161029c573660246004356004013560043501011161029c5761ffff90606435828116810361046c57608435906001600160401b0382168203611b855760a435936001600160401b03851685036113935760c4358181168103610d4e57848052846020526040852033865260205261175260ff60408720541661241f565b61175a6125c8565b60043560040135151580611b7a575b80611b6f575b80611b61575b80611b53575b80611b41575b15611b0b576006549361179385612457565b6006556040516117a28161247c565b602435815260443560208201526001600160401b03821660408201526001600160401b0388166060820152838516608082015283831660a0820152600160c0820152600160e08201526117fa600435600401356124fd565b61180760405191826124dc565b60048035908101358083529060240160208301378760206004356004013583010152610100820190815286885260086020526040882091805183556020810151600184015560e060028401916001600160401b036040820151168354906fffffffffffffffff0000000000000000606084015160401b1661ffff60801b608085015160801b169161ffff60901b60a086015160901b16936bffffffffffffffffffffffff60a01b161717171783556118dd60c08201511515849081549060ff60a01b90151560a01b169060ff60a01b1916179055565b0151815460ff60a81b191690151560a81b60ff60a81b16179055518051906001600160401b038211611af7576119166003840154612518565b601f8111611ab3575b50602090601f8311600114611a4a57600392918a9183611a3f575b50508160011b9160001990841b1c1916179101555b600754600160401b811015611a2b57966001600160401b03809261199c8a60017f38a9b0861af6eda42482a0e46839a625d911229840556475b544bc0bb1c5a66d9a9b9c01600755612552565b81549060031b908b821b91600019901b1916179055856040519760e089526004356004013560e08a0152600435600401356024600435016101008b01378b610100600435600401358b01015260243560208a015260443560408a01521660608801521660808601521660a08401521660c082015261010081601f19601f6004356004013501168101030190a280f35b634e487b7160e01b87526041600452602487fd5b015190508b8061193a565b600384018a5260208a209190601f1984168b5b818110611a9b57509160019391856003969410611a83575b505050811b0191015561194f565b015160001983861b60f8161c191690558b8080611a75565b92936020600181928786015181550195019301611a5d565b600384018a5260208a20601f840160051c810160208510611af0575b601f830160051c82018110611ae557505061191f565b8b8155600101611acf565b5080611acf565b634e487b7160e01b89526041600452602489fd5b60405162461bcd60e51b815260206004820152600e60248201526d496e76616c696420706172616d7360901b6044820152606490fd5b506001600160401b0386161515611781565b506103e8828216111561177b565b506127108284161115611775565b50604435151561176f565b506024351515611769565b8280fd5b3461029c57602036600319011261029c57604061012091611ba8612129565b611bb0612a11565b506001600160a01b03168152600960205220604051611bce8161247c565b8154918282526001810154906020830191825260028101546040840190815260038201546060850190815260048301546080860190815260058401549160a0870192835260068501549360c08801948552600860078701549660e08a01978852015496610100809901978852604051998a525160208a01525160408901525160608801525160808701525160a08601525160c08501525160e08401525190820152f35b3461029c578060031936011261029c576040517f00000000000000000000000000000000000000000000000000000000000000006001600160a01b03168152602090f35b3461029c57604036600319011261029c57611cce612129565b9060243591611cdb612a11565b506001600160a01b0316808252600a6020526040822054909190831015611d2c5761012092604082611d1d94611d179452600a60205220612ac4565b50612a56565b611d2a604051809261213f565bf35b60405162461bcd60e51b815260206004820152600d60248201526c092dcecc2d8d2c840d2dcc8caf609b1b6044820152606490fd5b3461029c578060031936011261029c578080528060205260408120338252602052611d9260ff60408320541661241f565b60025460ff811615611dd25760ff19166002557f5db9ee0a495bf2e6ff9c91a7834c1ba4fdd244a5e8aa4e537bd38aeae4b073aa6020604051338152a180f35b604051638dfc202b60e01b8152600490fd5b3461029c57604036600319011261029c57611dfd61210e565b336001600160a01b03821603611e1957610b17906004356123aa565b60405163334bd91960e11b8152600490fd5b3461029c578060031936011261029c576040517f00000000000000000000000000000000000000000000000000000000000000006001600160a01b03168152602090f35b3461029c57604036600319011261029c57610b17600435611e8e61210e565b9080845283602052611ea66001604086200154612306565b61232c565b3461029c578060031936011261029c57604051809182600754808452602080940190600784527fa66cc928b5edb82af9bd49922954155ab7b0942694bea4ce44661d9a8736c688935b85828210611f1f57505050611f0b925003836124dc565b610be06040519282849384528301906120da565b8554845260019586019588955093019201611ef4565b3461029c57602036600319011261029c57600160406020926004358152808452200154604051908152f35b3461029c578060031936011261029c576040611f7a612690565b825191825215156020820152f35b3461029c578060031936011261029c5760206040517fa8a7bc421f721cb936ea99efdad79237e6ee0b871a2a08cf648691f9584cdc778152f35b3461029c578060031936011261029c576020600454604051908152f35b3461029c57602036600319011261029c57600435818052816020526040822033835260205261201460ff60408420541661241f565b6107d081116120575760407fddd31550b26e9ef8ade466958be83ff8a014d9b4f36d546b61a6847a4530657591600554908060055582519182526020820152a180f35b60405162461bcd60e51b81526020600482015260086024820152670a8dede40d0d2ced60c31b6044820152606490fd5b3461046c57602036600319011261046c5760043563ffffffff60e01b8116809103611b855760209250637965db0b60e01b81149081156120c9575b5015158152f35b6301ffc9a760e01b149050836120c2565b90815180825260208080930193019160005b8281106120fa575050505090565b8351855293810193928101926001016120ec565b602435906001600160a01b038216820361212457565b600080fd5b600435906001600160a01b038216820361212457565b805182526020810151602083015260408101516040830152606081015160608301526080810151608083015260a081015160a083015260018060a01b0360c08201511660c083015260e081015160e083015261010080910151910152565b3461212457600036600319011261212457602060405160008152f35b34612124576020366003190112612124576001600160a01b036121da612129565b16600052600a6020526020604060002054604051908152f35b919082519283825260005b84811061221f575050826000602080949584010152601f8019910116010190565b6020818301810151848301820152016121fe565b3461212457602080600319360112612124576001600160a01b03612255612129565b16906000918252600a815260408220805461226f816129fa565b9061227d60405192836124dc565b8082528382018093865284862086915b8383106122df57505050506040519280840191818552518092526040840192945b8281106122bb5784840385f35b90919282610120826122d06001948a5161213f565b019601910194929190946122ae565b6009876001926122f3859b9a98999b612a56565b815201920192019190969493959661228d565b80600052600060205260406000203360005260205260ff6040600020541615610d305750565b9060009180835282602052604083209160018060a01b03169182845260205260ff604084205416156000146123a557808352826020526040832082845260205260408320600160ff198254161790557f2f8788117e7eff1d82e926ec794901d17c78024a50270940304540a733656f0d339380a4600190565b505090565b9060009180835282602052604083209160018060a01b03169182845260205260ff6040842054166000146123a55780835282602052604083208284526020526040832060ff1981541690557ff6391f5c32d9c69d2a47ea670b442974b53935d1edc7fd64eb21e047a839171b339380a4600190565b1561242657565b60405162461bcd60e51b81526020600482015260096024820152682737ba1030b236b4b760b91b6044820152606490fd5b60001981146124665760010190565b634e487b7160e01b600052601160045260246000fd5b61012081019081106001600160401b0382111761249857604052565b634e487b7160e01b600052604160045260246000fd5b6001600160401b03811161249857604052565b608081019081106001600160401b0382111761249857604052565b90601f801991011681019081106001600160401b0382111761249857604052565b6001600160401b03811161249857601f01601f191660200190565b90600182811c92168015612548575b602083101461253257565b634e487b7160e01b600052602260045260246000fd5b91607f1691612527565b6007548110156125895760076000527fa66cc928b5edb82af9bd49922954155ab7b0942694bea4ce44661d9a8736c6880190600090565b634e487b7160e01b600052603260045260246000fd5b805490600160401b82101561249857600182018082558210156125895760005260206000200155565b60ff600254166125d457565b60405163d93c066560e01b8152600490fd5b156125ed57565b60405162461bcd60e51b815260206004820152600f60248201526e496e76616c6964207061636b61676560881b6044820152606490fd5b51906001600160a01b038216820361212457565b51906001600160701b038216820361212457565b60ff16604d811161246657600a0a90565b8115612667570490565b634e487b7160e01b600052601260045260246000fd5b8181029291811591840414171561246657565b6040805163e6a4390560e01b81526001600160a01b037f000000000000000000000000000000000000000000000000000000000000000081166004808401919091527f00000000000000000000000000000000000000000000000000000000000000008216602484018190529094936020939092919084816044817f000000000000000000000000000000000000000000000000000000000000000087165afa90811561299e57908391600091612967575b501691821561295a578351630240bc6b60e21b8152936060858981875afa95861561294f5760009586976128f5575b506001600160701b0380961694851580156128eb575b6128db57908083928b945194858092630dfe168160e01b82525afa9182156128d1575060009161289d575b5090501614600014612896579116905b7f000000000000000000000000000000000000000000000000000000000000000060ff1660128110156128625760120360ff811161284d579061280761280d9261264c565b9061267d565b670de0b6b3a7640000908181029181830414901517156128385761283292935061265d565b90600190565b601184634e487b7160e01b6000525260246000fd5b601185634e487b7160e01b6000525260246000fd5b60128111612871575b5061280d565b6011190160ff811161284d579061288a6128909261264c565b9061265d565b3861286b565b91166127c2565b82813d83116128ca575b6128b181836124dc565b8101031261029c57506128c390612624565b80386127b2565b503d6128a7565b513d6000823e3d90fd5b5050505050505050905490600090565b5086881615612787565b959096506060863d8211612947575b81612911606093836124dc565b8101031261029c5761292286612638565b908261292f898901612638565b97015163ffffffff81160361029c5750949538612771565b3d9150612904565b50513d6000823e3d90fd5b5050505050905490600090565b91508582813d8311612997575b61297e81836124dc565b8101031261029c57506129918391612624565b38612742565b503d612974565b84513d6000823e3d90fd5b9060405191828154918282526020928383019160005283600020936000905b8282106129e0575050506129de925003836124dc565b565b8554845260019586019588955093810193909101906129c8565b6001600160401b0381116124985760051b60200190565b60405190612a1e8261247c565b816101006000918281528260208201528260408201528260608201528260808201528260a08201528260c08201528260e08201520152565b90604051612a638161247c565b8254815260018301546020820152600283015460408201526003830154606082015260048301546080820152600583015460a082015260068301546001600160a01b031660c0820152600783015460e0820152600890920154610100830152565b8054821015612589576000526009602060002091020190600090565b600260015414612af1576002600155565b604051633ee5aeb560e01b8152600490fd5b9190820180921161246657565b604051636eb1769f60e11b81523060048201526001600160a01b0383811660248301528281169291906020908183604481885afa928315612c5957600093612c2a575b5060001983018093116124665760405163095ea7b360e01b8382018181526001600160a01b03891660248401526044830195909552909590938390600090612ba889606481015b03601f1981018b528a6124dc565b88519082895af1903d6000519083612c0b575b50505015612bcc575b505050505050565b612c0095612bfb93604051938401521660248201526000604482015260448152612bf5816124c1565b82612d23565b612d23565b388080808080612bc4565b91925090612c2057503b15155b388080612bbb565b6001915014612c18565b90928282813d8311612c52575b612c4181836124dc565b8101031261029c5750519138612b53565b503d612c37565b6040513d6000823e3d90fd5b604051636eb1769f60e11b81523060048201526001600160a01b03838116602483015292938284169391602091908281604481895afa908115612c5957600091612cf4575b5090612cb591612b03565b60405163095ea7b360e01b8382018181526001600160a01b0389166024840152604483019390935290959093918390600090612ba88960648101612b9a565b908382813d8311612d1c575b612d0a81836124dc565b8101031261029c575051612cb5612caa565b503d612d00565b906000602091828151910182855af115612c59576000513d612d7657506001600160a01b0381163b155b612d545750565b604051635274afe760e01b81526001600160a01b039091166004820152602490fd5b60011415612d4d565b9190820391821161246657565b9092600083815260086020526040812092600360405194612dac8661247c565b805486526001810154602087015260ff60028201546001600160401b03811660408901526001600160401b038160401c16606089015261ffff8160801c16608089015261ffff8160901c1660a0890152818160a01c16151560c089015260a81c16151560e087015201604051908184825492612e2784612518565b8084529360018116908115613a3f57506001146139fe575b50612e4c925003826124dc565b61010085015260c0840151156139c4576001600160a01b0383811690871614613987578351612ea69130907f00000000000000000000000000000000000000000000000000000000000000006001600160a01b0316613a9d565b612eb08351613af5565b7f00000000000000000000000000000000000000000000000000000000000000001561395857612f007f00000000000000000000000000000000000000000000000000000000000000008261267d565b80670de0b6b3a7640000810204670de0b6b3a76400001481151715613944576020850151612f3791670de0b6b3a76400000261265d565b9361ffff60808201511661ffff8161271003116131c357612710612f6461ffff612f6c938303168561267d565b048093612d7f565b90612710612f8261ffff6080840151168861267d565b0490612f8e8288612d7f565b92826137a0575b8061375c575b508493806134d8575b508361344d575b846001600160a01b03871615158061343c575b6131d7575b81516001600160a01b038b1682526009602052604082208054612fe7908390612b03565b815560018101612ff88b8254612b03565b905560028101613009868254612b03565b90556003810161301a878254612b03565b90556004810161302b888254612b03565b905560068101546001810181116131c357600101600691909101556001600160a01b038b168252600a60205260408083209051916130688361247c565b8b835260208301528960408301528460608301528560808301528660a083015260018060a01b03891660c08301528760e083015242610100830152805490600160401b8210156131af57906130c291600182018155612ac4565b92909261319b5750917f5a77e79107887ebcf23f054ef45c1e6ef75a6215cf598323e188d01a6e5da7b39795939160086101008560c09a98965184556020810151600185015560408101516002850155606081015160038501556080810151600485015560a081015160058501556006840160018060a01b038c830151166bffffffffffffffffffffffff60a01b82541617905560e0810151600785015501519101555197604051988952602089015260408801526060870152608086015260a085015260018060a01b03169460018060a01b031692a4565b634e487b7160e01b81526004819052602490fd5b634e487b7160e01b84526041600452602484fd5b634e487b7160e01b84526011600452602484fd5b94506127106131ee61ffff60a0840151168961267d565b049460018060a01b0360025460081c166040516370a0823160e01b815281600482015260208160248160018060a01b037f0000000000000000000000000000000000000000000000000000000000000000165afa9081156134315783916133ff575b50604051636eb1769f60e11b81526001600160a01b038316600482015230602482015290602082806044810103817f00000000000000000000000000000000000000000000000000000000000000006001600160a01b03165afa9182156133f457918a918a9386926133ba575b50838091101591826133af575b50501561336c57613304927f00000000000000000000000000000000000000000000000000000000000000006001600160a01b0316613a9d565b6001600160a01b03871681526009602052604081206005018054613329908890612b03565b90556040518681526001600160a01b038b811691908916907f0a721ab4682ceb61c7e4d264ef879fc419a6d764b136e7d96ef54b2053c7567390602090a3612fc3565b50506040518281526001600160a01b038c811692508916907f0a721ab4682ceb61c7e4d264ef879fc419a6d764b136e7d96ef54b2053c7567390602090a3612fc3565b1015905082386132ca565b92509250506020813d6020116133ec575b816133d8602093836124dc565b81010312612124575188918a9190836132bd565b3d91506133cb565b6040513d86823e3d90fd5b90506020813d602011613429575b8161341a602093836124dc565b81010312612124575138613250565b3d915061340d565b6040513d85823e3d90fd5b5061ffff60a0830151161515612fbe565b7f00000000000000000000000000000000000000000000000000000000000000006001600160a01b0316803b156107f4576040516340c10f1960e01b81526001600160a01b038b166004820152602481018690529086908290604490829084905af180156109a7579086916134c4575b5050612fab565b6134cd906124ae565b610d4e5784386134bd565b93506134e2612690565b9094901561375457845b801561371e577f0000000000000000000000000000000000000000000000000000000000000000156136ef576135427f00000000000000000000000000000000000000000000000000000000000000008361267d565b670de0b6b3a7640000810290808204670de0b6b3a764000014901517156136db579061356d9161265d565b907f00000000000000000000000000000000000000000000000000000000000000006001600160a01b03163b156136cc576040516340c10f1960e01b8152306004820152602481018390528781604481836001600160a01b037f0000000000000000000000000000000000000000000000000000000000000000165af180156136d0578c8985938e936136b0575b5050917fd7de183105059c806cc0d3d76a2cf588f90d707037ed57e4ec94cbd9da28c6b39361362c92606094613d0a565b966004548082116000146136a0576136448183612d7f565b905b60405192835260208301526040820152a184612fa45760025461369a919060081c6001600160a01b03908116907f000000000000000000000000000000000000000000000000000000000000000016613a61565b38612fa4565b6136aa8282612d7f565b90613646565b915092506136be91506124ae565b6136cc57818a8c89386135fb565b8680fd5b6040513d8a823e3d90fd5b634e487b7160e01b88526011600452602488fd5b6137197f00000000000000000000000000000000000000000000000000000000000000008361265d565b613542565b60405162461bcd60e51b815260206004820152600e60248201526d4e6f2076616c696420707269636560901b6044820152606490fd5b6004546134ec565b60025461379a919060081c6001600160a01b03908116907f000000000000000000000000000000000000000000000000000000000000000016613a61565b38612f9b565b7f00000000000000000000000000000000000000000000000000000000000000006001600160a01b03163b156107f4576040516340c10f1960e01b81527f00000000000000000000000000000000000000000000000000000000000000006001600160a01b0316600482015260248101849052868180604481010381837f00000000000000000000000000000000000000000000000000000000000000006001600160a01b03165af1801561392257613931575b50604082015160608301516001600160401b0391821691167f00000000000000000000000000000000000000000000000000000000000000006001600160a01b03163b1561392d576040519163bf49ec4f60e01b835260018060a01b038d1660048401528560248401526044830152606482015286816084818360018060a01b037f0000000000000000000000000000000000000000000000000000000000000000165af180156139225790879161390e575b5050612f95565b613917906124ae565b6107f4578538613907565b6040513d89823e3d90fd5b8780fd5b61393d909691966124ae565b9438613854565b634e487b7160e01b83526011600452602483fd5b6139827f00000000000000000000000000000000000000000000000000000000000000008261265d565b612f00565b60405162461bcd60e51b815260206004820152601560248201527421b0b73737ba103932b332b9103cb7bab939b2b63360591b6044820152606490fd5b60405162461bcd60e51b81526020600482015260126024820152715061636b616765206e6f742061637469766560701b6044820152606490fd5b86525060208520909185915b818310613a23575050906020612e4c9282010138612e3f565b6020919350806001915483858801015201910190918392613a0a565b905060209250612e4c94915060ff191682840152151560051b82010138612e3f565b60405163a9059cbb60e01b60208201526001600160a01b039290921660248301526044808301939093529181526129de91612bfb6064836124dc565b6040516323b872dd60e01b60208201526001600160a01b03928316602482015292909116604483015260648083019390935291815260a08101918183106001600160401b03841117612498576129de92604052612d23565b604080516367403b6160e01b81527f995c68a7874ab62e799137bc19b39d4cdd1c165240e636649fba7edfda9d16c8600482018190526001600160a01b0383836024817f000000000000000000000000000000000000000000000000000000000000000085165afa92831561299e576000908194613c50575b5061ffff1661271090818111613c1f5780151580613c14575b613b95575b50505050505090565b613b9f908761267d565b049384613bac5780613b8c565b6020827f9ad5f576ad2dc5abd88aee00524464d5aafcd7f0a8d0141fd6a2b7cf76130e0892613c048888613c119b9998977f000000000000000000000000000000000000000000000000000000000000000016613a61565b51948786521693a3612d7f565b90565b508285161515613b87565b855162461bcd60e51b815260206004820152600a602482015269546178203e203130302560b01b6044820152606490fd5b9093508481813d8311613c95575b613c6881836124dc565b810103126113935780519361ffff8516850361029c5750613c8e602061ffff9201612624565b9390613b6e565b503d613c5e565b600060443d10613c1157604051600319913d83016004833e81516001600160401b03918282113d602484011117613cf957818401948551938411613d01573d85010160208487010111613cf95750613c11929101602001906124dc565b949350505050565b50949350505050565b91909392600554612710908103918183116124665781613d577fc8af3886655c52b7ebbbcfc08757e97b8bbd122d4ef3e5e6fd92524497c4360f93613d4f868861267d565b04948361267d565b04928760405160018060a01b038816948180613d8e868a8c8a8c989094939260609260808301968352602083015260408201520152565b0390a3604051636eb1769f60e11b8082523060048301527f00000000000000000000000000000000000000000000000000000000000000006001600160a01b0316602483015290602081806044810103817f00000000000000000000000000000000000000000000000000000000000000006001600160a01b03165afa908115612c59576000916142a4575b5086811061423e575b506040519081523060048201527f00000000000000000000000000000000000000000000000000000000000000006001600160a01b03166024820152602081806044810103817f00000000000000000000000000000000000000000000000000000000000000006001600160a01b03165afa908115612c595760009161420c575b508281106141a6575b50613eba60035442612b03565b60405162e8e33760e81b81526001600160a01b037f0000000000000000000000000000000000000000000000000000000000000000811660048301527f0000000000000000000000000000000000000000000000000000000000000000811660248301526044820185905260648201889052608482019690965260a48101929092523060c483015260e4820152606093849082906101049082906000907f0000000000000000000000000000000000000000000000000000000000000000165af1926000918483918496614165575b50614077575050505050600060033d11614069575b6308c379a014614049575b3d1561404357503d93613fbb856124fd565b94613fc960405196876124dc565b85523d6000602087013e5b84516000959015613ff057613feb949550926142d6565b600090565b50604051604081018181106001600160401b03821117611a2b57613feb959650604052601781527f556e6b6e6f776e206c6f772d6c6576656c206572726f720000000000000000006020820152926142d6565b93613fd4565b614051613c9c565b8061405c5750613fa9565b92613feb949591506142d6565b600481803e5160e01c613f9e565b929650929697939094871561412a577fc7453e3ef562c31977302710e5ff58ae67ad8fa521dcdd8c76f877c4c0d91368928660a093604051938a855260208501528a60408501528301526080820152a360009181811115614123576140dc9250612d7f565b806140e5575090565b600254613c11919060081c6001600160a01b03908116907f000000000000000000000000000000000000000000000000000000000000000016613a61565b50506140dc565b60405162461bcd60e51b81526020600482015260136024820152724e6f206c697175696469747920746f6b656e7360681b6044820152606490fd5b8780929750819593503d831161419f575b61418081836124dc565b8101031261029c57508151604060208401519301519092909438613f89565b503d614176565b6141b36142069184612d7f565b6001600160a01b037f00000000000000000000000000000000000000000000000000000000000000008116907f000000000000000000000000000000000000000000000000000000000000000016612c65565b38613ead565b906020823d602011614236575b81614226602093836124dc565b8101031261029c57505138613ea4565b3d9150614219565b61424b61429e9188612d7f565b6001600160a01b037f00000000000000000000000000000000000000000000000000000000000000008116907f000000000000000000000000000000000000000000000000000000000000000016612c65565b38613e23565b906020823d6020116142ce575b816142be602093836124dc565b8101031261029c57505138613e1a565b3d91506142b1565b7f637414b7b370a8973bc89032447f4c07ad3048b83ce07b32e928d92ff3edaf5e91939261435360018060a01b03614338838260025460081c16837f000000000000000000000000000000000000000000000000000000000000000016613a61565b604051938493845260406020850152169460408301906121f3565b0390a356fea26469706673582212205dffc9ae0374e96353455ca7c94321810a925d1db1baf882e9f8a0a7bf8d8d1a64736f6c634300081400332f8788117e7eff1d82e926ec794901d17c78024a50270940304540a733656f0d","opcodes":"PUSH2 0x1C0 PUSH1 0x40 SWAP1 DUP1 DUP3 MSTORE CALLVALUE PUSH3 0x539 JUMPI DUP1 PUSH3 0x4A86 DUP1 CODESIZE SUB DUP1 SWAP2 PUSH3 0x24 DUP3 DUP6 PUSH3 0x53E JUMP JUMPDEST DUP4 CODECOPY PUSH2 0x140 SWAP2 DUP3 SWAP2 DUP2 ADD SUB SLT PUSH3 0x539 JUMPI PUSH3 0x40 DUP3 PUSH3 0x578 JUMP JUMPDEST SWAP1 PUSH1 0x20 PUSH3 0x50 DUP2 DUP6 ADD PUSH3 0x578 JUMP JUMPDEST SWAP2 PUSH3 0x5E DUP7 DUP7 ADD PUSH3 0x578 JUMP JUMPDEST SWAP6 PUSH3 0x6D PUSH1 0x60 DUP8 ADD PUSH3 0x578 JUMP JUMPDEST SWAP4 PUSH3 0x7C PUSH1 0x80 DUP9 ADD PUSH3 0x578 JUMP JUMPDEST SWAP8 PUSH3 0x8B PUSH1 0xA0 DUP10 ADD PUSH3 0x578 JUMP JUMPDEST SWAP7 PUSH3 0x9A PUSH1 0xC0 DUP11 ADD PUSH3 0x578 JUMP JUMPDEST SWAP8 PUSH3 0xA9 PUSH1 0xE0 DUP12 ADD PUSH3 0x578 JUMP JUMPDEST SWAP1 PUSH2 0x100 SWAP12 PUSH3 0xBB DUP14 DUP14 ADD PUSH3 0x578 JUMP JUMPDEST PUSH2 0x120 SWAP13 DUP14 ADD MLOAD PUSH1 0x1 DUP1 SSTORE PUSH2 0x12C PUSH1 0x3 SSTORE PUSH2 0x1F4 PUSH1 0x5 SSTORE SWAP1 SWAP11 PUSH1 0x1 PUSH1 0x1 PUSH1 0xA0 SHL SUB SWAP6 DUP7 AND SWAP8 SWAP2 SWAP7 SWAP1 SWAP2 DUP9 ISZERO ISZERO DUP8 DUP16 DUP3 PUSH3 0x52C JUMPI JUMPDEST DUP3 PUSH3 0x51F JUMPI JUMPDEST DUP3 PUSH3 0x512 JUMPI JUMPDEST DUP3 PUSH3 0x505 JUMPI JUMPDEST DUP3 PUSH3 0x4F8 JUMPI JUMPDEST DUP3 PUSH3 0x4EB JUMPI JUMPDEST POP POP DUP1 PUSH3 0x4DF JUMPI JUMPDEST DUP1 PUSH3 0x4D3 JUMPI JUMPDEST ISZERO PUSH3 0x4A0 JUMPI DUP8 ISZERO PUSH3 0x45C JUMPI PUSH1 0x80 DUP10 SWAP1 MSTORE DUP7 AND PUSH1 0xA0 MSTORE DUP6 AND PUSH1 0xC0 MSTORE DUP5 AND PUSH1 0xE0 MSTORE DUP4 AND DUP13 MSTORE DUP3 AND DUP11 MSTORE AND DUP5 MSTORE PUSH1 0x2 DUP1 SLOAD PUSH2 0x100 PUSH1 0x1 PUSH1 0xA8 SHL SUB NOT AND PUSH1 0x8 DUP10 SWAP1 SHL PUSH2 0x100 PUSH1 0x1 PUSH1 0xA8 SHL SUB AND OR SWAP1 SSTORE PUSH1 0x4 SWAP1 DUP2 SSTORE DUP3 MLOAD PUSH4 0x313CE567 PUSH1 0xE0 SHL DUP2 MSTORE SWAP2 DUP6 SWAP2 DUP4 SWAP2 DUP3 SWAP1 GAS STATICCALL SWAP4 DUP5 ISZERO PUSH3 0x451 JUMPI PUSH1 0x0 SWAP5 PUSH3 0x408 JUMPI JUMPDEST POP POP PUSH1 0xFF PUSH2 0x160 SWAP4 DUP1 DUP6 MSTORE AND SWAP5 PUSH1 0x0 PUSH1 0x12 DUP8 EQ PUSH1 0x0 EQ PUSH3 0x396 JUMPI POP PUSH3 0x1E1 SWAP1 PUSH3 0x1DA PUSH1 0x1 SWAP7 JUMPDEST PUSH2 0x180 SWAP8 DUP9 MSTORE PUSH1 0x12 PUSH2 0x1A0 SWAP10 GT ISZERO DUP10 MSTORE PUSH3 0x5B5 JUMP JUMPDEST POP PUSH3 0x635 JUMP JUMPDEST POP MLOAD SWAP5 PUSH2 0x438E SWAP7 DUP8 PUSH3 0x6D8 DUP9 CODECOPY PUSH1 0x80 MLOAD DUP8 DUP2 DUP2 PUSH2 0x539 ADD MSTORE DUP2 DUP2 PUSH2 0x128B ADD MSTORE DUP2 DUP2 PUSH2 0x1E40 ADD MSTORE DUP2 DUP2 PUSH2 0x26D4 ADD MSTORE DUP2 DUP2 PUSH2 0x2E79 ADD MSTORE DUP2 DUP2 PUSH2 0x3775 ADD MSTORE DUP2 DUP2 PUSH2 0x3BDF ADD MSTORE DUP2 DUP2 PUSH2 0x3DE1 ADD MSTORE DUP2 DUP2 PUSH2 0x3EF8 ADD MSTORE DUP2 DUP2 PUSH2 0x4279 ADD MSTORE PUSH2 0x4313 ADD MSTORE PUSH1 0xA0 MLOAD DUP8 DUP2 DUP2 PUSH2 0x506 ADD MSTORE DUP2 DUP2 PUSH2 0x12B9 ADD MSTORE DUP2 DUP2 PUSH2 0x159C ADD MSTORE DUP2 DUP2 PUSH2 0x26A8 ADD MSTORE DUP2 DUP2 PUSH2 0x3220 ADD MSTORE DUP2 DUP2 PUSH2 0x3280 ADD MSTORE DUP2 DUP2 PUSH2 0x32D7 ADD MSTORE DUP2 DUP2 PUSH2 0x3570 ADD MSTORE DUP2 DUP2 PUSH2 0x35C8 ADD MSTORE DUP2 DUP2 PUSH2 0x3675 ADD MSTORE DUP2 DUP2 PUSH2 0x37A2 ADD MSTORE DUP2 DUP2 PUSH2 0x381F ADD MSTORE DUP2 DUP2 PUSH2 0x3E6B ADD MSTORE DUP2 DUP2 PUSH2 0x3ED0 ADD MSTORE DUP2 DUP2 PUSH2 0x40FE ADD MSTORE PUSH2 0x41E1 ADD MSTORE PUSH1 0xC0 MLOAD DUP8 DUP2 DUP2 PUSH2 0x4B8 ADD MSTORE DUP2 DUP2 PUSH2 0x1646 ADD MSTORE PUSH2 0x344F ADD MSTORE PUSH1 0xE0 MLOAD DUP8 DUP2 DUP2 PUSH2 0x6B4 ADD MSTORE DUP2 DUP2 PUSH2 0x101D ADD MSTORE DUP2 DUP2 PUSH2 0x37DF ADD MSTORE DUP2 DUP2 PUSH2 0x386E ADD MSTORE PUSH2 0x38D7 ADD MSTORE MLOAD DUP7 DUP2 DUP2 PUSH2 0x2B4 ADD MSTORE DUP2 DUP2 PUSH2 0x632 ADD MSTORE DUP2 DUP2 PUSH2 0x1263 ADD MSTORE DUP2 DUP2 PUSH2 0x3DA7 ADD MSTORE DUP2 DUP2 PUSH2 0x3E32 ADD MSTORE DUP2 DUP2 PUSH2 0x3F59 ADD MSTORE DUP2 DUP2 PUSH2 0x41BD ADD MSTORE PUSH2 0x4255 ADD MSTORE MLOAD DUP6 DUP2 DUP2 PUSH2 0x56A ADD MSTORE DUP2 DUP2 PUSH2 0xBF9 ADD MSTORE DUP2 DUP2 PUSH2 0x1318 ADD MSTORE PUSH2 0x270D ADD MSTORE MLOAD DUP5 DUP2 DUP2 PUSH2 0x1C86 ADD MSTORE PUSH2 0x3B3A ADD MSTORE MLOAD DUP4 DUP2 DUP2 PUSH2 0x11BD ADD MSTORE PUSH2 0x27C4 ADD MSTORE MLOAD DUP3 DUP2 DUP2 PUSH2 0x15E2 ADD MSTORE DUP2 DUP2 PUSH2 0x2EDB ADD MSTORE DUP2 DUP2 PUSH2 0x351D ADD MSTORE DUP2 DUP2 PUSH2 0x36F4 ADD MSTORE PUSH2 0x395D ADD MSTORE MLOAD DUP2 DUP2 DUP2 PUSH2 0xD69 ADD MSTORE DUP2 DUP2 PUSH2 0x2EB2 ADD MSTORE PUSH2 0x34F4 ADD MSTORE RETURN JUMPDEST PUSH1 0x12 DUP8 LT ISZERO PUSH3 0x3DE JUMPI DUP7 PUSH1 0x12 SUB SWAP1 PUSH1 0xFF DUP3 GT PUSH3 0x3CA JUMPI POP SWAP1 PUSH3 0x1DA PUSH3 0x3C3 PUSH3 0x1E1 SWAP4 PUSH3 0x58D JUMP JUMPDEST SWAP7 PUSH3 0x1C4 JUMP JUMPDEST PUSH4 0x4E487B71 PUSH1 0xE0 SHL DUP2 MSTORE PUSH1 0x11 PUSH1 0x4 MSTORE PUSH1 0x24 SWAP1 REVERT JUMPDEST PUSH1 0x11 NOT DUP8 ADD SWAP1 PUSH1 0xFF DUP3 GT PUSH3 0x3CA JUMPI POP SWAP1 PUSH3 0x1DA PUSH3 0x402 PUSH3 0x1E1 SWAP4 PUSH3 0x58D JUMP JUMPDEST PUSH3 0x3C3 JUMP JUMPDEST DUP2 DUP2 SWAP6 SWAP4 SWAP6 RETURNDATASIZE DUP4 GT PUSH3 0x449 JUMPI JUMPDEST PUSH3 0x422 DUP2 DUP4 PUSH3 0x53E JUMP JUMPDEST DUP2 ADD SUB SLT PUSH3 0x445 JUMPI MLOAD SWAP1 PUSH1 0xFF DUP3 AND DUP3 SUB PUSH3 0x442 JUMPI POP SWAP2 CODESIZE DUP1 PUSH3 0x19B JUMP JUMPDEST DUP1 REVERT JUMPDEST POP DUP1 REVERT JUMPDEST POP RETURNDATASIZE PUSH3 0x416 JUMP JUMPDEST DUP3 MLOAD RETURNDATASIZE PUSH1 0x0 DUP3 RETURNDATACOPY RETURNDATASIZE SWAP1 REVERT JUMPDEST DUP10 MLOAD PUSH3 0x461BCD PUSH1 0xE5 SHL DUP2 MSTORE PUSH1 0x4 DUP2 ADD DUP14 SWAP1 MSTORE PUSH1 0x15 PUSH1 0x24 DUP3 ADD MSTORE PUSH32 0x496E76616C696420676C6F62616C207461726765740000000000000000000000 PUSH1 0x44 DUP3 ADD MSTORE PUSH1 0x64 SWAP1 REVERT JUMPDEST DUP10 MLOAD PUSH3 0x461BCD PUSH1 0xE5 SHL DUP2 MSTORE PUSH1 0x4 DUP2 ADD DUP14 SWAP1 MSTORE PUSH1 0xC PUSH1 0x24 DUP3 ADD MSTORE PUSH12 0x24B73B30B634B21030B23239 PUSH1 0xA1 SHL PUSH1 0x44 DUP3 ADD MSTORE PUSH1 0x64 SWAP1 REVERT JUMPDEST POP DUP7 DUP14 AND ISZERO ISZERO PUSH3 0x123 JUMP JUMPDEST POP DUP7 DUP7 AND ISZERO ISZERO PUSH3 0x11C JUMP JUMPDEST AND ISZERO ISZERO SWAP1 POP DUP8 DUP16 PUSH3 0x113 JUMP JUMPDEST DUP8 DUP3 AND ISZERO ISZERO SWAP3 POP PUSH3 0x10C JUMP JUMPDEST DUP7 DUP3 AND ISZERO ISZERO SWAP3 POP PUSH3 0x105 JUMP JUMPDEST DUP6 DUP3 AND ISZERO ISZERO SWAP3 POP PUSH3 0xFE JUMP JUMPDEST DUP5 DUP3 AND ISZERO ISZERO SWAP3 POP PUSH3 0xF7 JUMP JUMPDEST DUP4 DUP3 AND ISZERO ISZERO SWAP3 POP PUSH3 0xF0 JUMP JUMPDEST PUSH1 0x0 DUP1 REVERT JUMPDEST PUSH1 0x1F SWAP1 SWAP2 ADD PUSH1 0x1F NOT AND DUP2 ADD SWAP1 PUSH1 0x1 PUSH1 0x1 PUSH1 0x40 SHL SUB DUP3 GT SWAP1 DUP3 LT OR PUSH3 0x562 JUMPI PUSH1 0x40 MSTORE JUMP JUMPDEST PUSH4 0x4E487B71 PUSH1 0xE0 SHL PUSH1 0x0 MSTORE PUSH1 0x41 PUSH1 0x4 MSTORE PUSH1 0x24 PUSH1 0x0 REVERT JUMPDEST MLOAD SWAP1 PUSH1 0x1 PUSH1 0x1 PUSH1 0xA0 SHL SUB DUP3 AND DUP3 SUB PUSH3 0x539 JUMPI JUMP JUMPDEST PUSH1 0xFF AND PUSH1 0x4D DUP2 GT PUSH3 0x59F JUMPI PUSH1 0xA EXP SWAP1 JUMP JUMPDEST PUSH4 0x4E487B71 PUSH1 0xE0 SHL PUSH1 0x0 MSTORE PUSH1 0x11 PUSH1 0x4 MSTORE PUSH1 0x24 PUSH1 0x0 REVERT JUMPDEST PUSH1 0x1 PUSH1 0x1 PUSH1 0xA0 SHL SUB AND PUSH1 0x0 DUP2 DUP2 MSTORE PUSH32 0xAD3228B676F7D3CD4284A5443F17F1962B36E491B30A40B2405849E597BA5FB5 PUSH1 0x20 MSTORE PUSH1 0x40 DUP2 KECCAK256 SLOAD SWAP1 SWAP2 SWAP1 PUSH1 0xFF AND PUSH3 0x631 JUMPI DUP2 DUP1 MSTORE DUP2 PUSH1 0x20 MSTORE PUSH1 0x40 DUP3 KECCAK256 DUP2 DUP4 MSTORE PUSH1 0x20 MSTORE PUSH1 0x40 DUP3 KECCAK256 PUSH1 0x1 PUSH1 0xFF NOT DUP3 SLOAD AND OR SWAP1 SSTORE CALLER SWAP2 PUSH1 0x0 DUP1 MLOAD PUSH1 0x20 PUSH3 0x4A66 DUP4 CODECOPY DUP2 MLOAD SWAP2 MSTORE DUP2 DUP1 LOG4 PUSH1 0x1 SWAP1 JUMP JUMPDEST POP SWAP1 JUMP JUMPDEST PUSH1 0x1 PUSH1 0x1 PUSH1 0xA0 SHL SUB AND PUSH1 0x0 DUP2 DUP2 MSTORE PUSH32 0x9C5AA8BF4D93DCA6430115E88FA8C1700204BEDA30FFF3EC04054C8739A0A2B5 PUSH1 0x20 MSTORE PUSH1 0x40 DUP2 KECCAK256 SLOAD SWAP1 SWAP2 SWAP1 PUSH32 0xA8A7BC421F721CB936EA99EFDAD79237E6EE0B871A2A08CF648691F9584CDC77 SWAP1 PUSH1 0xFF AND PUSH3 0x6D2 JUMPI DUP1 DUP4 MSTORE DUP3 PUSH1 0x20 MSTORE PUSH1 0x40 DUP4 KECCAK256 DUP3 DUP5 MSTORE PUSH1 0x20 MSTORE PUSH1 0x40 DUP4 KECCAK256 PUSH1 0x1 PUSH1 0xFF NOT DUP3 SLOAD AND OR SWAP1 SSTORE PUSH1 0x0 DUP1 MLOAD PUSH1 0x20 PUSH3 0x4A66 DUP4 CODECOPY DUP2 MLOAD SWAP2 MSTORE CALLER SWAP4 DUP1 LOG4 PUSH1 0x1 SWAP1 JUMP JUMPDEST POP POP SWAP1 JUMP INVALID PUSH1 0x80 DUP1 PUSH1 0x40 MSTORE PUSH1 0x4 CALLDATASIZE LT ISZERO PUSH2 0x13 JUMPI PUSH1 0x0 DUP1 REVERT JUMPDEST PUSH1 0x0 DUP1 CALLDATALOAD PUSH1 0xE0 SHR SWAP2 DUP3 PUSH4 0x1FFC9A7 EQ PUSH2 0x2087 JUMPI POP DUP2 PUSH4 0x117DA1EE EQ PUSH2 0x1FDF JUMPI DUP2 PUSH4 0x175D1BCB EQ PUSH2 0x1FC2 JUMPI DUP2 PUSH4 0x18CF2834 EQ PUSH2 0x1F88 JUMPI DUP2 PUSH4 0x1AE74CCE EQ PUSH2 0x1F60 JUMPI DUP2 PUSH4 0x248A9CA3 EQ PUSH2 0x1F35 JUMPI DUP2 PUSH4 0x2CF91F64 EQ PUSH2 0x1EAB JUMPI DUP2 PUSH4 0x2F2FF15D EQ PUSH2 0x1E6F JUMPI DUP2 PUSH4 0x2F48AB7D EQ PUSH2 0x1E2B JUMPI DUP2 PUSH4 0x36568ABE EQ PUSH2 0x1DE4 JUMPI DUP2 PUSH4 0x3F4BA83A EQ PUSH2 0x1D61 JUMPI DUP2 PUSH4 0x46A56835 EQ PUSH2 0x1CB5 JUMPI DUP2 PUSH4 0x4D237730 EQ PUSH2 0x1C71 JUMPI DUP2 PUSH4 0x4E43603A EQ PUSH2 0x1B89 JUMPI DUP2 PUSH4 0x5C691B08 EQ PUSH2 0x1697 JUMPI DUP2 PUSH4 0x5C975ABB EQ PUSH2 0x1675 JUMPI DUP2 PUSH4 0x5FCBD285 EQ PUSH2 0x1631 JUMPI DUP2 PUSH4 0x61D027B3 EQ PUSH2 0x1605 JUMPI DUP2 PUSH4 0x6398BF82 EQ PUSH2 0x15CB JUMPI DUP2 PUSH4 0x6C9FA59E EQ PUSH2 0x1587 JUMPI DUP2 PUSH4 0x75B238FC EQ PUSH2 0x104C JUMPI DUP2 PUSH4 0x7D2FD64E EQ PUSH2 0x14DD JUMPI DUP2 PUSH4 0x8432E3A6 EQ PUSH2 0x141C JUMPI DUP2 PUSH4 0x8456CB59 EQ PUSH2 0x13A9 JUMPI DUP2 PUSH4 0x8D232612 EQ PUSH2 0x1228 JUMPI DUP2 PUSH4 0x91B96B63 EQ PUSH2 0x25D JUMPI DUP2 PUSH4 0x91D14854 EQ PUSH2 0x11E1 JUMPI DUP2 PUSH4 0x9A7844A6 EQ PUSH2 0x11A4 JUMPI DUP2 PUSH4 0x9E4F8AB8 EQ PUSH2 0x106E JUMPI DUP2 PUSH4 0x9EB87DEC EQ PUSH2 0x1051 JUMPI DUP2 PUSH4 0xA217FDDF EQ PUSH2 0x104C JUMPI DUP2 PUSH4 0xA5917BAF EQ PUSH2 0x1008 JUMPI DUP2 PUSH4 0xAE77C237 EQ PUSH2 0xFB3 JUMPI DUP2 PUSH4 0xB99DFE18 EQ PUSH2 0xD8E JUMPI DUP2 PUSH4 0xBDE0280F EQ PUSH2 0xD52 JUMPI DUP2 PUSH4 0xC1DA6BBC EQ PUSH2 0xC45 JUMPI DUP2 PUSH4 0xC28399EF EQ PUSH2 0xC28 JUMPI DUP2 PUSH4 0xC45A0155 EQ PUSH2 0xBE4 JUMPI DUP2 PUSH4 0xC4E71EAF EQ PUSH2 0xB70 JUMPI DUP2 PUSH4 0xC6E5D8F6 EQ PUSH2 0x470 JUMPI DUP2 PUSH4 0xCE9DDCCC EQ PUSH2 0xB38 JUMPI DUP2 PUSH4 0xD03153AA EQ PUSH2 0xB1B JUMPI DUP2 PUSH4 0xD547741F EQ PUSH2 0xADB JUMPI DUP2 PUSH4 0xD7DA9E4F EQ PUSH2 0xABE JUMPI DUP2 PUSH4 0xDA7B109D EQ PUSH2 0x9EA JUMPI DUP2 PUSH4 0xDB006A75 EQ PUSH2 0x475 JUMPI DUP2 PUSH4 0xDEEF5378 EQ PUSH2 0x470 JUMPI DUP2 PUSH4 0xDF8AE236 EQ PUSH2 0x3B6 JUMPI DUP2 PUSH4 0xF0F44260 EQ PUSH2 0x2E3 JUMPI DUP2 PUSH4 0xF887EA40 EQ PUSH2 0x29F JUMPI DUP2 PUSH4 0xF987626B EQ PUSH2 0x262 JUMPI POP PUSH4 0xFCC18C23 EQ PUSH2 0x25D JUMPI PUSH1 0x0 DUP1 REVERT JUMPDEST PUSH2 0x21B9 JUMP JUMPDEST CALLVALUE PUSH2 0x29C JUMPI DUP1 PUSH1 0x3 NOT CALLDATASIZE ADD SLT PUSH2 0x29C JUMPI PUSH1 0x20 PUSH1 0x40 MLOAD PUSH32 0x995C68A7874AB62E799137BC19B39D4CDD1C165240E636649FBA7EDFDA9D16C8 DUP2 MSTORE RETURN JUMPDEST DUP1 REVERT JUMPDEST CALLVALUE PUSH2 0x29C JUMPI DUP1 PUSH1 0x3 NOT CALLDATASIZE ADD SLT PUSH2 0x29C JUMPI PUSH1 0x40 MLOAD PUSH32 0x0 PUSH1 0x1 PUSH1 0x1 PUSH1 0xA0 SHL SUB AND DUP2 MSTORE PUSH1 0x20 SWAP1 RETURN JUMPDEST CALLVALUE PUSH2 0x29C JUMPI PUSH1 0x20 CALLDATASIZE PUSH1 0x3 NOT ADD SLT PUSH2 0x29C JUMPI PUSH2 0x2FC PUSH2 0x2129 JUMP JUMPDEST DUP2 DUP1 MSTORE DUP2 PUSH1 0x20 MSTORE PUSH1 0x40 DUP3 KECCAK256 CALLER PUSH1 0x0 MSTORE PUSH1 0x20 MSTORE PUSH2 0x31F PUSH1 0xFF PUSH1 0x40 PUSH1 0x0 KECCAK256 SLOAD AND PUSH2 0x241F JUMP JUMPDEST PUSH1 0x1 PUSH1 0x1 PUSH1 0xA0 SHL SUB DUP2 DUP2 AND SWAP2 DUP3 ISZERO PUSH2 0x37E JUMPI PUSH1 0x2 DUP1 SLOAD PUSH2 0x100 PUSH1 0x1 PUSH1 0xA8 SHL SUB NOT DUP2 AND PUSH1 0x8 SWAP4 DUP5 SHL PUSH2 0x100 PUSH1 0x1 PUSH1 0xA8 SHL SUB AND OR SWAP1 SWAP2 SSTORE SWAP1 SHR AND PUSH32 0x4AB5BE82436D353E61CA18726E984E561F5C1CC7C6D38B29D2553C790434705A DUP4 DUP1 LOG3 DUP1 RETURN JUMPDEST PUSH1 0x40 MLOAD PUSH3 0x461BCD PUSH1 0xE5 SHL DUP2 MSTORE PUSH1 0x20 PUSH1 0x4 DUP3 ADD MSTORE PUSH1 0x10 PUSH1 0x24 DUP3 ADD MSTORE PUSH16 0x496E76616C6964207472656173757279 PUSH1 0x80 SHL PUSH1 0x44 DUP3 ADD MSTORE PUSH1 0x64 SWAP1 REVERT JUMPDEST CALLVALUE PUSH2 0x29C JUMPI PUSH1 0x20 DUP1 PUSH1 0x3 NOT CALLDATASIZE ADD SLT PUSH2 0x46C JUMPI PUSH32 0xF07234658490CC011F9F49FD5C1B020FFD25CA0E3DF67AC88818648C16A269CD PUSH1 0x4 CALLDATALOAD SWAP2 DUP4 DUP1 MSTORE DUP4 DUP2 MSTORE PUSH1 0x40 DUP5 KECCAK256 CALLER PUSH1 0x0 MSTORE DUP2 MSTORE PUSH2 0x40E PUSH1 0xFF PUSH1 0x40 PUSH1 0x0 KECCAK256 SLOAD AND PUSH2 0x241F JUMP JUMPDEST DUP3 DUP5 MSTORE PUSH1 0x8 DUP2 MSTORE PUSH2 0x42B PUSH1 0xFF PUSH1 0x2 PUSH1 0x40 DUP8 KECCAK256 ADD SLOAD PUSH1 0xA8 SHR AND PUSH2 0x25E6 JUMP JUMPDEST DUP3 DUP5 MSTORE PUSH1 0x8 DUP2 MSTORE PUSH1 0x40 DUP5 KECCAK256 PUSH1 0x2 ADD DUP1 SLOAD PUSH1 0xFF PUSH1 0xA0 SHL NOT DUP2 AND PUSH1 0xA0 SWAP2 DUP3 SHR PUSH1 0xFF SWAP1 DUP2 AND ISZERO SWAP1 SWAP3 SHL PUSH1 0xFF PUSH1 0xA0 SHL AND OR DUP3 SSTORE SWAP1 SLOAD PUSH1 0xA0 SHR AND PUSH1 0x40 MLOAD SWAP1 ISZERO ISZERO DUP2 MSTORE LOG2 DUP1 RETURN JUMPDEST POP DUP1 REVERT JUMPDEST PUSH2 0x2233 JUMP JUMPDEST CALLVALUE PUSH2 0x29C JUMPI PUSH1 0x20 DUP1 PUSH1 0x3 NOT CALLDATASIZE ADD SLT PUSH2 0x46C JUMPI PUSH1 0x4 CALLDATALOAD SWAP1 PUSH2 0x493 PUSH2 0x2AE0 JUMP JUMPDEST PUSH2 0x49B PUSH2 0x25C8 JUMP JUMPDEST DUP2 ISZERO PUSH2 0x9B2 JUMPI PUSH1 0x40 MLOAD PUSH4 0x18160DDD PUSH1 0xE0 SHL DUP2 MSTORE PUSH1 0x1 PUSH1 0x1 PUSH1 0xA0 SHL SUB PUSH32 0x0 DUP2 AND SWAP2 DUP4 DUP2 PUSH1 0x4 DUP2 DUP7 GAS STATICCALL SWAP1 DUP2 ISZERO PUSH2 0x9A7 JUMPI DUP7 SWAP2 PUSH2 0x97A JUMPI JUMPDEST POP DUP1 ISZERO PUSH2 0x946 JUMPI PUSH1 0x40 MLOAD PUSH4 0xE6A43905 PUSH1 0xE0 SHL DUP2 MSTORE PUSH32 0x0 DUP4 AND PUSH1 0x1 PUSH1 0x1 PUSH1 0xA0 SHL SUB DUP2 DUP2 AND PUSH1 0x4 DUP5 ADD MSTORE PUSH32 0x0 DUP6 AND SWAP1 DUP2 AND PUSH1 0x24 DUP5 ADD MSTORE SWAP2 DUP7 DUP2 PUSH1 0x44 DUP2 PUSH32 0x0 DUP10 AND GAS STATICCALL DUP1 ISZERO PUSH2 0x85A JUMPI DUP6 SWAP2 DUP11 SWAP2 PUSH2 0x90A JUMPI JUMPDEST POP AND SWAP3 DUP4 ISZERO PUSH2 0x8D8 JUMPI PUSH1 0x40 MLOAD PUSH4 0x70A08231 PUSH1 0xE0 SHL DUP2 MSTORE ADDRESS PUSH1 0x4 DUP3 ADD MSTORE DUP8 DUP2 PUSH1 0x24 DUP2 DUP9 GAS STATICCALL SWAP1 DUP2 ISZERO PUSH2 0x8CD JUMPI DUP11 SWAP2 PUSH2 0x89C JUMPI JUMPDEST POP DUP1 ISZERO PUSH2 0x865 JUMPI DUP10 SWAP2 PUSH2 0x5E4 DUP11 PUSH2 0x5E9 SWAP4 PUSH2 0x267D JUMP JUMPDEST PUSH2 0x265D JUMP JUMPDEST SWAP6 DUP1 EXTCODESIZE ISZERO PUSH2 0x46C JUMPI PUSH1 0x40 MLOAD PUSH4 0x2770A7EB PUSH1 0xE2 SHL DUP2 MSTORE CALLER PUSH1 0x4 DUP3 ADD MSTORE PUSH1 0x24 DUP2 ADD DUP11 SWAP1 MSTORE SWAP2 SWAP1 DUP3 SWAP1 PUSH1 0x44 SWAP1 DUP3 SWAP1 DUP5 SWAP1 GAS CALL DUP1 ISZERO PUSH2 0x85A JUMPI PUSH2 0x841 JUMPI JUMPDEST POP DUP8 SWAP2 PUSH1 0xE4 PUSH1 0x40 SWAP3 PUSH2 0x659 DUP9 DUP9 PUSH32 0x0 AND DUP1 SWAP9 PUSH2 0x2C65 JUMP JUMPDEST DUP5 PUSH2 0x666 PUSH1 0x3 SLOAD TIMESTAMP PUSH2 0x2B03 JUMP JUMPDEST SWAP7 DUP6 MLOAD SWAP8 DUP9 SWAP6 DUP7 SWAP5 PUSH4 0x5D5155EF PUSH1 0xE1 SHL DUP7 MSTORE PUSH1 0x4 DUP7 ADD MSTORE PUSH1 0x24 DUP6 ADD MSTORE DUP11 PUSH1 0x44 DUP6 ADD MSTORE DUP3 PUSH1 0x64 DUP6 ADD MSTORE DUP3 PUSH1 0x84 DUP6 ADD MSTORE CALLER PUSH1 0xA4 DUP6 ADD MSTORE PUSH1 0xC4 DUP5 ADD MSTORE GAS CALL SWAP3 DUP4 ISZERO PUSH2 0x834 JUMPI DUP2 SWAP3 DUP3 SWAP5 PUSH2 0x7F8 JUMPI JUMPDEST POP PUSH32 0x0 AND DUP1 EXTCODESIZE ISZERO PUSH2 0x46C JUMPI DUP2 DUP1 SWAP2 PUSH1 0x24 PUSH1 0x40 MLOAD DUP1 SWAP5 DUP2 SWAP4 PUSH4 0xDDEAE033 PUSH1 0xE0 SHL DUP4 MSTORE CALLER PUSH1 0x4 DUP5 ADD MSTORE GAS CALL PUSH2 0x7E0 JUMPI JUMPDEST POP POP CALLER DUP7 MSTORE PUSH1 0x9 DUP5 MSTORE PUSH1 0x40 DUP7 KECCAK256 PUSH1 0x7 DUP2 ADD DUP1 SLOAD SWAP1 PUSH1 0x1 DUP3 ADD DUP1 SWAP3 GT PUSH2 0x7CC JUMPI PUSH32 0x4896181FF8F4543CC00DB9FE9B6FB7E6F032B7EB772C72AB1EC1B4D2E03B9369 SWAP7 SWAP6 SWAP5 SWAP3 PUSH32 0x3934FC962EF79EA87F2B6D34FDFDB727537E44F786C7810133C7E23F19A14814 SWAP5 SWAP3 PUSH1 0x8 SWAP3 SSTORE ADD PUSH2 0x775 DUP9 DUP3 SLOAD PUSH2 0x2B03 JUMP JUMPDEST SWAP1 SSTORE CALLER DUP9 MSTORE PUSH1 0xB DUP6 MSTORE PUSH2 0x78B DUP8 PUSH1 0x40 DUP11 KECCAK256 PUSH2 0x259F JUMP JUMPDEST CALLER DUP9 MSTORE PUSH1 0xC DUP6 MSTORE PUSH2 0x79F TIMESTAMP PUSH1 0x40 DUP11 KECCAK256 PUSH2 0x259F JUMP JUMPDEST PUSH1 0x40 DUP1 MLOAD DUP9 DUP2 MSTORE PUSH1 0x20 DUP2 ADD SWAP6 SWAP1 SWAP6 MSTORE DUP5 ADD MSTORE PUSH1 0x60 DUP4 ADD MSTORE CALLER SWAP2 PUSH1 0x80 SWAP1 LOG2 PUSH1 0x40 MLOAD SWAP3 DUP4 MSTORE CALLER SWAP3 LOG2 PUSH1 0x1 DUP1 SSTORE DUP1 RETURN JUMPDEST PUSH4 0x4E487B71 PUSH1 0xE0 SHL DUP10 MSTORE PUSH1 0x11 PUSH1 0x4 MSTORE PUSH1 0x24 DUP10 REVERT JUMPDEST PUSH2 0x7E9 SWAP1 PUSH2 0x24AE JUMP JUMPDEST PUSH2 0x7F4 JUMPI DUP6 DUP8 PUSH2 0x6FE JUMP JUMPDEST DUP6 DUP1 REVERT JUMPDEST SWAP3 POP SWAP3 POP POP PUSH1 0x40 DUP2 RETURNDATASIZE PUSH1 0x40 GT PUSH2 0x82C JUMPI JUMPDEST DUP2 PUSH2 0x816 PUSH1 0x40 SWAP4 DUP4 PUSH2 0x24DC JUMP JUMPDEST DUP2 ADD SUB SLT PUSH2 0x7F4 JUMPI DUP6 DUP5 DUP3 MLOAD SWAP3 ADD MLOAD SWAP3 DUP9 PUSH2 0x6B1 JUMP JUMPDEST RETURNDATASIZE SWAP2 POP PUSH2 0x809 JUMP JUMPDEST POP PUSH1 0x40 MLOAD SWAP1 RETURNDATASIZE SWAP1 DUP3 RETURNDATACOPY RETURNDATASIZE SWAP1 REVERT JUMPDEST SWAP2 PUSH1 0xE4 SWAP9 PUSH2 0x851 PUSH1 0x40 SWAP4 SWAP5 PUSH2 0x24AE JUMP JUMPDEST SWAP9 POP SWAP2 SWAP1 PUSH2 0x623 JUMP JUMPDEST PUSH1 0x40 MLOAD RETURNDATASIZE DUP12 DUP3 RETURNDATACOPY RETURNDATASIZE SWAP1 REVERT JUMPDEST PUSH1 0x40 MLOAD PUSH3 0x461BCD PUSH1 0xE5 SHL DUP2 MSTORE PUSH1 0x4 DUP2 ADD DUP10 SWAP1 MSTORE PUSH1 0xF PUSH1 0x24 DUP3 ADD MSTORE PUSH15 0x139BC81C99585B081314081A195B19 PUSH1 0x8A SHL PUSH1 0x44 DUP3 ADD MSTORE PUSH1 0x64 SWAP1 REVERT JUMPDEST SWAP1 POP DUP8 DUP2 DUP2 RETURNDATASIZE DUP4 GT PUSH2 0x8C6 JUMPI JUMPDEST PUSH2 0x8B3 DUP2 DUP4 PUSH2 0x24DC JUMP JUMPDEST DUP2 ADD SUB SLT PUSH2 0x8C2 JUMPI MLOAD DUP11 PUSH2 0x5CE JUMP JUMPDEST DUP10 DUP1 REVERT JUMPDEST POP RETURNDATASIZE PUSH2 0x8A9 JUMP JUMPDEST PUSH1 0x40 MLOAD RETURNDATASIZE DUP13 DUP3 RETURNDATACOPY RETURNDATASIZE SWAP1 REVERT JUMPDEST PUSH1 0x40 MLOAD PUSH3 0x461BCD PUSH1 0xE5 SHL DUP2 MSTORE PUSH1 0x4 DUP2 ADD DUP9 SWAP1 MSTORE PUSH1 0xA PUSH1 0x24 DUP3 ADD MSTORE PUSH10 0x2737902628103830B4B9 PUSH1 0xB1 SHL PUSH1 0x44 DUP3 ADD MSTORE PUSH1 0x64 SWAP1 REVERT JUMPDEST DUP1 SWAP3 POP DUP9 DUP1 SWAP3 POP RETURNDATASIZE DUP4 GT PUSH2 0x93F JUMPI JUMPDEST PUSH2 0x923 DUP2 DUP4 PUSH2 0x24DC JUMP JUMPDEST DUP2 ADD SUB SLT PUSH2 0x93B JUMPI PUSH2 0x935 DUP6 SWAP2 PUSH2 0x2624 JUMP JUMPDEST DUP11 PUSH2 0x59C JUMP JUMPDEST DUP9 DUP1 REVERT JUMPDEST POP RETURNDATASIZE PUSH2 0x919 JUMP JUMPDEST PUSH1 0x40 MLOAD PUSH3 0x461BCD PUSH1 0xE5 SHL DUP2 MSTORE PUSH1 0x4 DUP2 ADD DUP6 SWAP1 MSTORE PUSH1 0xC PUSH1 0x24 DUP3 ADD MSTORE PUSH12 0x4E6F204C5020737570706C79 PUSH1 0xA0 SHL PUSH1 0x44 DUP3 ADD MSTORE PUSH1 0x64 SWAP1 REVERT JUMPDEST SWAP1 POP DUP4 DUP2 DUP2 RETURNDATASIZE DUP4 GT PUSH2 0x9A0 JUMPI JUMPDEST PUSH2 0x991 DUP2 DUP4 PUSH2 0x24DC JUMP JUMPDEST DUP2 ADD SUB SLT PUSH2 0x7F4 JUMPI MLOAD DUP7 PUSH2 0x4F0 JUMP JUMPDEST POP RETURNDATASIZE PUSH2 0x987 JUMP JUMPDEST PUSH1 0x40 MLOAD RETURNDATASIZE DUP9 DUP3 RETURNDATACOPY RETURNDATASIZE SWAP1 REVERT JUMPDEST PUSH1 0x64 SWAP1 PUSH1 0x40 MLOAD SWAP1 PUSH3 0x461BCD PUSH1 0xE5 SHL DUP3 MSTORE PUSH1 0x4 DUP3 ADD MSTORE PUSH1 0x11 PUSH1 0x24 DUP3 ADD MSTORE PUSH17 0x125B9D985B1A5908131408185B5BDD5B9D PUSH1 0x7A SHL PUSH1 0x44 DUP3 ADD MSTORE REVERT JUMPDEST CALLVALUE PUSH2 0x29C JUMPI PUSH1 0x40 CALLDATASIZE PUSH1 0x3 NOT ADD SLT PUSH2 0x29C JUMPI PUSH1 0x4 CALLDATALOAD PUSH1 0x24 CALLDATALOAD DUP3 DUP1 MSTORE PUSH1 0x20 SWAP1 DUP4 DUP3 MSTORE PUSH1 0x40 DUP5 KECCAK256 CALLER DUP6 MSTORE DUP3 MSTORE PUSH2 0xA23 PUSH1 0xFF PUSH1 0x40 DUP7 KECCAK256 SLOAD AND PUSH2 0x241F JUMP JUMPDEST DUP3 DUP5 MSTORE PUSH1 0x8 DUP3 MSTORE PUSH2 0xA40 PUSH1 0xFF PUSH1 0x2 PUSH1 0x40 DUP8 KECCAK256 ADD SLOAD PUSH1 0xA8 SHR AND PUSH2 0x25E6 JUMP JUMPDEST DUP1 ISZERO PUSH2 0xA8A JUMPI PUSH32 0xA1883CBB0491700BBB491DC908B557F640688276C8D7B9EC57F4BEA05F205014 SWAP2 PUSH1 0x40 SWAP2 DUP5 DUP7 MSTORE PUSH1 0x8 DUP3 MSTORE PUSH1 0x1 DUP4 DUP8 KECCAK256 ADD SWAP2 DUP2 DUP4 SLOAD SWAP4 SSTORE DUP4 MLOAD SWAP3 DUP4 MSTORE DUP3 ADD MSTORE LOG2 DUP1 RETURN JUMPDEST PUSH1 0x40 MLOAD PUSH3 0x461BCD PUSH1 0xE5 SHL DUP2 MSTORE PUSH1 0x4 DUP2 ADD DUP4 SWAP1 MSTORE PUSH1 0xC PUSH1 0x24 DUP3 ADD MSTORE PUSH12 0x496E76616C69642072617465 PUSH1 0xA0 SHL PUSH1 0x44 DUP3 ADD MSTORE PUSH1 0x64 SWAP1 REVERT JUMPDEST CALLVALUE PUSH2 0x29C JUMPI DUP1 PUSH1 0x3 NOT CALLDATASIZE ADD SLT PUSH2 0x29C JUMPI PUSH1 0x20 PUSH1 0x6 SLOAD PUSH1 0x40 MLOAD SWAP1 DUP2 MSTORE RETURN JUMPDEST CALLVALUE PUSH2 0x29C JUMPI PUSH1 0x40 CALLDATASIZE PUSH1 0x3 NOT ADD SLT PUSH2 0x29C JUMPI PUSH2 0xB17 PUSH1 0x4 CALLDATALOAD PUSH2 0xAFA PUSH2 0x210E JUMP JUMPDEST SWAP1 DUP1 DUP5 MSTORE DUP4 PUSH1 0x20 MSTORE PUSH2 0xB12 PUSH1 0x1 PUSH1 0x40 DUP7 KECCAK256 ADD SLOAD PUSH2 0x2306 JUMP JUMPDEST PUSH2 0x23AA JUMP JUMPDEST POP DUP1 RETURN JUMPDEST CALLVALUE PUSH2 0x29C JUMPI DUP1 PUSH1 0x3 NOT CALLDATASIZE ADD SLT PUSH2 0x29C JUMPI PUSH1 0x20 PUSH1 0x5 SLOAD PUSH1 0x40 MLOAD SWAP1 DUP2 MSTORE RETURN JUMPDEST CALLVALUE PUSH2 0x29C JUMPI PUSH1 0x20 CALLDATASIZE PUSH1 0x3 NOT ADD SLT PUSH2 0x29C JUMPI PUSH1 0x20 SWAP1 PUSH1 0x40 SWAP1 PUSH1 0x1 PUSH1 0x1 PUSH1 0xA0 SHL SUB PUSH2 0xB5F PUSH2 0x2129 JUMP JUMPDEST AND DUP2 MSTORE PUSH1 0xB DUP4 MSTORE KECCAK256 SLOAD PUSH1 0x40 MLOAD SWAP1 DUP2 MSTORE RETURN JUMPDEST CALLVALUE PUSH2 0x29C JUMPI PUSH1 0x20 CALLDATASIZE PUSH1 0x3 NOT ADD SLT PUSH2 0x29C JUMPI PUSH2 0xBD2 SWAP1 PUSH1 0x1 PUSH1 0x1 PUSH1 0xA0 SHL SUB PUSH2 0xB95 PUSH2 0x2129 JUMP JUMPDEST AND DUP2 MSTORE PUSH1 0xB PUSH1 0x20 MSTORE PUSH2 0xBE0 PUSH2 0xBBE PUSH2 0xBB8 PUSH1 0x40 DUP1 DUP6 KECCAK256 SWAP5 PUSH1 0xC PUSH1 0x20 MSTORE KECCAK256 SWAP4 PUSH2 0x29A9 JUMP JUMPDEST SWAP3 PUSH2 0x29A9 JUMP JUMPDEST PUSH1 0x40 MLOAD SWAP4 DUP5 SWAP4 PUSH1 0x40 DUP6 MSTORE PUSH1 0x40 DUP6 ADD SWAP1 PUSH2 0x20DA JUMP JUMPDEST SWAP1 DUP4 DUP3 SUB PUSH1 0x20 DUP6 ADD MSTORE PUSH2 0x20DA JUMP JUMPDEST SUB SWAP1 RETURN JUMPDEST CALLVALUE PUSH2 0x29C JUMPI DUP1 PUSH1 0x3 NOT CALLDATASIZE ADD SLT PUSH2 0x29C JUMPI PUSH1 0x40 MLOAD PUSH32 0x0 PUSH1 0x1 PUSH1 0x1 PUSH1 0xA0 SHL SUB AND DUP2 MSTORE PUSH1 0x20 SWAP1 RETURN JUMPDEST CALLVALUE PUSH2 0x29C JUMPI DUP1 PUSH1 0x3 NOT CALLDATASIZE ADD SLT PUSH2 0x29C JUMPI PUSH1 0x20 PUSH1 0x3 SLOAD PUSH1 0x40 MLOAD SWAP1 DUP2 MSTORE RETURN JUMPDEST CALLVALUE PUSH2 0x29C JUMPI PUSH1 0x60 CALLDATASIZE PUSH1 0x3 NOT ADD SLT PUSH2 0x29C JUMPI PUSH2 0xC5E PUSH2 0x2129 JUMP JUMPDEST PUSH1 0x44 CALLDATALOAD PUSH1 0x24 CALLDATALOAD PUSH1 0x1 PUSH1 0x1 PUSH1 0xA0 SHL SUB DUP1 DUP4 AND DUP4 SUB PUSH2 0xD4E JUMPI PUSH2 0xC7D PUSH2 0x2AE0 JUMP JUMPDEST PUSH2 0xC85 PUSH2 0x25C8 JUMP JUMPDEST DUP2 DUP6 MSTORE PUSH1 0x8 PUSH1 0x20 MSTORE PUSH2 0xCA3 PUSH1 0xFF PUSH1 0x2 PUSH1 0x40 DUP9 KECCAK256 ADD SLOAD PUSH1 0xA8 SHR AND PUSH2 0x25E6 JUMP JUMPDEST PUSH32 0xA8A7BC421F721CB936EA99EFDAD79237E6EE0B871A2A08CF648691F9584CDC77 DUP1 DUP7 MSTORE DUP6 PUSH1 0x20 MSTORE PUSH1 0x40 DUP7 KECCAK256 CALLER DUP8 MSTORE PUSH1 0x20 MSTORE PUSH1 0xFF PUSH1 0x40 DUP8 KECCAK256 SLOAD AND ISZERO PUSH2 0xD30 JUMPI POP DUP4 AND ISZERO PUSH2 0xCFB JUMPI PUSH2 0xCF4 SWAP3 CALLER PUSH2 0x2D8C JUMP JUMPDEST PUSH1 0x1 DUP1 SSTORE DUP1 RETURN JUMPDEST PUSH1 0x40 MLOAD PUSH3 0x461BCD PUSH1 0xE5 SHL DUP2 MSTORE PUSH1 0x20 PUSH1 0x4 DUP3 ADD MSTORE PUSH1 0xD PUSH1 0x24 DUP3 ADD MSTORE PUSH13 0x24B73B30B634B210313ABCB2B9 PUSH1 0x99 SHL PUSH1 0x44 DUP3 ADD MSTORE PUSH1 0x64 SWAP1 REVERT JUMPDEST PUSH1 0x44 SWAP1 PUSH1 0x40 MLOAD SWAP1 PUSH4 0xE2517D3F PUSH1 0xE0 SHL DUP3 MSTORE CALLER PUSH1 0x4 DUP4 ADD MSTORE PUSH1 0x24 DUP3 ADD MSTORE REVERT JUMPDEST DUP5 DUP1 REVERT JUMPDEST CALLVALUE PUSH2 0x29C JUMPI DUP1 PUSH1 0x3 NOT CALLDATASIZE ADD SLT PUSH2 0x29C JUMPI PUSH1 0x20 PUSH1 0x40 MLOAD PUSH32 0x0 ISZERO ISZERO DUP2 MSTORE RETURN JUMPDEST CALLVALUE PUSH2 0x29C JUMPI PUSH1 0x20 CALLDATASIZE PUSH1 0x3 NOT ADD SLT PUSH2 0x29C JUMPI PUSH1 0x4 CALLDATALOAD PUSH1 0x60 PUSH2 0x100 PUSH1 0x40 MLOAD PUSH2 0xDB3 DUP2 PUSH2 0x247C JUMP JUMPDEST DUP5 DUP2 MSTORE DUP5 PUSH1 0x20 DUP3 ADD MSTORE DUP5 PUSH1 0x40 DUP3 ADD MSTORE DUP5 DUP4 DUP3 ADD MSTORE DUP5 PUSH1 0x80 DUP3 ADD MSTORE DUP5 PUSH1 0xA0 DUP3 ADD MSTORE DUP5 PUSH1 0xC0 DUP3 ADD MSTORE DUP5 PUSH1 0xE0 DUP3 ADD MSTORE ADD MSTORE DUP1 DUP3 MSTORE PUSH1 0x8 PUSH1 0x20 MSTORE PUSH2 0xDFF PUSH1 0xFF PUSH1 0x2 PUSH1 0x40 DUP6 KECCAK256 ADD SLOAD PUSH1 0xA8 SHR AND PUSH2 0x25E6 JUMP JUMPDEST DUP2 MSTORE PUSH1 0x8 PUSH1 0x20 MSTORE PUSH1 0x40 DUP2 KECCAK256 SWAP1 PUSH1 0x40 MLOAD SWAP1 PUSH2 0xE18 DUP3 PUSH2 0x247C JUMP JUMPDEST DUP3 SLOAD DUP3 MSTORE PUSH1 0x1 DUP4 ADD SLOAD PUSH1 0x20 DUP4 ADD MSTORE PUSH1 0xFF PUSH1 0x2 DUP5 ADD SLOAD PUSH1 0x1 PUSH1 0x1 PUSH1 0x40 SHL SUB DUP2 AND PUSH1 0x40 DUP6 ADD MSTORE PUSH1 0x1 PUSH1 0x1 PUSH1 0x40 SHL SUB DUP2 PUSH1 0x40 SHR AND PUSH1 0x60 DUP6 ADD MSTORE PUSH2 0xFFFF DUP2 PUSH1 0x80 SHR AND PUSH1 0x80 DUP6 ADD MSTORE PUSH2 0xFFFF DUP2 PUSH1 0x90 SHR AND PUSH1 0xA0 DUP6 ADD MSTORE DUP2 DUP2 PUSH1 0xA0 SHR AND ISZERO ISZERO PUSH1 0xC0 DUP6 ADD MSTORE PUSH1 0xA8 SHR AND ISZERO ISZERO PUSH1 0xE0 DUP4 ADD MSTORE PUSH1 0x40 MLOAD SWAP1 PUSH1 0x3 DUP2 SWAP5 ADD SWAP1 DUP2 SLOAD SWAP2 PUSH2 0xE96 DUP4 PUSH2 0x2518 JUMP JUMPDEST DUP1 DUP6 MSTORE SWAP3 PUSH1 0x1 DUP2 AND SWAP1 DUP2 ISZERO PUSH2 0xF8B JUMPI POP PUSH1 0x1 EQ PUSH2 0xF4F JUMPI JUMPDEST POP POP POP PUSH2 0xEC0 DUP2 PUSH2 0x100 SWAP5 SUB DUP3 PUSH2 0x24DC JUMP JUMPDEST DUP3 DUP3 ADD MSTORE PUSH2 0xBE0 PUSH1 0x40 MLOAD SWAP3 DUP4 SWAP3 PUSH1 0x20 DUP5 MSTORE DUP1 MLOAD PUSH1 0x20 DUP6 ADD MSTORE PUSH1 0x20 DUP2 ADD MLOAD PUSH1 0x40 DUP6 ADD MSTORE PUSH1 0x1 PUSH1 0x1 PUSH1 0x40 SHL SUB PUSH1 0x40 DUP3 ADD MLOAD AND PUSH1 0x60 DUP6 ADD MSTORE PUSH1 0x1 PUSH1 0x1 PUSH1 0x40 SHL SUB PUSH1 0x60 DUP3 ADD MLOAD AND PUSH1 0x80 DUP6 ADD MSTORE PUSH2 0xFFFF PUSH1 0x80 DUP3 ADD MLOAD AND PUSH1 0xA0 DUP6 ADD MSTORE PUSH2 0xFFFF PUSH1 0xA0 DUP3 ADD MLOAD AND PUSH1 0xC0 DUP6 ADD MSTORE PUSH1 0xC0 DUP2 ADD MLOAD ISZERO ISZERO PUSH1 0xE0 DUP6 ADD MSTORE PUSH1 0xE0 DUP2 ADD MLOAD ISZERO ISZERO DUP3 DUP6 ADD MSTORE ADD MLOAD PUSH2 0x120 DUP1 DUP5 ADD MSTORE PUSH2 0x140 DUP4 ADD SWAP1 PUSH2 0x21F3 JUMP JUMPDEST SWAP1 DUP1 SWAP3 SWAP6 POP MSTORE PUSH1 0x20 DUP2 KECCAK256 JUMPDEST DUP5 DUP3 LT PUSH2 0xF75 JUMPI POP DUP2 ADD PUSH1 0x20 ADD SWAP3 POP PUSH2 0xEC0 DUP2 PUSH2 0x100 PUSH2 0xEAE JUMP JUMPDEST PUSH1 0x1 DUP2 PUSH1 0x20 SWAP3 SLOAD DUP4 DUP6 DUP8 ADD ADD MSTORE ADD SWAP2 ADD SWAP1 PUSH2 0xF5A JUMP JUMPDEST PUSH2 0x100 SWAP8 POP DUP6 SWAP4 POP PUSH1 0x20 SWAP3 POP PUSH2 0xEC0 SWAP5 SWAP2 POP PUSH1 0xFF NOT AND DUP3 DUP5 ADD MSTORE ISZERO ISZERO PUSH1 0x5 SHL DUP3 ADD ADD SWAP5 PUSH2 0xEAE JUMP JUMPDEST CALLVALUE PUSH2 0x29C JUMPI PUSH1 0x40 CALLDATASIZE PUSH1 0x3 NOT ADD SLT PUSH2 0x29C JUMPI PUSH2 0xCF4 PUSH1 0x4 CALLDATALOAD PUSH2 0xFD2 PUSH2 0x210E JUMP JUMPDEST SWAP1 PUSH2 0xFDB PUSH2 0x2AE0 JUMP JUMPDEST PUSH2 0xFE3 PUSH2 0x25C8 JUMP JUMPDEST DUP1 DUP5 MSTORE PUSH1 0x8 PUSH1 0x20 MSTORE PUSH2 0x1001 PUSH1 0xFF PUSH1 0x2 PUSH1 0x40 DUP8 KECCAK256 ADD SLOAD PUSH1 0xA8 SHR AND PUSH2 0x25E6 JUMP JUMPDEST CALLER CALLER PUSH2 0x2D8C JUMP JUMPDEST CALLVALUE PUSH2 0x29C JUMPI DUP1 PUSH1 0x3 NOT CALLDATASIZE ADD SLT PUSH2 0x29C JUMPI PUSH1 0x40 MLOAD PUSH32 0x0 PUSH1 0x1 PUSH1 0x1 PUSH1 0xA0 SHL SUB AND DUP2 MSTORE PUSH1 0x20 SWAP1 RETURN JUMPDEST PUSH2 0x219D JUMP JUMPDEST CALLVALUE PUSH2 0x29C JUMPI DUP1 PUSH1 0x3 NOT CALLDATASIZE ADD SLT PUSH2 0x29C JUMPI PUSH1 0x20 PUSH1 0x7 SLOAD PUSH1 0x40 MLOAD SWAP1 DUP2 MSTORE RETURN JUMPDEST CALLVALUE PUSH2 0x29C JUMPI DUP1 PUSH1 0x3 NOT CALLDATASIZE ADD SLT PUSH2 0x29C JUMPI PUSH1 0x7 SLOAD DUP2 DUP1 JUMPDEST DUP3 DUP2 LT PUSH2 0x1157 JUMPI POP PUSH2 0x1095 DUP4 PUSH2 0x29FA JUMP JUMPDEST SWAP3 PUSH2 0x10A3 PUSH1 0x40 MLOAD SWAP5 DUP6 PUSH2 0x24DC JUMP JUMPDEST DUP1 DUP5 MSTORE PUSH2 0x10B2 PUSH1 0x1F NOT SWAP2 PUSH2 0x29FA JUMP JUMPDEST ADD SWAP2 PUSH1 0x20 SWAP3 CALLDATASIZE DUP5 DUP7 ADD CALLDATACOPY DUP2 DUP3 JUMPDEST DUP3 DUP2 LT PUSH2 0x10D9 JUMPI PUSH1 0x40 MLOAD DUP6 DUP2 MSTORE DUP1 PUSH2 0xBE0 DUP2 DUP9 ADD DUP10 PUSH2 0x20DA JUMP JUMPDEST PUSH2 0x10E2 DUP2 PUSH2 0x2552 JUMP JUMPDEST SWAP1 SLOAD PUSH1 0x3 SWAP2 DUP3 SHL SHR DUP6 MSTORE PUSH1 0x8 DUP7 MSTORE PUSH1 0xFF PUSH1 0x2 PUSH1 0x40 DUP8 KECCAK256 ADD SLOAD PUSH1 0xA0 SHR AND PUSH2 0x1112 JUMPI JUMPDEST POP PUSH2 0x110D SWAP1 PUSH2 0x2457 JUMP JUMPDEST PUSH2 0x10BF JUMP JUMPDEST PUSH2 0x111B DUP3 PUSH2 0x2552 JUMP JUMPDEST SWAP1 SLOAD SWAP2 SHL SHR PUSH2 0x1129 DUP4 PUSH2 0x2457 JUMP JUMPDEST SWAP3 DUP8 MLOAD DUP2 LT ISZERO PUSH2 0x1143 JUMPI PUSH1 0x5 SHL DUP8 ADD DUP7 ADD MSTORE PUSH2 0x110D PUSH2 0x1103 JUMP JUMPDEST PUSH4 0x4E487B71 PUSH1 0xE0 SHL DUP7 MSTORE PUSH1 0x32 PUSH1 0x4 MSTORE PUSH1 0x24 DUP7 REVERT JUMPDEST PUSH2 0x1160 DUP2 PUSH2 0x2552 JUMP JUMPDEST SWAP1 SLOAD SWAP1 PUSH1 0x3 SHL SHR DUP3 MSTORE PUSH1 0x8 PUSH1 0x20 MSTORE PUSH1 0xFF PUSH1 0x2 PUSH1 0x40 DUP5 KECCAK256 ADD SLOAD PUSH1 0xA0 SHR AND PUSH2 0x118F JUMPI JUMPDEST PUSH2 0x118A SWAP1 PUSH2 0x2457 JUMP JUMPDEST PUSH2 0x1084 JUMP JUMPDEST SWAP3 PUSH2 0x119C PUSH2 0x118A SWAP2 PUSH2 0x2457 JUMP JUMPDEST SWAP4 SWAP1 POP PUSH2 0x1181 JUMP JUMPDEST CALLVALUE PUSH2 0x29C JUMPI DUP1 PUSH1 0x3 NOT CALLDATASIZE ADD SLT PUSH2 0x29C JUMPI PUSH1 0x20 PUSH1 0x40 MLOAD PUSH1 0xFF PUSH32 0x0 AND DUP2 MSTORE RETURN JUMPDEST CALLVALUE PUSH2 0x29C JUMPI PUSH1 0x40 CALLDATASIZE PUSH1 0x3 NOT ADD SLT PUSH2 0x29C JUMPI PUSH1 0xFF PUSH1 0x40 PUSH1 0x20 SWAP3 PUSH2 0x1201 PUSH2 0x210E JUMP JUMPDEST PUSH1 0x4 CALLDATALOAD DUP3 MSTORE DUP2 DUP6 MSTORE DUP3 DUP3 KECCAK256 PUSH1 0x1 PUSH1 0x1 PUSH1 0xA0 SHL SUB SWAP1 SWAP2 AND DUP3 MSTORE DUP5 MSTORE KECCAK256 SLOAD PUSH1 0x40 MLOAD SWAP2 AND ISZERO ISZERO DUP2 MSTORE RETURN JUMPDEST CALLVALUE PUSH2 0x29C JUMPI DUP1 PUSH1 0x3 NOT CALLDATASIZE ADD SLT PUSH2 0x29C JUMPI DUP1 DUP1 MSTORE PUSH1 0x20 DUP2 DUP2 MSTORE PUSH1 0x40 DUP3 KECCAK256 CALLER DUP4 MSTORE DUP2 MSTORE PUSH2 0x1259 PUSH1 0xFF PUSH1 0x40 DUP5 KECCAK256 SLOAD AND PUSH2 0x241F JUMP JUMPDEST PUSH1 0x1 PUSH1 0x1 PUSH1 0xA0 SHL SUB PUSH32 0x0 DUP2 AND SWAP2 PUSH2 0x1313 DUP2 PUSH32 0x0 DUP5 AND PUSH2 0x12B6 DUP7 DUP3 PUSH2 0x2B10 JUMP JUMPDEST DUP5 PUSH32 0x0 AND PUSH2 0x12E3 DUP8 DUP3 PUSH2 0x2B10 JUMP JUMPDEST PUSH1 0x40 MLOAD PUSH4 0xE6A43905 PUSH1 0xE0 SHL DUP2 MSTORE PUSH1 0x1 PUSH1 0x1 PUSH1 0xA0 SHL SUB SWAP2 DUP3 AND PUSH1 0x4 DUP3 ADD MSTORE SWAP2 AND PUSH1 0x24 DUP3 ADD MSTORE SWAP2 DUP3 SWAP1 DUP2 SWAP1 PUSH1 0x44 DUP3 ADD SWAP1 JUMP JUMPDEST SUB DUP2 DUP7 PUSH32 0x0 AND GAS STATICCALL SWAP2 DUP3 ISZERO PUSH2 0x139E JUMPI DUP6 SWAP3 PUSH2 0x1364 JUMPI JUMPDEST POP POP AND SWAP1 DUP2 PUSH2 0x1355 JUMPI DUP3 DUP1 RETURN JUMPDEST PUSH2 0x135E SWAP2 PUSH2 0x2B10 JUMP JUMPDEST DUP2 DUP1 DUP3 DUP1 RETURN JUMPDEST SWAP1 DUP1 SWAP3 POP DUP2 RETURNDATASIZE DUP4 GT PUSH2 0x1397 JUMPI JUMPDEST PUSH2 0x137B DUP2 DUP4 PUSH2 0x24DC JUMP JUMPDEST DUP2 ADD SUB SLT PUSH2 0x1393 JUMPI PUSH2 0x138C SWAP1 PUSH2 0x2624 JUMP JUMPDEST DUP5 DUP1 PUSH2 0x1348 JUMP JUMPDEST DUP4 DUP1 REVERT JUMPDEST POP RETURNDATASIZE PUSH2 0x1371 JUMP JUMPDEST PUSH1 0x40 MLOAD RETURNDATASIZE DUP8 DUP3 RETURNDATACOPY RETURNDATASIZE SWAP1 REVERT JUMPDEST CALLVALUE PUSH2 0x29C JUMPI DUP1 PUSH1 0x3 NOT CALLDATASIZE ADD SLT PUSH2 0x29C JUMPI DUP1 DUP1 MSTORE DUP1 PUSH1 0x20 MSTORE PUSH1 0x40 DUP2 KECCAK256 CALLER DUP3 MSTORE PUSH1 0x20 MSTORE PUSH2 0x13DA PUSH1 0xFF PUSH1 0x40 DUP4 KECCAK256 SLOAD AND PUSH2 0x241F JUMP JUMPDEST PUSH2 0x13E2 PUSH2 0x25C8 JUMP JUMPDEST PUSH1 0x1 PUSH1 0xFF NOT PUSH1 0x2 SLOAD AND OR PUSH1 0x2 SSTORE PUSH32 0x62E78CEA01BEE320CD4E420270B5EA74000D11B0C9F74754EBDBFC544B05A258 PUSH1 0x20 PUSH1 0x40 MLOAD CALLER DUP2 MSTORE LOG1 DUP1 RETURN JUMPDEST CALLVALUE PUSH2 0x29C JUMPI PUSH1 0x20 CALLDATASIZE PUSH1 0x3 NOT ADD SLT PUSH2 0x29C JUMPI PUSH1 0x4 CALLDATALOAD DUP2 DUP1 MSTORE DUP2 PUSH1 0x20 MSTORE PUSH1 0x40 DUP3 KECCAK256 CALLER DUP4 MSTORE PUSH1 0x20 MSTORE PUSH2 0x1451 PUSH1 0xFF PUSH1 0x40 DUP5 KECCAK256 SLOAD AND PUSH2 0x241F JUMP JUMPDEST PUSH1 0x3C DUP2 LT ISZERO DUP1 PUSH2 0x14D1 JUMPI JUMPDEST ISZERO PUSH2 0x149B JUMPI PUSH1 0x40 PUSH32 0xD377B1DC1F911F261AC96273F0011B33578119B6F87A37A787FC6FA3BA066DE4 SWAP2 PUSH1 0x3 SLOAD SWAP1 DUP1 PUSH1 0x3 SSTORE DUP3 MLOAD SWAP2 DUP3 MSTORE PUSH1 0x20 DUP3 ADD MSTORE LOG1 DUP1 RETURN JUMPDEST PUSH1 0x40 MLOAD PUSH3 0x461BCD PUSH1 0xE5 SHL DUP2 MSTORE PUSH1 0x20 PUSH1 0x4 DUP3 ADD MSTORE PUSH1 0xE PUSH1 0x24 DUP3 ADD MSTORE PUSH14 0x496E76616C69642077696E646F77 PUSH1 0x90 SHL PUSH1 0x44 DUP3 ADD MSTORE PUSH1 0x64 SWAP1 REVERT JUMPDEST POP PUSH2 0xE10 DUP2 GT ISZERO PUSH2 0x145C JUMP JUMPDEST CALLVALUE PUSH2 0x29C JUMPI PUSH1 0x20 CALLDATASIZE PUSH1 0x3 NOT ADD SLT PUSH2 0x29C JUMPI PUSH1 0x4 CALLDATALOAD DUP2 DUP1 MSTORE DUP2 PUSH1 0x20 MSTORE PUSH1 0x40 DUP3 KECCAK256 CALLER DUP4 MSTORE PUSH1 0x20 MSTORE PUSH2 0x1512 PUSH1 0xFF PUSH1 0x40 DUP5 KECCAK256 SLOAD AND PUSH2 0x241F JUMP JUMPDEST DUP1 ISZERO PUSH2 0x1552 JUMPI PUSH1 0x40 PUSH32 0x3F0A47B6CB75D94633850C9A242C4CDB5876A35FC86C211A1F4F633CC37BA8ED SWAP2 PUSH1 0x4 SLOAD SWAP1 DUP1 PUSH1 0x4 SSTORE DUP3 MLOAD SWAP2 DUP3 MSTORE PUSH1 0x20 DUP3 ADD MSTORE LOG1 DUP1 RETURN JUMPDEST PUSH1 0x40 MLOAD PUSH3 0x461BCD PUSH1 0xE5 SHL DUP2 MSTORE PUSH1 0x20 PUSH1 0x4 DUP3 ADD MSTORE PUSH1 0xD PUSH1 0x24 DUP3 ADD MSTORE PUSH13 0x496E76616C6964207072696365 PUSH1 0x98 SHL PUSH1 0x44 DUP3 ADD MSTORE PUSH1 0x64 SWAP1 REVERT JUMPDEST CALLVALUE PUSH2 0x29C JUMPI DUP1 PUSH1 0x3 NOT CALLDATASIZE ADD SLT PUSH2 0x29C JUMPI PUSH1 0x40 MLOAD PUSH32 0x0 PUSH1 0x1 PUSH1 0x1 PUSH1 0xA0 SHL SUB AND DUP2 MSTORE PUSH1 0x20 SWAP1 RETURN JUMPDEST CALLVALUE PUSH2 0x29C JUMPI DUP1 PUSH1 0x3 NOT CALLDATASIZE ADD SLT PUSH2 0x29C JUMPI PUSH1 0x20 PUSH1 0x40 MLOAD PUSH32 0x0 DUP2 MSTORE RETURN JUMPDEST CALLVALUE PUSH2 0x29C JUMPI DUP1 PUSH1 0x3 NOT CALLDATASIZE ADD SLT PUSH2 0x29C JUMPI PUSH1 0x2 SLOAD PUSH1 0x40 MLOAD PUSH1 0x8 SWAP2 SWAP1 SWAP2 SHR PUSH1 0x1 PUSH1 0x1 PUSH1 0xA0 SHL SUB AND DUP2 MSTORE PUSH1 0x20 SWAP1 RETURN JUMPDEST CALLVALUE PUSH2 0x29C JUMPI DUP1 PUSH1 0x3 NOT CALLDATASIZE ADD SLT PUSH2 0x29C JUMPI PUSH1 0x40 MLOAD PUSH32 0x0 PUSH1 0x1 PUSH1 0x1 PUSH1 0xA0 SHL SUB AND DUP2 MSTORE PUSH1 0x20 SWAP1 RETURN JUMPDEST CALLVALUE PUSH2 0x29C JUMPI DUP1 PUSH1 0x3 NOT CALLDATASIZE ADD SLT PUSH2 0x29C JUMPI PUSH1 0x20 PUSH1 0xFF PUSH1 0x2 SLOAD AND PUSH1 0x40 MLOAD SWAP1 ISZERO ISZERO DUP2 MSTORE RETURN JUMPDEST CALLVALUE PUSH2 0x29C JUMPI PUSH1 0xE0 CALLDATASIZE PUSH1 0x3 NOT ADD SLT PUSH2 0x29C JUMPI PUSH1 0x1 PUSH1 0x1 PUSH1 0x40 SHL SUB PUSH1 0x4 CALLDATALOAD GT PUSH2 0x29C JUMPI CALLDATASIZE PUSH1 0x23 PUSH1 0x4 CALLDATALOAD ADD SLT ISZERO PUSH2 0x29C JUMPI PUSH1 0x1 PUSH1 0x1 PUSH1 0x40 SHL SUB PUSH1 0x4 CALLDATALOAD PUSH1 0x4 ADD CALLDATALOAD GT PUSH2 0x29C JUMPI CALLDATASIZE PUSH1 0x24 PUSH1 0x4 CALLDATALOAD PUSH1 0x4 ADD CALLDATALOAD PUSH1 0x4 CALLDATALOAD ADD ADD GT PUSH2 0x29C JUMPI PUSH2 0xFFFF SWAP1 PUSH1 0x64 CALLDATALOAD DUP3 DUP2 AND DUP2 SUB PUSH2 0x46C JUMPI PUSH1 0x84 CALLDATALOAD SWAP1 PUSH1 0x1 PUSH1 0x1 PUSH1 0x40 SHL SUB DUP3 AND DUP3 SUB PUSH2 0x1B85 JUMPI PUSH1 0xA4 CALLDATALOAD SWAP4 PUSH1 0x1 PUSH1 0x1 PUSH1 0x40 SHL SUB DUP6 AND DUP6 SUB PUSH2 0x1393 JUMPI PUSH1 0xC4 CALLDATALOAD DUP2 DUP2 AND DUP2 SUB PUSH2 0xD4E JUMPI DUP5 DUP1 MSTORE DUP5 PUSH1 0x20 MSTORE PUSH1 0x40 DUP6 KECCAK256 CALLER DUP7 MSTORE PUSH1 0x20 MSTORE PUSH2 0x1752 PUSH1 0xFF PUSH1 0x40 DUP8 KECCAK256 SLOAD AND PUSH2 0x241F JUMP JUMPDEST PUSH2 0x175A PUSH2 0x25C8 JUMP JUMPDEST PUSH1 0x4 CALLDATALOAD PUSH1 0x4 ADD CALLDATALOAD ISZERO ISZERO DUP1 PUSH2 0x1B7A JUMPI JUMPDEST DUP1 PUSH2 0x1B6F JUMPI JUMPDEST DUP1 PUSH2 0x1B61 JUMPI JUMPDEST DUP1 PUSH2 0x1B53 JUMPI JUMPDEST DUP1 PUSH2 0x1B41 JUMPI JUMPDEST ISZERO PUSH2 0x1B0B JUMPI PUSH1 0x6 SLOAD SWAP4 PUSH2 0x1793 DUP6 PUSH2 0x2457 JUMP JUMPDEST PUSH1 0x6 SSTORE PUSH1 0x40 MLOAD PUSH2 0x17A2 DUP2 PUSH2 0x247C JUMP JUMPDEST PUSH1 0x24 CALLDATALOAD DUP2 MSTORE PUSH1 0x44 CALLDATALOAD PUSH1 0x20 DUP3 ADD MSTORE PUSH1 0x1 PUSH1 0x1 PUSH1 0x40 SHL SUB DUP3 AND PUSH1 0x40 DUP3 ADD MSTORE PUSH1 0x1 PUSH1 0x1 PUSH1 0x40 SHL SUB DUP9 AND PUSH1 0x60 DUP3 ADD MSTORE DUP4 DUP6 AND PUSH1 0x80 DUP3 ADD MSTORE DUP4 DUP4 AND PUSH1 0xA0 DUP3 ADD MSTORE PUSH1 0x1 PUSH1 0xC0 DUP3 ADD MSTORE PUSH1 0x1 PUSH1 0xE0 DUP3 ADD MSTORE PUSH2 0x17FA PUSH1 0x4 CALLDATALOAD PUSH1 0x4 ADD CALLDATALOAD PUSH2 0x24FD JUMP JUMPDEST PUSH2 0x1807 PUSH1 0x40 MLOAD SWAP2 DUP3 PUSH2 0x24DC JUMP JUMPDEST PUSH1 0x4 DUP1 CALLDATALOAD SWAP1 DUP2 ADD CALLDATALOAD DUP1 DUP4 MSTORE SWAP1 PUSH1 0x24 ADD PUSH1 0x20 DUP4 ADD CALLDATACOPY DUP8 PUSH1 0x20 PUSH1 0x4 CALLDATALOAD PUSH1 0x4 ADD CALLDATALOAD DUP4 ADD ADD MSTORE PUSH2 0x100 DUP3 ADD SWAP1 DUP2 MSTORE DUP7 DUP9 MSTORE PUSH1 0x8 PUSH1 0x20 MSTORE PUSH1 0x40 DUP9 KECCAK256 SWAP2 DUP1 MLOAD DUP4 SSTORE PUSH1 0x20 DUP2 ADD MLOAD PUSH1 0x1 DUP5 ADD SSTORE PUSH1 0xE0 PUSH1 0x2 DUP5 ADD SWAP2 PUSH1 0x1 PUSH1 0x1 PUSH1 0x40 SHL SUB PUSH1 0x40 DUP3 ADD MLOAD AND DUP4 SLOAD SWAP1 PUSH16 0xFFFFFFFFFFFFFFFF0000000000000000 PUSH1 0x60 DUP5 ADD MLOAD PUSH1 0x40 SHL AND PUSH2 0xFFFF PUSH1 0x80 SHL PUSH1 0x80 DUP6 ADD MLOAD PUSH1 0x80 SHL AND SWAP2 PUSH2 0xFFFF PUSH1 0x90 SHL PUSH1 0xA0 DUP7 ADD MLOAD PUSH1 0x90 SHL AND SWAP4 PUSH12 0xFFFFFFFFFFFFFFFFFFFFFFFF PUSH1 0xA0 SHL AND OR OR OR OR DUP4 SSTORE PUSH2 0x18DD PUSH1 0xC0 DUP3 ADD MLOAD ISZERO ISZERO DUP5 SWAP1 DUP2 SLOAD SWAP1 PUSH1 0xFF PUSH1 0xA0 SHL SWAP1 ISZERO ISZERO PUSH1 0xA0 SHL AND SWAP1 PUSH1 0xFF PUSH1 0xA0 SHL NOT AND OR SWAP1 SSTORE JUMP JUMPDEST ADD MLOAD DUP2 SLOAD PUSH1 0xFF PUSH1 0xA8 SHL NOT AND SWAP1 ISZERO ISZERO PUSH1 0xA8 SHL PUSH1 0xFF PUSH1 0xA8 SHL AND OR SWAP1 SSTORE MLOAD DUP1 MLOAD SWAP1 PUSH1 0x1 PUSH1 0x1 PUSH1 0x40 SHL SUB DUP3 GT PUSH2 0x1AF7 JUMPI PUSH2 0x1916 PUSH1 0x3 DUP5 ADD SLOAD PUSH2 0x2518 JUMP JUMPDEST PUSH1 0x1F DUP2 GT PUSH2 0x1AB3 JUMPI JUMPDEST POP PUSH1 0x20 SWAP1 PUSH1 0x1F DUP4 GT PUSH1 0x1 EQ PUSH2 0x1A4A JUMPI PUSH1 0x3 SWAP3 SWAP2 DUP11 SWAP2 DUP4 PUSH2 0x1A3F JUMPI JUMPDEST POP POP DUP2 PUSH1 0x1 SHL SWAP2 PUSH1 0x0 NOT SWAP1 DUP5 SHL SHR NOT AND OR SWAP2 ADD SSTORE JUMPDEST PUSH1 0x7 SLOAD PUSH1 0x1 PUSH1 0x40 SHL DUP2 LT ISZERO PUSH2 0x1A2B JUMPI SWAP7 PUSH1 0x1 PUSH1 0x1 PUSH1 0x40 SHL SUB DUP1 SWAP3 PUSH2 0x199C DUP11 PUSH1 0x1 PUSH32 0x38A9B0861AF6EDA42482A0E46839A625D911229840556475B544BC0BB1C5A66D SWAP11 SWAP12 SWAP13 ADD PUSH1 0x7 SSTORE PUSH2 0x2552 JUMP JUMPDEST DUP2 SLOAD SWAP1 PUSH1 0x3 SHL SWAP1 DUP12 DUP3 SHL SWAP2 PUSH1 0x0 NOT SWAP1 SHL NOT AND OR SWAP1 SSTORE DUP6 PUSH1 0x40 MLOAD SWAP8 PUSH1 0xE0 DUP10 MSTORE PUSH1 0x4 CALLDATALOAD PUSH1 0x4 ADD CALLDATALOAD PUSH1 0xE0 DUP11 ADD MSTORE PUSH1 0x4 CALLDATALOAD PUSH1 0x4 ADD CALLDATALOAD PUSH1 0x24 PUSH1 0x4 CALLDATALOAD ADD PUSH2 0x100 DUP12 ADD CALLDATACOPY DUP12 PUSH2 0x100 PUSH1 0x4 CALLDATALOAD PUSH1 0x4 ADD CALLDATALOAD DUP12 ADD ADD MSTORE PUSH1 0x24 CALLDATALOAD PUSH1 0x20 DUP11 ADD MSTORE PUSH1 0x44 CALLDATALOAD PUSH1 0x40 DUP11 ADD MSTORE AND PUSH1 0x60 DUP9 ADD MSTORE AND PUSH1 0x80 DUP7 ADD MSTORE AND PUSH1 0xA0 DUP5 ADD MSTORE AND PUSH1 0xC0 DUP3 ADD MSTORE PUSH2 0x100 DUP2 PUSH1 0x1F NOT PUSH1 0x1F PUSH1 0x4 CALLDATALOAD PUSH1 0x4 ADD CALLDATALOAD ADD AND DUP2 ADD SUB ADD SWAP1 LOG2 DUP1 RETURN JUMPDEST PUSH4 0x4E487B71 PUSH1 0xE0 SHL DUP8 MSTORE PUSH1 0x41 PUSH1 0x4 MSTORE PUSH1 0x24 DUP8 REVERT JUMPDEST ADD MLOAD SWAP1 POP DUP12 DUP1 PUSH2 0x193A JUMP JUMPDEST PUSH1 0x3 DUP5 ADD DUP11 MSTORE PUSH1 0x20 DUP11 KECCAK256 SWAP2 SWAP1 PUSH1 0x1F NOT DUP5 AND DUP12 JUMPDEST DUP2 DUP2 LT PUSH2 0x1A9B JUMPI POP SWAP2 PUSH1 0x1 SWAP4 SWAP2 DUP6 PUSH1 0x3 SWAP7 SWAP5 LT PUSH2 0x1A83 JUMPI JUMPDEST POP POP POP DUP2 SHL ADD SWAP2 ADD SSTORE PUSH2 0x194F JUMP JUMPDEST ADD MLOAD PUSH1 0x0 NOT DUP4 DUP7 SHL PUSH1 0xF8 AND SHR NOT AND SWAP1 SSTORE DUP12 DUP1 DUP1 PUSH2 0x1A75 JUMP JUMPDEST SWAP3 SWAP4 PUSH1 0x20 PUSH1 0x1 DUP2 SWAP3 DUP8 DUP7 ADD MLOAD DUP2 SSTORE ADD SWAP6 ADD SWAP4 ADD PUSH2 0x1A5D JUMP JUMPDEST PUSH1 0x3 DUP5 ADD DUP11 MSTORE PUSH1 0x20 DUP11 KECCAK256 PUSH1 0x1F DUP5 ADD PUSH1 0x5 SHR DUP2 ADD PUSH1 0x20 DUP6 LT PUSH2 0x1AF0 JUMPI JUMPDEST PUSH1 0x1F DUP4 ADD PUSH1 0x5 SHR DUP3 ADD DUP2 LT PUSH2 0x1AE5 JUMPI POP POP PUSH2 0x191F JUMP JUMPDEST DUP12 DUP2 SSTORE PUSH1 0x1 ADD PUSH2 0x1ACF JUMP JUMPDEST POP DUP1 PUSH2 0x1ACF JUMP JUMPDEST PUSH4 0x4E487B71 PUSH1 0xE0 SHL DUP10 MSTORE PUSH1 0x41 PUSH1 0x4 MSTORE PUSH1 0x24 DUP10 REVERT JUMPDEST PUSH1 0x40 MLOAD PUSH3 0x461BCD PUSH1 0xE5 SHL DUP2 MSTORE PUSH1 0x20 PUSH1 0x4 DUP3 ADD MSTORE PUSH1 0xE PUSH1 0x24 DUP3 ADD MSTORE PUSH14 0x496E76616C696420706172616D73 PUSH1 0x90 SHL PUSH1 0x44 DUP3 ADD MSTORE PUSH1 0x64 SWAP1 REVERT JUMPDEST POP PUSH1 0x1 PUSH1 0x1 PUSH1 0x40 SHL SUB DUP7 AND ISZERO ISZERO PUSH2 0x1781 JUMP JUMPDEST POP PUSH2 0x3E8 DUP3 DUP3 AND GT ISZERO PUSH2 0x177B JUMP JUMPDEST POP PUSH2 0x2710 DUP3 DUP5 AND GT ISZERO PUSH2 0x1775 JUMP JUMPDEST POP PUSH1 0x44 CALLDATALOAD ISZERO ISZERO PUSH2 0x176F JUMP JUMPDEST POP PUSH1 0x24 CALLDATALOAD ISZERO ISZERO PUSH2 0x1769 JUMP JUMPDEST DUP3 DUP1 REVERT JUMPDEST CALLVALUE PUSH2 0x29C JUMPI PUSH1 0x20 CALLDATASIZE PUSH1 0x3 NOT ADD SLT PUSH2 0x29C JUMPI PUSH1 0x40 PUSH2 0x120 SWAP2 PUSH2 0x1BA8 PUSH2 0x2129 JUMP JUMPDEST PUSH2 0x1BB0 PUSH2 0x2A11 JUMP JUMPDEST POP PUSH1 0x1 PUSH1 0x1 PUSH1 0xA0 SHL SUB AND DUP2 MSTORE PUSH1 0x9 PUSH1 0x20 MSTORE KECCAK256 PUSH1 0x40 MLOAD PUSH2 0x1BCE DUP2 PUSH2 0x247C JUMP JUMPDEST DUP2 SLOAD SWAP2 DUP3 DUP3 MSTORE PUSH1 0x1 DUP2 ADD SLOAD SWAP1 PUSH1 0x20 DUP4 ADD SWAP2 DUP3 MSTORE PUSH1 0x2 DUP2 ADD SLOAD PUSH1 0x40 DUP5 ADD SWAP1 DUP2 MSTORE PUSH1 0x3 DUP3 ADD SLOAD PUSH1 0x60 DUP6 ADD SWAP1 DUP2 MSTORE PUSH1 0x4 DUP4 ADD SLOAD PUSH1 0x80 DUP7 ADD SWAP1 DUP2 MSTORE PUSH1 0x5 DUP5 ADD SLOAD SWAP2 PUSH1 0xA0 DUP8 ADD SWAP3 DUP4 MSTORE PUSH1 0x6 DUP6 ADD SLOAD SWAP4 PUSH1 0xC0 DUP9 ADD SWAP5 DUP6 MSTORE PUSH1 0x8 PUSH1 0x7 DUP8 ADD SLOAD SWAP7 PUSH1 0xE0 DUP11 ADD SWAP8 DUP9 MSTORE ADD SLOAD SWAP7 PUSH2 0x100 DUP1 SWAP10 ADD SWAP8 DUP9 MSTORE PUSH1 0x40 MLOAD SWAP10 DUP11 MSTORE MLOAD PUSH1 0x20 DUP11 ADD MSTORE MLOAD PUSH1 0x40 DUP10 ADD MSTORE MLOAD PUSH1 0x60 DUP9 ADD MSTORE MLOAD PUSH1 0x80 DUP8 ADD MSTORE MLOAD PUSH1 0xA0 DUP7 ADD MSTORE MLOAD PUSH1 0xC0 DUP6 ADD MSTORE MLOAD PUSH1 0xE0 DUP5 ADD MSTORE MLOAD SWAP1 DUP3 ADD MSTORE RETURN JUMPDEST CALLVALUE PUSH2 0x29C JUMPI DUP1 PUSH1 0x3 NOT CALLDATASIZE ADD SLT PUSH2 0x29C JUMPI PUSH1 0x40 MLOAD PUSH32 0x0 PUSH1 0x1 PUSH1 0x1 PUSH1 0xA0 SHL SUB AND DUP2 MSTORE PUSH1 0x20 SWAP1 RETURN JUMPDEST CALLVALUE PUSH2 0x29C JUMPI PUSH1 0x40 CALLDATASIZE PUSH1 0x3 NOT ADD SLT PUSH2 0x29C JUMPI PUSH2 0x1CCE PUSH2 0x2129 JUMP JUMPDEST SWAP1 PUSH1 0x24 CALLDATALOAD SWAP2 PUSH2 0x1CDB PUSH2 0x2A11 JUMP JUMPDEST POP PUSH1 0x1 PUSH1 0x1 PUSH1 0xA0 SHL SUB AND DUP1 DUP3 MSTORE PUSH1 0xA PUSH1 0x20 MSTORE PUSH1 0x40 DUP3 KECCAK256 SLOAD SWAP1 SWAP2 SWAP1 DUP4 LT ISZERO PUSH2 0x1D2C JUMPI PUSH2 0x120 SWAP3 PUSH1 0x40 DUP3 PUSH2 0x1D1D SWAP5 PUSH2 0x1D17 SWAP5 MSTORE PUSH1 0xA PUSH1 0x20 MSTORE KECCAK256 PUSH2 0x2AC4 JUMP JUMPDEST POP PUSH2 0x2A56 JUMP JUMPDEST PUSH2 0x1D2A PUSH1 0x40 MLOAD DUP1 SWAP3 PUSH2 0x213F JUMP JUMPDEST RETURN JUMPDEST PUSH1 0x40 MLOAD PUSH3 0x461BCD PUSH1 0xE5 SHL DUP2 MSTORE PUSH1 0x20 PUSH1 0x4 DUP3 ADD MSTORE PUSH1 0xD PUSH1 0x24 DUP3 ADD MSTORE PUSH13 0x92DCECC2D8D2C840D2DCC8CAF PUSH1 0x9B SHL PUSH1 0x44 DUP3 ADD MSTORE PUSH1 0x64 SWAP1 REVERT JUMPDEST CALLVALUE PUSH2 0x29C JUMPI DUP1 PUSH1 0x3 NOT CALLDATASIZE ADD SLT PUSH2 0x29C JUMPI DUP1 DUP1 MSTORE DUP1 PUSH1 0x20 MSTORE PUSH1 0x40 DUP2 KECCAK256 CALLER DUP3 MSTORE PUSH1 0x20 MSTORE PUSH2 0x1D92 PUSH1 0xFF PUSH1 0x40 DUP4 KECCAK256 SLOAD AND PUSH2 0x241F JUMP JUMPDEST PUSH1 0x2 SLOAD PUSH1 0xFF DUP2 AND ISZERO PUSH2 0x1DD2 JUMPI PUSH1 0xFF NOT AND PUSH1 0x2 SSTORE PUSH32 0x5DB9EE0A495BF2E6FF9C91A7834C1BA4FDD244A5E8AA4E537BD38AEAE4B073AA PUSH1 0x20 PUSH1 0x40 MLOAD CALLER DUP2 MSTORE LOG1 DUP1 RETURN JUMPDEST PUSH1 0x40 MLOAD PUSH4 0x8DFC202B PUSH1 0xE0 SHL DUP2 MSTORE PUSH1 0x4 SWAP1 REVERT JUMPDEST CALLVALUE PUSH2 0x29C JUMPI PUSH1 0x40 CALLDATASIZE PUSH1 0x3 NOT ADD SLT PUSH2 0x29C JUMPI PUSH2 0x1DFD PUSH2 0x210E JUMP JUMPDEST CALLER PUSH1 0x1 PUSH1 0x1 PUSH1 0xA0 SHL SUB DUP3 AND SUB PUSH2 0x1E19 JUMPI PUSH2 0xB17 SWAP1 PUSH1 0x4 CALLDATALOAD PUSH2 0x23AA JUMP JUMPDEST PUSH1 0x40 MLOAD PUSH4 0x334BD919 PUSH1 0xE1 SHL DUP2 MSTORE PUSH1 0x4 SWAP1 REVERT JUMPDEST CALLVALUE PUSH2 0x29C JUMPI DUP1 PUSH1 0x3 NOT CALLDATASIZE ADD SLT PUSH2 0x29C JUMPI PUSH1 0x40 MLOAD PUSH32 0x0 PUSH1 0x1 PUSH1 0x1 PUSH1 0xA0 SHL SUB AND DUP2 MSTORE PUSH1 0x20 SWAP1 RETURN JUMPDEST CALLVALUE PUSH2 0x29C JUMPI PUSH1 0x40 CALLDATASIZE PUSH1 0x3 NOT ADD SLT PUSH2 0x29C JUMPI PUSH2 0xB17 PUSH1 0x4 CALLDATALOAD PUSH2 0x1E8E PUSH2 0x210E JUMP JUMPDEST SWAP1 DUP1 DUP5 MSTORE DUP4 PUSH1 0x20 MSTORE PUSH2 0x1EA6 PUSH1 0x1 PUSH1 0x40 DUP7 KECCAK256 ADD SLOAD PUSH2 0x2306 JUMP JUMPDEST PUSH2 0x232C JUMP JUMPDEST CALLVALUE PUSH2 0x29C JUMPI DUP1 PUSH1 0x3 NOT CALLDATASIZE ADD SLT PUSH2 0x29C JUMPI PUSH1 0x40 MLOAD DUP1 SWAP2 DUP3 PUSH1 0x7 SLOAD DUP1 DUP5 MSTORE PUSH1 0x20 DUP1 SWAP5 ADD SWAP1 PUSH1 0x7 DUP5 MSTORE PUSH32 0xA66CC928B5EDB82AF9BD49922954155AB7B0942694BEA4CE44661D9A8736C688 SWAP4 JUMPDEST DUP6 DUP3 DUP3 LT PUSH2 0x1F1F JUMPI POP POP POP PUSH2 0x1F0B SWAP3 POP SUB DUP4 PUSH2 0x24DC JUMP JUMPDEST PUSH2 0xBE0 PUSH1 0x40 MLOAD SWAP3 DUP3 DUP5 SWAP4 DUP5 MSTORE DUP4 ADD SWAP1 PUSH2 0x20DA JUMP JUMPDEST DUP6 SLOAD DUP5 MSTORE PUSH1 0x1 SWAP6 DUP7 ADD SWAP6 DUP9 SWAP6 POP SWAP4 ADD SWAP3 ADD PUSH2 0x1EF4 JUMP JUMPDEST CALLVALUE PUSH2 0x29C JUMPI PUSH1 0x20 CALLDATASIZE PUSH1 0x3 NOT ADD SLT PUSH2 0x29C JUMPI PUSH1 0x1 PUSH1 0x40 PUSH1 0x20 SWAP3 PUSH1 0x4 CALLDATALOAD DUP2 MSTORE DUP1 DUP5 MSTORE KECCAK256 ADD SLOAD PUSH1 0x40 MLOAD SWAP1 DUP2 MSTORE RETURN JUMPDEST CALLVALUE PUSH2 0x29C JUMPI DUP1 PUSH1 0x3 NOT CALLDATASIZE ADD SLT PUSH2 0x29C JUMPI PUSH1 0x40 PUSH2 0x1F7A PUSH2 0x2690 JUMP JUMPDEST DUP3 MLOAD SWAP2 DUP3 MSTORE ISZERO ISZERO PUSH1 0x20 DUP3 ADD MSTORE RETURN JUMPDEST CALLVALUE PUSH2 0x29C JUMPI DUP1 PUSH1 0x3 NOT CALLDATASIZE ADD SLT PUSH2 0x29C JUMPI PUSH1 0x20 PUSH1 0x40 MLOAD PUSH32 0xA8A7BC421F721CB936EA99EFDAD79237E6EE0B871A2A08CF648691F9584CDC77 DUP2 MSTORE RETURN JUMPDEST CALLVALUE PUSH2 0x29C JUMPI DUP1 PUSH1 0x3 NOT CALLDATASIZE ADD SLT PUSH2 0x29C JUMPI PUSH1 0x20 PUSH1 0x4 SLOAD PUSH1 0x40 MLOAD SWAP1 DUP2 MSTORE RETURN JUMPDEST CALLVALUE PUSH2 0x29C JUMPI PUSH1 0x20 CALLDATASIZE PUSH1 0x3 NOT ADD SLT PUSH2 0x29C JUMPI PUSH1 0x4 CALLDATALOAD DUP2 DUP1 MSTORE DUP2 PUSH1 0x20 MSTORE PUSH1 0x40 DUP3 KECCAK256 CALLER DUP4 MSTORE PUSH1 0x20 MSTORE PUSH2 0x2014 PUSH1 0xFF PUSH1 0x40 DUP5 KECCAK256 SLOAD AND PUSH2 0x241F JUMP JUMPDEST PUSH2 0x7D0 DUP2 GT PUSH2 0x2057 JUMPI PUSH1 0x40 PUSH32 0xDDD31550B26E9EF8ADE466958BE83FF8A014D9B4F36D546B61A6847A45306575 SWAP2 PUSH1 0x5 SLOAD SWAP1 DUP1 PUSH1 0x5 SSTORE DUP3 MLOAD SWAP2 DUP3 MSTORE PUSH1 0x20 DUP3 ADD MSTORE LOG1 DUP1 RETURN JUMPDEST PUSH1 0x40 MLOAD PUSH3 0x461BCD PUSH1 0xE5 SHL DUP2 MSTORE PUSH1 0x20 PUSH1 0x4 DUP3 ADD MSTORE PUSH1 0x8 PUSH1 0x24 DUP3 ADD MSTORE PUSH8 0xA8DEDE40D0D2CED PUSH1 0xC3 SHL PUSH1 0x44 DUP3 ADD MSTORE PUSH1 0x64 SWAP1 REVERT JUMPDEST CALLVALUE PUSH2 0x46C JUMPI PUSH1 0x20 CALLDATASIZE PUSH1 0x3 NOT ADD SLT PUSH2 0x46C JUMPI PUSH1 0x4 CALLDATALOAD PUSH4 0xFFFFFFFF PUSH1 0xE0 SHL DUP2 AND DUP1 SWAP2 SUB PUSH2 0x1B85 JUMPI PUSH1 0x20 SWAP3 POP PUSH4 0x7965DB0B PUSH1 0xE0 SHL DUP2 EQ SWAP1 DUP2 ISZERO PUSH2 0x20C9 JUMPI JUMPDEST POP ISZERO ISZERO DUP2 MSTORE RETURN JUMPDEST PUSH4 0x1FFC9A7 PUSH1 0xE0 SHL EQ SWAP1 POP DUP4 PUSH2 0x20C2 JUMP JUMPDEST SWAP1 DUP2 MLOAD DUP1 DUP3 MSTORE PUSH1 0x20 DUP1 DUP1 SWAP4 ADD SWAP4 ADD SWAP2 PUSH1 0x0 JUMPDEST DUP3 DUP2 LT PUSH2 0x20FA JUMPI POP POP POP POP SWAP1 JUMP JUMPDEST DUP4 MLOAD DUP6 MSTORE SWAP4 DUP2 ADD SWAP4 SWAP3 DUP2 ADD SWAP3 PUSH1 0x1 ADD PUSH2 0x20EC JUMP JUMPDEST PUSH1 0x24 CALLDATALOAD SWAP1 PUSH1 0x1 PUSH1 0x1 PUSH1 0xA0 SHL SUB DUP3 AND DUP3 SUB PUSH2 0x2124 JUMPI JUMP JUMPDEST PUSH1 0x0 DUP1 REVERT JUMPDEST PUSH1 0x4 CALLDATALOAD SWAP1 PUSH1 0x1 PUSH1 0x1 PUSH1 0xA0 SHL SUB DUP3 AND DUP3 SUB PUSH2 0x2124 JUMPI JUMP JUMPDEST DUP1 MLOAD DUP3 MSTORE PUSH1 0x20 DUP2 ADD MLOAD PUSH1 0x20 DUP4 ADD MSTORE PUSH1 0x40 DUP2 ADD MLOAD PUSH1 0x40 DUP4 ADD MSTORE PUSH1 0x60 DUP2 ADD MLOAD PUSH1 0x60 DUP4 ADD MSTORE PUSH1 0x80 DUP2 ADD MLOAD PUSH1 0x80 DUP4 ADD MSTORE PUSH1 0xA0 DUP2 ADD MLOAD PUSH1 0xA0 DUP4 ADD MSTORE PUSH1 0x1 DUP1 PUSH1 0xA0 SHL SUB PUSH1 0xC0 DUP3 ADD MLOAD AND PUSH1 0xC0 DUP4 ADD MSTORE PUSH1 0xE0 DUP2 ADD MLOAD PUSH1 0xE0 DUP4 ADD MSTORE PUSH2 0x100 DUP1 SWAP2 ADD MLOAD SWAP2 ADD MSTORE JUMP JUMPDEST CALLVALUE PUSH2 0x2124 JUMPI PUSH1 0x0 CALLDATASIZE PUSH1 0x3 NOT ADD SLT PUSH2 0x2124 JUMPI PUSH1 0x20 PUSH1 0x40 MLOAD PUSH1 0x0 DUP2 MSTORE RETURN JUMPDEST CALLVALUE PUSH2 0x2124 JUMPI PUSH1 0x20 CALLDATASIZE PUSH1 0x3 NOT ADD SLT PUSH2 0x2124 JUMPI PUSH1 0x1 PUSH1 0x1 PUSH1 0xA0 SHL SUB PUSH2 0x21DA PUSH2 0x2129 JUMP JUMPDEST AND PUSH1 0x0 MSTORE PUSH1 0xA PUSH1 0x20 MSTORE PUSH1 0x20 PUSH1 0x40 PUSH1 0x0 KECCAK256 SLOAD PUSH1 0x40 MLOAD SWAP1 DUP2 MSTORE RETURN JUMPDEST SWAP2 SWAP1 DUP3 MLOAD SWAP3 DUP4 DUP3 MSTORE PUSH1 0x0 JUMPDEST DUP5 DUP2 LT PUSH2 0x221F JUMPI POP POP DUP3 PUSH1 0x0 PUSH1 0x20 DUP1 SWAP5 SWAP6 DUP5 ADD ADD MSTORE PUSH1 0x1F DUP1 NOT SWAP2 ADD AND ADD ADD SWAP1 JUMP JUMPDEST PUSH1 0x20 DUP2 DUP4 ADD DUP2 ADD MLOAD DUP5 DUP4 ADD DUP3 ADD MSTORE ADD PUSH2 0x21FE JUMP JUMPDEST CALLVALUE PUSH2 0x2124 JUMPI PUSH1 0x20 DUP1 PUSH1 0x3 NOT CALLDATASIZE ADD SLT PUSH2 0x2124 JUMPI PUSH1 0x1 PUSH1 0x1 PUSH1 0xA0 SHL SUB PUSH2 0x2255 PUSH2 0x2129 JUMP JUMPDEST AND SWAP1 PUSH1 0x0 SWAP2 DUP3 MSTORE PUSH1 0xA DUP2 MSTORE PUSH1 0x40 DUP3 KECCAK256 DUP1 SLOAD PUSH2 0x226F DUP2 PUSH2 0x29FA JUMP JUMPDEST SWAP1 PUSH2 0x227D PUSH1 0x40 MLOAD SWAP3 DUP4 PUSH2 0x24DC JUMP JUMPDEST DUP1 DUP3 MSTORE DUP4 DUP3 ADD DUP1 SWAP4 DUP7 MSTORE DUP5 DUP7 KECCAK256 DUP7 SWAP2 JUMPDEST DUP4 DUP4 LT PUSH2 0x22DF JUMPI POP POP POP POP PUSH1 0x40 MLOAD SWAP3 DUP1 DUP5 ADD SWAP2 DUP2 DUP6 MSTORE MLOAD DUP1 SWAP3 MSTORE PUSH1 0x40 DUP5 ADD SWAP3 SWAP5 JUMPDEST DUP3 DUP2 LT PUSH2 0x22BB JUMPI DUP5 DUP5 SUB DUP6 RETURN JUMPDEST SWAP1 SWAP2 SWAP3 DUP3 PUSH2 0x120 DUP3 PUSH2 0x22D0 PUSH1 0x1 SWAP5 DUP11 MLOAD PUSH2 0x213F JUMP JUMPDEST ADD SWAP7 ADD SWAP2 ADD SWAP5 SWAP3 SWAP2 SWAP1 SWAP5 PUSH2 0x22AE JUMP JUMPDEST PUSH1 0x9 DUP8 PUSH1 0x1 SWAP3 PUSH2 0x22F3 DUP6 SWAP12 SWAP11 SWAP9 SWAP10 SWAP12 PUSH2 0x2A56 JUMP JUMPDEST DUP2 MSTORE ADD SWAP3 ADD SWAP3 ADD SWAP2 SWAP1 SWAP7 SWAP5 SWAP4 SWAP6 SWAP7 PUSH2 0x228D JUMP JUMPDEST DUP1 PUSH1 0x0 MSTORE PUSH1 0x0 PUSH1 0x20 MSTORE PUSH1 0x40 PUSH1 0x0 KECCAK256 CALLER PUSH1 0x0 MSTORE PUSH1 0x20 MSTORE PUSH1 0xFF PUSH1 0x40 PUSH1 0x0 KECCAK256 SLOAD AND ISZERO PUSH2 0xD30 JUMPI POP JUMP JUMPDEST SWAP1 PUSH1 0x0 SWAP2 DUP1 DUP4 MSTORE DUP3 PUSH1 0x20 MSTORE PUSH1 0x40 DUP4 KECCAK256 SWAP2 PUSH1 0x1 DUP1 PUSH1 0xA0 SHL SUB AND SWAP2 DUP3 DUP5 MSTORE PUSH1 0x20 MSTORE PUSH1 0xFF PUSH1 0x40 DUP5 KECCAK256 SLOAD AND ISZERO PUSH1 0x0 EQ PUSH2 0x23A5 JUMPI DUP1 DUP4 MSTORE DUP3 PUSH1 0x20 MSTORE PUSH1 0x40 DUP4 KECCAK256 DUP3 DUP5 MSTORE PUSH1 0x20 MSTORE PUSH1 0x40 DUP4 KECCAK256 PUSH1 0x1 PUSH1 0xFF NOT DUP3 SLOAD AND OR SWAP1 SSTORE PUSH32 0x2F8788117E7EFF1D82E926EC794901D17C78024A50270940304540A733656F0D CALLER SWAP4 DUP1 LOG4 PUSH1 0x1 SWAP1 JUMP JUMPDEST POP POP SWAP1 JUMP JUMPDEST SWAP1 PUSH1 0x0 SWAP2 DUP1 DUP4 MSTORE DUP3 PUSH1 0x20 MSTORE PUSH1 0x40 DUP4 KECCAK256 SWAP2 PUSH1 0x1 DUP1 PUSH1 0xA0 SHL SUB AND SWAP2 DUP3 DUP5 MSTORE PUSH1 0x20 MSTORE PUSH1 0xFF PUSH1 0x40 DUP5 KECCAK256 SLOAD AND PUSH1 0x0 EQ PUSH2 0x23A5 JUMPI DUP1 DUP4 MSTORE DUP3 PUSH1 0x20 MSTORE PUSH1 0x40 DUP4 KECCAK256 DUP3 DUP5 MSTORE PUSH1 0x20 MSTORE PUSH1 0x40 DUP4 KECCAK256 PUSH1 0xFF NOT DUP2 SLOAD AND SWAP1 SSTORE PUSH32 0xF6391F5C32D9C69D2A47EA670B442974B53935D1EDC7FD64EB21E047A839171B CALLER SWAP4 DUP1 LOG4 PUSH1 0x1 SWAP1 JUMP JUMPDEST ISZERO PUSH2 0x2426 JUMPI JUMP JUMPDEST PUSH1 0x40 MLOAD PUSH3 0x461BCD PUSH1 0xE5 SHL DUP2 MSTORE PUSH1 0x20 PUSH1 0x4 DUP3 ADD MSTORE PUSH1 0x9 PUSH1 0x24 DUP3 ADD MSTORE PUSH9 0x2737BA1030B236B4B7 PUSH1 0xB9 SHL PUSH1 0x44 DUP3 ADD MSTORE PUSH1 0x64 SWAP1 REVERT JUMPDEST PUSH1 0x0 NOT DUP2 EQ PUSH2 0x2466 JUMPI PUSH1 0x1 ADD SWAP1 JUMP JUMPDEST PUSH4 0x4E487B71 PUSH1 0xE0 SHL PUSH1 0x0 MSTORE PUSH1 0x11 PUSH1 0x4 MSTORE PUSH1 0x24 PUSH1 0x0 REVERT JUMPDEST PUSH2 0x120 DUP2 ADD SWAP1 DUP2 LT PUSH1 0x1 PUSH1 0x1 PUSH1 0x40 SHL SUB DUP3 GT OR PUSH2 0x2498 JUMPI PUSH1 0x40 MSTORE JUMP JUMPDEST PUSH4 0x4E487B71 PUSH1 0xE0 SHL PUSH1 0x0 MSTORE PUSH1 0x41 PUSH1 0x4 MSTORE PUSH1 0x24 PUSH1 0x0 REVERT JUMPDEST PUSH1 0x1 PUSH1 0x1 PUSH1 0x40 SHL SUB DUP2 GT PUSH2 0x2498 JUMPI PUSH1 0x40 MSTORE JUMP JUMPDEST PUSH1 0x80 DUP2 ADD SWAP1 DUP2 LT PUSH1 0x1 PUSH1 0x1 PUSH1 0x40 SHL SUB DUP3 GT OR PUSH2 0x2498 JUMPI PUSH1 0x40 MSTORE JUMP JUMPDEST SWAP1 PUSH1 0x1F DUP1 NOT SWAP2 ADD AND DUP2 ADD SWAP1 DUP2 LT PUSH1 0x1 PUSH1 0x1 PUSH1 0x40 SHL SUB DUP3 GT OR PUSH2 0x2498 JUMPI PUSH1 0x40 MSTORE JUMP JUMPDEST PUSH1 0x1 PUSH1 0x1 PUSH1 0x40 SHL SUB DUP2 GT PUSH2 0x2498 JUMPI PUSH1 0x1F ADD PUSH1 0x1F NOT AND PUSH1 0x20 ADD SWAP1 JUMP JUMPDEST SWAP1 PUSH1 0x1 DUP3 DUP2 SHR SWAP3 AND DUP1 ISZERO PUSH2 0x2548 JUMPI JUMPDEST PUSH1 0x20 DUP4 LT EQ PUSH2 0x2532 JUMPI JUMP JUMPDEST PUSH4 0x4E487B71 PUSH1 0xE0 SHL PUSH1 0x0 MSTORE PUSH1 0x22 PUSH1 0x4 MSTORE PUSH1 0x24 PUSH1 0x0 REVERT JUMPDEST SWAP2 PUSH1 0x7F AND SWAP2 PUSH2 0x2527 JUMP JUMPDEST PUSH1 0x7 SLOAD DUP2 LT ISZERO PUSH2 0x2589 JUMPI PUSH1 0x7 PUSH1 0x0 MSTORE PUSH32 0xA66CC928B5EDB82AF9BD49922954155AB7B0942694BEA4CE44661D9A8736C688 ADD SWAP1 PUSH1 0x0 SWAP1 JUMP JUMPDEST PUSH4 0x4E487B71 PUSH1 0xE0 SHL PUSH1 0x0 MSTORE PUSH1 0x32 PUSH1 0x4 MSTORE PUSH1 0x24 PUSH1 0x0 REVERT JUMPDEST DUP1 SLOAD SWAP1 PUSH1 0x1 PUSH1 0x40 SHL DUP3 LT ISZERO PUSH2 0x2498 JUMPI PUSH1 0x1 DUP3 ADD DUP1 DUP3 SSTORE DUP3 LT ISZERO PUSH2 0x2589 JUMPI PUSH1 0x0 MSTORE PUSH1 0x20 PUSH1 0x0 KECCAK256 ADD SSTORE JUMP JUMPDEST PUSH1 0xFF PUSH1 0x2 SLOAD AND PUSH2 0x25D4 JUMPI JUMP JUMPDEST PUSH1 0x40 MLOAD PUSH4 0xD93C0665 PUSH1 0xE0 SHL DUP2 MSTORE PUSH1 0x4 SWAP1 REVERT JUMPDEST ISZERO PUSH2 0x25ED JUMPI JUMP JUMPDEST PUSH1 0x40 MLOAD PUSH3 0x461BCD PUSH1 0xE5 SHL DUP2 MSTORE PUSH1 0x20 PUSH1 0x4 DUP3 ADD MSTORE PUSH1 0xF PUSH1 0x24 DUP3 ADD MSTORE PUSH15 0x496E76616C6964207061636B616765 PUSH1 0x88 SHL PUSH1 0x44 DUP3 ADD MSTORE PUSH1 0x64 SWAP1 REVERT JUMPDEST MLOAD SWAP1 PUSH1 0x1 PUSH1 0x1 PUSH1 0xA0 SHL SUB DUP3 AND DUP3 SUB PUSH2 0x2124 JUMPI JUMP JUMPDEST MLOAD SWAP1 PUSH1 0x1 PUSH1 0x1 PUSH1 0x70 SHL SUB DUP3 AND DUP3 SUB PUSH2 0x2124 JUMPI JUMP JUMPDEST PUSH1 0xFF AND PUSH1 0x4D DUP2 GT PUSH2 0x2466 JUMPI PUSH1 0xA EXP SWAP1 JUMP JUMPDEST DUP2 ISZERO PUSH2 0x2667 JUMPI DIV SWAP1 JUMP JUMPDEST PUSH4 0x4E487B71 PUSH1 0xE0 SHL PUSH1 0x0 MSTORE PUSH1 0x12 PUSH1 0x4 MSTORE PUSH1 0x24 PUSH1 0x0 REVERT JUMPDEST DUP2 DUP2 MUL SWAP3 SWAP2 DUP2 ISZERO SWAP2 DUP5 DIV EQ OR ISZERO PUSH2 0x2466 JUMPI JUMP JUMPDEST PUSH1 0x40 DUP1 MLOAD PUSH4 0xE6A43905 PUSH1 0xE0 SHL DUP2 MSTORE PUSH1 0x1 PUSH1 0x1 PUSH1 0xA0 SHL SUB PUSH32 0x0 DUP2 AND PUSH1 0x4 DUP1 DUP5 ADD SWAP2 SWAP1 SWAP2 MSTORE PUSH32 0x0 DUP3 AND PUSH1 0x24 DUP5 ADD DUP2 SWAP1 MSTORE SWAP1 SWAP5 SWAP4 PUSH1 0x20 SWAP4 SWAP1 SWAP3 SWAP2 SWAP1 DUP5 DUP2 PUSH1 0x44 DUP2 PUSH32 0x0 DUP8 AND GAS STATICCALL SWAP1 DUP2 ISZERO PUSH2 0x299E JUMPI SWAP1 DUP4 SWAP2 PUSH1 0x0 SWAP2 PUSH2 0x2967 JUMPI JUMPDEST POP AND SWAP2 DUP3 ISZERO PUSH2 0x295A JUMPI DUP4 MLOAD PUSH4 0x240BC6B PUSH1 0xE2 SHL DUP2 MSTORE SWAP4 PUSH1 0x60 DUP6 DUP10 DUP2 DUP8 GAS STATICCALL SWAP6 DUP7 ISZERO PUSH2 0x294F JUMPI PUSH1 0x0 SWAP6 DUP7 SWAP8 PUSH2 0x28F5 JUMPI JUMPDEST POP PUSH1 0x1 PUSH1 0x1 PUSH1 0x70 SHL SUB DUP1 SWAP7 AND SWAP5 DUP6 ISZERO DUP1 ISZERO PUSH2 0x28EB JUMPI JUMPDEST PUSH2 0x28DB JUMPI SWAP1 DUP1 DUP4 SWAP3 DUP12 SWAP5 MLOAD SWAP5 DUP6 DUP1 SWAP3 PUSH4 0xDFE1681 PUSH1 0xE0 SHL DUP3 MSTORE GAS STATICCALL SWAP2 DUP3 ISZERO PUSH2 0x28D1 JUMPI POP PUSH1 0x0 SWAP2 PUSH2 0x289D JUMPI JUMPDEST POP SWAP1 POP AND EQ PUSH1 0x0 EQ PUSH2 0x2896 JUMPI SWAP2 AND SWAP1 JUMPDEST PUSH32 0x0 PUSH1 0xFF AND PUSH1 0x12 DUP2 LT ISZERO PUSH2 0x2862 JUMPI PUSH1 0x12 SUB PUSH1 0xFF DUP2 GT PUSH2 0x284D JUMPI SWAP1 PUSH2 0x2807 PUSH2 0x280D SWAP3 PUSH2 0x264C JUMP JUMPDEST SWAP1 PUSH2 0x267D JUMP JUMPDEST PUSH8 0xDE0B6B3A7640000 SWAP1 DUP2 DUP2 MUL SWAP2 DUP2 DUP4 DIV EQ SWAP1 ISZERO OR ISZERO PUSH2 0x2838 JUMPI PUSH2 0x2832 SWAP3 SWAP4 POP PUSH2 0x265D JUMP JUMPDEST SWAP1 PUSH1 0x1 SWAP1 JUMP JUMPDEST PUSH1 0x11 DUP5 PUSH4 0x4E487B71 PUSH1 0xE0 SHL PUSH1 0x0 MSTORE MSTORE PUSH1 0x24 PUSH1 0x0 REVERT JUMPDEST PUSH1 0x11 DUP6 PUSH4 0x4E487B71 PUSH1 0xE0 SHL PUSH1 0x0 MSTORE MSTORE PUSH1 0x24 PUSH1 0x0 REVERT JUMPDEST PUSH1 0x12 DUP2 GT PUSH2 0x2871 JUMPI JUMPDEST POP PUSH2 0x280D JUMP JUMPDEST PUSH1 0x11 NOT ADD PUSH1 0xFF DUP2 GT PUSH2 0x284D JUMPI SWAP1 PUSH2 0x288A PUSH2 0x2890 SWAP3 PUSH2 0x264C JUMP JUMPDEST SWAP1 PUSH2 0x265D JUMP JUMPDEST CODESIZE PUSH2 0x286B JUMP JUMPDEST SWAP2 AND PUSH2 0x27C2 JUMP JUMPDEST DUP3 DUP2 RETURNDATASIZE DUP4 GT PUSH2 0x28CA JUMPI JUMPDEST PUSH2 0x28B1 DUP2 DUP4 PUSH2 0x24DC JUMP JUMPDEST DUP2 ADD SUB SLT PUSH2 0x29C JUMPI POP PUSH2 0x28C3 SWAP1 PUSH2 0x2624 JUMP JUMPDEST DUP1 CODESIZE PUSH2 0x27B2 JUMP JUMPDEST POP RETURNDATASIZE PUSH2 0x28A7 JUMP JUMPDEST MLOAD RETURNDATASIZE PUSH1 0x0 DUP3 RETURNDATACOPY RETURNDATASIZE SWAP1 REVERT JUMPDEST POP POP POP POP POP POP POP POP SWAP1 SLOAD SWAP1 PUSH1 0x0 SWAP1 JUMP JUMPDEST POP DUP7 DUP9 AND ISZERO PUSH2 0x2787 JUMP JUMPDEST SWAP6 SWAP1 SWAP7 POP PUSH1 0x60 DUP7 RETURNDATASIZE DUP3 GT PUSH2 0x2947 JUMPI JUMPDEST DUP2 PUSH2 0x2911 PUSH1 0x60 SWAP4 DUP4 PUSH2 0x24DC JUMP JUMPDEST DUP2 ADD SUB SLT PUSH2 0x29C JUMPI PUSH2 0x2922 DUP7 PUSH2 0x2638 JUMP JUMPDEST SWAP1 DUP3 PUSH2 0x292F DUP10 DUP10 ADD PUSH2 0x2638 JUMP JUMPDEST SWAP8 ADD MLOAD PUSH4 0xFFFFFFFF DUP2 AND SUB PUSH2 0x29C JUMPI POP SWAP5 SWAP6 CODESIZE PUSH2 0x2771 JUMP JUMPDEST RETURNDATASIZE SWAP2 POP PUSH2 0x2904 JUMP JUMPDEST POP MLOAD RETURNDATASIZE PUSH1 0x0 DUP3 RETURNDATACOPY RETURNDATASIZE SWAP1 REVERT JUMPDEST POP POP POP POP POP SWAP1 SLOAD SWAP1 PUSH1 0x0 SWAP1 JUMP JUMPDEST SWAP2 POP DUP6 DUP3 DUP2 RETURNDATASIZE DUP4 GT PUSH2 0x2997 JUMPI JUMPDEST PUSH2 0x297E DUP2 DUP4 PUSH2 0x24DC JUMP JUMPDEST DUP2 ADD SUB SLT PUSH2 0x29C JUMPI POP PUSH2 0x2991 DUP4 SWAP2 PUSH2 0x2624 JUMP JUMPDEST CODESIZE PUSH2 0x2742 JUMP JUMPDEST POP RETURNDATASIZE PUSH2 0x2974 JUMP JUMPDEST DUP5 MLOAD RETURNDATASIZE PUSH1 0x0 DUP3 RETURNDATACOPY RETURNDATASIZE SWAP1 REVERT JUMPDEST SWAP1 PUSH1 0x40 MLOAD SWAP2 DUP3 DUP2 SLOAD SWAP2 DUP3 DUP3 MSTORE PUSH1 0x20 SWAP3 DUP4 DUP4 ADD SWAP2 PUSH1 0x0 MSTORE DUP4 PUSH1 0x0 KECCAK256 SWAP4 PUSH1 0x0 SWAP1 JUMPDEST DUP3 DUP3 LT PUSH2 0x29E0 JUMPI POP POP POP PUSH2 0x29DE SWAP3 POP SUB DUP4 PUSH2 0x24DC JUMP JUMPDEST JUMP JUMPDEST DUP6 SLOAD DUP5 MSTORE PUSH1 0x1 SWAP6 DUP7 ADD SWAP6 DUP9 SWAP6 POP SWAP4 DUP2 ADD SWAP4 SWAP1 SWAP2 ADD SWAP1 PUSH2 0x29C8 JUMP JUMPDEST PUSH1 0x1 PUSH1 0x1 PUSH1 0x40 SHL SUB DUP2 GT PUSH2 0x2498 JUMPI PUSH1 0x5 SHL PUSH1 0x20 ADD SWAP1 JUMP JUMPDEST PUSH1 0x40 MLOAD SWAP1 PUSH2 0x2A1E DUP3 PUSH2 0x247C JUMP JUMPDEST DUP2 PUSH2 0x100 PUSH1 0x0 SWAP2 DUP3 DUP2 MSTORE DUP3 PUSH1 0x20 DUP3 ADD MSTORE DUP3 PUSH1 0x40 DUP3 ADD MSTORE DUP3 PUSH1 0x60 DUP3 ADD MSTORE DUP3 PUSH1 0x80 DUP3 ADD MSTORE DUP3 PUSH1 0xA0 DUP3 ADD MSTORE DUP3 PUSH1 0xC0 DUP3 ADD MSTORE DUP3 PUSH1 0xE0 DUP3 ADD MSTORE ADD MSTORE JUMP JUMPDEST SWAP1 PUSH1 0x40 MLOAD PUSH2 0x2A63 DUP2 PUSH2 0x247C JUMP JUMPDEST DUP3 SLOAD DUP2 MSTORE PUSH1 0x1 DUP4 ADD SLOAD PUSH1 0x20 DUP3 ADD MSTORE PUSH1 0x2 DUP4 ADD SLOAD PUSH1 0x40 DUP3 ADD MSTORE PUSH1 0x3 DUP4 ADD SLOAD PUSH1 0x60 DUP3 ADD MSTORE PUSH1 0x4 DUP4 ADD SLOAD PUSH1 0x80 DUP3 ADD MSTORE PUSH1 0x5 DUP4 ADD SLOAD PUSH1 0xA0 DUP3 ADD MSTORE PUSH1 0x6 DUP4 ADD SLOAD PUSH1 0x1 PUSH1 0x1 PUSH1 0xA0 SHL SUB AND PUSH1 0xC0 DUP3 ADD MSTORE PUSH1 0x7 DUP4 ADD SLOAD PUSH1 0xE0 DUP3 ADD MSTORE PUSH1 0x8 SWAP1 SWAP3 ADD SLOAD PUSH2 0x100 DUP4 ADD MSTORE JUMP JUMPDEST DUP1 SLOAD DUP3 LT ISZERO PUSH2 0x2589 JUMPI PUSH1 0x0 MSTORE PUSH1 0x9 PUSH1 0x20 PUSH1 0x0 KECCAK256 SWAP2 MUL ADD SWAP1 PUSH1 0x0 SWAP1 JUMP JUMPDEST PUSH1 0x2 PUSH1 0x1 SLOAD EQ PUSH2 0x2AF1 JUMPI PUSH1 0x2 PUSH1 0x1 SSTORE JUMP JUMPDEST PUSH1 0x40 MLOAD PUSH4 0x3EE5AEB5 PUSH1 0xE0 SHL DUP2 MSTORE PUSH1 0x4 SWAP1 REVERT JUMPDEST SWAP2 SWAP1 DUP3 ADD DUP1 SWAP3 GT PUSH2 0x2466 JUMPI JUMP JUMPDEST PUSH1 0x40 MLOAD PUSH4 0x6EB1769F PUSH1 0xE1 SHL DUP2 MSTORE ADDRESS PUSH1 0x4 DUP3 ADD MSTORE PUSH1 0x1 PUSH1 0x1 PUSH1 0xA0 SHL SUB DUP4 DUP2 AND PUSH1 0x24 DUP4 ADD MSTORE DUP3 DUP2 AND SWAP3 SWAP2 SWAP1 PUSH1 0x20 SWAP1 DUP2 DUP4 PUSH1 0x44 DUP2 DUP9 GAS STATICCALL SWAP3 DUP4 ISZERO PUSH2 0x2C59 JUMPI PUSH1 0x0 SWAP4 PUSH2 0x2C2A JUMPI JUMPDEST POP PUSH1 0x0 NOT DUP4 ADD DUP1 SWAP4 GT PUSH2 0x2466 JUMPI PUSH1 0x40 MLOAD PUSH4 0x95EA7B3 PUSH1 0xE0 SHL DUP4 DUP3 ADD DUP2 DUP2 MSTORE PUSH1 0x1 PUSH1 0x1 PUSH1 0xA0 SHL SUB DUP10 AND PUSH1 0x24 DUP5 ADD MSTORE PUSH1 0x44 DUP4 ADD SWAP6 SWAP1 SWAP6 MSTORE SWAP1 SWAP6 SWAP1 SWAP4 DUP4 SWAP1 PUSH1 0x0 SWAP1 PUSH2 0x2BA8 DUP10 PUSH1 0x64 DUP2 ADD JUMPDEST SUB PUSH1 0x1F NOT DUP2 ADD DUP12 MSTORE DUP11 PUSH2 0x24DC JUMP JUMPDEST DUP9 MLOAD SWAP1 DUP3 DUP10 GAS CALL SWAP1 RETURNDATASIZE PUSH1 0x0 MLOAD SWAP1 DUP4 PUSH2 0x2C0B JUMPI JUMPDEST POP POP POP ISZERO PUSH2 0x2BCC JUMPI JUMPDEST POP POP POP POP POP POP JUMP JUMPDEST PUSH2 0x2C00 SWAP6 PUSH2 0x2BFB SWAP4 PUSH1 0x40 MLOAD SWAP4 DUP5 ADD MSTORE AND PUSH1 0x24 DUP3 ADD MSTORE PUSH1 0x0 PUSH1 0x44 DUP3 ADD MSTORE PUSH1 0x44 DUP2 MSTORE PUSH2 0x2BF5 DUP2 PUSH2 0x24C1 JUMP JUMPDEST DUP3 PUSH2 0x2D23 JUMP JUMPDEST PUSH2 0x2D23 JUMP JUMPDEST CODESIZE DUP1 DUP1 DUP1 DUP1 DUP1 PUSH2 0x2BC4 JUMP JUMPDEST SWAP2 SWAP3 POP SWAP1 PUSH2 0x2C20 JUMPI POP EXTCODESIZE ISZERO ISZERO JUMPDEST CODESIZE DUP1 DUP1 PUSH2 0x2BBB JUMP JUMPDEST PUSH1 0x1 SWAP2 POP EQ PUSH2 0x2C18 JUMP JUMPDEST SWAP1 SWAP3 DUP3 DUP3 DUP2 RETURNDATASIZE DUP4 GT PUSH2 0x2C52 JUMPI JUMPDEST PUSH2 0x2C41 DUP2 DUP4 PUSH2 0x24DC JUMP JUMPDEST DUP2 ADD SUB SLT PUSH2 0x29C JUMPI POP MLOAD SWAP2 CODESIZE PUSH2 0x2B53 JUMP JUMPDEST POP RETURNDATASIZE PUSH2 0x2C37 JUMP JUMPDEST PUSH1 0x40 MLOAD RETURNDATASIZE PUSH1 0x0 DUP3 RETURNDATACOPY RETURNDATASIZE SWAP1 REVERT JUMPDEST PUSH1 0x40 MLOAD PUSH4 0x6EB1769F PUSH1 0xE1 SHL DUP2 MSTORE ADDRESS PUSH1 0x4 DUP3 ADD MSTORE PUSH1 0x1 PUSH1 0x1 PUSH1 0xA0 SHL SUB DUP4 DUP2 AND PUSH1 0x24 DUP4 ADD MSTORE SWAP3 SWAP4 DUP3 DUP5 AND SWAP4 SWAP2 PUSH1 0x20 SWAP2 SWAP1 DUP3 DUP2 PUSH1 0x44 DUP2 DUP10 GAS STATICCALL SWAP1 DUP2 ISZERO PUSH2 0x2C59 JUMPI PUSH1 0x0 SWAP2 PUSH2 0x2CF4 JUMPI JUMPDEST POP SWAP1 PUSH2 0x2CB5 SWAP2 PUSH2 0x2B03 JUMP JUMPDEST PUSH1 0x40 MLOAD PUSH4 0x95EA7B3 PUSH1 0xE0 SHL DUP4 DUP3 ADD DUP2 DUP2 MSTORE PUSH1 0x1 PUSH1 0x1 PUSH1 0xA0 SHL SUB DUP10 AND PUSH1 0x24 DUP5 ADD MSTORE PUSH1 0x44 DUP4 ADD SWAP4 SWAP1 SWAP4 MSTORE SWAP1 SWAP6 SWAP1 SWAP4 SWAP2 DUP4 SWAP1 PUSH1 0x0 SWAP1 PUSH2 0x2BA8 DUP10 PUSH1 0x64 DUP2 ADD PUSH2 0x2B9A JUMP JUMPDEST SWAP1 DUP4 DUP3 DUP2 RETURNDATASIZE DUP4 GT PUSH2 0x2D1C JUMPI JUMPDEST PUSH2 0x2D0A DUP2 DUP4 PUSH2 0x24DC JUMP JUMPDEST DUP2 ADD SUB SLT PUSH2 0x29C JUMPI POP MLOAD PUSH2 0x2CB5 PUSH2 0x2CAA JUMP JUMPDEST POP RETURNDATASIZE PUSH2 0x2D00 JUMP JUMPDEST SWAP1 PUSH1 0x0 PUSH1 0x20 SWAP2 DUP3 DUP2 MLOAD SWAP2 ADD DUP3 DUP6 GAS CALL ISZERO PUSH2 0x2C59 JUMPI PUSH1 0x0 MLOAD RETURNDATASIZE PUSH2 0x2D76 JUMPI POP PUSH1 0x1 PUSH1 0x1 PUSH1 0xA0 SHL SUB DUP2 AND EXTCODESIZE ISZERO JUMPDEST PUSH2 0x2D54 JUMPI POP JUMP JUMPDEST PUSH1 0x40 MLOAD PUSH4 0x5274AFE7 PUSH1 0xE0 SHL DUP2 MSTORE PUSH1 0x1 PUSH1 0x1 PUSH1 0xA0 SHL SUB SWAP1 SWAP2 AND PUSH1 0x4 DUP3 ADD MSTORE PUSH1 0x24 SWAP1 REVERT JUMPDEST PUSH1 0x1 EQ ISZERO PUSH2 0x2D4D JUMP JUMPDEST SWAP2 SWAP1 DUP3 SUB SWAP2 DUP3 GT PUSH2 0x2466 JUMPI JUMP JUMPDEST SWAP1 SWAP3 PUSH1 0x0 DUP4 DUP2 MSTORE PUSH1 0x8 PUSH1 0x20 MSTORE PUSH1 0x40 DUP2 KECCAK256 SWAP3 PUSH1 0x3 PUSH1 0x40 MLOAD SWAP5 PUSH2 0x2DAC DUP7 PUSH2 0x247C JUMP JUMPDEST DUP1 SLOAD DUP7 MSTORE PUSH1 0x1 DUP2 ADD SLOAD PUSH1 0x20 DUP8 ADD MSTORE PUSH1 0xFF PUSH1 0x2 DUP3 ADD SLOAD PUSH1 0x1 PUSH1 0x1 PUSH1 0x40 SHL SUB DUP2 AND PUSH1 0x40 DUP10 ADD MSTORE PUSH1 0x1 PUSH1 0x1 PUSH1 0x40 SHL SUB DUP2 PUSH1 0x40 SHR AND PUSH1 0x60 DUP10 ADD MSTORE PUSH2 0xFFFF DUP2 PUSH1 0x80 SHR AND PUSH1 0x80 DUP10 ADD MSTORE PUSH2 0xFFFF DUP2 PUSH1 0x90 SHR AND PUSH1 0xA0 DUP10 ADD MSTORE DUP2 DUP2 PUSH1 0xA0 SHR AND ISZERO ISZERO PUSH1 0xC0 DUP10 ADD MSTORE PUSH1 0xA8 SHR AND ISZERO ISZERO PUSH1 0xE0 DUP8 ADD MSTORE ADD PUSH1 0x40 MLOAD SWAP1 DUP2 DUP5 DUP3 SLOAD SWAP3 PUSH2 0x2E27 DUP5 PUSH2 0x2518 JUMP JUMPDEST DUP1 DUP5 MSTORE SWAP4 PUSH1 0x1 DUP2 AND SWAP1 DUP2 ISZERO PUSH2 0x3A3F JUMPI POP PUSH1 0x1 EQ PUSH2 0x39FE JUMPI JUMPDEST POP PUSH2 0x2E4C SWAP3 POP SUB DUP3 PUSH2 0x24DC JUMP JUMPDEST PUSH2 0x100 DUP6 ADD MSTORE PUSH1 0xC0 DUP5 ADD MLOAD ISZERO PUSH2 0x39C4 JUMPI PUSH1 0x1 PUSH1 0x1 PUSH1 0xA0 SHL SUB DUP4 DUP2 AND SWAP1 DUP8 AND EQ PUSH2 0x3987 JUMPI DUP4 MLOAD PUSH2 0x2EA6 SWAP2 ADDRESS SWAP1 PUSH32 0x0 PUSH1 0x1 PUSH1 0x1 PUSH1 0xA0 SHL SUB AND PUSH2 0x3A9D JUMP JUMPDEST PUSH2 0x2EB0 DUP4 MLOAD PUSH2 0x3AF5 JUMP JUMPDEST PUSH32 0x0 ISZERO PUSH2 0x3958 JUMPI PUSH2 0x2F00 PUSH32 0x0 DUP3 PUSH2 0x267D JUMP JUMPDEST DUP1 PUSH8 0xDE0B6B3A7640000 DUP2 MUL DIV PUSH8 0xDE0B6B3A7640000 EQ DUP2 ISZERO OR ISZERO PUSH2 0x3944 JUMPI PUSH1 0x20 DUP6 ADD MLOAD PUSH2 0x2F37 SWAP2 PUSH8 0xDE0B6B3A7640000 MUL PUSH2 0x265D JUMP JUMPDEST SWAP4 PUSH2 0xFFFF PUSH1 0x80 DUP3 ADD MLOAD AND PUSH2 0xFFFF DUP2 PUSH2 0x2710 SUB GT PUSH2 0x31C3 JUMPI PUSH2 0x2710 PUSH2 0x2F64 PUSH2 0xFFFF PUSH2 0x2F6C SWAP4 DUP4 SUB AND DUP6 PUSH2 0x267D JUMP JUMPDEST DIV DUP1 SWAP4 PUSH2 0x2D7F JUMP JUMPDEST SWAP1 PUSH2 0x2710 PUSH2 0x2F82 PUSH2 0xFFFF PUSH1 0x80 DUP5 ADD MLOAD AND DUP9 PUSH2 0x267D JUMP JUMPDEST DIV SWAP1 PUSH2 0x2F8E DUP3 DUP9 PUSH2 0x2D7F JUMP JUMPDEST SWAP3 DUP3 PUSH2 0x37A0 JUMPI JUMPDEST DUP1 PUSH2 0x375C JUMPI JUMPDEST POP DUP5 SWAP4 DUP1 PUSH2 0x34D8 JUMPI JUMPDEST POP DUP4 PUSH2 0x344D JUMPI JUMPDEST DUP5 PUSH1 0x1 PUSH1 0x1 PUSH1 0xA0 SHL SUB DUP8 AND ISZERO ISZERO DUP1 PUSH2 0x343C JUMPI JUMPDEST PUSH2 0x31D7 JUMPI JUMPDEST DUP2 MLOAD PUSH1 0x1 PUSH1 0x1 PUSH1 0xA0 SHL SUB DUP12 AND DUP3 MSTORE PUSH1 0x9 PUSH1 0x20 MSTORE PUSH1 0x40 DUP3 KECCAK256 DUP1 SLOAD PUSH2 0x2FE7 SWAP1 DUP4 SWAP1 PUSH2 0x2B03 JUMP JUMPDEST DUP2 SSTORE PUSH1 0x1 DUP2 ADD PUSH2 0x2FF8 DUP12 DUP3 SLOAD PUSH2 0x2B03 JUMP JUMPDEST SWAP1 SSTORE PUSH1 0x2 DUP2 ADD PUSH2 0x3009 DUP7 DUP3 SLOAD PUSH2 0x2B03 JUMP JUMPDEST SWAP1 SSTORE PUSH1 0x3 DUP2 ADD PUSH2 0x301A DUP8 DUP3 SLOAD PUSH2 0x2B03 JUMP JUMPDEST SWAP1 SSTORE PUSH1 0x4 DUP2 ADD PUSH2 0x302B DUP9 DUP3 SLOAD PUSH2 0x2B03 JUMP JUMPDEST SWAP1 SSTORE PUSH1 0x6 DUP2 ADD SLOAD PUSH1 0x1 DUP2 ADD DUP2 GT PUSH2 0x31C3 JUMPI PUSH1 0x1 ADD PUSH1 0x6 SWAP2 SWAP1 SWAP2 ADD SSTORE PUSH1 0x1 PUSH1 0x1 PUSH1 0xA0 SHL SUB DUP12 AND DUP3 MSTORE PUSH1 0xA PUSH1 0x20 MSTORE PUSH1 0x40 DUP1 DUP4 KECCAK256 SWAP1 MLOAD SWAP2 PUSH2 0x3068 DUP4 PUSH2 0x247C JUMP JUMPDEST DUP12 DUP4 MSTORE PUSH1 0x20 DUP4 ADD MSTORE DUP10 PUSH1 0x40 DUP4 ADD MSTORE DUP5 PUSH1 0x60 DUP4 ADD MSTORE DUP6 PUSH1 0x80 DUP4 ADD MSTORE DUP7 PUSH1 0xA0 DUP4 ADD MSTORE PUSH1 0x1 DUP1 PUSH1 0xA0 SHL SUB DUP10 AND PUSH1 0xC0 DUP4 ADD MSTORE DUP8 PUSH1 0xE0 DUP4 ADD MSTORE TIMESTAMP PUSH2 0x100 DUP4 ADD MSTORE DUP1 SLOAD SWAP1 PUSH1 0x1 PUSH1 0x40 SHL DUP3 LT ISZERO PUSH2 0x31AF JUMPI SWAP1 PUSH2 0x30C2 SWAP2 PUSH1 0x1 DUP3 ADD DUP2 SSTORE PUSH2 0x2AC4 JUMP JUMPDEST SWAP3 SWAP1 SWAP3 PUSH2 0x319B JUMPI POP SWAP2 PUSH32 0x5A77E79107887EBCF23F054EF45C1E6EF75A6215CF598323E188D01A6E5DA7B3 SWAP8 SWAP6 SWAP4 SWAP2 PUSH1 0x8 PUSH2 0x100 DUP6 PUSH1 0xC0 SWAP11 SWAP9 SWAP7 MLOAD DUP5 SSTORE PUSH1 0x20 DUP2 ADD MLOAD PUSH1 0x1 DUP6 ADD SSTORE PUSH1 0x40 DUP2 ADD MLOAD PUSH1 0x2 DUP6 ADD SSTORE PUSH1 0x60 DUP2 ADD MLOAD PUSH1 0x3 DUP6 ADD SSTORE PUSH1 0x80 DUP2 ADD MLOAD PUSH1 0x4 DUP6 ADD SSTORE PUSH1 0xA0 DUP2 ADD MLOAD PUSH1 0x5 DUP6 ADD SSTORE PUSH1 0x6 DUP5 ADD PUSH1 0x1 DUP1 PUSH1 0xA0 SHL SUB DUP13 DUP4 ADD MLOAD AND PUSH12 0xFFFFFFFFFFFFFFFFFFFFFFFF PUSH1 0xA0 SHL DUP3 SLOAD AND OR SWAP1 SSTORE PUSH1 0xE0 DUP2 ADD MLOAD PUSH1 0x7 DUP6 ADD SSTORE ADD MLOAD SWAP2 ADD SSTORE MLOAD SWAP8 PUSH1 0x40 MLOAD SWAP9 DUP10 MSTORE PUSH1 0x20 DUP10 ADD MSTORE PUSH1 0x40 DUP9 ADD MSTORE PUSH1 0x60 DUP8 ADD MSTORE PUSH1 0x80 DUP7 ADD MSTORE PUSH1 0xA0 DUP6 ADD MSTORE PUSH1 0x1 DUP1 PUSH1 0xA0 SHL SUB AND SWAP5 PUSH1 0x1 DUP1 PUSH1 0xA0 SHL SUB AND SWAP3 LOG4 JUMP JUMPDEST PUSH4 0x4E487B71 PUSH1 0xE0 SHL DUP2 MSTORE PUSH1 0x4 DUP2 SWAP1 MSTORE PUSH1 0x24 SWAP1 REVERT JUMPDEST PUSH4 0x4E487B71 PUSH1 0xE0 SHL DUP5 MSTORE PUSH1 0x41 PUSH1 0x4 MSTORE PUSH1 0x24 DUP5 REVERT JUMPDEST PUSH4 0x4E487B71 PUSH1 0xE0 SHL DUP5 MSTORE PUSH1 0x11 PUSH1 0x4 MSTORE PUSH1 0x24 DUP5 REVERT JUMPDEST SWAP5 POP PUSH2 0x2710 PUSH2 0x31EE PUSH2 0xFFFF PUSH1 0xA0 DUP5 ADD MLOAD AND DUP10 PUSH2 0x267D JUMP JUMPDEST DIV SWAP5 PUSH1 0x1 DUP1 PUSH1 0xA0 SHL SUB PUSH1 0x2 SLOAD PUSH1 0x8 SHR AND PUSH1 0x40 MLOAD PUSH4 0x70A08231 PUSH1 0xE0 SHL DUP2 MSTORE DUP2 PUSH1 0x4 DUP3 ADD MSTORE PUSH1 0x20 DUP2 PUSH1 0x24 DUP2 PUSH1 0x1 DUP1 PUSH1 0xA0 SHL SUB PUSH32 0x0 AND GAS STATICCALL SWAP1 DUP2 ISZERO PUSH2 0x3431 JUMPI DUP4 SWAP2 PUSH2 0x33FF JUMPI JUMPDEST POP PUSH1 0x40 MLOAD PUSH4 0x6EB1769F PUSH1 0xE1 SHL DUP2 MSTORE PUSH1 0x1 PUSH1 0x1 PUSH1 0xA0 SHL SUB DUP4 AND PUSH1 0x4 DUP3 ADD MSTORE ADDRESS PUSH1 0x24 DUP3 ADD MSTORE SWAP1 PUSH1 0x20 DUP3 DUP1 PUSH1 0x44 DUP2 ADD SUB DUP2 PUSH32 0x0 PUSH1 0x1 PUSH1 0x1 PUSH1 0xA0 SHL SUB AND GAS STATICCALL SWAP2 DUP3 ISZERO PUSH2 0x33F4 JUMPI SWAP2 DUP11 SWAP2 DUP11 SWAP4 DUP7 SWAP3 PUSH2 0x33BA JUMPI JUMPDEST POP DUP4 DUP1 SWAP2 LT ISZERO SWAP2 DUP3 PUSH2 0x33AF JUMPI JUMPDEST POP POP ISZERO PUSH2 0x336C JUMPI PUSH2 0x3304 SWAP3 PUSH32 0x0 PUSH1 0x1 PUSH1 0x1 PUSH1 0xA0 SHL SUB AND PUSH2 0x3A9D JUMP JUMPDEST PUSH1 0x1 PUSH1 0x1 PUSH1 0xA0 SHL SUB DUP8 AND DUP2 MSTORE PUSH1 0x9 PUSH1 0x20 MSTORE PUSH1 0x40 DUP2 KECCAK256 PUSH1 0x5 ADD DUP1 SLOAD PUSH2 0x3329 SWAP1 DUP9 SWAP1 PUSH2 0x2B03 JUMP JUMPDEST SWAP1 SSTORE PUSH1 0x40 MLOAD DUP7 DUP2 MSTORE PUSH1 0x1 PUSH1 0x1 PUSH1 0xA0 SHL SUB DUP12 DUP2 AND SWAP2 SWAP1 DUP10 AND SWAP1 PUSH32 0xA721AB4682CEB61C7E4D264EF879FC419A6D764B136E7D96EF54B2053C75673 SWAP1 PUSH1 0x20 SWAP1 LOG3 PUSH2 0x2FC3 JUMP JUMPDEST POP POP PUSH1 0x40 MLOAD DUP3 DUP2 MSTORE PUSH1 0x1 PUSH1 0x1 PUSH1 0xA0 SHL SUB DUP13 DUP2 AND SWAP3 POP DUP10 AND SWAP1 PUSH32 0xA721AB4682CEB61C7E4D264EF879FC419A6D764B136E7D96EF54B2053C75673 SWAP1 PUSH1 0x20 SWAP1 LOG3 PUSH2 0x2FC3 JUMP JUMPDEST LT ISZERO SWAP1 POP DUP3 CODESIZE PUSH2 0x32CA JUMP JUMPDEST SWAP3 POP SWAP3 POP POP PUSH1 0x20 DUP2 RETURNDATASIZE PUSH1 0x20 GT PUSH2 0x33EC JUMPI JUMPDEST DUP2 PUSH2 0x33D8 PUSH1 0x20 SWAP4 DUP4 PUSH2 0x24DC JUMP JUMPDEST DUP2 ADD SUB SLT PUSH2 0x2124 JUMPI MLOAD DUP9 SWAP2 DUP11 SWAP2 SWAP1 DUP4 PUSH2 0x32BD JUMP JUMPDEST RETURNDATASIZE SWAP2 POP PUSH2 0x33CB JUMP JUMPDEST PUSH1 0x40 MLOAD RETURNDATASIZE DUP7 DUP3 RETURNDATACOPY RETURNDATASIZE SWAP1 REVERT JUMPDEST SWAP1 POP PUSH1 0x20 DUP2 RETURNDATASIZE PUSH1 0x20 GT PUSH2 0x3429 JUMPI JUMPDEST DUP2 PUSH2 0x341A PUSH1 0x20 SWAP4 DUP4 PUSH2 0x24DC JUMP JUMPDEST DUP2 ADD SUB SLT PUSH2 0x2124 JUMPI MLOAD CODESIZE PUSH2 0x3250 JUMP JUMPDEST RETURNDATASIZE SWAP2 POP PUSH2 0x340D JUMP JUMPDEST PUSH1 0x40 MLOAD RETURNDATASIZE DUP6 DUP3 RETURNDATACOPY RETURNDATASIZE SWAP1 REVERT JUMPDEST POP PUSH2 0xFFFF PUSH1 0xA0 DUP4 ADD MLOAD AND ISZERO ISZERO PUSH2 0x2FBE JUMP JUMPDEST PUSH32 0x0 PUSH1 0x1 PUSH1 0x1 PUSH1 0xA0 SHL SUB AND DUP1 EXTCODESIZE ISZERO PUSH2 0x7F4 JUMPI PUSH1 0x40 MLOAD PUSH4 0x40C10F19 PUSH1 0xE0 SHL DUP2 MSTORE PUSH1 0x1 PUSH1 0x1 PUSH1 0xA0 SHL SUB DUP12 AND PUSH1 0x4 DUP3 ADD MSTORE PUSH1 0x24 DUP2 ADD DUP7 SWAP1 MSTORE SWAP1 DUP7 SWAP1 DUP3 SWAP1 PUSH1 0x44 SWAP1 DUP3 SWAP1 DUP5 SWAP1 GAS CALL DUP1 ISZERO PUSH2 0x9A7 JUMPI SWAP1 DUP7 SWAP2 PUSH2 0x34C4 JUMPI JUMPDEST POP POP PUSH2 0x2FAB JUMP JUMPDEST PUSH2 0x34CD SWAP1 PUSH2 0x24AE JUMP JUMPDEST PUSH2 0xD4E JUMPI DUP5 CODESIZE PUSH2 0x34BD JUMP JUMPDEST SWAP4 POP PUSH2 0x34E2 PUSH2 0x2690 JUMP JUMPDEST SWAP1 SWAP5 SWAP1 ISZERO PUSH2 0x3754 JUMPI DUP5 JUMPDEST DUP1 ISZERO PUSH2 0x371E JUMPI PUSH32 0x0 ISZERO PUSH2 0x36EF JUMPI PUSH2 0x3542 PUSH32 0x0 DUP4 PUSH2 0x267D JUMP JUMPDEST PUSH8 0xDE0B6B3A7640000 DUP2 MUL SWAP1 DUP1 DUP3 DIV PUSH8 0xDE0B6B3A7640000 EQ SWAP1 ISZERO OR ISZERO PUSH2 0x36DB JUMPI SWAP1 PUSH2 0x356D SWAP2 PUSH2 0x265D JUMP JUMPDEST SWAP1 PUSH32 0x0 PUSH1 0x1 PUSH1 0x1 PUSH1 0xA0 SHL SUB AND EXTCODESIZE ISZERO PUSH2 0x36CC JUMPI PUSH1 0x40 MLOAD PUSH4 0x40C10F19 PUSH1 0xE0 SHL DUP2 MSTORE ADDRESS PUSH1 0x4 DUP3 ADD MSTORE PUSH1 0x24 DUP2 ADD DUP4 SWAP1 MSTORE DUP8 DUP2 PUSH1 0x44 DUP2 DUP4 PUSH1 0x1 PUSH1 0x1 PUSH1 0xA0 SHL SUB PUSH32 0x0 AND GAS CALL DUP1 ISZERO PUSH2 0x36D0 JUMPI DUP13 DUP10 DUP6 SWAP4 DUP15 SWAP4 PUSH2 0x36B0 JUMPI JUMPDEST POP POP SWAP2 PUSH32 0xD7DE183105059C806CC0D3D76A2CF588F90D707037ED57E4EC94CBD9DA28C6B3 SWAP4 PUSH2 0x362C SWAP3 PUSH1 0x60 SWAP5 PUSH2 0x3D0A JUMP JUMPDEST SWAP7 PUSH1 0x4 SLOAD DUP1 DUP3 GT PUSH1 0x0 EQ PUSH2 0x36A0 JUMPI PUSH2 0x3644 DUP2 DUP4 PUSH2 0x2D7F JUMP JUMPDEST SWAP1 JUMPDEST PUSH1 0x40 MLOAD SWAP3 DUP4 MSTORE PUSH1 0x20 DUP4 ADD MSTORE PUSH1 0x40 DUP3 ADD MSTORE LOG1 DUP5 PUSH2 0x2FA4 JUMPI PUSH1 0x2 SLOAD PUSH2 0x369A SWAP2 SWAP1 PUSH1 0x8 SHR PUSH1 0x1 PUSH1 0x1 PUSH1 0xA0 SHL SUB SWAP1 DUP2 AND SWAP1 PUSH32 0x0 AND PUSH2 0x3A61 JUMP JUMPDEST CODESIZE PUSH2 0x2FA4 JUMP JUMPDEST PUSH2 0x36AA DUP3 DUP3 PUSH2 0x2D7F JUMP JUMPDEST SWAP1 PUSH2 0x3646 JUMP JUMPDEST SWAP2 POP SWAP3 POP PUSH2 0x36BE SWAP2 POP PUSH2 0x24AE JUMP JUMPDEST PUSH2 0x36CC JUMPI DUP2 DUP11 DUP13 DUP10 CODESIZE PUSH2 0x35FB JUMP JUMPDEST DUP7 DUP1 REVERT JUMPDEST PUSH1 0x40 MLOAD RETURNDATASIZE DUP11 DUP3 RETURNDATACOPY RETURNDATASIZE SWAP1 REVERT JUMPDEST PUSH4 0x4E487B71 PUSH1 0xE0 SHL DUP9 MSTORE PUSH1 0x11 PUSH1 0x4 MSTORE PUSH1 0x24 DUP9 REVERT JUMPDEST PUSH2 0x3719 PUSH32 0x0 DUP4 PUSH2 0x265D JUMP JUMPDEST PUSH2 0x3542 JUMP JUMPDEST PUSH1 0x40 MLOAD PUSH3 0x461BCD PUSH1 0xE5 SHL DUP2 MSTORE PUSH1 0x20 PUSH1 0x4 DUP3 ADD MSTORE PUSH1 0xE PUSH1 0x24 DUP3 ADD MSTORE PUSH14 0x4E6F2076616C6964207072696365 PUSH1 0x90 SHL PUSH1 0x44 DUP3 ADD MSTORE PUSH1 0x64 SWAP1 REVERT JUMPDEST PUSH1 0x4 SLOAD PUSH2 0x34EC JUMP JUMPDEST PUSH1 0x2 SLOAD PUSH2 0x379A SWAP2 SWAP1 PUSH1 0x8 SHR PUSH1 0x1 PUSH1 0x1 PUSH1 0xA0 SHL SUB SWAP1 DUP2 AND SWAP1 PUSH32 0x0 AND PUSH2 0x3A61 JUMP JUMPDEST CODESIZE PUSH2 0x2F9B JUMP JUMPDEST PUSH32 0x0 PUSH1 0x1 PUSH1 0x1 PUSH1 0xA0 SHL SUB AND EXTCODESIZE ISZERO PUSH2 0x7F4 JUMPI PUSH1 0x40 MLOAD PUSH4 0x40C10F19 PUSH1 0xE0 SHL DUP2 MSTORE PUSH32 0x0 PUSH1 0x1 PUSH1 0x1 PUSH1 0xA0 SHL SUB AND PUSH1 0x4 DUP3 ADD MSTORE PUSH1 0x24 DUP2 ADD DUP5 SWAP1 MSTORE DUP7 DUP2 DUP1 PUSH1 0x44 DUP2 ADD SUB DUP2 DUP4 PUSH32 0x0 PUSH1 0x1 PUSH1 0x1 PUSH1 0xA0 SHL SUB AND GAS CALL DUP1 ISZERO PUSH2 0x3922 JUMPI PUSH2 0x3931 JUMPI JUMPDEST POP PUSH1 0x40 DUP3 ADD MLOAD PUSH1 0x60 DUP4 ADD MLOAD PUSH1 0x1 PUSH1 0x1 PUSH1 0x40 SHL SUB SWAP2 DUP3 AND SWAP2 AND PUSH32 0x0 PUSH1 0x1 PUSH1 0x1 PUSH1 0xA0 SHL SUB AND EXTCODESIZE ISZERO PUSH2 0x392D JUMPI PUSH1 0x40 MLOAD SWAP2 PUSH4 0xBF49EC4F PUSH1 0xE0 SHL DUP4 MSTORE PUSH1 0x1 DUP1 PUSH1 0xA0 SHL SUB DUP14 AND PUSH1 0x4 DUP5 ADD MSTORE DUP6 PUSH1 0x24 DUP5 ADD MSTORE PUSH1 0x44 DUP4 ADD MSTORE PUSH1 0x64 DUP3 ADD MSTORE DUP7 DUP2 PUSH1 0x84 DUP2 DUP4 PUSH1 0x1 DUP1 PUSH1 0xA0 SHL SUB PUSH32 0x0 AND GAS CALL DUP1 ISZERO PUSH2 0x3922 JUMPI SWAP1 DUP8 SWAP2 PUSH2 0x390E JUMPI JUMPDEST POP POP PUSH2 0x2F95 JUMP JUMPDEST PUSH2 0x3917 SWAP1 PUSH2 0x24AE JUMP JUMPDEST PUSH2 0x7F4 JUMPI DUP6 CODESIZE PUSH2 0x3907 JUMP JUMPDEST PUSH1 0x40 MLOAD RETURNDATASIZE DUP10 DUP3 RETURNDATACOPY RETURNDATASIZE SWAP1 REVERT JUMPDEST DUP8 DUP1 REVERT JUMPDEST PUSH2 0x393D SWAP1 SWAP7 SWAP2 SWAP7 PUSH2 0x24AE JUMP JUMPDEST SWAP5 CODESIZE PUSH2 0x3854 JUMP JUMPDEST PUSH4 0x4E487B71 PUSH1 0xE0 SHL DUP4 MSTORE PUSH1 0x11 PUSH1 0x4 MSTORE PUSH1 0x24 DUP4 REVERT JUMPDEST PUSH2 0x3982 PUSH32 0x0 DUP3 PUSH2 0x265D JUMP JUMPDEST PUSH2 0x2F00 JUMP JUMPDEST PUSH1 0x40 MLOAD PUSH3 0x461BCD PUSH1 0xE5 SHL DUP2 MSTORE PUSH1 0x20 PUSH1 0x4 DUP3 ADD MSTORE PUSH1 0x15 PUSH1 0x24 DUP3 ADD MSTORE PUSH21 0x21B0B73737BA103932B332B9103CB7BAB939B2B633 PUSH1 0x59 SHL PUSH1 0x44 DUP3 ADD MSTORE PUSH1 0x64 SWAP1 REVERT JUMPDEST PUSH1 0x40 MLOAD PUSH3 0x461BCD PUSH1 0xE5 SHL DUP2 MSTORE PUSH1 0x20 PUSH1 0x4 DUP3 ADD MSTORE PUSH1 0x12 PUSH1 0x24 DUP3 ADD MSTORE PUSH18 0x5061636B616765206E6F7420616374697665 PUSH1 0x70 SHL PUSH1 0x44 DUP3 ADD MSTORE PUSH1 0x64 SWAP1 REVERT JUMPDEST DUP7 MSTORE POP PUSH1 0x20 DUP6 KECCAK256 SWAP1 SWAP2 DUP6 SWAP2 JUMPDEST DUP2 DUP4 LT PUSH2 0x3A23 JUMPI POP POP SWAP1 PUSH1 0x20 PUSH2 0x2E4C SWAP3 DUP3 ADD ADD CODESIZE PUSH2 0x2E3F JUMP JUMPDEST PUSH1 0x20 SWAP2 SWAP4 POP DUP1 PUSH1 0x1 SWAP2 SLOAD DUP4 DUP6 DUP9 ADD ADD MSTORE ADD SWAP2 ADD SWAP1 SWAP2 DUP4 SWAP3 PUSH2 0x3A0A JUMP JUMPDEST SWAP1 POP PUSH1 0x20 SWAP3 POP PUSH2 0x2E4C SWAP5 SWAP2 POP PUSH1 0xFF NOT AND DUP3 DUP5 ADD MSTORE ISZERO ISZERO PUSH1 0x5 SHL DUP3 ADD ADD CODESIZE PUSH2 0x2E3F JUMP JUMPDEST PUSH1 0x40 MLOAD PUSH4 0xA9059CBB PUSH1 0xE0 SHL PUSH1 0x20 DUP3 ADD MSTORE PUSH1 0x1 PUSH1 0x1 PUSH1 0xA0 SHL SUB SWAP3 SWAP1 SWAP3 AND PUSH1 0x24 DUP4 ADD MSTORE PUSH1 0x44 DUP1 DUP4 ADD SWAP4 SWAP1 SWAP4 MSTORE SWAP2 DUP2 MSTORE PUSH2 0x29DE SWAP2 PUSH2 0x2BFB PUSH1 0x64 DUP4 PUSH2 0x24DC JUMP JUMPDEST PUSH1 0x40 MLOAD PUSH4 0x23B872DD PUSH1 0xE0 SHL PUSH1 0x20 DUP3 ADD MSTORE PUSH1 0x1 PUSH1 0x1 PUSH1 0xA0 SHL SUB SWAP3 DUP4 AND PUSH1 0x24 DUP3 ADD MSTORE SWAP3 SWAP1 SWAP2 AND PUSH1 0x44 DUP4 ADD MSTORE PUSH1 0x64 DUP1 DUP4 ADD SWAP4 SWAP1 SWAP4 MSTORE SWAP2 DUP2 MSTORE PUSH1 0xA0 DUP2 ADD SWAP2 DUP2 DUP4 LT PUSH1 0x1 PUSH1 0x1 PUSH1 0x40 SHL SUB DUP5 GT OR PUSH2 0x2498 JUMPI PUSH2 0x29DE SWAP3 PUSH1 0x40 MSTORE PUSH2 0x2D23 JUMP JUMPDEST PUSH1 0x40 DUP1 MLOAD PUSH4 0x67403B61 PUSH1 0xE0 SHL DUP2 MSTORE PUSH32 0x995C68A7874AB62E799137BC19B39D4CDD1C165240E636649FBA7EDFDA9D16C8 PUSH1 0x4 DUP3 ADD DUP2 SWAP1 MSTORE PUSH1 0x1 PUSH1 0x1 PUSH1 0xA0 SHL SUB DUP4 DUP4 PUSH1 0x24 DUP2 PUSH32 0x0 DUP6 AND GAS STATICCALL SWAP3 DUP4 ISZERO PUSH2 0x299E JUMPI PUSH1 0x0 SWAP1 DUP2 SWAP5 PUSH2 0x3C50 JUMPI JUMPDEST POP PUSH2 0xFFFF AND PUSH2 0x2710 SWAP1 DUP2 DUP2 GT PUSH2 0x3C1F JUMPI DUP1 ISZERO ISZERO DUP1 PUSH2 0x3C14 JUMPI JUMPDEST PUSH2 0x3B95 JUMPI JUMPDEST POP POP POP POP POP POP SWAP1 JUMP JUMPDEST PUSH2 0x3B9F SWAP1 DUP8 PUSH2 0x267D JUMP JUMPDEST DIV SWAP4 DUP5 PUSH2 0x3BAC JUMPI DUP1 PUSH2 0x3B8C JUMP JUMPDEST PUSH1 0x20 DUP3 PUSH32 0x9AD5F576AD2DC5ABD88AEE00524464D5AAFCD7F0A8D0141FD6A2B7CF76130E08 SWAP3 PUSH2 0x3C04 DUP9 DUP9 PUSH2 0x3C11 SWAP12 SWAP10 SWAP9 SWAP8 PUSH32 0x0 AND PUSH2 0x3A61 JUMP JUMPDEST MLOAD SWAP5 DUP8 DUP7 MSTORE AND SWAP4 LOG3 PUSH2 0x2D7F JUMP JUMPDEST SWAP1 JUMP JUMPDEST POP DUP3 DUP6 AND ISZERO ISZERO PUSH2 0x3B87 JUMP JUMPDEST DUP6 MLOAD PUSH3 0x461BCD PUSH1 0xE5 SHL DUP2 MSTORE PUSH1 0x20 PUSH1 0x4 DUP3 ADD MSTORE PUSH1 0xA PUSH1 0x24 DUP3 ADD MSTORE PUSH10 0x546178203E2031303025 PUSH1 0xB0 SHL PUSH1 0x44 DUP3 ADD MSTORE PUSH1 0x64 SWAP1 REVERT JUMPDEST SWAP1 SWAP4 POP DUP5 DUP2 DUP2 RETURNDATASIZE DUP4 GT PUSH2 0x3C95 JUMPI JUMPDEST PUSH2 0x3C68 DUP2 DUP4 PUSH2 0x24DC JUMP JUMPDEST DUP2 ADD SUB SLT PUSH2 0x1393 JUMPI DUP1 MLOAD SWAP4 PUSH2 0xFFFF DUP6 AND DUP6 SUB PUSH2 0x29C JUMPI POP PUSH2 0x3C8E PUSH1 0x20 PUSH2 0xFFFF SWAP3 ADD PUSH2 0x2624 JUMP JUMPDEST SWAP4 SWAP1 PUSH2 0x3B6E JUMP JUMPDEST POP RETURNDATASIZE PUSH2 0x3C5E JUMP JUMPDEST PUSH1 0x0 PUSH1 0x44 RETURNDATASIZE LT PUSH2 0x3C11 JUMPI PUSH1 0x40 MLOAD PUSH1 0x3 NOT SWAP2 RETURNDATASIZE DUP4 ADD PUSH1 0x4 DUP4 RETURNDATACOPY DUP2 MLOAD PUSH1 0x1 PUSH1 0x1 PUSH1 0x40 SHL SUB SWAP2 DUP3 DUP3 GT RETURNDATASIZE PUSH1 0x24 DUP5 ADD GT OR PUSH2 0x3CF9 JUMPI DUP2 DUP5 ADD SWAP5 DUP6 MLOAD SWAP4 DUP5 GT PUSH2 0x3D01 JUMPI RETURNDATASIZE DUP6 ADD ADD PUSH1 0x20 DUP5 DUP8 ADD ADD GT PUSH2 0x3CF9 JUMPI POP PUSH2 0x3C11 SWAP3 SWAP2 ADD PUSH1 0x20 ADD SWAP1 PUSH2 0x24DC JUMP JUMPDEST SWAP5 SWAP4 POP POP POP POP JUMP JUMPDEST POP SWAP5 SWAP4 POP POP POP POP JUMP JUMPDEST SWAP2 SWAP1 SWAP4 SWAP3 PUSH1 0x5 SLOAD PUSH2 0x2710 SWAP1 DUP2 SUB SWAP2 DUP2 DUP4 GT PUSH2 0x2466 JUMPI DUP2 PUSH2 0x3D57 PUSH32 0xC8AF3886655C52B7EBBBCFC08757E97B8BBD122D4EF3E5E6FD92524497C4360F SWAP4 PUSH2 0x3D4F DUP7 DUP9 PUSH2 0x267D JUMP JUMPDEST DIV SWAP5 DUP4 PUSH2 0x267D JUMP JUMPDEST DIV SWAP3 DUP8 PUSH1 0x40 MLOAD PUSH1 0x1 DUP1 PUSH1 0xA0 SHL SUB DUP9 AND SWAP5 DUP2 DUP1 PUSH2 0x3D8E DUP7 DUP11 DUP13 DUP11 DUP13 SWAP9 SWAP1 SWAP5 SWAP4 SWAP3 PUSH1 0x60 SWAP3 PUSH1 0x80 DUP4 ADD SWAP7 DUP4 MSTORE PUSH1 0x20 DUP4 ADD MSTORE PUSH1 0x40 DUP3 ADD MSTORE ADD MSTORE JUMP JUMPDEST SUB SWAP1 LOG3 PUSH1 0x40 MLOAD PUSH4 0x6EB1769F PUSH1 0xE1 SHL DUP1 DUP3 MSTORE ADDRESS PUSH1 0x4 DUP4 ADD MSTORE PUSH32 0x0 PUSH1 0x1 PUSH1 0x1 PUSH1 0xA0 SHL SUB AND PUSH1 0x24 DUP4 ADD MSTORE SWAP1 PUSH1 0x20 DUP2 DUP1 PUSH1 0x44 DUP2 ADD SUB DUP2 PUSH32 0x0 PUSH1 0x1 PUSH1 0x1 PUSH1 0xA0 SHL SUB AND GAS STATICCALL SWAP1 DUP2 ISZERO PUSH2 0x2C59 JUMPI PUSH1 0x0 SWAP2 PUSH2 0x42A4 JUMPI JUMPDEST POP DUP7 DUP2 LT PUSH2 0x423E JUMPI JUMPDEST POP PUSH1 0x40 MLOAD SWAP1 DUP2 MSTORE ADDRESS PUSH1 0x4 DUP3 ADD MSTORE PUSH32 0x0 PUSH1 0x1 PUSH1 0x1 PUSH1 0xA0 SHL SUB AND PUSH1 0x24 DUP3 ADD MSTORE PUSH1 0x20 DUP2 DUP1 PUSH1 0x44 DUP2 ADD SUB DUP2 PUSH32 0x0 PUSH1 0x1 PUSH1 0x1 PUSH1 0xA0 SHL SUB AND GAS STATICCALL SWAP1 DUP2 ISZERO PUSH2 0x2C59 JUMPI PUSH1 0x0 SWAP2 PUSH2 0x420C JUMPI JUMPDEST POP DUP3 DUP2 LT PUSH2 0x41A6 JUMPI JUMPDEST POP PUSH2 0x3EBA PUSH1 0x3 SLOAD TIMESTAMP PUSH2 0x2B03 JUMP JUMPDEST PUSH1 0x40 MLOAD PUSH3 0xE8E337 PUSH1 0xE8 SHL DUP2 MSTORE PUSH1 0x1 PUSH1 0x1 PUSH1 0xA0 SHL SUB PUSH32 0x0 DUP2 AND PUSH1 0x4 DUP4 ADD MSTORE PUSH32 0x0 DUP2 AND PUSH1 0x24 DUP4 ADD MSTORE PUSH1 0x44 DUP3 ADD DUP6 SWAP1 MSTORE PUSH1 0x64 DUP3 ADD DUP9 SWAP1 MSTORE PUSH1 0x84 DUP3 ADD SWAP7 SWAP1 SWAP7 MSTORE PUSH1 0xA4 DUP2 ADD SWAP3 SWAP1 SWAP3 MSTORE ADDRESS PUSH1 0xC4 DUP4 ADD MSTORE PUSH1 0xE4 DUP3 ADD MSTORE PUSH1 0x60 SWAP4 DUP5 SWAP1 DUP3 SWAP1 PUSH2 0x104 SWAP1 DUP3 SWAP1 PUSH1 0x0 SWAP1 PUSH32 0x0 AND GAS CALL SWAP3 PUSH1 0x0 SWAP2 DUP5 DUP4 SWAP2 DUP5 SWAP7 PUSH2 0x4165 JUMPI JUMPDEST POP PUSH2 0x4077 JUMPI POP POP POP POP POP PUSH1 0x0 PUSH1 0x3 RETURNDATASIZE GT PUSH2 0x4069 JUMPI JUMPDEST PUSH4 0x8C379A0 EQ PUSH2 0x4049 JUMPI JUMPDEST RETURNDATASIZE ISZERO PUSH2 0x4043 JUMPI POP RETURNDATASIZE SWAP4 PUSH2 0x3FBB DUP6 PUSH2 0x24FD JUMP JUMPDEST SWAP5 PUSH2 0x3FC9 PUSH1 0x40 MLOAD SWAP7 DUP8 PUSH2 0x24DC JUMP JUMPDEST DUP6 MSTORE RETURNDATASIZE PUSH1 0x0 PUSH1 0x20 DUP8 ADD RETURNDATACOPY JUMPDEST DUP5 MLOAD PUSH1 0x0 SWAP6 SWAP1 ISZERO PUSH2 0x3FF0 JUMPI PUSH2 0x3FEB SWAP5 SWAP6 POP SWAP3 PUSH2 0x42D6 JUMP JUMPDEST PUSH1 0x0 SWAP1 JUMP JUMPDEST POP PUSH1 0x40 MLOAD PUSH1 0x40 DUP2 ADD DUP2 DUP2 LT PUSH1 0x1 PUSH1 0x1 PUSH1 0x40 SHL SUB DUP3 GT OR PUSH2 0x1A2B JUMPI PUSH2 0x3FEB SWAP6 SWAP7 POP PUSH1 0x40 MSTORE PUSH1 0x17 DUP2 MSTORE PUSH32 0x556E6B6E6F776E206C6F772D6C6576656C206572726F72000000000000000000 PUSH1 0x20 DUP3 ADD MSTORE SWAP3 PUSH2 0x42D6 JUMP JUMPDEST SWAP4 PUSH2 0x3FD4 JUMP JUMPDEST PUSH2 0x4051 PUSH2 0x3C9C JUMP JUMPDEST DUP1 PUSH2 0x405C JUMPI POP PUSH2 0x3FA9 JUMP JUMPDEST SWAP3 PUSH2 0x3FEB SWAP5 SWAP6 SWAP2 POP PUSH2 0x42D6 JUMP JUMPDEST PUSH1 0x4 DUP2 DUP1 RETURNDATACOPY MLOAD PUSH1 0xE0 SHR PUSH2 0x3F9E JUMP JUMPDEST SWAP3 SWAP7 POP SWAP3 SWAP7 SWAP8 SWAP4 SWAP1 SWAP5 DUP8 ISZERO PUSH2 0x412A JUMPI PUSH32 0xC7453E3EF562C31977302710E5FF58AE67AD8FA521DCDD8C76F877C4C0D91368 SWAP3 DUP7 PUSH1 0xA0 SWAP4 PUSH1 0x40 MLOAD SWAP4 DUP11 DUP6 MSTORE PUSH1 0x20 DUP6 ADD MSTORE DUP11 PUSH1 0x40 DUP6 ADD MSTORE DUP4 ADD MSTORE PUSH1 0x80 DUP3 ADD MSTORE LOG3 PUSH1 0x0 SWAP2 DUP2 DUP2 GT ISZERO PUSH2 0x4123 JUMPI PUSH2 0x40DC SWAP3 POP PUSH2 0x2D7F JUMP JUMPDEST DUP1 PUSH2 0x40E5 JUMPI POP SWAP1 JUMP JUMPDEST PUSH1 0x2 SLOAD PUSH2 0x3C11 SWAP2 SWAP1 PUSH1 0x8 SHR PUSH1 0x1 PUSH1 0x1 PUSH1 0xA0 SHL SUB SWAP1 DUP2 AND SWAP1 PUSH32 0x0 AND PUSH2 0x3A61 JUMP JUMPDEST POP POP PUSH2 0x40DC JUMP JUMPDEST PUSH1 0x40 MLOAD PUSH3 0x461BCD PUSH1 0xE5 SHL DUP2 MSTORE PUSH1 0x20 PUSH1 0x4 DUP3 ADD MSTORE PUSH1 0x13 PUSH1 0x24 DUP3 ADD MSTORE PUSH19 0x4E6F206C697175696469747920746F6B656E73 PUSH1 0x68 SHL PUSH1 0x44 DUP3 ADD MSTORE PUSH1 0x64 SWAP1 REVERT JUMPDEST DUP8 DUP1 SWAP3 SWAP8 POP DUP2 SWAP6 SWAP4 POP RETURNDATASIZE DUP4 GT PUSH2 0x419F JUMPI JUMPDEST PUSH2 0x4180 DUP2 DUP4 PUSH2 0x24DC JUMP JUMPDEST DUP2 ADD SUB SLT PUSH2 0x29C JUMPI POP DUP2 MLOAD PUSH1 0x40 PUSH1 0x20 DUP5 ADD MLOAD SWAP4 ADD MLOAD SWAP1 SWAP3 SWAP1 SWAP5 CODESIZE PUSH2 0x3F89 JUMP JUMPDEST POP RETURNDATASIZE PUSH2 0x4176 JUMP JUMPDEST PUSH2 0x41B3 PUSH2 0x4206 SWAP2 DUP5 PUSH2 0x2D7F JUMP JUMPDEST PUSH1 0x1 PUSH1 0x1 PUSH1 0xA0 SHL SUB PUSH32 0x0 DUP2 AND SWAP1 PUSH32 0x0 AND PUSH2 0x2C65 JUMP JUMPDEST CODESIZE PUSH2 0x3EAD JUMP JUMPDEST SWAP1 PUSH1 0x20 DUP3 RETURNDATASIZE PUSH1 0x20 GT PUSH2 0x4236 JUMPI JUMPDEST DUP2 PUSH2 0x4226 PUSH1 0x20 SWAP4 DUP4 PUSH2 0x24DC JUMP JUMPDEST DUP2 ADD SUB SLT PUSH2 0x29C JUMPI POP MLOAD CODESIZE PUSH2 0x3EA4 JUMP JUMPDEST RETURNDATASIZE SWAP2 POP PUSH2 0x4219 JUMP JUMPDEST PUSH2 0x424B PUSH2 0x429E SWAP2 DUP9 PUSH2 0x2D7F JUMP JUMPDEST PUSH1 0x1 PUSH1 0x1 PUSH1 0xA0 SHL SUB PUSH32 0x0 DUP2 AND SWAP1 PUSH32 0x0 AND PUSH2 0x2C65 JUMP JUMPDEST CODESIZE PUSH2 0x3E23 JUMP JUMPDEST SWAP1 PUSH1 0x20 DUP3 RETURNDATASIZE PUSH1 0x20 GT PUSH2 0x42CE JUMPI JUMPDEST DUP2 PUSH2 0x42BE PUSH1 0x20 SWAP4 DUP4 PUSH2 0x24DC JUMP JUMPDEST DUP2 ADD SUB SLT PUSH2 0x29C JUMPI POP MLOAD CODESIZE PUSH2 0x3E1A JUMP JUMPDEST RETURNDATASIZE SWAP2 POP PUSH2 0x42B1 JUMP JUMPDEST PUSH32 0x637414B7B370A8973BC89032447F4C07AD3048B83CE07B32E928D92FF3EDAF5E SWAP2 SWAP4 SWAP3 PUSH2 0x4353 PUSH1 0x1 DUP1 PUSH1 0xA0 SHL SUB PUSH2 0x4338 DUP4 DUP3 PUSH1 0x2 SLOAD PUSH1 0x8 SHR AND DUP4 PUSH32 0x0 AND PUSH2 0x3A61 JUMP JUMPDEST PUSH1 0x40 MLOAD SWAP4 DUP5 SWAP4 DUP5 MSTORE PUSH1 0x40 PUSH1 0x20 DUP6 ADD MSTORE AND SWAP5 PUSH1 0x40 DUP4 ADD SWAP1 PUSH2 0x21F3 JUMP JUMPDEST SUB SWAP1 LOG3 JUMP INVALID LOG2 PUSH5 0x6970667358 0x22 SLT KECCAK256 0x5D SELFDESTRUCT 0xC9 0xAE SUB PUSH21 0xE96353455CA7C94321810A925D1DB1BAF882E9F8A0 0xA7 0xBF DUP14 DUP14 BYTE PUSH5 0x736F6C6343 STOP ADDMOD EQ STOP CALLER 0x2F DUP8 DUP9 GT PUSH31 0x7EFF1D82E926EC794901D17C78024A50270940304540A733656F0D00000000 "},"methodIdentifiers":{"ADMIN_ROLE()":"75b238fc","DEFAULT_ADMIN_ROLE()":"a217fddf","PURCHASE_TAX_KEY()":"f987626b","SERVER_ROLE()":"18cf2834","USDT_DEC()":"9a7844a6","USDT_SCALE()":"6398bf82","USDT_SCALE_UP()":"bde0280f","addPackage(string,uint256,uint256,uint16,uint64,uint64,uint16)":"5c691b08","deadlineWindow()":"c28399ef","factory()":"c45a0155","getActivePackageIds()":"9e4f8ab8","getCurrentMarketPrice()":"1ae74cce","getPackage(uint256)":"b99dfe18","getPackageCount()":"9eb87dec","getPackageIds()":"2cf91f64","getRoleAdmin(bytes32)":"248a9ca3","getUserPackageCount(address)":"fcc18c23","getUserPackages(address)":"deef5378","getUserPurchase(address,uint256)":"46a56835","getUserPurchaseCount(address)":"91b96b63","getUserPurchases(address)":"c6e5d8f6","getUserRedemptionCount(address)":"ce9ddccc","getUserRedemptions(address)":"c4e71eaf","getUserStats(address)":"4e43603a","globalTargetPrice()":"175d1bcb","grantRole(bytes32,address)":"2f2ff15d","hasRole(bytes32,address)":"91d14854","initRouterAllowances()":"8d232612","lpToken()":"5fcbd285","nextPackageId()":"d7da9e4f","pause()":"8456cb59","paused()":"5c975abb","purchase(uint256,address)":"ae77c237","purchaseFor(address,uint256,address)":"c1da6bbc","redeem(uint256)":"db006a75","renounceRole(bytes32,address)":"36568abe","revokeRole(bytes32,address)":"d547741f","router()":"f887ea40","setDeadlineWindow(uint256)":"8432e3a6","setGlobalTargetPrice(uint256)":"7d2fd64e","setPackageExchangeRate(uint256,uint256)":"da7b109d","setSlippageTolerance(uint256)":"117da1ee","setTreasury(address)":"f0f44260","shareToken()":"6c9fa59e","slippageTolerance()":"d03153aa","supportsInterface(bytes4)":"01ffc9a7","taxManager()":"4d237730","togglePackage(uint256)":"df8ae236","treasury()":"61d027b3","unpause()":"3f4ba83a","usdt()":"2f48ab7d","vestingVault()":"a5917baf"}}}}}