{"contracts/MpesaTreasuryAdapter.sol":{"MpesaTreasuryAdapter":{"abi":[{"inputs":[{"internalType":"address","name":"_usdt","type":"address"},{"internalType":"address","name":"_pm","type":"address"},{"internalType":"address","name":"_treasury","type":"address"},{"internalType":"address","name":"_backend","type":"address"}],"stateMutability":"nonpayable","type":"constructor"},{"inputs":[],"name":"backendEOA","outputs":[{"internalType":"address","name":"","type":"address"}],"stateMutability":"view","type":"function"},{"inputs":[],"name":"packageManager","outputs":[{"internalType":"address","name":"","type":"address"}],"stateMutability":"view","type":"function"},{"inputs":[{"internalType":"address","name":"buyer","type":"address"},{"internalType":"uint256","name":"packageId","type":"uint256"},{"internalType":"address","name":"referrer","type":"address"}],"name":"purchaseUsingTreasury","outputs":[],"stateMutability":"nonpayable","type":"function"},{"inputs":[],"name":"treasury","outputs":[{"internalType":"address","name":"","type":"address"}],"stateMutability":"view","type":"function"},{"inputs":[],"name":"usdt","outputs":[{"internalType":"address","name":"","type":"address"}],"stateMutability":"view","type":"function"}],"evm":{"bytecode":{"linkReferences":{},"object":"6101003461016b57601f610aee38819003918201601f19168301916001600160401b038311848410176101705780849260809460405283398101031261016b5761004881610186565b9061005560208201610186565b61006d606061006660408501610186565b9301610186565b926001600160a01b038082161515908161015f575b81610153575b81610147575b50156101175760805260a05260c05260e052604051610953908161019b8239608051818181610276015261083d015260a051818181606d0152818161012b01528181610187015281816101e2015281816102ca0152818161031c0152818161038501526103fc015260c05181818161024101526107f8015260e05181818160d901526108800152f35b60405162461bcd60e51b81526020600482015260086024820152673130b21030b2323960c11b6044820152606490fd5b9050841615153861008e565b84811615159150610088565b83811615159150610082565b600080fd5b634e487b7160e01b600052604160045260246000fd5b51906001600160a01b038216820361016b5756fe608080604052600436101561001357600080fd5b600090813560e01c9081631b41073f1461086c575080632f48ab7d1461082757806361d027b3146107e257806367785d481461009f5763bf2e233e1461005857600080fd5b3461009c578060031936011261009c576040517f00000000000000000000000000000000000000000000000000000000000000006001600160a01b03168152602090f35b80fd5b503461009c57606036600319011261009c576004356001600160a01b03811681036107de576044356001600160a01b03811681036103e9577f00000000000000000000000000000000000000000000000000000000000000006001600160a01b031633036107ab576001600160a01b0382161561077a57604051630633ca0d60e21b81526020816004817f00000000000000000000000000000000000000000000000000000000000000006001600160a01b03165afa9081156104cc578491610748575b50604051632474521560e21b815260048101919091523060248201526020816044817f00000000000000000000000000000000000000000000000000000000000000006001600160a01b03165afa9081156104cc57849161070e575b50156106d857604051631733bfc360e31b815260248035600483015284908290817f00000000000000000000000000000000000000000000000000000000000000006001600160a01b03165afa80156104cc578491859086926105be575b50816105b6575b5015610583576040516323b872dd60e01b81526001600160a01b037f000000000000000000000000000000000000000000000000000000000000000081166004830152306024830152604482018390527f0000000000000000000000000000000000000000000000000000000000000000169060208160648189865af190811561057857869161053a575b501561050957604051636eb1769f60e11b81523060048201527f00000000000000000000000000000000000000000000000000000000000000006001600160a01b03166024820152859290602081604481865afa9081156104cc5784916104d7575b50106103ed575b50507f00000000000000000000000000000000000000000000000000000000000000006001600160a01b03163b156103e9576040516330769aef60e21b81526001600160a01b039283166004820152602480359082015290821660448201529082908290606490829084907f0000000000000000000000000000000000000000000000000000000000000000165af180156103de576103b5575080f35b67ffffffffffffffff81116103ca5760405280f35b634e487b7160e01b82526041600452602482fd5b6040513d84823e3d90fd5b8280fd5b60405163095ea7b360e01b81527f00000000000000000000000000000000000000000000000000000000000000006001600160a01b0316600482015260001960248201529160209183916044918391905af19081156104cc57849161048e575b501561045a578238610318565b60405162461bcd60e51b815260206004820152600c60248201526b185c1c1c9bdd994819985a5b60a21b6044820152606490fd5b90506020813d6020116104c4575b816104a9602093836108af565b810103126104c0576104ba906108e7565b3861044d565b8380fd5b3d915061049c565b6040513d86823e3d90fd5b90506020813d602011610501575b816104f2602093836108af565b810103126104c0575138610311565b3d91506104e5565b60405162461bcd60e51b81526020600482015260096024820152681c1d5b1b0819985a5b60ba1b6044820152606490fd5b90506020813d602011610570575b81610555602093836108af565b8101031261056c57610566906108e7565b386102af565b8580fd5b3d9150610548565b6040513d88823e3d90fd5b60405162461bcd60e51b815260206004820152600b60248201526a626164207061636b61676560a81b6044820152606490fd5b905038610224565b925050503d8085833e6105d181836108af565b8101610120828203126106d45781516105ec604084016108f9565b506105f9606084016108f9565b506106066080840161090e565b5061061360a0840161090e565b5061062060c084016108e7565b9261062d60e082016108e7565b926101008201519167ffffffffffffffff928381116106bc5782601f8284010112156106bc57808201519384116106c05760405192610676601f8601601f1916602001856108af565b8484526020858385010101116106bc579089939291845b8481106106a3575050500160200152913861021d565b602083830182018101518583018201528c96500161068d565b8980fd5b634e487b7160e01b8a52604160045260248afd5b8480fd5b60405162461bcd60e51b815260206004820152600e60248201526d6e6f2073657276657220726f6c6560901b6044820152606490fd5b90506020813d602011610740575b81610729602093836108af565b810103126104c05761073a906108e7565b386101bf565b3d915061071c565b90506020813d602011610772575b81610763602093836108af565b810103126104c0575138610163565b3d9150610756565b60405162461bcd60e51b81526020600482015260096024820152683130b210313abcb2b960b91b6044820152606490fd5b60405162461bcd60e51b815260206004820152600b60248201526a1b9bdd08189858dad95b9960aa1b6044820152606490fd5b5080fd5b503461009c578060031936011261009c576040517f00000000000000000000000000000000000000000000000000000000000000006001600160a01b03168152602090f35b503461009c578060031936011261009c576040517f00000000000000000000000000000000000000000000000000000000000000006001600160a01b03168152602090f35b9050346107de57816003193601126107de577f00000000000000000000000000000000000000000000000000000000000000006001600160a01b03168152602090f35b90601f8019910116810190811067ffffffffffffffff8211176108d157604052565b634e487b7160e01b600052604160045260246000fd5b519081151582036108f457565b600080fd5b519067ffffffffffffffff821682036108f457565b519061ffff821682036108f45756fea2646970667358221220245f5ecdf5b263ea4fa3979355eecf8740d2848e900ebcb7472674452c82a92864736f6c63430008140033","opcodes":"PUSH2 0x100 CALLVALUE PUSH2 0x16B JUMPI PUSH1 0x1F PUSH2 0xAEE CODESIZE DUP2 SWAP1 SUB SWAP2 DUP3 ADD PUSH1 0x1F NOT AND DUP4 ADD SWAP2 PUSH1 0x1 PUSH1 0x1 PUSH1 0x40 SHL SUB DUP4 GT DUP5 DUP5 LT OR PUSH2 0x170 JUMPI DUP1 DUP5 SWAP3 PUSH1 0x80 SWAP5 PUSH1 0x40 MSTORE DUP4 CODECOPY DUP2 ADD SUB SLT PUSH2 0x16B JUMPI PUSH2 0x48 DUP2 PUSH2 0x186 JUMP JUMPDEST SWAP1 PUSH2 0x55 PUSH1 0x20 DUP3 ADD PUSH2 0x186 JUMP JUMPDEST PUSH2 0x6D PUSH1 0x60 PUSH2 0x66 PUSH1 0x40 DUP6 ADD PUSH2 0x186 JUMP JUMPDEST SWAP4 ADD PUSH2 0x186 JUMP JUMPDEST SWAP3 PUSH1 0x1 PUSH1 0x1 PUSH1 0xA0 SHL SUB DUP1 DUP3 AND ISZERO ISZERO SWAP1 DUP2 PUSH2 0x15F JUMPI JUMPDEST DUP2 PUSH2 0x153 JUMPI JUMPDEST DUP2 PUSH2 0x147 JUMPI JUMPDEST POP ISZERO PUSH2 0x117 JUMPI PUSH1 0x80 MSTORE PUSH1 0xA0 MSTORE PUSH1 0xC0 MSTORE PUSH1 0xE0 MSTORE PUSH1 0x40 MLOAD PUSH2 0x953 SWAP1 DUP2 PUSH2 0x19B DUP3 CODECOPY PUSH1 0x80 MLOAD DUP2 DUP2 DUP2 PUSH2 0x276 ADD MSTORE PUSH2 0x83D ADD MSTORE PUSH1 0xA0 MLOAD DUP2 DUP2 DUP2 PUSH1 0x6D ADD MSTORE DUP2 DUP2 PUSH2 0x12B ADD MSTORE DUP2 DUP2 PUSH2 0x187 ADD MSTORE DUP2 DUP2 PUSH2 0x1E2 ADD MSTORE DUP2 DUP2 PUSH2 0x2CA ADD MSTORE DUP2 DUP2 PUSH2 0x31C ADD MSTORE DUP2 DUP2 PUSH2 0x385 ADD MSTORE PUSH2 0x3FC ADD MSTORE PUSH1 0xC0 MLOAD DUP2 DUP2 DUP2 PUSH2 0x241 ADD MSTORE PUSH2 0x7F8 ADD MSTORE PUSH1 0xE0 MLOAD DUP2 DUP2 DUP2 PUSH1 0xD9 ADD MSTORE PUSH2 0x880 ADD MSTORE RETURN JUMPDEST PUSH1 0x40 MLOAD PUSH3 0x461BCD PUSH1 0xE5 SHL DUP2 MSTORE PUSH1 0x20 PUSH1 0x4 DUP3 ADD MSTORE PUSH1 0x8 PUSH1 0x24 DUP3 ADD MSTORE PUSH8 0x3130B21030B23239 PUSH1 0xC1 SHL PUSH1 0x44 DUP3 ADD MSTORE PUSH1 0x64 SWAP1 REVERT JUMPDEST SWAP1 POP DUP5 AND ISZERO ISZERO CODESIZE PUSH2 0x8E JUMP JUMPDEST DUP5 DUP2 AND ISZERO ISZERO SWAP2 POP PUSH2 0x88 JUMP JUMPDEST DUP4 DUP2 AND ISZERO ISZERO SWAP2 POP PUSH2 0x82 JUMP JUMPDEST PUSH1 0x0 DUP1 REVERT JUMPDEST PUSH4 0x4E487B71 PUSH1 0xE0 SHL PUSH1 0x0 MSTORE PUSH1 0x41 PUSH1 0x4 MSTORE PUSH1 0x24 PUSH1 0x0 REVERT JUMPDEST MLOAD SWAP1 PUSH1 0x1 PUSH1 0x1 PUSH1 0xA0 SHL SUB DUP3 AND DUP3 SUB PUSH2 0x16B JUMPI JUMP INVALID PUSH1 0x80 DUP1 PUSH1 0x40 MSTORE PUSH1 0x4 CALLDATASIZE LT ISZERO PUSH2 0x13 JUMPI PUSH1 0x0 DUP1 REVERT JUMPDEST PUSH1 0x0 SWAP1 DUP2 CALLDATALOAD PUSH1 0xE0 SHR SWAP1 DUP2 PUSH4 0x1B41073F EQ PUSH2 0x86C JUMPI POP DUP1 PUSH4 0x2F48AB7D EQ PUSH2 0x827 JUMPI DUP1 PUSH4 0x61D027B3 EQ PUSH2 0x7E2 JUMPI DUP1 PUSH4 0x67785D48 EQ PUSH2 0x9F JUMPI PUSH4 0xBF2E233E EQ PUSH2 0x58 JUMPI PUSH1 0x0 DUP1 REVERT JUMPDEST CALLVALUE PUSH2 0x9C JUMPI DUP1 PUSH1 0x3 NOT CALLDATASIZE ADD SLT PUSH2 0x9C JUMPI PUSH1 0x40 MLOAD PUSH32 0x0 PUSH1 0x1 PUSH1 0x1 PUSH1 0xA0 SHL SUB AND DUP2 MSTORE PUSH1 0x20 SWAP1 RETURN JUMPDEST DUP1 REVERT JUMPDEST POP CALLVALUE PUSH2 0x9C JUMPI PUSH1 0x60 CALLDATASIZE PUSH1 0x3 NOT ADD SLT PUSH2 0x9C JUMPI PUSH1 0x4 CALLDATALOAD PUSH1 0x1 PUSH1 0x1 PUSH1 0xA0 SHL SUB DUP2 AND DUP2 SUB PUSH2 0x7DE JUMPI PUSH1 0x44 CALLDATALOAD PUSH1 0x1 PUSH1 0x1 PUSH1 0xA0 SHL SUB DUP2 AND DUP2 SUB PUSH2 0x3E9 JUMPI PUSH32 0x0 PUSH1 0x1 PUSH1 0x1 PUSH1 0xA0 SHL SUB AND CALLER SUB PUSH2 0x7AB JUMPI PUSH1 0x1 PUSH1 0x1 PUSH1 0xA0 SHL SUB DUP3 AND ISZERO PUSH2 0x77A JUMPI PUSH1 0x40 MLOAD PUSH4 0x633CA0D PUSH1 0xE2 SHL DUP2 MSTORE PUSH1 0x20 DUP2 PUSH1 0x4 DUP2 PUSH32 0x0 PUSH1 0x1 PUSH1 0x1 PUSH1 0xA0 SHL SUB AND GAS STATICCALL SWAP1 DUP2 ISZERO PUSH2 0x4CC JUMPI DUP5 SWAP2 PUSH2 0x748 JUMPI JUMPDEST POP PUSH1 0x40 MLOAD PUSH4 0x24745215 PUSH1 0xE2 SHL DUP2 MSTORE PUSH1 0x4 DUP2 ADD SWAP2 SWAP1 SWAP2 MSTORE ADDRESS PUSH1 0x24 DUP3 ADD MSTORE PUSH1 0x20 DUP2 PUSH1 0x44 DUP2 PUSH32 0x0 PUSH1 0x1 PUSH1 0x1 PUSH1 0xA0 SHL SUB AND GAS STATICCALL SWAP1 DUP2 ISZERO PUSH2 0x4CC JUMPI DUP5 SWAP2 PUSH2 0x70E JUMPI JUMPDEST POP ISZERO PUSH2 0x6D8 JUMPI PUSH1 0x40 MLOAD PUSH4 0x1733BFC3 PUSH1 0xE3 SHL DUP2 MSTORE PUSH1 0x24 DUP1 CALLDATALOAD PUSH1 0x4 DUP4 ADD MSTORE DUP5 SWAP1 DUP3 SWAP1 DUP2 PUSH32 0x0 PUSH1 0x1 PUSH1 0x1 PUSH1 0xA0 SHL SUB AND GAS STATICCALL DUP1 ISZERO PUSH2 0x4CC JUMPI DUP5 SWAP2 DUP6 SWAP1 DUP7 SWAP3 PUSH2 0x5BE JUMPI JUMPDEST POP DUP2 PUSH2 0x5B6 JUMPI JUMPDEST POP ISZERO PUSH2 0x583 JUMPI PUSH1 0x40 MLOAD PUSH4 0x23B872DD PUSH1 0xE0 SHL DUP2 MSTORE PUSH1 0x1 PUSH1 0x1 PUSH1 0xA0 SHL SUB PUSH32 0x0 DUP2 AND PUSH1 0x4 DUP4 ADD MSTORE ADDRESS PUSH1 0x24 DUP4 ADD MSTORE PUSH1 0x44 DUP3 ADD DUP4 SWAP1 MSTORE PUSH32 0x0 AND SWAP1 PUSH1 0x20 DUP2 PUSH1 0x64 DUP2 DUP10 DUP7 GAS CALL SWAP1 DUP2 ISZERO PUSH2 0x578 JUMPI DUP7 SWAP2 PUSH2 0x53A JUMPI JUMPDEST POP ISZERO PUSH2 0x509 JUMPI PUSH1 0x40 MLOAD PUSH4 0x6EB1769F PUSH1 0xE1 SHL DUP2 MSTORE ADDRESS PUSH1 0x4 DUP3 ADD MSTORE PUSH32 0x0 PUSH1 0x1 PUSH1 0x1 PUSH1 0xA0 SHL SUB AND PUSH1 0x24 DUP3 ADD MSTORE DUP6 SWAP3 SWAP1 PUSH1 0x20 DUP2 PUSH1 0x44 DUP2 DUP7 GAS STATICCALL SWAP1 DUP2 ISZERO PUSH2 0x4CC JUMPI DUP5 SWAP2 PUSH2 0x4D7 JUMPI JUMPDEST POP LT PUSH2 0x3ED JUMPI JUMPDEST POP POP PUSH32 0x0 PUSH1 0x1 PUSH1 0x1 PUSH1 0xA0 SHL SUB AND EXTCODESIZE ISZERO PUSH2 0x3E9 JUMPI PUSH1 0x40 MLOAD PUSH4 0x30769AEF PUSH1 0xE2 SHL DUP2 MSTORE PUSH1 0x1 PUSH1 0x1 PUSH1 0xA0 SHL SUB SWAP3 DUP4 AND PUSH1 0x4 DUP3 ADD MSTORE PUSH1 0x24 DUP1 CALLDATALOAD SWAP1 DUP3 ADD MSTORE SWAP1 DUP3 AND PUSH1 0x44 DUP3 ADD MSTORE SWAP1 DUP3 SWAP1 DUP3 SWAP1 PUSH1 0x64 SWAP1 DUP3 SWAP1 DUP5 SWAP1 PUSH32 0x0 AND GAS CALL DUP1 ISZERO PUSH2 0x3DE JUMPI PUSH2 0x3B5 JUMPI POP DUP1 RETURN JUMPDEST PUSH8 0xFFFFFFFFFFFFFFFF DUP2 GT PUSH2 0x3CA JUMPI PUSH1 0x40 MSTORE DUP1 RETURN JUMPDEST PUSH4 0x4E487B71 PUSH1 0xE0 SHL DUP3 MSTORE PUSH1 0x41 PUSH1 0x4 MSTORE PUSH1 0x24 DUP3 REVERT JUMPDEST PUSH1 0x40 MLOAD RETURNDATASIZE DUP5 DUP3 RETURNDATACOPY RETURNDATASIZE SWAP1 REVERT JUMPDEST DUP3 DUP1 REVERT JUMPDEST PUSH1 0x40 MLOAD PUSH4 0x95EA7B3 PUSH1 0xE0 SHL DUP2 MSTORE PUSH32 0x0 PUSH1 0x1 PUSH1 0x1 PUSH1 0xA0 SHL SUB AND PUSH1 0x4 DUP3 ADD MSTORE PUSH1 0x0 NOT PUSH1 0x24 DUP3 ADD MSTORE SWAP2 PUSH1 0x20 SWAP2 DUP4 SWAP2 PUSH1 0x44 SWAP2 DUP4 SWAP2 SWAP1 GAS CALL SWAP1 DUP2 ISZERO PUSH2 0x4CC JUMPI DUP5 SWAP2 PUSH2 0x48E JUMPI JUMPDEST POP ISZERO PUSH2 0x45A JUMPI DUP3 CODESIZE PUSH2 0x318 JUMP JUMPDEST PUSH1 0x40 MLOAD PUSH3 0x461BCD PUSH1 0xE5 SHL DUP2 MSTORE PUSH1 0x20 PUSH1 0x4 DUP3 ADD MSTORE PUSH1 0xC PUSH1 0x24 DUP3 ADD MSTORE PUSH12 0x185C1C1C9BDD994819985A5B PUSH1 0xA2 SHL PUSH1 0x44 DUP3 ADD MSTORE PUSH1 0x64 SWAP1 REVERT JUMPDEST SWAP1 POP PUSH1 0x20 DUP2 RETURNDATASIZE PUSH1 0x20 GT PUSH2 0x4C4 JUMPI JUMPDEST DUP2 PUSH2 0x4A9 PUSH1 0x20 SWAP4 DUP4 PUSH2 0x8AF JUMP JUMPDEST DUP2 ADD SUB SLT PUSH2 0x4C0 JUMPI PUSH2 0x4BA SWAP1 PUSH2 0x8E7 JUMP JUMPDEST CODESIZE PUSH2 0x44D JUMP JUMPDEST DUP4 DUP1 REVERT JUMPDEST RETURNDATASIZE SWAP2 POP PUSH2 0x49C JUMP JUMPDEST PUSH1 0x40 MLOAD RETURNDATASIZE DUP7 DUP3 RETURNDATACOPY RETURNDATASIZE SWAP1 REVERT JUMPDEST SWAP1 POP PUSH1 0x20 DUP2 RETURNDATASIZE PUSH1 0x20 GT PUSH2 0x501 JUMPI JUMPDEST DUP2 PUSH2 0x4F2 PUSH1 0x20 SWAP4 DUP4 PUSH2 0x8AF JUMP JUMPDEST DUP2 ADD SUB SLT PUSH2 0x4C0 JUMPI MLOAD CODESIZE PUSH2 0x311 JUMP JUMPDEST RETURNDATASIZE SWAP2 POP PUSH2 0x4E5 JUMP JUMPDEST PUSH1 0x40 MLOAD PUSH3 0x461BCD PUSH1 0xE5 SHL DUP2 MSTORE PUSH1 0x20 PUSH1 0x4 DUP3 ADD MSTORE PUSH1 0x9 PUSH1 0x24 DUP3 ADD MSTORE PUSH9 0x1C1D5B1B0819985A5B PUSH1 0xBA SHL PUSH1 0x44 DUP3 ADD MSTORE PUSH1 0x64 SWAP1 REVERT JUMPDEST SWAP1 POP PUSH1 0x20 DUP2 RETURNDATASIZE PUSH1 0x20 GT PUSH2 0x570 JUMPI JUMPDEST DUP2 PUSH2 0x555 PUSH1 0x20 SWAP4 DUP4 PUSH2 0x8AF JUMP JUMPDEST DUP2 ADD SUB SLT PUSH2 0x56C JUMPI PUSH2 0x566 SWAP1 PUSH2 0x8E7 JUMP JUMPDEST CODESIZE PUSH2 0x2AF JUMP JUMPDEST DUP6 DUP1 REVERT JUMPDEST RETURNDATASIZE SWAP2 POP PUSH2 0x548 JUMP JUMPDEST PUSH1 0x40 MLOAD RETURNDATASIZE DUP9 DUP3 RETURNDATACOPY RETURNDATASIZE SWAP1 REVERT JUMPDEST PUSH1 0x40 MLOAD PUSH3 0x461BCD PUSH1 0xE5 SHL DUP2 MSTORE PUSH1 0x20 PUSH1 0x4 DUP3 ADD MSTORE PUSH1 0xB PUSH1 0x24 DUP3 ADD MSTORE PUSH11 0x626164207061636B616765 PUSH1 0xA8 SHL PUSH1 0x44 DUP3 ADD MSTORE PUSH1 0x64 SWAP1 REVERT JUMPDEST SWAP1 POP CODESIZE PUSH2 0x224 JUMP JUMPDEST SWAP3 POP POP POP RETURNDATASIZE DUP1 DUP6 DUP4 RETURNDATACOPY PUSH2 0x5D1 DUP2 DUP4 PUSH2 0x8AF JUMP JUMPDEST DUP2 ADD PUSH2 0x120 DUP3 DUP3 SUB SLT PUSH2 0x6D4 JUMPI DUP2 MLOAD PUSH2 0x5EC PUSH1 0x40 DUP5 ADD PUSH2 0x8F9 JUMP JUMPDEST POP PUSH2 0x5F9 PUSH1 0x60 DUP5 ADD PUSH2 0x8F9 JUMP JUMPDEST POP PUSH2 0x606 PUSH1 0x80 DUP5 ADD PUSH2 0x90E JUMP JUMPDEST POP PUSH2 0x613 PUSH1 0xA0 DUP5 ADD PUSH2 0x90E JUMP JUMPDEST POP PUSH2 0x620 PUSH1 0xC0 DUP5 ADD PUSH2 0x8E7 JUMP JUMPDEST SWAP3 PUSH2 0x62D PUSH1 0xE0 DUP3 ADD PUSH2 0x8E7 JUMP JUMPDEST SWAP3 PUSH2 0x100 DUP3 ADD MLOAD SWAP2 PUSH8 0xFFFFFFFFFFFFFFFF SWAP3 DUP4 DUP2 GT PUSH2 0x6BC JUMPI DUP3 PUSH1 0x1F DUP3 DUP5 ADD ADD SLT ISZERO PUSH2 0x6BC JUMPI DUP1 DUP3 ADD MLOAD SWAP4 DUP5 GT PUSH2 0x6C0 JUMPI PUSH1 0x40 MLOAD SWAP3 PUSH2 0x676 PUSH1 0x1F DUP7 ADD PUSH1 0x1F NOT AND PUSH1 0x20 ADD DUP6 PUSH2 0x8AF JUMP JUMPDEST DUP5 DUP5 MSTORE PUSH1 0x20 DUP6 DUP4 DUP6 ADD ADD ADD GT PUSH2 0x6BC JUMPI SWAP1 DUP10 SWAP4 SWAP3 SWAP2 DUP5 JUMPDEST DUP5 DUP2 LT PUSH2 0x6A3 JUMPI POP POP POP ADD PUSH1 0x20 ADD MSTORE SWAP2 CODESIZE PUSH2 0x21D JUMP JUMPDEST PUSH1 0x20 DUP4 DUP4 ADD DUP3 ADD DUP2 ADD MLOAD DUP6 DUP4 ADD DUP3 ADD MSTORE DUP13 SWAP7 POP ADD PUSH2 0x68D JUMP JUMPDEST DUP10 DUP1 REVERT JUMPDEST PUSH4 0x4E487B71 PUSH1 0xE0 SHL DUP11 MSTORE PUSH1 0x41 PUSH1 0x4 MSTORE PUSH1 0x24 DUP11 REVERT JUMPDEST DUP5 DUP1 REVERT JUMPDEST PUSH1 0x40 MLOAD PUSH3 0x461BCD PUSH1 0xE5 SHL DUP2 MSTORE PUSH1 0x20 PUSH1 0x4 DUP3 ADD MSTORE PUSH1 0xE PUSH1 0x24 DUP3 ADD MSTORE PUSH14 0x6E6F2073657276657220726F6C65 PUSH1 0x90 SHL PUSH1 0x44 DUP3 ADD MSTORE PUSH1 0x64 SWAP1 REVERT JUMPDEST SWAP1 POP PUSH1 0x20 DUP2 RETURNDATASIZE PUSH1 0x20 GT PUSH2 0x740 JUMPI JUMPDEST DUP2 PUSH2 0x729 PUSH1 0x20 SWAP4 DUP4 PUSH2 0x8AF JUMP JUMPDEST DUP2 ADD SUB SLT PUSH2 0x4C0 JUMPI PUSH2 0x73A SWAP1 PUSH2 0x8E7 JUMP JUMPDEST CODESIZE PUSH2 0x1BF JUMP JUMPDEST RETURNDATASIZE SWAP2 POP PUSH2 0x71C JUMP JUMPDEST SWAP1 POP PUSH1 0x20 DUP2 RETURNDATASIZE PUSH1 0x20 GT PUSH2 0x772 JUMPI JUMPDEST DUP2 PUSH2 0x763 PUSH1 0x20 SWAP4 DUP4 PUSH2 0x8AF JUMP JUMPDEST DUP2 ADD SUB SLT PUSH2 0x4C0 JUMPI MLOAD CODESIZE PUSH2 0x163 JUMP JUMPDEST RETURNDATASIZE SWAP2 POP PUSH2 0x756 JUMP JUMPDEST PUSH1 0x40 MLOAD PUSH3 0x461BCD PUSH1 0xE5 SHL DUP2 MSTORE PUSH1 0x20 PUSH1 0x4 DUP3 ADD MSTORE PUSH1 0x9 PUSH1 0x24 DUP3 ADD MSTORE PUSH9 0x3130B210313ABCB2B9 PUSH1 0xB9 SHL PUSH1 0x44 DUP3 ADD MSTORE PUSH1 0x64 SWAP1 REVERT JUMPDEST PUSH1 0x40 MLOAD PUSH3 0x461BCD PUSH1 0xE5 SHL DUP2 MSTORE PUSH1 0x20 PUSH1 0x4 DUP3 ADD MSTORE PUSH1 0xB PUSH1 0x24 DUP3 ADD MSTORE PUSH11 0x1B9BDD08189858DAD95B99 PUSH1 0xAA SHL PUSH1 0x44 DUP3 ADD MSTORE PUSH1 0x64 SWAP1 REVERT JUMPDEST POP DUP1 REVERT JUMPDEST POP CALLVALUE PUSH2 0x9C JUMPI DUP1 PUSH1 0x3 NOT CALLDATASIZE ADD SLT PUSH2 0x9C JUMPI PUSH1 0x40 MLOAD PUSH32 0x0 PUSH1 0x1 PUSH1 0x1 PUSH1 0xA0 SHL SUB AND DUP2 MSTORE PUSH1 0x20 SWAP1 RETURN JUMPDEST POP CALLVALUE PUSH2 0x9C JUMPI DUP1 PUSH1 0x3 NOT CALLDATASIZE ADD SLT PUSH2 0x9C JUMPI PUSH1 0x40 MLOAD PUSH32 0x0 PUSH1 0x1 PUSH1 0x1 PUSH1 0xA0 SHL SUB AND DUP2 MSTORE PUSH1 0x20 SWAP1 RETURN JUMPDEST SWAP1 POP CALLVALUE PUSH2 0x7DE JUMPI DUP2 PUSH1 0x3 NOT CALLDATASIZE ADD SLT PUSH2 0x7DE JUMPI PUSH32 0x0 PUSH1 0x1 PUSH1 0x1 PUSH1 0xA0 SHL SUB AND DUP2 MSTORE PUSH1 0x20 SWAP1 RETURN JUMPDEST SWAP1 PUSH1 0x1F DUP1 NOT SWAP2 ADD AND DUP2 ADD SWAP1 DUP2 LT PUSH8 0xFFFFFFFFFFFFFFFF DUP3 GT OR PUSH2 0x8D1 JUMPI PUSH1 0x40 MSTORE JUMP JUMPDEST PUSH4 0x4E487B71 PUSH1 0xE0 SHL PUSH1 0x0 MSTORE PUSH1 0x41 PUSH1 0x4 MSTORE PUSH1 0x24 PUSH1 0x0 REVERT JUMPDEST MLOAD SWAP1 DUP2 ISZERO ISZERO DUP3 SUB PUSH2 0x8F4 JUMPI JUMP JUMPDEST PUSH1 0x0 DUP1 REVERT JUMPDEST MLOAD SWAP1 PUSH8 0xFFFFFFFFFFFFFFFF DUP3 AND DUP3 SUB PUSH2 0x8F4 JUMPI JUMP JUMPDEST MLOAD SWAP1 PUSH2 0xFFFF DUP3 AND DUP3 SUB PUSH2 0x8F4 JUMPI JUMP INVALID LOG2 PUSH5 0x6970667358 0x22 SLT KECCAK256 0x24 PUSH0 0x5E 0xCD CREATE2 0xB2 PUSH4 0xEA4FA397 SWAP4 SSTORE 0xEE 0xCF DUP8 BLOCKHASH 0xD2 DUP5 DUP15 SWAP1 0xE 0xBC 0xB7 SELFBALANCE 0x26 PUSH21 0x452C82A92864736F6C634300081400330000000000 "},"methodIdentifiers":{"backendEOA()":"1b41073f","packageManager()":"bf2e233e","purchaseUsingTreasury(address,uint256,address)":"67785d48","treasury()":"61d027b3","usdt()":"2f48ab7d"}},"storageLayout":{"storage":[],"types":null}}}}