{
  "_format": "hh-sol-artifact-1",
  "contractName": "GaslessPackageManager",
  "sourceName": "contracts/GaslessPackageManager.sol",
  "abi": [
    {
      "inputs": [
        {
          "internalType": "address",
          "name": "usdt_",
          "type": "address"
        },
        {
          "internalType": "address",
          "name": "share_",
          "type": "address"
        },
        {
          "internalType": "address",
          "name": "lp_",
          "type": "address"
        },
        {
          "internalType": "address",
          "name": "vault_",
          "type": "address"
        },
        {
          "internalType": "address",
          "name": "router_",
          "type": "address"
        },
        {
          "internalType": "address",
          "name": "factory_",
          "type": "address"
        },
        {
          "internalType": "address",
          "name": "treasury_",
          "type": "address"
        },
        {
          "internalType": "address",
          "name": "tax_",
          "type": "address"
        },
        {
          "internalType": "address",
          "name": "admin",
          "type": "address"
        },
        {
          "internalType": "uint256",
          "name": "initialGlobalTargetPrice_",
          "type": "uint256"
        }
      ],
      "stateMutability": "nonpayable",
      "type": "constructor"
    },
    {
      "inputs": [],
      "name": "AccessControlBadConfirmation",
      "type": "error"
    },
    {
      "inputs": [
        {
          "internalType": "address",
          "name": "account",
          "type": "address"
        },
        {
          "internalType": "bytes32",
          "name": "neededRole",
          "type": "bytes32"
        }
      ],
      "name": "AccessControlUnauthorizedAccount",
      "type": "error"
    },
    {
      "inputs": [],
      "name": "ECDSAInvalidSignature",
      "type": "error"
    },
    {
      "inputs": [
        {
          "internalType": "uint256",
          "name": "length",
          "type": "uint256"
        }
      ],
      "name": "ECDSAInvalidSignatureLength",
      "type": "error"
    },
    {
      "inputs": [
        {
          "internalType": "bytes32",
          "name": "s",
          "type": "bytes32"
        }
      ],
      "name": "ECDSAInvalidSignatureS",
      "type": "error"
    },
    {
      "inputs": [],
      "name": "EnforcedPause",
      "type": "error"
    },
    {
      "inputs": [],
      "name": "ExpectedPause",
      "type": "error"
    },
    {
      "inputs": [],
      "name": "InvalidShortString",
      "type": "error"
    },
    {
      "inputs": [],
      "name": "ReentrancyGuardReentrantCall",
      "type": "error"
    },
    {
      "inputs": [
        {
          "internalType": "address",
          "name": "token",
          "type": "address"
        }
      ],
      "name": "SafeERC20FailedOperation",
      "type": "error"
    },
    {
      "inputs": [
        {
          "internalType": "string",
          "name": "str",
          "type": "string"
        }
      ],
      "name": "StringTooLong",
      "type": "error"
    },
    {
      "anonymous": false,
      "inputs": [
        {
          "indexed": false,
          "internalType": "uint256",
          "name": "oldWindow",
          "type": "uint256"
        },
        {
          "indexed": false,
          "internalType": "uint256",
          "name": "newWindow",
          "type": "uint256"
        }
      ],
      "name": "DeadlineWindowUpdated",
      "type": "event"
    },
    {
      "anonymous": false,
      "inputs": [],
      "name": "EIP712DomainChanged",
      "type": "event"
    },
    {
      "anonymous": false,
      "inputs": [
        {
          "indexed": true,
          "internalType": "address",
          "name": "buyer",
          "type": "address"
        },
        {
          "indexed": true,
          "internalType": "uint256",
          "name": "packageId",
          "type": "uint256"
        },
        {
          "indexed": false,
          "internalType": "uint256",
          "name": "usdtAmount",
          "type": "uint256"
        },
        {
          "indexed": true,
          "internalType": "address",
          "name": "referrer",
          "type": "address"
        },
        {
          "indexed": false,
          "internalType": "uint256",
          "name": "nonce",
          "type": "uint256"
        }
      ],
      "name": "GaslessPurchaseExecuted",
      "type": "event"
    },
    {
      "anonymous": false,
      "inputs": [
        {
          "indexed": false,
          "internalType": "uint256",
          "name": "oldGlobalTargetPrice",
          "type": "uint256"
        },
        {
          "indexed": false,
          "internalType": "uint256",
          "name": "newGlobalTargetPrice",
          "type": "uint256"
        }
      ],
      "name": "GlobalTargetPriceUpdated",
      "type": "event"
    },
    {
      "anonymous": false,
      "inputs": [
        {
          "indexed": true,
          "internalType": "address",
          "name": "user",
          "type": "address"
        },
        {
          "indexed": true,
          "internalType": "uint256",
          "name": "packageId",
          "type": "uint256"
        },
        {
          "indexed": false,
          "internalType": "uint256",
          "name": "shareTokenAmount",
          "type": "uint256"
        },
        {
          "indexed": false,
          "internalType": "uint256",
          "name": "usdtAmount",
          "type": "uint256"
        },
        {
          "indexed": false,
          "internalType": "uint256",
          "name": "liquidityTokens",
          "type": "uint256"
        },
        {
          "indexed": false,
          "internalType": "uint256",
          "name": "actualShareToken",
          "type": "uint256"
        },
        {
          "indexed": false,
          "internalType": "uint256",
          "name": "actualUSDT",
          "type": "uint256"
        }
      ],
      "name": "LiquidityAdded",
      "type": "event"
    },
    {
      "anonymous": false,
      "inputs": [
        {
          "indexed": true,
          "internalType": "address",
          "name": "user",
          "type": "address"
        },
        {
          "indexed": true,
          "internalType": "uint256",
          "name": "packageId",
          "type": "uint256"
        },
        {
          "indexed": false,
          "internalType": "uint256",
          "name": "usdtAmount",
          "type": "uint256"
        },
        {
          "indexed": false,
          "internalType": "string",
          "name": "reason",
          "type": "string"
        }
      ],
      "name": "LiquidityAdditionFailed",
      "type": "event"
    },
    {
      "anonymous": false,
      "inputs": [
        {
          "indexed": false,
          "internalType": "uint16",
          "name": "oldBps",
          "type": "uint16"
        },
        {
          "indexed": false,
          "internalType": "uint16",
          "name": "newBps",
          "type": "uint16"
        }
      ],
      "name": "LiquidityBpsUpdated",
      "type": "event"
    },
    {
      "anonymous": false,
      "inputs": [
        {
          "indexed": true,
          "internalType": "address",
          "name": "user",
          "type": "address"
        },
        {
          "indexed": false,
          "internalType": "uint256",
          "name": "lpTokensBurned",
          "type": "uint256"
        },
        {
          "indexed": false,
          "internalType": "uint256",
          "name": "liquidityRemoved",
          "type": "uint256"
        },
        {
          "indexed": false,
          "internalType": "uint256",
          "name": "shareTokenReceived",
          "type": "uint256"
        },
        {
          "indexed": false,
          "internalType": "uint256",
          "name": "usdtReceived",
          "type": "uint256"
        }
      ],
      "name": "LiquidityRedeemed",
      "type": "event"
    },
    {
      "anonymous": false,
      "inputs": [
        {
          "indexed": false,
          "internalType": "uint256",
          "name": "marketPrice",
          "type": "uint256"
        },
        {
          "indexed": false,
          "internalType": "uint256",
          "name": "globalTargetPrice",
          "type": "uint256"
        },
        {
          "indexed": false,
          "internalType": "uint256",
          "name": "priceDifference",
          "type": "uint256"
        }
      ],
      "name": "MarketPriceUsed",
      "type": "event"
    },
    {
      "anonymous": false,
      "inputs": [
        {
          "indexed": true,
          "internalType": "uint256",
          "name": "id",
          "type": "uint256"
        },
        {
          "indexed": false,
          "internalType": "string",
          "name": "name",
          "type": "string"
        },
        {
          "indexed": false,
          "internalType": "uint256",
          "name": "entryUSDT",
          "type": "uint256"
        },
        {
          "indexed": false,
          "internalType": "uint256",
          "name": "exchangeRate",
          "type": "uint256"
        },
        {
          "indexed": false,
          "internalType": "uint16",
          "name": "vestBps",
          "type": "uint16"
        },
        {
          "indexed": false,
          "internalType": "uint64",
          "name": "cliff",
          "type": "uint64"
        },
        {
          "indexed": false,
          "internalType": "uint64",
          "name": "duration",
          "type": "uint64"
        },
        {
          "indexed": false,
          "internalType": "uint16",
          "name": "referralBps",
          "type": "uint16"
        }
      ],
      "name": "PackageAdded",
      "type": "event"
    },
    {
      "anonymous": false,
      "inputs": [
        {
          "indexed": true,
          "internalType": "uint256",
          "name": "id",
          "type": "uint256"
        },
        {
          "indexed": false,
          "internalType": "uint256",
          "name": "oldExchangeRate",
          "type": "uint256"
        },
        {
          "indexed": false,
          "internalType": "uint256",
          "name": "newExchangeRate",
          "type": "uint256"
        }
      ],
      "name": "PackageExchangeRateUpdated",
      "type": "event"
    },
    {
      "anonymous": false,
      "inputs": [
        {
          "indexed": true,
          "internalType": "uint256",
          "name": "id",
          "type": "uint256"
        },
        {
          "indexed": false,
          "internalType": "bool",
          "name": "active",
          "type": "bool"
        }
      ],
      "name": "PackageToggled",
      "type": "event"
    },
    {
      "anonymous": false,
      "inputs": [
        {
          "indexed": false,
          "internalType": "address",
          "name": "account",
          "type": "address"
        }
      ],
      "name": "Paused",
      "type": "event"
    },
    {
      "anonymous": false,
      "inputs": [
        {
          "indexed": true,
          "internalType": "address",
          "name": "buyer",
          "type": "address"
        },
        {
          "indexed": true,
          "internalType": "uint256",
          "name": "packageId",
          "type": "uint256"
        },
        {
          "indexed": false,
          "internalType": "uint256",
          "name": "usdtAmount",
          "type": "uint256"
        },
        {
          "indexed": false,
          "internalType": "uint256",
          "name": "totalTokens",
          "type": "uint256"
        },
        {
          "indexed": false,
          "internalType": "uint256",
          "name": "vestTokens",
          "type": "uint256"
        },
        {
          "indexed": false,
          "internalType": "uint256",
          "name": "poolTokens",
          "type": "uint256"
        },
        {
          "indexed": false,
          "internalType": "uint256",
          "name": "lpTokens",
          "type": "uint256"
        },
        {
          "indexed": true,
          "internalType": "address",
          "name": "referrer",
          "type": "address"
        },
        {
          "indexed": false,
          "internalType": "uint256",
          "name": "referralReward",
          "type": "uint256"
        }
      ],
      "name": "Purchased",
      "type": "event"
    },
    {
      "anonymous": false,
      "inputs": [
        {
          "indexed": true,
          "internalType": "address",
          "name": "user",
          "type": "address"
        },
        {
          "indexed": false,
          "internalType": "uint256",
          "name": "lpAmount",
          "type": "uint256"
        }
      ],
      "name": "Redeemed",
      "type": "event"
    },
    {
      "anonymous": false,
      "inputs": [
        {
          "indexed": true,
          "internalType": "address",
          "name": "referrer",
          "type": "address"
        },
        {
          "indexed": true,
          "internalType": "address",
          "name": "buyer",
          "type": "address"
        },
        {
          "indexed": false,
          "internalType": "uint256",
          "name": "reward",
          "type": "uint256"
        }
      ],
      "name": "ReferralPaid",
      "type": "event"
    },
    {
      "anonymous": false,
      "inputs": [
        {
          "indexed": true,
          "internalType": "bytes32",
          "name": "role",
          "type": "bytes32"
        },
        {
          "indexed": true,
          "internalType": "bytes32",
          "name": "previousAdminRole",
          "type": "bytes32"
        },
        {
          "indexed": true,
          "internalType": "bytes32",
          "name": "newAdminRole",
          "type": "bytes32"
        }
      ],
      "name": "RoleAdminChanged",
      "type": "event"
    },
    {
      "anonymous": false,
      "inputs": [
        {
          "indexed": true,
          "internalType": "bytes32",
          "name": "role",
          "type": "bytes32"
        },
        {
          "indexed": true,
          "internalType": "address",
          "name": "account",
          "type": "address"
        },
        {
          "indexed": true,
          "internalType": "address",
          "name": "sender",
          "type": "address"
        }
      ],
      "name": "RoleGranted",
      "type": "event"
    },
    {
      "anonymous": false,
      "inputs": [
        {
          "indexed": true,
          "internalType": "bytes32",
          "name": "role",
          "type": "bytes32"
        },
        {
          "indexed": true,
          "internalType": "address",
          "name": "account",
          "type": "address"
        },
        {
          "indexed": true,
          "internalType": "address",
          "name": "sender",
          "type": "address"
        }
      ],
      "name": "RoleRevoked",
      "type": "event"
    },
    {
      "anonymous": false,
      "inputs": [
        {
          "indexed": true,
          "internalType": "address",
          "name": "user",
          "type": "address"
        },
        {
          "indexed": true,
          "internalType": "uint256",
          "name": "packageId",
          "type": "uint256"
        },
        {
          "indexed": false,
          "internalType": "uint256",
          "name": "requestedShareToken",
          "type": "uint256"
        },
        {
          "indexed": false,
          "internalType": "uint256",
          "name": "requestedUSDT",
          "type": "uint256"
        },
        {
          "indexed": false,
          "internalType": "uint256",
          "name": "minShareToken",
          "type": "uint256"
        },
        {
          "indexed": false,
          "internalType": "uint256",
          "name": "minUSDT",
          "type": "uint256"
        }
      ],
      "name": "SlippageProtectionTriggered",
      "type": "event"
    },
    {
      "anonymous": false,
      "inputs": [
        {
          "indexed": false,
          "internalType": "uint256",
          "name": "oldTolerance",
          "type": "uint256"
        },
        {
          "indexed": false,
          "internalType": "uint256",
          "name": "newTolerance",
          "type": "uint256"
        }
      ],
      "name": "SlippageToleranceUpdated",
      "type": "event"
    },
    {
      "anonymous": false,
      "inputs": [
        {
          "indexed": true,
          "internalType": "bytes32",
          "name": "taxKey",
          "type": "bytes32"
        },
        {
          "indexed": false,
          "internalType": "uint256",
          "name": "amount",
          "type": "uint256"
        },
        {
          "indexed": true,
          "internalType": "address",
          "name": "recipient",
          "type": "address"
        }
      ],
      "name": "TaxApplied",
      "type": "event"
    },
    {
      "anonymous": false,
      "inputs": [
        {
          "indexed": true,
          "internalType": "address",
          "name": "buyer",
          "type": "address"
        },
        {
          "indexed": true,
          "internalType": "uint256",
          "name": "packageId",
          "type": "uint256"
        },
        {
          "indexed": false,
          "internalType": "uint256",
          "name": "amount",
          "type": "uint256"
        }
      ],
      "name": "TreasuryBlocksAllocated",
      "type": "event"
    },
    {
      "anonymous": false,
      "inputs": [
        {
          "indexed": true,
          "internalType": "address",
          "name": "oldTreasury",
          "type": "address"
        },
        {
          "indexed": true,
          "internalType": "address",
          "name": "newTreasury",
          "type": "address"
        }
      ],
      "name": "TreasuryUpdated",
      "type": "event"
    },
    {
      "anonymous": false,
      "inputs": [
        {
          "indexed": false,
          "internalType": "address",
          "name": "account",
          "type": "address"
        }
      ],
      "name": "Unpaused",
      "type": "event"
    },
    {
      "inputs": [],
      "name": "ADMIN_ROLE",
      "outputs": [
        {
          "internalType": "bytes32",
          "name": "",
          "type": "bytes32"
        }
      ],
      "stateMutability": "view",
      "type": "function"
    },
    {
      "inputs": [],
      "name": "DEFAULT_ADMIN_ROLE",
      "outputs": [
        {
          "internalType": "bytes32",
          "name": "",
          "type": "bytes32"
        }
      ],
      "stateMutability": "view",
      "type": "function"
    },
    {
      "inputs": [],
      "name": "PURCHASE_TAX_KEY",
      "outputs": [
        {
          "internalType": "bytes32",
          "name": "",
          "type": "bytes32"
        }
      ],
      "stateMutability": "view",
      "type": "function"
    },
    {
      "inputs": [],
      "name": "PURCHASE_TYPEHASH",
      "outputs": [
        {
          "internalType": "bytes32",
          "name": "",
          "type": "bytes32"
        }
      ],
      "stateMutability": "view",
      "type": "function"
    },
    {
      "inputs": [],
      "name": "SERVER_ROLE",
      "outputs": [
        {
          "internalType": "bytes32",
          "name": "",
          "type": "bytes32"
        }
      ],
      "stateMutability": "view",
      "type": "function"
    },
    {
      "inputs": [],
      "name": "USDT_DEC",
      "outputs": [
        {
          "internalType": "uint8",
          "name": "",
          "type": "uint8"
        }
      ],
      "stateMutability": "view",
      "type": "function"
    },
    {
      "inputs": [],
      "name": "USDT_SCALE",
      "outputs": [
        {
          "internalType": "uint256",
          "name": "",
          "type": "uint256"
        }
      ],
      "stateMutability": "view",
      "type": "function"
    },
    {
      "inputs": [],
      "name": "USDT_SCALE_UP",
      "outputs": [
        {
          "internalType": "bool",
          "name": "",
          "type": "bool"
        }
      ],
      "stateMutability": "view",
      "type": "function"
    },
    {
      "inputs": [
        {
          "internalType": "string",
          "name": "name",
          "type": "string"
        },
        {
          "internalType": "uint256",
          "name": "entryUSDT",
          "type": "uint256"
        },
        {
          "internalType": "uint256",
          "name": "exchangeRate",
          "type": "uint256"
        },
        {
          "internalType": "uint16",
          "name": "vestBps",
          "type": "uint16"
        },
        {
          "internalType": "uint64",
          "name": "cliff",
          "type": "uint64"
        },
        {
          "internalType": "uint64",
          "name": "duration",
          "type": "uint64"
        },
        {
          "internalType": "uint16",
          "name": "referralBps",
          "type": "uint16"
        }
      ],
      "name": "addPackage",
      "outputs": [],
      "stateMutability": "nonpayable",
      "type": "function"
    },
    {
      "inputs": [],
      "name": "deadlineWindow",
      "outputs": [
        {
          "internalType": "uint256",
          "name": "",
          "type": "uint256"
        }
      ],
      "stateMutability": "view",
      "type": "function"
    },
    {
      "inputs": [],
      "name": "eip712Domain",
      "outputs": [
        {
          "internalType": "bytes1",
          "name": "fields",
          "type": "bytes1"
        },
        {
          "internalType": "string",
          "name": "name",
          "type": "string"
        },
        {
          "internalType": "string",
          "name": "version",
          "type": "string"
        },
        {
          "internalType": "uint256",
          "name": "chainId",
          "type": "uint256"
        },
        {
          "internalType": "address",
          "name": "verifyingContract",
          "type": "address"
        },
        {
          "internalType": "bytes32",
          "name": "salt",
          "type": "bytes32"
        },
        {
          "internalType": "uint256[]",
          "name": "extensions",
          "type": "uint256[]"
        }
      ],
      "stateMutability": "view",
      "type": "function"
    },
    {
      "inputs": [
        {
          "internalType": "uint256",
          "name": "packageId",
          "type": "uint256"
        },
        {
          "internalType": "uint256",
          "name": "usdtAmount",
          "type": "uint256"
        },
        {
          "internalType": "address",
          "name": "referrer",
          "type": "address"
        },
        {
          "internalType": "uint256",
          "name": "deadline",
          "type": "uint256"
        },
        {
          "internalType": "bytes",
          "name": "signature",
          "type": "bytes"
        }
      ],
      "name": "executeGaslessPurchase",
      "outputs": [
        {
          "internalType": "bool",
          "name": "",
          "type": "bool"
        }
      ],
      "stateMutability": "nonpayable",
      "type": "function"
    },
    {
      "inputs": [
        {
          "internalType": "address",
          "name": "from",
          "type": "address"
        },
        {
          "internalType": "uint256",
          "name": "packageId",
          "type": "uint256"
        },
        {
          "internalType": "uint256",
          "name": "usdtAmount",
          "type": "uint256"
        },
        {
          "internalType": "address",
          "name": "referrer",
          "type": "address"
        },
        {
          "internalType": "uint256",
          "name": "deadline",
          "type": "uint256"
        },
        {
          "internalType": "bytes",
          "name": "signature",
          "type": "bytes"
        }
      ],
      "name": "executeGaslessPurchaseFromForwarder",
      "outputs": [
        {
          "internalType": "bool",
          "name": "",
          "type": "bool"
        }
      ],
      "stateMutability": "nonpayable",
      "type": "function"
    },
    {
      "inputs": [],
      "name": "factory",
      "outputs": [
        {
          "internalType": "contract IPancakeFactory",
          "name": "",
          "type": "address"
        }
      ],
      "stateMutability": "view",
      "type": "function"
    },
    {
      "inputs": [],
      "name": "getActivePackageIds",
      "outputs": [
        {
          "internalType": "uint256[]",
          "name": "",
          "type": "uint256[]"
        }
      ],
      "stateMutability": "view",
      "type": "function"
    },
    {
      "inputs": [],
      "name": "getCurrentMarketPrice",
      "outputs": [
        {
          "internalType": "uint256",
          "name": "marketPrice",
          "type": "uint256"
        },
        {
          "internalType": "bool",
          "name": "hasLiquidity",
          "type": "bool"
        }
      ],
      "stateMutability": "view",
      "type": "function"
    },
    {
      "inputs": [
        {
          "internalType": "uint256",
          "name": "id",
          "type": "uint256"
        }
      ],
      "name": "getPackage",
      "outputs": [
        {
          "components": [
            {
              "internalType": "uint256",
              "name": "entryUSDT",
              "type": "uint256"
            },
            {
              "internalType": "uint256",
              "name": "exchangeRate",
              "type": "uint256"
            },
            {
              "internalType": "uint64",
              "name": "cliff",
              "type": "uint64"
            },
            {
              "internalType": "uint64",
              "name": "duration",
              "type": "uint64"
            },
            {
              "internalType": "uint16",
              "name": "vestBps",
              "type": "uint16"
            },
            {
              "internalType": "uint16",
              "name": "referralBps",
              "type": "uint16"
            },
            {
              "internalType": "bool",
              "name": "active",
              "type": "bool"
            },
            {
              "internalType": "bool",
              "name": "exists",
              "type": "bool"
            },
            {
              "internalType": "string",
              "name": "name",
              "type": "string"
            }
          ],
          "internalType": "struct PackageManagerV2_2.Package",
          "name": "",
          "type": "tuple"
        }
      ],
      "stateMutability": "view",
      "type": "function"
    },
    {
      "inputs": [],
      "name": "getPackageCount",
      "outputs": [
        {
          "internalType": "uint256",
          "name": "",
          "type": "uint256"
        }
      ],
      "stateMutability": "view",
      "type": "function"
    },
    {
      "inputs": [],
      "name": "getPackageIds",
      "outputs": [
        {
          "internalType": "uint256[]",
          "name": "",
          "type": "uint256[]"
        }
      ],
      "stateMutability": "view",
      "type": "function"
    },
    {
      "inputs": [
        {
          "internalType": "bytes32",
          "name": "role",
          "type": "bytes32"
        }
      ],
      "name": "getRoleAdmin",
      "outputs": [
        {
          "internalType": "bytes32",
          "name": "",
          "type": "bytes32"
        }
      ],
      "stateMutability": "view",
      "type": "function"
    },
    {
      "inputs": [
        {
          "internalType": "address",
          "name": "user",
          "type": "address"
        }
      ],
      "name": "getUserNonce",
      "outputs": [
        {
          "internalType": "uint256",
          "name": "",
          "type": "uint256"
        }
      ],
      "stateMutability": "view",
      "type": "function"
    },
    {
      "inputs": [
        {
          "internalType": "address",
          "name": "user",
          "type": "address"
        }
      ],
      "name": "getUserPackageCount",
      "outputs": [
        {
          "internalType": "uint256",
          "name": "",
          "type": "uint256"
        }
      ],
      "stateMutability": "view",
      "type": "function"
    },
    {
      "inputs": [
        {
          "internalType": "address",
          "name": "user",
          "type": "address"
        }
      ],
      "name": "getUserPackages",
      "outputs": [
        {
          "components": [
            {
              "internalType": "uint256",
              "name": "packageId",
              "type": "uint256"
            },
            {
              "internalType": "uint256",
              "name": "usdtAmount",
              "type": "uint256"
            },
            {
              "internalType": "uint256",
              "name": "totalTokens",
              "type": "uint256"
            },
            {
              "internalType": "uint256",
              "name": "vestTokens",
              "type": "uint256"
            },
            {
              "internalType": "uint256",
              "name": "poolTokens",
              "type": "uint256"
            },
            {
              "internalType": "uint256",
              "name": "lpTokens",
              "type": "uint256"
            },
            {
              "internalType": "address",
              "name": "referrer",
              "type": "address"
            },
            {
              "internalType": "uint256",
              "name": "referralReward",
              "type": "uint256"
            },
            {
              "internalType": "uint256",
              "name": "timestamp",
              "type": "uint256"
            }
          ],
          "internalType": "struct PackageManagerV2_2.UserPurchase[]",
          "name": "",
          "type": "tuple[]"
        }
      ],
      "stateMutability": "view",
      "type": "function"
    },
    {
      "inputs": [
        {
          "internalType": "address",
          "name": "user",
          "type": "address"
        },
        {
          "internalType": "uint256",
          "name": "index",
          "type": "uint256"
        }
      ],
      "name": "getUserPurchase",
      "outputs": [
        {
          "components": [
            {
              "internalType": "uint256",
              "name": "packageId",
              "type": "uint256"
            },
            {
              "internalType": "uint256",
              "name": "usdtAmount",
              "type": "uint256"
            },
            {
              "internalType": "uint256",
              "name": "totalTokens",
              "type": "uint256"
            },
            {
              "internalType": "uint256",
              "name": "vestTokens",
              "type": "uint256"
            },
            {
              "internalType": "uint256",
              "name": "poolTokens",
              "type": "uint256"
            },
            {
              "internalType": "uint256",
              "name": "lpTokens",
              "type": "uint256"
            },
            {
              "internalType": "address",
              "name": "referrer",
              "type": "address"
            },
            {
              "internalType": "uint256",
              "name": "referralReward",
              "type": "uint256"
            },
            {
              "internalType": "uint256",
              "name": "timestamp",
              "type": "uint256"
            }
          ],
          "internalType": "struct PackageManagerV2_2.UserPurchase",
          "name": "",
          "type": "tuple"
        }
      ],
      "stateMutability": "view",
      "type": "function"
    },
    {
      "inputs": [
        {
          "internalType": "address",
          "name": "user",
          "type": "address"
        }
      ],
      "name": "getUserPurchaseCount",
      "outputs": [
        {
          "internalType": "uint256",
          "name": "",
          "type": "uint256"
        }
      ],
      "stateMutability": "view",
      "type": "function"
    },
    {
      "inputs": [
        {
          "internalType": "address",
          "name": "user",
          "type": "address"
        }
      ],
      "name": "getUserPurchases",
      "outputs": [
        {
          "components": [
            {
              "internalType": "uint256",
              "name": "packageId",
              "type": "uint256"
            },
            {
              "internalType": "uint256",
              "name": "usdtAmount",
              "type": "uint256"
            },
            {
              "internalType": "uint256",
              "name": "totalTokens",
              "type": "uint256"
            },
            {
              "internalType": "uint256",
              "name": "vestTokens",
              "type": "uint256"
            },
            {
              "internalType": "uint256",
              "name": "poolTokens",
              "type": "uint256"
            },
            {
              "internalType": "uint256",
              "name": "lpTokens",
              "type": "uint256"
            },
            {
              "internalType": "address",
              "name": "referrer",
              "type": "address"
            },
            {
              "internalType": "uint256",
              "name": "referralReward",
              "type": "uint256"
            },
            {
              "internalType": "uint256",
              "name": "timestamp",
              "type": "uint256"
            }
          ],
          "internalType": "struct PackageManagerV2_2.UserPurchase[]",
          "name": "",
          "type": "tuple[]"
        }
      ],
      "stateMutability": "view",
      "type": "function"
    },
    {
      "inputs": [
        {
          "internalType": "address",
          "name": "user",
          "type": "address"
        }
      ],
      "name": "getUserRedemptionCount",
      "outputs": [
        {
          "internalType": "uint256",
          "name": "",
          "type": "uint256"
        }
      ],
      "stateMutability": "view",
      "type": "function"
    },
    {
      "inputs": [
        {
          "internalType": "address",
          "name": "user",
          "type": "address"
        }
      ],
      "name": "getUserRedemptions",
      "outputs": [
        {
          "internalType": "uint256[]",
          "name": "amounts",
          "type": "uint256[]"
        },
        {
          "internalType": "uint256[]",
          "name": "timestamps",
          "type": "uint256[]"
        }
      ],
      "stateMutability": "view",
      "type": "function"
    },
    {
      "inputs": [
        {
          "internalType": "address",
          "name": "user",
          "type": "address"
        }
      ],
      "name": "getUserStats",
      "outputs": [
        {
          "components": [
            {
              "internalType": "uint256",
              "name": "totalInvested",
              "type": "uint256"
            },
            {
              "internalType": "uint256",
              "name": "totalTokensReceived",
              "type": "uint256"
            },
            {
              "internalType": "uint256",
              "name": "totalVestTokens",
              "type": "uint256"
            },
            {
              "internalType": "uint256",
              "name": "totalPoolTokens",
              "type": "uint256"
            },
            {
              "internalType": "uint256",
              "name": "totalLPTokens",
              "type": "uint256"
            },
            {
              "internalType": "uint256",
              "name": "totalReferralRewards",
              "type": "uint256"
            },
            {
              "internalType": "uint256",
              "name": "purchaseCount",
              "type": "uint256"
            },
            {
              "internalType": "uint256",
              "name": "redemptionCount",
              "type": "uint256"
            },
            {
              "internalType": "uint256",
              "name": "totalRedemptions",
              "type": "uint256"
            }
          ],
          "internalType": "struct PackageManagerV2_2.UserStats",
          "name": "",
          "type": "tuple"
        }
      ],
      "stateMutability": "view",
      "type": "function"
    },
    {
      "inputs": [],
      "name": "globalTargetPrice",
      "outputs": [
        {
          "internalType": "uint256",
          "name": "",
          "type": "uint256"
        }
      ],
      "stateMutability": "view",
      "type": "function"
    },
    {
      "inputs": [
        {
          "internalType": "bytes32",
          "name": "role",
          "type": "bytes32"
        },
        {
          "internalType": "address",
          "name": "account",
          "type": "address"
        }
      ],
      "name": "grantRole",
      "outputs": [],
      "stateMutability": "nonpayable",
      "type": "function"
    },
    {
      "inputs": [
        {
          "internalType": "bytes32",
          "name": "role",
          "type": "bytes32"
        },
        {
          "internalType": "address",
          "name": "account",
          "type": "address"
        }
      ],
      "name": "hasRole",
      "outputs": [
        {
          "internalType": "bool",
          "name": "",
          "type": "bool"
        }
      ],
      "stateMutability": "view",
      "type": "function"
    },
    {
      "inputs": [],
      "name": "initRouterAllowances",
      "outputs": [],
      "stateMutability": "nonpayable",
      "type": "function"
    },
    {
      "inputs": [],
      "name": "liquidityBps",
      "outputs": [
        {
          "internalType": "uint16",
          "name": "",
          "type": "uint16"
        }
      ],
      "stateMutability": "view",
      "type": "function"
    },
    {
      "inputs": [],
      "name": "lpToken",
      "outputs": [
        {
          "internalType": "contract IBLOCKS_LP",
          "name": "",
          "type": "address"
        }
      ],
      "stateMutability": "view",
      "type": "function"
    },
    {
      "inputs": [],
      "name": "nextPackageId",
      "outputs": [
        {
          "internalType": "uint256",
          "name": "",
          "type": "uint256"
        }
      ],
      "stateMutability": "view",
      "type": "function"
    },
    {
      "inputs": [],
      "name": "pause",
      "outputs": [],
      "stateMutability": "nonpayable",
      "type": "function"
    },
    {
      "inputs": [],
      "name": "paused",
      "outputs": [
        {
          "internalType": "bool",
          "name": "",
          "type": "bool"
        }
      ],
      "stateMutability": "view",
      "type": "function"
    },
    {
      "inputs": [
        {
          "internalType": "uint256",
          "name": "id",
          "type": "uint256"
        },
        {
          "internalType": "address",
          "name": "referrer",
          "type": "address"
        }
      ],
      "name": "purchase",
      "outputs": [],
      "stateMutability": "nonpayable",
      "type": "function"
    },
    {
      "inputs": [
        {
          "internalType": "address",
          "name": "buyer",
          "type": "address"
        },
        {
          "internalType": "uint256",
          "name": "id",
          "type": "uint256"
        },
        {
          "internalType": "address",
          "name": "referrer",
          "type": "address"
        }
      ],
      "name": "purchaseFor",
      "outputs": [],
      "stateMutability": "nonpayable",
      "type": "function"
    },
    {
      "inputs": [
        {
          "internalType": "uint256",
          "name": "lpAmount",
          "type": "uint256"
        }
      ],
      "name": "redeem",
      "outputs": [],
      "stateMutability": "nonpayable",
      "type": "function"
    },
    {
      "inputs": [
        {
          "internalType": "bytes32",
          "name": "role",
          "type": "bytes32"
        },
        {
          "internalType": "address",
          "name": "callerConfirmation",
          "type": "address"
        }
      ],
      "name": "renounceRole",
      "outputs": [],
      "stateMutability": "nonpayable",
      "type": "function"
    },
    {
      "inputs": [
        {
          "internalType": "bytes32",
          "name": "role",
          "type": "bytes32"
        },
        {
          "internalType": "address",
          "name": "account",
          "type": "address"
        }
      ],
      "name": "revokeRole",
      "outputs": [],
      "stateMutability": "nonpayable",
      "type": "function"
    },
    {
      "inputs": [],
      "name": "router",
      "outputs": [
        {
          "internalType": "contract IPancakeRouter",
          "name": "",
          "type": "address"
        }
      ],
      "stateMutability": "view",
      "type": "function"
    },
    {
      "inputs": [
        {
          "internalType": "uint256",
          "name": "newWindow",
          "type": "uint256"
        }
      ],
      "name": "setDeadlineWindow",
      "outputs": [],
      "stateMutability": "nonpayable",
      "type": "function"
    },
    {
      "inputs": [
        {
          "internalType": "uint256",
          "name": "newPrice",
          "type": "uint256"
        }
      ],
      "name": "setGlobalTargetPrice",
      "outputs": [],
      "stateMutability": "nonpayable",
      "type": "function"
    },
    {
      "inputs": [
        {
          "internalType": "uint16",
          "name": "newBps",
          "type": "uint16"
        }
      ],
      "name": "setLiquidityBps",
      "outputs": [],
      "stateMutability": "nonpayable",
      "type": "function"
    },
    {
      "inputs": [
        {
          "internalType": "uint256",
          "name": "id",
          "type": "uint256"
        },
        {
          "internalType": "uint256",
          "name": "newExchangeRate",
          "type": "uint256"
        }
      ],
      "name": "setPackageExchangeRate",
      "outputs": [],
      "stateMutability": "nonpayable",
      "type": "function"
    },
    {
      "inputs": [
        {
          "internalType": "uint256",
          "name": "newTolBps",
          "type": "uint256"
        }
      ],
      "name": "setSlippageTolerance",
      "outputs": [],
      "stateMutability": "nonpayable",
      "type": "function"
    },
    {
      "inputs": [
        {
          "internalType": "address",
          "name": "newTreasury",
          "type": "address"
        }
      ],
      "name": "setTreasury",
      "outputs": [],
      "stateMutability": "nonpayable",
      "type": "function"
    },
    {
      "inputs": [],
      "name": "shareToken",
      "outputs": [
        {
          "internalType": "contract IBLOCKS",
          "name": "",
          "type": "address"
        }
      ],
      "stateMutability": "view",
      "type": "function"
    },
    {
      "inputs": [],
      "name": "slippageTolerance",
      "outputs": [
        {
          "internalType": "uint256",
          "name": "",
          "type": "uint256"
        }
      ],
      "stateMutability": "view",
      "type": "function"
    },
    {
      "inputs": [
        {
          "internalType": "bytes4",
          "name": "interfaceId",
          "type": "bytes4"
        }
      ],
      "name": "supportsInterface",
      "outputs": [
        {
          "internalType": "bool",
          "name": "",
          "type": "bool"
        }
      ],
      "stateMutability": "view",
      "type": "function"
    },
    {
      "inputs": [],
      "name": "taxManager",
      "outputs": [
        {
          "internalType": "contract ISwapTaxManager",
          "name": "",
          "type": "address"
        }
      ],
      "stateMutability": "view",
      "type": "function"
    },
    {
      "inputs": [
        {
          "internalType": "uint256",
          "name": "id",
          "type": "uint256"
        }
      ],
      "name": "togglePackage",
      "outputs": [],
      "stateMutability": "nonpayable",
      "type": "function"
    },
    {
      "inputs": [],
      "name": "treasury",
      "outputs": [
        {
          "internalType": "address",
          "name": "",
          "type": "address"
        }
      ],
      "stateMutability": "view",
      "type": "function"
    },
    {
      "inputs": [],
      "name": "unpause",
      "outputs": [],
      "stateMutability": "nonpayable",
      "type": "function"
    },
    {
      "inputs": [],
      "name": "usdt",
      "outputs": [
        {
          "internalType": "contract IERC20Decimals",
          "name": "",
          "type": "address"
        }
      ],
      "stateMutability": "view",
      "type": "function"
    },
    {
      "inputs": [],
      "name": "vestingVault",
      "outputs": [
        {
          "internalType": "contract IVestingVault",
          "name": "",
          "type": "address"
        }
      ],
      "stateMutability": "view",
      "type": "function"
    }
  ],
  "bytecode": "0x6102a080604052346200066c5761014081620059ed80380380916200002582856200068d565b8339810103126200066c576200003b81620006b1565b906200004a60208201620006b1565b916200005960408301620006b1565b916200006860608201620006b1565b926200007760808301620006b1565b906200008660a08401620006b1565b956200009560c08501620006b1565b94620000a460e08601620006b1565b90610120620000b76101008801620006b1565b9601519160405198620000ca8a62000671565b60158a527f4761736c6573735061636b6167654d616e61676572000000000000000000000060208b01526040519a620001038c62000671565b6005808d52640312e302e360dc1b60208e01526001805561012c6003556101f490556006805461ffff1916610bb81790556001600160a01b03938416958615158062000660575b8062000654575b8062000648575b806200063c575b8062000630575b8062000624575b8062000618575b806200060c575b15620005d857851562000593576080879052841660a05295831660c052821660e0529481166101005292831661012052929091166101405260028054610100600160a81b031916600886901b610100600160a81b0316179055600491825560405163313ce56760e01b81529160209183919082905afa90811562000587576000916200053c575b5061016081905260ff16600060128203620004c957506200023f92916012620002389260015b6101805211156101a052620006ee565b506200076e565b506200024b8162000810565b610260526200025a82620009ed565b610280526020815191012090816102205260208151910120908161024052466101e0526040519160208301917f8b73c3c69bb8fe3d512ecc4cf759cc79239f7b179b0ffacaa9a75d522b39400f8352604084015260608301524660808301523060a083015260a0825260c082019180831060018060401b03841117620004b35782604052519020906101c0918252610200308152614e27928362000ba68439608051838181610586015281816113e8015281816121450152818161310e015281816133d601528181613b3101528181614589015281816147dd015281816149db0152614dac015260a0518381816105530152818161141601528181611821015281816133aa01528181613ea501528181613f0501528181613f5c0152818161415f0152818161436c015281816143c40152818161446c0152614a3f015260c0518381816105050152818161190301526140d4015260e0518381816107010152818161117a015281816141a50152818161420801526142710152610100518381816103010152818161067f015281816113c001526149a40152610120518381816105b701528181610c6701528181611475015261340f015261014051838181611f8b015261473801526101605183818161131a01526134c601526101805183818161189f01528181613b9301528181614319015281816144fc01526145cd01526101a051838181610f5101528181613b6a01526142f001525182612f8c01526101e0518261305701525181612f5601526102205181612fdb015261024051816130010152610260518161151b015261028051816115440152f35b634e487b7160e01b600052604160045260246000fd5b60128210156200051457816012039060ff82116200050057509160126200023892620004fa6200023f9695620006c6565b62000228565b634e487b7160e01b81526011600452602490fd5b60111982019060ff82116200050057509160126200023892620004fa6200023f9695620006c6565b6020813d6020116200057e575b8162000558602093836200068d565b810103126200057a57519060ff8216820362000577575060ff62000202565b80fd5b5080fd5b3d915062000549565b6040513d6000823e3d90fd5b60405162461bcd60e51b815260206004820152601560248201527f496e76616c696420676c6f62616c2074617267657400000000000000000000006044820152606490fd5b60405162461bcd60e51b815260206004820152600c60248201526b24b73b30b634b21030b2323960a11b6044820152606490fd5b50848a1615156200017b565b50848416151562000174565b50848b1615156200016d565b50848216151562000166565b5084891615156200015f565b50848316151562000158565b50848816151562000151565b5084811615156200014a565b600080fd5b604081019081106001600160401b03821117620004b357604052565b601f909101601f19168101906001600160401b03821190821017620004b357604052565b51906001600160a01b03821682036200066c57565b60ff16604d8111620006d857600a0a90565b634e487b7160e01b600052601160045260246000fd5b6001600160a01b031660008181527fad3228b676f7d3cd4284a5443f17f1962b36e491b30a40b2405849e597ba5fb5602052604081205490919060ff166200076a57818052816020526040822081835260205260408220600160ff198254161790553391600080516020620059cd8339815191528180a4600190565b5090565b6001600160a01b031660008181527f9c5aa8bf4d93dca6430115e88fa8c1700204beda30fff3ec04054c8739a0a2b560205260408120549091907fa8a7bc421f721cb936ea99efdad79237e6ee0b871a2a08cf648691f9584cdc779060ff166200080b57808352826020526040832082845260205260408320600160ff19825416179055600080516020620059cd833981519152339380a4600190565b505090565b805160209081811015620008ad5750601f8251116200084c57808251920151908083106200083d57501790565b82600019910360031b1b161790565b90604051809263305a27a960e01b82528060048301528251908160248401526000935b82851062000893575050604492506000838284010152601f80199101168101030190fd5b84810182015186860160440152938101938593506200086f565b906001600160401b038211620004b357600e54926001938481811c91168015620009e2575b83821014620009cc57601f811162000992575b5081601f84116001146200092657509282939183926000946200091a575b50501b916000199060031b1c191617600e5560ff90565b01519250388062000903565b919083601f198116600e60005284600020946000905b888383106200097757505050106200095d575b505050811b01600e5560ff90565b015160001960f88460031b161c191690553880806200094f565b8587015188559096019594850194879350908101906200093c565b600e60005284601f84600020920160051c820191601f860160051c015b828110620009bf575050620008e5565b60008155018590620009af565b634e487b7160e01b600052602260045260246000fd5b90607f1690620008d2565b80516020908181101562000a7b5750601f82511162000a1a57808251920151908083106200083d57501790565b90604051809263305a27a960e01b82528060048301528251908160248401526000935b82851062000a61575050604492506000838284010152601f80199101168101030190fd5b848101820151868601604401529381019385935062000a3d565b906001600160401b038211620004b357600f54926001938481811c9116801562000b9a575b83821014620009cc57601f811162000b60575b5081601f841160011462000af4575092829391839260009462000ae8575b50501b916000199060031b1c191617600f5560ff90565b01519250388062000ad1565b919083601f198116600f60005284600020946000905b8883831062000b45575050501062000b2b575b505050811b01600f5560ff90565b015160001960f88460031b161c1916905538808062000b1d565b85870151885590960195948501948793509081019062000b0a565b600f60005284601f84600020920160051c820191601f860160051c015b82811062000b8d57505062000ab3565b6000815501859062000b7d565b90607f169062000aa056fe608080604052600436101561001357600080fd5b6000803560e01c91826301ffc9a7146124ee57508163091724021461238c578163117da1ee146122e4578163175d1bcb146122c757816318cf28341461228d5781631ae74cce14612265578163248a9ca31461223a5781632cf91f64146121b05781632f2ff15d146121745781632f48ab7d1461213057816336568abe146120e95781633f4ba83a1461206657816346a5683514611fba5781634d23773014611f765781634e43603a14611e8e57816353aeba6e14611dcc5781635c691b08146119545781635c975abb146119325781635fcbd285146118ee57816361d027b3146118c25781636398bf82146118885781636834e3a8146118505781636c9fa59e1461180c57816375b238fc146111a95781637d2fd64e146117625781637eb6f6e1146117285781638432e3a6146116675781638456cb59146115f457816384b0196e146115065781638d2326121461138557816391b96b63146102aa57816391d148541461133e5781639a7844a6146113015781639e4f8ab8146111cb5781639eb87dec146111ae578163a217fddf146111a9578163a5917baf14611165578163ae77c23714611110578163b99dfe1814610f76578163bde0280f14610f3a578163bf95c72d14610db9578163c1da6bbc14610cb3578163c28399ef14610c96578163c45a015514610c52578163c4e71eaf14610bde578163c6e5d8f6146104bd578163c9f62af214610bbd578163ce9ddccc14610b85578163d03153aa14610b68578163d547741f14610b28578163d7da9e4f14610b0b578163da7b109d14610a37578163db006a75146104c2578163deef5378146104bd578163df8ae23614610403578163f0f4426014610330578163f887ea40146102ec578163f987626b146102af575063fcc18c23146102aa57600080fd5b6126a3565b346102e957806003193601126102e95760206040517f995c68a7874ab62e799137bc19b39d4cdd1c165240e636649fba7edfda9d16c88152f35b80fd5b346102e957806003193601126102e9576040517f00000000000000000000000000000000000000000000000000000000000000006001600160a01b03168152602090f35b346102e95760203660031901126102e957610349612541565b81805281602052604082203360005260205261036c60ff6040600020541661321c565b6001600160a01b038181169182156103cb5760028054610100600160a81b03198116600893841b610100600160a81b031617909155901c167f4ab5be82436d353e61ca18726e984e561f5c1cc7c6d38b29d2553c790434705a8380a380f35b60405162461bcd60e51b815260206004820152601060248201526f496e76616c696420747265617375727960801b6044820152606490fd5b346102e9576020806003193601126104b9577ff07234658490cc011f9f49fd5c1b020ffd25ca0e3df67ac88818648c16a269cd600435918380528381526040842033600052815261045b60ff6040600020541661321c565b8284526009815261047860ff600260408720015460a81c166132e8565b8284526009815260408420600201805460ff60a01b19811660a091821c60ff9081161590921b60ff60a01b16178255905460a01c166040519015158152a280f35b5080fd5b6126dd565b346102e9576020806003193601126104b957600435906104e06137cb565b6104e86132ca565b81156109ff576040516318160ddd60e01b81526001600160a01b037f00000000000000000000000000000000000000000000000000000000000000008116918381600481865afa9081156109f45786916109c7575b5080156109935760405163e6a4390560e01b81527f000000000000000000000000000000000000000000000000000000000000000083166001600160a01b0381811660048401527f0000000000000000000000000000000000000000000000000000000000000000851690811660248401529186816044817f000000000000000000000000000000000000000000000000000000000000000089165afa80156108a75785918a91610957575b5016928315610925576040516370a0823160e01b81523060048201528781602481885afa90811561091a578a916108e9575b5080156108b25789916106318a6106369361337f565b61335f565b95803b156104b957604051632770a7eb60e21b8152336004820152602481018a905291908290604490829084905af180156108a75761088e575b50879160e46040926106a688887f0000000000000000000000000000000000000000000000000000000000000000168098613950565b846106b3600354426137ee565b9685519788958694635d5155ef60e11b8652600486015260248501528a60448501528260648501528260848501523360a485015260c48401525af19283156108815781928294610845575b507f000000000000000000000000000000000000000000000000000000000000000016803b156104b95781809160246040518094819363ddeae03360e01b83523360048401525af161082d575b5050338652600a8452604086206007810180549060018201809211610819577f4896181ff8f4543cc00db9fe9b6fb7e6f032b7eb772c72ab1ec1b4d2e03b9369969594927f3934fc962ef79ea87f2b6d34fdfdb727537e44f786c7810133c7e23f19a14814949260089255016107c28882546137ee565b9055338852600c85526107d88760408a206132a1565b338852600d85526107ec4260408a206132a1565b60408051888152602081019590955284015260608301523391608090a26040519283523392a26001805580f35b634e487b7160e01b89526011600452602489fd5b610836906128fb565b61084157858761074b565b8580fd5b92509250506040813d604011610879575b8161086360409383612944565b81010312610841578584825192015192886106fe565b3d9150610856565b50604051903d90823e3d90fd5b9160e49861089e604093946128fb565b98509190610670565b6040513d8b823e3d90fd5b60405162461bcd60e51b815260048101899052600f60248201526e139bc81c99585b081314081a195b19608a1b6044820152606490fd5b90508781813d8311610913575b6109008183612944565b8101031261090f57518a61061b565b8980fd5b503d6108f6565b6040513d8c823e3d90fd5b60405162461bcd60e51b815260048101889052600a6024820152692737902628103830b4b960b11b6044820152606490fd5b809250888092503d831161098c575b6109708183612944565b81010312610988576109828591613326565b8a6105e9565b8880fd5b503d610966565b60405162461bcd60e51b815260048101859052600c60248201526b4e6f204c5020737570706c7960a01b6044820152606490fd5b90508381813d83116109ed575b6109de8183612944565b8101031261084157518661053d565b503d6109d4565b6040513d88823e3d90fd5b6064906040519062461bcd60e51b825260048201526011602482015270125b9d985b1a5908131408185b5bdd5b9d607a1b6044820152fd5b346102e95760403660031901126102e957600435602435828052602090838252604084203385528252610a7060ff60408620541661321c565b82845260098252610a8d60ff600260408720015460a81c166132e8565b8015610ad7577fa1883cbb0491700bbb491dc908b557f640688276c8d7b9ec57f4bea05f20501491604091848652600982526001838720019181835493558351928352820152a280f35b60405162461bcd60e51b815260048101839052600c60248201526b496e76616c6964207261746560a01b6044820152606490fd5b346102e957806003193601126102e9576020600754604051908152f35b346102e95760403660031901126102e957610b64600435610b4761255c565b9080845283602052610b5f60016040862001546127b0565b612854565b5080f35b346102e957806003193601126102e9576020600554604051908152f35b346102e95760203660031901126102e9576020906040906001600160a01b03610bac612541565b168152600c83522054604051908152f35b346102e957806003193601126102e957602061ffff60065416604051908152f35b346102e95760203660031901126102e957610c40906001600160a01b03610c03612541565b168152600c602052610c4e610c2c610c26604080852094600d60205220936136ab565b926136ab565b6040519384936040855260408501906125b5565b9083820360208501526125b5565b0390f35b346102e957806003193601126102e9576040517f00000000000000000000000000000000000000000000000000000000000000006001600160a01b03168152602090f35b346102e957806003193601126102e9576020600354604051908152f35b346102e95760603660031901126102e957610ccc612541565b602435610cd7612572565b90610ce06137cb565b610ce86132ca565b8084526009602052610d0660ff600260408720015460a81c166132e8565b7fa8a7bc421f721cb936ea99efdad79237e6ee0b871a2a08cf648691f9584cdc77808552846020526040852033865260205260ff60408620541615610d9b57506001600160a01b03831615610d6657610d5f9233613a6a565b6001805580f35b60405162461bcd60e51b815260206004820152600d60248201526c24b73b30b634b210313abcb2b960991b6044820152606490fd5b6044906040519063e2517d3f60e01b82523360048301526024820152fd5b346102e95760a03660031901126102e95760043560243591610dd9612572565b90606435916084356001600160401b038111610f3657610e00610e16913690600401612588565b90610e0d42871015612c1d565b85848989612d3d565b6001600160a01b0380821694909391908515610ee0578787610e7393610e5687948a88526010602052610e5060408920549187878761307d565b14612c7c565b888652601060205260408620610e6c8154612cd4565b90556130cb565b83815260106020526040812054600019810191908211610ecc5750916040917f558aa916f134354a1b7f8da2fb9910ba8a59a87daa173b4e722ec28b3af4b61793835197885260208801521694a4602060405160018152f35b634e487b7160e01b81526011600452602490fd5b60405162461bcd60e51b815260206004820152602860248201527f4761736c6573735061636b6167654d616e616765723a20696e76616c6964207360448201526769676e617475726560c01b6064820152608490fd5b8280fd5b346102e957806003193601126102e95760206040517f000000000000000000000000000000000000000000000000000000000000000015158152f35b346102e95760203660031901126102e9576040610100916004356060848451610f9e816128c9565b848152846020820152848682015284838201528460808201528460a08201528460c08201528460e082015201528082526009602052610fe860ff6002858520015460a81c166132e8565b8152600960205220600361108160405192611002846128c9565b805484526001810154602085015260ff60028201546001600160401b03811660408701526001600160401b038160401c16606087015261ffff8160801c16608087015261ffff8160901c1660a0870152818160a01c16151560c087015260a81c16151560e085015261107a60405180948193016129b6565b0382612944565b82820152610c4e6040519283926020845280516020850152602081015160408501526001600160401b0360408201511660608501526001600160401b03606082015116608085015261ffff60808201511660a085015261ffff60a08201511660c085015260c0810151151560e085015260e0810151151582850152015161012080840152610140830190612663565b346102e95760403660031901126102e957610d5f60043561112f61255c565b906111386137cb565b6111406132ca565b808452600960205261115e60ff600260408720015460a81c166132e8565b3333613a6a565b346102e957806003193601126102e9576040517f00000000000000000000000000000000000000000000000000000000000000006001600160a01b03168152602090f35b612647565b346102e957806003193601126102e9576020600854604051908152f35b346102e957806003193601126102e95760085481805b8281106112b457506111f283612965565b926112006040519485612944565b80845261120f601f1991612965565b0191602092368486013781825b8281106112365760405185815280610c4e818801896125b5565b61123f81613254565b9054600391821b1c85526009865260ff600260408720015460a01c1661126f575b5061126a90612cd4565b61121c565b61127882613254565b9054911b1c61128683612cd4565b9287518110156112a05760051b870186015261126a611260565b634e487b7160e01b86526032600452602486fd5b6112bd81613254565b90549060031b1c8252600960205260ff600260408420015460a01c166112ec575b6112e790612cd4565b6111e1565b926112f96112e791612cd4565b9390506112de565b346102e957806003193601126102e957602060405160ff7f0000000000000000000000000000000000000000000000000000000000000000168152f35b346102e95760403660031901126102e95760ff604060209261135e61255c565b60043582528185528282206001600160a01b03909116825284522054604051911615158152f35b346102e957806003193601126102e95780805260208181526040822033835281526113b660ff60408420541661321c565b6001600160a01b037f0000000000000000000000000000000000000000000000000000000000000000811691611470817f0000000000000000000000000000000000000000000000000000000000000000841661141386826137fb565b847f00000000000000000000000000000000000000000000000000000000000000001661144087826137fb565b60405163e6a4390560e01b81526001600160a01b0391821660048201529116602482015291829081906044820190565b0381867f0000000000000000000000000000000000000000000000000000000000000000165afa9182156114fb5785926114c1575b50501690816114b2578280f35b6114bb916137fb565b81808280f35b90809250813d83116114f4575b6114d88183612944565b810103126114f0576114e990613326565b84806114a5565b8380fd5b503d6114ce565b6040513d87823e3d90fd5b346102e957806003193601126102e95761153f7f0000000000000000000000000000000000000000000000000000000000000000612a4c565b6115687f0000000000000000000000000000000000000000000000000000000000000000612b48565b60405190602082018281106001600160401b038211176115e057916115c16115b39592610c4e94604052838352604051968796600f60f81b885260e0602089015260e0880190612663565b908682036040880152612663565b9146606086015230608086015260a085015283820360c08501526125b5565b634e487b7160e01b85526041600452602485fd5b346102e957806003193601126102e957808052806020526040812033825260205261162560ff60408320541661321c565b61162d6132ca565b600160ff1960025416176002557f62e78cea01bee320cd4e420270b5ea74000d11b0c9f74754ebdbfc544b05a2586020604051338152a180f35b346102e95760203660031901126102e957600435818052816020526040822033835260205261169c60ff60408420541661321c565b603c8110158061171c575b156116e65760407fd377b1dc1f911f261ac96273f0011b33578119b6f87a37a787fc6fa3ba066de491600354908060035582519182526020820152a180f35b60405162461bcd60e51b815260206004820152600e60248201526d496e76616c69642077696e646f7760901b6044820152606490fd5b50610e108111156116a7565b346102e957806003193601126102e95760206040517fc593b20a189c567983e9d0b9f389a24c2dd54e939250b2e70cd2179583df2d2a8152f35b346102e95760203660031901126102e957600435818052816020526040822033835260205261179760ff60408420541661321c565b80156117d75760407f3f0a47b6cb75d94633850c9a242c4cdb5876a35fc86c211a1f4f633cc37ba8ed91600454908060045582519182526020820152a180f35b60405162461bcd60e51b815260206004820152600d60248201526c496e76616c696420707269636560981b6044820152606490fd5b346102e957806003193601126102e9576040517f00000000000000000000000000000000000000000000000000000000000000006001600160a01b03168152602090f35b346102e95760203660031901126102e9576020906040906001600160a01b03611877612541565b168152601083522054604051908152f35b346102e957806003193601126102e95760206040517f00000000000000000000000000000000000000000000000000000000000000008152f35b346102e957806003193601126102e95760025460405160089190911c6001600160a01b03168152602090f35b346102e957806003193601126102e9576040517f00000000000000000000000000000000000000000000000000000000000000006001600160a01b03168152602090f35b346102e957806003193601126102e957602060ff600254166040519015158152f35b346102e95760e03660031901126102e9576004356001600160401b0381116104b957611984903690600401612588565b61ffff92919060643584811681036114f0576084356001600160401b0381168103611dc85760a435906001600160401b03821682036108415760c435928784168403611dc45786805286602052604087203388526020526119eb60ff60408920541661321c565b6119f36132ca565b84151580611db9575b80611dae575b80611da0575b80611d92575b80611d80575b15611d4a5760075495611a2687612cd4565b600755604051611a35816128c9565b602435815260443560208201526001600160401b03841660408201526001600160401b0385166060820152898316608082015289861660a0820152600160c0820152600160e0820152611a89368884612d06565b6101008201908152888a52600960205260408a2091805183556020810151600184015560e060028401916001600160401b036040820151168354906fffffffffffffffff0000000000000000606084015160401b1661ffff60801b608085015160801b169161ffff60901b60a086015160901b16936001600160601b0360a01b16171717178355611b3860c08201511515849081549060ff60a01b90151560a01b169060ff60a01b1916179055565b0151815460ff60a81b191690151560a81b60ff60a81b16179055518051906001600160401b038211611d3657611b71600384015461297c565b601f8111611cf1575b50602090601f8311600114611c8857600392918c9183611c7d575b50508160011b9160001990841b1c1916179101555b600854600160401b811015611c695760e0946001600160401b0388958c8c9d968c9d896101009c987f38a9b0861af6eda42482a0e46839a625d911229840556475b544bc0bb1c5a66d9f611c058a60018a9c01600855613254565b819291549060031b91821b91600019901b19161790556040519e8f9d8e81815201528d8d01378a8a018c015260243560208b015260443560408b01521660608901521660808701521660a08501521660c0830152601f01601f19168101030190a280f35b634e487b7160e01b89526041600452602489fd5b015190508d80611b95565b600384018c5260208c209190601f1984168d5b818110611cd957509160019391856003969410611cc1575b505050811b01910155611baa565b015160001983861b60f8161c191690558d8080611cb3565b92936020600181928786015181550195019301611c9b565b600384018c5260208c20601f840160051c810160208510611d2f575b8d601f840160051c83018210611d2557505050611b7a565b8155600101611d0d565b5080611d0d565b634e487b7160e01b8b52604160045260248bfd5b60405162461bcd60e51b815260206004820152600e60248201526d496e76616c696420706172616d7360901b6044820152606490fd5b506001600160401b0383161515611a14565b506103e88885161115611a0e565b506127108882161115611a08565b506044351515611a02565b5060243515156119fc565b8680fd5b8480fd5b346102e95760203660031901126102e95760043561ffff90818116809103610f36578280528260205260408320338452602052611e0f60ff60408520541661321c565b6127108111611e5b577f895c8db61a75e290c6220731c8a2b863c1954c2b6fe9b0c10f805616c2c0320891604091600654918161ffff198416176006558351921682526020820152a180f35b60405162461bcd60e51b815260206004820152600b60248201526a496e76616c69642062707360a81b6044820152606490fd5b346102e95760203660031901126102e957604061012091611ead612541565b611eb56136fc565b506001600160a01b03168152600a60205220604051611ed3816128c9565b8154918282526001810154906020830191825260028101546040840190815260038201546060850190815260048301546080860190815260058401549160a0870192835260068501549360c08801948552600860078701549660e08a01978852015496610100809901978852604051998a525160208a01525160408901525160608801525160808701525160a08601525160c08501525160e08401525190820152f35b346102e957806003193601126102e9576040517f00000000000000000000000000000000000000000000000000000000000000006001600160a01b03168152602090f35b346102e95760403660031901126102e957611fd3612541565b9060243591611fe06136fc565b506001600160a01b0316808252600b602052604082205490919083101561203157610120926040826120229461201c9452600b602052206137af565b50613741565b61202f60405180926125e9565bf35b60405162461bcd60e51b815260206004820152600d60248201526c092dcecc2d8d2c840d2dcc8caf609b1b6044820152606490fd5b346102e957806003193601126102e957808052806020526040812033825260205261209760ff60408320541661321c565b60025460ff8116156120d75760ff19166002557f5db9ee0a495bf2e6ff9c91a7834c1ba4fdd244a5e8aa4e537bd38aeae4b073aa6020604051338152a180f35b604051638dfc202b60e01b8152600490fd5b346102e95760403660031901126102e95761210261255c565b336001600160a01b0382160361211e57610b6490600435612854565b60405163334bd91960e11b8152600490fd5b346102e957806003193601126102e9576040517f00000000000000000000000000000000000000000000000000000000000000006001600160a01b03168152602090f35b346102e95760403660031901126102e957610b6460043561219361255c565b90808452836020526121ab60016040862001546127b0565b6127d6565b346102e957806003193601126102e957604051809182600854808452602080940190600884527ff3f7a9fe364faab93b216da50a3214154f22a0a2b415b23a84c8169e8b636ee3935b858282106122245750505061221092500383612944565b610c4e6040519282849384528301906125b5565b85548452600195860195889550930192016121f9565b346102e95760203660031901126102e957600160406020926004358152808452200154604051908152f35b346102e957806003193601126102e957604061227f613392565b825191825215156020820152f35b346102e957806003193601126102e95760206040517fa8a7bc421f721cb936ea99efdad79237e6ee0b871a2a08cf648691f9584cdc778152f35b346102e957806003193601126102e9576020600454604051908152f35b346102e95760203660031901126102e957600435818052816020526040822033835260205261231960ff60408420541661321c565b6107d0811161235c5760407fddd31550b26e9ef8ade466958be83ff8a014d9b4f36d546b61a6847a4530657591600554908060055582519182526020820152a180f35b60405162461bcd60e51b81526020600482015260086024820152670a8dede40d0d2ced60c31b6044820152606490fd5b346102e95760c03660031901126102e9576123a5612541565b6001600160a01b03606435818116936024359360443592868103610f36576084359160a4356001600160401b038111611dc8576123e96123ff913690600401612588565b906123f642871015612c1d565b8585898c612d3d565b868216968791160361249a5786859161242e612444958988526010602052610e5060408920549187878761307d565b878652601060205260408620610e6c8154612cd4565b82815260106020526040812054600019810191908211610ecc57507f558aa916f134354a1b7f8da2fb9910ba8a59a87daa173b4e722ec28b3af4b6179160409182519182526020820152a4602060405160018152f35b60405162461bcd60e51b815260206004820152602660248201527f4761736c6573735061636b6167654d616e616765723a207369676e6572206d696044820152650e6dac2e8c6d60d31b6064820152608490fd5b346104b95760203660031901126104b95760043563ffffffff60e01b8116809103610f365760209250637965db0b60e01b8114908115612530575b5015158152f35b6301ffc9a760e01b14905083612529565b600435906001600160a01b038216820361255757565b600080fd5b602435906001600160a01b038216820361255757565b604435906001600160a01b038216820361255757565b9181601f84011215612557578235916001600160401b038311612557576020838186019501011161255757565b90815180825260208080930193019160005b8281106125d5575050505090565b8351855293810193928101926001016125c7565b805182526020810151602083015260408101516040830152606081015160608301526080810151608083015260a081015160a083015260018060a01b0360c08201511660c083015260e081015160e083015261010080910151910152565b3461255757600036600319011261255757602060405160008152f35b919082519283825260005b84811061268f575050826000602080949584010152601f8019910116010190565b60208183018101518483018201520161266e565b34612557576020366003190112612557576001600160a01b036126c4612541565b16600052600b6020526020604060002054604051908152f35b3461255757602080600319360112612557576001600160a01b036126ff612541565b16906000918252600b815260408220805461271981612965565b906127276040519283612944565b8082528382018093865284862086915b83831061278957505050506040519280840191818552518092526040840192945b8281106127655784840385f35b909192826101208261277a6001948a516125e9565b01960191019492919094612758565b60098760019261279d859b9a98999b613741565b8152019201920191909694939596612737565b80600052600060205260406000203360005260205260ff6040600020541615610d9b5750565b9060009180835282602052604083209160018060a01b03169182845260205260ff6040842054161560001461284f57808352826020526040832082845260205260408320600160ff198254161790557f2f8788117e7eff1d82e926ec794901d17c78024a50270940304540a733656f0d339380a4600190565b505090565b9060009180835282602052604083209160018060a01b03169182845260205260ff60408420541660001461284f5780835282602052604083208284526020526040832060ff1981541690557ff6391f5c32d9c69d2a47ea670b442974b53935d1edc7fd64eb21e047a839171b339380a4600190565b61012081019081106001600160401b038211176128e557604052565b634e487b7160e01b600052604160045260246000fd5b6001600160401b0381116128e557604052565b604081019081106001600160401b038211176128e557604052565b608081019081106001600160401b038211176128e557604052565b90601f801991011681019081106001600160401b038211176128e557604052565b6001600160401b0381116128e55760051b60200190565b90600182811c921680156129ac575b602083101461299657565b634e487b7160e01b600052602260045260246000fd5b91607f169161298b565b90600092918054916129c78361297c565b918282526001938481169081600014612a2957506001146129e9575b50505050565b90919394506000526020928360002092846000945b838610612a155750505050010190388080806129e3565b8054858701830152940193859082016129fe565b9294505050602093945060ff191683830152151560051b010190388080806129e3565b60ff8114612a8a5760ff811690601f8211612a785760405191612a6e8361290e565b8252602082015290565b604051632cd44ac360e21b8152600490fd5b50604051600e54816000612a9d8361297c565b80835292600190818116908115612b265750600114612ac7575b50612ac492500382612944565b90565b600e600090815291507fbb7b4a454dc3493923482f07822329ed19e8244eff582cc204f8554c3620c3fd5b848310612b0b5750612ac4935050810160200138612ab7565b81935090816020925483858901015201910190918492612af2565b905060209250612ac494915060ff191682840152151560051b82010138612ab7565b60ff8114612b6a5760ff811690601f8211612a785760405191612a6e8361290e565b50604051600f54816000612b7d8361297c565b80835292600190818116908115612b265750600114612ba35750612ac492500382612944565b600f600090815291507f8d1108e10bcb7c27dddfc02ed9d693a074039d026cf4ea4240b40f7d581ac8025b848310612be75750612ac4935050810160200138612ab7565b81935090816020925483858901015201910190918492612bce565b6001600160401b0381116128e557601f01601f191660200190565b15612c2457565b60405162461bcd60e51b815260206004820152602a60248201527f4761736c6573735061636b6167654d616e616765723a207472616e73616374696044820152691bdb88195e1c1a5c995960b21b6064820152608490fd5b15612c8357565b60405162461bcd60e51b8152602060048201526024808201527f4761736c6573735061636b6167654d616e616765723a20696e76616c6964206e6044820152636f6e636560e01b6064820152608490fd5b6000198114612ce35760010190565b634e487b7160e01b600052601160045260246000fd5b91908203918211612ce357565b929192612d1282612c02565b91612d206040519384612944565b829481845281830111612557578281602093846000960137010152565b9394929091612d4e8282858861307d565b906040519360208501967fc593b20a189c567983e9d0b9f389a24c2dd54e939250b2e70cd2179583df2d2a88526040860152606085015260018060a01b0316608084015260a083015260c082015260c0815260e08101938185106001600160401b038611176128e5576042612df994612df393612ac497604052519020612dd3612f53565b906040519161190160f01b83526002830152602282015220923691612d06565b90612e02565b90929192612ece565b8151919060418303612e3357612e2c92506020820151906060604084015193015160001a90612e3e565b9192909190565b505060009160029190565b91907f7fffffffffffffffffffffffffffffff5d576e7357a4501ddfe92f46681b20a08411612ec257926020929160ff608095604051948552168484015260408301526060820152600092839182805260015afa15612eb65780516001600160a01b03811615612ead57918190565b50809160019190565b604051903d90823e3d90fd5b50505060009160039190565b6004811015612f3d5780612ee0575050565b60018103612efa5760405163f645eedf60e01b8152600490fd5b60028103612f1b5760405163fce698f760e01b815260048101839052602490fd5b600314612f255750565b602490604051906335e2f38360e21b82526004820152fd5b634e487b7160e01b600052602160045260246000fd5b307f00000000000000000000000000000000000000000000000000000000000000006001600160a01b03161480613054575b15612fae577f000000000000000000000000000000000000000000000000000000000000000090565b60405160208101907f8b73c3c69bb8fe3d512ecc4cf759cc79239f7b179b0ffacaa9a75d522b39400f82527f000000000000000000000000000000000000000000000000000000000000000060408201527f000000000000000000000000000000000000000000000000000000000000000060608201524660808201523060a082015260a0815260c081018181106001600160401b038211176128e55760405251902090565b507f00000000000000000000000000000000000000000000000000000000000000004614612f85565b929091604051926020840194855260408401526001600160601b03199060601b16606083015260748201526074815260a081018181106001600160401b038211176128e55760405251902090565b604080516323b872dd60e01b81526001600160a01b038381166004830152306024830152604482018690529495939460009492939092916020919082816064818a7f00000000000000000000000000000000000000000000000000000000000000008a165af19081156132125787916131dc575b501561318457831680865260108252948490205484519788529087015216937f558aa916f134354a1b7f8da2fb9910ba8a59a87daa173b4e722ec28b3af4b6179190a4565b845162461bcd60e51b815260048101839052602b60248201527f4761736c6573735061636b6167654d616e616765723a2055534454207472616e60448201526a1cd9995c8819985a5b195960aa1b6064820152608490fd5b90508281813d831161320b575b6131f38183612944565b81010312611dc457518015158103611dc4573861313f565b503d6131e9565b86513d89823e3d90fd5b1561322357565b60405162461bcd60e51b81526020600482015260096024820152682737ba1030b236b4b760b91b6044820152606490fd5b60085481101561328b5760086000527ff3f7a9fe364faab93b216da50a3214154f22a0a2b415b23a84c8169e8b636ee30190600090565b634e487b7160e01b600052603260045260246000fd5b805490600160401b8210156128e5576001820180825582101561328b5760005260206000200155565b60ff600254166132d657565b60405163d93c066560e01b8152600490fd5b156132ef57565b60405162461bcd60e51b815260206004820152600f60248201526e496e76616c6964207061636b61676560881b6044820152606490fd5b51906001600160a01b038216820361255757565b51906001600160701b038216820361255757565b60ff16604d8111612ce357600a0a90565b8115613369570490565b634e487b7160e01b600052601260045260246000fd5b81810292918115918404141715612ce357565b6040805163e6a4390560e01b81526001600160a01b037f000000000000000000000000000000000000000000000000000000000000000081166004808401919091527f00000000000000000000000000000000000000000000000000000000000000008216602484018190529094936020939092919084816044817f000000000000000000000000000000000000000000000000000000000000000087165afa9081156136a057908391600091613669575b501691821561365c578351630240bc6b60e21b8152936060858981875afa9586156136515760009586976135f7575b506001600160701b0380961694851580156135ed575b6135dd57908083928b945194858092630dfe168160e01b82525afa9182156135d3575060009161359f575b5090501614600014613598579116905b7f000000000000000000000000000000000000000000000000000000000000000060ff1660128110156135645760120360ff811161354f579061350961350f9261334e565b9061337f565b670de0b6b3a76400009081810291818304149015171561353a5761353492935061335f565b90600190565b601184634e487b7160e01b6000525260246000fd5b601185634e487b7160e01b6000525260246000fd5b60128111613573575b5061350f565b6011190160ff811161354f579061358c6135929261334e565b9061335f565b3861356d565b91166134c4565b82813d83116135cc575b6135b38183612944565b810103126102e957506135c590613326565b80386134b4565b503d6135a9565b513d6000823e3d90fd5b5050505050505050905490600090565b5086881615613489565b959096506060863d8211613649575b8161361360609383612944565b810103126102e9576136248661333a565b908261363189890161333a565b97015163ffffffff8116036102e95750949538613473565b3d9150613606565b50513d6000823e3d90fd5b5050505050905490600090565b91508582813d8311613699575b6136808183612944565b810103126102e957506136938391613326565b38613444565b503d613676565b84513d6000823e3d90fd5b9060405191828154918282526020928383019160005283600020936000905b8282106136e2575050506136e092500383612944565b565b8554845260019586019588955093810193909101906136ca565b60405190613709826128c9565b816101006000918281528260208201528260408201528260608201528260808201528260a08201528260c08201528260e08201520152565b9060405161374e816128c9565b8254815260018301546020820152600283015460408201526003830154606082015260048301546080820152600583015460a082015260068301546001600160a01b031660c0820152600783015460e0820152600890920154610100830152565b805482101561328b576000526009602060002091020190600090565b6002600154146137dc576002600155565b604051633ee5aeb560e01b8152600490fd5b91908201809211612ce357565b604051636eb1769f60e11b81523060048201526001600160a01b0383811660248301528281169291906020908183604481885afa92831561394457600093613915575b506000198301809311612ce35760405163095ea7b360e01b8382018181526001600160a01b0389166024840152604483019590955290959093839060009061389389606481015b03601f1981018b528a612944565b88519082895af1903d60005190836138f6575b505050156138b7575b505050505050565b6138eb956138e6936040519384015216602482015260006044820152604481526138e081612929565b82613a0e565b613a0e565b3880808080806138af565b9192509061390b57503b15155b3880806138a6565b6001915014613903565b90928282813d831161393d575b61392c8183612944565b810103126102e9575051913861383e565b503d613922565b6040513d6000823e3d90fd5b604051636eb1769f60e11b81523060048201526001600160a01b03838116602483015292938284169391602091908281604481895afa908115613944576000916139df575b50906139a0916137ee565b60405163095ea7b360e01b8382018181526001600160a01b03891660248401526044830193909352909590939183906000906138938960648101613885565b908382813d8311613a07575b6139f58183612944565b810103126102e95750516139a0613995565b503d6139eb565b906000602091828151910182855af115613944576000513d613a6157506001600160a01b0381163b155b613a3f5750565b604051635274afe760e01b81526001600160a01b039091166004820152602490fd5b60011415613a38565b909260008381526009602052604081209260405193613a88856128c9565b80548552600181015460208601526003613b086002830154926001600160401b03841660408901526001600160401b038460401c16606089015261ffff8460801c16608089015261ffff8460901c1660a089015260ff60c0890194818160a01c161515865260a81c16151560e089015261107a60405180948193016129b6565b6101008601525115614634576001600160a01b03838116908716146145f7578351613b5e9130907f00000000000000000000000000000000000000000000000000000000000000006001600160a01b03166146b1565b613b6883516146f3565b7f0000000000000000000000000000000000000000000000000000000000000000156145c857613bb87f00000000000000000000000000000000000000000000000000000000000000008261337f565b80670de0b6b3a7640000810204670de0b6b3a764000014811517156145b4576020850151613bef91670de0b6b3a76400000261335f565b90613c0e612710613c0661ffff600654168461337f565b048092612cf9565b80614570575b508290806142d0575b50613c288183612cf9565b948561415d575b826140d2575b836001600160a01b0386161515806140c1575b613e5c575b81516001600160a01b038a168252600a602052604082208054613c719083906137ee565b815560018101613c828782546137ee565b905560028101613c938a82546137ee565b905560038101613ca48682546137ee565b905560048101613cb58782546137ee565b90556006810154600181018111613e4857600101600691909101556001600160a01b038a168252600b6020526040808320905191613cf2836128c9565b8a835260208301528560408301528860608301528460808301528560a083015260018060a01b03881660c08301528260e083015242610100830152805490600160401b821015613e345790613d4c916001820181556137af565b929092613e2057509160c09593916008610100857f5a77e79107887ebcf23f054ef45c1e6ef75a6215cf598323e188d01a6e5da7b39a98965184556020810151600185015560408101516002850155606081015160038501556080810151600485015560a081015160058501556006840160018060a01b038b830151166001600160601b0360a01b82541617905560e081015160078501550151910155519660405197885282602089015260408801526060870152608086015260a085015260018060a01b03169460018060a01b031692a4565b634e487b7160e01b81526004819052602490fd5b634e487b7160e01b84526041600452602484fd5b634e487b7160e01b84526011600452602484fd5b9350612710613e7361ffff60a0840151168561337f565b049360018060a01b0360025460081c166040516370a0823160e01b815281600482015260208160248160018060a01b037f0000000000000000000000000000000000000000000000000000000000000000165afa9081156140b6578391614084575b50604051636eb1769f60e11b81526001600160a01b038316600482015230602482015290602082806044810103817f00000000000000000000000000000000000000000000000000000000000000006001600160a01b03165afa918215614079579189918993869261403f575b5083809110159182614034575b505015613ff157613f89927f00000000000000000000000000000000000000000000000000000000000000006001600160a01b03166146b1565b6001600160a01b0386168152600a602052604081206005018054613fae9087906137ee565b90556040518581526001600160a01b038a811691908816907f0a721ab4682ceb61c7e4d264ef879fc419a6d764b136e7d96ef54b2053c7567390602090a3613c4d565b50506040518281526001600160a01b038b811692508816907f0a721ab4682ceb61c7e4d264ef879fc419a6d764b136e7d96ef54b2053c7567390602090a3613c4d565b101590508238613f4f565b92509250506020813d602011614071575b8161405d60209383612944565b810103126125575751879189919083613f42565b3d9150614050565b6040513d86823e3d90fd5b90506020813d6020116140ae575b8161409f60209383612944565b81010312612557575138613ed5565b3d9150614092565b6040513d85823e3d90fd5b5061ffff60a0830151161515613c48565b7f00000000000000000000000000000000000000000000000000000000000000006001600160a01b0316803b15611dc8576040516340c10f1960e01b81526001600160a01b038a166004820152602481018590529085908290604490829084905af180156114fb57908591614149575b5050613c35565b614152906128fb565b6114f0578338614142565b7f00000000000000000000000000000000000000000000000000000000000000006001600160a01b0316803b15611dc8576040516340c10f1960e01b81526001600160a01b037f0000000000000000000000000000000000000000000000000000000000000000166004820152602481018890529085908290604490829084905af180156114fb579085916142bc575b5050604081015160608201516001600160401b0391821691167f00000000000000000000000000000000000000000000000000000000000000006001600160a01b03163b15610841576040519163bf49ec4f60e01b835260018060a01b038b1660048401528860248401526044830152606482015284816084818360018060a01b037f0000000000000000000000000000000000000000000000000000000000000000165af180156114fb579085916142a8575b5050613c2f565b6142b1906128fb565b6114f05783386142a1565b6142c5906128fb565b6114f05783386141ed565b6004549150811561452b576142e3613392565b909290156145265750815b7f0000000000000000000000000000000000000000000000000000000000000000156144f75761433e7f00000000000000000000000000000000000000000000000000000000000000008361337f565b670de0b6b3a7640000810290808204670de0b6b3a764000014901517156144e357906143699161335f565b907f00000000000000000000000000000000000000000000000000000000000000006001600160a01b03163b15611dc8576040516340c10f1960e01b8152306004820152602481018390528581604481836001600160a01b037f0000000000000000000000000000000000000000000000000000000000000000165af180156109f4576144a7575b507fd7de183105059c806cc0d3d76a2cf588f90d707037ed57e4ec94cbd9da28c6b3614421836060938b8d614905565b9290946004548082116000146144975761443b8183612cf9565b905b60405192835260208301526040820152a191613c1d57600254614491919060081c6001600160a01b03908116907f00000000000000000000000000000000000000000000000000000000000000001661466e565b38613c1d565b6144a18282612cf9565b9061443d565b61442183606093976144d97fd7de183105059c806cc0d3d76a2cf588f90d707037ed57e4ec94cbd9da28c6b3946128fb565b97935050506143f1565b634e487b7160e01b86526011600452602486fd5b6145217f00000000000000000000000000000000000000000000000000000000000000008361335f565b61433e565b6142ee565b60405162461bcd60e51b815260206004820152601c60248201527f4e6f2076616c696420676c6f62616c20746172676574207072696365000000006044820152606490fd5b6002546145ae919060081c6001600160a01b03908116907f00000000000000000000000000000000000000000000000000000000000000001661466e565b38613c14565b634e487b7160e01b83526011600452602483fd5b6145f27f00000000000000000000000000000000000000000000000000000000000000008261335f565b613bb8565b60405162461bcd60e51b815260206004820152601560248201527421b0b73737ba103932b332b9103cb7bab939b2b63360591b6044820152606490fd5b60405162461bcd60e51b81526020600482015260126024820152715061636b616765206e6f742061637469766560701b6044820152606490fd5b60405163a9059cbb60e01b60208201526001600160a01b03909216602483015260448201929092526136e0916138e682606481015b03601f198101845283612944565b6040516323b872dd60e01b60208201526001600160a01b03928316602482015292909116604483015260648201929092526136e0916138e682608481016146a3565b604080516367403b6160e01b81527f995c68a7874ab62e799137bc19b39d4cdd1c165240e636649fba7edfda9d16c8600482018190526001600160a01b0383836024817f000000000000000000000000000000000000000000000000000000000000000085165afa9283156136a057600090819461484b575b5061ffff166127109081811161481a578015158061480f575b614793575b50505050505090565b61479d908761337f565b0493846147aa578061478a565b6020827f9ad5f576ad2dc5abd88aee00524464d5aafcd7f0a8d0141fd6a2b7cf76130e08926148028888612ac49b9998977f00000000000000000000000000000000000000000000000000000000000000001661466e565b51948786521693a3612cf9565b508285161515614785565b855162461bcd60e51b815260206004820152600a602482015269546178203e203130302560b01b6044820152606490fd5b9093508481813d8311614890575b6148638183612944565b810103126114f05780519361ffff851685036102e95750614889602061ffff9201613326565b939061476c565b503d614859565b600060443d10612ac457604051600319913d83016004833e81516001600160401b03918282113d6024840111176148f4578184019485519384116148fc573d850101602084870101116148f45750612ac492910160200190612944565b949350505050565b50949350505050565b91909392936005549461271095860395808711612ce3576149328161492a898761337f565b04978361337f565b04958460409284897fc8af3886655c52b7ebbbcfc08757e97b8bbd122d4ef3e5e6fd92524497c4360f86518061498c8860018060a01b03809916958d89859094939260609260808301968352602083015260408201520152565b0390a38351636eb1769f60e11b8082523060048301527f000000000000000000000000000000000000000000000000000000000000000084166001600160a01b0381166024840152909a6020957f0000000000000000000000000000000000000000000000000000000000000000861695939092919087816044818a5afa908115614d1d57600091614d42575b508a8110614d28575b5087519c8d523060048e01526001600160a01b03821660248e01527f0000000000000000000000000000000000000000000000000000000000000000841692878e604481875afa9d8e15614d1d5760009e614ceb575b508d8660009e9f10614cd1575b50614a92600354426137ee565b9189519762e8e33760e81b89528560048a015260248901528660448901528b6064890152608488015260a48701523060c487015260e4860152846101048160609d8e945af1926000948486918796614c92575b50614bbb57505050505050600060033d11614bad575b6308c379a014614b8b575b614b42953d15614b8557503d91614b1c83612c02565b92614b2982519485612944565b83523d60008385013e5b825115614b4a57505092614d6f565b600090600090565b5191507f556e6b6e6f776e206c6f772d6c6576656c206572726f7200000000000000000090614b788361290e565b6017835282015292614d6f565b91614b33565b614b93614897565b9586614ba0579550614b06565b505050614b429392614d6f565b600481803e5160e01c614afb565b9298849a949c9b929896959c97919715614c5857815188815295860152840189905283018a905260808301528516907fc7453e3ef562c31977302710e5ff58ae67ad8fa521dcdd8c76f877c4c0d913689060a090a385600091818111600014614c5057614c289250612cf9565b905b81614c37575b5050509190565b614c489260025460081c169061466e565b388080614c30565b505090614c2a565b815162461bcd60e51b81526004810187905260136024820152724e6f206c697175696469747920746f6b656e7360681b6044820152606490fd5b8d80929750819893503d8311614cca575b614cad8183612944565b810103126102e95750845187878701519601519095909438614ae5565b503d614ca3565b614cde614ce59188612cf9565b8486613950565b38614a85565b8881813d8311614d16575b614d008183612944565b81010312614d1257519d506000614a78565b8e80fd5b503d614cf6565b89513d6000823e3d90fd5b614d35614d3c918c612cf9565b8388613950565b38614a22565b908882813d8311614d68575b614d588183612944565b810103126102e957505138614a19565b503d614d4e565b7f637414b7b370a8973bc89032447f4c07ad3048b83ce07b32e928d92ff3edaf5e919392614dec60018060a01b03614dd1838260025460081c16837f00000000000000000000000000000000000000000000000000000000000000001661466e565b60405193849384526040602085015216946040830190612663565b0390a356fea26469706673582212204d1d31d6951ef5056a3a1a6eca9b48f124f7d7677ba9f36f1e57707f106f4d4d64736f6c634300081400332f8788117e7eff1d82e926ec794901d17c78024a50270940304540a733656f0d",
  "linkReferences": {},
  "deployedLinkReferences": {}
}