{
  "_format": "hh-sol-artifact-1",
  "contractName": "PackageManagerV2_2",
  "sourceName": "contracts/PackageManagerV2_2.sol",
  "abi": [
    {
      "inputs": [
        {
          "internalType": "address",
          "name": "usdt_",
          "type": "address"
        },
        {
          "internalType": "address",
          "name": "share_",
          "type": "address"
        },
        {
          "internalType": "address",
          "name": "lp_",
          "type": "address"
        },
        {
          "internalType": "address",
          "name": "vault_",
          "type": "address"
        },
        {
          "internalType": "address",
          "name": "router_",
          "type": "address"
        },
        {
          "internalType": "address",
          "name": "factory_",
          "type": "address"
        },
        {
          "internalType": "address",
          "name": "treasury_",
          "type": "address"
        },
        {
          "internalType": "address",
          "name": "tax_",
          "type": "address"
        },
        {
          "internalType": "address",
          "name": "admin",
          "type": "address"
        },
        {
          "internalType": "uint256",
          "name": "initialGlobalTargetPrice_",
          "type": "uint256"
        }
      ],
      "stateMutability": "nonpayable",
      "type": "constructor"
    },
    {
      "inputs": [],
      "name": "AccessControlBadConfirmation",
      "type": "error"
    },
    {
      "inputs": [
        {
          "internalType": "address",
          "name": "account",
          "type": "address"
        },
        {
          "internalType": "bytes32",
          "name": "neededRole",
          "type": "bytes32"
        }
      ],
      "name": "AccessControlUnauthorizedAccount",
      "type": "error"
    },
    {
      "inputs": [],
      "name": "EnforcedPause",
      "type": "error"
    },
    {
      "inputs": [],
      "name": "ExpectedPause",
      "type": "error"
    },
    {
      "inputs": [],
      "name": "ReentrancyGuardReentrantCall",
      "type": "error"
    },
    {
      "inputs": [
        {
          "internalType": "address",
          "name": "token",
          "type": "address"
        }
      ],
      "name": "SafeERC20FailedOperation",
      "type": "error"
    },
    {
      "anonymous": false,
      "inputs": [
        {
          "indexed": false,
          "internalType": "uint256",
          "name": "oldWindow",
          "type": "uint256"
        },
        {
          "indexed": false,
          "internalType": "uint256",
          "name": "newWindow",
          "type": "uint256"
        }
      ],
      "name": "DeadlineWindowUpdated",
      "type": "event"
    },
    {
      "anonymous": false,
      "inputs": [
        {
          "indexed": false,
          "internalType": "uint256",
          "name": "oldGlobalTargetPrice",
          "type": "uint256"
        },
        {
          "indexed": false,
          "internalType": "uint256",
          "name": "newGlobalTargetPrice",
          "type": "uint256"
        }
      ],
      "name": "GlobalTargetPriceUpdated",
      "type": "event"
    },
    {
      "anonymous": false,
      "inputs": [
        {
          "indexed": true,
          "internalType": "address",
          "name": "user",
          "type": "address"
        },
        {
          "indexed": true,
          "internalType": "uint256",
          "name": "packageId",
          "type": "uint256"
        },
        {
          "indexed": false,
          "internalType": "uint256",
          "name": "shareTokenAmount",
          "type": "uint256"
        },
        {
          "indexed": false,
          "internalType": "uint256",
          "name": "usdtAmount",
          "type": "uint256"
        },
        {
          "indexed": false,
          "internalType": "uint256",
          "name": "liquidityTokens",
          "type": "uint256"
        },
        {
          "indexed": false,
          "internalType": "uint256",
          "name": "actualShareToken",
          "type": "uint256"
        },
        {
          "indexed": false,
          "internalType": "uint256",
          "name": "actualUSDT",
          "type": "uint256"
        }
      ],
      "name": "LiquidityAdded",
      "type": "event"
    },
    {
      "anonymous": false,
      "inputs": [
        {
          "indexed": true,
          "internalType": "address",
          "name": "user",
          "type": "address"
        },
        {
          "indexed": true,
          "internalType": "uint256",
          "name": "packageId",
          "type": "uint256"
        },
        {
          "indexed": false,
          "internalType": "uint256",
          "name": "usdtAmount",
          "type": "uint256"
        },
        {
          "indexed": false,
          "internalType": "string",
          "name": "reason",
          "type": "string"
        }
      ],
      "name": "LiquidityAdditionFailed",
      "type": "event"
    },
    {
      "anonymous": false,
      "inputs": [
        {
          "indexed": true,
          "internalType": "address",
          "name": "user",
          "type": "address"
        },
        {
          "indexed": false,
          "internalType": "uint256",
          "name": "lpTokensBurned",
          "type": "uint256"
        },
        {
          "indexed": false,
          "internalType": "uint256",
          "name": "liquidityRemoved",
          "type": "uint256"
        },
        {
          "indexed": false,
          "internalType": "uint256",
          "name": "shareTokenReceived",
          "type": "uint256"
        },
        {
          "indexed": false,
          "internalType": "uint256",
          "name": "usdtReceived",
          "type": "uint256"
        }
      ],
      "name": "LiquidityRedeemed",
      "type": "event"
    },
    {
      "anonymous": false,
      "inputs": [
        {
          "indexed": false,
          "internalType": "uint256",
          "name": "marketPrice",
          "type": "uint256"
        },
        {
          "indexed": false,
          "internalType": "uint256",
          "name": "globalTargetPrice",
          "type": "uint256"
        },
        {
          "indexed": false,
          "internalType": "uint256",
          "name": "priceDifference",
          "type": "uint256"
        }
      ],
      "name": "MarketPriceUsed",
      "type": "event"
    },
    {
      "anonymous": false,
      "inputs": [
        {
          "indexed": true,
          "internalType": "uint256",
          "name": "id",
          "type": "uint256"
        },
        {
          "indexed": false,
          "internalType": "string",
          "name": "name",
          "type": "string"
        },
        {
          "indexed": false,
          "internalType": "uint256",
          "name": "entryUSDT",
          "type": "uint256"
        },
        {
          "indexed": false,
          "internalType": "uint256",
          "name": "exchangeRate",
          "type": "uint256"
        },
        {
          "indexed": false,
          "internalType": "uint16",
          "name": "vestBps",
          "type": "uint16"
        },
        {
          "indexed": false,
          "internalType": "uint64",
          "name": "cliff",
          "type": "uint64"
        },
        {
          "indexed": false,
          "internalType": "uint64",
          "name": "duration",
          "type": "uint64"
        },
        {
          "indexed": false,
          "internalType": "uint16",
          "name": "referralBps",
          "type": "uint16"
        }
      ],
      "name": "PackageAdded",
      "type": "event"
    },
    {
      "anonymous": false,
      "inputs": [
        {
          "indexed": true,
          "internalType": "uint256",
          "name": "id",
          "type": "uint256"
        },
        {
          "indexed": false,
          "internalType": "uint256",
          "name": "oldExchangeRate",
          "type": "uint256"
        },
        {
          "indexed": false,
          "internalType": "uint256",
          "name": "newExchangeRate",
          "type": "uint256"
        }
      ],
      "name": "PackageExchangeRateUpdated",
      "type": "event"
    },
    {
      "anonymous": false,
      "inputs": [
        {
          "indexed": true,
          "internalType": "uint256",
          "name": "id",
          "type": "uint256"
        },
        {
          "indexed": false,
          "internalType": "bool",
          "name": "active",
          "type": "bool"
        }
      ],
      "name": "PackageToggled",
      "type": "event"
    },
    {
      "anonymous": false,
      "inputs": [
        {
          "indexed": false,
          "internalType": "address",
          "name": "account",
          "type": "address"
        }
      ],
      "name": "Paused",
      "type": "event"
    },
    {
      "anonymous": false,
      "inputs": [
        {
          "indexed": true,
          "internalType": "address",
          "name": "buyer",
          "type": "address"
        },
        {
          "indexed": true,
          "internalType": "uint256",
          "name": "packageId",
          "type": "uint256"
        },
        {
          "indexed": false,
          "internalType": "uint256",
          "name": "usdtAmount",
          "type": "uint256"
        },
        {
          "indexed": false,
          "internalType": "uint256",
          "name": "totalTokens",
          "type": "uint256"
        },
        {
          "indexed": false,
          "internalType": "uint256",
          "name": "vestTokens",
          "type": "uint256"
        },
        {
          "indexed": false,
          "internalType": "uint256",
          "name": "poolTokens",
          "type": "uint256"
        },
        {
          "indexed": false,
          "internalType": "uint256",
          "name": "lpTokens",
          "type": "uint256"
        },
        {
          "indexed": true,
          "internalType": "address",
          "name": "referrer",
          "type": "address"
        },
        {
          "indexed": false,
          "internalType": "uint256",
          "name": "referralReward",
          "type": "uint256"
        }
      ],
      "name": "Purchased",
      "type": "event"
    },
    {
      "anonymous": false,
      "inputs": [
        {
          "indexed": true,
          "internalType": "address",
          "name": "user",
          "type": "address"
        },
        {
          "indexed": false,
          "internalType": "uint256",
          "name": "lpAmount",
          "type": "uint256"
        }
      ],
      "name": "Redeemed",
      "type": "event"
    },
    {
      "anonymous": false,
      "inputs": [
        {
          "indexed": true,
          "internalType": "address",
          "name": "referrer",
          "type": "address"
        },
        {
          "indexed": true,
          "internalType": "address",
          "name": "buyer",
          "type": "address"
        },
        {
          "indexed": false,
          "internalType": "uint256",
          "name": "reward",
          "type": "uint256"
        }
      ],
      "name": "ReferralPaid",
      "type": "event"
    },
    {
      "anonymous": false,
      "inputs": [
        {
          "indexed": true,
          "internalType": "bytes32",
          "name": "role",
          "type": "bytes32"
        },
        {
          "indexed": true,
          "internalType": "bytes32",
          "name": "previousAdminRole",
          "type": "bytes32"
        },
        {
          "indexed": true,
          "internalType": "bytes32",
          "name": "newAdminRole",
          "type": "bytes32"
        }
      ],
      "name": "RoleAdminChanged",
      "type": "event"
    },
    {
      "anonymous": false,
      "inputs": [
        {
          "indexed": true,
          "internalType": "bytes32",
          "name": "role",
          "type": "bytes32"
        },
        {
          "indexed": true,
          "internalType": "address",
          "name": "account",
          "type": "address"
        },
        {
          "indexed": true,
          "internalType": "address",
          "name": "sender",
          "type": "address"
        }
      ],
      "name": "RoleGranted",
      "type": "event"
    },
    {
      "anonymous": false,
      "inputs": [
        {
          "indexed": true,
          "internalType": "bytes32",
          "name": "role",
          "type": "bytes32"
        },
        {
          "indexed": true,
          "internalType": "address",
          "name": "account",
          "type": "address"
        },
        {
          "indexed": true,
          "internalType": "address",
          "name": "sender",
          "type": "address"
        }
      ],
      "name": "RoleRevoked",
      "type": "event"
    },
    {
      "anonymous": false,
      "inputs": [
        {
          "indexed": true,
          "internalType": "address",
          "name": "user",
          "type": "address"
        },
        {
          "indexed": true,
          "internalType": "uint256",
          "name": "packageId",
          "type": "uint256"
        },
        {
          "indexed": false,
          "internalType": "uint256",
          "name": "requestedShareToken",
          "type": "uint256"
        },
        {
          "indexed": false,
          "internalType": "uint256",
          "name": "requestedUSDT",
          "type": "uint256"
        },
        {
          "indexed": false,
          "internalType": "uint256",
          "name": "minShareToken",
          "type": "uint256"
        },
        {
          "indexed": false,
          "internalType": "uint256",
          "name": "minUSDT",
          "type": "uint256"
        }
      ],
      "name": "SlippageProtectionTriggered",
      "type": "event"
    },
    {
      "anonymous": false,
      "inputs": [
        {
          "indexed": false,
          "internalType": "uint256",
          "name": "oldTolerance",
          "type": "uint256"
        },
        {
          "indexed": false,
          "internalType": "uint256",
          "name": "newTolerance",
          "type": "uint256"
        }
      ],
      "name": "SlippageToleranceUpdated",
      "type": "event"
    },
    {
      "anonymous": false,
      "inputs": [
        {
          "indexed": true,
          "internalType": "bytes32",
          "name": "taxKey",
          "type": "bytes32"
        },
        {
          "indexed": false,
          "internalType": "uint256",
          "name": "amount",
          "type": "uint256"
        },
        {
          "indexed": true,
          "internalType": "address",
          "name": "recipient",
          "type": "address"
        }
      ],
      "name": "TaxApplied",
      "type": "event"
    },
    {
      "anonymous": false,
      "inputs": [
        {
          "indexed": true,
          "internalType": "address",
          "name": "buyer",
          "type": "address"
        },
        {
          "indexed": true,
          "internalType": "uint256",
          "name": "packageId",
          "type": "uint256"
        },
        {
          "indexed": false,
          "internalType": "uint256",
          "name": "amount",
          "type": "uint256"
        }
      ],
      "name": "TreasuryBlocksAllocated",
      "type": "event"
    },
    {
      "anonymous": false,
      "inputs": [
        {
          "indexed": true,
          "internalType": "address",
          "name": "oldTreasury",
          "type": "address"
        },
        {
          "indexed": true,
          "internalType": "address",
          "name": "newTreasury",
          "type": "address"
        }
      ],
      "name": "TreasuryUpdated",
      "type": "event"
    },
    {
      "anonymous": false,
      "inputs": [
        {
          "indexed": false,
          "internalType": "address",
          "name": "account",
          "type": "address"
        }
      ],
      "name": "Unpaused",
      "type": "event"
    },
    {
      "inputs": [],
      "name": "ADMIN_ROLE",
      "outputs": [
        {
          "internalType": "bytes32",
          "name": "",
          "type": "bytes32"
        }
      ],
      "stateMutability": "view",
      "type": "function"
    },
    {
      "inputs": [],
      "name": "DEFAULT_ADMIN_ROLE",
      "outputs": [
        {
          "internalType": "bytes32",
          "name": "",
          "type": "bytes32"
        }
      ],
      "stateMutability": "view",
      "type": "function"
    },
    {
      "inputs": [],
      "name": "PURCHASE_TAX_KEY",
      "outputs": [
        {
          "internalType": "bytes32",
          "name": "",
          "type": "bytes32"
        }
      ],
      "stateMutability": "view",
      "type": "function"
    },
    {
      "inputs": [],
      "name": "SERVER_ROLE",
      "outputs": [
        {
          "internalType": "bytes32",
          "name": "",
          "type": "bytes32"
        }
      ],
      "stateMutability": "view",
      "type": "function"
    },
    {
      "inputs": [],
      "name": "USDT_DEC",
      "outputs": [
        {
          "internalType": "uint8",
          "name": "",
          "type": "uint8"
        }
      ],
      "stateMutability": "view",
      "type": "function"
    },
    {
      "inputs": [],
      "name": "USDT_SCALE",
      "outputs": [
        {
          "internalType": "uint256",
          "name": "",
          "type": "uint256"
        }
      ],
      "stateMutability": "view",
      "type": "function"
    },
    {
      "inputs": [],
      "name": "USDT_SCALE_UP",
      "outputs": [
        {
          "internalType": "bool",
          "name": "",
          "type": "bool"
        }
      ],
      "stateMutability": "view",
      "type": "function"
    },
    {
      "inputs": [
        {
          "internalType": "string",
          "name": "name",
          "type": "string"
        },
        {
          "internalType": "uint256",
          "name": "entryUSDT",
          "type": "uint256"
        },
        {
          "internalType": "uint256",
          "name": "exchangeRate",
          "type": "uint256"
        },
        {
          "internalType": "uint16",
          "name": "vestBps",
          "type": "uint16"
        },
        {
          "internalType": "uint64",
          "name": "cliff",
          "type": "uint64"
        },
        {
          "internalType": "uint64",
          "name": "duration",
          "type": "uint64"
        },
        {
          "internalType": "uint16",
          "name": "referralBps",
          "type": "uint16"
        }
      ],
      "name": "addPackage",
      "outputs": [],
      "stateMutability": "nonpayable",
      "type": "function"
    },
    {
      "inputs": [],
      "name": "deadlineWindow",
      "outputs": [
        {
          "internalType": "uint256",
          "name": "",
          "type": "uint256"
        }
      ],
      "stateMutability": "view",
      "type": "function"
    },
    {
      "inputs": [],
      "name": "factory",
      "outputs": [
        {
          "internalType": "contract IPancakeFactory",
          "name": "",
          "type": "address"
        }
      ],
      "stateMutability": "view",
      "type": "function"
    },
    {
      "inputs": [],
      "name": "getActivePackageIds",
      "outputs": [
        {
          "internalType": "uint256[]",
          "name": "",
          "type": "uint256[]"
        }
      ],
      "stateMutability": "view",
      "type": "function"
    },
    {
      "inputs": [],
      "name": "getCurrentMarketPrice",
      "outputs": [
        {
          "internalType": "uint256",
          "name": "marketPrice",
          "type": "uint256"
        },
        {
          "internalType": "bool",
          "name": "hasLiquidity",
          "type": "bool"
        }
      ],
      "stateMutability": "view",
      "type": "function"
    },
    {
      "inputs": [
        {
          "internalType": "uint256",
          "name": "id",
          "type": "uint256"
        }
      ],
      "name": "getPackage",
      "outputs": [
        {
          "components": [
            {
              "internalType": "uint256",
              "name": "entryUSDT",
              "type": "uint256"
            },
            {
              "internalType": "uint256",
              "name": "exchangeRate",
              "type": "uint256"
            },
            {
              "internalType": "uint64",
              "name": "cliff",
              "type": "uint64"
            },
            {
              "internalType": "uint64",
              "name": "duration",
              "type": "uint64"
            },
            {
              "internalType": "uint16",
              "name": "vestBps",
              "type": "uint16"
            },
            {
              "internalType": "uint16",
              "name": "referralBps",
              "type": "uint16"
            },
            {
              "internalType": "bool",
              "name": "active",
              "type": "bool"
            },
            {
              "internalType": "bool",
              "name": "exists",
              "type": "bool"
            },
            {
              "internalType": "string",
              "name": "name",
              "type": "string"
            }
          ],
          "internalType": "struct PackageManagerV2_2.Package",
          "name": "",
          "type": "tuple"
        }
      ],
      "stateMutability": "view",
      "type": "function"
    },
    {
      "inputs": [],
      "name": "getPackageCount",
      "outputs": [
        {
          "internalType": "uint256",
          "name": "",
          "type": "uint256"
        }
      ],
      "stateMutability": "view",
      "type": "function"
    },
    {
      "inputs": [],
      "name": "getPackageIds",
      "outputs": [
        {
          "internalType": "uint256[]",
          "name": "",
          "type": "uint256[]"
        }
      ],
      "stateMutability": "view",
      "type": "function"
    },
    {
      "inputs": [
        {
          "internalType": "bytes32",
          "name": "role",
          "type": "bytes32"
        }
      ],
      "name": "getRoleAdmin",
      "outputs": [
        {
          "internalType": "bytes32",
          "name": "",
          "type": "bytes32"
        }
      ],
      "stateMutability": "view",
      "type": "function"
    },
    {
      "inputs": [
        {
          "internalType": "address",
          "name": "user",
          "type": "address"
        }
      ],
      "name": "getUserPackageCount",
      "outputs": [
        {
          "internalType": "uint256",
          "name": "",
          "type": "uint256"
        }
      ],
      "stateMutability": "view",
      "type": "function"
    },
    {
      "inputs": [
        {
          "internalType": "address",
          "name": "user",
          "type": "address"
        }
      ],
      "name": "getUserPackages",
      "outputs": [
        {
          "components": [
            {
              "internalType": "uint256",
              "name": "packageId",
              "type": "uint256"
            },
            {
              "internalType": "uint256",
              "name": "usdtAmount",
              "type": "uint256"
            },
            {
              "internalType": "uint256",
              "name": "totalTokens",
              "type": "uint256"
            },
            {
              "internalType": "uint256",
              "name": "vestTokens",
              "type": "uint256"
            },
            {
              "internalType": "uint256",
              "name": "poolTokens",
              "type": "uint256"
            },
            {
              "internalType": "uint256",
              "name": "lpTokens",
              "type": "uint256"
            },
            {
              "internalType": "address",
              "name": "referrer",
              "type": "address"
            },
            {
              "internalType": "uint256",
              "name": "referralReward",
              "type": "uint256"
            },
            {
              "internalType": "uint256",
              "name": "timestamp",
              "type": "uint256"
            }
          ],
          "internalType": "struct PackageManagerV2_2.UserPurchase[]",
          "name": "",
          "type": "tuple[]"
        }
      ],
      "stateMutability": "view",
      "type": "function"
    },
    {
      "inputs": [
        {
          "internalType": "address",
          "name": "user",
          "type": "address"
        },
        {
          "internalType": "uint256",
          "name": "index",
          "type": "uint256"
        }
      ],
      "name": "getUserPurchase",
      "outputs": [
        {
          "components": [
            {
              "internalType": "uint256",
              "name": "packageId",
              "type": "uint256"
            },
            {
              "internalType": "uint256",
              "name": "usdtAmount",
              "type": "uint256"
            },
            {
              "internalType": "uint256",
              "name": "totalTokens",
              "type": "uint256"
            },
            {
              "internalType": "uint256",
              "name": "vestTokens",
              "type": "uint256"
            },
            {
              "internalType": "uint256",
              "name": "poolTokens",
              "type": "uint256"
            },
            {
              "internalType": "uint256",
              "name": "lpTokens",
              "type": "uint256"
            },
            {
              "internalType": "address",
              "name": "referrer",
              "type": "address"
            },
            {
              "internalType": "uint256",
              "name": "referralReward",
              "type": "uint256"
            },
            {
              "internalType": "uint256",
              "name": "timestamp",
              "type": "uint256"
            }
          ],
          "internalType": "struct PackageManagerV2_2.UserPurchase",
          "name": "",
          "type": "tuple"
        }
      ],
      "stateMutability": "view",
      "type": "function"
    },
    {
      "inputs": [
        {
          "internalType": "address",
          "name": "user",
          "type": "address"
        }
      ],
      "name": "getUserPurchaseCount",
      "outputs": [
        {
          "internalType": "uint256",
          "name": "",
          "type": "uint256"
        }
      ],
      "stateMutability": "view",
      "type": "function"
    },
    {
      "inputs": [
        {
          "internalType": "address",
          "name": "user",
          "type": "address"
        }
      ],
      "name": "getUserPurchases",
      "outputs": [
        {
          "components": [
            {
              "internalType": "uint256",
              "name": "packageId",
              "type": "uint256"
            },
            {
              "internalType": "uint256",
              "name": "usdtAmount",
              "type": "uint256"
            },
            {
              "internalType": "uint256",
              "name": "totalTokens",
              "type": "uint256"
            },
            {
              "internalType": "uint256",
              "name": "vestTokens",
              "type": "uint256"
            },
            {
              "internalType": "uint256",
              "name": "poolTokens",
              "type": "uint256"
            },
            {
              "internalType": "uint256",
              "name": "lpTokens",
              "type": "uint256"
            },
            {
              "internalType": "address",
              "name": "referrer",
              "type": "address"
            },
            {
              "internalType": "uint256",
              "name": "referralReward",
              "type": "uint256"
            },
            {
              "internalType": "uint256",
              "name": "timestamp",
              "type": "uint256"
            }
          ],
          "internalType": "struct PackageManagerV2_2.UserPurchase[]",
          "name": "",
          "type": "tuple[]"
        }
      ],
      "stateMutability": "view",
      "type": "function"
    },
    {
      "inputs": [
        {
          "internalType": "address",
          "name": "user",
          "type": "address"
        }
      ],
      "name": "getUserRedemptionCount",
      "outputs": [
        {
          "internalType": "uint256",
          "name": "",
          "type": "uint256"
        }
      ],
      "stateMutability": "view",
      "type": "function"
    },
    {
      "inputs": [
        {
          "internalType": "address",
          "name": "user",
          "type": "address"
        }
      ],
      "name": "getUserRedemptions",
      "outputs": [
        {
          "internalType": "uint256[]",
          "name": "amounts",
          "type": "uint256[]"
        },
        {
          "internalType": "uint256[]",
          "name": "timestamps",
          "type": "uint256[]"
        }
      ],
      "stateMutability": "view",
      "type": "function"
    },
    {
      "inputs": [
        {
          "internalType": "address",
          "name": "user",
          "type": "address"
        }
      ],
      "name": "getUserStats",
      "outputs": [
        {
          "components": [
            {
              "internalType": "uint256",
              "name": "totalInvested",
              "type": "uint256"
            },
            {
              "internalType": "uint256",
              "name": "totalTokensReceived",
              "type": "uint256"
            },
            {
              "internalType": "uint256",
              "name": "totalVestTokens",
              "type": "uint256"
            },
            {
              "internalType": "uint256",
              "name": "totalPoolTokens",
              "type": "uint256"
            },
            {
              "internalType": "uint256",
              "name": "totalLPTokens",
              "type": "uint256"
            },
            {
              "internalType": "uint256",
              "name": "totalReferralRewards",
              "type": "uint256"
            },
            {
              "internalType": "uint256",
              "name": "purchaseCount",
              "type": "uint256"
            },
            {
              "internalType": "uint256",
              "name": "redemptionCount",
              "type": "uint256"
            },
            {
              "internalType": "uint256",
              "name": "totalRedemptions",
              "type": "uint256"
            }
          ],
          "internalType": "struct PackageManagerV2_2.UserStats",
          "name": "",
          "type": "tuple"
        }
      ],
      "stateMutability": "view",
      "type": "function"
    },
    {
      "inputs": [],
      "name": "globalTargetPrice",
      "outputs": [
        {
          "internalType": "uint256",
          "name": "",
          "type": "uint256"
        }
      ],
      "stateMutability": "view",
      "type": "function"
    },
    {
      "inputs": [
        {
          "internalType": "bytes32",
          "name": "role",
          "type": "bytes32"
        },
        {
          "internalType": "address",
          "name": "account",
          "type": "address"
        }
      ],
      "name": "grantRole",
      "outputs": [],
      "stateMutability": "nonpayable",
      "type": "function"
    },
    {
      "inputs": [
        {
          "internalType": "bytes32",
          "name": "role",
          "type": "bytes32"
        },
        {
          "internalType": "address",
          "name": "account",
          "type": "address"
        }
      ],
      "name": "hasRole",
      "outputs": [
        {
          "internalType": "bool",
          "name": "",
          "type": "bool"
        }
      ],
      "stateMutability": "view",
      "type": "function"
    },
    {
      "inputs": [],
      "name": "initRouterAllowances",
      "outputs": [],
      "stateMutability": "nonpayable",
      "type": "function"
    },
    {
      "inputs": [],
      "name": "lpToken",
      "outputs": [
        {
          "internalType": "contract IBLOCKS_LP",
          "name": "",
          "type": "address"
        }
      ],
      "stateMutability": "view",
      "type": "function"
    },
    {
      "inputs": [],
      "name": "nextPackageId",
      "outputs": [
        {
          "internalType": "uint256",
          "name": "",
          "type": "uint256"
        }
      ],
      "stateMutability": "view",
      "type": "function"
    },
    {
      "inputs": [],
      "name": "pause",
      "outputs": [],
      "stateMutability": "nonpayable",
      "type": "function"
    },
    {
      "inputs": [],
      "name": "paused",
      "outputs": [
        {
          "internalType": "bool",
          "name": "",
          "type": "bool"
        }
      ],
      "stateMutability": "view",
      "type": "function"
    },
    {
      "inputs": [
        {
          "internalType": "uint256",
          "name": "id",
          "type": "uint256"
        },
        {
          "internalType": "address",
          "name": "referrer",
          "type": "address"
        }
      ],
      "name": "purchase",
      "outputs": [],
      "stateMutability": "nonpayable",
      "type": "function"
    },
    {
      "inputs": [
        {
          "internalType": "address",
          "name": "buyer",
          "type": "address"
        },
        {
          "internalType": "uint256",
          "name": "id",
          "type": "uint256"
        },
        {
          "internalType": "address",
          "name": "referrer",
          "type": "address"
        }
      ],
      "name": "purchaseFor",
      "outputs": [],
      "stateMutability": "nonpayable",
      "type": "function"
    },
    {
      "inputs": [
        {
          "internalType": "uint256",
          "name": "lpAmount",
          "type": "uint256"
        }
      ],
      "name": "redeem",
      "outputs": [],
      "stateMutability": "nonpayable",
      "type": "function"
    },
    {
      "inputs": [
        {
          "internalType": "bytes32",
          "name": "role",
          "type": "bytes32"
        },
        {
          "internalType": "address",
          "name": "callerConfirmation",
          "type": "address"
        }
      ],
      "name": "renounceRole",
      "outputs": [],
      "stateMutability": "nonpayable",
      "type": "function"
    },
    {
      "inputs": [
        {
          "internalType": "bytes32",
          "name": "role",
          "type": "bytes32"
        },
        {
          "internalType": "address",
          "name": "account",
          "type": "address"
        }
      ],
      "name": "revokeRole",
      "outputs": [],
      "stateMutability": "nonpayable",
      "type": "function"
    },
    {
      "inputs": [],
      "name": "router",
      "outputs": [
        {
          "internalType": "contract IPancakeRouter",
          "name": "",
          "type": "address"
        }
      ],
      "stateMutability": "view",
      "type": "function"
    },
    {
      "inputs": [
        {
          "internalType": "uint256",
          "name": "newWindow",
          "type": "uint256"
        }
      ],
      "name": "setDeadlineWindow",
      "outputs": [],
      "stateMutability": "nonpayable",
      "type": "function"
    },
    {
      "inputs": [
        {
          "internalType": "uint256",
          "name": "newPrice",
          "type": "uint256"
        }
      ],
      "name": "setGlobalTargetPrice",
      "outputs": [],
      "stateMutability": "nonpayable",
      "type": "function"
    },
    {
      "inputs": [
        {
          "internalType": "uint256",
          "name": "id",
          "type": "uint256"
        },
        {
          "internalType": "uint256",
          "name": "newExchangeRate",
          "type": "uint256"
        }
      ],
      "name": "setPackageExchangeRate",
      "outputs": [],
      "stateMutability": "nonpayable",
      "type": "function"
    },
    {
      "inputs": [
        {
          "internalType": "uint256",
          "name": "newTolBps",
          "type": "uint256"
        }
      ],
      "name": "setSlippageTolerance",
      "outputs": [],
      "stateMutability": "nonpayable",
      "type": "function"
    },
    {
      "inputs": [
        {
          "internalType": "address",
          "name": "newTreasury",
          "type": "address"
        }
      ],
      "name": "setTreasury",
      "outputs": [],
      "stateMutability": "nonpayable",
      "type": "function"
    },
    {
      "inputs": [],
      "name": "shareToken",
      "outputs": [
        {
          "internalType": "contract IBLOCKS",
          "name": "",
          "type": "address"
        }
      ],
      "stateMutability": "view",
      "type": "function"
    },
    {
      "inputs": [],
      "name": "slippageTolerance",
      "outputs": [
        {
          "internalType": "uint256",
          "name": "",
          "type": "uint256"
        }
      ],
      "stateMutability": "view",
      "type": "function"
    },
    {
      "inputs": [
        {
          "internalType": "bytes4",
          "name": "interfaceId",
          "type": "bytes4"
        }
      ],
      "name": "supportsInterface",
      "outputs": [
        {
          "internalType": "bool",
          "name": "",
          "type": "bool"
        }
      ],
      "stateMutability": "view",
      "type": "function"
    },
    {
      "inputs": [],
      "name": "taxManager",
      "outputs": [
        {
          "internalType": "contract ISwapTaxManager",
          "name": "",
          "type": "address"
        }
      ],
      "stateMutability": "view",
      "type": "function"
    },
    {
      "inputs": [
        {
          "internalType": "uint256",
          "name": "id",
          "type": "uint256"
        }
      ],
      "name": "togglePackage",
      "outputs": [],
      "stateMutability": "nonpayable",
      "type": "function"
    },
    {
      "inputs": [],
      "name": "treasury",
      "outputs": [
        {
          "internalType": "address",
          "name": "",
          "type": "address"
        }
      ],
      "stateMutability": "view",
      "type": "function"
    },
    {
      "inputs": [],
      "name": "unpause",
      "outputs": [],
      "stateMutability": "nonpayable",
      "type": "function"
    },
    {
      "inputs": [],
      "name": "usdt",
      "outputs": [
        {
          "internalType": "contract IERC20Decimals",
          "name": "",
          "type": "address"
        }
      ],
      "stateMutability": "view",
      "type": "function"
    },
    {
      "inputs": [],
      "name": "vestingVault",
      "outputs": [
        {
          "internalType": "contract IVestingVault",
          "name": "",
          "type": "address"
        }
      ],
      "stateMutability": "view",
      "type": "function"
    }
  ],
  "bytecode": "0x6101c06040908082523462000539578062004a7780380380916200002482856200053e565b8339610140918291810103126200053957620000408262000578565b9060206200005081850162000578565b916200005e86860162000578565b956200006d6060870162000578565b936200007c6080880162000578565b976200008b60a0890162000578565b966200009a60c08a0162000578565b97620000a960e08b0162000578565b906101009b620000bb8d8d0162000578565b6101209c8d01516001805561012c6003556101f4600555909a6001600160a01b039586169791969091881515878f826200052c575b826200051f575b8262000512575b8262000505575b82620004f8575b82620004eb575b505080620004df575b80620004d3575b15620004a05787156200045c576080899052861660a052851660c052841660e05283168c5282168a5216845260028054610100600160a81b031916600889901b610100600160a81b03161790556004908155825163313ce56760e01b8152918591839182905afa938415620004515760009462000408575b505060ff610160938085521694600060128714600014620003965750620001e190620001da6001965b61018097885260126101a09911158952620005b5565b5062000635565b50519461437f9687620006d888396080518781816105390152818161128b01528181611e40015281816126d401528181612e790152818161376601528181613bd001528181613dd201528181613ee90152818161426a0152614304015260a051878181610506015281816112b90152818161159c015281816126a80152818161321701528181613277015281816132ce01528181613562015281816135ba01528181613666015281816137930152818161381001528181613e5c01528181613ec1015281816140ef01526141d2015260c0518781816104b8015281816116460152613446015260e0518781816106b40152818161101d015281816137d00152818161385f01526138c80152518681816102b4015281816106320152818161126301528181613d9801528181613e2301528181613f4a015281816141ae015261424601525185818161056a01528181610bf901528181611318015261270d015251848181611c860152613b2b0152518381816111bd01526127c40152518281816115e201528181612edc0152818161350f015281816136e5015261394e015251818181610d6901528181612eb301526134e60152f35b6012871015620003de57866012039060ff8211620003ca575090620001da620003c3620001e1936200058d565b96620001c4565b634e487b7160e01b81526011600452602490fd5b60111987019060ff8211620003ca575090620001da62000402620001e1936200058d565b620003c3565b81819593953d831162000449575b6200042281836200053e565b810103126200044557519060ff821682036200044257509138806200019b565b80fd5b5080fd5b503d62000416565b82513d6000823e3d90fd5b895162461bcd60e51b8152600481018d9052601560248201527f496e76616c696420676c6f62616c2074617267657400000000000000000000006044820152606490fd5b895162461bcd60e51b8152600481018d9052600c60248201526b24b73b30b634b21030b2323960a11b6044820152606490fd5b50868d16151562000123565b5086861615156200011c565b1615159050878f62000113565b878216151592506200010c565b8682161515925062000105565b85821615159250620000fe565b84821615159250620000f7565b83821615159250620000f0565b600080fd5b601f909101601f19168101906001600160401b038211908210176200056257604052565b634e487b7160e01b600052604160045260246000fd5b51906001600160a01b03821682036200053957565b60ff16604d81116200059f57600a0a90565b634e487b7160e01b600052601160045260246000fd5b6001600160a01b031660008181527fad3228b676f7d3cd4284a5443f17f1962b36e491b30a40b2405849e597ba5fb5602052604081205490919060ff166200063157818052816020526040822081835260205260408220600160ff19825416179055339160008051602062004a578339815191528180a4600190565b5090565b6001600160a01b031660008181527f9c5aa8bf4d93dca6430115e88fa8c1700204beda30fff3ec04054c8739a0a2b560205260408120549091907fa8a7bc421f721cb936ea99efdad79237e6ee0b871a2a08cf648691f9584cdc779060ff16620006d257808352826020526040832082845260205260408320600160ff1982541617905560008051602062004a57833981519152339380a4600190565b50509056fe608080604052600436101561001357600080fd5b6000803560e01c91826301ffc9a71461208757508163117da1ee14611fdf578163175d1bcb14611fc257816318cf283414611f885781631ae74cce14611f60578163248a9ca314611f355781632cf91f6414611eab5781632f2ff15d14611e6f5781632f48ab7d14611e2b57816336568abe14611de45781633f4ba83a14611d6157816346a5683514611cb55781634d23773014611c715781634e43603a14611b895781635c691b08146116975781635c975abb146116755781635fcbd2851461163157816361d027b3146116055781636398bf82146115cb5781636c9fa59e1461158757816375b238fc1461104c5781637d2fd64e146114dd5781638432e3a61461141c5781638456cb59146113a95781638d2326121461122857816391b96b631461025d57816391d14854146111e15781639a7844a6146111a45781639e4f8ab81461106e5781639eb87dec14611051578163a217fddf1461104c578163a5917baf14611008578163ae77c23714610fb3578163b99dfe1814610d8e578163bde0280f14610d52578163c1da6bbc14610c45578163c28399ef14610c28578163c45a015514610be4578163c4e71eaf14610b70578163c6e5d8f614610470578163ce9ddccc14610b38578163d03153aa14610b1b578163d547741f14610adb578163d7da9e4f14610abe578163da7b109d146109ea578163db006a7514610475578163deef537814610470578163df8ae236146103b6578163f0f44260146102e3578163f887ea401461029f578163f987626b14610262575063fcc18c231461025d57600080fd5b6121b9565b3461029c578060031936011261029c5760206040517f995c68a7874ab62e799137bc19b39d4cdd1c165240e636649fba7edfda9d16c88152f35b80fd5b3461029c578060031936011261029c576040517f00000000000000000000000000000000000000000000000000000000000000006001600160a01b03168152602090f35b3461029c57602036600319011261029c576102fc612129565b81805281602052604082203360005260205261031f60ff6040600020541661241f565b6001600160a01b0381811691821561037e5760028054610100600160a81b03198116600893841b610100600160a81b031617909155901c167f4ab5be82436d353e61ca18726e984e561f5c1cc7c6d38b29d2553c790434705a8380a380f35b60405162461bcd60e51b815260206004820152601060248201526f496e76616c696420747265617375727960801b6044820152606490fd5b3461029c5760208060031936011261046c577ff07234658490cc011f9f49fd5c1b020ffd25ca0e3df67ac88818648c16a269cd600435918380528381526040842033600052815261040e60ff6040600020541661241f565b8284526008815261042b60ff600260408720015460a81c166125e6565b8284526008815260408420600201805460ff60a01b19811660a091821c60ff9081161590921b60ff60a01b16178255905460a01c166040519015158152a280f35b5080fd5b612233565b3461029c5760208060031936011261046c5760043590610493612ae0565b61049b6125c8565b81156109b2576040516318160ddd60e01b81526001600160a01b037f00000000000000000000000000000000000000000000000000000000000000008116918381600481865afa9081156109a757869161097a575b5080156109465760405163e6a4390560e01b81527f000000000000000000000000000000000000000000000000000000000000000083166001600160a01b0381811660048401527f0000000000000000000000000000000000000000000000000000000000000000851690811660248401529186816044817f000000000000000000000000000000000000000000000000000000000000000089165afa801561085a5785918a9161090a575b50169283156108d8576040516370a0823160e01b81523060048201528781602481885afa9081156108cd578a9161089c575b5080156108655789916105e48a6105e99361267d565b61265d565b95803b1561046c57604051632770a7eb60e21b8152336004820152602481018a905291908290604490829084905af1801561085a57610841575b50879160e460409261065988887f0000000000000000000000000000000000000000000000000000000000000000168098612c65565b8461066660035442612b03565b9685519788958694635d5155ef60e11b8652600486015260248501528a60448501528260648501528260848501523360a485015260c48401525af192831561083457819282946107f8575b507f000000000000000000000000000000000000000000000000000000000000000016803b1561046c5781809160246040518094819363ddeae03360e01b83523360048401525af16107e0575b5050338652600984526040862060078101805490600182018092116107cc577f4896181ff8f4543cc00db9fe9b6fb7e6f032b7eb772c72ab1ec1b4d2e03b9369969594927f3934fc962ef79ea87f2b6d34fdfdb727537e44f786c7810133c7e23f19a1481494926008925501610775888254612b03565b9055338852600b855261078b8760408a2061259f565b338852600c855261079f4260408a2061259f565b60408051888152602081019590955284015260608301523391608090a26040519283523392a26001805580f35b634e487b7160e01b89526011600452602489fd5b6107e9906124ae565b6107f45785876106fe565b8580fd5b92509250506040813d60401161082c575b81610816604093836124dc565b810103126107f4578584825192015192886106b1565b3d9150610809565b50604051903d90823e3d90fd5b9160e498610851604093946124ae565b98509190610623565b6040513d8b823e3d90fd5b60405162461bcd60e51b815260048101899052600f60248201526e139bc81c99585b081314081a195b19608a1b6044820152606490fd5b90508781813d83116108c6575b6108b381836124dc565b810103126108c257518a6105ce565b8980fd5b503d6108a9565b6040513d8c823e3d90fd5b60405162461bcd60e51b815260048101889052600a6024820152692737902628103830b4b960b11b6044820152606490fd5b809250888092503d831161093f575b61092381836124dc565b8101031261093b576109358591612624565b8a61059c565b8880fd5b503d610919565b60405162461bcd60e51b815260048101859052600c60248201526b4e6f204c5020737570706c7960a01b6044820152606490fd5b90508381813d83116109a0575b61099181836124dc565b810103126107f45751866104f0565b503d610987565b6040513d88823e3d90fd5b6064906040519062461bcd60e51b825260048201526011602482015270125b9d985b1a5908131408185b5bdd5b9d607a1b6044820152fd5b3461029c57604036600319011261029c57600435602435828052602090838252604084203385528252610a2360ff60408620541661241f565b82845260088252610a4060ff600260408720015460a81c166125e6565b8015610a8a577fa1883cbb0491700bbb491dc908b557f640688276c8d7b9ec57f4bea05f20501491604091848652600882526001838720019181835493558351928352820152a280f35b60405162461bcd60e51b815260048101839052600c60248201526b496e76616c6964207261746560a01b6044820152606490fd5b3461029c578060031936011261029c576020600654604051908152f35b3461029c57604036600319011261029c57610b17600435610afa61210e565b9080845283602052610b126001604086200154612306565b6123aa565b5080f35b3461029c578060031936011261029c576020600554604051908152f35b3461029c57602036600319011261029c576020906040906001600160a01b03610b5f612129565b168152600b83522054604051908152f35b3461029c57602036600319011261029c57610bd2906001600160a01b03610b95612129565b168152600b602052610be0610bbe610bb8604080852094600c60205220936129a9565b926129a9565b6040519384936040855260408501906120da565b9083820360208501526120da565b0390f35b3461029c578060031936011261029c576040517f00000000000000000000000000000000000000000000000000000000000000006001600160a01b03168152602090f35b3461029c578060031936011261029c576020600354604051908152f35b3461029c57606036600319011261029c57610c5e612129565b6044356024356001600160a01b038083168303610d4e57610c7d612ae0565b610c856125c8565b8185526008602052610ca360ff600260408820015460a81c166125e6565b7fa8a7bc421f721cb936ea99efdad79237e6ee0b871a2a08cf648691f9584cdc77808652856020526040862033875260205260ff60408720541615610d305750831615610cfb57610cf49233612d8c565b6001805580f35b60405162461bcd60e51b815260206004820152600d60248201526c24b73b30b634b210313abcb2b960991b6044820152606490fd5b6044906040519063e2517d3f60e01b82523360048301526024820152fd5b8480fd5b3461029c578060031936011261029c5760206040517f000000000000000000000000000000000000000000000000000000000000000015158152f35b3461029c57602036600319011261029c576004356060610100604051610db38161247c565b84815284602082015284604082015284838201528460808201528460a08201528460c08201528460e082015201528082526008602052610dff60ff600260408520015460a81c166125e6565b81526008602052604081209060405190610e188261247c565b825482526001830154602083015260ff60028401546001600160401b03811660408501526001600160401b038160401c16606085015261ffff8160801c16608085015261ffff8160901c1660a0850152818160a01c16151560c085015260a81c16151560e083015260405190600381940190815491610e9683612518565b8085529260018116908115610f8b5750600114610f4f575b505050610ec0816101009403826124dc565b82820152610be06040519283926020845280516020850152602081015160408501526001600160401b0360408201511660608501526001600160401b03606082015116608085015261ffff60808201511660a085015261ffff60a08201511660c085015260c0810151151560e085015260e08101511515828501520151610120808401526101408301906121f3565b908092955052602081205b848210610f75575081016020019250610ec081610100610eae565b6001816020925483858701015201910190610f5a565b610100975085935060209250610ec094915060ff191682840152151560051b82010194610eae565b3461029c57604036600319011261029c57610cf4600435610fd261210e565b90610fdb612ae0565b610fe36125c8565b808452600860205261100160ff600260408720015460a81c166125e6565b3333612d8c565b3461029c578060031936011261029c576040517f00000000000000000000000000000000000000000000000000000000000000006001600160a01b03168152602090f35b61219d565b3461029c578060031936011261029c576020600754604051908152f35b3461029c578060031936011261029c5760075481805b8281106111575750611095836129fa565b926110a360405194856124dc565b8084526110b2601f19916129fa565b0191602092368486013781825b8281106110d95760405185815280610be0818801896120da565b6110e281612552565b9054600391821b1c85526008865260ff600260408720015460a01c16611112575b5061110d90612457565b6110bf565b61111b82612552565b9054911b1c61112983612457565b9287518110156111435760051b870186015261110d611103565b634e487b7160e01b86526032600452602486fd5b61116081612552565b90549060031b1c8252600860205260ff600260408420015460a01c1661118f575b61118a90612457565b611084565b9261119c61118a91612457565b939050611181565b3461029c578060031936011261029c57602060405160ff7f0000000000000000000000000000000000000000000000000000000000000000168152f35b3461029c57604036600319011261029c5760ff604060209261120161210e565b60043582528185528282206001600160a01b03909116825284522054604051911615158152f35b3461029c578060031936011261029c57808052602081815260408220338352815261125960ff60408420541661241f565b6001600160a01b037f0000000000000000000000000000000000000000000000000000000000000000811691611313817f000000000000000000000000000000000000000000000000000000000000000084166112b68682612b10565b847f0000000000000000000000000000000000000000000000000000000000000000166112e38782612b10565b60405163e6a4390560e01b81526001600160a01b0391821660048201529116602482015291829081906044820190565b0381867f0000000000000000000000000000000000000000000000000000000000000000165afa91821561139e578592611364575b5050169081611355578280f35b61135e91612b10565b81808280f35b90809250813d8311611397575b61137b81836124dc565b810103126113935761138c90612624565b8480611348565b8380fd5b503d611371565b6040513d87823e3d90fd5b3461029c578060031936011261029c5780805280602052604081203382526020526113da60ff60408320541661241f565b6113e26125c8565b600160ff1960025416176002557f62e78cea01bee320cd4e420270b5ea74000d11b0c9f74754ebdbfc544b05a2586020604051338152a180f35b3461029c57602036600319011261029c57600435818052816020526040822033835260205261145160ff60408420541661241f565b603c811015806114d1575b1561149b5760407fd377b1dc1f911f261ac96273f0011b33578119b6f87a37a787fc6fa3ba066de491600354908060035582519182526020820152a180f35b60405162461bcd60e51b815260206004820152600e60248201526d496e76616c69642077696e646f7760901b6044820152606490fd5b50610e1081111561145c565b3461029c57602036600319011261029c57600435818052816020526040822033835260205261151260ff60408420541661241f565b80156115525760407f3f0a47b6cb75d94633850c9a242c4cdb5876a35fc86c211a1f4f633cc37ba8ed91600454908060045582519182526020820152a180f35b60405162461bcd60e51b815260206004820152600d60248201526c496e76616c696420707269636560981b6044820152606490fd5b3461029c578060031936011261029c576040517f00000000000000000000000000000000000000000000000000000000000000006001600160a01b03168152602090f35b3461029c578060031936011261029c5760206040517f00000000000000000000000000000000000000000000000000000000000000008152f35b3461029c578060031936011261029c5760025460405160089190911c6001600160a01b03168152602090f35b3461029c578060031936011261029c576040517f00000000000000000000000000000000000000000000000000000000000000006001600160a01b03168152602090f35b3461029c578060031936011261029c57602060ff600254166040519015158152f35b3461029c5760e036600319011261029c576001600160401b036004351161029c5736602360043501121561029c576001600160401b03600435600401351161029c573660246004356004013560043501011161029c5761ffff90606435828116810361046c57608435906001600160401b0382168203611b855760a435936001600160401b03851685036113935760c4358181168103610d4e57848052846020526040852033865260205261175260ff60408720541661241f565b61175a6125c8565b60043560040135151580611b7a575b80611b6f575b80611b61575b80611b53575b80611b41575b15611b0b576006549361179385612457565b6006556040516117a28161247c565b602435815260443560208201526001600160401b03821660408201526001600160401b0388166060820152838516608082015283831660a0820152600160c0820152600160e08201526117fa600435600401356124fd565b61180760405191826124dc565b60048035908101358083529060240160208301378760206004356004013583010152610100820190815286885260086020526040882091805183556020810151600184015560e060028401916001600160401b036040820151168354906fffffffffffffffff0000000000000000606084015160401b1661ffff60801b608085015160801b169161ffff60901b60a086015160901b16936bffffffffffffffffffffffff60a01b161717171783556118dd60c08201511515849081549060ff60a01b90151560a01b169060ff60a01b1916179055565b0151815460ff60a81b191690151560a81b60ff60a81b16179055518051906001600160401b038211611af7576119166003840154612518565b601f8111611ab3575b50602090601f8311600114611a4a57600392918a9183611a3f575b50508160011b9160001990841b1c1916179101555b600754600160401b811015611a2b57966001600160401b03809261199c8a60017f38a9b0861af6eda42482a0e46839a625d911229840556475b544bc0bb1c5a66d9a9b9c01600755612552565b81549060031b908b821b91600019901b1916179055856040519760e089526004356004013560e08a0152600435600401356024600435016101008b01378b610100600435600401358b01015260243560208a015260443560408a01521660608801521660808601521660a08401521660c082015261010081601f19601f6004356004013501168101030190a280f35b634e487b7160e01b87526041600452602487fd5b015190508b8061193a565b600384018a5260208a209190601f1984168b5b818110611a9b57509160019391856003969410611a83575b505050811b0191015561194f565b015160001983861b60f8161c191690558b8080611a75565b92936020600181928786015181550195019301611a5d565b600384018a5260208a20601f840160051c810160208510611af0575b601f830160051c82018110611ae557505061191f565b8b8155600101611acf565b5080611acf565b634e487b7160e01b89526041600452602489fd5b60405162461bcd60e51b815260206004820152600e60248201526d496e76616c696420706172616d7360901b6044820152606490fd5b506001600160401b0386161515611781565b506103e8828216111561177b565b506127108284161115611775565b50604435151561176f565b506024351515611769565b8280fd5b3461029c57602036600319011261029c57604061012091611ba8612129565b611bb0612a11565b506001600160a01b03168152600960205220604051611bce8161247c565b8154918282526001810154906020830191825260028101546040840190815260038201546060850190815260048301546080860190815260058401549160a0870192835260068501549360c08801948552600860078701549660e08a01978852015496610100809901978852604051998a525160208a01525160408901525160608801525160808701525160a08601525160c08501525160e08401525190820152f35b3461029c578060031936011261029c576040517f00000000000000000000000000000000000000000000000000000000000000006001600160a01b03168152602090f35b3461029c57604036600319011261029c57611cce612129565b9060243591611cdb612a11565b506001600160a01b0316808252600a6020526040822054909190831015611d2c5761012092604082611d1d94611d179452600a60205220612ac4565b50612a56565b611d2a604051809261213f565bf35b60405162461bcd60e51b815260206004820152600d60248201526c092dcecc2d8d2c840d2dcc8caf609b1b6044820152606490fd5b3461029c578060031936011261029c578080528060205260408120338252602052611d9260ff60408320541661241f565b60025460ff811615611dd25760ff19166002557f5db9ee0a495bf2e6ff9c91a7834c1ba4fdd244a5e8aa4e537bd38aeae4b073aa6020604051338152a180f35b604051638dfc202b60e01b8152600490fd5b3461029c57604036600319011261029c57611dfd61210e565b336001600160a01b03821603611e1957610b17906004356123aa565b60405163334bd91960e11b8152600490fd5b3461029c578060031936011261029c576040517f00000000000000000000000000000000000000000000000000000000000000006001600160a01b03168152602090f35b3461029c57604036600319011261029c57610b17600435611e8e61210e565b9080845283602052611ea66001604086200154612306565b61232c565b3461029c578060031936011261029c57604051809182600754808452602080940190600784527fa66cc928b5edb82af9bd49922954155ab7b0942694bea4ce44661d9a8736c688935b85828210611f1f57505050611f0b925003836124dc565b610be06040519282849384528301906120da565b8554845260019586019588955093019201611ef4565b3461029c57602036600319011261029c57600160406020926004358152808452200154604051908152f35b3461029c578060031936011261029c576040611f7a612690565b825191825215156020820152f35b3461029c578060031936011261029c5760206040517fa8a7bc421f721cb936ea99efdad79237e6ee0b871a2a08cf648691f9584cdc778152f35b3461029c578060031936011261029c576020600454604051908152f35b3461029c57602036600319011261029c57600435818052816020526040822033835260205261201460ff60408420541661241f565b6107d081116120575760407fddd31550b26e9ef8ade466958be83ff8a014d9b4f36d546b61a6847a4530657591600554908060055582519182526020820152a180f35b60405162461bcd60e51b81526020600482015260086024820152670a8dede40d0d2ced60c31b6044820152606490fd5b3461046c57602036600319011261046c5760043563ffffffff60e01b8116809103611b855760209250637965db0b60e01b81149081156120c9575b5015158152f35b6301ffc9a760e01b149050836120c2565b90815180825260208080930193019160005b8281106120fa575050505090565b8351855293810193928101926001016120ec565b602435906001600160a01b038216820361212457565b600080fd5b600435906001600160a01b038216820361212457565b805182526020810151602083015260408101516040830152606081015160608301526080810151608083015260a081015160a083015260018060a01b0360c08201511660c083015260e081015160e083015261010080910151910152565b3461212457600036600319011261212457602060405160008152f35b34612124576020366003190112612124576001600160a01b036121da612129565b16600052600a6020526020604060002054604051908152f35b919082519283825260005b84811061221f575050826000602080949584010152601f8019910116010190565b6020818301810151848301820152016121fe565b3461212457602080600319360112612124576001600160a01b03612255612129565b16906000918252600a815260408220805461226f816129fa565b9061227d60405192836124dc565b8082528382018093865284862086915b8383106122df57505050506040519280840191818552518092526040840192945b8281106122bb5784840385f35b90919282610120826122d06001948a5161213f565b019601910194929190946122ae565b6009876001926122f3859b9a98999b612a56565b815201920192019190969493959661228d565b80600052600060205260406000203360005260205260ff6040600020541615610d305750565b9060009180835282602052604083209160018060a01b03169182845260205260ff604084205416156000146123a557808352826020526040832082845260205260408320600160ff198254161790557f2f8788117e7eff1d82e926ec794901d17c78024a50270940304540a733656f0d339380a4600190565b505090565b9060009180835282602052604083209160018060a01b03169182845260205260ff6040842054166000146123a55780835282602052604083208284526020526040832060ff1981541690557ff6391f5c32d9c69d2a47ea670b442974b53935d1edc7fd64eb21e047a839171b339380a4600190565b1561242657565b60405162461bcd60e51b81526020600482015260096024820152682737ba1030b236b4b760b91b6044820152606490fd5b60001981146124665760010190565b634e487b7160e01b600052601160045260246000fd5b61012081019081106001600160401b0382111761249857604052565b634e487b7160e01b600052604160045260246000fd5b6001600160401b03811161249857604052565b608081019081106001600160401b0382111761249857604052565b90601f801991011681019081106001600160401b0382111761249857604052565b6001600160401b03811161249857601f01601f191660200190565b90600182811c92168015612548575b602083101461253257565b634e487b7160e01b600052602260045260246000fd5b91607f1691612527565b6007548110156125895760076000527fa66cc928b5edb82af9bd49922954155ab7b0942694bea4ce44661d9a8736c6880190600090565b634e487b7160e01b600052603260045260246000fd5b805490600160401b82101561249857600182018082558210156125895760005260206000200155565b60ff600254166125d457565b60405163d93c066560e01b8152600490fd5b156125ed57565b60405162461bcd60e51b815260206004820152600f60248201526e496e76616c6964207061636b61676560881b6044820152606490fd5b51906001600160a01b038216820361212457565b51906001600160701b038216820361212457565b60ff16604d811161246657600a0a90565b8115612667570490565b634e487b7160e01b600052601260045260246000fd5b8181029291811591840414171561246657565b6040805163e6a4390560e01b81526001600160a01b037f000000000000000000000000000000000000000000000000000000000000000081166004808401919091527f00000000000000000000000000000000000000000000000000000000000000008216602484018190529094936020939092919084816044817f000000000000000000000000000000000000000000000000000000000000000087165afa90811561299e57908391600091612967575b501691821561295a578351630240bc6b60e21b8152936060858981875afa95861561294f5760009586976128f5575b506001600160701b0380961694851580156128eb575b6128db57908083928b945194858092630dfe168160e01b82525afa9182156128d1575060009161289d575b5090501614600014612896579116905b7f000000000000000000000000000000000000000000000000000000000000000060ff1660128110156128625760120360ff811161284d579061280761280d9261264c565b9061267d565b670de0b6b3a7640000908181029181830414901517156128385761283292935061265d565b90600190565b601184634e487b7160e01b6000525260246000fd5b601185634e487b7160e01b6000525260246000fd5b60128111612871575b5061280d565b6011190160ff811161284d579061288a6128909261264c565b9061265d565b3861286b565b91166127c2565b82813d83116128ca575b6128b181836124dc565b8101031261029c57506128c390612624565b80386127b2565b503d6128a7565b513d6000823e3d90fd5b5050505050505050905490600090565b5086881615612787565b959096506060863d8211612947575b81612911606093836124dc565b8101031261029c5761292286612638565b908261292f898901612638565b97015163ffffffff81160361029c5750949538612771565b3d9150612904565b50513d6000823e3d90fd5b5050505050905490600090565b91508582813d8311612997575b61297e81836124dc565b8101031261029c57506129918391612624565b38612742565b503d612974565b84513d6000823e3d90fd5b9060405191828154918282526020928383019160005283600020936000905b8282106129e0575050506129de925003836124dc565b565b8554845260019586019588955093810193909101906129c8565b6001600160401b0381116124985760051b60200190565b60405190612a1e8261247c565b816101006000918281528260208201528260408201528260608201528260808201528260a08201528260c08201528260e08201520152565b90604051612a638161247c565b8254815260018301546020820152600283015460408201526003830154606082015260048301546080820152600583015460a082015260068301546001600160a01b031660c0820152600783015460e0820152600890920154610100830152565b8054821015612589576000526009602060002091020190600090565b600260015414612af1576002600155565b604051633ee5aeb560e01b8152600490fd5b9190820180921161246657565b604051636eb1769f60e11b81523060048201526001600160a01b0383811660248301528281169291906020908183604481885afa928315612c5957600093612c2a575b5060001983018093116124665760405163095ea7b360e01b8382018181526001600160a01b03891660248401526044830195909552909590938390600090612ba889606481015b03601f1981018b528a6124dc565b88519082895af1903d6000519083612c0b575b50505015612bcc575b505050505050565b612c0095612bfb93604051938401521660248201526000604482015260448152612bf5816124c1565b82612d23565b612d23565b388080808080612bc4565b91925090612c2057503b15155b388080612bbb565b6001915014612c18565b90928282813d8311612c52575b612c4181836124dc565b8101031261029c5750519138612b53565b503d612c37565b6040513d6000823e3d90fd5b604051636eb1769f60e11b81523060048201526001600160a01b03838116602483015292938284169391602091908281604481895afa908115612c5957600091612cf4575b5090612cb591612b03565b60405163095ea7b360e01b8382018181526001600160a01b0389166024840152604483019390935290959093918390600090612ba88960648101612b9a565b908382813d8311612d1c575b612d0a81836124dc565b8101031261029c575051612cb5612caa565b503d612d00565b906000602091828151910182855af115612c59576000513d612d7657506001600160a01b0381163b155b612d545750565b604051635274afe760e01b81526001600160a01b039091166004820152602490fd5b60011415612d4d565b9190820391821161246657565b9092600083815260086020526040812092600360405194612dac8661247c565b805486526001810154602087015260ff60028201546001600160401b03811660408901526001600160401b038160401c16606089015261ffff8160801c16608089015261ffff8160901c1660a0890152818160a01c16151560c089015260a81c16151560e087015201604051908184825492612e2784612518565b8084529360018116908115613a3057506001146139ef575b50612e4c925003826124dc565b61010085015260c0840151156139b5576001600160a01b0383811690871614613978578351612ea69130907f00000000000000000000000000000000000000000000000000000000000000006001600160a01b0316613a8e565b612eb08351613ae6565b927f00000000000000000000000000000000000000000000000000000000000000001561394957612f017f00000000000000000000000000000000000000000000000000000000000000008561267d565b670de0b6b3a7640000810290808204670de0b6b3a76400001490151715613935576020820151612f309161265d565b9061ffff60808201511661ffff8161271003116131ba57612710612f5d61ffff612f65938303168861267d565b048096612d7f565b90612710612f7b61ffff6080840151168561267d565b0495612f878785612d7f565b9287613791575b8061374d575b50806134cf575b5082613444575b836001600160a01b038616151580613433575b6131ce575b81516001600160a01b038a1682526009602052604082208054612fde908390612b03565b815560018101612fef878254612b03565b9055600281016130008a8254612b03565b905560038101613011868254612b03565b905560048101613022878254612b03565b905560068101546001810181116131ba57600101600691909101556001600160a01b038a168252600a602052604080832090519161305f8361247c565b8a835260208301528560408301528860608301528460808301528560a083015260018060a01b03881660c08301528260e083015242610100830152805490600160401b8210156131a657906130b991600182018155612ac4565b92909261319257509160c09593916008610100857f5a77e79107887ebcf23f054ef45c1e6ef75a6215cf598323e188d01a6e5da7b39a98965184556020810151600185015560408101516002850155606081015160038501556080810151600485015560a081015160058501556006840160018060a01b038b830151166bffffffffffffffffffffffff60a01b82541617905560e081015160078501550151910155519660405197885282602089015260408801526060870152608086015260a085015260018060a01b03169460018060a01b031692a4565b634e487b7160e01b81526004819052602490fd5b634e487b7160e01b84526041600452602484fd5b634e487b7160e01b84526011600452602484fd5b93506127106131e561ffff60a0840151168561267d565b049360018060a01b0360025460081c166040516370a0823160e01b815281600482015260208160248160018060a01b037f0000000000000000000000000000000000000000000000000000000000000000165afa9081156134285783916133f6575b50604051636eb1769f60e11b81526001600160a01b038316600482015230602482015290602082806044810103817f00000000000000000000000000000000000000000000000000000000000000006001600160a01b03165afa9182156133eb57918991899386926133b1575b50838091101591826133a6575b505015613363576132fb927f00000000000000000000000000000000000000000000000000000000000000006001600160a01b0316613a8e565b6001600160a01b03861681526009602052604081206005018054613320908790612b03565b90556040518581526001600160a01b038a811691908816907f0a721ab4682ceb61c7e4d264ef879fc419a6d764b136e7d96ef54b2053c7567390602090a3612fba565b50506040518281526001600160a01b038b811692508816907f0a721ab4682ceb61c7e4d264ef879fc419a6d764b136e7d96ef54b2053c7567390602090a3612fba565b1015905082386132c1565b92509250506020813d6020116133e3575b816133cf602093836124dc565b8101031261212457518791899190836132b4565b3d91506133c2565b6040513d86823e3d90fd5b90506020813d602011613420575b81613411602093836124dc565b81010312612124575138613247565b3d9150613404565b6040513d85823e3d90fd5b5061ffff60a0830151161515612fb5565b7f00000000000000000000000000000000000000000000000000000000000000006001600160a01b0316803b15610d4e576040516340c10f1960e01b81526001600160a01b038a166004820152602481018590529085908290604490829084905af1801561139e579085916134bb575b5050612fa2565b6134c4906124ae565b6113935783386134b4565b6134d7612690565b1561374557805b801561370f577f0000000000000000000000000000000000000000000000000000000000000000156136e0576135347f00000000000000000000000000000000000000000000000000000000000000008461267d565b670de0b6b3a7640000810290808204670de0b6b3a764000014901517156136cc579061355f9161265d565b917f00000000000000000000000000000000000000000000000000000000000000006001600160a01b03163b156136bd576040516340c10f1960e01b8152306004820152602481018490528781604481836001600160a01b037f0000000000000000000000000000000000000000000000000000000000000000165af180156136c1578c8986938e936136a1575b5050917fd7de183105059c806cc0d3d76a2cf588f90d707037ed57e4ec94cbd9da28c6b39361361e92606094613cfb565b92600454808211600014613691576136368183612d7f565b905b60405192835260208301526040820152a1612f9b5760025461368b919060081c6001600160a01b03908116907f000000000000000000000000000000000000000000000000000000000000000016613a52565b38612f9b565b61369b8282612d7f565b90613638565b915092506136af91506124ae565b6136bd57828a8c89386135ed565b8680fd5b6040513d8a823e3d90fd5b634e487b7160e01b88526011600452602488fd5b61370a7f00000000000000000000000000000000000000000000000000000000000000008461265d565b613534565b60405162461bcd60e51b815260206004820152600e60248201526d4e6f2076616c696420707269636560901b6044820152606490fd5b6004546134de565b60025461378b919060081c6001600160a01b03908116907f000000000000000000000000000000000000000000000000000000000000000016613a52565b38612f94565b7f00000000000000000000000000000000000000000000000000000000000000006001600160a01b03163b156107f4576040516340c10f1960e01b81527f00000000000000000000000000000000000000000000000000000000000000006001600160a01b0316600482015260248101899052868180604481010381837f00000000000000000000000000000000000000000000000000000000000000006001600160a01b03165af1801561391357613922575b50604083015160608401516001600160401b0391821691167f00000000000000000000000000000000000000000000000000000000000000006001600160a01b03163b1561391e576040519163bf49ec4f60e01b835260018060a01b038d1660048401528a60248401526044830152606482015286816084818360018060a01b037f0000000000000000000000000000000000000000000000000000000000000000165af18015613913579087916138ff575b5050612f8e565b613908906124ae565b6107f45785386138f8565b6040513d89823e3d90fd5b8780fd5b61392e909691966124ae565b9438613845565b634e487b7160e01b83526011600452602483fd5b6139737f00000000000000000000000000000000000000000000000000000000000000008561265d565b612f01565b60405162461bcd60e51b815260206004820152601560248201527421b0b73737ba103932b332b9103cb7bab939b2b63360591b6044820152606490fd5b60405162461bcd60e51b81526020600482015260126024820152715061636b616765206e6f742061637469766560701b6044820152606490fd5b86525060208520909185915b818310613a14575050906020612e4c9282010138612e3f565b60209193508060019154838588010152019101909183926139fb565b905060209250612e4c94915060ff191682840152151560051b82010138612e3f565b60405163a9059cbb60e01b60208201526001600160a01b039290921660248301526044808301939093529181526129de91612bfb6064836124dc565b6040516323b872dd60e01b60208201526001600160a01b03928316602482015292909116604483015260648083019390935291815260a08101918183106001600160401b03841117612498576129de92604052612d23565b604080516367403b6160e01b81527f995c68a7874ab62e799137bc19b39d4cdd1c165240e636649fba7edfda9d16c8600482018190526001600160a01b0383836024817f000000000000000000000000000000000000000000000000000000000000000085165afa92831561299e576000908194613c41575b5061ffff1661271090818111613c105780151580613c05575b613b86575b50505050505090565b613b90908761267d565b049384613b9d5780613b7d565b6020827f9ad5f576ad2dc5abd88aee00524464d5aafcd7f0a8d0141fd6a2b7cf76130e0892613bf58888613c029b9998977f000000000000000000000000000000000000000000000000000000000000000016613a52565b51948786521693a3612d7f565b90565b508285161515613b78565b855162461bcd60e51b815260206004820152600a602482015269546178203e203130302560b01b6044820152606490fd5b9093508481813d8311613c86575b613c5981836124dc565b810103126113935780519361ffff8516850361029c5750613c7f602061ffff9201612624565b9390613b5f565b503d613c4f565b600060443d10613c0257604051600319913d83016004833e81516001600160401b03918282113d602484011117613cea57818401948551938411613cf2573d85010160208487010111613cea5750613c02929101602001906124dc565b949350505050565b50949350505050565b91909392600554612710908103918183116124665781613d487fc8af3886655c52b7ebbbcfc08757e97b8bbd122d4ef3e5e6fd92524497c4360f93613d40868861267d565b04948361267d565b04928760405160018060a01b038816948180613d7f868a8c8a8c989094939260609260808301968352602083015260408201520152565b0390a3604051636eb1769f60e11b8082523060048301527f00000000000000000000000000000000000000000000000000000000000000006001600160a01b0316602483015290602081806044810103817f00000000000000000000000000000000000000000000000000000000000000006001600160a01b03165afa908115612c5957600091614295575b5086811061422f575b506040519081523060048201527f00000000000000000000000000000000000000000000000000000000000000006001600160a01b03166024820152602081806044810103817f00000000000000000000000000000000000000000000000000000000000000006001600160a01b03165afa908115612c59576000916141fd575b50828110614197575b50613eab60035442612b03565b60405162e8e33760e81b81526001600160a01b037f0000000000000000000000000000000000000000000000000000000000000000811660048301527f0000000000000000000000000000000000000000000000000000000000000000811660248301526044820185905260648201889052608482019690965260a48101929092523060c483015260e4820152606093849082906101049082906000907f0000000000000000000000000000000000000000000000000000000000000000165af1926000918483918496614156575b50614068575050505050600060033d1161405a575b6308c379a01461403a575b3d1561403457503d93613fac856124fd565b94613fba60405196876124dc565b85523d6000602087013e5b84516000959015613fe157613fdc949550926142c7565b600090565b50604051604081018181106001600160401b03821117611a2b57613fdc959650604052601781527f556e6b6e6f776e206c6f772d6c6576656c206572726f720000000000000000006020820152926142c7565b93613fc5565b614042613c8d565b8061404d5750613f9a565b92613fdc949591506142c7565b600481803e5160e01c613f8f565b929650929697939094871561411b577fc7453e3ef562c31977302710e5ff58ae67ad8fa521dcdd8c76f877c4c0d91368928660a093604051938a855260208501528a60408501528301526080820152a360009181811115614114576140cd9250612d7f565b806140d6575090565b600254613c02919060081c6001600160a01b03908116907f000000000000000000000000000000000000000000000000000000000000000016613a52565b50506140cd565b60405162461bcd60e51b81526020600482015260136024820152724e6f206c697175696469747920746f6b656e7360681b6044820152606490fd5b8780929750819593503d8311614190575b61417181836124dc565b8101031261029c57508151604060208401519301519092909438613f7a565b503d614167565b6141a46141f79184612d7f565b6001600160a01b037f00000000000000000000000000000000000000000000000000000000000000008116907f000000000000000000000000000000000000000000000000000000000000000016612c65565b38613e9e565b906020823d602011614227575b81614217602093836124dc565b8101031261029c57505138613e95565b3d915061420a565b61423c61428f9188612d7f565b6001600160a01b037f00000000000000000000000000000000000000000000000000000000000000008116907f000000000000000000000000000000000000000000000000000000000000000016612c65565b38613e14565b906020823d6020116142bf575b816142af602093836124dc565b8101031261029c57505138613e0b565b3d91506142a2565b7f637414b7b370a8973bc89032447f4c07ad3048b83ce07b32e928d92ff3edaf5e91939261434460018060a01b03614329838260025460081c16837f000000000000000000000000000000000000000000000000000000000000000016613a52565b604051938493845260406020850152169460408301906121f3565b0390a356fea26469706673582212203db9adf789db1353747eed0153aee2c1b89b27541bc9bbd03113e14a1df8258764736f6c634300081400332f8788117e7eff1d82e926ec794901d17c78024a50270940304540a733656f0d",
  "linkReferences": {},
  "deployedLinkReferences": {}
}