{
  "_format": "hh-sol-artifact-1",
  "contractName": "VestingVault",
  "sourceName": "contracts/BlockCoopV2.sol",
  "abi": [
    {
      "inputs": [
        {
          "internalType": "address",
          "name": "shareToken_",
          "type": "address"
        },
        {
          "internalType": "address",
          "name": "admin",
          "type": "address"
        }
      ],
      "stateMutability": "nonpayable",
      "type": "constructor"
    },
    {
      "inputs": [],
      "name": "AccessControlBadConfirmation",
      "type": "error"
    },
    {
      "inputs": [
        {
          "internalType": "address",
          "name": "account",
          "type": "address"
        },
        {
          "internalType": "bytes32",
          "name": "neededRole",
          "type": "bytes32"
        }
      ],
      "name": "AccessControlUnauthorizedAccount",
      "type": "error"
    },
    {
      "inputs": [],
      "name": "ReentrancyGuardReentrantCall",
      "type": "error"
    },
    {
      "inputs": [
        {
          "internalType": "address",
          "name": "token",
          "type": "address"
        }
      ],
      "name": "SafeERC20FailedOperation",
      "type": "error"
    },
    {
      "anonymous": false,
      "inputs": [
        {
          "indexed": true,
          "internalType": "address",
          "name": "user",
          "type": "address"
        },
        {
          "indexed": false,
          "internalType": "uint256",
          "name": "amount",
          "type": "uint256"
        }
      ],
      "name": "Claimed",
      "type": "event"
    },
    {
      "anonymous": false,
      "inputs": [
        {
          "indexed": true,
          "internalType": "address",
          "name": "user",
          "type": "address"
        },
        {
          "indexed": false,
          "internalType": "uint256",
          "name": "amount",
          "type": "uint256"
        },
        {
          "indexed": false,
          "internalType": "uint64",
          "name": "cliff",
          "type": "uint64"
        },
        {
          "indexed": false,
          "internalType": "uint64",
          "name": "duration",
          "type": "uint64"
        }
      ],
      "name": "Locked",
      "type": "event"
    },
    {
      "anonymous": false,
      "inputs": [
        {
          "indexed": true,
          "internalType": "bytes32",
          "name": "role",
          "type": "bytes32"
        },
        {
          "indexed": true,
          "internalType": "bytes32",
          "name": "previousAdminRole",
          "type": "bytes32"
        },
        {
          "indexed": true,
          "internalType": "bytes32",
          "name": "newAdminRole",
          "type": "bytes32"
        }
      ],
      "name": "RoleAdminChanged",
      "type": "event"
    },
    {
      "anonymous": false,
      "inputs": [
        {
          "indexed": true,
          "internalType": "bytes32",
          "name": "role",
          "type": "bytes32"
        },
        {
          "indexed": true,
          "internalType": "address",
          "name": "account",
          "type": "address"
        },
        {
          "indexed": true,
          "internalType": "address",
          "name": "sender",
          "type": "address"
        }
      ],
      "name": "RoleGranted",
      "type": "event"
    },
    {
      "anonymous": false,
      "inputs": [
        {
          "indexed": true,
          "internalType": "bytes32",
          "name": "role",
          "type": "bytes32"
        },
        {
          "indexed": true,
          "internalType": "address",
          "name": "account",
          "type": "address"
        },
        {
          "indexed": true,
          "internalType": "address",
          "name": "sender",
          "type": "address"
        }
      ],
      "name": "RoleRevoked",
      "type": "event"
    },
    {
      "inputs": [],
      "name": "DEFAULT_ADMIN_ROLE",
      "outputs": [
        {
          "internalType": "bytes32",
          "name": "",
          "type": "bytes32"
        }
      ],
      "stateMutability": "view",
      "type": "function"
    },
    {
      "inputs": [],
      "name": "LOCKER_ROLE",
      "outputs": [
        {
          "internalType": "bytes32",
          "name": "",
          "type": "bytes32"
        }
      ],
      "stateMutability": "view",
      "type": "function"
    },
    {
      "inputs": [],
      "name": "claim",
      "outputs": [],
      "stateMutability": "nonpayable",
      "type": "function"
    },
    {
      "inputs": [
        {
          "internalType": "address",
          "name": "user",
          "type": "address"
        }
      ],
      "name": "claimFor",
      "outputs": [],
      "stateMutability": "nonpayable",
      "type": "function"
    },
    {
      "inputs": [
        {
          "internalType": "bytes32",
          "name": "role",
          "type": "bytes32"
        }
      ],
      "name": "getRoleAdmin",
      "outputs": [
        {
          "internalType": "bytes32",
          "name": "",
          "type": "bytes32"
        }
      ],
      "stateMutability": "view",
      "type": "function"
    },
    {
      "inputs": [
        {
          "internalType": "bytes32",
          "name": "role",
          "type": "bytes32"
        },
        {
          "internalType": "address",
          "name": "account",
          "type": "address"
        }
      ],
      "name": "grantRole",
      "outputs": [],
      "stateMutability": "nonpayable",
      "type": "function"
    },
    {
      "inputs": [
        {
          "internalType": "bytes32",
          "name": "role",
          "type": "bytes32"
        },
        {
          "internalType": "address",
          "name": "account",
          "type": "address"
        }
      ],
      "name": "hasRole",
      "outputs": [
        {
          "internalType": "bool",
          "name": "",
          "type": "bool"
        }
      ],
      "stateMutability": "view",
      "type": "function"
    },
    {
      "inputs": [
        {
          "internalType": "address",
          "name": "user",
          "type": "address"
        },
        {
          "internalType": "uint256",
          "name": "amount",
          "type": "uint256"
        },
        {
          "internalType": "uint64",
          "name": "cliff",
          "type": "uint64"
        },
        {
          "internalType": "uint64",
          "name": "duration",
          "type": "uint64"
        }
      ],
      "name": "lock",
      "outputs": [],
      "stateMutability": "nonpayable",
      "type": "function"
    },
    {
      "inputs": [
        {
          "internalType": "address",
          "name": "",
          "type": "address"
        }
      ],
      "name": "released",
      "outputs": [
        {
          "internalType": "uint256",
          "name": "",
          "type": "uint256"
        }
      ],
      "stateMutability": "view",
      "type": "function"
    },
    {
      "inputs": [
        {
          "internalType": "bytes32",
          "name": "role",
          "type": "bytes32"
        },
        {
          "internalType": "address",
          "name": "callerConfirmation",
          "type": "address"
        }
      ],
      "name": "renounceRole",
      "outputs": [],
      "stateMutability": "nonpayable",
      "type": "function"
    },
    {
      "inputs": [
        {
          "internalType": "bytes32",
          "name": "role",
          "type": "bytes32"
        },
        {
          "internalType": "address",
          "name": "account",
          "type": "address"
        }
      ],
      "name": "revokeRole",
      "outputs": [],
      "stateMutability": "nonpayable",
      "type": "function"
    },
    {
      "inputs": [],
      "name": "shareToken",
      "outputs": [
        {
          "internalType": "contract BLOCKS",
          "name": "",
          "type": "address"
        }
      ],
      "stateMutability": "view",
      "type": "function"
    },
    {
      "inputs": [
        {
          "internalType": "bytes4",
          "name": "interfaceId",
          "type": "bytes4"
        }
      ],
      "name": "supportsInterface",
      "outputs": [
        {
          "internalType": "bool",
          "name": "",
          "type": "bool"
        }
      ],
      "stateMutability": "view",
      "type": "function"
    },
    {
      "inputs": [
        {
          "internalType": "address",
          "name": "",
          "type": "address"
        }
      ],
      "name": "totalLocked",
      "outputs": [
        {
          "internalType": "uint256",
          "name": "",
          "type": "uint256"
        }
      ],
      "stateMutability": "view",
      "type": "function"
    },
    {
      "inputs": [
        {
          "internalType": "address",
          "name": "",
          "type": "address"
        }
      ],
      "name": "userSchedule",
      "outputs": [
        {
          "internalType": "uint64",
          "name": "cliff",
          "type": "uint64"
        },
        {
          "internalType": "uint64",
          "name": "duration",
          "type": "uint64"
        },
        {
          "internalType": "uint256",
          "name": "start",
          "type": "uint256"
        }
      ],
      "stateMutability": "view",
      "type": "function"
    },
    {
      "inputs": [
        {
          "internalType": "address",
          "name": "user",
          "type": "address"
        }
      ],
      "name": "vestedAmount",
      "outputs": [
        {
          "internalType": "uint256",
          "name": "",
          "type": "uint256"
        }
      ],
      "stateMutability": "view",
      "type": "function"
    }
  ],
  "bytecode": "0x60a03461009457601f610c3238819003918201601f19168301916001600160401b038311848410176100995780849260409485528339810103126100945780610056602061004f61006d946100af565b92016100af565b600180556001600160a01b039091166080526100c3565b50604051610ade908161015482396080518181816101b7015281816104a101526105330152f35b600080fd5b634e487b7160e01b600052604160045260246000fd5b51906001600160a01b038216820361009457565b6001600160a01b031660008181527fad3228b676f7d3cd4284a5443f17f1962b36e491b30a40b2405849e597ba5fb5602052604081205490919060ff1661014f57818052816020526040822081835260205260408220600160ff1982541617905533917f2f8788117e7eff1d82e926ec794901d17c78024a50270940304540a733656f0d8180a4600190565b509056fe608060408181526004918236101561001657600080fd5b600092833560e01c91826301ffc9a7146106af57508163248a9ca3146106855781632f2ff15d1461065b57816336568abe14610615578163384711cc146105e8578163424bb331146105915781634e71d92d146104d05781636c9fa59e1461048c57816391d14854146104465781639852595c1461040e578163a217fddf146103f3578163bf49ec4f14610295578163d547741f14610256578163d8fb93371461021e578163ddeae03314610112575063f3621367146100d557600080fd5b3461010e578160031936011261010e57602090517faf9a8bb3cbd6b84fbccefa71ff73e26e798553c6914585a84886212a46a902798152f35b5080fd5b9190503461021a57602036600319011261021a5761012e61071d565b906101376109ad565b6001600160a01b038281169384156101e85750916020916101dc7fd8138f8a3f377c5259ca548e70e4c2de94f129f5a11036a15b69513cba2b426a9461019061017f856109d0565b888a5260038752848a2054906108bf565b93849161019e8315156108cc565b888a5260038752848a206101b384825461089c565b90557f00000000000000000000000000000000000000000000000000000000000000001661090b565b51908152a26001805580f35b606490602084519162461bcd60e51b8352820152600c60248201526b24b73b30b634b2103ab9b2b960a11b6044820152fd5b8280fd5b50503461010e57602036600319011261010e5760209181906001600160a01b0361024661071d565b1681526002845220549051908152f35b9190503461021a578060031936011261021a57610291913561028c600161027b610702565b938387528660205286200154610733565b6107f5565b5080f35b9190503461021a57608036600319011261021a576102b161071d565b6024359160443567ffffffffffffffff928382168092036103ef57606435938085168095036103eb577faf9a8bb3cbd6b84fbccefa71ff73e26e798553c6914585a84886212a46a9027991828952602092898452858a20338b52845260ff868b205416156103cd5750916060959391600186948b7f2b150aca9bf716e6de7b8315dadc8a8301141e9857c9ebe5350151ca3dd24c389a9851936103538561086a565b86855287868601928a845281870194428652868060a01b03169e8f82528852209451166fffffffffffffffff000000000000000085549251891b16916fffffffffffffffffffffffffffffffff19161717835551910155600281528289206103bc86825461089c565b90558251948552840152820152a280f35b855163e2517d3f60e01b815233818b01526024810191909152604490fd5b8780fd5b8680fd5b50503461010e578160031936011261010e5751908152602090f35b50503461010e57602036600319011261010e5760209181906001600160a01b0361043661071d565b1681526003845220549051908152f35b90503461021a578160031936011261021a578160209360ff92610467610702565b903582528186528282206001600160a01b039091168252855220549151911615158152f35b50503461010e578160031936011261010e57517f00000000000000000000000000000000000000000000000000000000000000006001600160a01b03168152602090f35b50503461010e578160031936011261010e576104ea6109ad565b6105086104f6336109d0565b338452600360205282842054906108bf565b906105148215156108cc565b338352600360205280832061052a83825461089c565b905561056082337f00000000000000000000000000000000000000000000000000000000000000006001600160a01b031661090b565b519081527fd8138f8a3f377c5259ca548e70e4c2de94f129f5a11036a15b69513cba2b426a60203392a26001805580f35b90503461021a57602036600319011261021a5760609282916001600160a01b036105b961071d565b1682526020522090600182549201549080519267ffffffffffffffff908181168552821c166020840152820152f35b50503461010e57602036600319011261010e5760209061060e61060961071d565b6109d0565b9051908152f35b83833461010e578060031936011261010e5761062f610702565b90336001600160a01b0383160361064c57506102919192356107f5565b5163334bd91960e11b81528390fd5b9190503461021a578060031936011261021a576102919135610680600161027b610702565b610777565b90503461021a57602036600319011261021a57816020936001923581528085522001549051908152f35b84913461021a57602036600319011261021a573563ffffffff60e01b811680910361021a5760209250637965db0b60e01b81149081156106f1575b5015158152f35b6301ffc9a760e01b149050836106ea565b602435906001600160a01b038216820361071857565b600080fd5b600435906001600160a01b038216820361071857565b80600052600060205260406000203360005260205260ff60406000205416156107595750565b6044906040519063e2517d3f60e01b82523360048301526024820152fd5b9060009180835282602052604083209160018060a01b03169182845260205260ff604084205416156000146107f057808352826020526040832082845260205260408320600160ff198254161790557f2f8788117e7eff1d82e926ec794901d17c78024a50270940304540a733656f0d339380a4600190565b505090565b9060009180835282602052604083209160018060a01b03169182845260205260ff6040842054166000146107f05780835282602052604083208284526020526040832060ff1981541690557ff6391f5c32d9c69d2a47ea670b442974b53935d1edc7fd64eb21e047a839171b339380a4600190565b6060810190811067ffffffffffffffff82111761088657604052565b634e487b7160e01b600052604160045260246000fd5b919082018092116108a957565b634e487b7160e01b600052601160045260246000fd5b919082039182116108a957565b156108d357565b60405162461bcd60e51b815260206004820152601060248201526f4e6f7468696e6720746f20636c61696d60801b6044820152606490fd5b60405163a9059cbb60e01b602082019081526001600160a01b0393841660248301526044808301959095529381529092608082019067ffffffffffffffff82118383101761088657602092600092604052519082865af1156109a1576000513d61099857508082163b155b61097e575050565b604051635274afe760e01b81529116600482015260249150fd5b60011415610976565b6040513d6000823e3d90fd5b6002600154146109be576002600155565b604051633ee5aeb560e01b8152600490fd5b6001600160a01b03166000818152600460205260408082209051919291906109f78261086a565b610a29815491604067ffffffffffffffff94600186861693848352876020840197851c1687520154918291015261089c565b92834210610aa15784526002602052610a47604085205493426108bf565b9282825116841015610a9957838102938185041490151715610a85575116918215610a7157500490565b634e487b7160e01b81526012600452602490fd5b634e487b7160e01b84526011600452602484fd5b935050505090565b505050509056fea264697066735822122055aa549000af85df3825902a69a6c46b9d958eade7098aa84bbb62bfdf61cf8264736f6c63430008140033",
  "linkReferences": {},
  "deployedLinkReferences": {}
}