{
  "_format": "hh-sol-artifact-1",
  "contractName": "MinimalForwarder",
  "sourceName": "contracts/MinimalForwarder.sol",
  "abi": [
    {
      "inputs": [],
      "stateMutability": "nonpayable",
      "type": "constructor"
    },
    {
      "inputs": [],
      "name": "ECDSAInvalidSignature",
      "type": "error"
    },
    {
      "inputs": [
        {
          "internalType": "uint256",
          "name": "length",
          "type": "uint256"
        }
      ],
      "name": "ECDSAInvalidSignatureLength",
      "type": "error"
    },
    {
      "inputs": [
        {
          "internalType": "bytes32",
          "name": "s",
          "type": "bytes32"
        }
      ],
      "name": "ECDSAInvalidSignatureS",
      "type": "error"
    },
    {
      "inputs": [],
      "name": "InvalidShortString",
      "type": "error"
    },
    {
      "inputs": [
        {
          "internalType": "string",
          "name": "str",
          "type": "string"
        }
      ],
      "name": "StringTooLong",
      "type": "error"
    },
    {
      "anonymous": false,
      "inputs": [],
      "name": "EIP712DomainChanged",
      "type": "event"
    },
    {
      "anonymous": false,
      "inputs": [
        {
          "indexed": true,
          "internalType": "address",
          "name": "from",
          "type": "address"
        },
        {
          "indexed": true,
          "internalType": "address",
          "name": "to",
          "type": "address"
        },
        {
          "indexed": false,
          "internalType": "bytes",
          "name": "data",
          "type": "bytes"
        },
        {
          "indexed": false,
          "internalType": "uint256",
          "name": "gas",
          "type": "uint256"
        },
        {
          "indexed": false,
          "internalType": "uint256",
          "name": "nonce",
          "type": "uint256"
        }
      ],
      "name": "ForwardRequestExecuted",
      "type": "event"
    },
    {
      "inputs": [],
      "name": "eip712Domain",
      "outputs": [
        {
          "internalType": "bytes1",
          "name": "fields",
          "type": "bytes1"
        },
        {
          "internalType": "string",
          "name": "name",
          "type": "string"
        },
        {
          "internalType": "string",
          "name": "version",
          "type": "string"
        },
        {
          "internalType": "uint256",
          "name": "chainId",
          "type": "uint256"
        },
        {
          "internalType": "address",
          "name": "verifyingContract",
          "type": "address"
        },
        {
          "internalType": "bytes32",
          "name": "salt",
          "type": "bytes32"
        },
        {
          "internalType": "uint256[]",
          "name": "extensions",
          "type": "uint256[]"
        }
      ],
      "stateMutability": "view",
      "type": "function"
    },
    {
      "inputs": [
        {
          "components": [
            {
              "internalType": "address",
              "name": "from",
              "type": "address"
            },
            {
              "internalType": "address",
              "name": "to",
              "type": "address"
            },
            {
              "internalType": "uint256",
              "name": "value",
              "type": "uint256"
            },
            {
              "internalType": "uint256",
              "name": "gas",
              "type": "uint256"
            },
            {
              "internalType": "uint256",
              "name": "nonce",
              "type": "uint256"
            },
            {
              "internalType": "bytes",
              "name": "data",
              "type": "bytes"
            },
            {
              "internalType": "uint256",
              "name": "validUntil",
              "type": "uint256"
            }
          ],
          "internalType": "struct MinimalForwarder.ForwardRequest",
          "name": "req",
          "type": "tuple"
        },
        {
          "internalType": "bytes",
          "name": "signature",
          "type": "bytes"
        }
      ],
      "name": "execute",
      "outputs": [
        {
          "internalType": "bool",
          "name": "",
          "type": "bool"
        },
        {
          "internalType": "bytes",
          "name": "",
          "type": "bytes"
        }
      ],
      "stateMutability": "payable",
      "type": "function"
    },
    {
      "inputs": [
        {
          "components": [
            {
              "internalType": "address",
              "name": "from",
              "type": "address"
            },
            {
              "internalType": "address",
              "name": "to",
              "type": "address"
            },
            {
              "internalType": "uint256",
              "name": "value",
              "type": "uint256"
            },
            {
              "internalType": "uint256",
              "name": "gas",
              "type": "uint256"
            },
            {
              "internalType": "uint256",
              "name": "nonce",
              "type": "uint256"
            },
            {
              "internalType": "bytes",
              "name": "data",
              "type": "bytes"
            },
            {
              "internalType": "uint256",
              "name": "validUntil",
              "type": "uint256"
            }
          ],
          "internalType": "struct MinimalForwarder.ForwardRequest[]",
          "name": "reqs",
          "type": "tuple[]"
        },
        {
          "internalType": "bytes[]",
          "name": "signatures",
          "type": "bytes[]"
        }
      ],
      "name": "executeBatch",
      "outputs": [
        {
          "internalType": "bool[]",
          "name": "",
          "type": "bool[]"
        },
        {
          "internalType": "bytes[]",
          "name": "",
          "type": "bytes[]"
        }
      ],
      "stateMutability": "payable",
      "type": "function"
    },
    {
      "inputs": [
        {
          "internalType": "address",
          "name": "from",
          "type": "address"
        }
      ],
      "name": "getNonce",
      "outputs": [
        {
          "internalType": "uint256",
          "name": "",
          "type": "uint256"
        }
      ],
      "stateMutability": "view",
      "type": "function"
    },
    {
      "inputs": [
        {
          "components": [
            {
              "internalType": "address",
              "name": "from",
              "type": "address"
            },
            {
              "internalType": "address",
              "name": "to",
              "type": "address"
            },
            {
              "internalType": "uint256",
              "name": "value",
              "type": "uint256"
            },
            {
              "internalType": "uint256",
              "name": "gas",
              "type": "uint256"
            },
            {
              "internalType": "uint256",
              "name": "nonce",
              "type": "uint256"
            },
            {
              "internalType": "bytes",
              "name": "data",
              "type": "bytes"
            },
            {
              "internalType": "uint256",
              "name": "validUntil",
              "type": "uint256"
            }
          ],
          "internalType": "struct MinimalForwarder.ForwardRequest",
          "name": "req",
          "type": "tuple"
        },
        {
          "internalType": "bytes",
          "name": "signature",
          "type": "bytes"
        }
      ],
      "name": "verify",
      "outputs": [
        {
          "internalType": "bool",
          "name": "",
          "type": "bool"
        }
      ],
      "stateMutability": "view",
      "type": "function"
    }
  ],
  "bytecode": "0x6101608060405234620001595762000017816200015e565b60108152602081016f26b4b734b6b0b62337b93bb0b93232b960811b81526040519162000044836200015e565b600583526020830164302e302e3160d81b815262000062826200017a565b9261012093845262000074856200034d565b92610140938452519020938460e05251902091610100938385524660a0526040519360208501917f8b73c3c69bb8fe3d512ecc4cf759cc79239f7b179b0ffacaa9a75d522b39400f8352604086015260608501524660808501523060a085015260a0845260c084019380851060018060401b038611176200014357846040525190206080523060c052610f339384620004fb853960805184610b22015260a05184610bee015260c05184610aec015260e05184610b7101525183610b97015251826102c9015251816102f30152f35b634e487b7160e01b600052604160045260246000fd5b600080fd5b604081019081106001600160401b038211176200014357604052565b8051602091908281101562000219575090601f825111620001b85780825192015190808310620001a957501790565b82600019910360031b1b161790565b90604051809263305a27a960e01b82528060048301528251908160248401526000935b828510620001ff575050604492506000838284010152601f80199101168101030190fd5b8481018201518686016044015293810193859350620001db565b6001600160401b03811162000143576000928354926001938481811c9116801562000342575b838210146200032e57601f8111620002f8575b5081601f8411600114620002915750928293918392869462000285575b50501b916000199060031b1c191617905560ff90565b0151925038806200026f565b919083601f1981168780528488209488905b88838310620002dd5750505010620002c3575b505050811b01905560ff90565b015160001960f88460031b161c19169055388080620002b6565b858701518855909601959485019487935090810190620002a3565b85805284601f848820920160051c820191601f860160051c015b8281106200032257505062000252565b87815501859062000312565b634e487b7160e01b86526022600452602486fd5b90607f16906200023f565b805160209081811015620003db5750601f8251116200037a5780825192015190808310620001a957501790565b90604051809263305a27a960e01b82528060048301528251908160248401526000935b828510620003c1575050604492506000838284010152601f80199101168101030190fd5b84810182015186860160440152938101938593506200039d565b9192916001600160401b038111620001435760019182548381811c91168015620004ef575b82821014620004d957601f8111620004a0575b5080601f83116001146200045357508192939460009262000447575b5050600019600383901b1c191690821b17905560ff90565b0151905038806200042f565b90601f198316958460005282600020926000905b888210620004885750508385969710620002c357505050811b01905560ff90565b80878596829496860151815501950193019062000467565b8360005283601f83600020920160051c820191601f850160051c015b828110620004cc57505062000413565b60008155018490620004bc565b634e487b7160e01b600052602260045260246000fd5b90607f16906200040056fe6040608081526004908136101561001557600080fd5b6000803560e01c8063019fe885146104415780632d0335ab1461040757806344d46c8e146103d357806384b0196e146102b15763fa5cc7291461005757600080fd5b816003193601126102ae5767ffffffffffffffff9083358281116102aa576100829036908601610512565b909160249384359081116102aa5761009d9036908801610512565b959092868103610242576100b48195949395610597565b966100c183519889610575565b8188526100cd82610597565b94602094858a019a601f19809801368d376100e785610597565b996100f487519b8c610575565b858b528861010187610597565b018a5b8c82821061023357505050895b8681106101ae575050505050505080519581870191875251809152606086019690845b81811061019857505050848603818601528351918287528187019082808560051b8a0101960194975b84891061016a5787870388f35b9091929394958480610186838686600196030188528a516104d2565b9801940198019791909493929461015d565b8251151589529783019791830191600101610134565b8060059b999a9b1b808601359060de198736030182121561022f578783101561021d5761020a8f938f9294816102046101fc82978d6101f38e6102149c8101906107d8565b92909101610c39565b929096610ed3565b52610ed3565b9015159052610c14565b99989799610111565b634e487b7160e01b8b5260328552838bfd5b8a80fd5b60609082018b01528901610104565b815162461bcd60e51b81526020818a01526039818801527f4d696e696d616c466f727761726465723a20726571756573747320616e64207360448201527f69676e617475726573206c656e677468206d69736d61746368000000000000006064820152608490fd5b5080fd5b80fd5b509190346103cf57826003193601126103cf576102ed7f00000000000000000000000000000000000000000000000000000000000000006105af565b926103177f00000000000000000000000000000000000000000000000000000000000000006106d5565b908251926020928385019585871067ffffffffffffffff8811176103bc57509280610372838896610365998b9996528686528151998a99600f60f81b8b5260e0868c015260e08b01906104d2565b91898303908a01526104d2565b924660608801523060808801528460a088015286840360c088015251928381520193925b8281106103a557505050500390f35b835185528695509381019392810192600101610396565b634e487b7160e01b845260419052602483fd5b8280fd5b826104036103e96103e336610466565b91610c39565b8392919251938493151584528060208501528301906104d2565b0390f35b5091346103cf5760203660031901126103cf57356001600160a01b038116908190036103cf57828291602094526002845220549051908152f35b5090346102aa5760209061045d61045736610466565b9161082c565b90519015158152f35b90600319906040828401126104cd5760043567ffffffffffffffff928382116104cd5760e09082860301126104cd5760040192602435908382116104cd57806023830112156104cd5781600401359384116104cd57602484830101116104cd576024019190565b600080fd5b919082519283825260005b8481106104fe575050826000602080949584010152601f8019910116010190565b6020818301810151848301820152016104dd565b9181601f840112156104cd5782359167ffffffffffffffff83116104cd576020808501948460051b0101116104cd57565b6040810190811067ffffffffffffffff82111761055f57604052565b634e487b7160e01b600052604160045260246000fd5b90601f8019910116810190811067ffffffffffffffff82111761055f57604052565b67ffffffffffffffff811161055f5760051b60200190565b60ff81146105ed5760ff811690601f82116105db57604051916105d183610543565b8252602082015290565b604051632cd44ac360e21b8152600490fd5b506040516000805490600182811c908084169384156106cb575b60209485841081146106b75783875286949392918115610697575060011461063b575b505061063892500382610575565b90565b60008080527f290decd9548b62a8d60345a988386fc84ba6bc95484008f6362f93160ef3e56395935091905b81831061067f5750506106389350820101388061062a565b85548784018501529485019486945091830191610667565b91505061063894925060ff191682840152151560051b820101388061062a565b634e487b7160e01b85526022600452602485fd5b91607f1691610607565b60ff81146106f75760ff811690601f82116105db57604051916105d183610543565b50604051600060019081549182811c9080841693841561079e575b60209485841081146106b75783875286949392918115610697575060011461074257505061063892500382610575565b60008181527fb10e2d527612073b26eecdfd717e6a320cf44b4afac2b0732d9fcbe2b7fa0cf695935091905b8183106107865750506106389350820101388061062a565b8554878401850152948501948694509183019161076e565b91607f1691610712565b67ffffffffffffffff811161055f57601f01601f191660200190565b356001600160a01b03811681036104cd5790565b903590601e19813603018212156104cd570180359067ffffffffffffffff82116104cd576020019181360383136104cd57565b908060209392818452848401376000828201840152601f01601f1916010190565b9190610837836107c4565b90610844602085016107c4565b9160808501359161085860a08701876107d8565b60409391845191829160208301947f2510fc5e187085770200b027d9f2cc4b930768f3b2bd81daafb71ffeb53d21c48652600160a01b60019003998a80921689860152166060840152868b0135608084015260608b013560a08401528760c0840152610100918260e08501526101208401906108d39261080b565b9060c08b01359083015203601f19810182526108ef9082610575565b5190206108fa610ae9565b9083519161190160f01b8352600283015260228201526042902061091d866107a8565b9083519161092b9083610575565b86825236878401116104cd57600060208861095a99610951968387013784010152610998565b90959195610a64565b82610964866107c4565b1660005260026020526000205414928361097f575b50505090565b8192935061098c906107c4565b16911614388080610979565b81519190604183036109c9576109c292506020820151906060604084015193015160001a906109d4565b9192909190565b505060009160029190565b91907f7fffffffffffffffffffffffffffffff5d576e7357a4501ddfe92f46681b20a08411610a5857926020929160ff608095604051948552168484015260408301526060820152600092839182805260015afa15610a4c5780516001600160a01b03811615610a4357918190565b50809160019190565b604051903d90823e3d90fd5b50505060009160039190565b6004811015610ad35780610a76575050565b60018103610a905760405163f645eedf60e01b8152600490fd5b60028103610ab15760405163fce698f760e01b815260048101839052602490fd5b600314610abb5750565b602490604051906335e2f38360e21b82526004820152fd5b634e487b7160e01b600052602160045260246000fd5b307f00000000000000000000000000000000000000000000000000000000000000006001600160a01b03161480610beb575b15610b44577f000000000000000000000000000000000000000000000000000000000000000090565b60405160208101907f8b73c3c69bb8fe3d512ecc4cf759cc79239f7b179b0ffacaa9a75d522b39400f82527f000000000000000000000000000000000000000000000000000000000000000060408201527f000000000000000000000000000000000000000000000000000000000000000060608201524660808201523060a082015260a0815260c0810181811067ffffffffffffffff82111761055f5760405251902090565b507f00000000000000000000000000000000000000000000000000000000000000004614610b1b565b6000198114610c235760010190565b634e487b7160e01b600052601160045260246000fd5b9291610c45918461082c565b15610e735760c08201358015908115610e69575b5015610e1a576001600160a01b03916080810135919083610c79826107c4565b1692600093845260209060028252604095868620805490610c9982610c14565b90558203610dd85795610cd094959683850194610cb5866107c4565b938980606084013596603489610d1060a088019d8e896107d8565b610cdc8a9592956107c4565b8c51948286938285019889378301916bffffffffffffffffffffffff199060601b1690820152036014810184520182610575565b519188870135908af1973d15610dd0573d9a610d2b8c6107a8565b9b610d3887519d8e610575565b8c523d81898e013e5b5a603f88041015610dbc575091839291610d917f6292f0adb882df8c6ed1260ceeed92259d460620d5cafe3da6abbb7ba6cb2fa597969593610d8b610d85856107c4565b9b6107c4565b936107d8565b959096610daa825198899860608a5260608a019161080b565b99870152850152169516930390a39190565b634e487b7160e01b81526001600452602490fd5b60609a610d41565b60648388519062461bcd60e51b825280600483015260248201527f4d696e696d616c466f727761726465723a206e6f6e6365206d69736d617463686044820152fd5b60405162461bcd60e51b815260206004820152602160248201527f4d696e696d616c466f727761726465723a2072657175657374206578706972656044820152601960fa1b6064820152608490fd5b9050421038610c59565b60405162461bcd60e51b815260206004820152603260248201527f4d696e696d616c466f727761726465723a207369676e617475726520646f6573604482015271081b9bdd081b585d18da081c995c5d595cdd60721b6064820152608490fd5b8051821015610ee75760209160051b010190565b634e487b7160e01b600052603260045260246000fdfea264697066735822122040ee1c61d7696cae6537d4ef5405e0a1b65faf11e4295694c23c6d246a44602d64736f6c63430008140033",
  "linkReferences": {},
  "deployedLinkReferences": {}
}