{
  "_format": "hh-sol-artifact-1",
  "contractName": "MpesaTreasuryAdapterV3",
  "sourceName": "contracts/MpesaTreasuryAdapterV3.sol",
  "abi": [
    {
      "inputs": [
        {
          "internalType": "address",
          "name": "_usdt",
          "type": "address"
        },
        {
          "internalType": "address",
          "name": "_pm",
          "type": "address"
        },
        {
          "internalType": "address",
          "name": "_treasury",
          "type": "address"
        },
        {
          "internalType": "address",
          "name": "_backend",
          "type": "address"
        }
      ],
      "stateMutability": "nonpayable",
      "type": "constructor"
    },
    {
      "inputs": [],
      "name": "backendEOA",
      "outputs": [
        {
          "internalType": "address",
          "name": "",
          "type": "address"
        }
      ],
      "stateMutability": "view",
      "type": "function"
    },
    {
      "inputs": [],
      "name": "packageManager",
      "outputs": [
        {
          "internalType": "address",
          "name": "",
          "type": "address"
        }
      ],
      "stateMutability": "view",
      "type": "function"
    },
    {
      "inputs": [],
      "name": "preapprove",
      "outputs": [],
      "stateMutability": "nonpayable",
      "type": "function"
    },
    {
      "inputs": [
        {
          "internalType": "address",
          "name": "buyer",
          "type": "address"
        },
        {
          "internalType": "uint256",
          "name": "packageId",
          "type": "uint256"
        },
        {
          "internalType": "address",
          "name": "referrer",
          "type": "address"
        }
      ],
      "name": "purchaseUsingTreasury",
      "outputs": [],
      "stateMutability": "nonpayable",
      "type": "function"
    },
    {
      "inputs": [],
      "name": "treasury",
      "outputs": [
        {
          "internalType": "address",
          "name": "",
          "type": "address"
        }
      ],
      "stateMutability": "view",
      "type": "function"
    },
    {
      "inputs": [],
      "name": "usdt",
      "outputs": [
        {
          "internalType": "address",
          "name": "",
          "type": "address"
        }
      ],
      "stateMutability": "view",
      "type": "function"
    }
  ],
  "bytecode": "0x6101003461018057601f610cd838819003918201601f19168301916001600160401b0383118484101761018557808492608094604052833981010312610180576100488161019b565b906100556020820161019b565b61006d60606100666040850161019b565b930161019b565b926001600160a01b0380821615159081610174575b81610168575b8161015c575b501561012c5760805260a05260c05260e052604051610b2890816101b0823960805181818161013a015281816103cf01526109d8015260a05181818160780152818161010201528181610282015281816102de015281816103390152818161042601528181610475015281816104de015261054a015260c0518181816103980152610993015260e05181818160cc015281816102300152610a1b0152f35b60405162461bcd60e51b81526020600482015260086024820152673130b21030b2323960c11b6044820152606490fd5b9050841615153861008e565b84811615159150610088565b83811615159150610082565b600080fd5b634e487b7160e01b600052604160045260246000fd5b51906001600160a01b03821682036101805756fe608080604052600436101561001357600080fd5b600090813560e01c9081631b41073f14610a07575080632f48ab7d146109c257806361d027b31461097d57806367785d48146101f2578063739e9c79146100aa5763bf2e233e1461006357600080fd5b346100a757806003193601126100a7576040517f00000000000000000000000000000000000000000000000000000000000000006001600160a01b03168152602090f35b80fd5b50346100a757806003193601126100a7578060206001600160a01b036100f3337f0000000000000000000000000000000000000000000000000000000000000000831614610a4a565b60405163095ea7b360e01b81527f000000000000000000000000000000000000000000000000000000000000000082166004820152600019602482015292839160449183917f0000000000000000000000000000000000000000000000000000000000000000165af19081156101e75782916101aa575b50156101735780f35b60405162461bcd60e51b815260206004820152600f60248201526e1c1c99585c1c1c9bdd994819985a5b608a1b6044820152606490fd5b90506020813d82116101df575b816101c460209383610a84565b810103126101db576101d590610abc565b3861016a565b5080fd5b3d91506101b7565b6040513d84823e3d90fd5b50346100a75760603660031901126100a7576004356001600160a01b03811681036101db576044356001600160a01b03811681036105375761025e337f00000000000000000000000000000000000000000000000000000000000000006001600160a01b031614610a4a565b6001600160a01b0382161561094c57604051630633ca0d60e21b81526020816004817f00000000000000000000000000000000000000000000000000000000000000006001600160a01b03165afa90811561061a57849161091a575b50604051632474521560e21b815260048101919091523060248201526020816044817f00000000000000000000000000000000000000000000000000000000000000006001600160a01b03165afa90811561061a5784916108e0575b50156108aa57604051631733bfc360e31b815260248035600483015284908290817f00000000000000000000000000000000000000000000000000000000000000006001600160a01b03165afa801561061a57849185908692610790575b5081610788575b5015610755576040516323b872dd60e01b81526001600160a01b037f0000000000000000000000000000000000000000000000000000000000000000811660048301523060248301526044820183905285927f00000000000000000000000000000000000000000000000000000000000000009091169160208160648187875af190811561061a57849161071b575b5015610657575b604051636eb1769f60e11b81523060048201527f00000000000000000000000000000000000000000000000000000000000000006001600160a01b03166024820152602081604481865afa90811561061a578491610625575b501061053b575b50507f00000000000000000000000000000000000000000000000000000000000000006001600160a01b03163b15610537576040516330769aef60e21b81526001600160a01b039283166004820152602480359082015290821660448201529082908290606490829084907f0000000000000000000000000000000000000000000000000000000000000000165af180156101e75761050e575080f35b67ffffffffffffffff81116105235760405280f35b634e487b7160e01b82526041600452602482fd5b8280fd5b60405163095ea7b360e01b81527f00000000000000000000000000000000000000000000000000000000000000006001600160a01b0316600482015260001960248201529160209183916044918391905af190811561061a5784916105dc575b50156105a8578238610471565b60405162461bcd60e51b815260206004820152600c60248201526b185c1c1c9bdd994819985a5b60a21b6044820152606490fd5b90506020813d602011610612575b816105f760209383610a84565b8101031261060e5761060890610abc565b3861059b565b8380fd5b3d91506105ea565b6040513d86823e3d90fd5b90506020813d60201161064f575b8161064060209383610a84565b8101031261060e57513861046a565b3d9150610633565b6040516370a0823160e01b8152306004820152909250602081602481855afa801561071057839187916106d7575b5010610692578491610411565b60405162461bcd60e51b815260206004820152601a60248201527f696e73756666696369656e7420616461707465722066756e64730000000000006044820152606490fd5b9150506020813d602011610708575b816106f360209383610a84565b810103126107045782905138610685565b8580fd5b3d91506106e6565b6040513d88823e3d90fd5b90506020813d60201161074d575b8161073660209383610a84565b8101031261060e5761074790610abc565b3861040a565b3d9150610729565b60405162461bcd60e51b815260206004820152600b60248201526a626164207061636b61676560a81b6044820152606490fd5b90503861037b565b925050503d8085833e6107a38183610a84565b8101610120828203126108a65781516107be60408401610ace565b506107cb60608401610ace565b506107d860808401610ae3565b506107e560a08401610ae3565b506107f260c08401610abc565b926107ff60e08201610abc565b926101008201519167ffffffffffffffff9283811161088e5782601f82840101121561088e57808201519384116108925760405192610848601f8601601f191660200185610a84565b84845260208583850101011161088e579089939291845b8481106108755750505001602001529138610374565b602083830182018101518583018201528c96500161085f565b8980fd5b634e487b7160e01b8a52604160045260248afd5b8480fd5b60405162461bcd60e51b815260206004820152600e60248201526d6e6f2073657276657220726f6c6560901b6044820152606490fd5b90506020813d602011610912575b816108fb60209383610a84565b8101031261060e5761090c90610abc565b38610316565b3d91506108ee565b90506020813d602011610944575b8161093560209383610a84565b8101031261060e5751386102ba565b3d9150610928565b60405162461bcd60e51b81526020600482015260096024820152683130b210313abcb2b960b91b6044820152606490fd5b50346100a757806003193601126100a7576040517f00000000000000000000000000000000000000000000000000000000000000006001600160a01b03168152602090f35b50346100a757806003193601126100a7576040517f00000000000000000000000000000000000000000000000000000000000000006001600160a01b03168152602090f35b9050346101db57816003193601126101db577f00000000000000000000000000000000000000000000000000000000000000006001600160a01b03168152602090f35b15610a5157565b60405162461bcd60e51b815260206004820152600b60248201526a1b9bdd08189858dad95b9960aa1b6044820152606490fd5b90601f8019910116810190811067ffffffffffffffff821117610aa657604052565b634e487b7160e01b600052604160045260246000fd5b51908115158203610ac957565b600080fd5b519067ffffffffffffffff82168203610ac957565b519061ffff82168203610ac95756fea2646970667358221220af2f2f1ad68ff8f342838584a8861e46c63c6708c580540634c53123e44bef2e64736f6c63430008140033",
  "linkReferences": {},
  "deployedLinkReferences": {}
}