{
  "_format": "hh-sol-artifact-1",
  "contractName": "MpesaTreasuryAdapter",
  "sourceName": "contracts/MpesaTreasuryAdapter.sol",
  "abi": [
    {
      "inputs": [
        {
          "internalType": "address",
          "name": "_usdt",
          "type": "address"
        },
        {
          "internalType": "address",
          "name": "_pm",
          "type": "address"
        },
        {
          "internalType": "address",
          "name": "_treasury",
          "type": "address"
        },
        {
          "internalType": "address",
          "name": "_backend",
          "type": "address"
        }
      ],
      "stateMutability": "nonpayable",
      "type": "constructor"
    },
    {
      "inputs": [],
      "name": "backendEOA",
      "outputs": [
        {
          "internalType": "address",
          "name": "",
          "type": "address"
        }
      ],
      "stateMutability": "view",
      "type": "function"
    },
    {
      "inputs": [],
      "name": "packageManager",
      "outputs": [
        {
          "internalType": "address",
          "name": "",
          "type": "address"
        }
      ],
      "stateMutability": "view",
      "type": "function"
    },
    {
      "inputs": [
        {
          "internalType": "address",
          "name": "buyer",
          "type": "address"
        },
        {
          "internalType": "uint256",
          "name": "packageId",
          "type": "uint256"
        },
        {
          "internalType": "address",
          "name": "referrer",
          "type": "address"
        }
      ],
      "name": "purchaseUsingTreasury",
      "outputs": [],
      "stateMutability": "nonpayable",
      "type": "function"
    },
    {
      "inputs": [],
      "name": "treasury",
      "outputs": [
        {
          "internalType": "address",
          "name": "",
          "type": "address"
        }
      ],
      "stateMutability": "view",
      "type": "function"
    },
    {
      "inputs": [],
      "name": "usdt",
      "outputs": [
        {
          "internalType": "address",
          "name": "",
          "type": "address"
        }
      ],
      "stateMutability": "view",
      "type": "function"
    }
  ],
  "bytecode": "0x6101003461016b57601f610aee38819003918201601f19168301916001600160401b038311848410176101705780849260809460405283398101031261016b5761004881610186565b9061005560208201610186565b61006d606061006660408501610186565b9301610186565b926001600160a01b038082161515908161015f575b81610153575b81610147575b50156101175760805260a05260c05260e052604051610953908161019b8239608051818181610276015261083d015260a051818181606d0152818161012b01528181610187015281816101e2015281816102ca0152818161031c0152818161038501526103fc015260c05181818161024101526107f8015260e05181818160d901526108800152f35b60405162461bcd60e51b81526020600482015260086024820152673130b21030b2323960c11b6044820152606490fd5b9050841615153861008e565b84811615159150610088565b83811615159150610082565b600080fd5b634e487b7160e01b600052604160045260246000fd5b51906001600160a01b038216820361016b5756fe608080604052600436101561001357600080fd5b600090813560e01c9081631b41073f1461086c575080632f48ab7d1461082757806361d027b3146107e257806367785d481461009f5763bf2e233e1461005857600080fd5b3461009c578060031936011261009c576040517f00000000000000000000000000000000000000000000000000000000000000006001600160a01b03168152602090f35b80fd5b503461009c57606036600319011261009c576004356001600160a01b03811681036107de576044356001600160a01b03811681036103e9577f00000000000000000000000000000000000000000000000000000000000000006001600160a01b031633036107ab576001600160a01b0382161561077a57604051630633ca0d60e21b81526020816004817f00000000000000000000000000000000000000000000000000000000000000006001600160a01b03165afa9081156104cc578491610748575b50604051632474521560e21b815260048101919091523060248201526020816044817f00000000000000000000000000000000000000000000000000000000000000006001600160a01b03165afa9081156104cc57849161070e575b50156106d857604051631733bfc360e31b815260248035600483015284908290817f00000000000000000000000000000000000000000000000000000000000000006001600160a01b03165afa80156104cc578491859086926105be575b50816105b6575b5015610583576040516323b872dd60e01b81526001600160a01b037f000000000000000000000000000000000000000000000000000000000000000081166004830152306024830152604482018390527f0000000000000000000000000000000000000000000000000000000000000000169060208160648189865af190811561057857869161053a575b501561050957604051636eb1769f60e11b81523060048201527f00000000000000000000000000000000000000000000000000000000000000006001600160a01b03166024820152859290602081604481865afa9081156104cc5784916104d7575b50106103ed575b50507f00000000000000000000000000000000000000000000000000000000000000006001600160a01b03163b156103e9576040516330769aef60e21b81526001600160a01b039283166004820152602480359082015290821660448201529082908290606490829084907f0000000000000000000000000000000000000000000000000000000000000000165af180156103de576103b5575080f35b67ffffffffffffffff81116103ca5760405280f35b634e487b7160e01b82526041600452602482fd5b6040513d84823e3d90fd5b8280fd5b60405163095ea7b360e01b81527f00000000000000000000000000000000000000000000000000000000000000006001600160a01b0316600482015260001960248201529160209183916044918391905af19081156104cc57849161048e575b501561045a578238610318565b60405162461bcd60e51b815260206004820152600c60248201526b185c1c1c9bdd994819985a5b60a21b6044820152606490fd5b90506020813d6020116104c4575b816104a9602093836108af565b810103126104c0576104ba906108e7565b3861044d565b8380fd5b3d915061049c565b6040513d86823e3d90fd5b90506020813d602011610501575b816104f2602093836108af565b810103126104c0575138610311565b3d91506104e5565b60405162461bcd60e51b81526020600482015260096024820152681c1d5b1b0819985a5b60ba1b6044820152606490fd5b90506020813d602011610570575b81610555602093836108af565b8101031261056c57610566906108e7565b386102af565b8580fd5b3d9150610548565b6040513d88823e3d90fd5b60405162461bcd60e51b815260206004820152600b60248201526a626164207061636b61676560a81b6044820152606490fd5b905038610224565b925050503d8085833e6105d181836108af565b8101610120828203126106d45781516105ec604084016108f9565b506105f9606084016108f9565b506106066080840161090e565b5061061360a0840161090e565b5061062060c084016108e7565b9261062d60e082016108e7565b926101008201519167ffffffffffffffff928381116106bc5782601f8284010112156106bc57808201519384116106c05760405192610676601f8601601f1916602001856108af565b8484526020858385010101116106bc579089939291845b8481106106a3575050500160200152913861021d565b602083830182018101518583018201528c96500161068d565b8980fd5b634e487b7160e01b8a52604160045260248afd5b8480fd5b60405162461bcd60e51b815260206004820152600e60248201526d6e6f2073657276657220726f6c6560901b6044820152606490fd5b90506020813d602011610740575b81610729602093836108af565b810103126104c05761073a906108e7565b386101bf565b3d915061071c565b90506020813d602011610772575b81610763602093836108af565b810103126104c0575138610163565b3d9150610756565b60405162461bcd60e51b81526020600482015260096024820152683130b210313abcb2b960b91b6044820152606490fd5b60405162461bcd60e51b815260206004820152600b60248201526a1b9bdd08189858dad95b9960aa1b6044820152606490fd5b5080fd5b503461009c578060031936011261009c576040517f00000000000000000000000000000000000000000000000000000000000000006001600160a01b03168152602090f35b503461009c578060031936011261009c576040517f00000000000000000000000000000000000000000000000000000000000000006001600160a01b03168152602090f35b9050346107de57816003193601126107de577f00000000000000000000000000000000000000000000000000000000000000006001600160a01b03168152602090f35b90601f8019910116810190811067ffffffffffffffff8211176108d157604052565b634e487b7160e01b600052604160045260246000fd5b519081151582036108f457565b600080fd5b519067ffffffffffffffff821682036108f457565b519061ffff821682036108f45756fea2646970667358221220245f5ecdf5b263ea4fa3979355eecf8740d2848e900ebcb7472674452c82a92864736f6c63430008140033",
  "linkReferences": {},
  "deployedLinkReferences": {}
}