{
  "_format": "hh-sol-artifact-1",
  "contractName": "MpesaTreasuryAdapterV2",
  "sourceName": "contracts/MpesaTreasuryAdapterV2.sol",
  "abi": [
    {
      "inputs": [
        {
          "internalType": "address",
          "name": "_usdt",
          "type": "address"
        },
        {
          "internalType": "address",
          "name": "_pm",
          "type": "address"
        },
        {
          "internalType": "address",
          "name": "_treasury",
          "type": "address"
        },
        {
          "internalType": "address",
          "name": "_backend",
          "type": "address"
        }
      ],
      "stateMutability": "nonpayable",
      "type": "constructor"
    },
    {
      "inputs": [],
      "name": "backendEOA",
      "outputs": [
        {
          "internalType": "address",
          "name": "",
          "type": "address"
        }
      ],
      "stateMutability": "view",
      "type": "function"
    },
    {
      "inputs": [],
      "name": "packageManager",
      "outputs": [
        {
          "internalType": "address",
          "name": "",
          "type": "address"
        }
      ],
      "stateMutability": "view",
      "type": "function"
    },
    {
      "inputs": [],
      "name": "preapprove",
      "outputs": [],
      "stateMutability": "nonpayable",
      "type": "function"
    },
    {
      "inputs": [
        {
          "internalType": "address",
          "name": "buyer",
          "type": "address"
        },
        {
          "internalType": "uint256",
          "name": "packageId",
          "type": "uint256"
        },
        {
          "internalType": "address",
          "name": "referrer",
          "type": "address"
        }
      ],
      "name": "purchaseUsingTreasury",
      "outputs": [],
      "stateMutability": "nonpayable",
      "type": "function"
    },
    {
      "inputs": [],
      "name": "treasury",
      "outputs": [
        {
          "internalType": "address",
          "name": "",
          "type": "address"
        }
      ],
      "stateMutability": "view",
      "type": "function"
    },
    {
      "inputs": [],
      "name": "usdt",
      "outputs": [
        {
          "internalType": "address",
          "name": "",
          "type": "address"
        }
      ],
      "stateMutability": "view",
      "type": "function"
    }
  ],
  "bytecode": "0x6101003461018057601f610c5238819003918201601f19168301916001600160401b0383118484101761018557808492608094604052833981010312610180576100488161019b565b906100556020820161019b565b61006d60606100666040850161019b565b930161019b565b926001600160a01b0380821615159081610174575b81610168575b8161015c575b501561012c5760805260a05260c05260e052604051610aa290816101b0823960805181818161013a015281816103cd0152610952015260a05181818160780152818161010201528181610282015281816102de015281816103390152818161042101528181610473015281816104dc0152610548015260c051818181610398015261090d015260e05181818160cc0152818161023001526109950152f35b60405162461bcd60e51b81526020600482015260086024820152673130b21030b2323960c11b6044820152606490fd5b9050841615153861008e565b84811615159150610088565b83811615159150610082565b600080fd5b634e487b7160e01b600052604160045260246000fd5b51906001600160a01b03821682036101805756fe608080604052600436101561001357600080fd5b600090813560e01c9081631b41073f14610981575080632f48ab7d1461093c57806361d027b3146108f757806367785d48146101f2578063739e9c79146100aa5763bf2e233e1461006357600080fd5b346100a757806003193601126100a7576040517f00000000000000000000000000000000000000000000000000000000000000006001600160a01b03168152602090f35b80fd5b50346100a757806003193601126100a7578060206001600160a01b036100f3337f00000000000000000000000000000000000000000000000000000000000000008316146109c4565b60405163095ea7b360e01b81527f000000000000000000000000000000000000000000000000000000000000000082166004820152600019602482015292839160449183917f0000000000000000000000000000000000000000000000000000000000000000165af19081156101e75782916101aa575b50156101735780f35b60405162461bcd60e51b815260206004820152600f60248201526e1c1c99585c1c1c9bdd994819985a5b608a1b6044820152606490fd5b90506020813d82116101df575b816101c4602093836109fe565b810103126101db576101d590610a36565b3861016a565b5080fd5b3d91506101b7565b6040513d84823e3d90fd5b50346100a75760603660031901126100a7576004356001600160a01b03811681036101db576044356001600160a01b03811681036105355761025e337f00000000000000000000000000000000000000000000000000000000000000006001600160a01b0316146109c4565b6001600160a01b038216156108c657604051630633ca0d60e21b81526020816004817f00000000000000000000000000000000000000000000000000000000000000006001600160a01b03165afa908115610618578491610894575b50604051632474521560e21b815260048101919091523060248201526020816044817f00000000000000000000000000000000000000000000000000000000000000006001600160a01b03165afa90811561061857849161085a575b501561082457604051631733bfc360e31b815260248035600483015284908290817f00000000000000000000000000000000000000000000000000000000000000006001600160a01b03165afa80156106185784918590869261070a575b5081610702575b50156106cf576040516323b872dd60e01b81526001600160a01b037f000000000000000000000000000000000000000000000000000000000000000081166004830152306024830152604482018390527f0000000000000000000000000000000000000000000000000000000000000000169060208160648189865af19081156106c4578691610686575b501561065557604051636eb1769f60e11b81523060048201527f00000000000000000000000000000000000000000000000000000000000000006001600160a01b03166024820152859290602081604481865afa908115610618578491610623575b5010610539575b50507f00000000000000000000000000000000000000000000000000000000000000006001600160a01b03163b15610535576040516330769aef60e21b81526001600160a01b039283166004820152602480359082015290821660448201529082908290606490829084907f0000000000000000000000000000000000000000000000000000000000000000165af180156101e75761050c575080f35b67ffffffffffffffff81116105215760405280f35b634e487b7160e01b82526041600452602482fd5b8280fd5b60405163095ea7b360e01b81527f00000000000000000000000000000000000000000000000000000000000000006001600160a01b0316600482015260001960248201529160209183916044918391905af19081156106185784916105da575b50156105a657823861046f565b60405162461bcd60e51b815260206004820152600c60248201526b185c1c1c9bdd994819985a5b60a21b6044820152606490fd5b90506020813d602011610610575b816105f5602093836109fe565b8101031261060c5761060690610a36565b38610599565b8380fd5b3d91506105e8565b6040513d86823e3d90fd5b90506020813d60201161064d575b8161063e602093836109fe565b8101031261060c575138610468565b3d9150610631565b60405162461bcd60e51b81526020600482015260096024820152681c1d5b1b0819985a5b60ba1b6044820152606490fd5b90506020813d6020116106bc575b816106a1602093836109fe565b810103126106b8576106b290610a36565b38610406565b8580fd5b3d9150610694565b6040513d88823e3d90fd5b60405162461bcd60e51b815260206004820152600b60248201526a626164207061636b61676560a81b6044820152606490fd5b90503861037b565b925050503d8085833e61071d81836109fe565b81016101208282031261082057815161073860408401610a48565b5061074560608401610a48565b5061075260808401610a5d565b5061075f60a08401610a5d565b5061076c60c08401610a36565b9261077960e08201610a36565b926101008201519167ffffffffffffffff928381116108085782601f828401011215610808578082015193841161080c57604051926107c2601f8601601f1916602001856109fe565b848452602085838501010111610808579089939291845b8481106107ef5750505001602001529138610374565b602083830182018101518583018201528c9650016107d9565b8980fd5b634e487b7160e01b8a52604160045260248afd5b8480fd5b60405162461bcd60e51b815260206004820152600e60248201526d6e6f2073657276657220726f6c6560901b6044820152606490fd5b90506020813d60201161088c575b81610875602093836109fe565b8101031261060c5761088690610a36565b38610316565b3d9150610868565b90506020813d6020116108be575b816108af602093836109fe565b8101031261060c5751386102ba565b3d91506108a2565b60405162461bcd60e51b81526020600482015260096024820152683130b210313abcb2b960b91b6044820152606490fd5b50346100a757806003193601126100a7576040517f00000000000000000000000000000000000000000000000000000000000000006001600160a01b03168152602090f35b50346100a757806003193601126100a7576040517f00000000000000000000000000000000000000000000000000000000000000006001600160a01b03168152602090f35b9050346101db57816003193601126101db577f00000000000000000000000000000000000000000000000000000000000000006001600160a01b03168152602090f35b156109cb57565b60405162461bcd60e51b815260206004820152600b60248201526a1b9bdd08189858dad95b9960aa1b6044820152606490fd5b90601f8019910116810190811067ffffffffffffffff821117610a2057604052565b634e487b7160e01b600052604160045260246000fd5b51908115158203610a4357565b600080fd5b519067ffffffffffffffff82168203610a4357565b519061ffff82168203610a435756fea2646970667358221220713b86ed293b690df0ddc957cb173c4d7dd3dbf049071d96abc5ec3f3073b0e964736f6c63430008140033",
  "linkReferences": {},
  "deployedLinkReferences": {}
}